{
  "_format": "hh-sol-artifact-1",
  "contractName": "LighthouseTierWrapper",
  "sourceName": "contracts/LighthouseTierWrapper.sol",
  "abi": [
    {
      "inputs": [
        {
          "internalType": "address",
          "name": "_crowns",
          "type": "address"
        },
        {
          "internalType": "address",
          "name": "_tier",
          "type": "address"
        },
        {
          "internalType": "address",
          "name": "_claimVerifier",
          "type": "address"
        },
        {
          "internalType": "uint256[4]",
          "name": "_fees",
          "type": "uint256[4]"
        },
        {
          "internalType": "uint256",
          "name": "_chainID",
          "type": "uint256"
        }
      ],
      "stateMutability": "nonpayable",
      "type": "constructor"
    },
    {
      "anonymous": false,
      "inputs": [
        {
          "indexed": true,
          "internalType": "address",
          "name": "investor",
          "type": "address"
        },
        {
          "indexed": true,
          "internalType": "uint8",
          "name": "tier",
          "type": "uint8"
        }
      ],
      "name": "Claim",
      "type": "event"
    },
    {
      "anonymous": false,
      "inputs": [
        {
          "indexed": true,
          "internalType": "address",
          "name": "oldAddress",
          "type": "address"
        },
        {
          "indexed": true,
          "internalType": "address",
          "name": "newAddress",
          "type": "address"
        }
      ],
      "name": "ClaimVerifier",
      "type": "event"
    },
    {
      "anonymous": false,
      "inputs": [
        {
          "indexed": false,
          "internalType": "uint256",
          "name": "feeZero",
          "type": "uint256"
        },
        {
          "indexed": false,
          "internalType": "uint256",
          "name": "feeOne",
          "type": "uint256"
        },
        {
          "indexed": false,
          "internalType": "uint256",
          "name": "feeTwo",
          "type": "uint256"
        },
        {
          "indexed": false,
          "internalType": "uint256",
          "name": "feeThree",
          "type": "uint256"
        }
      ],
      "name": "Fees",
      "type": "event"
    },
    {
      "anonymous": false,
      "inputs": [
        {
          "indexed": true,
          "internalType": "address",
          "name": "previousOwner",
          "type": "address"
        },
        {
          "indexed": true,
          "internalType": "address",
          "name": "newOwner",
          "type": "address"
        }
      ],
      "name": "OwnershipTransferred",
      "type": "event"
    },
    {
      "anonymous": false,
      "inputs": [
        {
          "indexed": true,
          "internalType": "address",
          "name": "user",
          "type": "address"
        },
        {
          "indexed": false,
          "internalType": "bool",
          "name": "allowed",
          "type": "bool"
        }
      ],
      "name": "TierEditer",
      "type": "event"
    },
    {
      "anonymous": false,
      "inputs": [
        {
          "indexed": true,
          "internalType": "address",
          "name": "investor",
          "type": "address"
        },
        {
          "indexed": true,
          "internalType": "uint8",
          "name": "tier",
          "type": "uint8"
        }
      ],
      "name": "Use",
      "type": "event"
    },
    {
      "inputs": [
        {
          "internalType": "address",
          "name": "_user",
          "type": "address"
        }
      ],
      "name": "addEditor",
      "outputs": [],
      "stateMutability": "nonpayable",
      "type": "function"
    },
    {
      "inputs": [],
      "name": "chainID",
      "outputs": [
        {
          "internalType": "uint256",
          "name": "",
          "type": "uint256"
        }
      ],
      "stateMutability": "view",
      "type": "function"
    },
    {
      "inputs": [
        {
          "internalType": "uint8",
          "name": "level",
          "type": "uint8"
        },
        {
          "internalType": "uint8",
          "name": "v",
          "type": "uint8"
        },
        {
          "internalType": "bytes32",
          "name": "r",
          "type": "bytes32"
        },
        {
          "internalType": "bytes32",
          "name": "s",
          "type": "bytes32"
        }
      ],
      "name": "claim",
      "outputs": [],
      "stateMutability": "nonpayable",
      "type": "function"
    },
    {
      "inputs": [],
      "name": "claimVerifier",
      "outputs": [
        {
          "internalType": "address",
          "name": "",
          "type": "address"
        }
      ],
      "stateMutability": "view",
      "type": "function"
    },
    {
      "inputs": [
        {
          "internalType": "address",
          "name": "_user",
          "type": "address"
        }
      ],
      "name": "deleteEditor",
      "outputs": [],
      "stateMutability": "nonpayable",
      "type": "function"
    },
    {
      "inputs": [
        {
          "internalType": "address",
          "name": "",
          "type": "address"
        }
      ],
      "name": "editors",
      "outputs": [
        {
          "internalType": "bool",
          "name": "",
          "type": "bool"
        }
      ],
      "stateMutability": "view",
      "type": "function"
    },
    {
      "inputs": [
        {
          "internalType": "uint8",
          "name": "",
          "type": "uint8"
        }
      ],
      "name": "fees",
      "outputs": [
        {
          "internalType": "uint256",
          "name": "",
          "type": "uint256"
        }
      ],
      "stateMutability": "view",
      "type": "function"
    },
    {
      "inputs": [
        {
          "internalType": "address",
          "name": "investor",
          "type": "address"
        }
      ],
      "name": "getTierLevel",
      "outputs": [
        {
          "internalType": "int8",
          "name": "",
          "type": "int8"
        }
      ],
      "stateMutability": "view",
      "type": "function"
    },
    {
      "inputs": [],
      "name": "owner",
      "outputs": [
        {
          "internalType": "address",
          "name": "",
          "type": "address"
        }
      ],
      "stateMutability": "view",
      "type": "function"
    },
    {
      "inputs": [],
      "name": "renounceOwnership",
      "outputs": [],
      "stateMutability": "nonpayable",
      "type": "function"
    },
    {
      "inputs": [
        {
          "internalType": "address",
          "name": "_claimVerifier",
          "type": "address"
        }
      ],
      "name": "setClaimVerifier",
      "outputs": [],
      "stateMutability": "nonpayable",
      "type": "function"
    },
    {
      "inputs": [
        {
          "internalType": "uint256[4]",
          "name": "_fees",
          "type": "uint256[4]"
        }
      ],
      "name": "setFees",
      "outputs": [],
      "stateMutability": "nonpayable",
      "type": "function"
    },
    {
      "inputs": [
        {
          "internalType": "address",
          "name": "",
          "type": "address"
        }
      ],
      "name": "tiers",
      "outputs": [
        {
          "internalType": "uint8",
          "name": "level",
          "type": "uint8"
        },
        {
          "internalType": "bool",
          "name": "usable",
          "type": "bool"
        },
        {
          "internalType": "uint256",
          "name": "nonce",
          "type": "uint256"
        }
      ],
      "stateMutability": "view",
      "type": "function"
    },
    {
      "inputs": [
        {
          "internalType": "address",
          "name": "newOwner",
          "type": "address"
        }
      ],
      "name": "transferOwnership",
      "outputs": [],
      "stateMutability": "nonpayable",
      "type": "function"
    },
    {
      "inputs": [
        {
          "internalType": "address",
          "name": "investor",
          "type": "address"
        },
        {
          "internalType": "uint8",
          "name": "level",
          "type": "uint8"
        }
      ],
      "name": "use",
      "outputs": [],
      "stateMutability": "nonpayable",
      "type": "function"
    }
  ],
  "bytecode": "0x60a06040523480156200001157600080fd5b506040516200348a3803806200348a8339818101604052810190620000379190620007a1565b620000576200004b6200030b60201b60201c565b6200031360201b60201c565b600073ffffffffffffffffffffffffffffffffffffffff168573ffffffffffffffffffffffffffffffffffffffff161415620000ca576040517f08c379a0000000000000000000000000000000000000000000000000000000008152600401620000c1906200095f565b60405180910390fd5b600073ffffffffffffffffffffffffffffffffffffffff168473ffffffffffffffffffffffffffffffffffffffff16141580156200013457503073ffffffffffffffffffffffffffffffffffffffff168473ffffffffffffffffffffffffffffffffffffffff1614155b62000176576040517f08c379a00000000000000000000000000000000000000000000000000000000081526004016200016d906200095f565b60405180910390fd5b600073ffffffffffffffffffffffffffffffffffffffff168373ffffffffffffffffffffffffffffffffffffffff161415620001e9576040517f08c379a0000000000000000000000000000000000000000000000000000000008152600401620001e0906200095f565b60405180910390fd5b600081116200022f576040517f08c379a0000000000000000000000000000000000000000000000000000000008152600401620002269062000981565b60405180910390fd5b6200024082620003d760201b60201c565b8473ffffffffffffffffffffffffffffffffffffffff1660808173ffffffffffffffffffffffffffffffffffffffff1660601b8152505082600660006101000a81548173ffffffffffffffffffffffffffffffffffffffff021916908373ffffffffffffffffffffffffffffffffffffffff1602179055508060028190555083600160006101000a81548173ffffffffffffffffffffffffffffffffffffffff021916908373ffffffffffffffffffffffffffffffffffffffff160217905550505050505062000b8c565b600033905090565b60008060009054906101000a900473ffffffffffffffffffffffffffffffffffffffff169050816000806101000a81548173ffffffffffffffffffffffffffffffffffffffff021916908373ffffffffffffffffffffffffffffffffffffffff1602179055508173ffffffffffffffffffffffffffffffffffffffff168173ffffffffffffffffffffffffffffffffffffffff167f8be0079c531659141344cd1fd0a4f28419497f9722a3daafe3b4186f6b6457e060405160405180910390a35050565b620003e76200030b60201b60201c565b73ffffffffffffffffffffffffffffffffffffffff166200040d620006b460201b60201c565b73ffffffffffffffffffffffffffffffffffffffff161462000466576040517f08c379a00000000000000000000000000000000000000000000000000000000081526004016200045d90620009a3565b60405180910390fd5b60005b60048160ff1610156200057557620f4240828260ff1660048110620004b7577f4e487b7100000000000000000000000000000000000000000000000000000000600052603260045260246000fd5b6020020151101562000500576040517f08c379a0000000000000000000000000000000000000000000000000000000008152600401620004f7906200093d565b60405180910390fd5b818160ff16600481106200053d577f4e487b7100000000000000000000000000000000000000000000000000000000600052603260045260246000fd5b6020020151600460008360ff1660ff1681526020019081526020016000208190555080806200056c9062000acb565b91505062000469565b507f4489155594f1d8b441305041bc1fa2fc40441583393f9626061d38dbefdc183481600060048110620005d2577f4e487b7100000000000000000000000000000000000000000000000000000000600052603260045260246000fd5b60200201518260016004811062000612577f4e487b7100000000000000000000000000000000000000000000000000000000600052603260045260246000fd5b60200201518360026004811062000652577f4e487b7100000000000000000000000000000000000000000000000000000000600052603260045260246000fd5b60200201518460036004811062000692577f4e487b7100000000000000000000000000000000000000000000000000000000600052603260045260246000fd5b6020020151604051620006a99493929190620009c5565b60405180910390a150565b60008060009054906101000a900473ffffffffffffffffffffffffffffffffffffffff16905090565b6000620006f4620006ee8462000a46565b62000a12565b905080828560208602820111156200070b57600080fd5b60005b858110156200073f57816200072488826200078a565b8452602084019350602083019250506001810190506200070e565b5050509392505050565b6000815190506200075a8162000b58565b92915050565b600082601f8301126200077257600080fd5b600462000781848285620006dd565b91505092915050565b6000815190506200079b8162000b72565b92915050565b60008060008060006101008688031215620007bb57600080fd5b6000620007cb8882890162000749565b9550506020620007de8882890162000749565b9450506040620007f18882890162000749565b9350506060620008048882890162000760565b92505060e062000817888289016200078a565b9150509295509295909350565b600062000833601a8362000a6f565b91507f4c69676874686f757365546965723a205a45524f5f4645455f300000000000006000830152602082019050919050565b600062000875601c8362000a6f565b91507f4c69676874686f757365546965723a205a45524f5f41444452455353000000006000830152602082019050919050565b6000620008b7601a8362000a6f565b91507f4c69676874686f757365546965723a205a45524f5f56414c55450000000000006000830152602082019050919050565b6000620008f960208362000a6f565b91507f4f776e61626c653a2063616c6c6572206973206e6f7420746865206f776e65726000830152602082019050919050565b620009378162000ab4565b82525050565b60006020820190508181036000830152620009588162000824565b9050919050565b600060208201905081810360008301526200097a8162000866565b9050919050565b600060208201905081810360008301526200099c81620008a8565b9050919050565b60006020820190508181036000830152620009be81620008ea565b9050919050565b6000608082019050620009dc60008301876200092c565b620009eb60208301866200092c565b620009fa60408301856200092c565b62000a0960608301846200092c565b95945050505050565b6000604051905081810181811067ffffffffffffffff8211171562000a3c5762000a3b62000b29565b5b8060405250919050565b600067ffffffffffffffff82111562000a645762000a6362000b29565b5b602082029050919050565b600082825260208201905092915050565b600062000a8d8262000a94565b9050919050565b600073ffffffffffffffffffffffffffffffffffffffff82169050919050565b6000819050919050565b600060ff82169050919050565b600062000ad88262000abe565b915060ff82141562000aef5762000aee62000afa565b5b600182019050919050565b7f4e487b7100000000000000000000000000000000000000000000000000000000600052601160045260246000fd5b7f4e487b7100000000000000000000000000000000000000000000000000000000600052604160045260246000fd5b62000b638162000a80565b811462000b6f57600080fd5b50565b62000b7d8162000ab4565b811462000b8957600080fd5b50565b60805160601c6128df62000bab6000396000610e6301526128df6000f3fe608060405234801561001057600080fd5b50600436106100f55760003560e01c8063a93539d011610097578063cd52844d11610066578063cd52844d14610260578063e5975bdc14610290578063f2fde38b146102ac578063fb20d98f146102c8576100f5565b8063a93539d0146101d6578063adc879e9146101f4578063ba1cbc7f14610212578063c8111f271461022e576100f5565b80636b74b211116100d35780636b74b21114610176578063715018a6146101925780638da5cb5b1461019c578063a398e206146101ba576100f5565b806328fc4c3c146100fa578063357c13541461012a57806338eb84251461015a575b600080fd5b610114600480360381019061010f9190611ad2565b6102e4565b6040516101219190612282565b60405180910390f35b610144600480360381019061013f9190611bb2565b610445565b604051610151919061247d565b60405180910390f35b610174600480360381019061016f9190611ad2565b61045d565b005b610190600480360381019061018b9190611b37565b61069a565b005b61019a610955565b005b6101a46109dd565b6040516101b191906121de565b60405180910390f35b6101d460048036038101906101cf9190611bdb565b610a06565b005b6101de610fb8565b6040516101eb91906121de565b60405180910390f35b6101fc610fde565b604051610209919061247d565b60405180910390f35b61022c60048036038101906102279190611afb565b610fe4565b005b61024860048036038101906102439190611ad2565b61135d565b604051610257939291906124dd565b60405180910390f35b61027a60048036038101906102759190611ad2565b6113a1565b6040516102879190612222565b60405180910390f35b6102aa60048036038101906102a59190611ad2565b6113c1565b005b6102c660048036038101906102c19190611ad2565b6115e4565b005b6102e260048036038101906102dd9190611ad2565b6116dc565b005b6000600360008373ffffffffffffffffffffffffffffffffffffffff1673ffffffffffffffffffffffffffffffffffffffff16815260200190815260200160002060000160019054906101000a900460ff161561039257600360008373ffffffffffffffffffffffffffffffffffffffff1673ffffffffffffffffffffffffffffffffffffffff16815260200190815260200160002060000160009054906101000a900460ff169050610440565b600160009054906101000a900473ffffffffffffffffffffffffffffffffffffffff1673ffffffffffffffffffffffffffffffffffffffff166328fc4c3c836040518263ffffffff1660e01b81526004016103ed91906121de565b60206040518083038186803b15801561040557600080fd5b505afa158015610419573d6000803e3d6000fd5b505050506040513d601f19601f8201168201806040525081019061043d9190611b89565b90505b919050565b60046020528060005260406000206000915090505481565b6104656118fe565b73ffffffffffffffffffffffffffffffffffffffff166104836109dd565b73ffffffffffffffffffffffffffffffffffffffff16146104d9576040517f08c379a00000000000000000000000000000000000000000000000000000000081526004016104d09061243d565b60405180910390fd5b600073ffffffffffffffffffffffffffffffffffffffff168173ffffffffffffffffffffffffffffffffffffffff161415610549576040517f08c379a0000000000000000000000000000000000000000000000000000000008152600401610540906123dd565b60405180910390fd5b8073ffffffffffffffffffffffffffffffffffffffff16600660009054906101000a900473ffffffffffffffffffffffffffffffffffffffff1673ffffffffffffffffffffffffffffffffffffffff1614156105da576040517f08c379a00000000000000000000000000000000000000000000000000000000081526004016105d19061239d565b60405180910390fd5b8073ffffffffffffffffffffffffffffffffffffffff16600660009054906101000a900473ffffffffffffffffffffffffffffffffffffffff1673ffffffffffffffffffffffffffffffffffffffff167fe49d43d1bd8f42cdda14e278ba778d4ec133d4f2d1d397c73ba35f5fca4daedb60405160405180910390a380600660006101000a81548173ffffffffffffffffffffffffffffffffffffffff021916908373ffffffffffffffffffffffffffffffffffffffff16021790555050565b6106a26118fe565b73ffffffffffffffffffffffffffffffffffffffff166106c06109dd565b73ffffffffffffffffffffffffffffffffffffffff1614610716576040517f08c379a000000000000000000000000000000000000000000000000000000000815260040161070d9061243d565b60405180910390fd5b60005b60048160ff16101561081c57620f4240828260ff1660048110610765577f4e487b7100000000000000000000000000000000000000000000000000000000600052603260045260246000fd5b602002015110156107ab576040517f08c379a00000000000000000000000000000000000000000000000000000000081526004016107a29061235d565b60405180910390fd5b818160ff16600481106107e7577f4e487b7100000000000000000000000000000000000000000000000000000000600052603260045260246000fd5b6020020151600460008360ff1660ff16815260200190815260200160002081905550808061081490612733565b915050610719565b507f4489155594f1d8b441305041bc1fa2fc40441583393f9626061d38dbefdc183481600060048110610878577f4e487b7100000000000000000000000000000000000000000000000000000000600052603260045260246000fd5b6020020151826001600481106108b7577f4e487b7100000000000000000000000000000000000000000000000000000000600052603260045260246000fd5b6020020151836002600481106108f6577f4e487b7100000000000000000000000000000000000000000000000000000000600052603260045260246000fd5b602002015184600360048110610935577f4e487b7100000000000000000000000000000000000000000000000000000000600052603260045260246000fd5b602002015160405161094a9493929190612498565b60405180910390a150565b61095d6118fe565b73ffffffffffffffffffffffffffffffffffffffff1661097b6109dd565b73ffffffffffffffffffffffffffffffffffffffff16146109d1576040517f08c379a00000000000000000000000000000000000000000000000000000000081526004016109c89061243d565b60405180910390fd5b6109db6000611906565b565b60008060009054906101000a900473ffffffffffffffffffffffffffffffffffffffff16905090565b60048460ff1610610a4c576040517f08c379a0000000000000000000000000000000000000000000000000000000008152600401610a43906123fd565b60405180910390fd5b6000600360003373ffffffffffffffffffffffffffffffffffffffff1673ffffffffffffffffffffffffffffffffffffffff16815260200190815260200160002090508060000160019054906101000a900460ff16610c25576000600160009054906101000a900473ffffffffffffffffffffffffffffffffffffffff1673ffffffffffffffffffffffffffffffffffffffff166328fc4c3c336040518263ffffffff1660e01b8152600401610b0291906121de565b60206040518083038186803b158015610b1a57600080fd5b505afa158015610b2e573d6000803e3d6000fd5b505050506040513d601f19601f82011682018060405250810190610b529190611b89565b90507fffffffffffffffffffffffffffffffffffffffffffffffffffffffffffffffff8160000b1315610bd857600181610b8c9190612592565b60000b8660000b14610bd3576040517f08c379a0000000000000000000000000000000000000000000000000000000008152600401610bca9061229d565b60405180910390fd5b610c1f565b60008660ff1614610c1e576040517f08c379a0000000000000000000000000000000000000000000000000000000008152600401610c15906122bd565b60405180910390fd5b5b50610c8b565b8460ff1660018260000160009054906101000a900460ff16610c47919061265d565b60ff1614610c8a576040517f08c379a0000000000000000000000000000000000000000000000000000000008152600401610c819061241d565b60405180910390fd5b5b60006040518060400160405280601c81526020017f19457468657265756d205369676e6564204d6573736167653a0a333200000000815250905060003383600101548860025430604051602001610ce6959493929190612157565b60405160208183030381529060405280519060200120905060008282604051602001610d139291906121b6565b604051602081830303815290604052805190602001209050600060018289898960405160008152602001604052604051610d50949392919061223d565b6020604051602081039080840390855afa158015610d72573d6000803e3d6000fd5b505050602060405103519050600660009054906101000a900473ffffffffffffffffffffffffffffffffffffffff1673ffffffffffffffffffffffffffffffffffffffff168173ffffffffffffffffffffffffffffffffffffffff1614610e0e576040517f08c379a0000000000000000000000000000000000000000000000000000000008152600401610e05906123bd565b60405180910390fd5b888560000160006101000a81548160ff021916908360ff16021790555060018560000160016101000a81548160ff02191690831515021790555060018560010154610e599190612607565b85600101819055507f000000000000000000000000000000000000000000000000000000000000000073ffffffffffffffffffffffffffffffffffffffff16636aade28833600460008d60ff1660ff168152602001908152602001600020546040518363ffffffff1660e01b8152600401610ed59291906121f9565b602060405180830381600087803b158015610eef57600080fd5b505af1158015610f03573d6000803e3d6000fd5b505050506040513d601f19601f82011682018060405250810190610f279190611b60565b610f66576040517f08c379a0000000000000000000000000000000000000000000000000000000008152600401610f5d906122dd565b60405180910390fd5b8860ff163373ffffffffffffffffffffffffffffffffffffffff167f2e2a94b1bf4a5580acb10f544a4b2e39c602981d27e56bf90e73f0074d33b6b260405160405180910390a3505050505050505050565b600660009054906101000a900473ffffffffffffffffffffffffffffffffffffffff1681565b60025481565b60048160ff161061102a576040517f08c379a0000000000000000000000000000000000000000000000000000000008152600401611021906123fd565b60405180910390fd5b600073ffffffffffffffffffffffffffffffffffffffff168273ffffffffffffffffffffffffffffffffffffffff16141561109a576040517f08c379a0000000000000000000000000000000000000000000000000000000008152600401611091906123dd565b60405180910390fd5b600560003373ffffffffffffffffffffffffffffffffffffffff1673ffffffffffffffffffffffffffffffffffffffff16815260200190815260200160002060009054906101000a900460ff16611126576040517f08c379a000000000000000000000000000000000000000000000000000000000815260040161111d9061237d565b60405180910390fd5b6000600360008473ffffffffffffffffffffffffffffffffffffffff1673ffffffffffffffffffffffffffffffffffffffff16815260200190815260200160002090508060000160019054906101000a900460ff1661127c576000600160009054906101000a900473ffffffffffffffffffffffffffffffffffffffff1673ffffffffffffffffffffffffffffffffffffffff166328fc4c3c856040518263ffffffff1660e01b81526004016111dc91906121de565b60206040518083038186803b1580156111f457600080fd5b505afa158015611208573d6000803e3d6000fd5b505050506040513d601f19601f8201168201806040525081019061122c9190611b89565b90508260000b8160000b14611276576040517f08c379a000000000000000000000000000000000000000000000000000000000815260040161126d9061233d565b60405180910390fd5b506112d6565b8160ff168160000160009054906101000a900460ff1660ff16146112d5576040517f08c379a00000000000000000000000000000000000000000000000000000000081526004016112cc9061241d565b60405180910390fd5b5b60018160000160016101000a81548160ff02191690831515021790555060008160000160006101000a81548160ff021916908360ff1602179055508160ff168373ffffffffffffffffffffffffffffffffffffffff167f0eaca539e568efb8aed51f9984b71dee27485782c80de2fcfde4398151c39a8f60405160405180910390a3505050565b60036020528060005260406000206000915090508060000160009054906101000a900460ff16908060000160019054906101000a900460ff16908060010154905083565b60056020528060005260406000206000915054906101000a900460ff1681565b6113c96118fe565b73ffffffffffffffffffffffffffffffffffffffff166113e76109dd565b73ffffffffffffffffffffffffffffffffffffffff161461143d576040517f08c379a00000000000000000000000000000000000000000000000000000000081526004016114349061243d565b60405180910390fd5b600073ffffffffffffffffffffffffffffffffffffffff168173ffffffffffffffffffffffffffffffffffffffff1614156114ad576040517f08c379a00000000000000000000000000000000000000000000000000000000081526004016114a4906123dd565b60405180910390fd5b600560008273ffffffffffffffffffffffffffffffffffffffff1673ffffffffffffffffffffffffffffffffffffffff16815260200190815260200160002060009054906101000a900460ff161561153a576040517f08c379a0000000000000000000000000000000000000000000000000000000008152600401611531906122fd565b60405180910390fd5b6001600560008373ffffffffffffffffffffffffffffffffffffffff1673ffffffffffffffffffffffffffffffffffffffff16815260200190815260200160002060006101000a81548160ff0219169083151502179055508073ffffffffffffffffffffffffffffffffffffffff167fad424f61135bf7cc55206b37c1dfcef56d2f1dee00559f79fd7481bf0c7b078b60016040516115d99190612222565b60405180910390a250565b6115ec6118fe565b73ffffffffffffffffffffffffffffffffffffffff1661160a6109dd565b73ffffffffffffffffffffffffffffffffffffffff1614611660576040517f08c379a00000000000000000000000000000000000000000000000000000000081526004016116579061243d565b60405180910390fd5b600073ffffffffffffffffffffffffffffffffffffffff168173ffffffffffffffffffffffffffffffffffffffff1614156116d0576040517f08c379a00000000000000000000000000000000000000000000000000000000081526004016116c79061231d565b60405180910390fd5b6116d981611906565b50565b6116e46118fe565b73ffffffffffffffffffffffffffffffffffffffff166117026109dd565b73ffffffffffffffffffffffffffffffffffffffff1614611758576040517f08c379a000000000000000000000000000000000000000000000000000000000815260040161174f9061243d565b60405180910390fd5b600073ffffffffffffffffffffffffffffffffffffffff168173ffffffffffffffffffffffffffffffffffffffff1614156117c8576040517f08c379a00000000000000000000000000000000000000000000000000000000081526004016117bf906123dd565b60405180910390fd5b600560008273ffffffffffffffffffffffffffffffffffffffff1673ffffffffffffffffffffffffffffffffffffffff16815260200190815260200160002060009054906101000a900460ff16611854576040517f08c379a000000000000000000000000000000000000000000000000000000000815260040161184b9061245d565b60405180910390fd5b6000600560008373ffffffffffffffffffffffffffffffffffffffff1673ffffffffffffffffffffffffffffffffffffffff16815260200190815260200160002060006101000a81548160ff0219169083151502179055508073ffffffffffffffffffffffffffffffffffffffff167fad424f61135bf7cc55206b37c1dfcef56d2f1dee00559f79fd7481bf0c7b078b60006040516118f39190612222565b60405180910390a250565b600033905090565b60008060009054906101000a900473ffffffffffffffffffffffffffffffffffffffff169050816000806101000a81548173ffffffffffffffffffffffffffffffffffffffff021916908373ffffffffffffffffffffffffffffffffffffffff1602179055508173ffffffffffffffffffffffffffffffffffffffff168173ffffffffffffffffffffffffffffffffffffffff167f8be0079c531659141344cd1fd0a4f28419497f9722a3daafe3b4186f6b6457e060405160405180910390a35050565b60006119dd6119d884612545565b612514565b905080828560208602820111156119f357600080fd5b60005b85811015611a235781611a098882611aa8565b8452602084019350602083019250506001810190506119f6565b5050509392505050565b600081359050611a3c8161281f565b92915050565b600082601f830112611a5357600080fd5b6004611a608482856119ca565b91505092915050565b600081519050611a7881612836565b92915050565b600081359050611a8d8161284d565b92915050565b600081519050611aa281612864565b92915050565b600081359050611ab78161287b565b92915050565b600081359050611acc81612892565b92915050565b600060208284031215611ae457600080fd5b6000611af284828501611a2d565b91505092915050565b60008060408385031215611b0e57600080fd5b6000611b1c85828601611a2d565b9250506020611b2d85828601611abd565b9150509250929050565b600060808284031215611b4957600080fd5b6000611b5784828501611a42565b91505092915050565b600060208284031215611b7257600080fd5b6000611b8084828501611a69565b91505092915050565b600060208284031215611b9b57600080fd5b6000611ba984828501611a93565b91505092915050565b600060208284031215611bc457600080fd5b6000611bd284828501611abd565b91505092915050565b60008060008060808587031215611bf157600080fd5b6000611bff87828801611abd565b9450506020611c1087828801611abd565b9350506040611c2187828801611a7e565b9250506060611c3287828801611a7e565b91505092959194509250565b611c4781612694565b82525050565b611c5e611c5982612694565b61275d565b82525050565b611c6d816126a6565b82525050565b611c7c816126b2565b82525050565b611c93611c8e826126b2565b61276f565b82525050565b6000611ca48261256b565b611cae8185612576565b9350611cbe818560208601612700565b80840191505092915050565b611cd3816126bc565b82525050565b6000611ce6602583612581565b91507f4c69676874686f757365546965723a20494e56414c49445f574954485f4f4c4460008301527f5f544945520000000000000000000000000000000000000000000000000000006020830152604082019050919050565b6000611d4c601883612581565b91507f4c696768686f757365546965723a20305f434c41494d454400000000000000006000830152602082019050919050565b6000611d8c601b83612581565b91507f4c69676874686f757365546965723a204357535f554e5350454e4400000000006000830152602082019050919050565b6000611dcc601d83612581565b91507f4c69676874686f757365546965723a20414c52454144595f41444445440000006000830152602082019050919050565b6000611e0c602683612581565b91507f4f776e61626c653a206e6577206f776e657220697320746865207a65726f206160008301527f64647265737300000000000000000000000000000000000000000000000000006020830152604082019050919050565b6000611e72602083612581565b91507f4c69676874686f757365546965723a20494e56414c49445f4f4c445f544945526000830152602082019050919050565b6000611eb2601a83612581565b91507f4c69676874686f757365546965723a205a45524f5f4645455f300000000000006000830152602082019050919050565b6000611ef2601983612581565b91507f4c69676874686f757365546965723a20464f5242494444454e000000000000006000830152602082019050919050565b6000611f32601c83612581565b91507f4c69676874686f757365546965723a2053414d455f41444452455353000000006000830152602082019050919050565b6000611f72601383612581565b91507f4c69676874686f757365546965723a20534947000000000000000000000000006000830152602082019050919050565b6000611fb2601c83612581565b91507f4c69676874686f757365546965723a205a45524f5f41444452455353000000006000830152602082019050919050565b6000611ff2602183612581565b91507f4c69676874686f757365546965723a20494e56414c49445f504152414d45544560008301527f52000000000000000000000000000000000000000000000000000000000000006020830152604082019050919050565b6000612058601d83612581565b91507f4c69676874686f757365546965723a20494e56414c49445f4c4556454c0000006000830152602082019050919050565b6000612098602083612581565b91507f4f776e61626c653a2063616c6c6572206973206e6f7420746865206f776e65726000830152602082019050919050565b60006120d8601783612581565b91507f4c69676874686f757365546965723a204e4f5f555345520000000000000000006000830152602082019050919050565b612114816126e9565b82525050565b61212b612126826126e9565b61278b565b82525050565b61213a816126f3565b82525050565b61215161214c826126f3565b612795565b82525050565b60006121638288611c4d565b601482019150612173828761211a565b6020820191506121838286612140565b600182019150612193828561211a565b6020820191506121a38284611c4d565b6014820191508190509695505050505050565b60006121c28285611c99565b91506121ce8284611c82565b6020820191508190509392505050565b60006020820190506121f36000830184611c3e565b92915050565b600060408201905061220e6000830185611c3e565b61221b602083018461210b565b9392505050565b60006020820190506122376000830184611c64565b92915050565b60006080820190506122526000830187611c73565b61225f6020830186612131565b61226c6040830185611c73565b6122796060830184611c73565b95945050505050565b60006020820190506122976000830184611cca565b92915050565b600060208201905081810360008301526122b681611cd9565b9050919050565b600060208201905081810360008301526122d681611d3f565b9050919050565b600060208201905081810360008301526122f681611d7f565b9050919050565b6000602082019050818103600083015261231681611dbf565b9050919050565b6000602082019050818103600083015261233681611dff565b9050919050565b6000602082019050818103600083015261235681611e65565b9050919050565b6000602082019050818103600083015261237681611ea5565b9050919050565b6000602082019050818103600083015261239681611ee5565b9050919050565b600060208201905081810360008301526123b681611f25565b9050919050565b600060208201905081810360008301526123d681611f65565b9050919050565b600060208201905081810360008301526123f681611fa5565b9050919050565b6000602082019050818103600083015261241681611fe5565b9050919050565b600060208201905081810360008301526124368161204b565b9050919050565b600060208201905081810360008301526124568161208b565b9050919050565b60006020820190508181036000830152612476816120cb565b9050919050565b6000602082019050612492600083018461210b565b92915050565b60006080820190506124ad600083018761210b565b6124ba602083018661210b565b6124c7604083018561210b565b6124d4606083018461210b565b95945050505050565b60006060820190506124f26000830186612131565b6124ff6020830185611c64565b61250c604083018461210b565b949350505050565b6000604051905081810181811067ffffffffffffffff8211171561253b5761253a6127d6565b5b8060405250919050565b600067ffffffffffffffff8211156125605761255f6127d6565b5b602082029050919050565b600081519050919050565b600081905092915050565b600082825260208201905092915050565b600061259d826126bc565b91506125a8836126bc565b925081607f038313600083121516156125c4576125c36127a7565b5b817fffffffffffffffffffffffffffffffffffffffffffffffffffffffffffffff800383126000831216156125fc576125fb6127a7565b5b828201905092915050565b6000612612826126e9565b915061261d836126e9565b9250827fffffffffffffffffffffffffffffffffffffffffffffffffffffffffffffffff03821115612652576126516127a7565b5b828201905092915050565b6000612668826126f3565b9150612673836126f3565b92508260ff03821115612689576126886127a7565b5b828201905092915050565b600061269f826126c9565b9050919050565b60008115159050919050565b6000819050919050565b60008160000b9050919050565b600073ffffffffffffffffffffffffffffffffffffffff82169050919050565b6000819050919050565b600060ff82169050919050565b60005b8381101561271e578082015181840152602081019050612703565b8381111561272d576000848401525b50505050565b600061273e826126f3565b915060ff821415612752576127516127a7565b5b600182019050919050565b600061276882612779565b9050919050565b6000819050919050565b600061278482612812565b9050919050565b6000819050919050565b60006127a082612805565b9050919050565b7f4e487b7100000000000000000000000000000000000000000000000000000000600052601160045260246000fd5b7f4e487b7100000000000000000000000000000000000000000000000000000000600052604160045260246000fd5b60008160f81b9050919050565b60008160601b9050919050565b61282881612694565b811461283357600080fd5b50565b61283f816126a6565b811461284a57600080fd5b50565b612856816126b2565b811461286157600080fd5b50565b61286d816126bc565b811461287857600080fd5b50565b612884816126e9565b811461288f57600080fd5b50565b61289b816126f3565b81146128a657600080fd5b5056fea26469706673582212208a4013bbd8944b1898f746f218d7f8807965a54db84b591196009cd4ebe3f8f864736f6c63430008000033",
  "linkReferences": {},
  "deployedLinkReferences": {}
}