{
  "_format": "hh-sol-artifact-1",
  "contractName": "LighthouseTierWrapper",
  "sourceName": "contracts/LighthouseTierWrapper.sol",
  "abi": [
    {
      "inputs": [
        {
          "internalType": "address",
          "name": "_crowns",
          "type": "address"
        },
        {
          "internalType": "address",
          "name": "_tier",
          "type": "address"
        },
        {
          "internalType": "address",
          "name": "_claimVerifier",
          "type": "address"
        },
        {
          "internalType": "uint256[4]",
          "name": "_fees",
          "type": "uint256[4]"
        },
        {
          "internalType": "uint256",
          "name": "_chainID",
          "type": "uint256"
        }
      ],
      "stateMutability": "nonpayable",
      "type": "constructor"
    },
    {
      "anonymous": false,
      "inputs": [
        {
          "indexed": true,
          "internalType": "address",
          "name": "investor",
          "type": "address"
        },
        {
          "indexed": true,
          "internalType": "uint8",
          "name": "tier",
          "type": "uint8"
        }
      ],
      "name": "Claim",
      "type": "event"
    },
    {
      "anonymous": false,
      "inputs": [
        {
          "indexed": false,
          "internalType": "uint256",
          "name": "feeZero",
          "type": "uint256"
        },
        {
          "indexed": false,
          "internalType": "uint256",
          "name": "feeOne",
          "type": "uint256"
        },
        {
          "indexed": false,
          "internalType": "uint256",
          "name": "feeTwo",
          "type": "uint256"
        },
        {
          "indexed": false,
          "internalType": "uint256",
          "name": "feeThree",
          "type": "uint256"
        }
      ],
      "name": "Fees",
      "type": "event"
    },
    {
      "anonymous": false,
      "inputs": [
        {
          "indexed": true,
          "internalType": "address",
          "name": "previousOwner",
          "type": "address"
        },
        {
          "indexed": true,
          "internalType": "address",
          "name": "newOwner",
          "type": "address"
        }
      ],
      "name": "OwnershipTransferred",
      "type": "event"
    },
    {
      "anonymous": false,
      "inputs": [
        {
          "indexed": true,
          "internalType": "address",
          "name": "user",
          "type": "address"
        },
        {
          "indexed": false,
          "internalType": "bool",
          "name": "allowed",
          "type": "bool"
        }
      ],
      "name": "TierEditer",
      "type": "event"
    },
    {
      "anonymous": false,
      "inputs": [
        {
          "indexed": true,
          "internalType": "address",
          "name": "investor",
          "type": "address"
        },
        {
          "indexed": true,
          "internalType": "uint8",
          "name": "tier",
          "type": "uint8"
        }
      ],
      "name": "Use",
      "type": "event"
    },
    {
      "inputs": [
        {
          "internalType": "address",
          "name": "_user",
          "type": "address"
        }
      ],
      "name": "addEditor",
      "outputs": [],
      "stateMutability": "nonpayable",
      "type": "function"
    },
    {
      "inputs": [],
      "name": "chainID",
      "outputs": [
        {
          "internalType": "uint256",
          "name": "",
          "type": "uint256"
        }
      ],
      "stateMutability": "view",
      "type": "function"
    },
    {
      "inputs": [
        {
          "internalType": "uint8",
          "name": "level",
          "type": "uint8"
        },
        {
          "internalType": "uint8",
          "name": "v",
          "type": "uint8"
        },
        {
          "internalType": "bytes32",
          "name": "r",
          "type": "bytes32"
        },
        {
          "internalType": "bytes32",
          "name": "s",
          "type": "bytes32"
        }
      ],
      "name": "claim",
      "outputs": [],
      "stateMutability": "nonpayable",
      "type": "function"
    },
    {
      "inputs": [],
      "name": "claimVerifier",
      "outputs": [
        {
          "internalType": "address",
          "name": "",
          "type": "address"
        }
      ],
      "stateMutability": "view",
      "type": "function"
    },
    {
      "inputs": [
        {
          "internalType": "address",
          "name": "_user",
          "type": "address"
        }
      ],
      "name": "deleteEditor",
      "outputs": [],
      "stateMutability": "nonpayable",
      "type": "function"
    },
    {
      "inputs": [
        {
          "internalType": "address",
          "name": "",
          "type": "address"
        }
      ],
      "name": "editors",
      "outputs": [
        {
          "internalType": "bool",
          "name": "",
          "type": "bool"
        }
      ],
      "stateMutability": "view",
      "type": "function"
    },
    {
      "inputs": [
        {
          "internalType": "uint8",
          "name": "",
          "type": "uint8"
        }
      ],
      "name": "fees",
      "outputs": [
        {
          "internalType": "uint256",
          "name": "",
          "type": "uint256"
        }
      ],
      "stateMutability": "view",
      "type": "function"
    },
    {
      "inputs": [
        {
          "internalType": "address",
          "name": "investor",
          "type": "address"
        }
      ],
      "name": "getTierLevel",
      "outputs": [
        {
          "internalType": "int8",
          "name": "",
          "type": "int8"
        }
      ],
      "stateMutability": "view",
      "type": "function"
    },
    {
      "inputs": [],
      "name": "owner",
      "outputs": [
        {
          "internalType": "address",
          "name": "",
          "type": "address"
        }
      ],
      "stateMutability": "view",
      "type": "function"
    },
    {
      "inputs": [],
      "name": "renounceOwnership",
      "outputs": [],
      "stateMutability": "nonpayable",
      "type": "function"
    },
    {
      "inputs": [
        {
          "internalType": "address",
          "name": "_claimVerifier",
          "type": "address"
        }
      ],
      "name": "setClaimVerifier",
      "outputs": [],
      "stateMutability": "nonpayable",
      "type": "function"
    },
    {
      "inputs": [
        {
          "internalType": "uint256[4]",
          "name": "_fees",
          "type": "uint256[4]"
        }
      ],
      "name": "setFees",
      "outputs": [],
      "stateMutability": "nonpayable",
      "type": "function"
    },
    {
      "inputs": [
        {
          "internalType": "address",
          "name": "",
          "type": "address"
        }
      ],
      "name": "tiers",
      "outputs": [
        {
          "internalType": "uint8",
          "name": "level",
          "type": "uint8"
        },
        {
          "internalType": "bool",
          "name": "usable",
          "type": "bool"
        },
        {
          "internalType": "uint256",
          "name": "nonce",
          "type": "uint256"
        }
      ],
      "stateMutability": "view",
      "type": "function"
    },
    {
      "inputs": [
        {
          "internalType": "address",
          "name": "newOwner",
          "type": "address"
        }
      ],
      "name": "transferOwnership",
      "outputs": [],
      "stateMutability": "nonpayable",
      "type": "function"
    },
    {
      "inputs": [
        {
          "internalType": "address",
          "name": "investor",
          "type": "address"
        },
        {
          "internalType": "uint8",
          "name": "level",
          "type": "uint8"
        }
      ],
      "name": "use",
      "outputs": [],
      "stateMutability": "nonpayable",
      "type": "function"
    }
  ],
  "bytecode": "0x60a06040523480156200001157600080fd5b5060405162003ab838038062003ab8833981810160405281019062000037919062000a10565b620000576200004b6200030b60201b60201c565b6200031360201b60201c565b600073ffffffffffffffffffffffffffffffffffffffff168573ffffffffffffffffffffffffffffffffffffffff161415620000ca576040517f08c379a0000000000000000000000000000000000000000000000000000000008152600401620000c19062000cb6565b60405180910390fd5b600073ffffffffffffffffffffffffffffffffffffffff168473ffffffffffffffffffffffffffffffffffffffff16141580156200013457503073ffffffffffffffffffffffffffffffffffffffff168473ffffffffffffffffffffffffffffffffffffffff1614155b62000176576040517f08c379a00000000000000000000000000000000000000000000000000000000081526004016200016d9062000cb6565b60405180910390fd5b600073ffffffffffffffffffffffffffffffffffffffff168373ffffffffffffffffffffffffffffffffffffffff161415620001e9576040517f08c379a0000000000000000000000000000000000000000000000000000000008152600401620001e09062000cb6565b60405180910390fd5b600081116200022f576040517f08c379a0000000000000000000000000000000000000000000000000000000008152600401620002269062000cd8565b60405180910390fd5b6200024082620003d760201b60201c565b8473ffffffffffffffffffffffffffffffffffffffff1660808173ffffffffffffffffffffffffffffffffffffffff1660601b8152505082600660006101000a81548173ffffffffffffffffffffffffffffffffffffffff021916908373ffffffffffffffffffffffffffffffffffffffff1602179055508060028190555083600160006101000a81548173ffffffffffffffffffffffffffffffffffffffff021916908373ffffffffffffffffffffffffffffffffffffffff160217905550505050505062000ebc565b600033905090565b60008060009054906101000a900473ffffffffffffffffffffffffffffffffffffffff169050816000806101000a81548173ffffffffffffffffffffffffffffffffffffffff021916908373ffffffffffffffffffffffffffffffffffffffff1602179055508173ffffffffffffffffffffffffffffffffffffffff168173ffffffffffffffffffffffffffffffffffffffff167f8be0079c531659141344cd1fd0a4f28419497f9722a3daafe3b4186f6b6457e060405160405180910390a35050565b620003e76200030b60201b60201c565b73ffffffffffffffffffffffffffffffffffffffff166200040d6200092360201b60201c565b73ffffffffffffffffffffffffffffffffffffffff161462000466576040517f08c379a00000000000000000000000000000000000000000000000000000000081526004016200045d9062000cfa565b60405180910390fd5b600081600060048110620004a3577f4e487b7100000000000000000000000000000000000000000000000000000000600052603260045260246000fd5b602002015111620004eb576040517f08c379a0000000000000000000000000000000000000000000000000000000008152600401620004e29062000c94565b60405180910390fd5b60008160016004811062000528577f4e487b7100000000000000000000000000000000000000000000000000000000600052603260045260246000fd5b60200201511162000570576040517f08c379a0000000000000000000000000000000000000000000000000000000008152600401620005679062000c72565b60405180910390fd5b600081600260048110620005ad577f4e487b7100000000000000000000000000000000000000000000000000000000600052603260045260246000fd5b602002015111620005f5576040517f08c379a0000000000000000000000000000000000000000000000000000000008152600401620005ec9062000d3e565b60405180910390fd5b60008160036004811062000632577f4e487b7100000000000000000000000000000000000000000000000000000000600052603260045260246000fd5b6020020151116200067a576040517f08c379a0000000000000000000000000000000000000000000000000000000008152600401620006719062000d1c565b60405180910390fd5b80600060048110620006b5577f4e487b7100000000000000000000000000000000000000000000000000000000600052603260045260246000fd5b6020020151600460008060ff16815260200190815260200160002081905550806001600481106200070f577f4e487b7100000000000000000000000000000000000000000000000000000000600052603260045260246000fd5b602002015160046000600160ff16815260200190815260200160002081905550806002600481106200076a577f4e487b7100000000000000000000000000000000000000000000000000000000600052603260045260246000fd5b602002015160046000600260ff1681526020019081526020016000208190555080600360048110620007c5577f4e487b7100000000000000000000000000000000000000000000000000000000600052603260045260246000fd5b602002015160046000600360ff168152602001908152602001600020819055507f4489155594f1d8b441305041bc1fa2fc40441583393f9626061d38dbefdc18348160006004811062000841577f4e487b7100000000000000000000000000000000000000000000000000000000600052603260045260246000fd5b60200201518260016004811062000881577f4e487b7100000000000000000000000000000000000000000000000000000000600052603260045260246000fd5b602002015183600260048110620008c1577f4e487b7100000000000000000000000000000000000000000000000000000000600052603260045260246000fd5b60200201518460036004811062000901577f4e487b7100000000000000000000000000000000000000000000000000000000600052603260045260246000fd5b602002015160405162000918949392919062000d60565b60405180910390a150565b60008060009054906101000a900473ffffffffffffffffffffffffffffffffffffffff16905090565b6000620009636200095d8462000de1565b62000dad565b905080828560208602820111156200097a57600080fd5b60005b85811015620009ae5781620009938882620009f9565b8452602084019350602083019250506001810190506200097d565b5050509392505050565b600081519050620009c98162000e88565b92915050565b600082601f830112620009e157600080fd5b6004620009f08482856200094c565b91505092915050565b60008151905062000a0a8162000ea2565b92915050565b6000806000806000610100868803121562000a2a57600080fd5b600062000a3a88828901620009b8565b955050602062000a4d88828901620009b8565b945050604062000a6088828901620009b8565b935050606062000a7388828901620009cf565b92505060e062000a8688828901620009f9565b9150509295509295909350565b600062000aa2601a8362000e0a565b91507f4c69676874686f757365546965723a205a45524f5f4645455f310000000000006000830152602082019050919050565b600062000ae4601a8362000e0a565b91507f4c69676874686f757365546965723a205a45524f5f4645455f300000000000006000830152602082019050919050565b600062000b26601c8362000e0a565b91507f4c69676874686f757365546965723a205a45524f5f41444452455353000000006000830152602082019050919050565b600062000b68601a8362000e0a565b91507f4c69676874686f757365546965723a205a45524f5f56414c55450000000000006000830152602082019050919050565b600062000baa60208362000e0a565b91507f4f776e61626c653a2063616c6c6572206973206e6f7420746865206f776e65726000830152602082019050919050565b600062000bec601a8362000e0a565b91507f4c69676874686f757365546965723a205a45524f5f4645455f330000000000006000830152602082019050919050565b600062000c2e601a8362000e0a565b91507f4c69676874686f757365546965723a205a45524f5f4645455f320000000000006000830152602082019050919050565b62000c6c8162000e4f565b82525050565b6000602082019050818103600083015262000c8d8162000a93565b9050919050565b6000602082019050818103600083015262000caf8162000ad5565b9050919050565b6000602082019050818103600083015262000cd18162000b17565b9050919050565b6000602082019050818103600083015262000cf38162000b59565b9050919050565b6000602082019050818103600083015262000d158162000b9b565b9050919050565b6000602082019050818103600083015262000d378162000bdd565b9050919050565b6000602082019050818103600083015262000d598162000c1f565b9050919050565b600060808201905062000d77600083018762000c61565b62000d86602083018662000c61565b62000d95604083018562000c61565b62000da4606083018462000c61565b95945050505050565b6000604051905081810181811067ffffffffffffffff8211171562000dd75762000dd662000e59565b5b8060405250919050565b600067ffffffffffffffff82111562000dff5762000dfe62000e59565b5b602082029050919050565b600082825260208201905092915050565b600062000e288262000e2f565b9050919050565b600073ffffffffffffffffffffffffffffffffffffffff82169050919050565b6000819050919050565b7f4e487b7100000000000000000000000000000000000000000000000000000000600052604160045260246000fd5b62000e938162000e1b565b811462000e9f57600080fd5b50565b62000ead8162000e4f565b811462000eb957600080fd5b50565b60805160601c612bdd62000edb600039600061105b0152612bdd6000f3fe608060405234801561001057600080fd5b50600436106100f55760003560e01c8063a93539d011610097578063cd52844d11610066578063cd52844d14610260578063e5975bdc14610290578063f2fde38b146102ac578063fb20d98f146102c8576100f5565b8063a93539d0146101d6578063adc879e9146101f4578063ba1cbc7f14610212578063c8111f271461022e576100f5565b80636b74b211116100d35780636b74b21114610176578063715018a6146101925780638da5cb5b1461019c578063a398e206146101ba576100f5565b806328fc4c3c146100fa578063357c13541461012a57806338eb84251461015a575b600080fd5b610114600480360381019061010f9190611cda565b6102e4565b604051610121919061254a565b60405180910390f35b610144600480360381019061013f9190611dba565b610445565b60405161015191906127a5565b60405180910390f35b610174600480360381019061016f9190611cda565b61045d565b005b610190600480360381019061018b9190611d3f565b61061e565b005b61019a610b3d565b005b6101a4610bc5565b6040516101b191906124a6565b60405180910390f35b6101d460048036038101906101cf9190611de3565b610bee565b005b6101de6111b0565b6040516101eb91906124a6565b60405180910390f35b6101fc6111d6565b60405161020991906127a5565b60405180910390f35b61022c60048036038101906102279190611d03565b6111dc565b005b61024860048036038101906102439190611cda565b611565565b60405161025793929190612805565b60405180910390f35b61027a60048036038101906102759190611cda565b6115a9565b60405161028791906124ea565b60405180910390f35b6102aa60048036038101906102a59190611cda565b6115c9565b005b6102c660048036038101906102c19190611cda565b6117ec565b005b6102e260048036038101906102dd9190611cda565b6118e4565b005b6000600360008373ffffffffffffffffffffffffffffffffffffffff1673ffffffffffffffffffffffffffffffffffffffff16815260200190815260200160002060000160019054906101000a900460ff161561039257600360008373ffffffffffffffffffffffffffffffffffffffff1673ffffffffffffffffffffffffffffffffffffffff16815260200190815260200160002060000160009054906101000a900460ff169050610440565b600160009054906101000a900473ffffffffffffffffffffffffffffffffffffffff1673ffffffffffffffffffffffffffffffffffffffff166328fc4c3c836040518263ffffffff1660e01b81526004016103ed91906124a6565b60206040518083038186803b15801561040557600080fd5b505afa158015610419573d6000803e3d6000fd5b505050506040513d601f19601f8201168201806040525081019061043d9190611d91565b90505b919050565b60046020528060005260406000206000915090505481565b610465611b06565b73ffffffffffffffffffffffffffffffffffffffff16610483610bc5565b73ffffffffffffffffffffffffffffffffffffffff16146104d9576040517f08c379a00000000000000000000000000000000000000000000000000000000081526004016104d090612725565b60405180910390fd5b600073ffffffffffffffffffffffffffffffffffffffff168173ffffffffffffffffffffffffffffffffffffffff161415610549576040517f08c379a0000000000000000000000000000000000000000000000000000000008152600401610540906126c5565b60405180910390fd5b8073ffffffffffffffffffffffffffffffffffffffff16600660009054906101000a900473ffffffffffffffffffffffffffffffffffffffff1673ffffffffffffffffffffffffffffffffffffffff1614156105da576040517f08c379a00000000000000000000000000000000000000000000000000000000081526004016105d190612685565b60405180910390fd5b80600660006101000a81548173ffffffffffffffffffffffffffffffffffffffff021916908373ffffffffffffffffffffffffffffffffffffffff16021790555050565b610626611b06565b73ffffffffffffffffffffffffffffffffffffffff16610644610bc5565b73ffffffffffffffffffffffffffffffffffffffff161461069a576040517f08c379a000000000000000000000000000000000000000000000000000000000815260040161069190612725565b60405180910390fd5b6000816000600481106106d6577f4e487b7100000000000000000000000000000000000000000000000000000000600052603260045260246000fd5b60200201511161071b576040517f08c379a000000000000000000000000000000000000000000000000000000000815260040161071290612645565b60405180910390fd5b600081600160048110610757577f4e487b7100000000000000000000000000000000000000000000000000000000600052603260045260246000fd5b60200201511161079c576040517f08c379a000000000000000000000000000000000000000000000000000000000815260040161079390612625565b60405180910390fd5b6000816002600481106107d8577f4e487b7100000000000000000000000000000000000000000000000000000000600052603260045260246000fd5b60200201511161081d576040517f08c379a000000000000000000000000000000000000000000000000000000000815260040161081490612785565b60405180910390fd5b600081600360048110610859577f4e487b7100000000000000000000000000000000000000000000000000000000600052603260045260246000fd5b60200201511161089e576040517f08c379a000000000000000000000000000000000000000000000000000000000815260040161089590612745565b60405180910390fd5b806000600481106108d8577f4e487b7100000000000000000000000000000000000000000000000000000000600052603260045260246000fd5b6020020151600460008060ff1681526020019081526020016000208190555080600160048110610931577f4e487b7100000000000000000000000000000000000000000000000000000000600052603260045260246000fd5b602002015160046000600160ff168152602001908152602001600020819055508060026004811061098b577f4e487b7100000000000000000000000000000000000000000000000000000000600052603260045260246000fd5b602002015160046000600260ff16815260200190815260200160002081905550806003600481106109e5577f4e487b7100000000000000000000000000000000000000000000000000000000600052603260045260246000fd5b602002015160046000600360ff168152602001908152602001600020819055507f4489155594f1d8b441305041bc1fa2fc40441583393f9626061d38dbefdc183481600060048110610a60577f4e487b7100000000000000000000000000000000000000000000000000000000600052603260045260246000fd5b602002015182600160048110610a9f577f4e487b7100000000000000000000000000000000000000000000000000000000600052603260045260246000fd5b602002015183600260048110610ade577f4e487b7100000000000000000000000000000000000000000000000000000000600052603260045260246000fd5b602002015184600360048110610b1d577f4e487b7100000000000000000000000000000000000000000000000000000000600052603260045260246000fd5b6020020151604051610b3294939291906127c0565b60405180910390a150565b610b45611b06565b73ffffffffffffffffffffffffffffffffffffffff16610b63610bc5565b73ffffffffffffffffffffffffffffffffffffffff1614610bb9576040517f08c379a0000000000000000000000000000000000000000000000000000000008152600401610bb090612725565b60405180910390fd5b610bc36000611b0e565b565b60008060009054906101000a900473ffffffffffffffffffffffffffffffffffffffff16905090565b60008460ff1610158015610c05575060048460ff16105b610c44576040517f08c379a0000000000000000000000000000000000000000000000000000000008152600401610c3b906126e5565b60405180910390fd5b6000600360003373ffffffffffffffffffffffffffffffffffffffff1673ffffffffffffffffffffffffffffffffffffffff16815260200190815260200160002090508060000160019054906101000a900460ff16610e1d576000600160009054906101000a900473ffffffffffffffffffffffffffffffffffffffff1673ffffffffffffffffffffffffffffffffffffffff166328fc4c3c336040518263ffffffff1660e01b8152600401610cfa91906124a6565b60206040518083038186803b158015610d1257600080fd5b505afa158015610d26573d6000803e3d6000fd5b505050506040513d601f19601f82011682018060405250810190610d4a9190611d91565b90507fffffffffffffffffffffffffffffffffffffffffffffffffffffffffffffffff8160000b1315610dd057600181610d8491906128ba565b60000b8660000b14610dcb576040517f08c379a0000000000000000000000000000000000000000000000000000000008152600401610dc290612565565b60405180910390fd5b610e17565b60008660ff1614610e16576040517f08c379a0000000000000000000000000000000000000000000000000000000008152600401610e0d90612585565b60405180910390fd5b5b50610e83565b8460ff1660018260000160009054906101000a900460ff16610e3f9190612985565b60ff1614610e82576040517f08c379a0000000000000000000000000000000000000000000000000000000008152600401610e7990612705565b60405180910390fd5b5b60006040518060400160405280601c81526020017f19457468657265756d205369676e6564204d6573736167653a0a333200000000815250905060003383600101548860025430604051602001610ede95949392919061241f565b60405160208183030381529060405280519060200120905060008282604051602001610f0b92919061247e565b604051602081830303815290604052805190602001209050600060018289898960405160008152602001604052604051610f489493929190612505565b6020604051602081039080840390855afa158015610f6a573d6000803e3d6000fd5b505050602060405103519050600660009054906101000a900473ffffffffffffffffffffffffffffffffffffffff1673ffffffffffffffffffffffffffffffffffffffff168173ffffffffffffffffffffffffffffffffffffffff1614611006576040517f08c379a0000000000000000000000000000000000000000000000000000000008152600401610ffd906126a5565b60405180910390fd5b888560000160006101000a81548160ff021916908360ff16021790555060018560000160016101000a81548160ff02191690831515021790555060018560010154611051919061292f565b85600101819055507f000000000000000000000000000000000000000000000000000000000000000073ffffffffffffffffffffffffffffffffffffffff16636aade28833600460008d60ff1660ff168152602001908152602001600020546040518363ffffffff1660e01b81526004016110cd9291906124c1565b602060405180830381600087803b1580156110e757600080fd5b505af11580156110fb573d6000803e3d6000fd5b505050506040513d601f19601f8201168201806040525081019061111f9190611d68565b61115e576040517f08c379a0000000000000000000000000000000000000000000000000000000008152600401611155906125a5565b60405180910390fd5b8860ff163373ffffffffffffffffffffffffffffffffffffffff167f2e2a94b1bf4a5580acb10f544a4b2e39c602981d27e56bf90e73f0074d33b6b260405160405180910390a3505050505050505050565b600660009054906101000a900473ffffffffffffffffffffffffffffffffffffffff1681565b60025481565b60008160ff16101580156111f3575060048160ff16105b611232576040517f08c379a0000000000000000000000000000000000000000000000000000000008152600401611229906126e5565b60405180910390fd5b600073ffffffffffffffffffffffffffffffffffffffff168273ffffffffffffffffffffffffffffffffffffffff1614156112a2576040517f08c379a0000000000000000000000000000000000000000000000000000000008152600401611299906126c5565b60405180910390fd5b600560003373ffffffffffffffffffffffffffffffffffffffff1673ffffffffffffffffffffffffffffffffffffffff16815260200190815260200160002060009054906101000a900460ff1661132e576040517f08c379a000000000000000000000000000000000000000000000000000000000815260040161132590612665565b60405180910390fd5b6000600360008473ffffffffffffffffffffffffffffffffffffffff1673ffffffffffffffffffffffffffffffffffffffff16815260200190815260200160002090508060000160019054906101000a900460ff16611484576000600160009054906101000a900473ffffffffffffffffffffffffffffffffffffffff1673ffffffffffffffffffffffffffffffffffffffff166328fc4c3c336040518263ffffffff1660e01b81526004016113e491906124a6565b60206040518083038186803b1580156113fc57600080fd5b505afa158015611410573d6000803e3d6000fd5b505050506040513d601f19601f820116820180604052508101906114349190611d91565b90508260000b8160000b1461147e576040517f08c379a000000000000000000000000000000000000000000000000000000000815260040161147590612605565b60405180910390fd5b506114de565b8160ff168160000160009054906101000a900460ff1660ff16146114dd576040517f08c379a00000000000000000000000000000000000000000000000000000000081526004016114d490612705565b60405180910390fd5b5b60018160000160016101000a81548160ff02191690831515021790555060008160000160006101000a81548160ff021916908360ff1602179055508160ff168373ffffffffffffffffffffffffffffffffffffffff167f0eaca539e568efb8aed51f9984b71dee27485782c80de2fcfde4398151c39a8f60405160405180910390a3505050565b60036020528060005260406000206000915090508060000160009054906101000a900460ff16908060000160019054906101000a900460ff16908060010154905083565b60056020528060005260406000206000915054906101000a900460ff1681565b6115d1611b06565b73ffffffffffffffffffffffffffffffffffffffff166115ef610bc5565b73ffffffffffffffffffffffffffffffffffffffff1614611645576040517f08c379a000000000000000000000000000000000000000000000000000000000815260040161163c90612725565b60405180910390fd5b600073ffffffffffffffffffffffffffffffffffffffff168173ffffffffffffffffffffffffffffffffffffffff1614156116b5576040517f08c379a00000000000000000000000000000000000000000000000000000000081526004016116ac906126c5565b60405180910390fd5b600560008273ffffffffffffffffffffffffffffffffffffffff1673ffffffffffffffffffffffffffffffffffffffff16815260200190815260200160002060009054906101000a900460ff1615611742576040517f08c379a0000000000000000000000000000000000000000000000000000000008152600401611739906125c5565b60405180910390fd5b6001600560008373ffffffffffffffffffffffffffffffffffffffff1673ffffffffffffffffffffffffffffffffffffffff16815260200190815260200160002060006101000a81548160ff0219169083151502179055508073ffffffffffffffffffffffffffffffffffffffff167fad424f61135bf7cc55206b37c1dfcef56d2f1dee00559f79fd7481bf0c7b078b60016040516117e191906124ea565b60405180910390a250565b6117f4611b06565b73ffffffffffffffffffffffffffffffffffffffff16611812610bc5565b73ffffffffffffffffffffffffffffffffffffffff1614611868576040517f08c379a000000000000000000000000000000000000000000000000000000000815260040161185f90612725565b60405180910390fd5b600073ffffffffffffffffffffffffffffffffffffffff168173ffffffffffffffffffffffffffffffffffffffff1614156118d8576040517f08c379a00000000000000000000000000000000000000000000000000000000081526004016118cf906125e5565b60405180910390fd5b6118e181611b0e565b50565b6118ec611b06565b73ffffffffffffffffffffffffffffffffffffffff1661190a610bc5565b73ffffffffffffffffffffffffffffffffffffffff1614611960576040517f08c379a000000000000000000000000000000000000000000000000000000000815260040161195790612725565b60405180910390fd5b600073ffffffffffffffffffffffffffffffffffffffff168173ffffffffffffffffffffffffffffffffffffffff1614156119d0576040517f08c379a00000000000000000000000000000000000000000000000000000000081526004016119c7906126c5565b60405180910390fd5b600560008273ffffffffffffffffffffffffffffffffffffffff1673ffffffffffffffffffffffffffffffffffffffff16815260200190815260200160002060009054906101000a900460ff16611a5c576040517f08c379a0000000000000000000000000000000000000000000000000000000008152600401611a5390612765565b60405180910390fd5b6000600560008373ffffffffffffffffffffffffffffffffffffffff1673ffffffffffffffffffffffffffffffffffffffff16815260200190815260200160002060006101000a81548160ff0219169083151502179055508073ffffffffffffffffffffffffffffffffffffffff167fad424f61135bf7cc55206b37c1dfcef56d2f1dee00559f79fd7481bf0c7b078b6000604051611afb91906124ea565b60405180910390a250565b600033905090565b60008060009054906101000a900473ffffffffffffffffffffffffffffffffffffffff169050816000806101000a81548173ffffffffffffffffffffffffffffffffffffffff021916908373ffffffffffffffffffffffffffffffffffffffff1602179055508173ffffffffffffffffffffffffffffffffffffffff168173ffffffffffffffffffffffffffffffffffffffff167f8be0079c531659141344cd1fd0a4f28419497f9722a3daafe3b4186f6b6457e060405160405180910390a35050565b6000611be5611be08461286d565b61283c565b90508082856020860282011115611bfb57600080fd5b60005b85811015611c2b5781611c118882611cb0565b845260208401935060208301925050600181019050611bfe565b5050509392505050565b600081359050611c4481612b1d565b92915050565b600082601f830112611c5b57600080fd5b6004611c68848285611bd2565b91505092915050565b600081519050611c8081612b34565b92915050565b600081359050611c9581612b4b565b92915050565b600081519050611caa81612b62565b92915050565b600081359050611cbf81612b79565b92915050565b600081359050611cd481612b90565b92915050565b600060208284031215611cec57600080fd5b6000611cfa84828501611c35565b91505092915050565b60008060408385031215611d1657600080fd5b6000611d2485828601611c35565b9250506020611d3585828601611cc5565b9150509250929050565b600060808284031215611d5157600080fd5b6000611d5f84828501611c4a565b91505092915050565b600060208284031215611d7a57600080fd5b6000611d8884828501611c71565b91505092915050565b600060208284031215611da357600080fd5b6000611db184828501611c9b565b91505092915050565b600060208284031215611dcc57600080fd5b6000611dda84828501611cc5565b91505092915050565b60008060008060808587031215611df957600080fd5b6000611e0787828801611cc5565b9450506020611e1887828801611cc5565b9350506040611e2987828801611c86565b9250506060611e3a87828801611c86565b91505092959194509250565b611e4f816129bc565b82525050565b611e66611e61826129bc565b612a5b565b82525050565b611e75816129ce565b82525050565b611e84816129da565b82525050565b611e9b611e96826129da565b612a6d565b82525050565b6000611eac82612893565b611eb6818561289e565b9350611ec6818560208601612a28565b80840191505092915050565b611edb816129e4565b82525050565b6000611eee6025836128a9565b91507f4c69676874686f757365546965723a20494e56414c49445f574954485f4f4c4460008301527f5f544945520000000000000000000000000000000000000000000000000000006020830152604082019050919050565b6000611f546018836128a9565b91507f4c696768686f757365546965723a20305f434c41494d454400000000000000006000830152602082019050919050565b6000611f94601b836128a9565b91507f4c69676874686f757365546965723a204357535f554e5350454e4400000000006000830152602082019050919050565b6000611fd4601d836128a9565b91507f4c69676874686f757365546965723a20414c52454144595f41444445440000006000830152602082019050919050565b60006120146026836128a9565b91507f4f776e61626c653a206e6577206f776e657220697320746865207a65726f206160008301527f64647265737300000000000000000000000000000000000000000000000000006020830152604082019050919050565b600061207a6020836128a9565b91507f4c69676874686f757365546965723a20494e56414c49445f4f4c445f544945526000830152602082019050919050565b60006120ba601a836128a9565b91507f4c69676874686f757365546965723a205a45524f5f4645455f310000000000006000830152602082019050919050565b60006120fa601a836128a9565b91507f4c69676874686f757365546965723a205a45524f5f4645455f300000000000006000830152602082019050919050565b600061213a6019836128a9565b91507f4c69676874686f757365546965723a20464f5242494444454e000000000000006000830152602082019050919050565b600061217a601c836128a9565b91507f4c69676874686f757365546965723a2053414d455f41444452455353000000006000830152602082019050919050565b60006121ba6013836128a9565b91507f4c69676874686f757365546965723a20534947000000000000000000000000006000830152602082019050919050565b60006121fa601c836128a9565b91507f4c69676874686f757365546965723a205a45524f5f41444452455353000000006000830152602082019050919050565b600061223a6021836128a9565b91507f4c69676874686f757365546965723a20494e56414c49445f504152414d45544560008301527f52000000000000000000000000000000000000000000000000000000000000006020830152604082019050919050565b60006122a0601d836128a9565b91507f4c69676874686f757365546965723a20494e56414c49445f4c4556454c0000006000830152602082019050919050565b60006122e06020836128a9565b91507f4f776e61626c653a2063616c6c6572206973206e6f7420746865206f776e65726000830152602082019050919050565b6000612320601a836128a9565b91507f4c69676874686f757365546965723a205a45524f5f4645455f330000000000006000830152602082019050919050565b60006123606017836128a9565b91507f4c69676874686f757365546965723a204e4f5f555345520000000000000000006000830152602082019050919050565b60006123a0601a836128a9565b91507f4c69676874686f757365546965723a205a45524f5f4645455f320000000000006000830152602082019050919050565b6123dc81612a11565b82525050565b6123f36123ee82612a11565b612a89565b82525050565b61240281612a1b565b82525050565b61241961241482612a1b565b612a93565b82525050565b600061242b8288611e55565b60148201915061243b82876123e2565b60208201915061244b8286612408565b60018201915061245b82856123e2565b60208201915061246b8284611e55565b6014820191508190509695505050505050565b600061248a8285611ea1565b91506124968284611e8a565b6020820191508190509392505050565b60006020820190506124bb6000830184611e46565b92915050565b60006040820190506124d66000830185611e46565b6124e360208301846123d3565b9392505050565b60006020820190506124ff6000830184611e6c565b92915050565b600060808201905061251a6000830187611e7b565b61252760208301866123f9565b6125346040830185611e7b565b6125416060830184611e7b565b95945050505050565b600060208201905061255f6000830184611ed2565b92915050565b6000602082019050818103600083015261257e81611ee1565b9050919050565b6000602082019050818103600083015261259e81611f47565b9050919050565b600060208201905081810360008301526125be81611f87565b9050919050565b600060208201905081810360008301526125de81611fc7565b9050919050565b600060208201905081810360008301526125fe81612007565b9050919050565b6000602082019050818103600083015261261e8161206d565b9050919050565b6000602082019050818103600083015261263e816120ad565b9050919050565b6000602082019050818103600083015261265e816120ed565b9050919050565b6000602082019050818103600083015261267e8161212d565b9050919050565b6000602082019050818103600083015261269e8161216d565b9050919050565b600060208201905081810360008301526126be816121ad565b9050919050565b600060208201905081810360008301526126de816121ed565b9050919050565b600060208201905081810360008301526126fe8161222d565b9050919050565b6000602082019050818103600083015261271e81612293565b9050919050565b6000602082019050818103600083015261273e816122d3565b9050919050565b6000602082019050818103600083015261275e81612313565b9050919050565b6000602082019050818103600083015261277e81612353565b9050919050565b6000602082019050818103600083015261279e81612393565b9050919050565b60006020820190506127ba60008301846123d3565b92915050565b60006080820190506127d560008301876123d3565b6127e260208301866123d3565b6127ef60408301856123d3565b6127fc60608301846123d3565b95945050505050565b600060608201905061281a60008301866123f9565b6128276020830185611e6c565b61283460408301846123d3565b949350505050565b6000604051905081810181811067ffffffffffffffff8211171561286357612862612ad4565b5b8060405250919050565b600067ffffffffffffffff82111561288857612887612ad4565b5b602082029050919050565b600081519050919050565b600081905092915050565b600082825260208201905092915050565b60006128c5826129e4565b91506128d0836129e4565b925081607f038313600083121516156128ec576128eb612aa5565b5b817fffffffffffffffffffffffffffffffffffffffffffffffffffffffffffffff8003831260008312161561292457612923612aa5565b5b828201905092915050565b600061293a82612a11565b915061294583612a11565b9250827fffffffffffffffffffffffffffffffffffffffffffffffffffffffffffffffff0382111561297a57612979612aa5565b5b828201905092915050565b600061299082612a1b565b915061299b83612a1b565b92508260ff038211156129b1576129b0612aa5565b5b828201905092915050565b60006129c7826129f1565b9050919050565b60008115159050919050565b6000819050919050565b60008160000b9050919050565b600073ffffffffffffffffffffffffffffffffffffffff82169050919050565b6000819050919050565b600060ff82169050919050565b60005b83811015612a46578082015181840152602081019050612a2b565b83811115612a55576000848401525b50505050565b6000612a6682612a77565b9050919050565b6000819050919050565b6000612a8282612b10565b9050919050565b6000819050919050565b6000612a9e82612b03565b9050919050565b7f4e487b7100000000000000000000000000000000000000000000000000000000600052601160045260246000fd5b7f4e487b7100000000000000000000000000000000000000000000000000000000600052604160045260246000fd5b60008160f81b9050919050565b60008160601b9050919050565b612b26816129bc565b8114612b3157600080fd5b50565b612b3d816129ce565b8114612b4857600080fd5b50565b612b54816129da565b8114612b5f57600080fd5b50565b612b6b816129e4565b8114612b7657600080fd5b50565b612b8281612a11565b8114612b8d57600080fd5b50565b612b9981612a1b565b8114612ba457600080fd5b5056fea26469706673582212207536b2e37782623eeec0a218f1b09d8a70a2edd1c5a5600263e9650f63f3fa9664736f6c63430008000033",
  "linkReferences": {},
  "deployedLinkReferences": {}
}