{
  "_format": "hh-sol-artifact-1",
  "contractName": "LighthouseAllocation",
  "sourceName": "contracts/LighthouseAllocation.sol",
  "abi": [
    {
      "anonymous": false,
      "inputs": [
        {
          "indexed": true,
          "internalType": "address",
          "name": "previousOwner",
          "type": "address"
        },
        {
          "indexed": true,
          "internalType": "address",
          "name": "newOwner",
          "type": "address"
        }
      ],
      "name": "OwnershipTransferred",
      "type": "event"
    },
    {
      "inputs": [
        {
          "internalType": "uint256",
          "name": "_projectId",
          "type": "uint256"
        },
        {
          "internalType": "uint256",
          "name": "_anotherProjectId",
          "type": "uint256"
        },
        {
          "internalType": "address",
          "name": "_nftAddress",
          "type": "address"
        },
        {
          "internalType": "uint256",
          "name": "_nftId",
          "type": "uint256"
        }
      ],
      "name": "burnForProject",
      "outputs": [],
      "stateMutability": "nonpayable",
      "type": "function"
    },
    {
      "inputs": [],
      "name": "owner",
      "outputs": [
        {
          "internalType": "address",
          "name": "",
          "type": "address"
        }
      ],
      "stateMutability": "view",
      "type": "function"
    },
    {
      "inputs": [],
      "name": "renounceOwnership",
      "outputs": [],
      "stateMutability": "nonpayable",
      "type": "function"
    },
    {
      "inputs": [
        {
          "internalType": "address",
          "name": "newOwner",
          "type": "address"
        }
      ],
      "name": "transferOwnership",
      "outputs": [],
      "stateMutability": "nonpayable",
      "type": "function"
    }
  ],
  "bytecode": "0x608060405234801561001057600080fd5b5061002d61002261003260201b60201c565b61003a60201b60201c565b6100fe565b600033905090565b60008060009054906101000a900473ffffffffffffffffffffffffffffffffffffffff169050816000806101000a81548173ffffffffffffffffffffffffffffffffffffffff021916908373ffffffffffffffffffffffffffffffffffffffff1602179055508173ffffffffffffffffffffffffffffffffffffffff168173ffffffffffffffffffffffffffffffffffffffff167f8be0079c531659141344cd1fd0a4f28419497f9722a3daafe3b4186f6b6457e060405160405180910390a35050565b6105a38061010d6000396000f3fe608060405234801561001057600080fd5b506004361061004c5760003560e01c8063696bd13d14610051578063715018a61461006d5780638da5cb5b14610077578063f2fde38b14610095575b600080fd5b61006b6004803603810190610066919061037f565b6100b1565b005b6100756100b7565b005b61007f61013f565b60405161008c9190610497565b60405180910390f35b6100af60048036038101906100aa9190610356565b610168565b005b50505050565b6100bf610260565b73ffffffffffffffffffffffffffffffffffffffff166100dd61013f565b73ffffffffffffffffffffffffffffffffffffffff1614610133576040517f08c379a000000000000000000000000000000000000000000000000000000000815260040161012a906104d2565b60405180910390fd5b61013d6000610268565b565b60008060009054906101000a900473ffffffffffffffffffffffffffffffffffffffff16905090565b610170610260565b73ffffffffffffffffffffffffffffffffffffffff1661018e61013f565b73ffffffffffffffffffffffffffffffffffffffff16146101e4576040517f08c379a00000000000000000000000000000000000000000000000000000000081526004016101db906104d2565b60405180910390fd5b600073ffffffffffffffffffffffffffffffffffffffff168173ffffffffffffffffffffffffffffffffffffffff161415610254576040517f08c379a000000000000000000000000000000000000000000000000000000000815260040161024b906104b2565b60405180910390fd5b61025d81610268565b50565b600033905090565b60008060009054906101000a900473ffffffffffffffffffffffffffffffffffffffff169050816000806101000a81548173ffffffffffffffffffffffffffffffffffffffff021916908373ffffffffffffffffffffffffffffffffffffffff1602179055508173ffffffffffffffffffffffffffffffffffffffff168173ffffffffffffffffffffffffffffffffffffffff167f8be0079c531659141344cd1fd0a4f28419497f9722a3daafe3b4186f6b6457e060405160405180910390a35050565b60008135905061033b8161053f565b92915050565b60008135905061035081610556565b92915050565b60006020828403121561036857600080fd5b60006103768482850161032c565b91505092915050565b6000806000806080858703121561039557600080fd5b60006103a387828801610341565b94505060206103b487828801610341565b93505060406103c58782880161032c565b92505060606103d687828801610341565b91505092959194509250565b6103eb81610503565b82525050565b60006103fe6026836104f2565b91507f4f776e61626c653a206e6577206f776e657220697320746865207a65726f206160008301527f64647265737300000000000000000000000000000000000000000000000000006020830152604082019050919050565b60006104646020836104f2565b91507f4f776e61626c653a2063616c6c6572206973206e6f7420746865206f776e65726000830152602082019050919050565b60006020820190506104ac60008301846103e2565b92915050565b600060208201905081810360008301526104cb816103f1565b9050919050565b600060208201905081810360008301526104eb81610457565b9050919050565b600082825260208201905092915050565b600061050e82610515565b9050919050565b600073ffffffffffffffffffffffffffffffffffffffff82169050919050565b6000819050919050565b61054881610503565b811461055357600080fd5b50565b61055f81610535565b811461056a57600080fd5b5056fea2646970667358221220e435e5160de56889908d41e21493a472cc8eaa728d8f735df9cb14c51ad899d764736f6c63430008000033",
  "linkReferences": {},
  "deployedLinkReferences": {}
}