{
  "_format": "hh-sol-artifact-1",
  "contractName": "LighthouseBurn",
  "sourceName": "contracts/LighthouseBurn.sol",
  "abi": [
    {
      "inputs": [
        {
          "internalType": "address",
          "name": "_lighthouseAuction",
          "type": "address"
        },
        {
          "internalType": "address",
          "name": "_lighthousePrefund",
          "type": "address"
        },
        {
          "internalType": "address",
          "name": "_lighthouseTier",
          "type": "address"
        },
        {
          "internalType": "address",
          "name": "_crowns",
          "type": "address"
        },
        {
          "internalType": "address",
          "name": "_project",
          "type": "address"
        }
      ],
      "stateMutability": "nonpayable",
      "type": "constructor"
    },
    {
      "anonymous": false,
      "inputs": [
        {
          "indexed": true,
          "internalType": "uint256",
          "name": "projectId",
          "type": "uint256"
        },
        {
          "indexed": true,
          "internalType": "address",
          "name": "pcc",
          "type": "address"
        }
      ],
      "name": "AddPCC",
      "type": "event"
    },
    {
      "anonymous": false,
      "inputs": [
        {
          "indexed": true,
          "internalType": "uint256",
          "name": "projectId",
          "type": "uint256"
        },
        {
          "indexed": false,
          "internalType": "uint256",
          "name": "prefundPool",
          "type": "uint256"
        },
        {
          "indexed": false,
          "internalType": "uint256",
          "name": "auctionPool",
          "type": "uint256"
        },
        {
          "indexed": false,
          "internalType": "uint256",
          "name": "prefundCompensation",
          "type": "uint256"
        },
        {
          "indexed": false,
          "internalType": "uint256",
          "name": "auctionCompensation",
          "type": "uint256"
        },
        {
          "indexed": true,
          "internalType": "address",
          "name": "lighthouse",
          "type": "address"
        },
        {
          "indexed": false,
          "internalType": "uint256",
          "name": "startTime",
          "type": "uint256"
        }
      ],
      "name": "AddProject",
      "type": "event"
    },
    {
      "anonymous": false,
      "inputs": [
        {
          "indexed": true,
          "internalType": "uint256",
          "name": "projectId",
          "type": "uint256"
        },
        {
          "indexed": true,
          "internalType": "address",
          "name": "lighthouse",
          "type": "address"
        },
        {
          "indexed": true,
          "internalType": "uint256",
          "name": "nftId",
          "type": "uint256"
        },
        {
          "indexed": false,
          "internalType": "address",
          "name": "owner",
          "type": "address"
        },
        {
          "indexed": false,
          "internalType": "uint256",
          "name": "compensation",
          "type": "uint256"
        }
      ],
      "name": "BurnForCWS",
      "type": "event"
    },
    {
      "anonymous": false,
      "inputs": [
        {
          "indexed": true,
          "internalType": "uint256",
          "name": "projectId",
          "type": "uint256"
        },
        {
          "indexed": true,
          "internalType": "address",
          "name": "lighthouse",
          "type": "address"
        },
        {
          "indexed": true,
          "internalType": "uint256",
          "name": "nftId",
          "type": "uint256"
        },
        {
          "indexed": false,
          "internalType": "address",
          "name": "owner",
          "type": "address"
        },
        {
          "indexed": false,
          "internalType": "address",
          "name": "pcc",
          "type": "address"
        },
        {
          "indexed": false,
          "internalType": "uint256",
          "name": "allocation",
          "type": "uint256"
        }
      ],
      "name": "BurnForPCC",
      "type": "event"
    },
    {
      "anonymous": false,
      "inputs": [
        {
          "indexed": true,
          "internalType": "address",
          "name": "previousOwner",
          "type": "address"
        },
        {
          "indexed": true,
          "internalType": "address",
          "name": "newOwner",
          "type": "address"
        }
      ],
      "name": "OwnershipTransferred",
      "type": "event"
    },
    {
      "inputs": [
        {
          "internalType": "uint256",
          "name": "projectId",
          "type": "uint256"
        },
        {
          "internalType": "uint256",
          "name": "prefundPool",
          "type": "uint256"
        },
        {
          "internalType": "uint256",
          "name": "auctionPool",
          "type": "uint256"
        },
        {
          "internalType": "uint256",
          "name": "prefundCompensation",
          "type": "uint256"
        },
        {
          "internalType": "uint256",
          "name": "auctionCompensation",
          "type": "uint256"
        },
        {
          "internalType": "uint256",
          "name": "startTime",
          "type": "uint256"
        },
        {
          "internalType": "address",
          "name": "lighthouse",
          "type": "address"
        }
      ],
      "name": "addProject",
      "outputs": [],
      "stateMutability": "nonpayable",
      "type": "function"
    },
    {
      "inputs": [
        {
          "internalType": "uint256",
          "name": "projectId",
          "type": "uint256"
        },
        {
          "internalType": "address",
          "name": "pcc",
          "type": "address"
        }
      ],
      "name": "addProjectPcc",
      "outputs": [],
      "stateMutability": "nonpayable",
      "type": "function"
    },
    {
      "inputs": [
        {
          "internalType": "uint256",
          "name": "projectId",
          "type": "uint256"
        },
        {
          "internalType": "uint256",
          "name": "nftId",
          "type": "uint256"
        }
      ],
      "name": "burnForCws",
      "outputs": [],
      "stateMutability": "nonpayable",
      "type": "function"
    },
    {
      "inputs": [
        {
          "internalType": "uint256",
          "name": "projectId",
          "type": "uint256"
        },
        {
          "internalType": "uint256",
          "name": "nftId",
          "type": "uint256"
        }
      ],
      "name": "burnForPcc",
      "outputs": [],
      "stateMutability": "nonpayable",
      "type": "function"
    },
    {
      "inputs": [
        {
          "internalType": "uint256",
          "name": "projectId",
          "type": "uint256"
        },
        {
          "internalType": "uint256",
          "name": "anotherProjectId",
          "type": "uint256"
        },
        {
          "internalType": "address",
          "name": "nftAddress",
          "type": "address"
        },
        {
          "internalType": "uint256",
          "name": "nftId",
          "type": "uint256"
        }
      ],
      "name": "burnForProject",
      "outputs": [],
      "stateMutability": "nonpayable",
      "type": "function"
    },
    {
      "inputs": [
        {
          "internalType": "uint256",
          "name": "",
          "type": "uint256"
        },
        {
          "internalType": "address",
          "name": "",
          "type": "address"
        }
      ],
      "name": "mintedNfts",
      "outputs": [
        {
          "internalType": "uint256",
          "name": "",
          "type": "uint256"
        }
      ],
      "stateMutability": "view",
      "type": "function"
    },
    {
      "inputs": [],
      "name": "owner",
      "outputs": [
        {
          "internalType": "address",
          "name": "",
          "type": "address"
        }
      ],
      "stateMutability": "view",
      "type": "function"
    },
    {
      "inputs": [
        {
          "internalType": "uint256",
          "name": "",
          "type": "uint256"
        }
      ],
      "name": "projects",
      "outputs": [
        {
          "internalType": "uint256",
          "name": "prefundPool",
          "type": "uint256"
        },
        {
          "internalType": "uint256",
          "name": "auctionPool",
          "type": "uint256"
        },
        {
          "internalType": "uint256",
          "name": "prefundCompensation",
          "type": "uint256"
        },
        {
          "internalType": "uint256",
          "name": "auctionCompensation",
          "type": "uint256"
        },
        {
          "internalType": "uint256",
          "name": "ratio",
          "type": "uint256"
        },
        {
          "internalType": "uint256",
          "name": "pool",
          "type": "uint256"
        },
        {
          "internalType": "uint256",
          "name": "compensation",
          "type": "uint256"
        },
        {
          "internalType": "address",
          "name": "pcc",
          "type": "address"
        },
        {
          "internalType": "address",
          "name": "lighthouse",
          "type": "address"
        },
        {
          "internalType": "uint256",
          "name": "startTime",
          "type": "uint256"
        }
      ],
      "stateMutability": "view",
      "type": "function"
    },
    {
      "inputs": [],
      "name": "renounceOwnership",
      "outputs": [],
      "stateMutability": "nonpayable",
      "type": "function"
    },
    {
      "inputs": [
        {
          "internalType": "address",
          "name": "newOwner",
          "type": "address"
        }
      ],
      "name": "transferOwnership",
      "outputs": [],
      "stateMutability": "nonpayable",
      "type": "function"
    }
  ],
  "bytecode": "0x60806040523480156200001157600080fd5b50604051620028d2380380620028d28339818101604052810190620000379190620003e5565b620000576200004b6200030260201b60201c565b6200030a60201b60201c565b600073ffffffffffffffffffffffffffffffffffffffff168573ffffffffffffffffffffffffffffffffffffffff1614158015620000c25750600073ffffffffffffffffffffffffffffffffffffffff168273ffffffffffffffffffffffffffffffffffffffff1614155b8015620000fc5750600073ffffffffffffffffffffffffffffffffffffffff168473ffffffffffffffffffffffffffffffffffffffff1614155b8015620001365750600073ffffffffffffffffffffffffffffffffffffffff168373ffffffffffffffffffffffffffffffffffffffff1614155b8015620001705750600073ffffffffffffffffffffffffffffffffffffffff168173ffffffffffffffffffffffffffffffffffffffff1614155b620001b2576040517f08c379a0000000000000000000000000000000000000000000000000000000008152600401620001a990620004a9565b60405180910390fd5b84600160006101000a81548173ffffffffffffffffffffffffffffffffffffffff021916908373ffffffffffffffffffffffffffffffffffffffff16021790555083600260006101000a81548173ffffffffffffffffffffffffffffffffffffffff021916908373ffffffffffffffffffffffffffffffffffffffff16021790555082600360006101000a81548173ffffffffffffffffffffffffffffffffffffffff021916908373ffffffffffffffffffffffffffffffffffffffff16021790555080600460006101000a81548173ffffffffffffffffffffffffffffffffffffffff021916908373ffffffffffffffffffffffffffffffffffffffff16021790555081600560006101000a81548173ffffffffffffffffffffffffffffffffffffffff021916908373ffffffffffffffffffffffffffffffffffffffff16021790555050505050506200052a565b600033905090565b60008060009054906101000a900473ffffffffffffffffffffffffffffffffffffffff169050816000806101000a81548173ffffffffffffffffffffffffffffffffffffffff021916908373ffffffffffffffffffffffffffffffffffffffff1602179055508173ffffffffffffffffffffffffffffffffffffffff168173ffffffffffffffffffffffffffffffffffffffff167f8be0079c531659141344cd1fd0a4f28419497f9722a3daafe3b4186f6b6457e060405160405180910390a35050565b600081519050620003df8162000510565b92915050565b600080600080600060a08688031215620003fe57600080fd5b60006200040e88828901620003ce565b95505060206200042188828901620003ce565b94505060406200043488828901620003ce565b93505060606200044788828901620003ce565b92505060806200045a88828901620003ce565b9150509295509295909350565b600062000476601883620004cb565b91507f4c69676874686f7573653a205a45524f5f4144445245535300000000000000006000830152602082019050919050565b60006020820190508181036000830152620004c48162000467565b9050919050565b600082825260208201905092915050565b6000620004e982620004f0565b9050919050565b600073ffffffffffffffffffffffffffffffffffffffff82169050919050565b6200051b81620004dc565b81146200052757600080fd5b50565b612398806200053a6000396000f3fe608060405234801561001057600080fd5b506004361061009e5760003560e01c806385d044661161006657806385d044661461013a5780638da5cb5b14610156578063da8e78fd14610174578063e1259a87146101a4578063f2fde38b146101c05761009e565b80630c664189146100a3578063107046bd146100bf57806354993323146100f8578063696bd13d14610114578063715018a614610130575b600080fd5b6100bd60048036038101906100b8919061182e565b6101dc565b005b6100d960048036038101906100d491906117dc565b610441565b6040516100ef9a999897969594939291906120c5565b60405180910390f35b610112600480360381019061010d9190611945565b6104d5565b005b61012e600480360381019061012991906118e2565b6109fc565b005b610138610a02565b005b610154600480360381019061014f919061186a565b610a8a565b005b61015e610f8d565b60405161016b9190611e1c565b60405180910390f35b61018e6004803603810190610189919061182e565b610fb6565b60405161019b9190612057565b60405180910390f35b6101be60048036038101906101b9919061186a565b610fdb565b005b6101da60048036038101906101d59190611761565b61151f565b005b6101e4611617565b73ffffffffffffffffffffffffffffffffffffffff16610202610f8d565b73ffffffffffffffffffffffffffffffffffffffff1614610258576040517f08c379a000000000000000000000000000000000000000000000000000000000815260040161024f90611f37565b60405180910390fd5b6000821161029b576040517f08c379a000000000000000000000000000000000000000000000000000000000815260040161029290611fd7565b60405180910390fd5b600073ffffffffffffffffffffffffffffffffffffffff168173ffffffffffffffffffffffffffffffffffffffff16141561030b576040517f08c379a000000000000000000000000000000000000000000000000000000000815260040161030290612037565b60405180910390fd5b6000600660008481526020019081526020016000209050600073ffffffffffffffffffffffffffffffffffffffff168160070160009054906101000a900473ffffffffffffffffffffffffffffffffffffffff1673ffffffffffffffffffffffffffffffffffffffff16146103b5576040517f08c379a00000000000000000000000000000000000000000000000000000000081526004016103ac90612017565b60405180910390fd5b818160070160006101000a81548173ffffffffffffffffffffffffffffffffffffffff021916908373ffffffffffffffffffffffffffffffffffffffff1602179055508173ffffffffffffffffffffffffffffffffffffffff16837f8e35588fe3af09a9e4fed9970d5829d649ac93c62a5412873b5c4a39afeec18660405160405180910390a3505050565b60066020528060005260406000206000915090508060000154908060010154908060020154908060030154908060040154908060050154908060060154908060070160009054906101000a900473ffffffffffffffffffffffffffffffffffffffff16908060080160009054906101000a900473ffffffffffffffffffffffffffffffffffffffff1690806009015490508a565b6104dd611617565b73ffffffffffffffffffffffffffffffffffffffff166104fb610f8d565b73ffffffffffffffffffffffffffffffffffffffff1614610551576040517f08c379a000000000000000000000000000000000000000000000000000000000815260040161054890611f37565b60405180910390fd5b6000871180156105615750600086115b801561056d5750600085115b80156105795750600084115b80156105855750600083115b6105c4576040517f08c379a00000000000000000000000000000000000000000000000000000000081526004016105bb90611ff7565b60405180910390fd5b600073ffffffffffffffffffffffffffffffffffffffff168173ffffffffffffffffffffffffffffffffffffffff161415610634576040517f08c379a000000000000000000000000000000000000000000000000000000000815260040161062b90612037565b60405180910390fd5b600060066000898152602001908152602001600020600901541461068d576040517f08c379a000000000000000000000000000000000000000000000000000000000815260040161068490611ef7565b60405180910390fd5b600082116106d0576040517f08c379a00000000000000000000000000000000000000000000000000000000081526004016106c790611ff7565b60405180910390fd5b6000600460009054906101000a900473ffffffffffffffffffffffffffffffffffffffff1673ffffffffffffffffffffffffffffffffffffffff1663777de704896040518263ffffffff1660e01b815260040161072d9190612057565b60206040518083038186803b15801561074557600080fd5b505afa158015610759573d6000803e3d6000fd5b505050506040513d601f19601f8201168201806040525081019061077d9190611805565b9050600081116107c2576040517f08c379a00000000000000000000000000000000000000000000000000000000081526004016107b990611ed7565b60405180910390fd5b80831015610805576040517f08c379a00000000000000000000000000000000000000000000000000000000081526004016107fc90611fb7565b60405180910390fd5b6000600660008a81526020019081526020016000209050600080600460009054906101000a900473ffffffffffffffffffffffffffffffffffffffff1673ffffffffffffffffffffffffffffffffffffffff1663943df3158c6040518263ffffffff1660e01b815260040161087a9190612057565b604080518083038186803b15801561089157600080fd5b505afa1580156108a5573d6000803e3d6000fd5b505050506040513d601f19601f820116820180604052508101906108c991906118a6565b8092508193505050898360000181905550888360010181905550878360020181905550868360030181905550888a6109019190612172565b836005018190555086886109159190612172565b8360060181905550848360080160006101000a81548173ffffffffffffffffffffffffffffffffffffffff021916908373ffffffffffffffffffffffffffffffffffffffff1602179055508583600901819055508260060154670de0b6b3a7640000846005015461098691906121f9565b61099091906121c8565b83600401819055508473ffffffffffffffffffffffffffffffffffffffff168b7f5c5192af912419ed7d4827db74f71b5415c8e51d7e02ff605e470a9e8ed6cdc38c8c8c8c8c6040516109e7959493929190612072565b60405180910390a35050505050505050505050565b50505050565b610a0a611617565b73ffffffffffffffffffffffffffffffffffffffff16610a28610f8d565b73ffffffffffffffffffffffffffffffffffffffff1614610a7e576040517f08c379a0000000000000000000000000000000000000000000000000000000008152600401610a7590611f37565b60405180910390fd5b610a88600061161f565b565b6000600660008481526020019081526020016000209050600073ffffffffffffffffffffffffffffffffffffffff168160070160009054906101000a900473ffffffffffffffffffffffffffffffffffffffff1673ffffffffffffffffffffffffffffffffffffffff161415610b35576040517f08c379a0000000000000000000000000000000000000000000000000000000008152600401610b2c90611f17565b60405180910390fd5b60008160080160009054906101000a900473ffffffffffffffffffffffffffffffffffffffff1690503373ffffffffffffffffffffffffffffffffffffffff168173ffffffffffffffffffffffffffffffffffffffff16636352211e856040518263ffffffff1660e01b8152600401610bae9190612057565b60206040518083038186803b158015610bc657600080fd5b505afa158015610bda573d6000803e3d6000fd5b505050506040513d601f19601f82011682018060405250810190610bfe919061178a565b73ffffffffffffffffffffffffffffffffffffffff1614610c54576040517f08c379a0000000000000000000000000000000000000000000000000000000008152600401610c4b90611f57565b60405180910390fd5b60028173ffffffffffffffffffffffffffffffffffffffff1663989981d7856040518263ffffffff1660e01b8152600401610c8f9190612057565b60206040518083038186803b158015610ca757600080fd5b505afa158015610cbb573d6000803e3d6000fd5b505050506040513d601f19601f82011682018060405250810190610cdf91906119e3565b60ff161115610d23576040517f08c379a0000000000000000000000000000000000000000000000000000000008152600401610d1a90611f97565b60405180910390fd5b60008173ffffffffffffffffffffffffffffffffffffffff1663434d382d856040518263ffffffff1660e01b8152600401610d5e9190612057565b60206040518083038186803b158015610d7657600080fd5b505afa158015610d8a573d6000803e3d6000fd5b505050506040513d601f19601f82011682018060405250810190610dae9190611805565b905060008111610df3576040517f08c379a0000000000000000000000000000000000000000000000000000000008152600401610dea90611f77565b60405180910390fd5b8173ffffffffffffffffffffffffffffffffffffffff166342966c68856040518263ffffffff1660e01b8152600401610e2c9190612057565b600060405180830381600087803b158015610e4657600080fd5b505af1158015610e5a573d6000803e3d6000fd5b50505050600560009054906101000a900473ffffffffffffffffffffffffffffffffffffffff1673ffffffffffffffffffffffffffffffffffffffff166323b872dd3033846040518463ffffffff1660e01b8152600401610ebd93929190611e37565b602060405180830381600087803b158015610ed757600080fd5b505af1158015610eeb573d6000803e3d6000fd5b505050506040513d601f19601f82011682018060405250810190610f0f91906117b3565b50838360080160009054906101000a900473ffffffffffffffffffffffffffffffffffffffff1673ffffffffffffffffffffffffffffffffffffffff16867f2b038598b04ca541b8ff17444794028d8f2a5b72689a4a7331638cfd01368daa3385604051610f7e929190611e6e565b60405180910390a45050505050565b60008060009054906101000a900473ffffffffffffffffffffffffffffffffffffffff16905090565b6007602052816000526040600020602052806000526040600020600091509150505481565b6000600660008481526020019081526020016000209050600073ffffffffffffffffffffffffffffffffffffffff168160070160009054906101000a900473ffffffffffffffffffffffffffffffffffffffff1673ffffffffffffffffffffffffffffffffffffffff161415611086576040517f08c379a000000000000000000000000000000000000000000000000000000000815260040161107d90611f17565b60405180910390fd5b60008160080160009054906101000a900473ffffffffffffffffffffffffffffffffffffffff1690503373ffffffffffffffffffffffffffffffffffffffff168173ffffffffffffffffffffffffffffffffffffffff16636352211e856040518263ffffffff1660e01b81526004016110ff9190612057565b60206040518083038186803b15801561111757600080fd5b505afa15801561112b573d6000803e3d6000fd5b505050506040513d601f19601f8201168201806040525081019061114f919061178a565b73ffffffffffffffffffffffffffffffffffffffff16146111a5576040517f08c379a000000000000000000000000000000000000000000000000000000000815260040161119c90611f57565b60405180910390fd5b60028173ffffffffffffffffffffffffffffffffffffffff1663989981d7856040518263ffffffff1660e01b81526004016111e09190612057565b60206040518083038186803b1580156111f857600080fd5b505afa15801561120c573d6000803e3d6000fd5b505050506040513d601f19601f8201168201806040525081019061123091906119e3565b60ff161115611274576040517f08c379a000000000000000000000000000000000000000000000000000000000815260040161126b90611f97565b60405180910390fd5b6000670de0b6b3a76400008273ffffffffffffffffffffffffffffffffffffffff16635a5804b3866040518263ffffffff1660e01b81526004016112b89190612057565b60206040518083038186803b1580156112d057600080fd5b505afa1580156112e4573d6000803e3d6000fd5b505050506040513d601f19601f820116820180604052508101906113089190611805565b61131291906121c8565b905060008111611357576040517f08c379a000000000000000000000000000000000000000000000000000000000815260040161134e90611e97565b60405180910390fd5b8173ffffffffffffffffffffffffffffffffffffffff166342966c68856040518263ffffffff1660e01b81526004016113909190612057565b600060405180830381600087803b1580156113aa57600080fd5b505af11580156113be573d6000803e3d6000fd5b5050505060008360070160009054906101000a900473ffffffffffffffffffffffffffffffffffffffff1690508073ffffffffffffffffffffffffffffffffffffffff166323b872dd3033856040518463ffffffff1660e01b815260040161142893929190611e37565b602060405180830381600087803b15801561144257600080fd5b505af1158015611456573d6000803e3d6000fd5b505050506040513d601f19601f8201168201806040525081019061147a91906117b3565b50848460080160009054906101000a900473ffffffffffffffffffffffffffffffffffffffff1673ffffffffffffffffffffffffffffffffffffffff16877f0f4900e98e66735cb9b522e25d2c98dd16c986ede7f115c66053e8a8cbeb4257338860070160009054906101000a900473ffffffffffffffffffffffffffffffffffffffff168760405161150f93929190611e37565b60405180910390a4505050505050565b611527611617565b73ffffffffffffffffffffffffffffffffffffffff16611545610f8d565b73ffffffffffffffffffffffffffffffffffffffff161461159b576040517f08c379a000000000000000000000000000000000000000000000000000000000815260040161159290611f37565b60405180910390fd5b600073ffffffffffffffffffffffffffffffffffffffff168173ffffffffffffffffffffffffffffffffffffffff16141561160b576040517f08c379a000000000000000000000000000000000000000000000000000000000815260040161160290611eb7565b60405180910390fd5b6116148161161f565b50565b600033905090565b60008060009054906101000a900473ffffffffffffffffffffffffffffffffffffffff169050816000806101000a81548173ffffffffffffffffffffffffffffffffffffffff021916908373ffffffffffffffffffffffffffffffffffffffff1602179055508173ffffffffffffffffffffffffffffffffffffffff168173ffffffffffffffffffffffffffffffffffffffff167f8be0079c531659141344cd1fd0a4f28419497f9722a3daafe3b4186f6b6457e060405160405180910390a35050565b6000813590506116f281612306565b92915050565b60008151905061170781612306565b92915050565b60008151905061171c8161231d565b92915050565b60008135905061173181612334565b92915050565b60008151905061174681612334565b92915050565b60008151905061175b8161234b565b92915050565b60006020828403121561177357600080fd5b6000611781848285016116e3565b91505092915050565b60006020828403121561179c57600080fd5b60006117aa848285016116f8565b91505092915050565b6000602082840312156117c557600080fd5b60006117d38482850161170d565b91505092915050565b6000602082840312156117ee57600080fd5b60006117fc84828501611722565b91505092915050565b60006020828403121561181757600080fd5b600061182584828501611737565b91505092915050565b6000806040838503121561184157600080fd5b600061184f85828601611722565b9250506020611860858286016116e3565b9150509250929050565b6000806040838503121561187d57600080fd5b600061188b85828601611722565b925050602061189c85828601611722565b9150509250929050565b600080604083850312156118b957600080fd5b60006118c785828601611737565b92505060206118d885828601611737565b9150509250929050565b600080600080608085870312156118f857600080fd5b600061190687828801611722565b945050602061191787828801611722565b9350506040611928878288016116e3565b925050606061193987828801611722565b91505092959194509250565b600080600080600080600060e0888a03121561196057600080fd5b600061196e8a828b01611722565b975050602061197f8a828b01611722565b96505060406119908a828b01611722565b95505060606119a18a828b01611722565b94505060806119b28a828b01611722565b93505060a06119c38a828b01611722565b92505060c06119d48a828b016116e3565b91505092959891949750929550565b6000602082840312156119f557600080fd5b6000611a038482850161174c565b91505092915050565b611a1581612253565b82525050565b6000611a28601f83612161565b91507f4c69676874686f7573653a204e46545f5a45524f5f414c4c4f434154494f4e006000830152602082019050919050565b6000611a68602683612161565b91507f4f776e61626c653a206e6577206f776e657220697320746865207a65726f206160008301527f64647265737300000000000000000000000000000000000000000000000000006020830152604082019050919050565b6000611ace601f83612161565b91507f4c69676874686f7573653a204e4f5f41554354494f4e5f454e445f54494d45006000830152602082019050919050565b6000611b0e601b83612161565b91507f4c69676874686f7573653a20414c52454144595f5354415254454400000000006000830152602082019050919050565b6000611b4e601283612161565b91507f4c69676874686f7573653a204e4f5f50434300000000000000000000000000006000830152602082019050919050565b6000611b8e602083612161565b91507f4f776e61626c653a2063616c6c6572206973206e6f7420746865206f776e65726000830152602082019050919050565b6000611bce601983612161565b91507f4c69676874686f7573653a204e4f545f4e46545f4f574e4552000000000000006000830152602082019050919050565b6000611c0e602183612161565b91507f4c69676874686f7573653a204e46545f5a45524f5f434f4d50454e534154494f60008301527f4e000000000000000000000000000000000000000000000000000000000000006020830152604082019050919050565b6000611c74601f83612161565b91507f4c69676874686f7573653a20464f5242494444454e5f4d494e545f54595045006000830152602082019050919050565b6000611cb4602983612161565b91507f4c69676874686f7573653a2053544152545f54494d455f4245464f52455f415560008301527f4354494f4e5f454e4400000000000000000000000000000000000000000000006020830152604082019050919050565b6000611d1a601d83612161565b91507f4c69676874686f7573653a2050524f4a4543545f4e4f545f45584953540000006000830152602082019050919050565b6000611d5a601a83612161565b91507f4c69676874686f7573653a205a45524f5f504152414d455445520000000000006000830152602082019050919050565b6000611d9a601983612161565b91507f4c69676874686f7573653a20414c52454144595f4144444544000000000000006000830152602082019050919050565b6000611dda601883612161565b91507f4c69676874686f7573653a205a45524f5f4144445245535300000000000000006000830152602082019050919050565b611e1681612291565b82525050565b6000602082019050611e316000830184611a0c565b92915050565b6000606082019050611e4c6000830186611a0c565b611e596020830185611a0c565b611e666040830184611e0d565b949350505050565b6000604082019050611e836000830185611a0c565b611e906020830184611e0d565b9392505050565b60006020820190508181036000830152611eb081611a1b565b9050919050565b60006020820190508181036000830152611ed081611a5b565b9050919050565b60006020820190508181036000830152611ef081611ac1565b9050919050565b60006020820190508181036000830152611f1081611b01565b9050919050565b60006020820190508181036000830152611f3081611b41565b9050919050565b60006020820190508181036000830152611f5081611b81565b9050919050565b60006020820190508181036000830152611f7081611bc1565b9050919050565b60006020820190508181036000830152611f9081611c01565b9050919050565b60006020820190508181036000830152611fb081611c67565b9050919050565b60006020820190508181036000830152611fd081611ca7565b9050919050565b60006020820190508181036000830152611ff081611d0d565b9050919050565b6000602082019050818103600083015261201081611d4d565b9050919050565b6000602082019050818103600083015261203081611d8d565b9050919050565b6000602082019050818103600083015261205081611dcd565b9050919050565b600060208201905061206c6000830184611e0d565b92915050565b600060a0820190506120876000830188611e0d565b6120946020830187611e0d565b6120a16040830186611e0d565b6120ae6060830185611e0d565b6120bb6080830184611e0d565b9695505050505050565b6000610140820190506120db600083018d611e0d565b6120e8602083018c611e0d565b6120f5604083018b611e0d565b612102606083018a611e0d565b61210f6080830189611e0d565b61211c60a0830188611e0d565b61212960c0830187611e0d565b61213660e0830186611a0c565b612144610100830185611a0c565b612152610120830184611e0d565b9b9a5050505050505050505050565b600082825260208201905092915050565b600061217d82612291565b915061218883612291565b9250827fffffffffffffffffffffffffffffffffffffffffffffffffffffffffffffffff038211156121bd576121bc6122a8565b5b828201905092915050565b60006121d382612291565b91506121de83612291565b9250826121ee576121ed6122d7565b5b828204905092915050565b600061220482612291565b915061220f83612291565b9250817fffffffffffffffffffffffffffffffffffffffffffffffffffffffffffffffff0483118215151615612248576122476122a8565b5b828202905092915050565b600061225e82612271565b9050919050565b60008115159050919050565b600073ffffffffffffffffffffffffffffffffffffffff82169050919050565b6000819050919050565b600060ff82169050919050565b7f4e487b7100000000000000000000000000000000000000000000000000000000600052601160045260246000fd5b7f4e487b7100000000000000000000000000000000000000000000000000000000600052601260045260246000fd5b61230f81612253565b811461231a57600080fd5b50565b61232681612265565b811461233157600080fd5b50565b61233d81612291565b811461234857600080fd5b50565b6123548161229b565b811461235f57600080fd5b5056fea26469706673582212206e2d6f2d6b7db39da016039f41ed8e68a8dab8414588509a6538f35181584c7764736f6c63430008000033",
  "linkReferences": {},
  "deployedLinkReferences": {}
}