{
  "_format": "hh-sol-artifact-1",
  "contractName": "LighthouseBurn",
  "sourceName": "contracts/LighthouseBurn.sol",
  "abi": [
    {
      "inputs": [
        {
          "internalType": "address",
          "name": "_lighthouseAuction",
          "type": "address"
        },
        {
          "internalType": "address",
          "name": "_lighthousePrefund",
          "type": "address"
        },
        {
          "internalType": "address",
          "name": "_lighthouseTier",
          "type": "address"
        },
        {
          "internalType": "address",
          "name": "_crowns",
          "type": "address"
        },
        {
          "internalType": "address",
          "name": "_project",
          "type": "address"
        }
      ],
      "stateMutability": "nonpayable",
      "type": "constructor"
    },
    {
      "anonymous": false,
      "inputs": [
        {
          "indexed": true,
          "internalType": "uint256",
          "name": "projectId",
          "type": "uint256"
        },
        {
          "indexed": true,
          "internalType": "address",
          "name": "pcc",
          "type": "address"
        }
      ],
      "name": "AddPCC",
      "type": "event"
    },
    {
      "anonymous": false,
      "inputs": [
        {
          "indexed": true,
          "internalType": "uint256",
          "name": "projectId",
          "type": "uint256"
        },
        {
          "indexed": false,
          "internalType": "uint256",
          "name": "prefundPool",
          "type": "uint256"
        },
        {
          "indexed": false,
          "internalType": "uint256",
          "name": "auctionPool",
          "type": "uint256"
        },
        {
          "indexed": false,
          "internalType": "uint256",
          "name": "prefundCompensation",
          "type": "uint256"
        },
        {
          "indexed": false,
          "internalType": "uint256",
          "name": "auctionCompensation",
          "type": "uint256"
        },
        {
          "indexed": true,
          "internalType": "address",
          "name": "lighthouse",
          "type": "address"
        },
        {
          "indexed": false,
          "internalType": "uint256",
          "name": "startTime",
          "type": "uint256"
        }
      ],
      "name": "AddProject",
      "type": "event"
    },
    {
      "anonymous": false,
      "inputs": [
        {
          "indexed": true,
          "internalType": "uint256",
          "name": "projectId",
          "type": "uint256"
        },
        {
          "indexed": true,
          "internalType": "address",
          "name": "lighthouse",
          "type": "address"
        },
        {
          "indexed": true,
          "internalType": "uint256",
          "name": "nftId",
          "type": "uint256"
        },
        {
          "indexed": false,
          "internalType": "address",
          "name": "owner",
          "type": "address"
        },
        {
          "indexed": false,
          "internalType": "uint256",
          "name": "compensation",
          "type": "uint256"
        }
      ],
      "name": "BurnForCWS",
      "type": "event"
    },
    {
      "anonymous": false,
      "inputs": [
        {
          "indexed": true,
          "internalType": "uint256",
          "name": "projectId",
          "type": "uint256"
        },
        {
          "indexed": true,
          "internalType": "address",
          "name": "lighthouse",
          "type": "address"
        },
        {
          "indexed": true,
          "internalType": "uint256",
          "name": "nftId",
          "type": "uint256"
        },
        {
          "indexed": false,
          "internalType": "address",
          "name": "owner",
          "type": "address"
        },
        {
          "indexed": false,
          "internalType": "address",
          "name": "pcc",
          "type": "address"
        },
        {
          "indexed": false,
          "internalType": "uint256",
          "name": "allocation",
          "type": "uint256"
        }
      ],
      "name": "BurnForPCC",
      "type": "event"
    },
    {
      "anonymous": false,
      "inputs": [
        {
          "indexed": true,
          "internalType": "address",
          "name": "previousOwner",
          "type": "address"
        },
        {
          "indexed": true,
          "internalType": "address",
          "name": "newOwner",
          "type": "address"
        }
      ],
      "name": "OwnershipTransferred",
      "type": "event"
    },
    {
      "anonymous": false,
      "inputs": [
        {
          "indexed": true,
          "internalType": "address",
          "name": "staker",
          "type": "address"
        }
      ],
      "name": "SetStaker",
      "type": "event"
    },
    {
      "inputs": [
        {
          "internalType": "uint256",
          "name": "projectId",
          "type": "uint256"
        },
        {
          "internalType": "uint256",
          "name": "prefundPool",
          "type": "uint256"
        },
        {
          "internalType": "uint256",
          "name": "auctionPool",
          "type": "uint256"
        },
        {
          "internalType": "uint256",
          "name": "prefundCompensation",
          "type": "uint256"
        },
        {
          "internalType": "uint256",
          "name": "auctionCompensation",
          "type": "uint256"
        },
        {
          "internalType": "uint256",
          "name": "startTime",
          "type": "uint256"
        },
        {
          "internalType": "address",
          "name": "lighthouse",
          "type": "address"
        }
      ],
      "name": "addProject",
      "outputs": [],
      "stateMutability": "nonpayable",
      "type": "function"
    },
    {
      "inputs": [
        {
          "internalType": "uint256",
          "name": "projectId",
          "type": "uint256"
        },
        {
          "internalType": "uint256",
          "name": "nftId",
          "type": "uint256"
        }
      ],
      "name": "burnForCws",
      "outputs": [],
      "stateMutability": "nonpayable",
      "type": "function"
    },
    {
      "inputs": [
        {
          "internalType": "uint256",
          "name": "projectId",
          "type": "uint256"
        },
        {
          "internalType": "uint256",
          "name": "nftId",
          "type": "uint256"
        }
      ],
      "name": "burnForPcc",
      "outputs": [],
      "stateMutability": "nonpayable",
      "type": "function"
    },
    {
      "inputs": [
        {
          "internalType": "uint256",
          "name": "projectId",
          "type": "uint256"
        },
        {
          "internalType": "uint256",
          "name": "anotherProjectId",
          "type": "uint256"
        },
        {
          "internalType": "address",
          "name": "nftAddress",
          "type": "address"
        },
        {
          "internalType": "uint256",
          "name": "nftId",
          "type": "uint256"
        }
      ],
      "name": "burnForProject",
      "outputs": [],
      "stateMutability": "nonpayable",
      "type": "function"
    },
    {
      "inputs": [
        {
          "internalType": "uint256",
          "name": "",
          "type": "uint256"
        },
        {
          "internalType": "address",
          "name": "",
          "type": "address"
        }
      ],
      "name": "mintedNfts",
      "outputs": [
        {
          "internalType": "uint256",
          "name": "",
          "type": "uint256"
        }
      ],
      "stateMutability": "view",
      "type": "function"
    },
    {
      "inputs": [],
      "name": "owner",
      "outputs": [
        {
          "internalType": "address",
          "name": "",
          "type": "address"
        }
      ],
      "stateMutability": "view",
      "type": "function"
    },
    {
      "inputs": [
        {
          "internalType": "uint256",
          "name": "",
          "type": "uint256"
        }
      ],
      "name": "projects",
      "outputs": [
        {
          "internalType": "uint256",
          "name": "prefundPool",
          "type": "uint256"
        },
        {
          "internalType": "uint256",
          "name": "auctionPool",
          "type": "uint256"
        },
        {
          "internalType": "uint256",
          "name": "prefundCompensation",
          "type": "uint256"
        },
        {
          "internalType": "uint256",
          "name": "auctionCompensation",
          "type": "uint256"
        },
        {
          "internalType": "uint256",
          "name": "ratio",
          "type": "uint256"
        },
        {
          "internalType": "uint256",
          "name": "pool",
          "type": "uint256"
        },
        {
          "internalType": "uint256",
          "name": "compensation",
          "type": "uint256"
        },
        {
          "internalType": "address",
          "name": "pcc",
          "type": "address"
        },
        {
          "internalType": "address",
          "name": "lighthouse",
          "type": "address"
        },
        {
          "internalType": "uint256",
          "name": "startTime",
          "type": "uint256"
        }
      ],
      "stateMutability": "view",
      "type": "function"
    },
    {
      "inputs": [],
      "name": "renounceOwnership",
      "outputs": [],
      "stateMutability": "nonpayable",
      "type": "function"
    },
    {
      "inputs": [
        {
          "internalType": "address",
          "name": "_staker",
          "type": "address"
        }
      ],
      "name": "setStaker",
      "outputs": [],
      "stateMutability": "nonpayable",
      "type": "function"
    },
    {
      "inputs": [
        {
          "internalType": "address",
          "name": "",
          "type": "address"
        }
      ],
      "name": "stakeReserves",
      "outputs": [
        {
          "internalType": "uint256",
          "name": "",
          "type": "uint256"
        }
      ],
      "stateMutability": "view",
      "type": "function"
    },
    {
      "inputs": [],
      "name": "staker",
      "outputs": [
        {
          "internalType": "address",
          "name": "",
          "type": "address"
        }
      ],
      "stateMutability": "view",
      "type": "function"
    },
    {
      "inputs": [
        {
          "internalType": "address",
          "name": "pccAddress",
          "type": "address"
        }
      ],
      "name": "transferMaxReserve",
      "outputs": [],
      "stateMutability": "nonpayable",
      "type": "function"
    },
    {
      "inputs": [
        {
          "internalType": "address",
          "name": "newOwner",
          "type": "address"
        }
      ],
      "name": "transferOwnership",
      "outputs": [],
      "stateMutability": "nonpayable",
      "type": "function"
    },
    {
      "inputs": [
        {
          "internalType": "address",
          "name": "pccAddress",
          "type": "address"
        },
        {
          "internalType": "uint256",
          "name": "amount",
          "type": "uint256"
        }
      ],
      "name": "transferStakeReserve",
      "outputs": [],
      "stateMutability": "nonpayable",
      "type": "function"
    }
  ],
  "bytecode": "0x60806040523480156200001157600080fd5b5060405162003d7d38038062003d7d8339818101604052810190620000379190620003e5565b620000576200004b6200030260201b60201c565b6200030a60201b60201c565b600073ffffffffffffffffffffffffffffffffffffffff168573ffffffffffffffffffffffffffffffffffffffff1614158015620000c25750600073ffffffffffffffffffffffffffffffffffffffff168273ffffffffffffffffffffffffffffffffffffffff1614155b8015620000fc5750600073ffffffffffffffffffffffffffffffffffffffff168473ffffffffffffffffffffffffffffffffffffffff1614155b8015620001365750600073ffffffffffffffffffffffffffffffffffffffff168373ffffffffffffffffffffffffffffffffffffffff1614155b8015620001705750600073ffffffffffffffffffffffffffffffffffffffff168173ffffffffffffffffffffffffffffffffffffffff1614155b620001b2576040517f08c379a0000000000000000000000000000000000000000000000000000000008152600401620001a990620004a9565b60405180910390fd5b84600160006101000a81548173ffffffffffffffffffffffffffffffffffffffff021916908373ffffffffffffffffffffffffffffffffffffffff16021790555083600260006101000a81548173ffffffffffffffffffffffffffffffffffffffff021916908373ffffffffffffffffffffffffffffffffffffffff16021790555082600360006101000a81548173ffffffffffffffffffffffffffffffffffffffff021916908373ffffffffffffffffffffffffffffffffffffffff16021790555080600460006101000a81548173ffffffffffffffffffffffffffffffffffffffff021916908373ffffffffffffffffffffffffffffffffffffffff16021790555081600560006101000a81548173ffffffffffffffffffffffffffffffffffffffff021916908373ffffffffffffffffffffffffffffffffffffffff16021790555050505050506200052a565b600033905090565b60008060009054906101000a900473ffffffffffffffffffffffffffffffffffffffff169050816000806101000a81548173ffffffffffffffffffffffffffffffffffffffff021916908373ffffffffffffffffffffffffffffffffffffffff1602179055508173ffffffffffffffffffffffffffffffffffffffff168173ffffffffffffffffffffffffffffffffffffffff167f8be0079c531659141344cd1fd0a4f28419497f9722a3daafe3b4186f6b6457e060405160405180910390a35050565b600081519050620003df8162000510565b92915050565b600080600080600060a08688031215620003fe57600080fd5b60006200040e88828901620003ce565b95505060206200042188828901620003ce565b94505060406200043488828901620003ce565b93505060606200044788828901620003ce565b92505060806200045a88828901620003ce565b9150509295509295909350565b600062000476601883620004cb565b91507f4c69676874686f7573653a205a45524f5f4144445245535300000000000000006000830152602082019050919050565b60006020820190508181036000830152620004c48162000467565b9050919050565b600082825260208201905092915050565b6000620004e982620004f0565b9050919050565b600073ffffffffffffffffffffffffffffffffffffffff82169050919050565b6200051b81620004dc565b81146200052757600080fd5b50565b613843806200053a6000396000f3fe608060405234801561001057600080fd5b50600436106100ea5760003560e01c8063715018a61161008c578063a29a43bb11610066578063a29a43bb1461022a578063da8e78fd14610246578063e1259a8714610276578063f2fde38b14610292576100ea565b8063715018a6146101e657806385d04466146101f05780638da5cb5b1461020c576100ea565b80635742b466116100c85780635742b466146101745780635ebaf1db146101905780636431941a146101ae578063696bd13d146101ca576100ea565b8063107046bd146100ef578063442ceeb9146101285780635499332314610158575b600080fd5b61010960048036038101906101049190612a4d565b6102ae565b60405161011f9a9998979695949392919061353c565b60405180910390f35b610142600480360381019061013d9190612996565b610342565b60405161014f91906134ce565b60405180910390f35b610172600480360381019061016d9190612bb6565b61035a565b005b61018e60048036038101906101899190612996565b610881565b005b610198610bda565b6040516101a591906131f3565b60405180910390f35b6101c860048036038101906101c391906129e8565b610c00565b005b6101e460048036038101906101df9190612b53565b611029565b005b6101ee61102f565b005b61020a60048036038101906102059190612adb565b6110b7565b005b610214611b24565b60405161022191906131f3565b60405180910390f35b610244600480360381019061023f9190612996565b611b4d565b005b610260600480360381019061025b9190612a9f565b611cc0565b60405161026d91906134ce565b60405180910390f35b610290600480360381019061028b9190612adb565b611ce5565b005b6102ac60048036038101906102a79190612996565b612754565b005b60086020528060005260406000206000915090508060000154908060010154908060020154908060030154908060040154908060050154908060060154908060070160009054906101000a900473ffffffffffffffffffffffffffffffffffffffff16908060080160009054906101000a900473ffffffffffffffffffffffffffffffffffffffff1690806009015490508a565b60066020528060005260406000206000915090505481565b61036261284c565b73ffffffffffffffffffffffffffffffffffffffff16610380611b24565b73ffffffffffffffffffffffffffffffffffffffff16146103d6576040517f08c379a00000000000000000000000000000000000000000000000000000000081526004016103cd9061336e565b60405180910390fd5b6000871180156103e65750600086115b80156103f25750600085115b80156103fe5750600084115b801561040a5750600083115b610449576040517f08c379a00000000000000000000000000000000000000000000000000000000081526004016104409061346e565b60405180910390fd5b600073ffffffffffffffffffffffffffffffffffffffff168173ffffffffffffffffffffffffffffffffffffffff1614156104b9576040517f08c379a00000000000000000000000000000000000000000000000000000000081526004016104b09061348e565b60405180910390fd5b6000600860008981526020019081526020016000206009015414610512576040517f08c379a0000000000000000000000000000000000000000000000000000000008152600401610509906132ee565b60405180910390fd5b60008211610555576040517f08c379a000000000000000000000000000000000000000000000000000000000815260040161054c9061346e565b60405180910390fd5b6000600460009054906101000a900473ffffffffffffffffffffffffffffffffffffffff1673ffffffffffffffffffffffffffffffffffffffff1663777de704896040518263ffffffff1660e01b81526004016105b291906134ce565b60206040518083038186803b1580156105ca57600080fd5b505afa1580156105de573d6000803e3d6000fd5b505050506040513d601f19601f820116820180604052508101906106029190612a76565b905060008111610647576040517f08c379a000000000000000000000000000000000000000000000000000000000815260040161063e906132ae565b60405180910390fd5b8083101561068a576040517f08c379a00000000000000000000000000000000000000000000000000000000081526004016106819061342e565b60405180910390fd5b6000600860008a81526020019081526020016000209050600080600460009054906101000a900473ffffffffffffffffffffffffffffffffffffffff1673ffffffffffffffffffffffffffffffffffffffff1663943df3158c6040518263ffffffff1660e01b81526004016106ff91906134ce565b604080518083038186803b15801561071657600080fd5b505afa15801561072a573d6000803e3d6000fd5b505050506040513d601f19601f8201168201806040525081019061074e9190612b17565b8092508193505050898360000181905550888360010181905550878360020181905550868360030181905550888a61078691906135e9565b8360050181905550868861079a91906135e9565b8360060181905550848360080160006101000a81548173ffffffffffffffffffffffffffffffffffffffff021916908373ffffffffffffffffffffffffffffffffffffffff1602179055508583600901819055508260060154670de0b6b3a7640000846005015461080b9190613670565b610815919061363f565b83600401819055508473ffffffffffffffffffffffffffffffffffffffff168b7f5c5192af912419ed7d4827db74f71b5415c8e51d7e02ff605e470a9e8ed6cdc38c8c8c8c8c60405161086c9594939291906134e9565b60405180910390a35050505050505050505050565b600073ffffffffffffffffffffffffffffffffffffffff168173ffffffffffffffffffffffffffffffffffffffff161415801561090d5750600073ffffffffffffffffffffffffffffffffffffffff16600760009054906101000a900473ffffffffffffffffffffffffffffffffffffffff1673ffffffffffffffffffffffffffffffffffffffff1614155b61094c576040517f08c379a00000000000000000000000000000000000000000000000000000000081526004016109439061330e565b60405180910390fd5b610954611b24565b73ffffffffffffffffffffffffffffffffffffffff163373ffffffffffffffffffffffffffffffffffffffff1614806109da5750600760009054906101000a900473ffffffffffffffffffffffffffffffffffffffff1673ffffffffffffffffffffffffffffffffffffffff163373ffffffffffffffffffffffffffffffffffffffff16145b610a19576040517f08c379a0000000000000000000000000000000000000000000000000000000008152600401610a109061344e565b60405180910390fd5b6000600660008373ffffffffffffffffffffffffffffffffffffffff1673ffffffffffffffffffffffffffffffffffffffff1681526020019081526020016000205411610a9b576040517f08c379a0000000000000000000000000000000000000000000000000000000008152600401610a92906133ce565b60405180910390fd5b60008190508073ffffffffffffffffffffffffffffffffffffffff166323b872dd30600760009054906101000a900473ffffffffffffffffffffffffffffffffffffffff16600660008773ffffffffffffffffffffffffffffffffffffffff1673ffffffffffffffffffffffffffffffffffffffff168152602001908152602001600020546040518463ffffffff1660e01b8152600401610b3e9392919061320e565b602060405180830381600087803b158015610b5857600080fd5b505af1158015610b6c573d6000803e3d6000fd5b505050506040513d601f19601f82011682018060405250810190610b909190612a24565b506000600660008473ffffffffffffffffffffffffffffffffffffffff1673ffffffffffffffffffffffffffffffffffffffff168152602001908152602001600020819055505050565b600760009054906101000a900473ffffffffffffffffffffffffffffffffffffffff1681565b60008111610c43576040517f08c379a0000000000000000000000000000000000000000000000000000000008152600401610c3a9061346e565b60405180910390fd5b600073ffffffffffffffffffffffffffffffffffffffff168273ffffffffffffffffffffffffffffffffffffffff1614158015610ccf5750600073ffffffffffffffffffffffffffffffffffffffff16600760009054906101000a900473ffffffffffffffffffffffffffffffffffffffff1673ffffffffffffffffffffffffffffffffffffffff1614155b610d0e576040517f08c379a0000000000000000000000000000000000000000000000000000000008152600401610d059061330e565b60405180910390fd5b610d16611b24565b73ffffffffffffffffffffffffffffffffffffffff163373ffffffffffffffffffffffffffffffffffffffff161480610d9c5750600760009054906101000a900473ffffffffffffffffffffffffffffffffffffffff1673ffffffffffffffffffffffffffffffffffffffff163373ffffffffffffffffffffffffffffffffffffffff16145b610ddb576040517f08c379a0000000000000000000000000000000000000000000000000000000008152600401610dd29061344e565b60405180910390fd5b6000600660008473ffffffffffffffffffffffffffffffffffffffff1673ffffffffffffffffffffffffffffffffffffffff1681526020019081526020016000205411610e5d576040517f08c379a0000000000000000000000000000000000000000000000000000000008152600401610e54906133ce565b60405180910390fd5b80600660008473ffffffffffffffffffffffffffffffffffffffff1673ffffffffffffffffffffffffffffffffffffffff168152602001908152602001600020541015610edf576040517f08c379a0000000000000000000000000000000000000000000000000000000008152600401610ed6906132ce565b60405180910390fd5b60008290508073ffffffffffffffffffffffffffffffffffffffff166323b872dd30600760009054906101000a900473ffffffffffffffffffffffffffffffffffffffff16856040518463ffffffff1660e01b8152600401610f439392919061320e565b602060405180830381600087803b158015610f5d57600080fd5b505af1158015610f71573d6000803e3d6000fd5b505050506040513d601f19601f82011682018060405250810190610f959190612a24565b5081600660008573ffffffffffffffffffffffffffffffffffffffff1673ffffffffffffffffffffffffffffffffffffffff16815260200190815260200160002054610fe191906136ca565b600660008573ffffffffffffffffffffffffffffffffffffffff1673ffffffffffffffffffffffffffffffffffffffff16815260200190815260200160002081905550505050565b50505050565b61103761284c565b73ffffffffffffffffffffffffffffffffffffffff16611055611b24565b73ffffffffffffffffffffffffffffffffffffffff16146110ab576040517f08c379a00000000000000000000000000000000000000000000000000000000081526004016110a29061336e565b60405180910390fd5b6110b56000612854565b565b6000600460009054906101000a900473ffffffffffffffffffffffffffffffffffffffff1673ffffffffffffffffffffffffffffffffffffffff1663a5045a16846040518263ffffffff1660e01b815260040161111491906134ce565b60206040518083038186803b15801561112c57600080fd5b505afa158015611140573d6000803e3d6000fd5b505050506040513d601f19601f8201168201806040525081019061116491906129bf565b9050600073ffffffffffffffffffffffffffffffffffffffff168173ffffffffffffffffffffffffffffffffffffffff1614156111d6576040517f08c379a00000000000000000000000000000000000000000000000000000000081526004016111cd9061332e565b60405180910390fd5b600460009054906101000a900473ffffffffffffffffffffffffffffffffffffffff1673ffffffffffffffffffffffffffffffffffffffff16631b4ead45846040518263ffffffff1660e01b815260040161123191906134ce565b60206040518083038186803b15801561124957600080fd5b505afa15801561125d573d6000803e3d6000fd5b505050506040513d601f19601f820116820180604052508101906112819190612a24565b6112c0576040517f08c379a00000000000000000000000000000000000000000000000000000000081526004016112b7906133ae565b60405180910390fd5b60008190506000600460009054906101000a900473ffffffffffffffffffffffffffffffffffffffff1673ffffffffffffffffffffffffffffffffffffffff16639d0214cb866040518263ffffffff1660e01b815260040161132291906134ce565b60206040518083038186803b15801561133a57600080fd5b505afa15801561134e573d6000803e3d6000fd5b505050506040513d601f19601f8201168201806040525081019061137291906129bf565b90503373ffffffffffffffffffffffffffffffffffffffff168173ffffffffffffffffffffffffffffffffffffffff16636352211e866040518263ffffffff1660e01b81526004016113c491906134ce565b60206040518083038186803b1580156113dc57600080fd5b505afa1580156113f0573d6000803e3d6000fd5b505050506040513d601f19601f8201168201806040525081019061141491906129bf565b73ffffffffffffffffffffffffffffffffffffffff161461146a576040517f08c379a00000000000000000000000000000000000000000000000000000000081526004016114619061338e565b60405180910390fd5b60028173ffffffffffffffffffffffffffffffffffffffff1663989981d7866040518263ffffffff1660e01b81526004016114a591906134ce565b60206040518083038186803b1580156114bd57600080fd5b505afa1580156114d1573d6000803e3d6000fd5b505050506040513d601f19601f820116820180604052508101906114f59190612c54565b60ff161115611539576040517f08c379a00000000000000000000000000000000000000000000000000000000081526004016115309061340e565b60405180910390fd5b6000670de0b6b3a76400008273ffffffffffffffffffffffffffffffffffffffff16639ab8ee15876040518263ffffffff1660e01b815260040161157d91906134ce565b60206040518083038186803b15801561159557600080fd5b505afa1580156115a9573d6000803e3d6000fd5b505050506040513d601f19601f820116820180604052508101906115cd9190612a76565b6115d7919061363f565b90506000670de0b6b3a76400008373ffffffffffffffffffffffffffffffffffffffff166396f53711886040518263ffffffff1660e01b815260040161161d91906134ce565b60206040518083038186803b15801561163557600080fd5b505afa158015611649573d6000803e3d6000fd5b505050506040513d601f19601f8201168201806040525081019061166d9190612a76565b611677919061363f565b9050600081116116bc576040517f08c379a00000000000000000000000000000000000000000000000000000000081526004016116b3906133ee565b60405180910390fd5b818473ffffffffffffffffffffffffffffffffffffffff166370a08231306040518263ffffffff1660e01b81526004016116f691906131f3565b60206040518083038186803b15801561170e57600080fd5b505afa158015611722573d6000803e3d6000fd5b505050506040513d601f19601f820116820180604052508101906117469190612a76565b1015611787576040517f08c379a000000000000000000000000000000000000000000000000000000000815260040161177e9061334e565b60405180910390fd5b80600560009054906101000a900473ffffffffffffffffffffffffffffffffffffffff1673ffffffffffffffffffffffffffffffffffffffff166370a08231306040518263ffffffff1660e01b81526004016117e391906131f3565b60206040518083038186803b1580156117fb57600080fd5b505afa15801561180f573d6000803e3d6000fd5b505050506040513d601f19601f820116820180604052508101906118339190612a76565b1015611874576040517f08c379a000000000000000000000000000000000000000000000000000000000815260040161186b906134ae565b60405180910390fd5b8273ffffffffffffffffffffffffffffffffffffffff166342966c68876040518263ffffffff1660e01b81526004016118ad91906134ce565b600060405180830381600087803b1580156118c757600080fd5b505af11580156118db573d6000803e3d6000fd5b50505050600560009054906101000a900473ffffffffffffffffffffffffffffffffffffffff1673ffffffffffffffffffffffffffffffffffffffff166323b872dd3033846040518463ffffffff1660e01b815260040161193e9392919061320e565b602060405180830381600087803b15801561195857600080fd5b505af115801561196c573d6000803e3d6000fd5b505050506040513d601f19601f820116820180604052508101906119909190612a24565b5081600660008773ffffffffffffffffffffffffffffffffffffffff1673ffffffffffffffffffffffffffffffffffffffff168152602001908152602001600020546119dc91906135e9565b600660008773ffffffffffffffffffffffffffffffffffffffff1673ffffffffffffffffffffffffffffffffffffffff1681526020019081526020016000208190555085600460009054906101000a900473ffffffffffffffffffffffffffffffffffffffff1673ffffffffffffffffffffffffffffffffffffffff16639d0214cb896040518263ffffffff1660e01b8152600401611a7b91906134ce565b60206040518083038186803b158015611a9357600080fd5b505afa158015611aa7573d6000803e3d6000fd5b505050506040513d601f19601f82011682018060405250810190611acb91906129bf565b73ffffffffffffffffffffffffffffffffffffffff16887f2b038598b04ca541b8ff17444794028d8f2a5b72689a4a7331638cfd01368daa3385604051611b13929190613245565b60405180910390a450505050505050565b60008060009054906101000a900473ffffffffffffffffffffffffffffffffffffffff16905090565b611b5561284c565b73ffffffffffffffffffffffffffffffffffffffff16611b73611b24565b73ffffffffffffffffffffffffffffffffffffffff1614611bc9576040517f08c379a0000000000000000000000000000000000000000000000000000000008152600401611bc09061336e565b60405180910390fd5b600073ffffffffffffffffffffffffffffffffffffffff168173ffffffffffffffffffffffffffffffffffffffff161415611c39576040517f08c379a0000000000000000000000000000000000000000000000000000000008152600401611c309061348e565b60405180910390fd5b80600760006101000a81548173ffffffffffffffffffffffffffffffffffffffff021916908373ffffffffffffffffffffffffffffffffffffffff1602179055508073ffffffffffffffffffffffffffffffffffffffff167f6901da73a3480b0bbd7deb64f259ff29a76ce811c7a3e5cf495f0e1eb4fb4dfb60405160405180910390a250565b6009602052816000526040600020602052806000526040600020600091509150505481565b6000600460009054906101000a900473ffffffffffffffffffffffffffffffffffffffff1673ffffffffffffffffffffffffffffffffffffffff1663a5045a16846040518263ffffffff1660e01b8152600401611d4291906134ce565b60206040518083038186803b158015611d5a57600080fd5b505afa158015611d6e573d6000803e3d6000fd5b505050506040513d601f19601f82011682018060405250810190611d9291906129bf565b9050600073ffffffffffffffffffffffffffffffffffffffff168173ffffffffffffffffffffffffffffffffffffffff161415611e04576040517f08c379a0000000000000000000000000000000000000000000000000000000008152600401611dfb9061332e565b60405180910390fd5b600460009054906101000a900473ffffffffffffffffffffffffffffffffffffffff1673ffffffffffffffffffffffffffffffffffffffff16631b4ead45846040518263ffffffff1660e01b8152600401611e5f91906134ce565b60206040518083038186803b158015611e7757600080fd5b505afa158015611e8b573d6000803e3d6000fd5b505050506040513d601f19601f82011682018060405250810190611eaf9190612a24565b611eee576040517f08c379a0000000000000000000000000000000000000000000000000000000008152600401611ee5906133ae565b60405180910390fd5b60008190506000600460009054906101000a900473ffffffffffffffffffffffffffffffffffffffff1673ffffffffffffffffffffffffffffffffffffffff16639d0214cb866040518263ffffffff1660e01b8152600401611f5091906134ce565b60206040518083038186803b158015611f6857600080fd5b505afa158015611f7c573d6000803e3d6000fd5b505050506040513d601f19601f82011682018060405250810190611fa091906129bf565b90503373ffffffffffffffffffffffffffffffffffffffff168173ffffffffffffffffffffffffffffffffffffffff16636352211e866040518263ffffffff1660e01b8152600401611ff291906134ce565b60206040518083038186803b15801561200a57600080fd5b505afa15801561201e573d6000803e3d6000fd5b505050506040513d601f19601f8201168201806040525081019061204291906129bf565b73ffffffffffffffffffffffffffffffffffffffff1614612098576040517f08c379a000000000000000000000000000000000000000000000000000000000815260040161208f9061338e565b60405180910390fd5b60028173ffffffffffffffffffffffffffffffffffffffff1663989981d7866040518263ffffffff1660e01b81526004016120d391906134ce565b60206040518083038186803b1580156120eb57600080fd5b505afa1580156120ff573d6000803e3d6000fd5b505050506040513d601f19601f820116820180604052508101906121239190612c54565b60ff161115612167576040517f08c379a000000000000000000000000000000000000000000000000000000000815260040161215e9061340e565b60405180910390fd5b6000670de0b6b3a76400008273ffffffffffffffffffffffffffffffffffffffff16639ab8ee15876040518263ffffffff1660e01b81526004016121ab91906134ce565b60206040518083038186803b1580156121c357600080fd5b505afa1580156121d7573d6000803e3d6000fd5b505050506040513d601f19601f820116820180604052508101906121fb9190612a76565b612205919061363f565b905060008273ffffffffffffffffffffffffffffffffffffffff166396f53711670de0b6b3a764000088612239919061363f565b6040518263ffffffff1660e01b815260040161225591906134ce565b60206040518083038186803b15801561226d57600080fd5b505afa158015612281573d6000803e3d6000fd5b505050506040513d601f19601f820116820180604052508101906122a59190612a76565b9050600082116122ea576040517f08c379a00000000000000000000000000000000000000000000000000000000081526004016122e19061326e565b60405180910390fd5b818473ffffffffffffffffffffffffffffffffffffffff166370a08231306040518263ffffffff1660e01b815260040161232491906131f3565b60206040518083038186803b15801561233c57600080fd5b505afa158015612350573d6000803e3d6000fd5b505050506040513d601f19601f820116820180604052508101906123749190612a76565b10156123b5576040517f08c379a00000000000000000000000000000000000000000000000000000000081526004016123ac9061334e565b60405180910390fd5b80600560009054906101000a900473ffffffffffffffffffffffffffffffffffffffff1673ffffffffffffffffffffffffffffffffffffffff166370a08231306040518263ffffffff1660e01b815260040161241191906131f3565b60206040518083038186803b15801561242957600080fd5b505afa15801561243d573d6000803e3d6000fd5b505050506040513d601f19601f820116820180604052508101906124619190612a76565b10156124a2576040517f08c379a0000000000000000000000000000000000000000000000000000000008152600401612499906134ae565b60405180910390fd5b8273ffffffffffffffffffffffffffffffffffffffff166342966c68876040518263ffffffff1660e01b81526004016124db91906134ce565b600060405180830381600087803b1580156124f557600080fd5b505af1158015612509573d6000803e3d6000fd5b505050508373ffffffffffffffffffffffffffffffffffffffff166323b872dd3033856040518463ffffffff1660e01b815260040161254a9392919061320e565b602060405180830381600087803b15801561256457600080fd5b505af1158015612578573d6000803e3d6000fd5b505050506040513d601f19601f8201168201806040525081019061259c9190612a24565b50600560009054906101000a900473ffffffffffffffffffffffffffffffffffffffff1673ffffffffffffffffffffffffffffffffffffffff16636aade28830836040518363ffffffff1660e01b81526004016125fa929190613245565b602060405180830381600087803b15801561261457600080fd5b505af1158015612628573d6000803e3d6000fd5b505050506040513d601f19601f8201168201806040525081019061264c9190612a24565b5085600460009054906101000a900473ffffffffffffffffffffffffffffffffffffffff1673ffffffffffffffffffffffffffffffffffffffff16639d0214cb896040518263ffffffff1660e01b81526004016126a991906134ce565b60206040518083038186803b1580156126c157600080fd5b505afa1580156126d5573d6000803e3d6000fd5b505050506040513d601f19601f820116820180604052508101906126f991906129bf565b73ffffffffffffffffffffffffffffffffffffffff16887f0f4900e98e66735cb9b522e25d2c98dd16c986ede7f115c66053e8a8cbeb42573389876040516127439392919061320e565b60405180910390a450505050505050565b61275c61284c565b73ffffffffffffffffffffffffffffffffffffffff1661277a611b24565b73ffffffffffffffffffffffffffffffffffffffff16146127d0576040517f08c379a00000000000000000000000000000000000000000000000000000000081526004016127c79061336e565b60405180910390fd5b600073ffffffffffffffffffffffffffffffffffffffff168173ffffffffffffffffffffffffffffffffffffffff161415612840576040517f08c379a00000000000000000000000000000000000000000000000000000000081526004016128379061328e565b60405180910390fd5b61284981612854565b50565b600033905090565b60008060009054906101000a900473ffffffffffffffffffffffffffffffffffffffff169050816000806101000a81548173ffffffffffffffffffffffffffffffffffffffff021916908373ffffffffffffffffffffffffffffffffffffffff1602179055508173ffffffffffffffffffffffffffffffffffffffff168173ffffffffffffffffffffffffffffffffffffffff167f8be0079c531659141344cd1fd0a4f28419497f9722a3daafe3b4186f6b6457e060405160405180910390a35050565b600081359050612927816137b1565b92915050565b60008151905061293c816137b1565b92915050565b600081519050612951816137c8565b92915050565b600081359050612966816137df565b92915050565b60008151905061297b816137df565b92915050565b600081519050612990816137f6565b92915050565b6000602082840312156129a857600080fd5b60006129b684828501612918565b91505092915050565b6000602082840312156129d157600080fd5b60006129df8482850161292d565b91505092915050565b600080604083850312156129fb57600080fd5b6000612a0985828601612918565b9250506020612a1a85828601612957565b9150509250929050565b600060208284031215612a3657600080fd5b6000612a4484828501612942565b91505092915050565b600060208284031215612a5f57600080fd5b6000612a6d84828501612957565b91505092915050565b600060208284031215612a8857600080fd5b6000612a968482850161296c565b91505092915050565b60008060408385031215612ab257600080fd5b6000612ac085828601612957565b9250506020612ad185828601612918565b9150509250929050565b60008060408385031215612aee57600080fd5b6000612afc85828601612957565b9250506020612b0d85828601612957565b9150509250929050565b60008060408385031215612b2a57600080fd5b6000612b388582860161296c565b9250506020612b498582860161296c565b9150509250929050565b60008060008060808587031215612b6957600080fd5b6000612b7787828801612957565b9450506020612b8887828801612957565b9350506040612b9987828801612918565b9250506060612baa87828801612957565b91505092959194509250565b600080600080600080600060e0888a031215612bd157600080fd5b6000612bdf8a828b01612957565b9750506020612bf08a828b01612957565b9650506040612c018a828b01612957565b9550506060612c128a828b01612957565b9450506080612c238a828b01612957565b93505060a0612c348a828b01612957565b92505060c0612c458a828b01612918565b91505092959891949750929550565b600060208284031215612c6657600080fd5b6000612c7484828501612981565b91505092915050565b612c86816136fe565b82525050565b6000612c99601f836135d8565b91507f4c69676874686f7573653a204e46545f5a45524f5f414c4c4f434154494f4e006000830152602082019050919050565b6000612cd96026836135d8565b91507f4f776e61626c653a206e6577206f776e657220697320746865207a65726f206160008301527f64647265737300000000000000000000000000000000000000000000000000006020830152604082019050919050565b6000612d3f601f836135d8565b91507f4c69676874686f7573653a204e4f5f41554354494f4e5f454e445f54494d45006000830152602082019050919050565b6000612d7f601e836135d8565b91507f4c69676874686f7573653a204e4f545f454e4f5547485f42414c414e434500006000830152602082019050919050565b6000612dbf601b836135d8565b91507f4c69676874686f7573653a20414c52454144595f5354415254454400000000006000830152602082019050919050565b6000612dff601d836135d8565b91507f4c69676874686f7573653a204e4f5f5354414b45525f414444524553530000006000830152602082019050919050565b6000612e3f6012836135d8565b91507f4c69676874686f7573653a204e4f5f50434300000000000000000000000000006000830152602082019050919050565b6000612e7f601a836135d8565b91507f4c69676874686f7573653a204e4f545f454e4f5547485f5043430000000000006000830152602082019050919050565b6000612ebf6020836135d8565b91507f4f776e61626c653a2063616c6c6572206973206e6f7420746865206f776e65726000830152602082019050919050565b6000612eff6019836135d8565b91507f4c69676874686f7573653a204e4f545f4e46545f4f574e4552000000000000006000830152602082019050919050565b6000612f3f602a836135d8565b91507f4c69676874686f7573653a20414c4c4f434154494f4e5f4e4f545f494e49544960008301527f414c495a45445f594554000000000000000000000000000000000000000000006020830152604082019050919050565b6000612fa56017836135d8565b91507f4c69676874686f7573653a20494e56414c49445f5043430000000000000000006000830152602082019050919050565b6000612fe56021836135d8565b91507f4c69676874686f7573653a204e46545f5a45524f5f434f4d50454e534154494f60008301527f4e000000000000000000000000000000000000000000000000000000000000006020830152604082019050919050565b600061304b601f836135d8565b91507f4c69676874686f7573653a20464f5242494444454e5f4d494e545f54595045006000830152602082019050919050565b600061308b6029836135d8565b91507f4c69676874686f7573653a2053544152545f54494d455f4245464f52455f415560008301527f4354494f4e5f454e4400000000000000000000000000000000000000000000006020830152604082019050919050565b60006130f16015836135d8565b91507f4c69676874686f7573653a20464f5242494444454e00000000000000000000006000830152602082019050919050565b6000613131601a836135d8565b91507f4c69676874686f7573653a205a45524f5f504152414d455445520000000000006000830152602082019050919050565b60006131716018836135d8565b91507f4c69676874686f7573653a205a45524f5f4144445245535300000000000000006000830152602082019050919050565b60006131b1601d836135d8565b91507f4c69676874686f7573653a204e4f545f454e4f5547485f43524f574e530000006000830152602082019050919050565b6131ed8161373c565b82525050565b60006020820190506132086000830184612c7d565b92915050565b60006060820190506132236000830186612c7d565b6132306020830185612c7d565b61323d60408301846131e4565b949350505050565b600060408201905061325a6000830185612c7d565b61326760208301846131e4565b9392505050565b6000602082019050818103600083015261328781612c8c565b9050919050565b600060208201905081810360008301526132a781612ccc565b9050919050565b600060208201905081810360008301526132c781612d32565b9050919050565b600060208201905081810360008301526132e781612d72565b9050919050565b6000602082019050818103600083015261330781612db2565b9050919050565b6000602082019050818103600083015261332781612df2565b9050919050565b6000602082019050818103600083015261334781612e32565b9050919050565b6000602082019050818103600083015261336781612e72565b9050919050565b6000602082019050818103600083015261338781612eb2565b9050919050565b600060208201905081810360008301526133a781612ef2565b9050919050565b600060208201905081810360008301526133c781612f32565b9050919050565b600060208201905081810360008301526133e781612f98565b9050919050565b6000602082019050818103600083015261340781612fd8565b9050919050565b600060208201905081810360008301526134278161303e565b9050919050565b600060208201905081810360008301526134478161307e565b9050919050565b60006020820190508181036000830152613467816130e4565b9050919050565b6000602082019050818103600083015261348781613124565b9050919050565b600060208201905081810360008301526134a781613164565b9050919050565b600060208201905081810360008301526134c7816131a4565b9050919050565b60006020820190506134e360008301846131e4565b92915050565b600060a0820190506134fe60008301886131e4565b61350b60208301876131e4565b61351860408301866131e4565b61352560608301856131e4565b61353260808301846131e4565b9695505050505050565b600061014082019050613552600083018d6131e4565b61355f602083018c6131e4565b61356c604083018b6131e4565b613579606083018a6131e4565b61358660808301896131e4565b61359360a08301886131e4565b6135a060c08301876131e4565b6135ad60e0830186612c7d565b6135bb610100830185612c7d565b6135c96101208301846131e4565b9b9a5050505050505050505050565b600082825260208201905092915050565b60006135f48261373c565b91506135ff8361373c565b9250827fffffffffffffffffffffffffffffffffffffffffffffffffffffffffffffffff0382111561363457613633613753565b5b828201905092915050565b600061364a8261373c565b91506136558361373c565b92508261366557613664613782565b5b828204905092915050565b600061367b8261373c565b91506136868361373c565b9250817fffffffffffffffffffffffffffffffffffffffffffffffffffffffffffffffff04831182151516156136bf576136be613753565b5b828202905092915050565b60006136d58261373c565b91506136e08361373c565b9250828210156136f3576136f2613753565b5b828203905092915050565b60006137098261371c565b9050919050565b60008115159050919050565b600073ffffffffffffffffffffffffffffffffffffffff82169050919050565b6000819050919050565b600060ff82169050919050565b7f4e487b7100000000000000000000000000000000000000000000000000000000600052601160045260246000fd5b7f4e487b7100000000000000000000000000000000000000000000000000000000600052601260045260246000fd5b6137ba816136fe565b81146137c557600080fd5b50565b6137d181613710565b81146137dc57600080fd5b50565b6137e88161373c565b81146137f357600080fd5b50565b6137ff81613746565b811461380a57600080fd5b5056fea2646970667358221220f2d87245a310536e2eca2611f52670a4137f315201dd2bdd64fc00ce9fa45e1164736f6c63430008000033",
  "linkReferences": {},
  "deployedLinkReferences": {}
}