{
  "_format": "hh-sol-artifact-1",
  "contractName": "LighthouseBurn",
  "sourceName": "contracts/LighthouseBurn.sol",
  "abi": [
    {
      "inputs": [
        {
          "internalType": "address",
          "name": "_lighthouseAuction",
          "type": "address"
        },
        {
          "internalType": "address",
          "name": "_lighthousePrefund",
          "type": "address"
        },
        {
          "internalType": "address",
          "name": "_lighthouseTier",
          "type": "address"
        },
        {
          "internalType": "address",
          "name": "_crowns",
          "type": "address"
        },
        {
          "internalType": "address",
          "name": "_project",
          "type": "address"
        }
      ],
      "stateMutability": "nonpayable",
      "type": "constructor"
    },
    {
      "anonymous": false,
      "inputs": [
        {
          "indexed": true,
          "internalType": "uint256",
          "name": "projectId",
          "type": "uint256"
        },
        {
          "indexed": true,
          "internalType": "address",
          "name": "lighthouse",
          "type": "address"
        },
        {
          "indexed": true,
          "internalType": "uint256",
          "name": "nftId",
          "type": "uint256"
        },
        {
          "indexed": false,
          "internalType": "address",
          "name": "owner",
          "type": "address"
        },
        {
          "indexed": false,
          "internalType": "uint256",
          "name": "compensation",
          "type": "uint256"
        }
      ],
      "name": "BurnForCWS",
      "type": "event"
    },
    {
      "anonymous": false,
      "inputs": [
        {
          "indexed": true,
          "internalType": "uint256",
          "name": "projectId",
          "type": "uint256"
        },
        {
          "indexed": true,
          "internalType": "address",
          "name": "lighthouse",
          "type": "address"
        },
        {
          "indexed": true,
          "internalType": "uint256",
          "name": "nftId",
          "type": "uint256"
        },
        {
          "indexed": false,
          "internalType": "address",
          "name": "owner",
          "type": "address"
        },
        {
          "indexed": false,
          "internalType": "address",
          "name": "pcc",
          "type": "address"
        },
        {
          "indexed": false,
          "internalType": "uint256",
          "name": "allocation",
          "type": "uint256"
        }
      ],
      "name": "BurnForPCC",
      "type": "event"
    },
    {
      "anonymous": false,
      "inputs": [
        {
          "indexed": true,
          "internalType": "address",
          "name": "previousOwner",
          "type": "address"
        },
        {
          "indexed": true,
          "internalType": "address",
          "name": "newOwner",
          "type": "address"
        }
      ],
      "name": "OwnershipTransferred",
      "type": "event"
    },
    {
      "anonymous": false,
      "inputs": [
        {
          "indexed": true,
          "internalType": "address",
          "name": "staker",
          "type": "address"
        }
      ],
      "name": "SetStaker",
      "type": "event"
    },
    {
      "inputs": [
        {
          "internalType": "uint256",
          "name": "projectId",
          "type": "uint256"
        },
        {
          "internalType": "uint256",
          "name": "nftId",
          "type": "uint256"
        }
      ],
      "name": "burnForCws",
      "outputs": [],
      "stateMutability": "nonpayable",
      "type": "function"
    },
    {
      "inputs": [
        {
          "internalType": "uint256",
          "name": "projectId",
          "type": "uint256"
        },
        {
          "internalType": "uint256",
          "name": "nftId",
          "type": "uint256"
        }
      ],
      "name": "burnForPcc",
      "outputs": [],
      "stateMutability": "nonpayable",
      "type": "function"
    },
    {
      "inputs": [
        {
          "internalType": "uint256",
          "name": "projectId",
          "type": "uint256"
        },
        {
          "internalType": "uint256",
          "name": "anotherProjectId",
          "type": "uint256"
        },
        {
          "internalType": "address",
          "name": "nftAddress",
          "type": "address"
        },
        {
          "internalType": "uint256",
          "name": "nftId",
          "type": "uint256"
        }
      ],
      "name": "burnForProject",
      "outputs": [],
      "stateMutability": "nonpayable",
      "type": "function"
    },
    {
      "inputs": [
        {
          "internalType": "uint256",
          "name": "",
          "type": "uint256"
        },
        {
          "internalType": "address",
          "name": "",
          "type": "address"
        }
      ],
      "name": "mintedNfts",
      "outputs": [
        {
          "internalType": "uint256",
          "name": "",
          "type": "uint256"
        }
      ],
      "stateMutability": "view",
      "type": "function"
    },
    {
      "inputs": [],
      "name": "owner",
      "outputs": [
        {
          "internalType": "address",
          "name": "",
          "type": "address"
        }
      ],
      "stateMutability": "view",
      "type": "function"
    },
    {
      "inputs": [],
      "name": "renounceOwnership",
      "outputs": [],
      "stateMutability": "nonpayable",
      "type": "function"
    },
    {
      "inputs": [
        {
          "internalType": "address",
          "name": "_staker",
          "type": "address"
        }
      ],
      "name": "setStaker",
      "outputs": [],
      "stateMutability": "nonpayable",
      "type": "function"
    },
    {
      "inputs": [
        {
          "internalType": "address",
          "name": "",
          "type": "address"
        }
      ],
      "name": "stakeReserves",
      "outputs": [
        {
          "internalType": "uint256",
          "name": "",
          "type": "uint256"
        }
      ],
      "stateMutability": "view",
      "type": "function"
    },
    {
      "inputs": [],
      "name": "staker",
      "outputs": [
        {
          "internalType": "address",
          "name": "",
          "type": "address"
        }
      ],
      "stateMutability": "view",
      "type": "function"
    },
    {
      "inputs": [
        {
          "internalType": "address",
          "name": "pccAddress",
          "type": "address"
        }
      ],
      "name": "transferMaxReserve",
      "outputs": [],
      "stateMutability": "nonpayable",
      "type": "function"
    },
    {
      "inputs": [
        {
          "internalType": "address",
          "name": "newOwner",
          "type": "address"
        }
      ],
      "name": "transferOwnership",
      "outputs": [],
      "stateMutability": "nonpayable",
      "type": "function"
    },
    {
      "inputs": [
        {
          "internalType": "address",
          "name": "pccAddress",
          "type": "address"
        },
        {
          "internalType": "uint256",
          "name": "amount",
          "type": "uint256"
        }
      ],
      "name": "transferStakeReserve",
      "outputs": [],
      "stateMutability": "nonpayable",
      "type": "function"
    }
  ],
  "bytecode": "0x60806040523480156200001157600080fd5b50604051620033a5380380620033a58339818101604052810190620000379190620003e5565b620000576200004b6200030260201b60201c565b6200030a60201b60201c565b600073ffffffffffffffffffffffffffffffffffffffff168573ffffffffffffffffffffffffffffffffffffffff1614158015620000c25750600073ffffffffffffffffffffffffffffffffffffffff168273ffffffffffffffffffffffffffffffffffffffff1614155b8015620000fc5750600073ffffffffffffffffffffffffffffffffffffffff168473ffffffffffffffffffffffffffffffffffffffff1614155b8015620001365750600073ffffffffffffffffffffffffffffffffffffffff168373ffffffffffffffffffffffffffffffffffffffff1614155b8015620001705750600073ffffffffffffffffffffffffffffffffffffffff168173ffffffffffffffffffffffffffffffffffffffff1614155b620001b2576040517f08c379a0000000000000000000000000000000000000000000000000000000008152600401620001a990620004a9565b60405180910390fd5b84600160006101000a81548173ffffffffffffffffffffffffffffffffffffffff021916908373ffffffffffffffffffffffffffffffffffffffff16021790555083600260006101000a81548173ffffffffffffffffffffffffffffffffffffffff021916908373ffffffffffffffffffffffffffffffffffffffff16021790555082600360006101000a81548173ffffffffffffffffffffffffffffffffffffffff021916908373ffffffffffffffffffffffffffffffffffffffff16021790555080600460006101000a81548173ffffffffffffffffffffffffffffffffffffffff021916908373ffffffffffffffffffffffffffffffffffffffff16021790555081600560006101000a81548173ffffffffffffffffffffffffffffffffffffffff021916908373ffffffffffffffffffffffffffffffffffffffff16021790555050505050506200052a565b600033905090565b60008060009054906101000a900473ffffffffffffffffffffffffffffffffffffffff169050816000806101000a81548173ffffffffffffffffffffffffffffffffffffffff021916908373ffffffffffffffffffffffffffffffffffffffff1602179055508173ffffffffffffffffffffffffffffffffffffffff168173ffffffffffffffffffffffffffffffffffffffff167f8be0079c531659141344cd1fd0a4f28419497f9722a3daafe3b4186f6b6457e060405160405180910390a35050565b600081519050620003df8162000510565b92915050565b600080600080600060a08688031215620003fe57600080fd5b60006200040e88828901620003ce565b95505060206200042188828901620003ce565b94505060406200043488828901620003ce565b93505060606200044788828901620003ce565b92505060806200045a88828901620003ce565b9150509295509295909350565b600062000476601883620004cb565b91507f4c69676874686f7573653a205a45524f5f4144445245535300000000000000006000830152602082019050919050565b60006020820190508181036000830152620004c48162000467565b9050919050565b600082825260208201905092915050565b6000620004e982620004f0565b9050919050565b600073ffffffffffffffffffffffffffffffffffffffff82169050919050565b6200051b81620004dc565b81146200052757600080fd5b50565b612e6b806200053a6000396000f3fe608060405234801561001057600080fd5b50600436106100b45760003560e01c806385d044661161007157806385d04466146101655780638da5cb5b14610181578063a29a43bb1461019f578063da8e78fd146101bb578063e1259a87146101eb578063f2fde38b14610207576100b4565b8063442ceeb9146100b95780635742b466146100e95780635ebaf1db146101055780636431941a14610123578063696bd13d1461013f578063715018a61461015b575b600080fd5b6100d360048036038101906100ce9190612350565b610223565b6040516100e09190612c3f565b60405180910390f35b61010360048036038101906100fe9190612350565b61023b565b005b61010d610594565b60405161011a91906129c4565b60405180910390f35b61013d600480360381019061013891906123a2565b6105ba565b005b610159600480360381019061015491906124a8565b6109e3565b005b6101636109e9565b005b61017f600480360381019061017a919061246c565b610a71565b005b6101896114de565b60405161019691906129c4565b60405180910390f35b6101b960048036038101906101b49190612350565b611507565b005b6101d560048036038101906101d09190612430565b61167a565b6040516101e29190612c3f565b60405180910390f35b6102056004803603810190610200919061246c565b61169f565b005b610221600480360381019061021c9190612350565b61210e565b005b60066020528060005260406000206000915090505481565b600073ffffffffffffffffffffffffffffffffffffffff168173ffffffffffffffffffffffffffffffffffffffff16141580156102c75750600073ffffffffffffffffffffffffffffffffffffffff16600760009054906101000a900473ffffffffffffffffffffffffffffffffffffffff1673ffffffffffffffffffffffffffffffffffffffff1614155b610306576040517f08c379a00000000000000000000000000000000000000000000000000000000081526004016102fd90612a9f565b60405180910390fd5b61030e6114de565b73ffffffffffffffffffffffffffffffffffffffff163373ffffffffffffffffffffffffffffffffffffffff1614806103945750600760009054906101000a900473ffffffffffffffffffffffffffffffffffffffff1673ffffffffffffffffffffffffffffffffffffffff163373ffffffffffffffffffffffffffffffffffffffff16145b6103d3576040517f08c379a00000000000000000000000000000000000000000000000000000000081526004016103ca90612bbf565b60405180910390fd5b6000600660008373ffffffffffffffffffffffffffffffffffffffff1673ffffffffffffffffffffffffffffffffffffffff1681526020019081526020016000205411610455576040517f08c379a000000000000000000000000000000000000000000000000000000000815260040161044c90612b5f565b60405180910390fd5b60008190508073ffffffffffffffffffffffffffffffffffffffff166323b872dd30600760009054906101000a900473ffffffffffffffffffffffffffffffffffffffff16600660008773ffffffffffffffffffffffffffffffffffffffff1673ffffffffffffffffffffffffffffffffffffffff168152602001908152602001600020546040518463ffffffff1660e01b81526004016104f8939291906129df565b602060405180830381600087803b15801561051257600080fd5b505af1158015610526573d6000803e3d6000fd5b505050506040513d601f19601f8201168201806040525081019061054a91906123de565b506000600660008473ffffffffffffffffffffffffffffffffffffffff1673ffffffffffffffffffffffffffffffffffffffff168152602001908152602001600020819055505050565b600760009054906101000a900473ffffffffffffffffffffffffffffffffffffffff1681565b600081116105fd576040517f08c379a00000000000000000000000000000000000000000000000000000000081526004016105f490612bdf565b60405180910390fd5b600073ffffffffffffffffffffffffffffffffffffffff168273ffffffffffffffffffffffffffffffffffffffff16141580156106895750600073ffffffffffffffffffffffffffffffffffffffff16600760009054906101000a900473ffffffffffffffffffffffffffffffffffffffff1673ffffffffffffffffffffffffffffffffffffffff1614155b6106c8576040517f08c379a00000000000000000000000000000000000000000000000000000000081526004016106bf90612a9f565b60405180910390fd5b6106d06114de565b73ffffffffffffffffffffffffffffffffffffffff163373ffffffffffffffffffffffffffffffffffffffff1614806107565750600760009054906101000a900473ffffffffffffffffffffffffffffffffffffffff1673ffffffffffffffffffffffffffffffffffffffff163373ffffffffffffffffffffffffffffffffffffffff16145b610795576040517f08c379a000000000000000000000000000000000000000000000000000000000815260040161078c90612bbf565b60405180910390fd5b6000600660008473ffffffffffffffffffffffffffffffffffffffff1673ffffffffffffffffffffffffffffffffffffffff1681526020019081526020016000205411610817576040517f08c379a000000000000000000000000000000000000000000000000000000000815260040161080e90612b5f565b60405180910390fd5b80600660008473ffffffffffffffffffffffffffffffffffffffff1673ffffffffffffffffffffffffffffffffffffffff168152602001908152602001600020541015610899576040517f08c379a000000000000000000000000000000000000000000000000000000000815260040161089090612a7f565b60405180910390fd5b60008290508073ffffffffffffffffffffffffffffffffffffffff166323b872dd30600760009054906101000a900473ffffffffffffffffffffffffffffffffffffffff16856040518463ffffffff1660e01b81526004016108fd939291906129df565b602060405180830381600087803b15801561091757600080fd5b505af115801561092b573d6000803e3d6000fd5b505050506040513d601f19601f8201168201806040525081019061094f91906123de565b5081600660008573ffffffffffffffffffffffffffffffffffffffff1673ffffffffffffffffffffffffffffffffffffffff1681526020019081526020016000205461099b9190612cf2565b600660008573ffffffffffffffffffffffffffffffffffffffff1673ffffffffffffffffffffffffffffffffffffffff16815260200190815260200160002081905550505050565b50505050565b6109f1612206565b73ffffffffffffffffffffffffffffffffffffffff16610a0f6114de565b73ffffffffffffffffffffffffffffffffffffffff1614610a65576040517f08c379a0000000000000000000000000000000000000000000000000000000008152600401610a5c90612aff565b60405180910390fd5b610a6f600061220e565b565b6000600460009054906101000a900473ffffffffffffffffffffffffffffffffffffffff1673ffffffffffffffffffffffffffffffffffffffff1663a5045a16846040518263ffffffff1660e01b8152600401610ace9190612c3f565b60206040518083038186803b158015610ae657600080fd5b505afa158015610afa573d6000803e3d6000fd5b505050506040513d601f19601f82011682018060405250810190610b1e9190612379565b9050600073ffffffffffffffffffffffffffffffffffffffff168173ffffffffffffffffffffffffffffffffffffffff161415610b90576040517f08c379a0000000000000000000000000000000000000000000000000000000008152600401610b8790612abf565b60405180910390fd5b600460009054906101000a900473ffffffffffffffffffffffffffffffffffffffff1673ffffffffffffffffffffffffffffffffffffffff16631b4ead45846040518263ffffffff1660e01b8152600401610beb9190612c3f565b60206040518083038186803b158015610c0357600080fd5b505afa158015610c17573d6000803e3d6000fd5b505050506040513d601f19601f82011682018060405250810190610c3b91906123de565b610c7a576040517f08c379a0000000000000000000000000000000000000000000000000000000008152600401610c7190612b3f565b60405180910390fd5b60008190506000600460009054906101000a900473ffffffffffffffffffffffffffffffffffffffff1673ffffffffffffffffffffffffffffffffffffffff16639d0214cb866040518263ffffffff1660e01b8152600401610cdc9190612c3f565b60206040518083038186803b158015610cf457600080fd5b505afa158015610d08573d6000803e3d6000fd5b505050506040513d601f19601f82011682018060405250810190610d2c9190612379565b90503373ffffffffffffffffffffffffffffffffffffffff168173ffffffffffffffffffffffffffffffffffffffff16636352211e866040518263ffffffff1660e01b8152600401610d7e9190612c3f565b60206040518083038186803b158015610d9657600080fd5b505afa158015610daa573d6000803e3d6000fd5b505050506040513d601f19601f82011682018060405250810190610dce9190612379565b73ffffffffffffffffffffffffffffffffffffffff1614610e24576040517f08c379a0000000000000000000000000000000000000000000000000000000008152600401610e1b90612b1f565b60405180910390fd5b60028173ffffffffffffffffffffffffffffffffffffffff1663989981d7866040518263ffffffff1660e01b8152600401610e5f9190612c3f565b60206040518083038186803b158015610e7757600080fd5b505afa158015610e8b573d6000803e3d6000fd5b505050506040513d601f19601f82011682018060405250810190610eaf919061250b565b60ff161115610ef3576040517f08c379a0000000000000000000000000000000000000000000000000000000008152600401610eea90612b9f565b60405180910390fd5b6000670de0b6b3a76400008273ffffffffffffffffffffffffffffffffffffffff16639ab8ee15876040518263ffffffff1660e01b8152600401610f379190612c3f565b60206040518083038186803b158015610f4f57600080fd5b505afa158015610f63573d6000803e3d6000fd5b505050506040513d601f19601f82011682018060405250810190610f879190612407565b610f919190612cc1565b90506000670de0b6b3a76400008373ffffffffffffffffffffffffffffffffffffffff166396f53711886040518263ffffffff1660e01b8152600401610fd79190612c3f565b60206040518083038186803b158015610fef57600080fd5b505afa158015611003573d6000803e3d6000fd5b505050506040513d601f19601f820116820180604052508101906110279190612407565b6110319190612cc1565b905060008111611076576040517f08c379a000000000000000000000000000000000000000000000000000000000815260040161106d90612b7f565b60405180910390fd5b818473ffffffffffffffffffffffffffffffffffffffff166370a08231306040518263ffffffff1660e01b81526004016110b091906129c4565b60206040518083038186803b1580156110c857600080fd5b505afa1580156110dc573d6000803e3d6000fd5b505050506040513d601f19601f820116820180604052508101906111009190612407565b1015611141576040517f08c379a000000000000000000000000000000000000000000000000000000000815260040161113890612adf565b60405180910390fd5b80600560009054906101000a900473ffffffffffffffffffffffffffffffffffffffff1673ffffffffffffffffffffffffffffffffffffffff166370a08231306040518263ffffffff1660e01b815260040161119d91906129c4565b60206040518083038186803b1580156111b557600080fd5b505afa1580156111c9573d6000803e3d6000fd5b505050506040513d601f19601f820116820180604052508101906111ed9190612407565b101561122e576040517f08c379a000000000000000000000000000000000000000000000000000000000815260040161122590612c1f565b60405180910390fd5b8273ffffffffffffffffffffffffffffffffffffffff166342966c68876040518263ffffffff1660e01b81526004016112679190612c3f565b600060405180830381600087803b15801561128157600080fd5b505af1158015611295573d6000803e3d6000fd5b50505050600560009054906101000a900473ffffffffffffffffffffffffffffffffffffffff1673ffffffffffffffffffffffffffffffffffffffff166323b872dd3033846040518463ffffffff1660e01b81526004016112f8939291906129df565b602060405180830381600087803b15801561131257600080fd5b505af1158015611326573d6000803e3d6000fd5b505050506040513d601f19601f8201168201806040525081019061134a91906123de565b5081600660008773ffffffffffffffffffffffffffffffffffffffff1673ffffffffffffffffffffffffffffffffffffffff168152602001908152602001600020546113969190612c6b565b600660008773ffffffffffffffffffffffffffffffffffffffff1673ffffffffffffffffffffffffffffffffffffffff1681526020019081526020016000208190555085600460009054906101000a900473ffffffffffffffffffffffffffffffffffffffff1673ffffffffffffffffffffffffffffffffffffffff16639d0214cb896040518263ffffffff1660e01b81526004016114359190612c3f565b60206040518083038186803b15801561144d57600080fd5b505afa158015611461573d6000803e3d6000fd5b505050506040513d601f19601f820116820180604052508101906114859190612379565b73ffffffffffffffffffffffffffffffffffffffff16887f2b038598b04ca541b8ff17444794028d8f2a5b72689a4a7331638cfd01368daa33856040516114cd929190612a16565b60405180910390a450505050505050565b60008060009054906101000a900473ffffffffffffffffffffffffffffffffffffffff16905090565b61150f612206565b73ffffffffffffffffffffffffffffffffffffffff1661152d6114de565b73ffffffffffffffffffffffffffffffffffffffff1614611583576040517f08c379a000000000000000000000000000000000000000000000000000000000815260040161157a90612aff565b60405180910390fd5b600073ffffffffffffffffffffffffffffffffffffffff168173ffffffffffffffffffffffffffffffffffffffff1614156115f3576040517f08c379a00000000000000000000000000000000000000000000000000000000081526004016115ea90612bff565b60405180910390fd5b80600760006101000a81548173ffffffffffffffffffffffffffffffffffffffff021916908373ffffffffffffffffffffffffffffffffffffffff1602179055508073ffffffffffffffffffffffffffffffffffffffff167f6901da73a3480b0bbd7deb64f259ff29a76ce811c7a3e5cf495f0e1eb4fb4dfb60405160405180910390a250565b6008602052816000526040600020602052806000526040600020600091509150505481565b6000600460009054906101000a900473ffffffffffffffffffffffffffffffffffffffff1673ffffffffffffffffffffffffffffffffffffffff1663a5045a16846040518263ffffffff1660e01b81526004016116fc9190612c3f565b60206040518083038186803b15801561171457600080fd5b505afa158015611728573d6000803e3d6000fd5b505050506040513d601f19601f8201168201806040525081019061174c9190612379565b9050600073ffffffffffffffffffffffffffffffffffffffff168173ffffffffffffffffffffffffffffffffffffffff1614156117be576040517f08c379a00000000000000000000000000000000000000000000000000000000081526004016117b590612abf565b60405180910390fd5b600460009054906101000a900473ffffffffffffffffffffffffffffffffffffffff1673ffffffffffffffffffffffffffffffffffffffff16631b4ead45846040518263ffffffff1660e01b81526004016118199190612c3f565b60206040518083038186803b15801561183157600080fd5b505afa158015611845573d6000803e3d6000fd5b505050506040513d601f19601f8201168201806040525081019061186991906123de565b6118a8576040517f08c379a000000000000000000000000000000000000000000000000000000000815260040161189f90612b3f565b60405180910390fd5b60008190506000600460009054906101000a900473ffffffffffffffffffffffffffffffffffffffff1673ffffffffffffffffffffffffffffffffffffffff16639d0214cb866040518263ffffffff1660e01b815260040161190a9190612c3f565b60206040518083038186803b15801561192257600080fd5b505afa158015611936573d6000803e3d6000fd5b505050506040513d601f19601f8201168201806040525081019061195a9190612379565b90503373ffffffffffffffffffffffffffffffffffffffff168173ffffffffffffffffffffffffffffffffffffffff16636352211e866040518263ffffffff1660e01b81526004016119ac9190612c3f565b60206040518083038186803b1580156119c457600080fd5b505afa1580156119d8573d6000803e3d6000fd5b505050506040513d601f19601f820116820180604052508101906119fc9190612379565b73ffffffffffffffffffffffffffffffffffffffff1614611a52576040517f08c379a0000000000000000000000000000000000000000000000000000000008152600401611a4990612b1f565b60405180910390fd5b60028173ffffffffffffffffffffffffffffffffffffffff1663989981d7866040518263ffffffff1660e01b8152600401611a8d9190612c3f565b60206040518083038186803b158015611aa557600080fd5b505afa158015611ab9573d6000803e3d6000fd5b505050506040513d601f19601f82011682018060405250810190611add919061250b565b60ff161115611b21576040517f08c379a0000000000000000000000000000000000000000000000000000000008152600401611b1890612b9f565b60405180910390fd5b6000670de0b6b3a76400008273ffffffffffffffffffffffffffffffffffffffff16639ab8ee15876040518263ffffffff1660e01b8152600401611b659190612c3f565b60206040518083038186803b158015611b7d57600080fd5b505afa158015611b91573d6000803e3d6000fd5b505050506040513d601f19601f82011682018060405250810190611bb59190612407565b611bbf9190612cc1565b905060008273ffffffffffffffffffffffffffffffffffffffff166396f53711670de0b6b3a764000088611bf39190612cc1565b6040518263ffffffff1660e01b8152600401611c0f9190612c3f565b60206040518083038186803b158015611c2757600080fd5b505afa158015611c3b573d6000803e3d6000fd5b505050506040513d601f19601f82011682018060405250810190611c5f9190612407565b905060008211611ca4576040517f08c379a0000000000000000000000000000000000000000000000000000000008152600401611c9b90612a3f565b60405180910390fd5b818473ffffffffffffffffffffffffffffffffffffffff166370a08231306040518263ffffffff1660e01b8152600401611cde91906129c4565b60206040518083038186803b158015611cf657600080fd5b505afa158015611d0a573d6000803e3d6000fd5b505050506040513d601f19601f82011682018060405250810190611d2e9190612407565b1015611d6f576040517f08c379a0000000000000000000000000000000000000000000000000000000008152600401611d6690612adf565b60405180910390fd5b80600560009054906101000a900473ffffffffffffffffffffffffffffffffffffffff1673ffffffffffffffffffffffffffffffffffffffff166370a08231306040518263ffffffff1660e01b8152600401611dcb91906129c4565b60206040518083038186803b158015611de357600080fd5b505afa158015611df7573d6000803e3d6000fd5b505050506040513d601f19601f82011682018060405250810190611e1b9190612407565b1015611e5c576040517f08c379a0000000000000000000000000000000000000000000000000000000008152600401611e5390612c1f565b60405180910390fd5b8273ffffffffffffffffffffffffffffffffffffffff166342966c68876040518263ffffffff1660e01b8152600401611e959190612c3f565b600060405180830381600087803b158015611eaf57600080fd5b505af1158015611ec3573d6000803e3d6000fd5b505050508373ffffffffffffffffffffffffffffffffffffffff166323b872dd3033856040518463ffffffff1660e01b8152600401611f04939291906129df565b602060405180830381600087803b158015611f1e57600080fd5b505af1158015611f32573d6000803e3d6000fd5b505050506040513d601f19601f82011682018060405250810190611f5691906123de565b50600560009054906101000a900473ffffffffffffffffffffffffffffffffffffffff1673ffffffffffffffffffffffffffffffffffffffff16636aade28830836040518363ffffffff1660e01b8152600401611fb4929190612a16565b602060405180830381600087803b158015611fce57600080fd5b505af1158015611fe2573d6000803e3d6000fd5b505050506040513d601f19601f8201168201806040525081019061200691906123de565b5085600460009054906101000a900473ffffffffffffffffffffffffffffffffffffffff1673ffffffffffffffffffffffffffffffffffffffff16639d0214cb896040518263ffffffff1660e01b81526004016120639190612c3f565b60206040518083038186803b15801561207b57600080fd5b505afa15801561208f573d6000803e3d6000fd5b505050506040513d601f19601f820116820180604052508101906120b39190612379565b73ffffffffffffffffffffffffffffffffffffffff16887f0f4900e98e66735cb9b522e25d2c98dd16c986ede7f115c66053e8a8cbeb42573389876040516120fd939291906129df565b60405180910390a450505050505050565b612116612206565b73ffffffffffffffffffffffffffffffffffffffff166121346114de565b73ffffffffffffffffffffffffffffffffffffffff161461218a576040517f08c379a000000000000000000000000000000000000000000000000000000000815260040161218190612aff565b60405180910390fd5b600073ffffffffffffffffffffffffffffffffffffffff168173ffffffffffffffffffffffffffffffffffffffff1614156121fa576040517f08c379a00000000000000000000000000000000000000000000000000000000081526004016121f190612a5f565b60405180910390fd5b6122038161220e565b50565b600033905090565b60008060009054906101000a900473ffffffffffffffffffffffffffffffffffffffff169050816000806101000a81548173ffffffffffffffffffffffffffffffffffffffff021916908373ffffffffffffffffffffffffffffffffffffffff1602179055508173ffffffffffffffffffffffffffffffffffffffff168173ffffffffffffffffffffffffffffffffffffffff167f8be0079c531659141344cd1fd0a4f28419497f9722a3daafe3b4186f6b6457e060405160405180910390a35050565b6000813590506122e181612dd9565b92915050565b6000815190506122f681612dd9565b92915050565b60008151905061230b81612df0565b92915050565b60008135905061232081612e07565b92915050565b60008151905061233581612e07565b92915050565b60008151905061234a81612e1e565b92915050565b60006020828403121561236257600080fd5b6000612370848285016122d2565b91505092915050565b60006020828403121561238b57600080fd5b6000612399848285016122e7565b91505092915050565b600080604083850312156123b557600080fd5b60006123c3858286016122d2565b92505060206123d485828601612311565b9150509250929050565b6000602082840312156123f057600080fd5b60006123fe848285016122fc565b91505092915050565b60006020828403121561241957600080fd5b600061242784828501612326565b91505092915050565b6000806040838503121561244357600080fd5b600061245185828601612311565b9250506020612462858286016122d2565b9150509250929050565b6000806040838503121561247f57600080fd5b600061248d85828601612311565b925050602061249e85828601612311565b9150509250929050565b600080600080608085870312156124be57600080fd5b60006124cc87828801612311565b94505060206124dd87828801612311565b93505060406124ee878288016122d2565b92505060606124ff87828801612311565b91505092959194509250565b60006020828403121561251d57600080fd5b600061252b8482850161233b565b91505092915050565b61253d81612d26565b82525050565b6000612550601f83612c5a565b91507f4c69676874686f7573653a204e46545f5a45524f5f414c4c4f434154494f4e006000830152602082019050919050565b6000612590602683612c5a565b91507f4f776e61626c653a206e6577206f776e657220697320746865207a65726f206160008301527f64647265737300000000000000000000000000000000000000000000000000006020830152604082019050919050565b60006125f6601e83612c5a565b91507f4c69676874686f7573653a204e4f545f454e4f5547485f42414c414e434500006000830152602082019050919050565b6000612636601d83612c5a565b91507f4c69676874686f7573653a204e4f5f5354414b45525f414444524553530000006000830152602082019050919050565b6000612676601283612c5a565b91507f4c69676874686f7573653a204e4f5f50434300000000000000000000000000006000830152602082019050919050565b60006126b6601a83612c5a565b91507f4c69676874686f7573653a204e4f545f454e4f5547485f5043430000000000006000830152602082019050919050565b60006126f6602083612c5a565b91507f4f776e61626c653a2063616c6c6572206973206e6f7420746865206f776e65726000830152602082019050919050565b6000612736601983612c5a565b91507f4c69676874686f7573653a204e4f545f4e46545f4f574e4552000000000000006000830152602082019050919050565b6000612776602a83612c5a565b91507f4c69676874686f7573653a20414c4c4f434154494f4e5f4e4f545f494e49544960008301527f414c495a45445f594554000000000000000000000000000000000000000000006020830152604082019050919050565b60006127dc601783612c5a565b91507f4c69676874686f7573653a20494e56414c49445f5043430000000000000000006000830152602082019050919050565b600061281c602183612c5a565b91507f4c69676874686f7573653a204e46545f5a45524f5f434f4d50454e534154494f60008301527f4e000000000000000000000000000000000000000000000000000000000000006020830152604082019050919050565b6000612882601f83612c5a565b91507f4c69676874686f7573653a20464f5242494444454e5f4d494e545f54595045006000830152602082019050919050565b60006128c2601583612c5a565b91507f4c69676874686f7573653a20464f5242494444454e00000000000000000000006000830152602082019050919050565b6000612902601a83612c5a565b91507f4c69676874686f7573653a205a45524f5f504152414d455445520000000000006000830152602082019050919050565b6000612942601883612c5a565b91507f4c69676874686f7573653a205a45524f5f4144445245535300000000000000006000830152602082019050919050565b6000612982601d83612c5a565b91507f4c69676874686f7573653a204e4f545f454e4f5547485f43524f574e530000006000830152602082019050919050565b6129be81612d64565b82525050565b60006020820190506129d96000830184612534565b92915050565b60006060820190506129f46000830186612534565b612a016020830185612534565b612a0e60408301846129b5565b949350505050565b6000604082019050612a2b6000830185612534565b612a3860208301846129b5565b9392505050565b60006020820190508181036000830152612a5881612543565b9050919050565b60006020820190508181036000830152612a7881612583565b9050919050565b60006020820190508181036000830152612a98816125e9565b9050919050565b60006020820190508181036000830152612ab881612629565b9050919050565b60006020820190508181036000830152612ad881612669565b9050919050565b60006020820190508181036000830152612af8816126a9565b9050919050565b60006020820190508181036000830152612b18816126e9565b9050919050565b60006020820190508181036000830152612b3881612729565b9050919050565b60006020820190508181036000830152612b5881612769565b9050919050565b60006020820190508181036000830152612b78816127cf565b9050919050565b60006020820190508181036000830152612b988161280f565b9050919050565b60006020820190508181036000830152612bb881612875565b9050919050565b60006020820190508181036000830152612bd8816128b5565b9050919050565b60006020820190508181036000830152612bf8816128f5565b9050919050565b60006020820190508181036000830152612c1881612935565b9050919050565b60006020820190508181036000830152612c3881612975565b9050919050565b6000602082019050612c5460008301846129b5565b92915050565b600082825260208201905092915050565b6000612c7682612d64565b9150612c8183612d64565b9250827fffffffffffffffffffffffffffffffffffffffffffffffffffffffffffffffff03821115612cb657612cb5612d7b565b5b828201905092915050565b6000612ccc82612d64565b9150612cd783612d64565b925082612ce757612ce6612daa565b5b828204905092915050565b6000612cfd82612d64565b9150612d0883612d64565b925082821015612d1b57612d1a612d7b565b5b828203905092915050565b6000612d3182612d44565b9050919050565b60008115159050919050565b600073ffffffffffffffffffffffffffffffffffffffff82169050919050565b6000819050919050565b600060ff82169050919050565b7f4e487b7100000000000000000000000000000000000000000000000000000000600052601160045260246000fd5b7f4e487b7100000000000000000000000000000000000000000000000000000000600052601260045260246000fd5b612de281612d26565b8114612ded57600080fd5b50565b612df981612d38565b8114612e0457600080fd5b50565b612e1081612d64565b8114612e1b57600080fd5b50565b612e2781612d6e565b8114612e3257600080fd5b5056fea2646970667358221220cb2f2f426c64109578a4717c2eade464a5b9b469956846a91cc4729c5163726d64736f6c63430008000033",
  "linkReferences": {},
  "deployedLinkReferences": {}
}