{
  "_format": "hh-sol-artifact-1",
  "contractName": "LighthouseBurn",
  "sourceName": "contracts/LighthouseBurn.sol",
  "abi": [
    {
      "inputs": [
        {
          "internalType": "address",
          "name": "_lighthouseAuction",
          "type": "address"
        },
        {
          "internalType": "address",
          "name": "_lighthousePrefund",
          "type": "address"
        },
        {
          "internalType": "address",
          "name": "_lighthouseTier",
          "type": "address"
        },
        {
          "internalType": "address",
          "name": "_crowns",
          "type": "address"
        },
        {
          "internalType": "address",
          "name": "_project",
          "type": "address"
        }
      ],
      "stateMutability": "nonpayable",
      "type": "constructor"
    },
    {
      "anonymous": false,
      "inputs": [
        {
          "indexed": true,
          "internalType": "uint256",
          "name": "projectId",
          "type": "uint256"
        },
        {
          "indexed": true,
          "internalType": "address",
          "name": "lighthouse",
          "type": "address"
        },
        {
          "indexed": true,
          "internalType": "uint256",
          "name": "nftId",
          "type": "uint256"
        },
        {
          "indexed": false,
          "internalType": "address",
          "name": "owner",
          "type": "address"
        },
        {
          "indexed": false,
          "internalType": "uint256",
          "name": "compensation",
          "type": "uint256"
        }
      ],
      "name": "BurnForCWS",
      "type": "event"
    },
    {
      "anonymous": false,
      "inputs": [
        {
          "indexed": true,
          "internalType": "uint256",
          "name": "projectId",
          "type": "uint256"
        },
        {
          "indexed": true,
          "internalType": "address",
          "name": "lighthouse",
          "type": "address"
        },
        {
          "indexed": true,
          "internalType": "uint256",
          "name": "nftId",
          "type": "uint256"
        },
        {
          "indexed": false,
          "internalType": "address",
          "name": "owner",
          "type": "address"
        },
        {
          "indexed": false,
          "internalType": "address",
          "name": "pcc",
          "type": "address"
        },
        {
          "indexed": false,
          "internalType": "uint256",
          "name": "allocation",
          "type": "uint256"
        }
      ],
      "name": "BurnForPCC",
      "type": "event"
    },
    {
      "anonymous": false,
      "inputs": [
        {
          "indexed": true,
          "internalType": "address",
          "name": "previousOwner",
          "type": "address"
        },
        {
          "indexed": true,
          "internalType": "address",
          "name": "newOwner",
          "type": "address"
        }
      ],
      "name": "OwnershipTransferred",
      "type": "event"
    },
    {
      "anonymous": false,
      "inputs": [
        {
          "indexed": true,
          "internalType": "address",
          "name": "staker",
          "type": "address"
        }
      ],
      "name": "SetStaker",
      "type": "event"
    },
    {
      "inputs": [
        {
          "internalType": "uint256",
          "name": "projectId",
          "type": "uint256"
        },
        {
          "internalType": "uint256",
          "name": "nftId",
          "type": "uint256"
        }
      ],
      "name": "burnForCws",
      "outputs": [],
      "stateMutability": "nonpayable",
      "type": "function"
    },
    {
      "inputs": [
        {
          "internalType": "uint256",
          "name": "projectId",
          "type": "uint256"
        },
        {
          "internalType": "uint256",
          "name": "nftId",
          "type": "uint256"
        }
      ],
      "name": "burnForPcc",
      "outputs": [],
      "stateMutability": "nonpayable",
      "type": "function"
    },
    {
      "inputs": [
        {
          "internalType": "uint256",
          "name": "",
          "type": "uint256"
        },
        {
          "internalType": "address",
          "name": "",
          "type": "address"
        }
      ],
      "name": "mintedNfts",
      "outputs": [
        {
          "internalType": "uint256",
          "name": "",
          "type": "uint256"
        }
      ],
      "stateMutability": "view",
      "type": "function"
    },
    {
      "inputs": [],
      "name": "owner",
      "outputs": [
        {
          "internalType": "address",
          "name": "",
          "type": "address"
        }
      ],
      "stateMutability": "view",
      "type": "function"
    },
    {
      "inputs": [],
      "name": "renounceOwnership",
      "outputs": [],
      "stateMutability": "nonpayable",
      "type": "function"
    },
    {
      "inputs": [
        {
          "internalType": "address",
          "name": "newTier",
          "type": "address"
        }
      ],
      "name": "setLighthouseTier",
      "outputs": [],
      "stateMutability": "nonpayable",
      "type": "function"
    },
    {
      "inputs": [
        {
          "internalType": "address",
          "name": "_staker",
          "type": "address"
        }
      ],
      "name": "setStaker",
      "outputs": [],
      "stateMutability": "nonpayable",
      "type": "function"
    },
    {
      "inputs": [
        {
          "internalType": "address",
          "name": "",
          "type": "address"
        }
      ],
      "name": "stakeReserves",
      "outputs": [
        {
          "internalType": "uint256",
          "name": "",
          "type": "uint256"
        }
      ],
      "stateMutability": "view",
      "type": "function"
    },
    {
      "inputs": [],
      "name": "staker",
      "outputs": [
        {
          "internalType": "address",
          "name": "",
          "type": "address"
        }
      ],
      "stateMutability": "view",
      "type": "function"
    },
    {
      "inputs": [
        {
          "internalType": "address",
          "name": "pccAddress",
          "type": "address"
        }
      ],
      "name": "transferMaxReserve",
      "outputs": [],
      "stateMutability": "nonpayable",
      "type": "function"
    },
    {
      "inputs": [
        {
          "internalType": "address",
          "name": "newOwner",
          "type": "address"
        }
      ],
      "name": "transferOwnership",
      "outputs": [],
      "stateMutability": "nonpayable",
      "type": "function"
    },
    {
      "inputs": [
        {
          "internalType": "address",
          "name": "pccAddress",
          "type": "address"
        },
        {
          "internalType": "uint256",
          "name": "amount",
          "type": "uint256"
        }
      ],
      "name": "transferStakeReserve",
      "outputs": [],
      "stateMutability": "nonpayable",
      "type": "function"
    }
  ],
  "bytecode": "0x60806040523480156200001157600080fd5b5060405162003569380380620035698339818101604052810190620000379190620003e5565b620000576200004b6200030260201b60201c565b6200030a60201b60201c565b600073ffffffffffffffffffffffffffffffffffffffff168573ffffffffffffffffffffffffffffffffffffffff1614158015620000c25750600073ffffffffffffffffffffffffffffffffffffffff168273ffffffffffffffffffffffffffffffffffffffff1614155b8015620000fc5750600073ffffffffffffffffffffffffffffffffffffffff168473ffffffffffffffffffffffffffffffffffffffff1614155b8015620001365750600073ffffffffffffffffffffffffffffffffffffffff168373ffffffffffffffffffffffffffffffffffffffff1614155b8015620001705750600073ffffffffffffffffffffffffffffffffffffffff168173ffffffffffffffffffffffffffffffffffffffff1614155b620001b2576040517f08c379a0000000000000000000000000000000000000000000000000000000008152600401620001a990620004a9565b60405180910390fd5b84600160006101000a81548173ffffffffffffffffffffffffffffffffffffffff021916908373ffffffffffffffffffffffffffffffffffffffff16021790555083600260006101000a81548173ffffffffffffffffffffffffffffffffffffffff021916908373ffffffffffffffffffffffffffffffffffffffff16021790555082600360006101000a81548173ffffffffffffffffffffffffffffffffffffffff021916908373ffffffffffffffffffffffffffffffffffffffff16021790555080600460006101000a81548173ffffffffffffffffffffffffffffffffffffffff021916908373ffffffffffffffffffffffffffffffffffffffff16021790555081600560006101000a81548173ffffffffffffffffffffffffffffffffffffffff021916908373ffffffffffffffffffffffffffffffffffffffff16021790555050505050506200052a565b600033905090565b60008060009054906101000a900473ffffffffffffffffffffffffffffffffffffffff169050816000806101000a81548173ffffffffffffffffffffffffffffffffffffffff021916908373ffffffffffffffffffffffffffffffffffffffff1602179055508173ffffffffffffffffffffffffffffffffffffffff168173ffffffffffffffffffffffffffffffffffffffff167f8be0079c531659141344cd1fd0a4f28419497f9722a3daafe3b4186f6b6457e060405160405180910390a35050565b600081519050620003df8162000510565b92915050565b600080600080600060a08688031215620003fe57600080fd5b60006200040e88828901620003ce565b95505060206200042188828901620003ce565b94505060406200043488828901620003ce565b93505060606200044788828901620003ce565b92505060806200045a88828901620003ce565b9150509295509295909350565b600062000476601883620004cb565b91507f4c69676874686f7573653a205a45524f5f4144445245535300000000000000006000830152602082019050919050565b60006020820190508181036000830152620004c48162000467565b9050919050565b600082825260208201905092915050565b6000620004e982620004f0565b9050919050565b600073ffffffffffffffffffffffffffffffffffffffff82169050919050565b6200051b81620004dc565b81146200052757600080fd5b50565b61302f806200053a6000396000f3fe608060405234801561001057600080fd5b50600436106100b45760003560e01c80638da5cb5b116100715780638da5cb5b14610165578063a29a43bb14610183578063aee7a1ef1461019f578063da8e78fd146101bb578063e1259a87146101eb578063f2fde38b14610207576100b4565b8063442ceeb9146100b95780635742b466146100e95780635ebaf1db146101055780636431941a14610123578063715018a61461013f57806385d0446614610149575b600080fd5b6100d360048036038101906100ce9190612491565b610223565b6040516100e09190612e03565b60405180910390f35b61010360048036038101906100fe9190612491565b61023b565b005b61010d6105d2565b60405161011a9190612b48565b60405180910390f35b61013d600480360381019061013891906124e3565b6105f8565b005b610147610a5f565b005b610163600480360381019061015e91906125ad565b610ae7565b005b61016d611590565b60405161017a9190612b48565b60405180910390f35b61019d60048036038101906101989190612491565b6115b9565b005b6101b960048036038101906101b49190612491565b61172c565b005b6101d560048036038101906101d09190612571565b6117ec565b6040516101e29190612e03565b60405180910390f35b610205600480360381019061020091906125ad565b611811565b005b610221600480360381019061021c9190612491565b61224f565b005b60066020528060005260406000206000915090505481565b600073ffffffffffffffffffffffffffffffffffffffff168173ffffffffffffffffffffffffffffffffffffffff16141580156102c75750600073ffffffffffffffffffffffffffffffffffffffff16600760009054906101000a900473ffffffffffffffffffffffffffffffffffffffff1673ffffffffffffffffffffffffffffffffffffffff1614155b610306576040517f08c379a00000000000000000000000000000000000000000000000000000000081526004016102fd90612c63565b60405180910390fd5b61030e611590565b73ffffffffffffffffffffffffffffffffffffffff163373ffffffffffffffffffffffffffffffffffffffff1614806103945750600760009054906101000a900473ffffffffffffffffffffffffffffffffffffffff1673ffffffffffffffffffffffffffffffffffffffff163373ffffffffffffffffffffffffffffffffffffffff16145b6103d3576040517f08c379a00000000000000000000000000000000000000000000000000000000081526004016103ca90612d83565b60405180910390fd5b6000600660008373ffffffffffffffffffffffffffffffffffffffff1673ffffffffffffffffffffffffffffffffffffffff1681526020019081526020016000205411610455576040517f08c379a000000000000000000000000000000000000000000000000000000000815260040161044c90612d23565b60405180910390fd5b60008190508073ffffffffffffffffffffffffffffffffffffffff166323b872dd30600760009054906101000a900473ffffffffffffffffffffffffffffffffffffffff16600660008773ffffffffffffffffffffffffffffffffffffffff1673ffffffffffffffffffffffffffffffffffffffff168152602001908152602001600020546040518463ffffffff1660e01b81526004016104f893929190612b63565b602060405180830381600087803b15801561051257600080fd5b505af1158015610526573d6000803e3d6000fd5b505050506040513d601f19601f8201168201806040525081019061054a919061251f565b610589576040517f08c379a000000000000000000000000000000000000000000000000000000000815260040161058090612c03565b60405180910390fd5b6000600660008473ffffffffffffffffffffffffffffffffffffffff1673ffffffffffffffffffffffffffffffffffffffff168152602001908152602001600020819055505050565b600760009054906101000a900473ffffffffffffffffffffffffffffffffffffffff1681565b6000811161063b576040517f08c379a000000000000000000000000000000000000000000000000000000000815260040161063290612da3565b60405180910390fd5b600073ffffffffffffffffffffffffffffffffffffffff168273ffffffffffffffffffffffffffffffffffffffff16141580156106c75750600073ffffffffffffffffffffffffffffffffffffffff16600760009054906101000a900473ffffffffffffffffffffffffffffffffffffffff1673ffffffffffffffffffffffffffffffffffffffff1614155b610706576040517f08c379a00000000000000000000000000000000000000000000000000000000081526004016106fd90612c63565b60405180910390fd5b61070e611590565b73ffffffffffffffffffffffffffffffffffffffff163373ffffffffffffffffffffffffffffffffffffffff1614806107945750600760009054906101000a900473ffffffffffffffffffffffffffffffffffffffff1673ffffffffffffffffffffffffffffffffffffffff163373ffffffffffffffffffffffffffffffffffffffff16145b6107d3576040517f08c379a00000000000000000000000000000000000000000000000000000000081526004016107ca90612d83565b60405180910390fd5b6000600660008473ffffffffffffffffffffffffffffffffffffffff1673ffffffffffffffffffffffffffffffffffffffff1681526020019081526020016000205411610855576040517f08c379a000000000000000000000000000000000000000000000000000000000815260040161084c90612d23565b60405180910390fd5b80600660008473ffffffffffffffffffffffffffffffffffffffff1673ffffffffffffffffffffffffffffffffffffffff1681526020019081526020016000205410156108d7576040517f08c379a00000000000000000000000000000000000000000000000000000000081526004016108ce90612c23565b60405180910390fd5b60008290508073ffffffffffffffffffffffffffffffffffffffff166323b872dd30600760009054906101000a900473ffffffffffffffffffffffffffffffffffffffff16856040518463ffffffff1660e01b815260040161093b93929190612b63565b602060405180830381600087803b15801561095557600080fd5b505af1158015610969573d6000803e3d6000fd5b505050506040513d601f19601f8201168201806040525081019061098d919061251f565b6109cc576040517f08c379a00000000000000000000000000000000000000000000000000000000081526004016109c390612c43565b60405180910390fd5b81600660008573ffffffffffffffffffffffffffffffffffffffff1673ffffffffffffffffffffffffffffffffffffffff16815260200190815260200160002054610a179190612eb6565b600660008573ffffffffffffffffffffffffffffffffffffffff1673ffffffffffffffffffffffffffffffffffffffff16815260200190815260200160002081905550505050565b610a67612347565b73ffffffffffffffffffffffffffffffffffffffff16610a85611590565b73ffffffffffffffffffffffffffffffffffffffff1614610adb576040517f08c379a0000000000000000000000000000000000000000000000000000000008152600401610ad290612cc3565b60405180910390fd5b610ae5600061234f565b565b6000600460009054906101000a900473ffffffffffffffffffffffffffffffffffffffff1673ffffffffffffffffffffffffffffffffffffffff1663a5045a16846040518263ffffffff1660e01b8152600401610b449190612e03565b60206040518083038186803b158015610b5c57600080fd5b505afa158015610b70573d6000803e3d6000fd5b505050506040513d601f19601f82011682018060405250810190610b9491906124ba565b9050600073ffffffffffffffffffffffffffffffffffffffff168173ffffffffffffffffffffffffffffffffffffffff161415610c06576040517f08c379a0000000000000000000000000000000000000000000000000000000008152600401610bfd90612c83565b60405180910390fd5b600460009054906101000a900473ffffffffffffffffffffffffffffffffffffffff1673ffffffffffffffffffffffffffffffffffffffff16631b4ead45846040518263ffffffff1660e01b8152600401610c619190612e03565b60206040518083038186803b158015610c7957600080fd5b505afa158015610c8d573d6000803e3d6000fd5b505050506040513d601f19601f82011682018060405250810190610cb1919061251f565b610cf0576040517f08c379a0000000000000000000000000000000000000000000000000000000008152600401610ce790612d03565b60405180910390fd5b60008190506000600460009054906101000a900473ffffffffffffffffffffffffffffffffffffffff1673ffffffffffffffffffffffffffffffffffffffff16639d0214cb866040518263ffffffff1660e01b8152600401610d529190612e03565b60206040518083038186803b158015610d6a57600080fd5b505afa158015610d7e573d6000803e3d6000fd5b505050506040513d601f19601f82011682018060405250810190610da291906124ba565b90503373ffffffffffffffffffffffffffffffffffffffff168173ffffffffffffffffffffffffffffffffffffffff16636352211e866040518263ffffffff1660e01b8152600401610df49190612e03565b60206040518083038186803b158015610e0c57600080fd5b505afa158015610e20573d6000803e3d6000fd5b505050506040513d601f19601f82011682018060405250810190610e4491906124ba565b73ffffffffffffffffffffffffffffffffffffffff1614610e9a576040517f08c379a0000000000000000000000000000000000000000000000000000000008152600401610e9190612ce3565b60405180910390fd5b60028173ffffffffffffffffffffffffffffffffffffffff1663989981d7866040518263ffffffff1660e01b8152600401610ed59190612e03565b60206040518083038186803b158015610eed57600080fd5b505afa158015610f01573d6000803e3d6000fd5b505050506040513d601f19601f82011682018060405250810190610f2591906125e9565b60ff161115610f69576040517f08c379a0000000000000000000000000000000000000000000000000000000008152600401610f6090612d63565b60405180910390fd5b6000670de0b6b3a76400008273ffffffffffffffffffffffffffffffffffffffff16639ab8ee15876040518263ffffffff1660e01b8152600401610fad9190612e03565b60206040518083038186803b158015610fc557600080fd5b505afa158015610fd9573d6000803e3d6000fd5b505050506040513d601f19601f82011682018060405250810190610ffd9190612548565b6110079190612e85565b90506000670de0b6b3a76400008373ffffffffffffffffffffffffffffffffffffffff166396f53711886040518263ffffffff1660e01b815260040161104d9190612e03565b60206040518083038186803b15801561106557600080fd5b505afa158015611079573d6000803e3d6000fd5b505050506040513d601f19601f8201168201806040525081019061109d9190612548565b6110a79190612e85565b9050600081116110ec576040517f08c379a00000000000000000000000000000000000000000000000000000000081526004016110e390612d43565b60405180910390fd5b818473ffffffffffffffffffffffffffffffffffffffff166370a08231306040518263ffffffff1660e01b81526004016111269190612b48565b60206040518083038186803b15801561113e57600080fd5b505afa158015611152573d6000803e3d6000fd5b505050506040513d601f19601f820116820180604052508101906111769190612548565b10156111b7576040517f08c379a00000000000000000000000000000000000000000000000000000000081526004016111ae90612ca3565b60405180910390fd5b80600560009054906101000a900473ffffffffffffffffffffffffffffffffffffffff1673ffffffffffffffffffffffffffffffffffffffff166370a08231306040518263ffffffff1660e01b81526004016112139190612b48565b60206040518083038186803b15801561122b57600080fd5b505afa15801561123f573d6000803e3d6000fd5b505050506040513d601f19601f820116820180604052508101906112639190612548565b10156112a4576040517f08c379a000000000000000000000000000000000000000000000000000000000815260040161129b90612de3565b60405180910390fd5b8273ffffffffffffffffffffffffffffffffffffffff166342966c68876040518263ffffffff1660e01b81526004016112dd9190612e03565b600060405180830381600087803b1580156112f757600080fd5b505af115801561130b573d6000803e3d6000fd5b50505050600560009054906101000a900473ffffffffffffffffffffffffffffffffffffffff1673ffffffffffffffffffffffffffffffffffffffff1663a9059cbb33836040518363ffffffff1660e01b815260040161136c929190612b9a565b602060405180830381600087803b15801561138657600080fd5b505af115801561139a573d6000803e3d6000fd5b505050506040513d601f19601f820116820180604052508101906113be919061251f565b6113fd576040517f08c379a00000000000000000000000000000000000000000000000000000000081526004016113f490612c43565b60405180910390fd5b81600660008773ffffffffffffffffffffffffffffffffffffffff1673ffffffffffffffffffffffffffffffffffffffff168152602001908152602001600020546114489190612e2f565b600660008773ffffffffffffffffffffffffffffffffffffffff1673ffffffffffffffffffffffffffffffffffffffff1681526020019081526020016000208190555085600460009054906101000a900473ffffffffffffffffffffffffffffffffffffffff1673ffffffffffffffffffffffffffffffffffffffff16639d0214cb896040518263ffffffff1660e01b81526004016114e79190612e03565b60206040518083038186803b1580156114ff57600080fd5b505afa158015611513573d6000803e3d6000fd5b505050506040513d601f19601f8201168201806040525081019061153791906124ba565b73ffffffffffffffffffffffffffffffffffffffff16887f2b038598b04ca541b8ff17444794028d8f2a5b72689a4a7331638cfd01368daa338560405161157f929190612b9a565b60405180910390a450505050505050565b60008060009054906101000a900473ffffffffffffffffffffffffffffffffffffffff16905090565b6115c1612347565b73ffffffffffffffffffffffffffffffffffffffff166115df611590565b73ffffffffffffffffffffffffffffffffffffffff1614611635576040517f08c379a000000000000000000000000000000000000000000000000000000000815260040161162c90612cc3565b60405180910390fd5b600073ffffffffffffffffffffffffffffffffffffffff168173ffffffffffffffffffffffffffffffffffffffff1614156116a5576040517f08c379a000000000000000000000000000000000000000000000000000000000815260040161169c90612dc3565b60405180910390fd5b80600760006101000a81548173ffffffffffffffffffffffffffffffffffffffff021916908373ffffffffffffffffffffffffffffffffffffffff1602179055508073ffffffffffffffffffffffffffffffffffffffff167f6901da73a3480b0bbd7deb64f259ff29a76ce811c7a3e5cf495f0e1eb4fb4dfb60405160405180910390a250565b611734612347565b73ffffffffffffffffffffffffffffffffffffffff16611752611590565b73ffffffffffffffffffffffffffffffffffffffff16146117a8576040517f08c379a000000000000000000000000000000000000000000000000000000000815260040161179f90612cc3565b60405180910390fd5b80600360006101000a81548173ffffffffffffffffffffffffffffffffffffffff021916908373ffffffffffffffffffffffffffffffffffffffff16021790555050565b6008602052816000526040600020602052806000526040600020600091509150505481565b6000600460009054906101000a900473ffffffffffffffffffffffffffffffffffffffff1673ffffffffffffffffffffffffffffffffffffffff1663a5045a16846040518263ffffffff1660e01b815260040161186e9190612e03565b60206040518083038186803b15801561188657600080fd5b505afa15801561189a573d6000803e3d6000fd5b505050506040513d601f19601f820116820180604052508101906118be91906124ba565b9050600073ffffffffffffffffffffffffffffffffffffffff168173ffffffffffffffffffffffffffffffffffffffff161415611930576040517f08c379a000000000000000000000000000000000000000000000000000000000815260040161192790612c83565b60405180910390fd5b600460009054906101000a900473ffffffffffffffffffffffffffffffffffffffff1673ffffffffffffffffffffffffffffffffffffffff16631b4ead45846040518263ffffffff1660e01b815260040161198b9190612e03565b60206040518083038186803b1580156119a357600080fd5b505afa1580156119b7573d6000803e3d6000fd5b505050506040513d601f19601f820116820180604052508101906119db919061251f565b611a1a576040517f08c379a0000000000000000000000000000000000000000000000000000000008152600401611a1190612d03565b60405180910390fd5b60008190506000600460009054906101000a900473ffffffffffffffffffffffffffffffffffffffff1673ffffffffffffffffffffffffffffffffffffffff16639d0214cb866040518263ffffffff1660e01b8152600401611a7c9190612e03565b60206040518083038186803b158015611a9457600080fd5b505afa158015611aa8573d6000803e3d6000fd5b505050506040513d601f19601f82011682018060405250810190611acc91906124ba565b90503373ffffffffffffffffffffffffffffffffffffffff168173ffffffffffffffffffffffffffffffffffffffff16636352211e866040518263ffffffff1660e01b8152600401611b1e9190612e03565b60206040518083038186803b158015611b3657600080fd5b505afa158015611b4a573d6000803e3d6000fd5b505050506040513d601f19601f82011682018060405250810190611b6e91906124ba565b73ffffffffffffffffffffffffffffffffffffffff1614611bc4576040517f08c379a0000000000000000000000000000000000000000000000000000000008152600401611bbb90612ce3565b60405180910390fd5b60028173ffffffffffffffffffffffffffffffffffffffff1663989981d7866040518263ffffffff1660e01b8152600401611bff9190612e03565b60206040518083038186803b158015611c1757600080fd5b505afa158015611c2b573d6000803e3d6000fd5b505050506040513d601f19601f82011682018060405250810190611c4f91906125e9565b60ff161115611c93576040517f08c379a0000000000000000000000000000000000000000000000000000000008152600401611c8a90612d63565b60405180910390fd5b6000670de0b6b3a76400008273ffffffffffffffffffffffffffffffffffffffff16639ab8ee15876040518263ffffffff1660e01b8152600401611cd79190612e03565b60206040518083038186803b158015611cef57600080fd5b505afa158015611d03573d6000803e3d6000fd5b505050506040513d601f19601f82011682018060405250810190611d279190612548565b611d319190612e85565b90506000670de0b6b3a76400008373ffffffffffffffffffffffffffffffffffffffff166396f53711886040518263ffffffff1660e01b8152600401611d779190612e03565b60206040518083038186803b158015611d8f57600080fd5b505afa158015611da3573d6000803e3d6000fd5b505050506040513d601f19601f82011682018060405250810190611dc79190612548565b611dd19190612e85565b905060008211611e16576040517f08c379a0000000000000000000000000000000000000000000000000000000008152600401611e0d90612bc3565b60405180910390fd5b60008111611e59576040517f08c379a0000000000000000000000000000000000000000000000000000000008152600401611e5090612d43565b60405180910390fd5b818473ffffffffffffffffffffffffffffffffffffffff166370a08231306040518263ffffffff1660e01b8152600401611e939190612b48565b60206040518083038186803b158015611eab57600080fd5b505afa158015611ebf573d6000803e3d6000fd5b505050506040513d601f19601f82011682018060405250810190611ee39190612548565b1015611f24576040517f08c379a0000000000000000000000000000000000000000000000000000000008152600401611f1b90612ca3565b60405180910390fd5b80600560009054906101000a900473ffffffffffffffffffffffffffffffffffffffff1673ffffffffffffffffffffffffffffffffffffffff166370a08231306040518263ffffffff1660e01b8152600401611f809190612b48565b60206040518083038186803b158015611f9857600080fd5b505afa158015611fac573d6000803e3d6000fd5b505050506040513d601f19601f82011682018060405250810190611fd09190612548565b1015612011576040517f08c379a000000000000000000000000000000000000000000000000000000000815260040161200890612de3565b60405180910390fd5b8273ffffffffffffffffffffffffffffffffffffffff166342966c68876040518263ffffffff1660e01b815260040161204a9190612e03565b600060405180830381600087803b15801561206457600080fd5b505af1158015612078573d6000803e3d6000fd5b505050508373ffffffffffffffffffffffffffffffffffffffff1663a9059cbb33846040518363ffffffff1660e01b81526004016120b7929190612b9a565b602060405180830381600087803b1580156120d157600080fd5b505af11580156120e5573d6000803e3d6000fd5b505050506040513d601f19601f82011682018060405250810190612109919061251f565b612148576040517f08c379a000000000000000000000000000000000000000000000000000000000815260040161213f90612c43565b60405180910390fd5b85600460009054906101000a900473ffffffffffffffffffffffffffffffffffffffff1673ffffffffffffffffffffffffffffffffffffffff16639d0214cb896040518263ffffffff1660e01b81526004016121a49190612e03565b60206040518083038186803b1580156121bc57600080fd5b505afa1580156121d0573d6000803e3d6000fd5b505050506040513d601f19601f820116820180604052508101906121f491906124ba565b73ffffffffffffffffffffffffffffffffffffffff16887f0f4900e98e66735cb9b522e25d2c98dd16c986ede7f115c66053e8a8cbeb425733898760405161223e93929190612b63565b60405180910390a450505050505050565b612257612347565b73ffffffffffffffffffffffffffffffffffffffff16612275611590565b73ffffffffffffffffffffffffffffffffffffffff16146122cb576040517f08c379a00000000000000000000000000000000000000000000000000000000081526004016122c290612cc3565b60405180910390fd5b600073ffffffffffffffffffffffffffffffffffffffff168173ffffffffffffffffffffffffffffffffffffffff16141561233b576040517f08c379a000000000000000000000000000000000000000000000000000000000815260040161233290612be3565b60405180910390fd5b6123448161234f565b50565b600033905090565b60008060009054906101000a900473ffffffffffffffffffffffffffffffffffffffff169050816000806101000a81548173ffffffffffffffffffffffffffffffffffffffff021916908373ffffffffffffffffffffffffffffffffffffffff1602179055508173ffffffffffffffffffffffffffffffffffffffff168173ffffffffffffffffffffffffffffffffffffffff167f8be0079c531659141344cd1fd0a4f28419497f9722a3daafe3b4186f6b6457e060405160405180910390a35050565b60008135905061242281612f9d565b92915050565b60008151905061243781612f9d565b92915050565b60008151905061244c81612fb4565b92915050565b60008135905061246181612fcb565b92915050565b60008151905061247681612fcb565b92915050565b60008151905061248b81612fe2565b92915050565b6000602082840312156124a357600080fd5b60006124b184828501612413565b91505092915050565b6000602082840312156124cc57600080fd5b60006124da84828501612428565b91505092915050565b600080604083850312156124f657600080fd5b600061250485828601612413565b925050602061251585828601612452565b9150509250929050565b60006020828403121561253157600080fd5b600061253f8482850161243d565b91505092915050565b60006020828403121561255a57600080fd5b600061256884828501612467565b91505092915050565b6000806040838503121561258457600080fd5b600061259285828601612452565b92505060206125a385828601612413565b9150509250929050565b600080604083850312156125c057600080fd5b60006125ce85828601612452565b92505060206125df85828601612452565b9150509250929050565b6000602082840312156125fb57600080fd5b60006126098482850161247c565b91505092915050565b61261b81612eea565b82525050565b600061262e601f83612e1e565b91507f4c69676874686f7573653a204e46545f5a45524f5f414c4c4f434154494f4e006000830152602082019050919050565b600061266e602683612e1e565b91507f4f776e61626c653a206e6577206f776e657220697320746865207a65726f206160008301527f64647265737300000000000000000000000000000000000000000000000000006020830152604082019050919050565b60006126d4602283612e1e565b91507f4c69676874686f7573654275726e3a204641494c45445f544f5f5452414e534660008301527f45520000000000000000000000000000000000000000000000000000000000006020830152604082019050919050565b600061273a601e83612e1e565b91507f4c69676874686f7573653a204e4f545f454e4f5547485f42414c414e434500006000830152602082019050919050565b600061277a601e83612e1e565b91507f4c69676874686f7573653a204641494c45445f544f5f5452414e5346455200006000830152602082019050919050565b60006127ba601d83612e1e565b91507f4c69676874686f7573653a204e4f5f5354414b45525f414444524553530000006000830152602082019050919050565b60006127fa601283612e1e565b91507f4c69676874686f7573653a204e4f5f50434300000000000000000000000000006000830152602082019050919050565b600061283a601a83612e1e565b91507f4c69676874686f7573653a204e4f545f454e4f5547485f5043430000000000006000830152602082019050919050565b600061287a602083612e1e565b91507f4f776e61626c653a2063616c6c6572206973206e6f7420746865206f776e65726000830152602082019050919050565b60006128ba601983612e1e565b91507f4c69676874686f7573653a204e4f545f4e46545f4f574e4552000000000000006000830152602082019050919050565b60006128fa602a83612e1e565b91507f4c69676874686f7573653a20414c4c4f434154494f4e5f4e4f545f494e49544960008301527f414c495a45445f594554000000000000000000000000000000000000000000006020830152604082019050919050565b6000612960601783612e1e565b91507f4c69676874686f7573653a20494e56414c49445f5043430000000000000000006000830152602082019050919050565b60006129a0602183612e1e565b91507f4c69676874686f7573653a204e46545f5a45524f5f434f4d50454e534154494f60008301527f4e000000000000000000000000000000000000000000000000000000000000006020830152604082019050919050565b6000612a06601f83612e1e565b91507f4c69676874686f7573653a20464f5242494444454e5f4d494e545f54595045006000830152602082019050919050565b6000612a46601583612e1e565b91507f4c69676874686f7573653a20464f5242494444454e00000000000000000000006000830152602082019050919050565b6000612a86601a83612e1e565b91507f4c69676874686f7573653a205a45524f5f504152414d455445520000000000006000830152602082019050919050565b6000612ac6601883612e1e565b91507f4c69676874686f7573653a205a45524f5f4144445245535300000000000000006000830152602082019050919050565b6000612b06601d83612e1e565b91507f4c69676874686f7573653a204e4f545f454e4f5547485f43524f574e530000006000830152602082019050919050565b612b4281612f28565b82525050565b6000602082019050612b5d6000830184612612565b92915050565b6000606082019050612b786000830186612612565b612b856020830185612612565b612b926040830184612b39565b949350505050565b6000604082019050612baf6000830185612612565b612bbc6020830184612b39565b9392505050565b60006020820190508181036000830152612bdc81612621565b9050919050565b60006020820190508181036000830152612bfc81612661565b9050919050565b60006020820190508181036000830152612c1c816126c7565b9050919050565b60006020820190508181036000830152612c3c8161272d565b9050919050565b60006020820190508181036000830152612c5c8161276d565b9050919050565b60006020820190508181036000830152612c7c816127ad565b9050919050565b60006020820190508181036000830152612c9c816127ed565b9050919050565b60006020820190508181036000830152612cbc8161282d565b9050919050565b60006020820190508181036000830152612cdc8161286d565b9050919050565b60006020820190508181036000830152612cfc816128ad565b9050919050565b60006020820190508181036000830152612d1c816128ed565b9050919050565b60006020820190508181036000830152612d3c81612953565b9050919050565b60006020820190508181036000830152612d5c81612993565b9050919050565b60006020820190508181036000830152612d7c816129f9565b9050919050565b60006020820190508181036000830152612d9c81612a39565b9050919050565b60006020820190508181036000830152612dbc81612a79565b9050919050565b60006020820190508181036000830152612ddc81612ab9565b9050919050565b60006020820190508181036000830152612dfc81612af9565b9050919050565b6000602082019050612e186000830184612b39565b92915050565b600082825260208201905092915050565b6000612e3a82612f28565b9150612e4583612f28565b9250827fffffffffffffffffffffffffffffffffffffffffffffffffffffffffffffffff03821115612e7a57612e79612f3f565b5b828201905092915050565b6000612e9082612f28565b9150612e9b83612f28565b925082612eab57612eaa612f6e565b5b828204905092915050565b6000612ec182612f28565b9150612ecc83612f28565b925082821015612edf57612ede612f3f565b5b828203905092915050565b6000612ef582612f08565b9050919050565b60008115159050919050565b600073ffffffffffffffffffffffffffffffffffffffff82169050919050565b6000819050919050565b600060ff82169050919050565b7f4e487b7100000000000000000000000000000000000000000000000000000000600052601160045260246000fd5b7f4e487b7100000000000000000000000000000000000000000000000000000000600052601260045260246000fd5b612fa681612eea565b8114612fb157600080fd5b50565b612fbd81612efc565b8114612fc857600080fd5b50565b612fd481612f28565b8114612fdf57600080fd5b50565b612feb81612f32565b8114612ff657600080fd5b5056fea2646970667358221220003fedbde955dc4b5498ee28803417a76863445bee42d238f7025ed494d2a61164736f6c63430008000033",
  "linkReferences": {},
  "deployedLinkReferences": {}
}