{
  "_format": "hh-sol-artifact-1",
  "contractName": "LighthouseBurn",
  "sourceName": "contracts/LighthouseBurn.sol",
  "abi": [
    {
      "inputs": [
        {
          "internalType": "address",
          "name": "_lighthouseAuction",
          "type": "address"
        },
        {
          "internalType": "address",
          "name": "_lighthousePrefund",
          "type": "address"
        },
        {
          "internalType": "address",
          "name": "_lighthouseTier",
          "type": "address"
        },
        {
          "internalType": "address",
          "name": "_crowns",
          "type": "address"
        },
        {
          "internalType": "address",
          "name": "_project",
          "type": "address"
        }
      ],
      "stateMutability": "nonpayable",
      "type": "constructor"
    },
    {
      "anonymous": false,
      "inputs": [
        {
          "indexed": true,
          "internalType": "uint256",
          "name": "projectId",
          "type": "uint256"
        },
        {
          "indexed": true,
          "internalType": "address",
          "name": "lighthouse",
          "type": "address"
        },
        {
          "indexed": true,
          "internalType": "uint256",
          "name": "nftId",
          "type": "uint256"
        },
        {
          "indexed": false,
          "internalType": "address",
          "name": "owner",
          "type": "address"
        },
        {
          "indexed": false,
          "internalType": "uint256",
          "name": "compensation",
          "type": "uint256"
        }
      ],
      "name": "BurnForCWS",
      "type": "event"
    },
    {
      "anonymous": false,
      "inputs": [
        {
          "indexed": true,
          "internalType": "uint256",
          "name": "projectId",
          "type": "uint256"
        },
        {
          "indexed": true,
          "internalType": "address",
          "name": "lighthouse",
          "type": "address"
        },
        {
          "indexed": true,
          "internalType": "uint256",
          "name": "nftId",
          "type": "uint256"
        },
        {
          "indexed": false,
          "internalType": "address",
          "name": "owner",
          "type": "address"
        },
        {
          "indexed": false,
          "internalType": "address",
          "name": "pcc",
          "type": "address"
        },
        {
          "indexed": false,
          "internalType": "uint256",
          "name": "allocation",
          "type": "uint256"
        }
      ],
      "name": "BurnForPCC",
      "type": "event"
    },
    {
      "anonymous": false,
      "inputs": [
        {
          "indexed": true,
          "internalType": "address",
          "name": "previousOwner",
          "type": "address"
        },
        {
          "indexed": true,
          "internalType": "address",
          "name": "newOwner",
          "type": "address"
        }
      ],
      "name": "OwnershipTransferred",
      "type": "event"
    },
    {
      "anonymous": false,
      "inputs": [
        {
          "indexed": true,
          "internalType": "address",
          "name": "staker",
          "type": "address"
        }
      ],
      "name": "SetStaker",
      "type": "event"
    },
    {
      "inputs": [
        {
          "internalType": "uint256",
          "name": "projectId",
          "type": "uint256"
        },
        {
          "internalType": "uint256",
          "name": "nftId",
          "type": "uint256"
        }
      ],
      "name": "burnForCws",
      "outputs": [],
      "stateMutability": "nonpayable",
      "type": "function"
    },
    {
      "inputs": [
        {
          "internalType": "uint256",
          "name": "projectId",
          "type": "uint256"
        },
        {
          "internalType": "uint256",
          "name": "nftId",
          "type": "uint256"
        }
      ],
      "name": "burnForPcc",
      "outputs": [],
      "stateMutability": "nonpayable",
      "type": "function"
    },
    {
      "inputs": [
        {
          "internalType": "uint256",
          "name": "",
          "type": "uint256"
        },
        {
          "internalType": "address",
          "name": "",
          "type": "address"
        }
      ],
      "name": "mintedNfts",
      "outputs": [
        {
          "internalType": "uint256",
          "name": "",
          "type": "uint256"
        }
      ],
      "stateMutability": "view",
      "type": "function"
    },
    {
      "inputs": [],
      "name": "owner",
      "outputs": [
        {
          "internalType": "address",
          "name": "",
          "type": "address"
        }
      ],
      "stateMutability": "view",
      "type": "function"
    },
    {
      "inputs": [],
      "name": "renounceOwnership",
      "outputs": [],
      "stateMutability": "nonpayable",
      "type": "function"
    },
    {
      "inputs": [
        {
          "internalType": "address",
          "name": "_staker",
          "type": "address"
        }
      ],
      "name": "setStaker",
      "outputs": [],
      "stateMutability": "nonpayable",
      "type": "function"
    },
    {
      "inputs": [
        {
          "internalType": "address",
          "name": "",
          "type": "address"
        }
      ],
      "name": "stakeReserves",
      "outputs": [
        {
          "internalType": "uint256",
          "name": "",
          "type": "uint256"
        }
      ],
      "stateMutability": "view",
      "type": "function"
    },
    {
      "inputs": [],
      "name": "staker",
      "outputs": [
        {
          "internalType": "address",
          "name": "",
          "type": "address"
        }
      ],
      "stateMutability": "view",
      "type": "function"
    },
    {
      "inputs": [
        {
          "internalType": "address",
          "name": "pccAddress",
          "type": "address"
        }
      ],
      "name": "transferMaxReserve",
      "outputs": [],
      "stateMutability": "nonpayable",
      "type": "function"
    },
    {
      "inputs": [
        {
          "internalType": "address",
          "name": "newOwner",
          "type": "address"
        }
      ],
      "name": "transferOwnership",
      "outputs": [],
      "stateMutability": "nonpayable",
      "type": "function"
    },
    {
      "inputs": [
        {
          "internalType": "address",
          "name": "pccAddress",
          "type": "address"
        },
        {
          "internalType": "uint256",
          "name": "amount",
          "type": "uint256"
        }
      ],
      "name": "transferStakeReserve",
      "outputs": [],
      "stateMutability": "nonpayable",
      "type": "function"
    }
  ],
  "bytecode": "0x60806040523480156200001157600080fd5b5060405162003315380380620033158339818101604052810190620000379190620003e5565b620000576200004b6200030260201b60201c565b6200030a60201b60201c565b600073ffffffffffffffffffffffffffffffffffffffff168573ffffffffffffffffffffffffffffffffffffffff1614158015620000c25750600073ffffffffffffffffffffffffffffffffffffffff168273ffffffffffffffffffffffffffffffffffffffff1614155b8015620000fc5750600073ffffffffffffffffffffffffffffffffffffffff168473ffffffffffffffffffffffffffffffffffffffff1614155b8015620001365750600073ffffffffffffffffffffffffffffffffffffffff168373ffffffffffffffffffffffffffffffffffffffff1614155b8015620001705750600073ffffffffffffffffffffffffffffffffffffffff168173ffffffffffffffffffffffffffffffffffffffff1614155b620001b2576040517f08c379a0000000000000000000000000000000000000000000000000000000008152600401620001a990620004a9565b60405180910390fd5b84600160006101000a81548173ffffffffffffffffffffffffffffffffffffffff021916908373ffffffffffffffffffffffffffffffffffffffff16021790555083600260006101000a81548173ffffffffffffffffffffffffffffffffffffffff021916908373ffffffffffffffffffffffffffffffffffffffff16021790555082600360006101000a81548173ffffffffffffffffffffffffffffffffffffffff021916908373ffffffffffffffffffffffffffffffffffffffff16021790555080600460006101000a81548173ffffffffffffffffffffffffffffffffffffffff021916908373ffffffffffffffffffffffffffffffffffffffff16021790555081600560006101000a81548173ffffffffffffffffffffffffffffffffffffffff021916908373ffffffffffffffffffffffffffffffffffffffff16021790555050505050506200052a565b600033905090565b60008060009054906101000a900473ffffffffffffffffffffffffffffffffffffffff169050816000806101000a81548173ffffffffffffffffffffffffffffffffffffffff021916908373ffffffffffffffffffffffffffffffffffffffff1602179055508173ffffffffffffffffffffffffffffffffffffffff168173ffffffffffffffffffffffffffffffffffffffff167f8be0079c531659141344cd1fd0a4f28419497f9722a3daafe3b4186f6b6457e060405160405180910390a35050565b600081519050620003df8162000510565b92915050565b600080600080600060a08688031215620003fe57600080fd5b60006200040e88828901620003ce565b95505060206200042188828901620003ce565b94505060406200043488828901620003ce565b93505060606200044788828901620003ce565b92505060806200045a88828901620003ce565b9150509295509295909350565b600062000476601883620004cb565b91507f4c69676874686f7573653a205a45524f5f4144445245535300000000000000006000830152602082019050919050565b60006020820190508181036000830152620004c48162000467565b9050919050565b600082825260208201905092915050565b6000620004e982620004f0565b9050919050565b600073ffffffffffffffffffffffffffffffffffffffff82169050919050565b6200051b81620004dc565b81146200052757600080fd5b50565b612ddb806200053a6000396000f3fe608060405234801561001057600080fd5b50600436106100a95760003560e01c806385d044661161007157806385d044661461013e5780638da5cb5b1461015a578063a29a43bb14610178578063da8e78fd14610194578063e1259a87146101c4578063f2fde38b146101e0576100a9565b8063442ceeb9146100ae5780635742b466146100de5780635ebaf1db146100fa5780636431941a14610118578063715018a614610134575b600080fd5b6100c860048036038101906100c39190612323565b6101fc565b6040516100d59190612baf565b60405180910390f35b6100f860048036038101906100f39190612323565b610214565b005b61010261056d565b60405161010f9190612934565b60405180910390f35b610132600480360381019061012d9190612375565b610593565b005b61013c6109bc565b005b6101586004803603810190610153919061243f565b610a44565b005b6101626114b1565b60405161016f9190612934565b60405180910390f35b610192600480360381019061018d9190612323565b6114da565b005b6101ae60048036038101906101a99190612403565b61164d565b6040516101bb9190612baf565b60405180910390f35b6101de60048036038101906101d9919061243f565b611672565b005b6101fa60048036038101906101f59190612323565b6120e1565b005b60066020528060005260406000206000915090505481565b600073ffffffffffffffffffffffffffffffffffffffff168173ffffffffffffffffffffffffffffffffffffffff16141580156102a05750600073ffffffffffffffffffffffffffffffffffffffff16600760009054906101000a900473ffffffffffffffffffffffffffffffffffffffff1673ffffffffffffffffffffffffffffffffffffffff1614155b6102df576040517f08c379a00000000000000000000000000000000000000000000000000000000081526004016102d690612a0f565b60405180910390fd5b6102e76114b1565b73ffffffffffffffffffffffffffffffffffffffff163373ffffffffffffffffffffffffffffffffffffffff16148061036d5750600760009054906101000a900473ffffffffffffffffffffffffffffffffffffffff1673ffffffffffffffffffffffffffffffffffffffff163373ffffffffffffffffffffffffffffffffffffffff16145b6103ac576040517f08c379a00000000000000000000000000000000000000000000000000000000081526004016103a390612b2f565b60405180910390fd5b6000600660008373ffffffffffffffffffffffffffffffffffffffff1673ffffffffffffffffffffffffffffffffffffffff168152602001908152602001600020541161042e576040517f08c379a000000000000000000000000000000000000000000000000000000000815260040161042590612acf565b60405180910390fd5b60008190508073ffffffffffffffffffffffffffffffffffffffff166323b872dd30600760009054906101000a900473ffffffffffffffffffffffffffffffffffffffff16600660008773ffffffffffffffffffffffffffffffffffffffff1673ffffffffffffffffffffffffffffffffffffffff168152602001908152602001600020546040518463ffffffff1660e01b81526004016104d19392919061294f565b602060405180830381600087803b1580156104eb57600080fd5b505af11580156104ff573d6000803e3d6000fd5b505050506040513d601f19601f8201168201806040525081019061052391906123b1565b506000600660008473ffffffffffffffffffffffffffffffffffffffff1673ffffffffffffffffffffffffffffffffffffffff168152602001908152602001600020819055505050565b600760009054906101000a900473ffffffffffffffffffffffffffffffffffffffff1681565b600081116105d6576040517f08c379a00000000000000000000000000000000000000000000000000000000081526004016105cd90612b4f565b60405180910390fd5b600073ffffffffffffffffffffffffffffffffffffffff168273ffffffffffffffffffffffffffffffffffffffff16141580156106625750600073ffffffffffffffffffffffffffffffffffffffff16600760009054906101000a900473ffffffffffffffffffffffffffffffffffffffff1673ffffffffffffffffffffffffffffffffffffffff1614155b6106a1576040517f08c379a000000000000000000000000000000000000000000000000000000000815260040161069890612a0f565b60405180910390fd5b6106a96114b1565b73ffffffffffffffffffffffffffffffffffffffff163373ffffffffffffffffffffffffffffffffffffffff16148061072f5750600760009054906101000a900473ffffffffffffffffffffffffffffffffffffffff1673ffffffffffffffffffffffffffffffffffffffff163373ffffffffffffffffffffffffffffffffffffffff16145b61076e576040517f08c379a000000000000000000000000000000000000000000000000000000000815260040161076590612b2f565b60405180910390fd5b6000600660008473ffffffffffffffffffffffffffffffffffffffff1673ffffffffffffffffffffffffffffffffffffffff16815260200190815260200160002054116107f0576040517f08c379a00000000000000000000000000000000000000000000000000000000081526004016107e790612acf565b60405180910390fd5b80600660008473ffffffffffffffffffffffffffffffffffffffff1673ffffffffffffffffffffffffffffffffffffffff168152602001908152602001600020541015610872576040517f08c379a0000000000000000000000000000000000000000000000000000000008152600401610869906129ef565b60405180910390fd5b60008290508073ffffffffffffffffffffffffffffffffffffffff166323b872dd30600760009054906101000a900473ffffffffffffffffffffffffffffffffffffffff16856040518463ffffffff1660e01b81526004016108d69392919061294f565b602060405180830381600087803b1580156108f057600080fd5b505af1158015610904573d6000803e3d6000fd5b505050506040513d601f19601f8201168201806040525081019061092891906123b1565b5081600660008573ffffffffffffffffffffffffffffffffffffffff1673ffffffffffffffffffffffffffffffffffffffff168152602001908152602001600020546109749190612c62565b600660008573ffffffffffffffffffffffffffffffffffffffff1673ffffffffffffffffffffffffffffffffffffffff16815260200190815260200160002081905550505050565b6109c46121d9565b73ffffffffffffffffffffffffffffffffffffffff166109e26114b1565b73ffffffffffffffffffffffffffffffffffffffff1614610a38576040517f08c379a0000000000000000000000000000000000000000000000000000000008152600401610a2f90612a6f565b60405180910390fd5b610a4260006121e1565b565b6000600460009054906101000a900473ffffffffffffffffffffffffffffffffffffffff1673ffffffffffffffffffffffffffffffffffffffff1663a5045a16846040518263ffffffff1660e01b8152600401610aa19190612baf565b60206040518083038186803b158015610ab957600080fd5b505afa158015610acd573d6000803e3d6000fd5b505050506040513d601f19601f82011682018060405250810190610af1919061234c565b9050600073ffffffffffffffffffffffffffffffffffffffff168173ffffffffffffffffffffffffffffffffffffffff161415610b63576040517f08c379a0000000000000000000000000000000000000000000000000000000008152600401610b5a90612a2f565b60405180910390fd5b600460009054906101000a900473ffffffffffffffffffffffffffffffffffffffff1673ffffffffffffffffffffffffffffffffffffffff16631b4ead45846040518263ffffffff1660e01b8152600401610bbe9190612baf565b60206040518083038186803b158015610bd657600080fd5b505afa158015610bea573d6000803e3d6000fd5b505050506040513d601f19601f82011682018060405250810190610c0e91906123b1565b610c4d576040517f08c379a0000000000000000000000000000000000000000000000000000000008152600401610c4490612aaf565b60405180910390fd5b60008190506000600460009054906101000a900473ffffffffffffffffffffffffffffffffffffffff1673ffffffffffffffffffffffffffffffffffffffff16639d0214cb866040518263ffffffff1660e01b8152600401610caf9190612baf565b60206040518083038186803b158015610cc757600080fd5b505afa158015610cdb573d6000803e3d6000fd5b505050506040513d601f19601f82011682018060405250810190610cff919061234c565b90503373ffffffffffffffffffffffffffffffffffffffff168173ffffffffffffffffffffffffffffffffffffffff16636352211e866040518263ffffffff1660e01b8152600401610d519190612baf565b60206040518083038186803b158015610d6957600080fd5b505afa158015610d7d573d6000803e3d6000fd5b505050506040513d601f19601f82011682018060405250810190610da1919061234c565b73ffffffffffffffffffffffffffffffffffffffff1614610df7576040517f08c379a0000000000000000000000000000000000000000000000000000000008152600401610dee90612a8f565b60405180910390fd5b60028173ffffffffffffffffffffffffffffffffffffffff1663989981d7866040518263ffffffff1660e01b8152600401610e329190612baf565b60206040518083038186803b158015610e4a57600080fd5b505afa158015610e5e573d6000803e3d6000fd5b505050506040513d601f19601f82011682018060405250810190610e82919061247b565b60ff161115610ec6576040517f08c379a0000000000000000000000000000000000000000000000000000000008152600401610ebd90612b0f565b60405180910390fd5b6000670de0b6b3a76400008273ffffffffffffffffffffffffffffffffffffffff16639ab8ee15876040518263ffffffff1660e01b8152600401610f0a9190612baf565b60206040518083038186803b158015610f2257600080fd5b505afa158015610f36573d6000803e3d6000fd5b505050506040513d601f19601f82011682018060405250810190610f5a91906123da565b610f649190612c31565b90506000670de0b6b3a76400008373ffffffffffffffffffffffffffffffffffffffff166396f53711886040518263ffffffff1660e01b8152600401610faa9190612baf565b60206040518083038186803b158015610fc257600080fd5b505afa158015610fd6573d6000803e3d6000fd5b505050506040513d601f19601f82011682018060405250810190610ffa91906123da565b6110049190612c31565b905060008111611049576040517f08c379a000000000000000000000000000000000000000000000000000000000815260040161104090612aef565b60405180910390fd5b818473ffffffffffffffffffffffffffffffffffffffff166370a08231306040518263ffffffff1660e01b81526004016110839190612934565b60206040518083038186803b15801561109b57600080fd5b505afa1580156110af573d6000803e3d6000fd5b505050506040513d601f19601f820116820180604052508101906110d391906123da565b1015611114576040517f08c379a000000000000000000000000000000000000000000000000000000000815260040161110b90612a4f565b60405180910390fd5b80600560009054906101000a900473ffffffffffffffffffffffffffffffffffffffff1673ffffffffffffffffffffffffffffffffffffffff166370a08231306040518263ffffffff1660e01b81526004016111709190612934565b60206040518083038186803b15801561118857600080fd5b505afa15801561119c573d6000803e3d6000fd5b505050506040513d601f19601f820116820180604052508101906111c091906123da565b1015611201576040517f08c379a00000000000000000000000000000000000000000000000000000000081526004016111f890612b8f565b60405180910390fd5b8273ffffffffffffffffffffffffffffffffffffffff166342966c68876040518263ffffffff1660e01b815260040161123a9190612baf565b600060405180830381600087803b15801561125457600080fd5b505af1158015611268573d6000803e3d6000fd5b50505050600560009054906101000a900473ffffffffffffffffffffffffffffffffffffffff1673ffffffffffffffffffffffffffffffffffffffff166323b872dd3033846040518463ffffffff1660e01b81526004016112cb9392919061294f565b602060405180830381600087803b1580156112e557600080fd5b505af11580156112f9573d6000803e3d6000fd5b505050506040513d601f19601f8201168201806040525081019061131d91906123b1565b5081600660008773ffffffffffffffffffffffffffffffffffffffff1673ffffffffffffffffffffffffffffffffffffffff168152602001908152602001600020546113699190612bdb565b600660008773ffffffffffffffffffffffffffffffffffffffff1673ffffffffffffffffffffffffffffffffffffffff1681526020019081526020016000208190555085600460009054906101000a900473ffffffffffffffffffffffffffffffffffffffff1673ffffffffffffffffffffffffffffffffffffffff16639d0214cb896040518263ffffffff1660e01b81526004016114089190612baf565b60206040518083038186803b15801561142057600080fd5b505afa158015611434573d6000803e3d6000fd5b505050506040513d601f19601f82011682018060405250810190611458919061234c565b73ffffffffffffffffffffffffffffffffffffffff16887f2b038598b04ca541b8ff17444794028d8f2a5b72689a4a7331638cfd01368daa33856040516114a0929190612986565b60405180910390a450505050505050565b60008060009054906101000a900473ffffffffffffffffffffffffffffffffffffffff16905090565b6114e26121d9565b73ffffffffffffffffffffffffffffffffffffffff166115006114b1565b73ffffffffffffffffffffffffffffffffffffffff1614611556576040517f08c379a000000000000000000000000000000000000000000000000000000000815260040161154d90612a6f565b60405180910390fd5b600073ffffffffffffffffffffffffffffffffffffffff168173ffffffffffffffffffffffffffffffffffffffff1614156115c6576040517f08c379a00000000000000000000000000000000000000000000000000000000081526004016115bd90612b6f565b60405180910390fd5b80600760006101000a81548173ffffffffffffffffffffffffffffffffffffffff021916908373ffffffffffffffffffffffffffffffffffffffff1602179055508073ffffffffffffffffffffffffffffffffffffffff167f6901da73a3480b0bbd7deb64f259ff29a76ce811c7a3e5cf495f0e1eb4fb4dfb60405160405180910390a250565b6008602052816000526040600020602052806000526040600020600091509150505481565b6000600460009054906101000a900473ffffffffffffffffffffffffffffffffffffffff1673ffffffffffffffffffffffffffffffffffffffff1663a5045a16846040518263ffffffff1660e01b81526004016116cf9190612baf565b60206040518083038186803b1580156116e757600080fd5b505afa1580156116fb573d6000803e3d6000fd5b505050506040513d601f19601f8201168201806040525081019061171f919061234c565b9050600073ffffffffffffffffffffffffffffffffffffffff168173ffffffffffffffffffffffffffffffffffffffff161415611791576040517f08c379a000000000000000000000000000000000000000000000000000000000815260040161178890612a2f565b60405180910390fd5b600460009054906101000a900473ffffffffffffffffffffffffffffffffffffffff1673ffffffffffffffffffffffffffffffffffffffff16631b4ead45846040518263ffffffff1660e01b81526004016117ec9190612baf565b60206040518083038186803b15801561180457600080fd5b505afa158015611818573d6000803e3d6000fd5b505050506040513d601f19601f8201168201806040525081019061183c91906123b1565b61187b576040517f08c379a000000000000000000000000000000000000000000000000000000000815260040161187290612aaf565b60405180910390fd5b60008190506000600460009054906101000a900473ffffffffffffffffffffffffffffffffffffffff1673ffffffffffffffffffffffffffffffffffffffff16639d0214cb866040518263ffffffff1660e01b81526004016118dd9190612baf565b60206040518083038186803b1580156118f557600080fd5b505afa158015611909573d6000803e3d6000fd5b505050506040513d601f19601f8201168201806040525081019061192d919061234c565b90503373ffffffffffffffffffffffffffffffffffffffff168173ffffffffffffffffffffffffffffffffffffffff16636352211e866040518263ffffffff1660e01b815260040161197f9190612baf565b60206040518083038186803b15801561199757600080fd5b505afa1580156119ab573d6000803e3d6000fd5b505050506040513d601f19601f820116820180604052508101906119cf919061234c565b73ffffffffffffffffffffffffffffffffffffffff1614611a25576040517f08c379a0000000000000000000000000000000000000000000000000000000008152600401611a1c90612a8f565b60405180910390fd5b60028173ffffffffffffffffffffffffffffffffffffffff1663989981d7866040518263ffffffff1660e01b8152600401611a609190612baf565b60206040518083038186803b158015611a7857600080fd5b505afa158015611a8c573d6000803e3d6000fd5b505050506040513d601f19601f82011682018060405250810190611ab0919061247b565b60ff161115611af4576040517f08c379a0000000000000000000000000000000000000000000000000000000008152600401611aeb90612b0f565b60405180910390fd5b6000670de0b6b3a76400008273ffffffffffffffffffffffffffffffffffffffff16639ab8ee15876040518263ffffffff1660e01b8152600401611b389190612baf565b60206040518083038186803b158015611b5057600080fd5b505afa158015611b64573d6000803e3d6000fd5b505050506040513d601f19601f82011682018060405250810190611b8891906123da565b611b929190612c31565b905060008273ffffffffffffffffffffffffffffffffffffffff166396f53711670de0b6b3a764000088611bc69190612c31565b6040518263ffffffff1660e01b8152600401611be29190612baf565b60206040518083038186803b158015611bfa57600080fd5b505afa158015611c0e573d6000803e3d6000fd5b505050506040513d601f19601f82011682018060405250810190611c3291906123da565b905060008211611c77576040517f08c379a0000000000000000000000000000000000000000000000000000000008152600401611c6e906129af565b60405180910390fd5b818473ffffffffffffffffffffffffffffffffffffffff166370a08231306040518263ffffffff1660e01b8152600401611cb19190612934565b60206040518083038186803b158015611cc957600080fd5b505afa158015611cdd573d6000803e3d6000fd5b505050506040513d601f19601f82011682018060405250810190611d0191906123da565b1015611d42576040517f08c379a0000000000000000000000000000000000000000000000000000000008152600401611d3990612a4f565b60405180910390fd5b80600560009054906101000a900473ffffffffffffffffffffffffffffffffffffffff1673ffffffffffffffffffffffffffffffffffffffff166370a08231306040518263ffffffff1660e01b8152600401611d9e9190612934565b60206040518083038186803b158015611db657600080fd5b505afa158015611dca573d6000803e3d6000fd5b505050506040513d601f19601f82011682018060405250810190611dee91906123da565b1015611e2f576040517f08c379a0000000000000000000000000000000000000000000000000000000008152600401611e2690612b8f565b60405180910390fd5b8273ffffffffffffffffffffffffffffffffffffffff166342966c68876040518263ffffffff1660e01b8152600401611e689190612baf565b600060405180830381600087803b158015611e8257600080fd5b505af1158015611e96573d6000803e3d6000fd5b505050508373ffffffffffffffffffffffffffffffffffffffff166323b872dd3033856040518463ffffffff1660e01b8152600401611ed79392919061294f565b602060405180830381600087803b158015611ef157600080fd5b505af1158015611f05573d6000803e3d6000fd5b505050506040513d601f19601f82011682018060405250810190611f2991906123b1565b50600560009054906101000a900473ffffffffffffffffffffffffffffffffffffffff1673ffffffffffffffffffffffffffffffffffffffff16636aade28830836040518363ffffffff1660e01b8152600401611f87929190612986565b602060405180830381600087803b158015611fa157600080fd5b505af1158015611fb5573d6000803e3d6000fd5b505050506040513d601f19601f82011682018060405250810190611fd991906123b1565b5085600460009054906101000a900473ffffffffffffffffffffffffffffffffffffffff1673ffffffffffffffffffffffffffffffffffffffff16639d0214cb896040518263ffffffff1660e01b81526004016120369190612baf565b60206040518083038186803b15801561204e57600080fd5b505afa158015612062573d6000803e3d6000fd5b505050506040513d601f19601f82011682018060405250810190612086919061234c565b73ffffffffffffffffffffffffffffffffffffffff16887f0f4900e98e66735cb9b522e25d2c98dd16c986ede7f115c66053e8a8cbeb42573389876040516120d09392919061294f565b60405180910390a450505050505050565b6120e96121d9565b73ffffffffffffffffffffffffffffffffffffffff166121076114b1565b73ffffffffffffffffffffffffffffffffffffffff161461215d576040517f08c379a000000000000000000000000000000000000000000000000000000000815260040161215490612a6f565b60405180910390fd5b600073ffffffffffffffffffffffffffffffffffffffff168173ffffffffffffffffffffffffffffffffffffffff1614156121cd576040517f08c379a00000000000000000000000000000000000000000000000000000000081526004016121c4906129cf565b60405180910390fd5b6121d6816121e1565b50565b600033905090565b60008060009054906101000a900473ffffffffffffffffffffffffffffffffffffffff169050816000806101000a81548173ffffffffffffffffffffffffffffffffffffffff021916908373ffffffffffffffffffffffffffffffffffffffff1602179055508173ffffffffffffffffffffffffffffffffffffffff168173ffffffffffffffffffffffffffffffffffffffff167f8be0079c531659141344cd1fd0a4f28419497f9722a3daafe3b4186f6b6457e060405160405180910390a35050565b6000813590506122b481612d49565b92915050565b6000815190506122c981612d49565b92915050565b6000815190506122de81612d60565b92915050565b6000813590506122f381612d77565b92915050565b60008151905061230881612d77565b92915050565b60008151905061231d81612d8e565b92915050565b60006020828403121561233557600080fd5b6000612343848285016122a5565b91505092915050565b60006020828403121561235e57600080fd5b600061236c848285016122ba565b91505092915050565b6000806040838503121561238857600080fd5b6000612396858286016122a5565b92505060206123a7858286016122e4565b9150509250929050565b6000602082840312156123c357600080fd5b60006123d1848285016122cf565b91505092915050565b6000602082840312156123ec57600080fd5b60006123fa848285016122f9565b91505092915050565b6000806040838503121561241657600080fd5b6000612424858286016122e4565b9250506020612435858286016122a5565b9150509250929050565b6000806040838503121561245257600080fd5b6000612460858286016122e4565b9250506020612471858286016122e4565b9150509250929050565b60006020828403121561248d57600080fd5b600061249b8482850161230e565b91505092915050565b6124ad81612c96565b82525050565b60006124c0601f83612bca565b91507f4c69676874686f7573653a204e46545f5a45524f5f414c4c4f434154494f4e006000830152602082019050919050565b6000612500602683612bca565b91507f4f776e61626c653a206e6577206f776e657220697320746865207a65726f206160008301527f64647265737300000000000000000000000000000000000000000000000000006020830152604082019050919050565b6000612566601e83612bca565b91507f4c69676874686f7573653a204e4f545f454e4f5547485f42414c414e434500006000830152602082019050919050565b60006125a6601d83612bca565b91507f4c69676874686f7573653a204e4f5f5354414b45525f414444524553530000006000830152602082019050919050565b60006125e6601283612bca565b91507f4c69676874686f7573653a204e4f5f50434300000000000000000000000000006000830152602082019050919050565b6000612626601a83612bca565b91507f4c69676874686f7573653a204e4f545f454e4f5547485f5043430000000000006000830152602082019050919050565b6000612666602083612bca565b91507f4f776e61626c653a2063616c6c6572206973206e6f7420746865206f776e65726000830152602082019050919050565b60006126a6601983612bca565b91507f4c69676874686f7573653a204e4f545f4e46545f4f574e4552000000000000006000830152602082019050919050565b60006126e6602a83612bca565b91507f4c69676874686f7573653a20414c4c4f434154494f4e5f4e4f545f494e49544960008301527f414c495a45445f594554000000000000000000000000000000000000000000006020830152604082019050919050565b600061274c601783612bca565b91507f4c69676874686f7573653a20494e56414c49445f5043430000000000000000006000830152602082019050919050565b600061278c602183612bca565b91507f4c69676874686f7573653a204e46545f5a45524f5f434f4d50454e534154494f60008301527f4e000000000000000000000000000000000000000000000000000000000000006020830152604082019050919050565b60006127f2601f83612bca565b91507f4c69676874686f7573653a20464f5242494444454e5f4d494e545f54595045006000830152602082019050919050565b6000612832601583612bca565b91507f4c69676874686f7573653a20464f5242494444454e00000000000000000000006000830152602082019050919050565b6000612872601a83612bca565b91507f4c69676874686f7573653a205a45524f5f504152414d455445520000000000006000830152602082019050919050565b60006128b2601883612bca565b91507f4c69676874686f7573653a205a45524f5f4144445245535300000000000000006000830152602082019050919050565b60006128f2601d83612bca565b91507f4c69676874686f7573653a204e4f545f454e4f5547485f43524f574e530000006000830152602082019050919050565b61292e81612cd4565b82525050565b600060208201905061294960008301846124a4565b92915050565b600060608201905061296460008301866124a4565b61297160208301856124a4565b61297e6040830184612925565b949350505050565b600060408201905061299b60008301856124a4565b6129a86020830184612925565b9392505050565b600060208201905081810360008301526129c8816124b3565b9050919050565b600060208201905081810360008301526129e8816124f3565b9050919050565b60006020820190508181036000830152612a0881612559565b9050919050565b60006020820190508181036000830152612a2881612599565b9050919050565b60006020820190508181036000830152612a48816125d9565b9050919050565b60006020820190508181036000830152612a6881612619565b9050919050565b60006020820190508181036000830152612a8881612659565b9050919050565b60006020820190508181036000830152612aa881612699565b9050919050565b60006020820190508181036000830152612ac8816126d9565b9050919050565b60006020820190508181036000830152612ae88161273f565b9050919050565b60006020820190508181036000830152612b088161277f565b9050919050565b60006020820190508181036000830152612b28816127e5565b9050919050565b60006020820190508181036000830152612b4881612825565b9050919050565b60006020820190508181036000830152612b6881612865565b9050919050565b60006020820190508181036000830152612b88816128a5565b9050919050565b60006020820190508181036000830152612ba8816128e5565b9050919050565b6000602082019050612bc46000830184612925565b92915050565b600082825260208201905092915050565b6000612be682612cd4565b9150612bf183612cd4565b9250827fffffffffffffffffffffffffffffffffffffffffffffffffffffffffffffffff03821115612c2657612c25612ceb565b5b828201905092915050565b6000612c3c82612cd4565b9150612c4783612cd4565b925082612c5757612c56612d1a565b5b828204905092915050565b6000612c6d82612cd4565b9150612c7883612cd4565b925082821015612c8b57612c8a612ceb565b5b828203905092915050565b6000612ca182612cb4565b9050919050565b60008115159050919050565b600073ffffffffffffffffffffffffffffffffffffffff82169050919050565b6000819050919050565b600060ff82169050919050565b7f4e487b7100000000000000000000000000000000000000000000000000000000600052601160045260246000fd5b7f4e487b7100000000000000000000000000000000000000000000000000000000600052601260045260246000fd5b612d5281612c96565b8114612d5d57600080fd5b50565b612d6981612ca8565b8114612d7457600080fd5b50565b612d8081612cd4565b8114612d8b57600080fd5b50565b612d9781612cde565b8114612da257600080fd5b5056fea26469706673582212200f2dc5a9195f0a6f31d7207dbaf452c45b55cc9939933d676b97bad3819a5d9864736f6c63430008000033",
  "linkReferences": {},
  "deployedLinkReferences": {}
}