{
  "_format": "hh-sol-artifact-1",
  "contractName": "LighthouseBurn",
  "sourceName": "contracts/LighthouseBurn.sol",
  "abi": [
    {
      "inputs": [
        {
          "internalType": "address",
          "name": "_lighthouseAuction",
          "type": "address"
        },
        {
          "internalType": "address",
          "name": "_lighthousePrefund",
          "type": "address"
        },
        {
          "internalType": "address",
          "name": "_lighthouseTier",
          "type": "address"
        },
        {
          "internalType": "address",
          "name": "_crowns",
          "type": "address"
        },
        {
          "internalType": "address",
          "name": "_project",
          "type": "address"
        }
      ],
      "stateMutability": "nonpayable",
      "type": "constructor"
    },
    {
      "anonymous": false,
      "inputs": [
        {
          "indexed": true,
          "internalType": "uint256",
          "name": "projectId",
          "type": "uint256"
        },
        {
          "indexed": true,
          "internalType": "address",
          "name": "pcc",
          "type": "address"
        }
      ],
      "name": "AddPCC",
      "type": "event"
    },
    {
      "anonymous": false,
      "inputs": [
        {
          "indexed": true,
          "internalType": "uint256",
          "name": "projectId",
          "type": "uint256"
        },
        {
          "indexed": false,
          "internalType": "uint256",
          "name": "prefundPool",
          "type": "uint256"
        },
        {
          "indexed": false,
          "internalType": "uint256",
          "name": "auctionPool",
          "type": "uint256"
        },
        {
          "indexed": false,
          "internalType": "uint256",
          "name": "prefundCompensation",
          "type": "uint256"
        },
        {
          "indexed": false,
          "internalType": "uint256",
          "name": "auctionCompensation",
          "type": "uint256"
        },
        {
          "indexed": true,
          "internalType": "address",
          "name": "lighthouse",
          "type": "address"
        },
        {
          "indexed": false,
          "internalType": "uint256",
          "name": "startTime",
          "type": "uint256"
        }
      ],
      "name": "AddProject",
      "type": "event"
    },
    {
      "anonymous": false,
      "inputs": [
        {
          "indexed": true,
          "internalType": "uint256",
          "name": "projectId",
          "type": "uint256"
        },
        {
          "indexed": true,
          "internalType": "address",
          "name": "lighthouse",
          "type": "address"
        },
        {
          "indexed": true,
          "internalType": "uint256",
          "name": "nftId",
          "type": "uint256"
        },
        {
          "indexed": false,
          "internalType": "address",
          "name": "owner",
          "type": "address"
        },
        {
          "indexed": false,
          "internalType": "uint256",
          "name": "compensation",
          "type": "uint256"
        }
      ],
      "name": "BurnForCWS",
      "type": "event"
    },
    {
      "anonymous": false,
      "inputs": [
        {
          "indexed": true,
          "internalType": "uint256",
          "name": "projectId",
          "type": "uint256"
        },
        {
          "indexed": true,
          "internalType": "address",
          "name": "lighthouse",
          "type": "address"
        },
        {
          "indexed": true,
          "internalType": "uint256",
          "name": "nftId",
          "type": "uint256"
        },
        {
          "indexed": false,
          "internalType": "address",
          "name": "owner",
          "type": "address"
        },
        {
          "indexed": false,
          "internalType": "address",
          "name": "pcc",
          "type": "address"
        },
        {
          "indexed": false,
          "internalType": "uint256",
          "name": "allocation",
          "type": "uint256"
        }
      ],
      "name": "BurnForPCC",
      "type": "event"
    },
    {
      "anonymous": false,
      "inputs": [
        {
          "indexed": true,
          "internalType": "address",
          "name": "previousOwner",
          "type": "address"
        },
        {
          "indexed": true,
          "internalType": "address",
          "name": "newOwner",
          "type": "address"
        }
      ],
      "name": "OwnershipTransferred",
      "type": "event"
    },
    {
      "inputs": [
        {
          "internalType": "uint256",
          "name": "projectId",
          "type": "uint256"
        },
        {
          "internalType": "uint256",
          "name": "prefundPool",
          "type": "uint256"
        },
        {
          "internalType": "uint256",
          "name": "auctionPool",
          "type": "uint256"
        },
        {
          "internalType": "uint256",
          "name": "prefundCompensation",
          "type": "uint256"
        },
        {
          "internalType": "uint256",
          "name": "auctionCompensation",
          "type": "uint256"
        },
        {
          "internalType": "uint256",
          "name": "startTime",
          "type": "uint256"
        },
        {
          "internalType": "address",
          "name": "lighthouse",
          "type": "address"
        }
      ],
      "name": "addProject",
      "outputs": [],
      "stateMutability": "nonpayable",
      "type": "function"
    },
    {
      "inputs": [
        {
          "internalType": "uint256",
          "name": "projectId",
          "type": "uint256"
        },
        {
          "internalType": "address",
          "name": "pcc",
          "type": "address"
        }
      ],
      "name": "addProjectPcc",
      "outputs": [],
      "stateMutability": "nonpayable",
      "type": "function"
    },
    {
      "inputs": [
        {
          "internalType": "uint256",
          "name": "projectId",
          "type": "uint256"
        },
        {
          "internalType": "uint256",
          "name": "nftId",
          "type": "uint256"
        }
      ],
      "name": "burnForCws",
      "outputs": [],
      "stateMutability": "nonpayable",
      "type": "function"
    },
    {
      "inputs": [
        {
          "internalType": "uint256",
          "name": "projectId",
          "type": "uint256"
        },
        {
          "internalType": "uint256",
          "name": "nftId",
          "type": "uint256"
        }
      ],
      "name": "burnForPcc",
      "outputs": [],
      "stateMutability": "nonpayable",
      "type": "function"
    },
    {
      "inputs": [
        {
          "internalType": "uint256",
          "name": "projectId",
          "type": "uint256"
        },
        {
          "internalType": "uint256",
          "name": "anotherProjectId",
          "type": "uint256"
        },
        {
          "internalType": "address",
          "name": "nftAddress",
          "type": "address"
        },
        {
          "internalType": "uint256",
          "name": "nftId",
          "type": "uint256"
        }
      ],
      "name": "burnForProject",
      "outputs": [],
      "stateMutability": "nonpayable",
      "type": "function"
    },
    {
      "inputs": [
        {
          "internalType": "uint256",
          "name": "",
          "type": "uint256"
        },
        {
          "internalType": "address",
          "name": "",
          "type": "address"
        }
      ],
      "name": "mintedNfts",
      "outputs": [
        {
          "internalType": "uint256",
          "name": "",
          "type": "uint256"
        }
      ],
      "stateMutability": "view",
      "type": "function"
    },
    {
      "inputs": [],
      "name": "owner",
      "outputs": [
        {
          "internalType": "address",
          "name": "",
          "type": "address"
        }
      ],
      "stateMutability": "view",
      "type": "function"
    },
    {
      "inputs": [
        {
          "internalType": "uint256",
          "name": "",
          "type": "uint256"
        }
      ],
      "name": "projects",
      "outputs": [
        {
          "internalType": "uint256",
          "name": "prefundPool",
          "type": "uint256"
        },
        {
          "internalType": "uint256",
          "name": "auctionPool",
          "type": "uint256"
        },
        {
          "internalType": "uint256",
          "name": "prefundCompensation",
          "type": "uint256"
        },
        {
          "internalType": "uint256",
          "name": "auctionCompensation",
          "type": "uint256"
        },
        {
          "internalType": "uint256",
          "name": "ratio",
          "type": "uint256"
        },
        {
          "internalType": "uint256",
          "name": "pool",
          "type": "uint256"
        },
        {
          "internalType": "uint256",
          "name": "compensation",
          "type": "uint256"
        },
        {
          "internalType": "address",
          "name": "pcc",
          "type": "address"
        },
        {
          "internalType": "address",
          "name": "lighthouse",
          "type": "address"
        },
        {
          "internalType": "uint256",
          "name": "startTime",
          "type": "uint256"
        }
      ],
      "stateMutability": "view",
      "type": "function"
    },
    {
      "inputs": [],
      "name": "renounceOwnership",
      "outputs": [],
      "stateMutability": "nonpayable",
      "type": "function"
    },
    {
      "inputs": [
        {
          "internalType": "address",
          "name": "newOwner",
          "type": "address"
        }
      ],
      "name": "transferOwnership",
      "outputs": [],
      "stateMutability": "nonpayable",
      "type": "function"
    }
  ],
  "bytecode": "0x60806040523480156200001157600080fd5b506040516200276b3803806200276b8339818101604052810190620000379190620003e5565b620000576200004b6200030260201b60201c565b6200030a60201b60201c565b600073ffffffffffffffffffffffffffffffffffffffff168573ffffffffffffffffffffffffffffffffffffffff1614158015620000c25750600073ffffffffffffffffffffffffffffffffffffffff168273ffffffffffffffffffffffffffffffffffffffff1614155b8015620000fc5750600073ffffffffffffffffffffffffffffffffffffffff168473ffffffffffffffffffffffffffffffffffffffff1614155b8015620001365750600073ffffffffffffffffffffffffffffffffffffffff168373ffffffffffffffffffffffffffffffffffffffff1614155b8015620001705750600073ffffffffffffffffffffffffffffffffffffffff168173ffffffffffffffffffffffffffffffffffffffff1614155b620001b2576040517f08c379a0000000000000000000000000000000000000000000000000000000008152600401620001a990620004a9565b60405180910390fd5b84600160006101000a81548173ffffffffffffffffffffffffffffffffffffffff021916908373ffffffffffffffffffffffffffffffffffffffff16021790555083600260006101000a81548173ffffffffffffffffffffffffffffffffffffffff021916908373ffffffffffffffffffffffffffffffffffffffff16021790555082600360006101000a81548173ffffffffffffffffffffffffffffffffffffffff021916908373ffffffffffffffffffffffffffffffffffffffff16021790555080600460006101000a81548173ffffffffffffffffffffffffffffffffffffffff021916908373ffffffffffffffffffffffffffffffffffffffff16021790555081600560006101000a81548173ffffffffffffffffffffffffffffffffffffffff021916908373ffffffffffffffffffffffffffffffffffffffff16021790555050505050506200052a565b600033905090565b60008060009054906101000a900473ffffffffffffffffffffffffffffffffffffffff169050816000806101000a81548173ffffffffffffffffffffffffffffffffffffffff021916908373ffffffffffffffffffffffffffffffffffffffff1602179055508173ffffffffffffffffffffffffffffffffffffffff168173ffffffffffffffffffffffffffffffffffffffff167f8be0079c531659141344cd1fd0a4f28419497f9722a3daafe3b4186f6b6457e060405160405180910390a35050565b600081519050620003df8162000510565b92915050565b600080600080600060a08688031215620003fe57600080fd5b60006200040e88828901620003ce565b95505060206200042188828901620003ce565b94505060406200043488828901620003ce565b93505060606200044788828901620003ce565b92505060806200045a88828901620003ce565b9150509295509295909350565b600062000476601883620004cb565b91507f4c69676874686f7573653a205a45524f5f4144445245535300000000000000006000830152602082019050919050565b60006020820190508181036000830152620004c48162000467565b9050919050565b600082825260208201905092915050565b6000620004e982620004f0565b9050919050565b600073ffffffffffffffffffffffffffffffffffffffff82169050919050565b6200051b81620004dc565b81146200052757600080fd5b50565b612231806200053a6000396000f3fe608060405234801561001057600080fd5b506004361061009e5760003560e01c806385d044661161006657806385d044661461013a5780638da5cb5b14610156578063da8e78fd14610174578063e1259a87146101a4578063f2fde38b146101c05761009e565b80630c664189146100a3578063107046bd146100bf57806354993323146100f8578063696bd13d14610114578063715018a614610130575b600080fd5b6100bd60048036038101906100b89190611740565b6101dc565b005b6100d960048036038101906100d491906116ee565b610441565b6040516100ef9a99989796959493929190611f4e565b60405180910390f35b610112600480360381019061010d9190611857565b6104d5565b005b61012e600480360381019061012991906117f4565b610ac1565b005b610138610ac7565b005b610154600480360381019061014f919061177c565b610b4f565b005b61015e610f83565b60405161016b9190611cc5565b60405180910390f35b61018e60048036038101906101899190611740565b610fac565b60405161019b9190611ee0565b60405180910390f35b6101be60048036038101906101b9919061177c565b610fd1565b005b6101da60048036038101906101d59190611673565b611446565b005b6101e461153e565b73ffffffffffffffffffffffffffffffffffffffff16610202610f83565b73ffffffffffffffffffffffffffffffffffffffff1614610258576040517f08c379a000000000000000000000000000000000000000000000000000000000815260040161024f90611de0565b60405180910390fd5b6000821161029b576040517f08c379a000000000000000000000000000000000000000000000000000000000815260040161029290611e60565b60405180910390fd5b600073ffffffffffffffffffffffffffffffffffffffff168173ffffffffffffffffffffffffffffffffffffffff16141561030b576040517f08c379a000000000000000000000000000000000000000000000000000000000815260040161030290611ec0565b60405180910390fd5b6000600660008481526020019081526020016000209050600073ffffffffffffffffffffffffffffffffffffffff168160070160009054906101000a900473ffffffffffffffffffffffffffffffffffffffff1673ffffffffffffffffffffffffffffffffffffffff16146103b5576040517f08c379a00000000000000000000000000000000000000000000000000000000081526004016103ac90611ea0565b60405180910390fd5b818160070160006101000a81548173ffffffffffffffffffffffffffffffffffffffff021916908373ffffffffffffffffffffffffffffffffffffffff1602179055508173ffffffffffffffffffffffffffffffffffffffff16837f8e35588fe3af09a9e4fed9970d5829d649ac93c62a5412873b5c4a39afeec18660405160405180910390a3505050565b60066020528060005260406000206000915090508060000154908060010154908060020154908060030154908060040154908060050154908060060154908060070160009054906101000a900473ffffffffffffffffffffffffffffffffffffffff16908060080160009054906101000a900473ffffffffffffffffffffffffffffffffffffffff1690806009015490508a565b6104dd61153e565b73ffffffffffffffffffffffffffffffffffffffff166104fb610f83565b73ffffffffffffffffffffffffffffffffffffffff1614610551576040517f08c379a000000000000000000000000000000000000000000000000000000000815260040161054890611de0565b60405180910390fd5b6000871180156105615750600086115b801561056d5750600085115b80156105795750600084115b80156105855750600083115b6105c4576040517f08c379a00000000000000000000000000000000000000000000000000000000081526004016105bb90611e80565b60405180910390fd5b600073ffffffffffffffffffffffffffffffffffffffff168173ffffffffffffffffffffffffffffffffffffffff161415610634576040517f08c379a000000000000000000000000000000000000000000000000000000000815260040161062b90611ec0565b60405180910390fd5b600060066000898152602001908152602001600020600901541461068d576040517f08c379a000000000000000000000000000000000000000000000000000000000815260040161068490611da0565b60405180910390fd5b600082116106d0576040517f08c379a00000000000000000000000000000000000000000000000000000000081526004016106c790611e80565b60405180910390fd5b6000600460009054906101000a900473ffffffffffffffffffffffffffffffffffffffff1673ffffffffffffffffffffffffffffffffffffffff1663777de704896040518263ffffffff1660e01b815260040161072d9190611ee0565b60206040518083038186803b15801561074557600080fd5b505afa158015610759573d6000803e3d6000fd5b505050506040513d601f19601f8201168201806040525081019061077d9190611717565b9050600081116107c2576040517f08c379a00000000000000000000000000000000000000000000000000000000081526004016107b990611d80565b60405180910390fd5b80831015610805576040517f08c379a00000000000000000000000000000000000000000000000000000000081526004016107fc90611e40565b60405180910390fd5b6000600660008a81526020019081526020016000209050600080600460009054906101000a900473ffffffffffffffffffffffffffffffffffffffff1673ffffffffffffffffffffffffffffffffffffffff1663943df3158c6040518263ffffffff1660e01b815260040161087a9190611ee0565b604080518083038186803b15801561089157600080fd5b505afa1580156108a5573d6000803e3d6000fd5b505050506040513d601f19601f820116820180604052508101906108c991906117b8565b8092508193505050818110156109965760006064836108e89190612051565b82846108f491906120dc565b6108fe9190612051565b90508060648c61090e9190612051565b6109189190612082565b8a6109239190611ffb565b99508060648c6109339190612051565b61093d9190612082565b8b61094891906120dc565b9a508060648a6109589190612051565b6109629190612082565b8861096d9190611ffb565b97508060648a61097d9190612051565b6109879190612082565b8961099291906120dc565b9850505b898360000181905550888360010181905550878360020181905550868360030181905550888a6109c69190611ffb565b836005018190555086886109da9190611ffb565b8360060181905550848360080160006101000a81548173ffffffffffffffffffffffffffffffffffffffff021916908373ffffffffffffffffffffffffffffffffffffffff1602179055508583600901819055508260060154670de0b6b3a76400008460050154610a4b9190612082565b610a559190612051565b83600401819055508473ffffffffffffffffffffffffffffffffffffffff168b7f5c5192af912419ed7d4827db74f71b5415c8e51d7e02ff605e470a9e8ed6cdc38c8c8c8c8c604051610aac959493929190611efb565b60405180910390a35050505050505050505050565b50505050565b610acf61153e565b73ffffffffffffffffffffffffffffffffffffffff16610aed610f83565b73ffffffffffffffffffffffffffffffffffffffff1614610b43576040517f08c379a0000000000000000000000000000000000000000000000000000000008152600401610b3a90611de0565b60405180910390fd5b610b4d6000611546565b565b6000600660008481526020019081526020016000209050600073ffffffffffffffffffffffffffffffffffffffff168160070160009054906101000a900473ffffffffffffffffffffffffffffffffffffffff1673ffffffffffffffffffffffffffffffffffffffff161415610bfa576040517f08c379a0000000000000000000000000000000000000000000000000000000008152600401610bf190611dc0565b60405180910390fd5b60008160080160009054906101000a900473ffffffffffffffffffffffffffffffffffffffff1690503373ffffffffffffffffffffffffffffffffffffffff168173ffffffffffffffffffffffffffffffffffffffff16636352211e856040518263ffffffff1660e01b8152600401610c739190611ee0565b60206040518083038186803b158015610c8b57600080fd5b505afa158015610c9f573d6000803e3d6000fd5b505050506040513d601f19601f82011682018060405250810190610cc3919061169c565b73ffffffffffffffffffffffffffffffffffffffff1614610d19576040517f08c379a0000000000000000000000000000000000000000000000000000000008152600401610d1090611e00565b60405180910390fd5b60008173ffffffffffffffffffffffffffffffffffffffff1663434d382d856040518263ffffffff1660e01b8152600401610d549190611ee0565b60206040518083038186803b158015610d6c57600080fd5b505afa158015610d80573d6000803e3d6000fd5b505050506040513d601f19601f82011682018060405250810190610da49190611717565b905060008111610de9576040517f08c379a0000000000000000000000000000000000000000000000000000000008152600401610de090611e20565b60405180910390fd5b8173ffffffffffffffffffffffffffffffffffffffff166342966c68856040518263ffffffff1660e01b8152600401610e229190611ee0565b600060405180830381600087803b158015610e3c57600080fd5b505af1158015610e50573d6000803e3d6000fd5b50505050600560009054906101000a900473ffffffffffffffffffffffffffffffffffffffff1673ffffffffffffffffffffffffffffffffffffffff166323b872dd3033846040518463ffffffff1660e01b8152600401610eb393929190611ce0565b602060405180830381600087803b158015610ecd57600080fd5b505af1158015610ee1573d6000803e3d6000fd5b505050506040513d601f19601f82011682018060405250810190610f0591906116c5565b50838360080160009054906101000a900473ffffffffffffffffffffffffffffffffffffffff1673ffffffffffffffffffffffffffffffffffffffff16867f2b038598b04ca541b8ff17444794028d8f2a5b72689a4a7331638cfd01368daa3385604051610f74929190611d17565b60405180910390a45050505050565b60008060009054906101000a900473ffffffffffffffffffffffffffffffffffffffff16905090565b6007602052816000526040600020602052806000526040600020600091509150505481565b6000600660008481526020019081526020016000209050600073ffffffffffffffffffffffffffffffffffffffff168160070160009054906101000a900473ffffffffffffffffffffffffffffffffffffffff1673ffffffffffffffffffffffffffffffffffffffff16141561107c576040517f08c379a000000000000000000000000000000000000000000000000000000000815260040161107390611dc0565b60405180910390fd5b60008160080160009054906101000a900473ffffffffffffffffffffffffffffffffffffffff1690503373ffffffffffffffffffffffffffffffffffffffff168173ffffffffffffffffffffffffffffffffffffffff16636352211e856040518263ffffffff1660e01b81526004016110f59190611ee0565b60206040518083038186803b15801561110d57600080fd5b505afa158015611121573d6000803e3d6000fd5b505050506040513d601f19601f82011682018060405250810190611145919061169c565b73ffffffffffffffffffffffffffffffffffffffff161461119b576040517f08c379a000000000000000000000000000000000000000000000000000000000815260040161119290611e00565b60405180910390fd5b6000670de0b6b3a76400008273ffffffffffffffffffffffffffffffffffffffff16635a5804b3866040518263ffffffff1660e01b81526004016111df9190611ee0565b60206040518083038186803b1580156111f757600080fd5b505afa15801561120b573d6000803e3d6000fd5b505050506040513d601f19601f8201168201806040525081019061122f9190611717565b6112399190612051565b90506000811161127e576040517f08c379a000000000000000000000000000000000000000000000000000000000815260040161127590611d40565b60405180910390fd5b8173ffffffffffffffffffffffffffffffffffffffff166342966c68856040518263ffffffff1660e01b81526004016112b79190611ee0565b600060405180830381600087803b1580156112d157600080fd5b505af11580156112e5573d6000803e3d6000fd5b5050505060008360070160009054906101000a900473ffffffffffffffffffffffffffffffffffffffff1690508073ffffffffffffffffffffffffffffffffffffffff166323b872dd3033856040518463ffffffff1660e01b815260040161134f93929190611ce0565b602060405180830381600087803b15801561136957600080fd5b505af115801561137d573d6000803e3d6000fd5b505050506040513d601f19601f820116820180604052508101906113a191906116c5565b50848460080160009054906101000a900473ffffffffffffffffffffffffffffffffffffffff1673ffffffffffffffffffffffffffffffffffffffff16877f0f4900e98e66735cb9b522e25d2c98dd16c986ede7f115c66053e8a8cbeb4257338860070160009054906101000a900473ffffffffffffffffffffffffffffffffffffffff168760405161143693929190611ce0565b60405180910390a4505050505050565b61144e61153e565b73ffffffffffffffffffffffffffffffffffffffff1661146c610f83565b73ffffffffffffffffffffffffffffffffffffffff16146114c2576040517f08c379a00000000000000000000000000000000000000000000000000000000081526004016114b990611de0565b60405180910390fd5b600073ffffffffffffffffffffffffffffffffffffffff168173ffffffffffffffffffffffffffffffffffffffff161415611532576040517f08c379a000000000000000000000000000000000000000000000000000000000815260040161152990611d60565b60405180910390fd5b61153b81611546565b50565b600033905090565b60008060009054906101000a900473ffffffffffffffffffffffffffffffffffffffff169050816000806101000a81548173ffffffffffffffffffffffffffffffffffffffff021916908373ffffffffffffffffffffffffffffffffffffffff1602179055508173ffffffffffffffffffffffffffffffffffffffff168173ffffffffffffffffffffffffffffffffffffffff167f8be0079c531659141344cd1fd0a4f28419497f9722a3daafe3b4186f6b6457e060405160405180910390a35050565b600081359050611619816121b6565b92915050565b60008151905061162e816121b6565b92915050565b600081519050611643816121cd565b92915050565b600081359050611658816121e4565b92915050565b60008151905061166d816121e4565b92915050565b60006020828403121561168557600080fd5b60006116938482850161160a565b91505092915050565b6000602082840312156116ae57600080fd5b60006116bc8482850161161f565b91505092915050565b6000602082840312156116d757600080fd5b60006116e584828501611634565b91505092915050565b60006020828403121561170057600080fd5b600061170e84828501611649565b91505092915050565b60006020828403121561172957600080fd5b60006117378482850161165e565b91505092915050565b6000806040838503121561175357600080fd5b600061176185828601611649565b92505060206117728582860161160a565b9150509250929050565b6000806040838503121561178f57600080fd5b600061179d85828601611649565b92505060206117ae85828601611649565b9150509250929050565b600080604083850312156117cb57600080fd5b60006117d98582860161165e565b92505060206117ea8582860161165e565b9150509250929050565b6000806000806080858703121561180a57600080fd5b600061181887828801611649565b945050602061182987828801611649565b935050604061183a8782880161160a565b925050606061184b87828801611649565b91505092959194509250565b600080600080600080600060e0888a03121561187257600080fd5b60006118808a828b01611649565b97505060206118918a828b01611649565b96505060406118a28a828b01611649565b95505060606118b38a828b01611649565b94505060806118c48a828b01611649565b93505060a06118d58a828b01611649565b92505060c06118e68a828b0161160a565b91505092959891949750929550565b6118fe81612110565b82525050565b6000611911601f83611fea565b91507f4c69676874686f7573653a204e46545f5a45524f5f414c4c4f434154494f4e006000830152602082019050919050565b6000611951602683611fea565b91507f4f776e61626c653a206e6577206f776e657220697320746865207a65726f206160008301527f64647265737300000000000000000000000000000000000000000000000000006020830152604082019050919050565b60006119b7601f83611fea565b91507f4c69676874686f7573653a204e4f5f41554354494f4e5f454e445f54494d45006000830152602082019050919050565b60006119f7601b83611fea565b91507f4c69676874686f7573653a20414c52454144595f5354415254454400000000006000830152602082019050919050565b6000611a37601283611fea565b91507f4c69676874686f7573653a204e4f5f50434300000000000000000000000000006000830152602082019050919050565b6000611a77602083611fea565b91507f4f776e61626c653a2063616c6c6572206973206e6f7420746865206f776e65726000830152602082019050919050565b6000611ab7601983611fea565b91507f4c69676874686f7573653a204e4f545f4e46545f4f574e4552000000000000006000830152602082019050919050565b6000611af7602183611fea565b91507f4c69676874686f7573653a204e46545f5a45524f5f434f4d50454e534154494f60008301527f4e000000000000000000000000000000000000000000000000000000000000006020830152604082019050919050565b6000611b5d602983611fea565b91507f4c69676874686f7573653a2053544152545f54494d455f4245464f52455f415560008301527f4354494f4e5f454e4400000000000000000000000000000000000000000000006020830152604082019050919050565b6000611bc3601d83611fea565b91507f4c69676874686f7573653a2050524f4a4543545f4e4f545f45584953540000006000830152602082019050919050565b6000611c03601a83611fea565b91507f4c69676874686f7573653a205a45524f5f504152414d455445520000000000006000830152602082019050919050565b6000611c43601983611fea565b91507f4c69676874686f7573653a20414c52454144595f4144444544000000000000006000830152602082019050919050565b6000611c83601883611fea565b91507f4c69676874686f7573653a205a45524f5f4144445245535300000000000000006000830152602082019050919050565b611cbf8161214e565b82525050565b6000602082019050611cda60008301846118f5565b92915050565b6000606082019050611cf560008301866118f5565b611d0260208301856118f5565b611d0f6040830184611cb6565b949350505050565b6000604082019050611d2c60008301856118f5565b611d396020830184611cb6565b9392505050565b60006020820190508181036000830152611d5981611904565b9050919050565b60006020820190508181036000830152611d7981611944565b9050919050565b60006020820190508181036000830152611d99816119aa565b9050919050565b60006020820190508181036000830152611db9816119ea565b9050919050565b60006020820190508181036000830152611dd981611a2a565b9050919050565b60006020820190508181036000830152611df981611a6a565b9050919050565b60006020820190508181036000830152611e1981611aaa565b9050919050565b60006020820190508181036000830152611e3981611aea565b9050919050565b60006020820190508181036000830152611e5981611b50565b9050919050565b60006020820190508181036000830152611e7981611bb6565b9050919050565b60006020820190508181036000830152611e9981611bf6565b9050919050565b60006020820190508181036000830152611eb981611c36565b9050919050565b60006020820190508181036000830152611ed981611c76565b9050919050565b6000602082019050611ef56000830184611cb6565b92915050565b600060a082019050611f106000830188611cb6565b611f1d6020830187611cb6565b611f2a6040830186611cb6565b611f376060830185611cb6565b611f446080830184611cb6565b9695505050505050565b600061014082019050611f64600083018d611cb6565b611f71602083018c611cb6565b611f7e604083018b611cb6565b611f8b606083018a611cb6565b611f986080830189611cb6565b611fa560a0830188611cb6565b611fb260c0830187611cb6565b611fbf60e08301866118f5565b611fcd6101008301856118f5565b611fdb610120830184611cb6565b9b9a5050505050505050505050565b600082825260208201905092915050565b60006120068261214e565b91506120118361214e565b9250827fffffffffffffffffffffffffffffffffffffffffffffffffffffffffffffffff0382111561204657612045612158565b5b828201905092915050565b600061205c8261214e565b91506120678361214e565b92508261207757612076612187565b5b828204905092915050565b600061208d8261214e565b91506120988361214e565b9250817fffffffffffffffffffffffffffffffffffffffffffffffffffffffffffffffff04831182151516156120d1576120d0612158565b5b828202905092915050565b60006120e78261214e565b91506120f28361214e565b92508282101561210557612104612158565b5b828203905092915050565b600061211b8261212e565b9050919050565b60008115159050919050565b600073ffffffffffffffffffffffffffffffffffffffff82169050919050565b6000819050919050565b7f4e487b7100000000000000000000000000000000000000000000000000000000600052601160045260246000fd5b7f4e487b7100000000000000000000000000000000000000000000000000000000600052601260045260246000fd5b6121bf81612110565b81146121ca57600080fd5b50565b6121d681612122565b81146121e157600080fd5b50565b6121ed8161214e565b81146121f857600080fd5b5056fea2646970667358221220b9c66c5984800c26516ba8198a0db17d5e0ab518d5cb2e8963447bdd83b647b564736f6c63430008000033",
  "linkReferences": {},
  "deployedLinkReferences": {}
}