{
  "_format": "hh-sol-artifact-1",
  "contractName": "LighthouseBurn",
  "sourceName": "contracts/LighthouseBurn.sol",
  "abi": [
    {
      "inputs": [
        {
          "internalType": "address",
          "name": "_lighthouseAuction",
          "type": "address"
        },
        {
          "internalType": "address",
          "name": "_lighthousePrefund",
          "type": "address"
        },
        {
          "internalType": "address",
          "name": "_lighthouseTier",
          "type": "address"
        },
        {
          "internalType": "address",
          "name": "_crowns",
          "type": "address"
        },
        {
          "internalType": "address",
          "name": "_project",
          "type": "address"
        }
      ],
      "stateMutability": "nonpayable",
      "type": "constructor"
    },
    {
      "anonymous": false,
      "inputs": [
        {
          "indexed": true,
          "internalType": "uint256",
          "name": "projectId",
          "type": "uint256"
        },
        {
          "indexed": true,
          "internalType": "address",
          "name": "lighthouse",
          "type": "address"
        },
        {
          "indexed": true,
          "internalType": "uint256",
          "name": "nftId",
          "type": "uint256"
        },
        {
          "indexed": false,
          "internalType": "address",
          "name": "owner",
          "type": "address"
        },
        {
          "indexed": false,
          "internalType": "uint256",
          "name": "compensation",
          "type": "uint256"
        }
      ],
      "name": "BurnForCWS",
      "type": "event"
    },
    {
      "anonymous": false,
      "inputs": [
        {
          "indexed": true,
          "internalType": "uint256",
          "name": "projectId",
          "type": "uint256"
        },
        {
          "indexed": true,
          "internalType": "address",
          "name": "lighthouse",
          "type": "address"
        },
        {
          "indexed": true,
          "internalType": "uint256",
          "name": "nftId",
          "type": "uint256"
        },
        {
          "indexed": false,
          "internalType": "address",
          "name": "owner",
          "type": "address"
        },
        {
          "indexed": false,
          "internalType": "address",
          "name": "pcc",
          "type": "address"
        },
        {
          "indexed": false,
          "internalType": "uint256",
          "name": "allocation",
          "type": "uint256"
        }
      ],
      "name": "BurnForPCC",
      "type": "event"
    },
    {
      "anonymous": false,
      "inputs": [
        {
          "indexed": true,
          "internalType": "address",
          "name": "previousOwner",
          "type": "address"
        },
        {
          "indexed": true,
          "internalType": "address",
          "name": "newOwner",
          "type": "address"
        }
      ],
      "name": "OwnershipTransferred",
      "type": "event"
    },
    {
      "anonymous": false,
      "inputs": [
        {
          "indexed": true,
          "internalType": "address",
          "name": "staker",
          "type": "address"
        }
      ],
      "name": "SetStaker",
      "type": "event"
    },
    {
      "inputs": [
        {
          "internalType": "uint256",
          "name": "projectId",
          "type": "uint256"
        },
        {
          "internalType": "uint256",
          "name": "nftId",
          "type": "uint256"
        }
      ],
      "name": "burnForCws",
      "outputs": [],
      "stateMutability": "nonpayable",
      "type": "function"
    },
    {
      "inputs": [
        {
          "internalType": "uint256",
          "name": "projectId",
          "type": "uint256"
        },
        {
          "internalType": "uint256",
          "name": "nftId",
          "type": "uint256"
        }
      ],
      "name": "burnForPcc",
      "outputs": [],
      "stateMutability": "nonpayable",
      "type": "function"
    },
    {
      "inputs": [
        {
          "internalType": "uint256",
          "name": "",
          "type": "uint256"
        },
        {
          "internalType": "address",
          "name": "",
          "type": "address"
        }
      ],
      "name": "mintedNfts",
      "outputs": [
        {
          "internalType": "uint256",
          "name": "",
          "type": "uint256"
        }
      ],
      "stateMutability": "view",
      "type": "function"
    },
    {
      "inputs": [],
      "name": "owner",
      "outputs": [
        {
          "internalType": "address",
          "name": "",
          "type": "address"
        }
      ],
      "stateMutability": "view",
      "type": "function"
    },
    {
      "inputs": [],
      "name": "renounceOwnership",
      "outputs": [],
      "stateMutability": "nonpayable",
      "type": "function"
    },
    {
      "inputs": [
        {
          "internalType": "address",
          "name": "_staker",
          "type": "address"
        }
      ],
      "name": "setStaker",
      "outputs": [],
      "stateMutability": "nonpayable",
      "type": "function"
    },
    {
      "inputs": [
        {
          "internalType": "address",
          "name": "",
          "type": "address"
        }
      ],
      "name": "stakeReserves",
      "outputs": [
        {
          "internalType": "uint256",
          "name": "",
          "type": "uint256"
        }
      ],
      "stateMutability": "view",
      "type": "function"
    },
    {
      "inputs": [],
      "name": "staker",
      "outputs": [
        {
          "internalType": "address",
          "name": "",
          "type": "address"
        }
      ],
      "stateMutability": "view",
      "type": "function"
    },
    {
      "inputs": [
        {
          "internalType": "address",
          "name": "pccAddress",
          "type": "address"
        }
      ],
      "name": "transferMaxReserve",
      "outputs": [],
      "stateMutability": "nonpayable",
      "type": "function"
    },
    {
      "inputs": [
        {
          "internalType": "address",
          "name": "newOwner",
          "type": "address"
        }
      ],
      "name": "transferOwnership",
      "outputs": [],
      "stateMutability": "nonpayable",
      "type": "function"
    },
    {
      "inputs": [
        {
          "internalType": "address",
          "name": "pccAddress",
          "type": "address"
        },
        {
          "internalType": "uint256",
          "name": "amount",
          "type": "uint256"
        }
      ],
      "name": "transferStakeReserve",
      "outputs": [],
      "stateMutability": "nonpayable",
      "type": "function"
    }
  ],
  "bytecode": "0x60806040523480156200001157600080fd5b5060405162003482380380620034828339818101604052810190620000379190620003e5565b620000576200004b6200030260201b60201c565b6200030a60201b60201c565b600073ffffffffffffffffffffffffffffffffffffffff168573ffffffffffffffffffffffffffffffffffffffff1614158015620000c25750600073ffffffffffffffffffffffffffffffffffffffff168273ffffffffffffffffffffffffffffffffffffffff1614155b8015620000fc5750600073ffffffffffffffffffffffffffffffffffffffff168473ffffffffffffffffffffffffffffffffffffffff1614155b8015620001365750600073ffffffffffffffffffffffffffffffffffffffff168373ffffffffffffffffffffffffffffffffffffffff1614155b8015620001705750600073ffffffffffffffffffffffffffffffffffffffff168173ffffffffffffffffffffffffffffffffffffffff1614155b620001b2576040517f08c379a0000000000000000000000000000000000000000000000000000000008152600401620001a990620004a9565b60405180910390fd5b84600160006101000a81548173ffffffffffffffffffffffffffffffffffffffff021916908373ffffffffffffffffffffffffffffffffffffffff16021790555083600260006101000a81548173ffffffffffffffffffffffffffffffffffffffff021916908373ffffffffffffffffffffffffffffffffffffffff16021790555082600360006101000a81548173ffffffffffffffffffffffffffffffffffffffff021916908373ffffffffffffffffffffffffffffffffffffffff16021790555080600460006101000a81548173ffffffffffffffffffffffffffffffffffffffff021916908373ffffffffffffffffffffffffffffffffffffffff16021790555081600560006101000a81548173ffffffffffffffffffffffffffffffffffffffff021916908373ffffffffffffffffffffffffffffffffffffffff16021790555050505050506200052a565b600033905090565b60008060009054906101000a900473ffffffffffffffffffffffffffffffffffffffff169050816000806101000a81548173ffffffffffffffffffffffffffffffffffffffff021916908373ffffffffffffffffffffffffffffffffffffffff1602179055508173ffffffffffffffffffffffffffffffffffffffff168173ffffffffffffffffffffffffffffffffffffffff167f8be0079c531659141344cd1fd0a4f28419497f9722a3daafe3b4186f6b6457e060405160405180910390a35050565b600081519050620003df8162000510565b92915050565b600080600080600060a08688031215620003fe57600080fd5b60006200040e88828901620003ce565b95505060206200042188828901620003ce565b94505060406200043488828901620003ce565b93505060606200044788828901620003ce565b92505060806200045a88828901620003ce565b9150509295509295909350565b600062000476601883620004cb565b91507f4c69676874686f7573653a205a45524f5f4144445245535300000000000000006000830152602082019050919050565b60006020820190508181036000830152620004c48162000467565b9050919050565b600082825260208201905092915050565b6000620004e982620004f0565b9050919050565b600073ffffffffffffffffffffffffffffffffffffffff82169050919050565b6200051b81620004dc565b81146200052757600080fd5b50565b612f48806200053a6000396000f3fe608060405234801561001057600080fd5b50600436106100a95760003560e01c806385d044661161007157806385d044661461013e5780638da5cb5b1461015a578063a29a43bb14610178578063da8e78fd14610194578063e1259a87146101c4578063f2fde38b146101e0576100a9565b8063442ceeb9146100ae5780635742b466146100de5780635ebaf1db146100fa5780636431941a14610118578063715018a614610134575b600080fd5b6100c860048036038101906100c391906123aa565b6101fc565b6040516100d59190612d1c565b60405180910390f35b6100f860048036038101906100f391906123aa565b610214565b005b6101026105ab565b60405161010f9190612a61565b60405180910390f35b610132600480360381019061012d91906123fc565b6105d1565b005b61013c610a38565b005b610158600480360381019061015391906124c6565b610ac0565b005b610162611569565b60405161016f9190612a61565b60405180910390f35b610192600480360381019061018d91906123aa565b611592565b005b6101ae60048036038101906101a9919061248a565b611705565b6040516101bb9190612d1c565b60405180910390f35b6101de60048036038101906101d991906124c6565b61172a565b005b6101fa60048036038101906101f591906123aa565b612168565b005b60066020528060005260406000206000915090505481565b600073ffffffffffffffffffffffffffffffffffffffff168173ffffffffffffffffffffffffffffffffffffffff16141580156102a05750600073ffffffffffffffffffffffffffffffffffffffff16600760009054906101000a900473ffffffffffffffffffffffffffffffffffffffff1673ffffffffffffffffffffffffffffffffffffffff1614155b6102df576040517f08c379a00000000000000000000000000000000000000000000000000000000081526004016102d690612b7c565b60405180910390fd5b6102e7611569565b73ffffffffffffffffffffffffffffffffffffffff163373ffffffffffffffffffffffffffffffffffffffff16148061036d5750600760009054906101000a900473ffffffffffffffffffffffffffffffffffffffff1673ffffffffffffffffffffffffffffffffffffffff163373ffffffffffffffffffffffffffffffffffffffff16145b6103ac576040517f08c379a00000000000000000000000000000000000000000000000000000000081526004016103a390612c9c565b60405180910390fd5b6000600660008373ffffffffffffffffffffffffffffffffffffffff1673ffffffffffffffffffffffffffffffffffffffff168152602001908152602001600020541161042e576040517f08c379a000000000000000000000000000000000000000000000000000000000815260040161042590612c3c565b60405180910390fd5b60008190508073ffffffffffffffffffffffffffffffffffffffff166323b872dd30600760009054906101000a900473ffffffffffffffffffffffffffffffffffffffff16600660008773ffffffffffffffffffffffffffffffffffffffff1673ffffffffffffffffffffffffffffffffffffffff168152602001908152602001600020546040518463ffffffff1660e01b81526004016104d193929190612a7c565b602060405180830381600087803b1580156104eb57600080fd5b505af11580156104ff573d6000803e3d6000fd5b505050506040513d601f19601f820116820180604052508101906105239190612438565b610562576040517f08c379a000000000000000000000000000000000000000000000000000000000815260040161055990612b1c565b60405180910390fd5b6000600660008473ffffffffffffffffffffffffffffffffffffffff1673ffffffffffffffffffffffffffffffffffffffff168152602001908152602001600020819055505050565b600760009054906101000a900473ffffffffffffffffffffffffffffffffffffffff1681565b60008111610614576040517f08c379a000000000000000000000000000000000000000000000000000000000815260040161060b90612cbc565b60405180910390fd5b600073ffffffffffffffffffffffffffffffffffffffff168273ffffffffffffffffffffffffffffffffffffffff16141580156106a05750600073ffffffffffffffffffffffffffffffffffffffff16600760009054906101000a900473ffffffffffffffffffffffffffffffffffffffff1673ffffffffffffffffffffffffffffffffffffffff1614155b6106df576040517f08c379a00000000000000000000000000000000000000000000000000000000081526004016106d690612b7c565b60405180910390fd5b6106e7611569565b73ffffffffffffffffffffffffffffffffffffffff163373ffffffffffffffffffffffffffffffffffffffff16148061076d5750600760009054906101000a900473ffffffffffffffffffffffffffffffffffffffff1673ffffffffffffffffffffffffffffffffffffffff163373ffffffffffffffffffffffffffffffffffffffff16145b6107ac576040517f08c379a00000000000000000000000000000000000000000000000000000000081526004016107a390612c9c565b60405180910390fd5b6000600660008473ffffffffffffffffffffffffffffffffffffffff1673ffffffffffffffffffffffffffffffffffffffff168152602001908152602001600020541161082e576040517f08c379a000000000000000000000000000000000000000000000000000000000815260040161082590612c3c565b60405180910390fd5b80600660008473ffffffffffffffffffffffffffffffffffffffff1673ffffffffffffffffffffffffffffffffffffffff1681526020019081526020016000205410156108b0576040517f08c379a00000000000000000000000000000000000000000000000000000000081526004016108a790612b3c565b60405180910390fd5b60008290508073ffffffffffffffffffffffffffffffffffffffff166323b872dd30600760009054906101000a900473ffffffffffffffffffffffffffffffffffffffff16856040518463ffffffff1660e01b815260040161091493929190612a7c565b602060405180830381600087803b15801561092e57600080fd5b505af1158015610942573d6000803e3d6000fd5b505050506040513d601f19601f820116820180604052508101906109669190612438565b6109a5576040517f08c379a000000000000000000000000000000000000000000000000000000000815260040161099c90612b5c565b60405180910390fd5b81600660008573ffffffffffffffffffffffffffffffffffffffff1673ffffffffffffffffffffffffffffffffffffffff168152602001908152602001600020546109f09190612dcf565b600660008573ffffffffffffffffffffffffffffffffffffffff1673ffffffffffffffffffffffffffffffffffffffff16815260200190815260200160002081905550505050565b610a40612260565b73ffffffffffffffffffffffffffffffffffffffff16610a5e611569565b73ffffffffffffffffffffffffffffffffffffffff1614610ab4576040517f08c379a0000000000000000000000000000000000000000000000000000000008152600401610aab90612bdc565b60405180910390fd5b610abe6000612268565b565b6000600460009054906101000a900473ffffffffffffffffffffffffffffffffffffffff1673ffffffffffffffffffffffffffffffffffffffff1663a5045a16846040518263ffffffff1660e01b8152600401610b1d9190612d1c565b60206040518083038186803b158015610b3557600080fd5b505afa158015610b49573d6000803e3d6000fd5b505050506040513d601f19601f82011682018060405250810190610b6d91906123d3565b9050600073ffffffffffffffffffffffffffffffffffffffff168173ffffffffffffffffffffffffffffffffffffffff161415610bdf576040517f08c379a0000000000000000000000000000000000000000000000000000000008152600401610bd690612b9c565b60405180910390fd5b600460009054906101000a900473ffffffffffffffffffffffffffffffffffffffff1673ffffffffffffffffffffffffffffffffffffffff16631b4ead45846040518263ffffffff1660e01b8152600401610c3a9190612d1c565b60206040518083038186803b158015610c5257600080fd5b505afa158015610c66573d6000803e3d6000fd5b505050506040513d601f19601f82011682018060405250810190610c8a9190612438565b610cc9576040517f08c379a0000000000000000000000000000000000000000000000000000000008152600401610cc090612c1c565b60405180910390fd5b60008190506000600460009054906101000a900473ffffffffffffffffffffffffffffffffffffffff1673ffffffffffffffffffffffffffffffffffffffff16639d0214cb866040518263ffffffff1660e01b8152600401610d2b9190612d1c565b60206040518083038186803b158015610d4357600080fd5b505afa158015610d57573d6000803e3d6000fd5b505050506040513d601f19601f82011682018060405250810190610d7b91906123d3565b90503373ffffffffffffffffffffffffffffffffffffffff168173ffffffffffffffffffffffffffffffffffffffff16636352211e866040518263ffffffff1660e01b8152600401610dcd9190612d1c565b60206040518083038186803b158015610de557600080fd5b505afa158015610df9573d6000803e3d6000fd5b505050506040513d601f19601f82011682018060405250810190610e1d91906123d3565b73ffffffffffffffffffffffffffffffffffffffff1614610e73576040517f08c379a0000000000000000000000000000000000000000000000000000000008152600401610e6a90612bfc565b60405180910390fd5b60028173ffffffffffffffffffffffffffffffffffffffff1663989981d7866040518263ffffffff1660e01b8152600401610eae9190612d1c565b60206040518083038186803b158015610ec657600080fd5b505afa158015610eda573d6000803e3d6000fd5b505050506040513d601f19601f82011682018060405250810190610efe9190612502565b60ff161115610f42576040517f08c379a0000000000000000000000000000000000000000000000000000000008152600401610f3990612c7c565b60405180910390fd5b6000670de0b6b3a76400008273ffffffffffffffffffffffffffffffffffffffff16639ab8ee15876040518263ffffffff1660e01b8152600401610f869190612d1c565b60206040518083038186803b158015610f9e57600080fd5b505afa158015610fb2573d6000803e3d6000fd5b505050506040513d601f19601f82011682018060405250810190610fd69190612461565b610fe09190612d9e565b90506000670de0b6b3a76400008373ffffffffffffffffffffffffffffffffffffffff166396f53711886040518263ffffffff1660e01b81526004016110269190612d1c565b60206040518083038186803b15801561103e57600080fd5b505afa158015611052573d6000803e3d6000fd5b505050506040513d601f19601f820116820180604052508101906110769190612461565b6110809190612d9e565b9050600081116110c5576040517f08c379a00000000000000000000000000000000000000000000000000000000081526004016110bc90612c5c565b60405180910390fd5b818473ffffffffffffffffffffffffffffffffffffffff166370a08231306040518263ffffffff1660e01b81526004016110ff9190612a61565b60206040518083038186803b15801561111757600080fd5b505afa15801561112b573d6000803e3d6000fd5b505050506040513d601f19601f8201168201806040525081019061114f9190612461565b1015611190576040517f08c379a000000000000000000000000000000000000000000000000000000000815260040161118790612bbc565b60405180910390fd5b80600560009054906101000a900473ffffffffffffffffffffffffffffffffffffffff1673ffffffffffffffffffffffffffffffffffffffff166370a08231306040518263ffffffff1660e01b81526004016111ec9190612a61565b60206040518083038186803b15801561120457600080fd5b505afa158015611218573d6000803e3d6000fd5b505050506040513d601f19601f8201168201806040525081019061123c9190612461565b101561127d576040517f08c379a000000000000000000000000000000000000000000000000000000000815260040161127490612cfc565b60405180910390fd5b8273ffffffffffffffffffffffffffffffffffffffff166342966c68876040518263ffffffff1660e01b81526004016112b69190612d1c565b600060405180830381600087803b1580156112d057600080fd5b505af11580156112e4573d6000803e3d6000fd5b50505050600560009054906101000a900473ffffffffffffffffffffffffffffffffffffffff1673ffffffffffffffffffffffffffffffffffffffff1663a9059cbb33836040518363ffffffff1660e01b8152600401611345929190612ab3565b602060405180830381600087803b15801561135f57600080fd5b505af1158015611373573d6000803e3d6000fd5b505050506040513d601f19601f820116820180604052508101906113979190612438565b6113d6576040517f08c379a00000000000000000000000000000000000000000000000000000000081526004016113cd90612b5c565b60405180910390fd5b81600660008773ffffffffffffffffffffffffffffffffffffffff1673ffffffffffffffffffffffffffffffffffffffff168152602001908152602001600020546114219190612d48565b600660008773ffffffffffffffffffffffffffffffffffffffff1673ffffffffffffffffffffffffffffffffffffffff1681526020019081526020016000208190555085600460009054906101000a900473ffffffffffffffffffffffffffffffffffffffff1673ffffffffffffffffffffffffffffffffffffffff16639d0214cb896040518263ffffffff1660e01b81526004016114c09190612d1c565b60206040518083038186803b1580156114d857600080fd5b505afa1580156114ec573d6000803e3d6000fd5b505050506040513d601f19601f8201168201806040525081019061151091906123d3565b73ffffffffffffffffffffffffffffffffffffffff16887f2b038598b04ca541b8ff17444794028d8f2a5b72689a4a7331638cfd01368daa3385604051611558929190612ab3565b60405180910390a450505050505050565b60008060009054906101000a900473ffffffffffffffffffffffffffffffffffffffff16905090565b61159a612260565b73ffffffffffffffffffffffffffffffffffffffff166115b8611569565b73ffffffffffffffffffffffffffffffffffffffff161461160e576040517f08c379a000000000000000000000000000000000000000000000000000000000815260040161160590612bdc565b60405180910390fd5b600073ffffffffffffffffffffffffffffffffffffffff168173ffffffffffffffffffffffffffffffffffffffff16141561167e576040517f08c379a000000000000000000000000000000000000000000000000000000000815260040161167590612cdc565b60405180910390fd5b80600760006101000a81548173ffffffffffffffffffffffffffffffffffffffff021916908373ffffffffffffffffffffffffffffffffffffffff1602179055508073ffffffffffffffffffffffffffffffffffffffff167f6901da73a3480b0bbd7deb64f259ff29a76ce811c7a3e5cf495f0e1eb4fb4dfb60405160405180910390a250565b6008602052816000526040600020602052806000526040600020600091509150505481565b6000600460009054906101000a900473ffffffffffffffffffffffffffffffffffffffff1673ffffffffffffffffffffffffffffffffffffffff1663a5045a16846040518263ffffffff1660e01b81526004016117879190612d1c565b60206040518083038186803b15801561179f57600080fd5b505afa1580156117b3573d6000803e3d6000fd5b505050506040513d601f19601f820116820180604052508101906117d791906123d3565b9050600073ffffffffffffffffffffffffffffffffffffffff168173ffffffffffffffffffffffffffffffffffffffff161415611849576040517f08c379a000000000000000000000000000000000000000000000000000000000815260040161184090612b9c565b60405180910390fd5b600460009054906101000a900473ffffffffffffffffffffffffffffffffffffffff1673ffffffffffffffffffffffffffffffffffffffff16631b4ead45846040518263ffffffff1660e01b81526004016118a49190612d1c565b60206040518083038186803b1580156118bc57600080fd5b505afa1580156118d0573d6000803e3d6000fd5b505050506040513d601f19601f820116820180604052508101906118f49190612438565b611933576040517f08c379a000000000000000000000000000000000000000000000000000000000815260040161192a90612c1c565b60405180910390fd5b60008190506000600460009054906101000a900473ffffffffffffffffffffffffffffffffffffffff1673ffffffffffffffffffffffffffffffffffffffff16639d0214cb866040518263ffffffff1660e01b81526004016119959190612d1c565b60206040518083038186803b1580156119ad57600080fd5b505afa1580156119c1573d6000803e3d6000fd5b505050506040513d601f19601f820116820180604052508101906119e591906123d3565b90503373ffffffffffffffffffffffffffffffffffffffff168173ffffffffffffffffffffffffffffffffffffffff16636352211e866040518263ffffffff1660e01b8152600401611a379190612d1c565b60206040518083038186803b158015611a4f57600080fd5b505afa158015611a63573d6000803e3d6000fd5b505050506040513d601f19601f82011682018060405250810190611a8791906123d3565b73ffffffffffffffffffffffffffffffffffffffff1614611add576040517f08c379a0000000000000000000000000000000000000000000000000000000008152600401611ad490612bfc565b60405180910390fd5b60028173ffffffffffffffffffffffffffffffffffffffff1663989981d7866040518263ffffffff1660e01b8152600401611b189190612d1c565b60206040518083038186803b158015611b3057600080fd5b505afa158015611b44573d6000803e3d6000fd5b505050506040513d601f19601f82011682018060405250810190611b689190612502565b60ff161115611bac576040517f08c379a0000000000000000000000000000000000000000000000000000000008152600401611ba390612c7c565b60405180910390fd5b6000670de0b6b3a76400008273ffffffffffffffffffffffffffffffffffffffff16639ab8ee15876040518263ffffffff1660e01b8152600401611bf09190612d1c565b60206040518083038186803b158015611c0857600080fd5b505afa158015611c1c573d6000803e3d6000fd5b505050506040513d601f19601f82011682018060405250810190611c409190612461565b611c4a9190612d9e565b90506000670de0b6b3a76400008373ffffffffffffffffffffffffffffffffffffffff166396f53711886040518263ffffffff1660e01b8152600401611c909190612d1c565b60206040518083038186803b158015611ca857600080fd5b505afa158015611cbc573d6000803e3d6000fd5b505050506040513d601f19601f82011682018060405250810190611ce09190612461565b611cea9190612d9e565b905060008211611d2f576040517f08c379a0000000000000000000000000000000000000000000000000000000008152600401611d2690612adc565b60405180910390fd5b60008111611d72576040517f08c379a0000000000000000000000000000000000000000000000000000000008152600401611d6990612c5c565b60405180910390fd5b818473ffffffffffffffffffffffffffffffffffffffff166370a08231306040518263ffffffff1660e01b8152600401611dac9190612a61565b60206040518083038186803b158015611dc457600080fd5b505afa158015611dd8573d6000803e3d6000fd5b505050506040513d601f19601f82011682018060405250810190611dfc9190612461565b1015611e3d576040517f08c379a0000000000000000000000000000000000000000000000000000000008152600401611e3490612bbc565b60405180910390fd5b80600560009054906101000a900473ffffffffffffffffffffffffffffffffffffffff1673ffffffffffffffffffffffffffffffffffffffff166370a08231306040518263ffffffff1660e01b8152600401611e999190612a61565b60206040518083038186803b158015611eb157600080fd5b505afa158015611ec5573d6000803e3d6000fd5b505050506040513d601f19601f82011682018060405250810190611ee99190612461565b1015611f2a576040517f08c379a0000000000000000000000000000000000000000000000000000000008152600401611f2190612cfc565b60405180910390fd5b8273ffffffffffffffffffffffffffffffffffffffff166342966c68876040518263ffffffff1660e01b8152600401611f639190612d1c565b600060405180830381600087803b158015611f7d57600080fd5b505af1158015611f91573d6000803e3d6000fd5b505050508373ffffffffffffffffffffffffffffffffffffffff1663a9059cbb33846040518363ffffffff1660e01b8152600401611fd0929190612ab3565b602060405180830381600087803b158015611fea57600080fd5b505af1158015611ffe573d6000803e3d6000fd5b505050506040513d601f19601f820116820180604052508101906120229190612438565b612061576040517f08c379a000000000000000000000000000000000000000000000000000000000815260040161205890612b5c565b60405180910390fd5b85600460009054906101000a900473ffffffffffffffffffffffffffffffffffffffff1673ffffffffffffffffffffffffffffffffffffffff16639d0214cb896040518263ffffffff1660e01b81526004016120bd9190612d1c565b60206040518083038186803b1580156120d557600080fd5b505afa1580156120e9573d6000803e3d6000fd5b505050506040513d601f19601f8201168201806040525081019061210d91906123d3565b73ffffffffffffffffffffffffffffffffffffffff16887f0f4900e98e66735cb9b522e25d2c98dd16c986ede7f115c66053e8a8cbeb425733898760405161215793929190612a7c565b60405180910390a450505050505050565b612170612260565b73ffffffffffffffffffffffffffffffffffffffff1661218e611569565b73ffffffffffffffffffffffffffffffffffffffff16146121e4576040517f08c379a00000000000000000000000000000000000000000000000000000000081526004016121db90612bdc565b60405180910390fd5b600073ffffffffffffffffffffffffffffffffffffffff168173ffffffffffffffffffffffffffffffffffffffff161415612254576040517f08c379a000000000000000000000000000000000000000000000000000000000815260040161224b90612afc565b60405180910390fd5b61225d81612268565b50565b600033905090565b60008060009054906101000a900473ffffffffffffffffffffffffffffffffffffffff169050816000806101000a81548173ffffffffffffffffffffffffffffffffffffffff021916908373ffffffffffffffffffffffffffffffffffffffff1602179055508173ffffffffffffffffffffffffffffffffffffffff168173ffffffffffffffffffffffffffffffffffffffff167f8be0079c531659141344cd1fd0a4f28419497f9722a3daafe3b4186f6b6457e060405160405180910390a35050565b60008135905061233b81612eb6565b92915050565b60008151905061235081612eb6565b92915050565b60008151905061236581612ecd565b92915050565b60008135905061237a81612ee4565b92915050565b60008151905061238f81612ee4565b92915050565b6000815190506123a481612efb565b92915050565b6000602082840312156123bc57600080fd5b60006123ca8482850161232c565b91505092915050565b6000602082840312156123e557600080fd5b60006123f384828501612341565b91505092915050565b6000806040838503121561240f57600080fd5b600061241d8582860161232c565b925050602061242e8582860161236b565b9150509250929050565b60006020828403121561244a57600080fd5b600061245884828501612356565b91505092915050565b60006020828403121561247357600080fd5b600061248184828501612380565b91505092915050565b6000806040838503121561249d57600080fd5b60006124ab8582860161236b565b92505060206124bc8582860161232c565b9150509250929050565b600080604083850312156124d957600080fd5b60006124e78582860161236b565b92505060206124f88582860161236b565b9150509250929050565b60006020828403121561251457600080fd5b600061252284828501612395565b91505092915050565b61253481612e03565b82525050565b6000612547601f83612d37565b91507f4c69676874686f7573653a204e46545f5a45524f5f414c4c4f434154494f4e006000830152602082019050919050565b6000612587602683612d37565b91507f4f776e61626c653a206e6577206f776e657220697320746865207a65726f206160008301527f64647265737300000000000000000000000000000000000000000000000000006020830152604082019050919050565b60006125ed602283612d37565b91507f4c69676874686f7573654275726e3a204641494c45445f544f5f5452414e534660008301527f45520000000000000000000000000000000000000000000000000000000000006020830152604082019050919050565b6000612653601e83612d37565b91507f4c69676874686f7573653a204e4f545f454e4f5547485f42414c414e434500006000830152602082019050919050565b6000612693601e83612d37565b91507f4c69676874686f7573653a204641494c45445f544f5f5452414e5346455200006000830152602082019050919050565b60006126d3601d83612d37565b91507f4c69676874686f7573653a204e4f5f5354414b45525f414444524553530000006000830152602082019050919050565b6000612713601283612d37565b91507f4c69676874686f7573653a204e4f5f50434300000000000000000000000000006000830152602082019050919050565b6000612753601a83612d37565b91507f4c69676874686f7573653a204e4f545f454e4f5547485f5043430000000000006000830152602082019050919050565b6000612793602083612d37565b91507f4f776e61626c653a2063616c6c6572206973206e6f7420746865206f776e65726000830152602082019050919050565b60006127d3601983612d37565b91507f4c69676874686f7573653a204e4f545f4e46545f4f574e4552000000000000006000830152602082019050919050565b6000612813602a83612d37565b91507f4c69676874686f7573653a20414c4c4f434154494f4e5f4e4f545f494e49544960008301527f414c495a45445f594554000000000000000000000000000000000000000000006020830152604082019050919050565b6000612879601783612d37565b91507f4c69676874686f7573653a20494e56414c49445f5043430000000000000000006000830152602082019050919050565b60006128b9602183612d37565b91507f4c69676874686f7573653a204e46545f5a45524f5f434f4d50454e534154494f60008301527f4e000000000000000000000000000000000000000000000000000000000000006020830152604082019050919050565b600061291f601f83612d37565b91507f4c69676874686f7573653a20464f5242494444454e5f4d494e545f54595045006000830152602082019050919050565b600061295f601583612d37565b91507f4c69676874686f7573653a20464f5242494444454e00000000000000000000006000830152602082019050919050565b600061299f601a83612d37565b91507f4c69676874686f7573653a205a45524f5f504152414d455445520000000000006000830152602082019050919050565b60006129df601883612d37565b91507f4c69676874686f7573653a205a45524f5f4144445245535300000000000000006000830152602082019050919050565b6000612a1f601d83612d37565b91507f4c69676874686f7573653a204e4f545f454e4f5547485f43524f574e530000006000830152602082019050919050565b612a5b81612e41565b82525050565b6000602082019050612a76600083018461252b565b92915050565b6000606082019050612a91600083018661252b565b612a9e602083018561252b565b612aab6040830184612a52565b949350505050565b6000604082019050612ac8600083018561252b565b612ad56020830184612a52565b9392505050565b60006020820190508181036000830152612af58161253a565b9050919050565b60006020820190508181036000830152612b158161257a565b9050919050565b60006020820190508181036000830152612b35816125e0565b9050919050565b60006020820190508181036000830152612b5581612646565b9050919050565b60006020820190508181036000830152612b7581612686565b9050919050565b60006020820190508181036000830152612b95816126c6565b9050919050565b60006020820190508181036000830152612bb581612706565b9050919050565b60006020820190508181036000830152612bd581612746565b9050919050565b60006020820190508181036000830152612bf581612786565b9050919050565b60006020820190508181036000830152612c15816127c6565b9050919050565b60006020820190508181036000830152612c3581612806565b9050919050565b60006020820190508181036000830152612c558161286c565b9050919050565b60006020820190508181036000830152612c75816128ac565b9050919050565b60006020820190508181036000830152612c9581612912565b9050919050565b60006020820190508181036000830152612cb581612952565b9050919050565b60006020820190508181036000830152612cd581612992565b9050919050565b60006020820190508181036000830152612cf5816129d2565b9050919050565b60006020820190508181036000830152612d1581612a12565b9050919050565b6000602082019050612d316000830184612a52565b92915050565b600082825260208201905092915050565b6000612d5382612e41565b9150612d5e83612e41565b9250827fffffffffffffffffffffffffffffffffffffffffffffffffffffffffffffffff03821115612d9357612d92612e58565b5b828201905092915050565b6000612da982612e41565b9150612db483612e41565b925082612dc457612dc3612e87565b5b828204905092915050565b6000612dda82612e41565b9150612de583612e41565b925082821015612df857612df7612e58565b5b828203905092915050565b6000612e0e82612e21565b9050919050565b60008115159050919050565b600073ffffffffffffffffffffffffffffffffffffffff82169050919050565b6000819050919050565b600060ff82169050919050565b7f4e487b7100000000000000000000000000000000000000000000000000000000600052601160045260246000fd5b7f4e487b7100000000000000000000000000000000000000000000000000000000600052601260045260246000fd5b612ebf81612e03565b8114612eca57600080fd5b50565b612ed681612e15565b8114612ee157600080fd5b50565b612eed81612e41565b8114612ef857600080fd5b50565b612f0481612e4b565b8114612f0f57600080fd5b5056fea264697066735822122052ee37fdc155a164d1989099b479869416e416ab400f915b50c396e8b07cfce464736f6c63430008000033",
  "linkReferences": {},
  "deployedLinkReferences": {}
}