{
  "_format": "hh-sol-artifact-1",
  "contractName": "LighthousePrefund",
  "sourceName": "contracts/LighthousePrefund.sol",
  "abi": [
    {
      "inputs": [
        {
          "internalType": "address",
          "name": "_tier",
          "type": "address"
        },
        {
          "internalType": "address",
          "name": "_submission",
          "type": "address"
        },
        {
          "internalType": "address",
          "name": "_project",
          "type": "address"
        },
        {
          "internalType": "address payable",
          "name": "_fundCollector",
          "type": "address"
        },
        {
          "internalType": "uint256",
          "name": "_chainID",
          "type": "uint256"
        }
      ],
      "stateMutability": "nonpayable",
      "type": "constructor"
    },
    {
      "anonymous": false,
      "inputs": [
        {
          "indexed": true,
          "internalType": "address",
          "name": "previousOwner",
          "type": "address"
        },
        {
          "indexed": true,
          "internalType": "address",
          "name": "newOwner",
          "type": "address"
        }
      ],
      "name": "OwnershipTransferred",
      "type": "event"
    },
    {
      "anonymous": false,
      "inputs": [
        {
          "indexed": true,
          "internalType": "uint256",
          "name": "projectId",
          "type": "uint256"
        },
        {
          "indexed": true,
          "internalType": "address",
          "name": "investor",
          "type": "address"
        },
        {
          "indexed": false,
          "internalType": "int8",
          "name": "tier",
          "type": "int8"
        },
        {
          "indexed": false,
          "internalType": "uint256",
          "name": "time",
          "type": "uint256"
        }
      ],
      "name": "Prefund",
      "type": "event"
    },
    {
      "inputs": [],
      "name": "chainID",
      "outputs": [
        {
          "internalType": "uint256",
          "name": "",
          "type": "uint256"
        }
      ],
      "stateMutability": "view",
      "type": "function"
    },
    {
      "inputs": [
        {
          "internalType": "uint256",
          "name": "",
          "type": "uint256"
        },
        {
          "internalType": "address",
          "name": "",
          "type": "address"
        }
      ],
      "name": "investments",
      "outputs": [
        {
          "internalType": "bool",
          "name": "",
          "type": "bool"
        }
      ],
      "stateMutability": "view",
      "type": "function"
    },
    {
      "inputs": [],
      "name": "owner",
      "outputs": [
        {
          "internalType": "address",
          "name": "",
          "type": "address"
        }
      ],
      "stateMutability": "view",
      "type": "function"
    },
    {
      "inputs": [
        {
          "internalType": "uint256",
          "name": "projectId",
          "type": "uint256"
        },
        {
          "internalType": "int8",
          "name": "certainTier",
          "type": "int8"
        },
        {
          "internalType": "uint8",
          "name": "v",
          "type": "uint8"
        },
        {
          "internalType": "bytes32",
          "name": "r",
          "type": "bytes32"
        },
        {
          "internalType": "bytes32",
          "name": "s",
          "type": "bytes32"
        }
      ],
      "name": "prefund",
      "outputs": [],
      "stateMutability": "payable",
      "type": "function"
    },
    {
      "inputs": [
        {
          "internalType": "uint256",
          "name": "id",
          "type": "uint256"
        },
        {
          "internalType": "address",
          "name": "investor",
          "type": "address"
        }
      ],
      "name": "prefunded",
      "outputs": [
        {
          "internalType": "bool",
          "name": "",
          "type": "bool"
        }
      ],
      "stateMutability": "view",
      "type": "function"
    },
    {
      "inputs": [],
      "name": "renounceOwnership",
      "outputs": [],
      "stateMutability": "nonpayable",
      "type": "function"
    },
    {
      "inputs": [
        {
          "internalType": "address payable",
          "name": "_fundCollector",
          "type": "address"
        }
      ],
      "name": "setFundCollector",
      "outputs": [],
      "stateMutability": "nonpayable",
      "type": "function"
    },
    {
      "inputs": [
        {
          "internalType": "address",
          "name": "newOwner",
          "type": "address"
        }
      ],
      "name": "transferOwnership",
      "outputs": [],
      "stateMutability": "nonpayable",
      "type": "function"
    }
  ],
  "bytecode": "0x60806040523480156200001157600080fd5b5060405162002cdd38038062002cdd8339818101604052810190620000379190620004c9565b620000576200004b620003b860201b60201c565b620003c060201b60201c565b600073ffffffffffffffffffffffffffffffffffffffff168573ffffffffffffffffffffffffffffffffffffffff1614158015620000c25750600073ffffffffffffffffffffffffffffffffffffffff168473ffffffffffffffffffffffffffffffffffffffff1614155b8015620000fc5750600073ffffffffffffffffffffffffffffffffffffffff168373ffffffffffffffffffffffffffffffffffffffff1614155b8015620001365750600073ffffffffffffffffffffffffffffffffffffffff168273ffffffffffffffffffffffffffffffffffffffff1614155b62000178576040517f08c379a00000000000000000000000000000000000000000000000000000000081526004016200016f9062000655565b60405180910390fd5b8373ffffffffffffffffffffffffffffffffffffffff168573ffffffffffffffffffffffffffffffffffffffff161415620001ea576040517f08c379a0000000000000000000000000000000000000000000000000000000008152600401620001e19062000611565b60405180910390fd5b8273ffffffffffffffffffffffffffffffffffffffff168573ffffffffffffffffffffffffffffffffffffffff1614156200025c576040517f08c379a0000000000000000000000000000000000000000000000000000000008152600401620002539062000611565b60405180910390fd5b60008111620002a2576040517f08c379a0000000000000000000000000000000000000000000000000000000008152600401620002999062000633565b60405180910390fd5b84600160006101000a81548173ffffffffffffffffffffffffffffffffffffffff021916908373ffffffffffffffffffffffffffffffffffffffff16021790555083600260006101000a81548173ffffffffffffffffffffffffffffffffffffffff021916908373ffffffffffffffffffffffffffffffffffffffff16021790555082600360006101000a81548173ffffffffffffffffffffffffffffffffffffffff021916908373ffffffffffffffffffffffffffffffffffffffff16021790555081600660006101000a81548173ffffffffffffffffffffffffffffffffffffffff021916908373ffffffffffffffffffffffffffffffffffffffff16021790555080600481905550505050505062000728565b600033905090565b60008060009054906101000a900473ffffffffffffffffffffffffffffffffffffffff169050816000806101000a81548173ffffffffffffffffffffffffffffffffffffffff021916908373ffffffffffffffffffffffffffffffffffffffff1602179055508173ffffffffffffffffffffffffffffffffffffffff168173ffffffffffffffffffffffffffffffffffffffff167f8be0079c531659141344cd1fd0a4f28419497f9722a3daafe3b4186f6b6457e060405160405180910390a35050565b6000815190506200049581620006da565b92915050565b600081519050620004ac81620006f4565b92915050565b600081519050620004c3816200070e565b92915050565b600080600080600060a08688031215620004e257600080fd5b6000620004f28882890162000484565b9550506020620005058882890162000484565b9450506040620005188882890162000484565b93505060606200052b888289016200049b565b92505060806200053e88828901620004b2565b9150509295509295909350565b60006200055a60188362000677565b91507f4c69676874686f7573653a2053414d455f4144445245535300000000000000006000830152602082019050919050565b60006200059c60168362000677565b91507f4c69676874686f7573653a205a45524f5f56414c5545000000000000000000006000830152602082019050919050565b6000620005de60188362000677565b91507f4c69676874686f7573653a205a45524f5f4144445245535300000000000000006000830152602082019050919050565b600060208201905081810360008301526200062c816200054b565b9050919050565b600060208201905081810360008301526200064e816200058d565b9050919050565b600060208201905081810360008301526200067081620005cf565b9050919050565b600082825260208201905092915050565b60006200069582620006b0565b9050919050565b6000620006a982620006b0565b9050919050565b600073ffffffffffffffffffffffffffffffffffffffff82169050919050565b6000819050919050565b620006e58162000688565b8114620006f157600080fd5b50565b620006ff816200069c565b81146200070b57600080fd5b50565b6200071981620006d0565b81146200072557600080fd5b50565b6125a580620007386000396000f3fe60806040526004361061007b5760003560e01c80638da5cb5b1161004e5780638da5cb5b14610119578063adc879e914610144578063b11b32d21461016f578063f2fde38b146101ac5761007b565b806302deed03146100805780633f204c13146100bd57806347b60708146100d9578063715018a614610102575b600080fd5b34801561008c57600080fd5b506100a760048036038101906100a2919061187e565b6101d5565b6040516100b49190611fe6565b60405180910390f35b6100d760048036038101906100d291906118f6565b61023d565b005b3480156100e557600080fd5b5061010060048036038101906100fb9190611803565b61112e565b005b34801561010e57600080fd5b506101176112d4565b005b34801561012557600080fd5b5061012e61135c565b60405161013b9190611f6b565b60405180910390f35b34801561015057600080fd5b50610159611385565b60405161016691906122af565b60405180910390f35b34801561017b57600080fd5b506101966004803603810190610191919061187e565b61138b565b6040516101a39190611fe6565b60405180910390f35b3480156101b857600080fd5b506101d360048036038101906101ce91906117b1565b6113ba565b005b60006005600084815260200190815260200160002060008373ffffffffffffffffffffffffffffffffffffffff1673ffffffffffffffffffffffffffffffffffffffff16815260200190815260200160002060009054906101000a900460ff16905092915050565b600360009054906101000a900473ffffffffffffffffffffffffffffffffffffffff1673ffffffffffffffffffffffffffffffffffffffff16636592b724866040518263ffffffff1660e01b815260040161029891906122af565b60206040518083038186803b1580156102b057600080fd5b505afa1580156102c4573d6000803e3d6000fd5b505050506040513d601f19601f820116820180604052508101906102e8919061182c565b610327576040517f08c379a000000000000000000000000000000000000000000000000000000000815260040161031e9061214f565b60405180910390fd5b61033185336101d5565b15610371576040517f08c379a00000000000000000000000000000000000000000000000000000000081526004016103689061222f565b60405180910390fd5b60008460000b138015610387575060048460000b125b6103c6576040517f08c379a00000000000000000000000000000000000000000000000000000000081526004016103bd9061220f565b60405180910390fd5b6104046040518060400160405280601981526020017f456e746572696e6720696e746f207468652070726566756e64000000000000008152506114b2565b600080600360009054906101000a900473ffffffffffffffffffffffffffffffffffffffff1673ffffffffffffffffffffffffffffffffffffffff16638ee2a6d1886040518263ffffffff1660e01b815260040161046291906122af565b604080518083038186803b15801561047957600080fd5b505afa15801561048d573d6000803e3d6000fd5b505050506040513d601f19601f820116820180604052508101906104b1919061196d565b8092508193505050814210156104fc576040517f08c379a00000000000000000000000000000000000000000000000000000000081526004016104f39061216f565b60405180910390fd5b8042111561053f576040517f08c379a00000000000000000000000000000000000000000000000000000000081526004016105369061228f565b60405180910390fd5b5050600260009054906101000a900473ffffffffffffffffffffffffffffffffffffffff1673ffffffffffffffffffffffffffffffffffffffff16638c817b6e86336040518363ffffffff1660e01b815260040161059e9291906122ca565b60206040518083038186803b1580156105b657600080fd5b505afa1580156105ca573d6000803e3d6000fd5b505050506040513d601f19601f820116820180604052508101906105ee919061182c565b61062d576040517f08c379a00000000000000000000000000000000000000000000000000000000081526004016106249061210f565b60405180910390fd5b61066b6040518060400160405280601281526020017f56616c69646174696f6e20636865636b656400000000000000000000000000008152506114b2565b6000600160009054906101000a900473ffffffffffffffffffffffffffffffffffffffff1673ffffffffffffffffffffffffffffffffffffffff166328fc4c3c336040518263ffffffff1660e01b81526004016106c89190611f6b565b60206040518083038186803b1580156106e057600080fd5b505afa1580156106f4573d6000803e3d6000fd5b505050506040513d601f19601f820116820180604052508101906107189190611855565b905060008160000b138015610730575060048160000b125b61076f576040517f08c379a0000000000000000000000000000000000000000000000000000000008152600401610766906121af565b60405180910390fd5b8060000b8560000b13156107b8576040517f08c379a00000000000000000000000000000000000000000000000000000000081526004016107af9061220f565b60405180910390fd5b8490506107f96040518060400160405280600c81526020017f5469657220636865636b656400000000000000000000000000000000000000008152506114b2565b600080600360009054906101000a900473ffffffffffffffffffffffffffffffffffffffff1673ffffffffffffffffffffffffffffffffffffffff16637480285789856040518363ffffffff1660e01b81526004016108599291906122f3565b604080518083038186803b15801561087057600080fd5b505afa158015610884573d6000803e3d6000fd5b505050506040513d601f19601f820116820180604052508101906108a8919061196d565b80925081935050508082106108f2576040517f08c379a00000000000000000000000000000000000000000000000000000000081526004016108e9906120cf565b60405180910390fd5b6109306040518060400160405280601081526020017f546965722063617020636865636b6564000000000000000000000000000000008152506114b2565b60006040518060400160405280601c81526020017f19457468657265756d205369676e6564204d6573736167653a0a3332000000008152509050600033306004548c8c604051602001610987959493929190611ee4565b604051602081830303815290604052805190602001209050600082826040516020016109b4929190611f43565b60405160208183030381529060405280519060200120905060006001828b8b8b604051600081526020016040526040516109f19493929190612001565b6020604051602081039080840390855afa158015610a13573d6000803e3d6000fd5b505050602060405103519050600360009054906101000a900473ffffffffffffffffffffffffffffffffffffffff1673ffffffffffffffffffffffffffffffffffffffff1663b60da0856040518163ffffffff1660e01b815260040160206040518083038186803b158015610a8757600080fd5b505afa158015610a9b573d6000803e3d6000fd5b505050506040513d601f19601f82011682018060405250810190610abf91906117da565b73ffffffffffffffffffffffffffffffffffffffff168173ffffffffffffffffffffffffffffffffffffffff1614610b2c576040517f08c379a0000000000000000000000000000000000000000000000000000000008152600401610b239061212f565b60405180910390fd5b50505050610b6e6040518060400160405280601181526020017f7369676e617475726520636865636b65640000000000000000000000000000008152506114b2565b600080600360009054906101000a900473ffffffffffffffffffffffffffffffffffffffff1673ffffffffffffffffffffffffffffffffffffffff1663b5f5cf708b876040518363ffffffff1660e01b8152600401610bce9291906122f3565b604080518083038186803b158015610be557600080fd5b505afa158015610bf9573d6000803e3d6000fd5b505050506040513d601f19601f82011682018060405250810190610c1d91906118ba565b8092508193505050600073ffffffffffffffffffffffffffffffffffffffff168173ffffffffffffffffffffffffffffffffffffffff161415610d0a57813414610c9c576040517f08c379a0000000000000000000000000000000000000000000000000000000008152600401610c939061218f565b60405180910390fd5b600660009054906101000a900473ffffffffffffffffffffffffffffffffffffffff1673ffffffffffffffffffffffffffffffffffffffff166108fc349081150290604051600060405180830381858888f19350505050158015610d04573d6000803e3d6000fd5b50610e24565b6000819050610d3260405180606001604052806024815260200161254c60249139838561154b565b8073ffffffffffffffffffffffffffffffffffffffff166323b872dd33600660009054906101000a900473ffffffffffffffffffffffffffffffffffffffff16866040518463ffffffff1660e01b8152600401610d9193929190611f86565b602060405180830381600087803b158015610dab57600080fd5b505af1158015610dbf573d6000803e3d6000fd5b505050506040513d601f19601f82011682018060405250810190610de3919061182c565b610e22576040517f08c379a0000000000000000000000000000000000000000000000000000000008152600401610e19906121cf565b60405180910390fd5b505b610e626040518060400160405280601281526020017f746f6b656e73207472616e7366666572656400000000000000000000000000008152506114b2565b600160009054906101000a900473ffffffffffffffffffffffffffffffffffffffff1673ffffffffffffffffffffffffffffffffffffffff1663ba1cbc7f33600160009054906101000a900473ffffffffffffffffffffffffffffffffffffffff1673ffffffffffffffffffffffffffffffffffffffff166328fc4c3c336040518263ffffffff1660e01b8152600401610efc9190611f6b565b60206040518083038186803b158015610f1457600080fd5b505afa158015610f28573d6000803e3d6000fd5b505050506040513d601f19601f82011682018060405250810190610f4c9190611855565b6040518363ffffffff1660e01b8152600401610f69929190611fbd565b600060405180830381600087803b158015610f8357600080fd5b505af1158015610f97573d6000803e3d6000fd5b50505050610fd96040518060400160405280600981526020017f74696572207573656400000000000000000000000000000000000000000000008152506114b2565b600360009054906101000a900473ffffffffffffffffffffffffffffffffffffffff1673ffffffffffffffffffffffffffffffffffffffff1663c82189e08b876040518363ffffffff1660e01b81526004016110369291906122f3565b600060405180830381600087803b15801561105057600080fd5b505af1158015611064573d6000803e3d6000fd5b505050506001600560008c815260200190815260200160002060003373ffffffffffffffffffffffffffffffffffffffff1673ffffffffffffffffffffffffffffffffffffffff16815260200190815260200160002060006101000a81548160ff0219169083151502179055503373ffffffffffffffffffffffffffffffffffffffff168a7f8598f161559951f8d26c6782ad0bfdf057b7531aca566d3e518ba68fd37d7b37874260405161111a929190612046565b60405180910390a350505050505050505050565b6111366115ea565b73ffffffffffffffffffffffffffffffffffffffff1661115461135c565b73ffffffffffffffffffffffffffffffffffffffff16146111aa576040517f08c379a00000000000000000000000000000000000000000000000000000000081526004016111a1906121ef565b60405180910390fd5b600073ffffffffffffffffffffffffffffffffffffffff168173ffffffffffffffffffffffffffffffffffffffff16141561121a576040517f08c379a00000000000000000000000000000000000000000000000000000000081526004016112119061224f565b60405180910390fd5b61122261135c565b73ffffffffffffffffffffffffffffffffffffffff168173ffffffffffffffffffffffffffffffffffffffff161415611290576040517f08c379a00000000000000000000000000000000000000000000000000000000081526004016112879061226f565b60405180910390fd5b80600660006101000a81548173ffffffffffffffffffffffffffffffffffffffff021916908373ffffffffffffffffffffffffffffffffffffffff16021790555050565b6112dc6115ea565b73ffffffffffffffffffffffffffffffffffffffff166112fa61135c565b73ffffffffffffffffffffffffffffffffffffffff1614611350576040517f08c379a0000000000000000000000000000000000000000000000000000000008152600401611347906121ef565b60405180910390fd5b61135a60006115f2565b565b60008060009054906101000a900473ffffffffffffffffffffffffffffffffffffffff16905090565b60045481565b60056020528160005260406000206020528060005260406000206000915091509054906101000a900460ff1681565b6113c26115ea565b73ffffffffffffffffffffffffffffffffffffffff166113e061135c565b73ffffffffffffffffffffffffffffffffffffffff1614611436576040517f08c379a000000000000000000000000000000000000000000000000000000000815260040161142d906121ef565b60405180910390fd5b600073ffffffffffffffffffffffffffffffffffffffff168173ffffffffffffffffffffffffffffffffffffffff1614156114a6576040517f08c379a000000000000000000000000000000000000000000000000000000000815260040161149d906120ef565b60405180910390fd5b6114af816115f2565b50565b611548816040516024016114c6919061206f565b6040516020818303038152906040527f41304fac000000000000000000000000000000000000000000000000000000007bffffffffffffffffffffffffffffffffffffffffffffffffffffffff19166020820180517bffffffffffffffffffffffffffffffffffffffffffffffffffffffff83818316178352505050506116b6565b50565b6115e583838360405160240161156393929190612091565b6040516020818303038152906040527f07c81217000000000000000000000000000000000000000000000000000000007bffffffffffffffffffffffffffffffffffffffffffffffffffffffff19166020820180517bffffffffffffffffffffffffffffffffffffffffffffffffffffffff83818316178352505050506116b6565b505050565b600033905090565b60008060009054906101000a900473ffffffffffffffffffffffffffffffffffffffff169050816000806101000a81548173ffffffffffffffffffffffffffffffffffffffff021916908373ffffffffffffffffffffffffffffffffffffffff1602179055508173ffffffffffffffffffffffffffffffffffffffff168173ffffffffffffffffffffffffffffffffffffffff167f8be0079c531659141344cd1fd0a4f28419497f9722a3daafe3b4186f6b6457e060405160405180910390a35050565b60008151905060006a636f6e736f6c652e6c6f679050602083016000808483855afa5050505050565b6000813590506116ee816124aa565b92915050565b600081519050611703816124aa565b92915050565b600081359050611718816124c1565b92915050565b60008151905061172d816124d8565b92915050565b600081359050611742816124ef565b92915050565b60008135905061175781612506565b92915050565b60008151905061176c81612506565b92915050565b6000813590506117818161251d565b92915050565b6000815190506117968161251d565b92915050565b6000813590506117ab81612534565b92915050565b6000602082840312156117c357600080fd5b60006117d1848285016116df565b91505092915050565b6000602082840312156117ec57600080fd5b60006117fa848285016116f4565b91505092915050565b60006020828403121561181557600080fd5b600061182384828501611709565b91505092915050565b60006020828403121561183e57600080fd5b600061184c8482850161171e565b91505092915050565b60006020828403121561186757600080fd5b60006118758482850161175d565b91505092915050565b6000806040838503121561189157600080fd5b600061189f85828601611772565b92505060206118b0858286016116df565b9150509250929050565b600080604083850312156118cd57600080fd5b60006118db85828601611787565b92505060206118ec858286016116f4565b9150509250929050565b600080600080600060a0868803121561190e57600080fd5b600061191c88828901611772565b955050602061192d88828901611748565b945050604061193e8882890161179c565b935050606061194f88828901611733565b925050608061196088828901611733565b9150509295509295909350565b6000806040838503121561198057600080fd5b600061198e85828601611787565b925050602061199f85828601611787565b9150509250929050565b6119b2816123cc565b82525050565b6119c18161234e565b82525050565b6119d86119d38261234e565b612435565b82525050565b6119e781612372565b82525050565b6119f68161237e565b82525050565b611a0d611a088261237e565b612447565b82525050565b6000611a1e8261231c565b611a288185612332565b9350611a38818560208601612402565b80840191505092915050565b611a4d81612388565b82525050565b6000611a5e82612327565b611a68818561233d565b9350611a78818560208601612402565b611a818161247f565b840191505092915050565b6000611a9960148361233d565b91507f4c69676874686f7573653a20544945525f4341500000000000000000000000006000830152602082019050919050565b6000611ad960268361233d565b91507f4f776e61626c653a206e6577206f776e657220697320746865207a65726f206160008301527f64647265737300000000000000000000000000000000000000000000000000006020830152604082019050919050565b6000611b3f601a8361233d565b91507f4c69676874686f7573653a204e4f545f524547495354455245440000000000006000830152602082019050919050565b6000611b7f600f8361233d565b91507f4c69676874686f7573653a2053494700000000000000000000000000000000006000830152602082019050919050565b6000611bbf60288361233d565b91507f4c69676874686f7573653a20524547495354524154494f4e5f4e4f545f494e4960008301527f5449414c495a45440000000000000000000000000000000000000000000000006020830152604082019050919050565b6000611c25601b8361233d565b91507f4c69676874686f7573653a204e4f545f535441525445445f59455400000000006000830152602082019050919050565b6000611c65601d8361233d565b91507f4c69676874686f7573653a204e4f545f454e4f5547485f4e41544956450000006000830152602082019050919050565b6000611ca560138361233d565b91507f4c69676874686f7573653a204e4f5f54494552000000000000000000000000006000830152602082019050919050565b6000611ce5601d8361233d565b91507f4c69676874686f7573653a204641494c45445f544f5f5452414e5345520000006000830152602082019050919050565b6000611d2560208361233d565b91507f4f776e61626c653a2063616c6c6572206973206e6f7420746865206f776e65726000830152602082019050919050565b6000611d6560208361233d565b91507f4c69676874686f7573653a20494e56414c49445f4345525441494e5f544945526000830152602082019050919050565b6000611da5601d8361233d565b91507f4c69676874686f7573653a20414c52454144595f50524546554e4445440000006000830152602082019050919050565b6000611de560188361233d565b91507f4c69676874686f7573653a205a45524f5f4144445245535300000000000000006000830152602082019050919050565b6000611e2560168361233d565b91507f4c69676874686f7573653a20555345445f4f574e4552000000000000000000006000830152602082019050919050565b6000611e6560148361233d565b91507f4c69676874686f7573653a2046494e49534845440000000000000000000000006000830152602082019050919050565b611ea1816123b5565b82525050565b611eb8611eb3826123b5565b612463565b82525050565b611ec7816123bf565b82525050565b611ede611ed9826123bf565b61246d565b82525050565b6000611ef082886119c7565b601482019150611f0082876119c7565b601482019150611f108286611ea7565b602082019150611f208285611ea7565b602082019150611f308284611ecd565b6001820191508190509695505050505050565b6000611f4f8285611a13565b9150611f5b82846119fc565b6020820191508190509392505050565b6000602082019050611f8060008301846119b8565b92915050565b6000606082019050611f9b60008301866119b8565b611fa860208301856119a9565b611fb56040830184611e98565b949350505050565b6000604082019050611fd260008301856119b8565b611fdf6020830184611ebe565b9392505050565b6000602082019050611ffb60008301846119de565b92915050565b600060808201905061201660008301876119ed565b6120236020830186611ebe565b61203060408301856119ed565b61203d60608301846119ed565b95945050505050565b600060408201905061205b6000830185611a44565b6120686020830184611e98565b9392505050565b600060208201905081810360008301526120898184611a53565b905092915050565b600060608201905081810360008301526120ab8186611a53565b90506120ba60208301856119b8565b6120c76040830184611e98565b949350505050565b600060208201905081810360008301526120e881611a8c565b9050919050565b6000602082019050818103600083015261210881611acc565b9050919050565b6000602082019050818103600083015261212881611b32565b9050919050565b6000602082019050818103600083015261214881611b72565b9050919050565b6000602082019050818103600083015261216881611bb2565b9050919050565b6000602082019050818103600083015261218881611c18565b9050919050565b600060208201905081810360008301526121a881611c58565b9050919050565b600060208201905081810360008301526121c881611c98565b9050919050565b600060208201905081810360008301526121e881611cd8565b9050919050565b6000602082019050818103600083015261220881611d18565b9050919050565b6000602082019050818103600083015261222881611d58565b9050919050565b6000602082019050818103600083015261224881611d98565b9050919050565b6000602082019050818103600083015261226881611dd8565b9050919050565b6000602082019050818103600083015261228881611e18565b9050919050565b600060208201905081810360008301526122a881611e58565b9050919050565b60006020820190506122c46000830184611e98565b92915050565b60006040820190506122df6000830185611e98565b6122ec60208301846119b8565b9392505050565b60006040820190506123086000830185611e98565b6123156020830184611a44565b9392505050565b600081519050919050565b600081519050919050565b600081905092915050565b600082825260208201905092915050565b600061235982612395565b9050919050565b600061236b82612395565b9050919050565b60008115159050919050565b6000819050919050565b60008160000b9050919050565b600073ffffffffffffffffffffffffffffffffffffffff82169050919050565b6000819050919050565b600060ff82169050919050565b60006123d7826123de565b9050919050565b60006123e9826123f0565b9050919050565b60006123fb82612395565b9050919050565b60005b83811015612420578082015181840152602081019050612405565b8381111561242f576000848401525b50505050565b600061244082612451565b9050919050565b6000819050919050565b600061245c8261249d565b9050919050565b6000819050919050565b600061247882612490565b9050919050565b6000601f19601f8301169050919050565b60008160f81b9050919050565b60008160601b9050919050565b6124b38161234e565b81146124be57600080fd5b50565b6124ca81612360565b81146124d557600080fd5b50565b6124e181612372565b81146124ec57600080fd5b50565b6124f88161237e565b811461250357600080fd5b50565b61250f81612388565b811461251a57600080fd5b50565b612526816123b5565b811461253157600080fd5b50565b61253d816123bf565b811461254857600080fd5b5056fe257320746f6b656e206973207265747269657665642c2070617920616d6f756e74202564a264697066735822122057b3e8daf3a7ea2bb254cb2f7247df8331495ad38a169dfa653874f9d5d2ecd564736f6c63430008000033",
  "linkReferences": {},
  "deployedLinkReferences": {}
}