{
  "_format": "hh-sol-artifact-1",
  "contractName": "LighthousePrefund",
  "sourceName": "contracts/LighthousePrefund.sol",
  "abi": [
    {
      "inputs": [
        {
          "internalType": "address",
          "name": "_tier",
          "type": "address"
        },
        {
          "internalType": "address",
          "name": "_submission",
          "type": "address"
        },
        {
          "internalType": "address",
          "name": "_project",
          "type": "address"
        }
      ],
      "stateMutability": "nonpayable",
      "type": "constructor"
    },
    {
      "anonymous": false,
      "inputs": [
        {
          "indexed": true,
          "internalType": "address",
          "name": "previousOwner",
          "type": "address"
        },
        {
          "indexed": true,
          "internalType": "address",
          "name": "newOwner",
          "type": "address"
        }
      ],
      "name": "OwnershipTransferred",
      "type": "event"
    },
    {
      "anonymous": false,
      "inputs": [
        {
          "indexed": true,
          "internalType": "uint256",
          "name": "projectId",
          "type": "uint256"
        },
        {
          "indexed": true,
          "internalType": "address",
          "name": "investor",
          "type": "address"
        },
        {
          "indexed": false,
          "internalType": "int8",
          "name": "tier",
          "type": "int8"
        },
        {
          "indexed": false,
          "internalType": "uint256",
          "name": "time",
          "type": "uint256"
        }
      ],
      "name": "Prefund",
      "type": "event"
    },
    {
      "inputs": [
        {
          "internalType": "uint256",
          "name": "",
          "type": "uint256"
        },
        {
          "internalType": "address",
          "name": "",
          "type": "address"
        }
      ],
      "name": "investments",
      "outputs": [
        {
          "internalType": "bool",
          "name": "",
          "type": "bool"
        }
      ],
      "stateMutability": "view",
      "type": "function"
    },
    {
      "inputs": [],
      "name": "owner",
      "outputs": [
        {
          "internalType": "address",
          "name": "",
          "type": "address"
        }
      ],
      "stateMutability": "view",
      "type": "function"
    },
    {
      "inputs": [
        {
          "internalType": "uint256",
          "name": "projectId",
          "type": "uint256"
        },
        {
          "internalType": "uint8",
          "name": "v",
          "type": "uint8"
        },
        {
          "internalType": "bytes32",
          "name": "r",
          "type": "bytes32"
        },
        {
          "internalType": "bytes32",
          "name": "s",
          "type": "bytes32"
        }
      ],
      "name": "prefund",
      "outputs": [],
      "stateMutability": "payable",
      "type": "function"
    },
    {
      "inputs": [
        {
          "internalType": "uint256",
          "name": "id",
          "type": "uint256"
        },
        {
          "internalType": "address",
          "name": "investor",
          "type": "address"
        }
      ],
      "name": "prefunded",
      "outputs": [
        {
          "internalType": "bool",
          "name": "",
          "type": "bool"
        }
      ],
      "stateMutability": "view",
      "type": "function"
    },
    {
      "inputs": [],
      "name": "renounceOwnership",
      "outputs": [],
      "stateMutability": "nonpayable",
      "type": "function"
    },
    {
      "inputs": [
        {
          "internalType": "address",
          "name": "newOwner",
          "type": "address"
        }
      ],
      "name": "transferOwnership",
      "outputs": [],
      "stateMutability": "nonpayable",
      "type": "function"
    }
  ],
  "bytecode": "0x60806040523480156200001157600080fd5b5060405162002022380380620020228339818101604052810190620000379190620003d1565b620000576200004b620002ee60201b60201c565b620002f660201b60201c565b600073ffffffffffffffffffffffffffffffffffffffff168373ffffffffffffffffffffffffffffffffffffffff1614158015620000c25750600073ffffffffffffffffffffffffffffffffffffffff168273ffffffffffffffffffffffffffffffffffffffff1614155b8015620000fc5750600073ffffffffffffffffffffffffffffffffffffffff168173ffffffffffffffffffffffffffffffffffffffff1614155b6200013e576040517f08c379a00000000000000000000000000000000000000000000000000000000081526004016200013590620004cd565b60405180910390fd5b8173ffffffffffffffffffffffffffffffffffffffff168373ffffffffffffffffffffffffffffffffffffffff161415620001b0576040517f08c379a0000000000000000000000000000000000000000000000000000000008152600401620001a790620004ab565b60405180910390fd5b8073ffffffffffffffffffffffffffffffffffffffff168373ffffffffffffffffffffffffffffffffffffffff16141562000222576040517f08c379a00000000000000000000000000000000000000000000000000000000081526004016200021990620004ab565b60405180910390fd5b82600160006101000a81548173ffffffffffffffffffffffffffffffffffffffff021916908373ffffffffffffffffffffffffffffffffffffffff16021790555081600260006101000a81548173ffffffffffffffffffffffffffffffffffffffff021916908373ffffffffffffffffffffffffffffffffffffffff16021790555080600360006101000a81548173ffffffffffffffffffffffffffffffffffffffff021916908373ffffffffffffffffffffffffffffffffffffffff1602179055505050506200054e565b600033905090565b60008060009054906101000a900473ffffffffffffffffffffffffffffffffffffffff169050816000806101000a81548173ffffffffffffffffffffffffffffffffffffffff021916908373ffffffffffffffffffffffffffffffffffffffff1602179055508173ffffffffffffffffffffffffffffffffffffffff168173ffffffffffffffffffffffffffffffffffffffff167f8be0079c531659141344cd1fd0a4f28419497f9722a3daafe3b4186f6b6457e060405160405180910390a35050565b600081519050620003cb8162000534565b92915050565b600080600060608486031215620003e757600080fd5b6000620003f786828701620003ba565b93505060206200040a86828701620003ba565b92505060406200041d86828701620003ba565b9150509250925092565b600062000436601883620004ef565b91507f4c69676874686f7573653a2053414d455f4144445245535300000000000000006000830152602082019050919050565b600062000478601883620004ef565b91507f4c69676874686f7573653a205a45524f5f4144445245535300000000000000006000830152602082019050919050565b60006020820190508181036000830152620004c68162000427565b9050919050565b60006020820190508181036000830152620004e88162000469565b9050919050565b600082825260208201905092915050565b60006200050d8262000514565b9050919050565b600073ffffffffffffffffffffffffffffffffffffffff82169050919050565b6200053f8162000500565b81146200054b57600080fd5b50565b611ac4806200055e6000396000f3fe6080604052600436106100555760003560e01c806302deed031461005a578063715018a6146100975780638da5cb5b146100ae578063b11b32d2146100d9578063ce34ece414610116578063f2fde38b14610132575b600080fd5b34801561006657600080fd5b50610081600480360381019061007c9190611063565b61015b565b60405161008e9190611664565b60405180910390f35b3480156100a357600080fd5b506100ac6101c3565b005b3480156100ba57600080fd5b506100c361024b565b6040516100d09190611612565b60405180910390f35b3480156100e557600080fd5b5061010060048036038101906100fb9190611063565b610274565b60405161010d9190611664565b60405180910390f35b610130600480360381019061012b9190611117565b6102a3565b005b34801561013e57600080fd5b5061015960048036038101906101549190610fbf565b610d53565b005b60006004600084815260200190815260200160002060008373ffffffffffffffffffffffffffffffffffffffff1673ffffffffffffffffffffffffffffffffffffffff16815260200190815260200160002060009054906101000a900460ff16905092915050565b6101cb610e4b565b73ffffffffffffffffffffffffffffffffffffffff166101e961024b565b73ffffffffffffffffffffffffffffffffffffffff161461023f576040517f08c379a00000000000000000000000000000000000000000000000000000000081526004016102369061180d565b60405180910390fd5b6102496000610e53565b565b60008060009054906101000a900473ffffffffffffffffffffffffffffffffffffffff16905090565b60046020528160005260406000206020528060005260406000206000915091509054906101000a900460ff1681565b600360009054906101000a900473ffffffffffffffffffffffffffffffffffffffff1673ffffffffffffffffffffffffffffffffffffffff16636592b724856040518263ffffffff1660e01b81526004016102fe919061186d565b60206040518083038186803b15801561031657600080fd5b505afa15801561032a573d6000803e3d6000fd5b505050506040513d601f19601f8201168201806040525081019061034e9190611011565b61038d576040517f08c379a00000000000000000000000000000000000000000000000000000000081526004016103849061176d565b60405180910390fd5b610397843361015b565b156103d7576040517f08c379a00000000000000000000000000000000000000000000000000000000081526004016103ce9061182d565b60405180910390fd5b600080600360009054906101000a900473ffffffffffffffffffffffffffffffffffffffff1673ffffffffffffffffffffffffffffffffffffffff16638ee2a6d1876040518263ffffffff1660e01b8152600401610435919061186d565b604080518083038186803b15801561044c57600080fd5b505afa158015610460573d6000803e3d6000fd5b505050506040513d601f19601f8201168201806040525081019061048491906110db565b8092508193505050814210156104cf576040517f08c379a00000000000000000000000000000000000000000000000000000000081526004016104c69061178d565b60405180910390fd5b80421115610512576040517f08c379a00000000000000000000000000000000000000000000000000000000081526004016105099061184d565b60405180910390fd5b5050600260009054906101000a900473ffffffffffffffffffffffffffffffffffffffff1673ffffffffffffffffffffffffffffffffffffffff16638c817b6e85336040518363ffffffff1660e01b8152600401610571929190611888565b60206040518083038186803b15801561058957600080fd5b505afa15801561059d573d6000803e3d6000fd5b505050506040513d601f19601f820116820180604052508101906105c19190611011565b610600576040517f08c379a00000000000000000000000000000000000000000000000000000000081526004016105f79061172d565b60405180910390fd5b6000600160009054906101000a900473ffffffffffffffffffffffffffffffffffffffff1673ffffffffffffffffffffffffffffffffffffffff166328fc4c3c336040518263ffffffff1660e01b815260040161065d9190611612565b60206040518083038186803b15801561067557600080fd5b505afa158015610689573d6000803e3d6000fd5b505050506040513d601f19601f820116820180604052508101906106ad919061103a565b905060008160000b1380156106c5575060048160000b125b610704576040517f08c379a00000000000000000000000000000000000000000000000000000000081526004016106fb906117cd565b60405180910390fd5b600080600360009054906101000a900473ffffffffffffffffffffffffffffffffffffffff1673ffffffffffffffffffffffffffffffffffffffff16637480285788856040518363ffffffff1660e01b81526004016107649291906118b1565b604080518083038186803b15801561077b57600080fd5b505afa15801561078f573d6000803e3d6000fd5b505050506040513d601f19601f820116820180604052508101906107b391906110db565b80925081935050508082106107fd576040517f08c379a00000000000000000000000000000000000000000000000000000000081526004016107f4906116ed565b60405180910390fd5b60006040518060400160405280601c81526020017f19457468657265756d205369676e6564204d6573736167653a0a3332000000008152509050600033898660405160200161084e939291906115ad565b6040516020818303038152906040528051906020012090506000828260405160200161087b9291906115ea565b60405160208183030381529060405280519060200120905060006001828b8b8b604051600081526020016040526040516108b8949392919061167f565b6020604051602081039080840390855afa1580156108da573d6000803e3d6000fd5b505050602060405103519050600360009054906101000a900473ffffffffffffffffffffffffffffffffffffffff1673ffffffffffffffffffffffffffffffffffffffff1663b60da0856040518163ffffffff1660e01b815260040160206040518083038186803b15801561094e57600080fd5b505afa158015610962573d6000803e3d6000fd5b505050506040513d601f19601f820116820180604052508101906109869190610fe8565b73ffffffffffffffffffffffffffffffffffffffff168173ffffffffffffffffffffffffffffffffffffffff16146109f3576040517f08c379a00000000000000000000000000000000000000000000000000000000081526004016109ea9061174d565b60405180910390fd5b600080600360009054906101000a900473ffffffffffffffffffffffffffffffffffffffff1673ffffffffffffffffffffffffffffffffffffffff1663b5f5cf708e8b6040518363ffffffff1660e01b8152600401610a539291906118b1565b604080518083038186803b158015610a6a57600080fd5b505afa158015610a7e573d6000803e3d6000fd5b505050506040513d601f19601f82011682018060405250810190610aa2919061109f565b8092508193505050600073ffffffffffffffffffffffffffffffffffffffff168173ffffffffffffffffffffffffffffffffffffffff161415610b2657813414610b21576040517f08c379a0000000000000000000000000000000000000000000000000000000008152600401610b18906117ad565b60405180910390fd5b610bfb565b60008190508073ffffffffffffffffffffffffffffffffffffffff166323b872dd3330866040518463ffffffff1660e01b8152600401610b689392919061162d565b602060405180830381600087803b158015610b8257600080fd5b505af1158015610b96573d6000803e3d6000fd5b505050506040513d601f19601f82011682018060405250810190610bba9190611011565b610bf9576040517f08c379a0000000000000000000000000000000000000000000000000000000008152600401610bf0906117ed565b60405180910390fd5b505b600360009054906101000a900473ffffffffffffffffffffffffffffffffffffffff1673ffffffffffffffffffffffffffffffffffffffff1663c82189e08e8b6040518363ffffffff1660e01b8152600401610c589291906118b1565b600060405180830381600087803b158015610c7257600080fd5b505af1158015610c86573d6000803e3d6000fd5b505050506001600460008f815260200190815260200160002060003373ffffffffffffffffffffffffffffffffffffffff1673ffffffffffffffffffffffffffffffffffffffff16815260200190815260200160002060006101000a81548160ff0219169083151502179055503373ffffffffffffffffffffffffffffffffffffffff168d7f8598f161559951f8d26c6782ad0bfdf057b7531aca566d3e518ba68fd37d7b378b42604051610d3c9291906116c4565b60405180910390a350505050505050505050505050565b610d5b610e4b565b73ffffffffffffffffffffffffffffffffffffffff16610d7961024b565b73ffffffffffffffffffffffffffffffffffffffff1614610dcf576040517f08c379a0000000000000000000000000000000000000000000000000000000008152600401610dc69061180d565b60405180910390fd5b600073ffffffffffffffffffffffffffffffffffffffff168173ffffffffffffffffffffffffffffffffffffffff161415610e3f576040517f08c379a0000000000000000000000000000000000000000000000000000000008152600401610e369061170d565b60405180910390fd5b610e4881610e53565b50565b600033905090565b60008060009054906101000a900473ffffffffffffffffffffffffffffffffffffffff169050816000806101000a81548173ffffffffffffffffffffffffffffffffffffffff021916908373ffffffffffffffffffffffffffffffffffffffff1602179055508173ffffffffffffffffffffffffffffffffffffffff168173ffffffffffffffffffffffffffffffffffffffff167f8be0079c531659141344cd1fd0a4f28419497f9722a3daafe3b4186f6b6457e060405160405180910390a35050565b600081359050610f2681611a04565b92915050565b600081519050610f3b81611a04565b92915050565b600081519050610f5081611a1b565b92915050565b600081359050610f6581611a32565b92915050565b600081519050610f7a81611a49565b92915050565b600081359050610f8f81611a60565b92915050565b600081519050610fa481611a60565b92915050565b600081359050610fb981611a77565b92915050565b600060208284031215610fd157600080fd5b6000610fdf84828501610f17565b91505092915050565b600060208284031215610ffa57600080fd5b600061100884828501610f2c565b91505092915050565b60006020828403121561102357600080fd5b600061103184828501610f41565b91505092915050565b60006020828403121561104c57600080fd5b600061105a84828501610f6b565b91505092915050565b6000806040838503121561107657600080fd5b600061108485828601610f80565b925050602061109585828601610f17565b9150509250929050565b600080604083850312156110b257600080fd5b60006110c085828601610f95565b92505060206110d185828601610f2c565b9150509250929050565b600080604083850312156110ee57600080fd5b60006110fc85828601610f95565b925050602061110d85828601610f95565b9150509250929050565b6000806000806080858703121561112d57600080fd5b600061113b87828801610f80565b945050602061114c87828801610faa565b935050604061115d87828801610f56565b925050606061116e87828801610f56565b91505092959194509250565b61118381611901565b82525050565b61119a61119582611901565b6119a0565b82525050565b6111a981611913565b82525050565b6111b88161191f565b82525050565b6111cf6111ca8261191f565b6119b2565b82525050565b60006111e0826118da565b6111ea81856118e5565b93506111fa81856020860161196d565b80840191505092915050565b61120f81611929565b82525050565b61122661122182611929565b6119bc565b82525050565b60006112396014836118f0565b91507f4c69676874686f7573653a20544945525f4341500000000000000000000000006000830152602082019050919050565b60006112796026836118f0565b91507f4f776e61626c653a206e6577206f776e657220697320746865207a65726f206160008301527f64647265737300000000000000000000000000000000000000000000000000006020830152604082019050919050565b60006112df601a836118f0565b91507f4c69676874686f7573653a204e4f545f524547495354455245440000000000006000830152602082019050919050565b600061131f600f836118f0565b91507f4c69676874686f7573653a2053494700000000000000000000000000000000006000830152602082019050919050565b600061135f6028836118f0565b91507f4c69676874686f7573653a20524547495354524154494f4e5f4e4f545f494e4960008301527f5449414c495a45440000000000000000000000000000000000000000000000006020830152604082019050919050565b60006113c5601b836118f0565b91507f4c69676874686f7573653a204e4f545f535441525445445f59455400000000006000830152602082019050919050565b6000611405601d836118f0565b91507f4c69676874686f7573653a204e4f545f454e4f5547485f4e41544956450000006000830152602082019050919050565b60006114456013836118f0565b91507f4c69676874686f7573653a204e4f5f54494552000000000000000000000000006000830152602082019050919050565b6000611485601d836118f0565b91507f4c69676874686f7573653a204641494c45445f544f5f5452414e5345520000006000830152602082019050919050565b60006114c56020836118f0565b91507f4f776e61626c653a2063616c6c6572206973206e6f7420746865206f776e65726000830152602082019050919050565b6000611505601d836118f0565b91507f4c69676874686f7573653a20414c52454144595f50524546554e4445440000006000830152602082019050919050565b60006115456014836118f0565b91507f4c69676874686f7573653a2046494e49534845440000000000000000000000006000830152602082019050919050565b61158181611956565b82525050565b61159861159382611956565b6119e0565b82525050565b6115a781611960565b82525050565b60006115b98286611189565b6014820191506115c98285611587565b6020820191506115d98284611215565b600182019150819050949350505050565b60006115f682856111d5565b915061160282846111be565b6020820191508190509392505050565b6000602082019050611627600083018461117a565b92915050565b6000606082019050611642600083018661117a565b61164f602083018561117a565b61165c6040830184611578565b949350505050565b600060208201905061167960008301846111a0565b92915050565b600060808201905061169460008301876111af565b6116a1602083018661159e565b6116ae60408301856111af565b6116bb60608301846111af565b95945050505050565b60006040820190506116d96000830185611206565b6116e66020830184611578565b9392505050565b600060208201905081810360008301526117068161122c565b9050919050565b600060208201905081810360008301526117268161126c565b9050919050565b60006020820190508181036000830152611746816112d2565b9050919050565b6000602082019050818103600083015261176681611312565b9050919050565b6000602082019050818103600083015261178681611352565b9050919050565b600060208201905081810360008301526117a6816113b8565b9050919050565b600060208201905081810360008301526117c6816113f8565b9050919050565b600060208201905081810360008301526117e681611438565b9050919050565b6000602082019050818103600083015261180681611478565b9050919050565b60006020820190508181036000830152611826816114b8565b9050919050565b60006020820190508181036000830152611846816114f8565b9050919050565b6000602082019050818103600083015261186681611538565b9050919050565b60006020820190506118826000830184611578565b92915050565b600060408201905061189d6000830185611578565b6118aa602083018461117a565b9392505050565b60006040820190506118c66000830185611578565b6118d36020830184611206565b9392505050565b600081519050919050565b600081905092915050565b600082825260208201905092915050565b600061190c82611936565b9050919050565b60008115159050919050565b6000819050919050565b60008160000b9050919050565b600073ffffffffffffffffffffffffffffffffffffffff82169050919050565b6000819050919050565b600060ff82169050919050565b60005b8381101561198b578082015181840152602081019050611970565b8381111561199a576000848401525b50505050565b60006119ab826119ce565b9050919050565b6000819050919050565b60006119c7826119ea565b9050919050565b60006119d9826119f7565b9050919050565b6000819050919050565b60008160f81b9050919050565b60008160601b9050919050565b611a0d81611901565b8114611a1857600080fd5b50565b611a2481611913565b8114611a2f57600080fd5b50565b611a3b8161191f565b8114611a4657600080fd5b50565b611a5281611929565b8114611a5d57600080fd5b50565b611a6981611956565b8114611a7457600080fd5b50565b611a8081611960565b8114611a8b57600080fd5b5056fea26469706673582212206ee058a0896a24a3fd1669b30f505987f8df18628aa4dbfe6e571a9167d3143164736f6c63430008000033",
  "linkReferences": {},
  "deployedLinkReferences": {}
}