{
  "_format": "hh-sol-artifact-1",
  "contractName": "LighthousePrefund",
  "sourceName": "contracts/LighthousePrefund.sol",
  "abi": [
    {
      "inputs": [
        {
          "internalType": "address",
          "name": "_tier",
          "type": "address"
        },
        {
          "internalType": "address",
          "name": "_submission",
          "type": "address"
        },
        {
          "internalType": "address",
          "name": "_project",
          "type": "address"
        },
        {
          "internalType": "address payable",
          "name": "_fundCollector",
          "type": "address"
        },
        {
          "internalType": "uint256",
          "name": "_chainID",
          "type": "uint256"
        }
      ],
      "stateMutability": "nonpayable",
      "type": "constructor"
    },
    {
      "anonymous": false,
      "inputs": [
        {
          "indexed": true,
          "internalType": "address",
          "name": "previousOwner",
          "type": "address"
        },
        {
          "indexed": true,
          "internalType": "address",
          "name": "newOwner",
          "type": "address"
        }
      ],
      "name": "OwnershipTransferred",
      "type": "event"
    },
    {
      "anonymous": false,
      "inputs": [
        {
          "indexed": true,
          "internalType": "uint256",
          "name": "projectId",
          "type": "uint256"
        },
        {
          "indexed": true,
          "internalType": "address",
          "name": "investor",
          "type": "address"
        },
        {
          "indexed": false,
          "internalType": "int8",
          "name": "tier",
          "type": "int8"
        },
        {
          "indexed": false,
          "internalType": "uint256",
          "name": "time",
          "type": "uint256"
        }
      ],
      "name": "Prefund",
      "type": "event"
    },
    {
      "inputs": [],
      "name": "chainID",
      "outputs": [
        {
          "internalType": "uint256",
          "name": "",
          "type": "uint256"
        }
      ],
      "stateMutability": "view",
      "type": "function"
    },
    {
      "inputs": [
        {
          "internalType": "uint256",
          "name": "id",
          "type": "uint256"
        },
        {
          "internalType": "address",
          "name": "investor",
          "type": "address"
        }
      ],
      "name": "getPrefundTier",
      "outputs": [
        {
          "internalType": "int8",
          "name": "",
          "type": "int8"
        }
      ],
      "stateMutability": "view",
      "type": "function"
    },
    {
      "inputs": [
        {
          "internalType": "uint256",
          "name": "",
          "type": "uint256"
        },
        {
          "internalType": "address",
          "name": "",
          "type": "address"
        }
      ],
      "name": "investments",
      "outputs": [
        {
          "internalType": "bool",
          "name": "",
          "type": "bool"
        }
      ],
      "stateMutability": "view",
      "type": "function"
    },
    {
      "inputs": [],
      "name": "owner",
      "outputs": [
        {
          "internalType": "address",
          "name": "",
          "type": "address"
        }
      ],
      "stateMutability": "view",
      "type": "function"
    },
    {
      "inputs": [
        {
          "internalType": "uint256",
          "name": "projectId",
          "type": "uint256"
        },
        {
          "internalType": "int8",
          "name": "certainTier",
          "type": "int8"
        },
        {
          "internalType": "uint8",
          "name": "v",
          "type": "uint8"
        },
        {
          "internalType": "bytes32",
          "name": "r",
          "type": "bytes32"
        },
        {
          "internalType": "bytes32",
          "name": "s",
          "type": "bytes32"
        }
      ],
      "name": "prefund",
      "outputs": [],
      "stateMutability": "payable",
      "type": "function"
    },
    {
      "inputs": [
        {
          "internalType": "uint256",
          "name": "id",
          "type": "uint256"
        },
        {
          "internalType": "address",
          "name": "investor",
          "type": "address"
        }
      ],
      "name": "prefunded",
      "outputs": [
        {
          "internalType": "bool",
          "name": "",
          "type": "bool"
        }
      ],
      "stateMutability": "view",
      "type": "function"
    },
    {
      "inputs": [],
      "name": "renounceOwnership",
      "outputs": [],
      "stateMutability": "nonpayable",
      "type": "function"
    },
    {
      "inputs": [
        {
          "internalType": "address payable",
          "name": "_fundCollector",
          "type": "address"
        }
      ],
      "name": "setFundCollector",
      "outputs": [],
      "stateMutability": "nonpayable",
      "type": "function"
    },
    {
      "inputs": [
        {
          "internalType": "uint256",
          "name": "",
          "type": "uint256"
        },
        {
          "internalType": "address",
          "name": "",
          "type": "address"
        }
      ],
      "name": "tiers",
      "outputs": [
        {
          "internalType": "int8",
          "name": "",
          "type": "int8"
        }
      ],
      "stateMutability": "view",
      "type": "function"
    },
    {
      "inputs": [
        {
          "internalType": "address",
          "name": "newOwner",
          "type": "address"
        }
      ],
      "name": "transferOwnership",
      "outputs": [],
      "stateMutability": "nonpayable",
      "type": "function"
    }
  ],
  "bytecode": "0x60806040523480156200001157600080fd5b5060405162002a7c38038062002a7c8339818101604052810190620000379190620004c9565b620000576200004b620003b860201b60201c565b620003c060201b60201c565b600073ffffffffffffffffffffffffffffffffffffffff168573ffffffffffffffffffffffffffffffffffffffff1614158015620000c25750600073ffffffffffffffffffffffffffffffffffffffff168473ffffffffffffffffffffffffffffffffffffffff1614155b8015620000fc5750600073ffffffffffffffffffffffffffffffffffffffff168373ffffffffffffffffffffffffffffffffffffffff1614155b8015620001365750600073ffffffffffffffffffffffffffffffffffffffff168273ffffffffffffffffffffffffffffffffffffffff1614155b62000178576040517f08c379a00000000000000000000000000000000000000000000000000000000081526004016200016f9062000655565b60405180910390fd5b8373ffffffffffffffffffffffffffffffffffffffff168573ffffffffffffffffffffffffffffffffffffffff161415620001ea576040517f08c379a0000000000000000000000000000000000000000000000000000000008152600401620001e19062000611565b60405180910390fd5b8273ffffffffffffffffffffffffffffffffffffffff168573ffffffffffffffffffffffffffffffffffffffff1614156200025c576040517f08c379a0000000000000000000000000000000000000000000000000000000008152600401620002539062000611565b60405180910390fd5b60008111620002a2576040517f08c379a0000000000000000000000000000000000000000000000000000000008152600401620002999062000633565b60405180910390fd5b84600160006101000a81548173ffffffffffffffffffffffffffffffffffffffff021916908373ffffffffffffffffffffffffffffffffffffffff16021790555083600260006101000a81548173ffffffffffffffffffffffffffffffffffffffff021916908373ffffffffffffffffffffffffffffffffffffffff16021790555082600360006101000a81548173ffffffffffffffffffffffffffffffffffffffff021916908373ffffffffffffffffffffffffffffffffffffffff16021790555081600760006101000a81548173ffffffffffffffffffffffffffffffffffffffff021916908373ffffffffffffffffffffffffffffffffffffffff16021790555080600481905550505050505062000728565b600033905090565b60008060009054906101000a900473ffffffffffffffffffffffffffffffffffffffff169050816000806101000a81548173ffffffffffffffffffffffffffffffffffffffff021916908373ffffffffffffffffffffffffffffffffffffffff1602179055508173ffffffffffffffffffffffffffffffffffffffff168173ffffffffffffffffffffffffffffffffffffffff167f8be0079c531659141344cd1fd0a4f28419497f9722a3daafe3b4186f6b6457e060405160405180910390a35050565b6000815190506200049581620006da565b92915050565b600081519050620004ac81620006f4565b92915050565b600081519050620004c3816200070e565b92915050565b600080600080600060a08688031215620004e257600080fd5b6000620004f28882890162000484565b9550506020620005058882890162000484565b9450506040620005188882890162000484565b93505060606200052b888289016200049b565b92505060806200053e88828901620004b2565b9150509295509295909350565b60006200055a60188362000677565b91507f4c69676874686f7573653a2053414d455f4144445245535300000000000000006000830152602082019050919050565b60006200059c60168362000677565b91507f4c69676874686f7573653a205a45524f5f56414c5545000000000000000000006000830152602082019050919050565b6000620005de60188362000677565b91507f4c69676874686f7573653a205a45524f5f4144445245535300000000000000006000830152602082019050919050565b600060208201905081810360008301526200062c816200054b565b9050919050565b600060208201905081810360008301526200064e816200058d565b9050919050565b600060208201905081810360008301526200067081620005cf565b9050919050565b600082825260208201905092915050565b60006200069582620006b0565b9050919050565b6000620006a982620006b0565b9050919050565b600073ffffffffffffffffffffffffffffffffffffffff82169050919050565b6000819050919050565b620006e58162000688565b8114620006f157600080fd5b50565b620006ff816200069c565b81146200070b57600080fd5b50565b6200071981620006d0565b81146200072557600080fd5b50565b61234480620007386000396000f3fe6080604052600436106100915760003560e01c8063715018a611610059578063715018a6146101925780638da5cb5b146101a9578063adc879e9146101d4578063b11b32d2146101ff578063f2fde38b1461023c57610091565b806302deed031461009657806328036256146100d35780633f204c13146101105780634697969c1461012c57806347b6070814610169575b600080fd5b3480156100a257600080fd5b506100bd60048036038101906100b891906116db565b610265565b6040516100ca9190611e0a565b60405180910390f35b3480156100df57600080fd5b506100fa60048036038101906100f591906116db565b6102cd565b6040516101079190611e6a565b60405180910390f35b61012a60048036038101906101259190611753565b610335565b005b34801561013857600080fd5b50610153600480360381019061014e91906116db565b6110bd565b6040516101609190611e6a565b60405180910390f35b34801561017557600080fd5b50610190600480360381019061018b9190611660565b6110ec565b005b34801561019e57600080fd5b506101a7611292565b005b3480156101b557600080fd5b506101be61131a565b6040516101cb9190611d8f565b60405180910390f35b3480156101e057600080fd5b506101e9611343565b6040516101f6919061208e565b60405180910390f35b34801561020b57600080fd5b50610226600480360381019061022191906116db565b611349565b6040516102339190611e0a565b60405180910390f35b34801561024857600080fd5b50610263600480360381019061025e919061160e565b611378565b005b60006005600084815260200190815260200160002060008373ffffffffffffffffffffffffffffffffffffffff1673ffffffffffffffffffffffffffffffffffffffff16815260200190815260200160002060009054906101000a900460ff16905092915050565b60006006600084815260200190815260200160002060008373ffffffffffffffffffffffffffffffffffffffff1673ffffffffffffffffffffffffffffffffffffffff16815260200190815260200160002060009054906101000a900460000b905092915050565b600360009054906101000a900473ffffffffffffffffffffffffffffffffffffffff1673ffffffffffffffffffffffffffffffffffffffff16636592b724866040518263ffffffff1660e01b8152600401610390919061208e565b60206040518083038186803b1580156103a857600080fd5b505afa1580156103bc573d6000803e3d6000fd5b505050506040513d601f19601f820116820180604052508101906103e09190611689565b61041f576040517f08c379a000000000000000000000000000000000000000000000000000000000815260040161041690611f2e565b60405180910390fd5b6104298533610265565b15610469576040517f08c379a00000000000000000000000000000000000000000000000000000000081526004016104609061200e565b60405180910390fd5b60008460000b13801561047f575060048460000b125b6104be576040517f08c379a00000000000000000000000000000000000000000000000000000000081526004016104b590611fee565b60405180910390fd5b600080600360009054906101000a900473ffffffffffffffffffffffffffffffffffffffff1673ffffffffffffffffffffffffffffffffffffffff16638ee2a6d1886040518263ffffffff1660e01b815260040161051c919061208e565b604080518083038186803b15801561053357600080fd5b505afa158015610547573d6000803e3d6000fd5b505050506040513d601f19601f8201168201806040525081019061056b91906117ca565b8092508193505050814210156105b6576040517f08c379a00000000000000000000000000000000000000000000000000000000081526004016105ad90611f4e565b60405180910390fd5b804211156105f9576040517f08c379a00000000000000000000000000000000000000000000000000000000081526004016105f09061206e565b60405180910390fd5b5050600260009054906101000a900473ffffffffffffffffffffffffffffffffffffffff1673ffffffffffffffffffffffffffffffffffffffff16638c817b6e86336040518363ffffffff1660e01b81526004016106589291906120a9565b60206040518083038186803b15801561067057600080fd5b505afa158015610684573d6000803e3d6000fd5b505050506040513d601f19601f820116820180604052508101906106a89190611689565b6106e7576040517f08c379a00000000000000000000000000000000000000000000000000000000081526004016106de90611eee565b60405180910390fd5b6000600160009054906101000a900473ffffffffffffffffffffffffffffffffffffffff1673ffffffffffffffffffffffffffffffffffffffff166328fc4c3c336040518263ffffffff1660e01b81526004016107449190611d8f565b60206040518083038186803b15801561075c57600080fd5b505afa158015610770573d6000803e3d6000fd5b505050506040513d601f19601f8201168201806040525081019061079491906116b2565b905060008160000b1380156107ac575060048160000b125b6107eb576040517f08c379a00000000000000000000000000000000000000000000000000000000081526004016107e290611f8e565b60405180910390fd5b8060000b8560000b1315610834576040517f08c379a000000000000000000000000000000000000000000000000000000000815260040161082b90611fee565b60405180910390fd5b849050600080600360009054906101000a900473ffffffffffffffffffffffffffffffffffffffff1673ffffffffffffffffffffffffffffffffffffffff16637480285789856040518363ffffffff1660e01b81526004016108979291906120d2565b604080518083038186803b1580156108ae57600080fd5b505afa1580156108c2573d6000803e3d6000fd5b505050506040513d601f19601f820116820180604052508101906108e691906117ca565b8092508193505050808210610930576040517f08c379a000000000000000000000000000000000000000000000000000000000815260040161092790611eae565b60405180910390fd5b60006040518060400160405280601c81526020017f19457468657265756d205369676e6564204d6573736167653a0a3332000000008152509050600033306004548c8c604051602001610987959493929190611d08565b604051602081830303815290604052805190602001209050600082826040516020016109b4929190611d67565b60405160208183030381529060405280519060200120905060006001828b8b8b604051600081526020016040526040516109f19493929190611e25565b6020604051602081039080840390855afa158015610a13573d6000803e3d6000fd5b505050602060405103519050600360009054906101000a900473ffffffffffffffffffffffffffffffffffffffff1673ffffffffffffffffffffffffffffffffffffffff1663b60da0856040518163ffffffff1660e01b815260040160206040518083038186803b158015610a8757600080fd5b505afa158015610a9b573d6000803e3d6000fd5b505050506040513d601f19601f82011682018060405250810190610abf9190611637565b73ffffffffffffffffffffffffffffffffffffffff168173ffffffffffffffffffffffffffffffffffffffff1614610b2c576040517f08c379a0000000000000000000000000000000000000000000000000000000008152600401610b2390611f0e565b60405180910390fd5b50505050600080600360009054906101000a900473ffffffffffffffffffffffffffffffffffffffff1673ffffffffffffffffffffffffffffffffffffffff1663b5f5cf708b876040518363ffffffff1660e01b8152600401610b909291906120d2565b604080518083038186803b158015610ba757600080fd5b505afa158015610bbb573d6000803e3d6000fd5b505050506040513d601f19601f82011682018060405250810190610bdf9190611717565b8092508193505050600073ffffffffffffffffffffffffffffffffffffffff168173ffffffffffffffffffffffffffffffffffffffff161415610ccc57813414610c5e576040517f08c379a0000000000000000000000000000000000000000000000000000000008152600401610c5590611f6e565b60405180910390fd5b600760009054906101000a900473ffffffffffffffffffffffffffffffffffffffff1673ffffffffffffffffffffffffffffffffffffffff166108fc349081150290604051600060405180830381858888f19350505050158015610cc6573d6000803e3d6000fd5b50610dc3565b60008190508073ffffffffffffffffffffffffffffffffffffffff166323b872dd33600760009054906101000a900473ffffffffffffffffffffffffffffffffffffffff16866040518463ffffffff1660e01b8152600401610d3093929190611daa565b602060405180830381600087803b158015610d4a57600080fd5b505af1158015610d5e573d6000803e3d6000fd5b505050506040513d601f19601f82011682018060405250810190610d829190611689565b610dc1576040517f08c379a0000000000000000000000000000000000000000000000000000000008152600401610db890611fae565b60405180910390fd5b505b600160009054906101000a900473ffffffffffffffffffffffffffffffffffffffff1673ffffffffffffffffffffffffffffffffffffffff1663ba1cbc7f33600160009054906101000a900473ffffffffffffffffffffffffffffffffffffffff1673ffffffffffffffffffffffffffffffffffffffff166328fc4c3c336040518263ffffffff1660e01b8152600401610e5d9190611d8f565b60206040518083038186803b158015610e7557600080fd5b505afa158015610e89573d6000803e3d6000fd5b505050506040513d601f19601f82011682018060405250810190610ead91906116b2565b6040518363ffffffff1660e01b8152600401610eca929190611de1565b600060405180830381600087803b158015610ee457600080fd5b505af1158015610ef8573d6000803e3d6000fd5b50505050600360009054906101000a900473ffffffffffffffffffffffffffffffffffffffff1673ffffffffffffffffffffffffffffffffffffffff1663c82189e08b876040518363ffffffff1660e01b8152600401610f599291906120d2565b600060405180830381600087803b158015610f7357600080fd5b505af1158015610f87573d6000803e3d6000fd5b505050506001600560008c815260200190815260200160002060003373ffffffffffffffffffffffffffffffffffffffff1673ffffffffffffffffffffffffffffffffffffffff16815260200190815260200160002060006101000a81548160ff02191690831515021790555084600660008c815260200190815260200160002060003373ffffffffffffffffffffffffffffffffffffffff1673ffffffffffffffffffffffffffffffffffffffff16815260200190815260200160002060006101000a81548160ff021916908360000b60ff1602179055503373ffffffffffffffffffffffffffffffffffffffff168a7f8598f161559951f8d26c6782ad0bfdf057b7531aca566d3e518ba68fd37d7b3787426040516110a9929190611e85565b60405180910390a350505050505050505050565b60066020528160005260406000206020528060005260406000206000915091509054906101000a900460000b81565b6110f4611470565b73ffffffffffffffffffffffffffffffffffffffff1661111261131a565b73ffffffffffffffffffffffffffffffffffffffff1614611168576040517f08c379a000000000000000000000000000000000000000000000000000000000815260040161115f90611fce565b60405180910390fd5b600073ffffffffffffffffffffffffffffffffffffffff168173ffffffffffffffffffffffffffffffffffffffff1614156111d8576040517f08c379a00000000000000000000000000000000000000000000000000000000081526004016111cf9061202e565b60405180910390fd5b6111e061131a565b73ffffffffffffffffffffffffffffffffffffffff168173ffffffffffffffffffffffffffffffffffffffff16141561124e576040517f08c379a00000000000000000000000000000000000000000000000000000000081526004016112459061204e565b60405180910390fd5b80600760006101000a81548173ffffffffffffffffffffffffffffffffffffffff021916908373ffffffffffffffffffffffffffffffffffffffff16021790555050565b61129a611470565b73ffffffffffffffffffffffffffffffffffffffff166112b861131a565b73ffffffffffffffffffffffffffffffffffffffff161461130e576040517f08c379a000000000000000000000000000000000000000000000000000000000815260040161130590611fce565b60405180910390fd5b6113186000611478565b565b60008060009054906101000a900473ffffffffffffffffffffffffffffffffffffffff16905090565b60045481565b60056020528160005260406000206020528060005260406000206000915091509054906101000a900460ff1681565b611380611470565b73ffffffffffffffffffffffffffffffffffffffff1661139e61131a565b73ffffffffffffffffffffffffffffffffffffffff16146113f4576040517f08c379a00000000000000000000000000000000000000000000000000000000081526004016113eb90611fce565b60405180910390fd5b600073ffffffffffffffffffffffffffffffffffffffff168173ffffffffffffffffffffffffffffffffffffffff161415611464576040517f08c379a000000000000000000000000000000000000000000000000000000000815260040161145b90611ece565b60405180910390fd5b61146d81611478565b50565b600033905090565b60008060009054906101000a900473ffffffffffffffffffffffffffffffffffffffff169050816000806101000a81548173ffffffffffffffffffffffffffffffffffffffff021916908373ffffffffffffffffffffffffffffffffffffffff1602179055508173ffffffffffffffffffffffffffffffffffffffff168173ffffffffffffffffffffffffffffffffffffffff167f8be0079c531659141344cd1fd0a4f28419497f9722a3daafe3b4186f6b6457e060405160405180910390a35050565b60008135905061154b8161226d565b92915050565b6000815190506115608161226d565b92915050565b60008135905061157581612284565b92915050565b60008151905061158a8161229b565b92915050565b60008135905061159f816122b2565b92915050565b6000813590506115b4816122c9565b92915050565b6000815190506115c9816122c9565b92915050565b6000813590506115de816122e0565b92915050565b6000815190506115f3816122e0565b92915050565b600081359050611608816122f7565b92915050565b60006020828403121561162057600080fd5b600061162e8482850161153c565b91505092915050565b60006020828403121561164957600080fd5b600061165784828501611551565b91505092915050565b60006020828403121561167257600080fd5b600061168084828501611566565b91505092915050565b60006020828403121561169b57600080fd5b60006116a98482850161157b565b91505092915050565b6000602082840312156116c457600080fd5b60006116d2848285016115ba565b91505092915050565b600080604083850312156116ee57600080fd5b60006116fc858286016115cf565b925050602061170d8582860161153c565b9150509250929050565b6000806040838503121561172a57600080fd5b6000611738858286016115e4565b925050602061174985828601611551565b9150509250929050565b600080600080600060a0868803121561176b57600080fd5b6000611779888289016115cf565b955050602061178a888289016115a5565b945050604061179b888289016115f9565b93505060606117ac88828901611590565b92505060806117bd88828901611590565b9150509295509295909350565b600080604083850312156117dd57600080fd5b60006117eb858286016115e4565b92505060206117fc858286016115e4565b9150509250929050565b61180f816121a0565b82525050565b61181e81612122565b82525050565b61183561183082612122565b612209565b82525050565b61184481612146565b82525050565b61185381612152565b82525050565b61186a61186582612152565b61221b565b82525050565b600061187b826120fb565b6118858185612106565b93506118958185602086016121d6565b80840191505092915050565b6118aa8161215c565b82525050565b60006118bd601483612111565b91507f4c69676874686f7573653a20544945525f4341500000000000000000000000006000830152602082019050919050565b60006118fd602683612111565b91507f4f776e61626c653a206e6577206f776e657220697320746865207a65726f206160008301527f64647265737300000000000000000000000000000000000000000000000000006020830152604082019050919050565b6000611963601a83612111565b91507f4c69676874686f7573653a204e4f545f524547495354455245440000000000006000830152602082019050919050565b60006119a3600f83612111565b91507f4c69676874686f7573653a2053494700000000000000000000000000000000006000830152602082019050919050565b60006119e3602883612111565b91507f4c69676874686f7573653a20524547495354524154494f4e5f4e4f545f494e4960008301527f5449414c495a45440000000000000000000000000000000000000000000000006020830152604082019050919050565b6000611a49601b83612111565b91507f4c69676874686f7573653a204e4f545f535441525445445f59455400000000006000830152602082019050919050565b6000611a89601d83612111565b91507f4c69676874686f7573653a204e4f545f454e4f5547485f4e41544956450000006000830152602082019050919050565b6000611ac9601383612111565b91507f4c69676874686f7573653a204e4f5f54494552000000000000000000000000006000830152602082019050919050565b6000611b09601d83612111565b91507f4c69676874686f7573653a204641494c45445f544f5f5452414e5345520000006000830152602082019050919050565b6000611b49602083612111565b91507f4f776e61626c653a2063616c6c6572206973206e6f7420746865206f776e65726000830152602082019050919050565b6000611b89602083612111565b91507f4c69676874686f7573653a20494e56414c49445f4345525441494e5f544945526000830152602082019050919050565b6000611bc9601d83612111565b91507f4c69676874686f7573653a20414c52454144595f50524546554e4445440000006000830152602082019050919050565b6000611c09601883612111565b91507f4c69676874686f7573653a205a45524f5f4144445245535300000000000000006000830152602082019050919050565b6000611c49601683612111565b91507f4c69676874686f7573653a20555345445f4f574e4552000000000000000000006000830152602082019050919050565b6000611c89601483612111565b91507f4c69676874686f7573653a2046494e49534845440000000000000000000000006000830152602082019050919050565b611cc581612189565b82525050565b611cdc611cd782612189565b612237565b82525050565b611ceb81612193565b82525050565b611d02611cfd82612193565b612241565b82525050565b6000611d148288611824565b601482019150611d248287611824565b601482019150611d348286611ccb565b602082019150611d448285611ccb565b602082019150611d548284611cf1565b6001820191508190509695505050505050565b6000611d738285611870565b9150611d7f8284611859565b6020820191508190509392505050565b6000602082019050611da46000830184611815565b92915050565b6000606082019050611dbf6000830186611815565b611dcc6020830185611806565b611dd96040830184611cbc565b949350505050565b6000604082019050611df66000830185611815565b611e036020830184611ce2565b9392505050565b6000602082019050611e1f600083018461183b565b92915050565b6000608082019050611e3a600083018761184a565b611e476020830186611ce2565b611e54604083018561184a565b611e61606083018461184a565b95945050505050565b6000602082019050611e7f60008301846118a1565b92915050565b6000604082019050611e9a60008301856118a1565b611ea76020830184611cbc565b9392505050565b60006020820190508181036000830152611ec7816118b0565b9050919050565b60006020820190508181036000830152611ee7816118f0565b9050919050565b60006020820190508181036000830152611f0781611956565b9050919050565b60006020820190508181036000830152611f2781611996565b9050919050565b60006020820190508181036000830152611f47816119d6565b9050919050565b60006020820190508181036000830152611f6781611a3c565b9050919050565b60006020820190508181036000830152611f8781611a7c565b9050919050565b60006020820190508181036000830152611fa781611abc565b9050919050565b60006020820190508181036000830152611fc781611afc565b9050919050565b60006020820190508181036000830152611fe781611b3c565b9050919050565b6000602082019050818103600083015261200781611b7c565b9050919050565b6000602082019050818103600083015261202781611bbc565b9050919050565b6000602082019050818103600083015261204781611bfc565b9050919050565b6000602082019050818103600083015261206781611c3c565b9050919050565b6000602082019050818103600083015261208781611c7c565b9050919050565b60006020820190506120a36000830184611cbc565b92915050565b60006040820190506120be6000830185611cbc565b6120cb6020830184611815565b9392505050565b60006040820190506120e76000830185611cbc565b6120f460208301846118a1565b9392505050565b600081519050919050565b600081905092915050565b600082825260208201905092915050565b600061212d82612169565b9050919050565b600061213f82612169565b9050919050565b60008115159050919050565b6000819050919050565b60008160000b9050919050565b600073ffffffffffffffffffffffffffffffffffffffff82169050919050565b6000819050919050565b600060ff82169050919050565b60006121ab826121b2565b9050919050565b60006121bd826121c4565b9050919050565b60006121cf82612169565b9050919050565b60005b838110156121f45780820151818401526020810190506121d9565b83811115612203576000848401525b50505050565b600061221482612225565b9050919050565b6000819050919050565b600061223082612260565b9050919050565b6000819050919050565b600061224c82612253565b9050919050565b60008160f81b9050919050565b60008160601b9050919050565b61227681612122565b811461228157600080fd5b50565b61228d81612134565b811461229857600080fd5b50565b6122a481612146565b81146122af57600080fd5b50565b6122bb81612152565b81146122c657600080fd5b50565b6122d28161215c565b81146122dd57600080fd5b50565b6122e981612189565b81146122f457600080fd5b50565b61230081612193565b811461230b57600080fd5b5056fea2646970667358221220bb684dd0e8b889d22162aab9ec4900f699551ade236dfa13eebf12fd83c6337b64736f6c63430008000033",
  "linkReferences": {},
  "deployedLinkReferences": {}
}