{
  "_format": "hh-sol-artifact-1",
  "contractName": "LighthousePrefund",
  "sourceName": "contracts/LighthousePrefund.sol",
  "abi": [
    {
      "inputs": [
        {
          "internalType": "address",
          "name": "_tier",
          "type": "address"
        },
        {
          "internalType": "address",
          "name": "_submission",
          "type": "address"
        },
        {
          "internalType": "address",
          "name": "_project",
          "type": "address"
        },
        {
          "internalType": "address",
          "name": "_verifier",
          "type": "address"
        }
      ],
      "stateMutability": "nonpayable",
      "type": "constructor"
    },
    {
      "anonymous": false,
      "inputs": [
        {
          "indexed": true,
          "internalType": "address",
          "name": "previousOwner",
          "type": "address"
        },
        {
          "indexed": true,
          "internalType": "address",
          "name": "newOwner",
          "type": "address"
        }
      ],
      "name": "OwnershipTransferred",
      "type": "event"
    },
    {
      "anonymous": false,
      "inputs": [
        {
          "indexed": true,
          "internalType": "uint256",
          "name": "projectId",
          "type": "uint256"
        },
        {
          "indexed": true,
          "internalType": "address",
          "name": "investor",
          "type": "address"
        },
        {
          "indexed": false,
          "internalType": "int8",
          "name": "tier",
          "type": "int8"
        },
        {
          "indexed": false,
          "internalType": "uint256",
          "name": "time",
          "type": "uint256"
        }
      ],
      "name": "Prefund",
      "type": "event"
    },
    {
      "inputs": [
        {
          "internalType": "uint256",
          "name": "",
          "type": "uint256"
        },
        {
          "internalType": "address",
          "name": "",
          "type": "address"
        }
      ],
      "name": "investments",
      "outputs": [
        {
          "internalType": "bool",
          "name": "",
          "type": "bool"
        }
      ],
      "stateMutability": "view",
      "type": "function"
    },
    {
      "inputs": [],
      "name": "owner",
      "outputs": [
        {
          "internalType": "address",
          "name": "",
          "type": "address"
        }
      ],
      "stateMutability": "view",
      "type": "function"
    },
    {
      "inputs": [
        {
          "internalType": "uint256",
          "name": "projectId",
          "type": "uint256"
        },
        {
          "internalType": "uint8",
          "name": "v",
          "type": "uint8"
        },
        {
          "internalType": "bytes32",
          "name": "r",
          "type": "bytes32"
        },
        {
          "internalType": "bytes32",
          "name": "s",
          "type": "bytes32"
        }
      ],
      "name": "prefund",
      "outputs": [],
      "stateMutability": "payable",
      "type": "function"
    },
    {
      "inputs": [],
      "name": "prefundVerifier",
      "outputs": [
        {
          "internalType": "address",
          "name": "",
          "type": "address"
        }
      ],
      "stateMutability": "view",
      "type": "function"
    },
    {
      "inputs": [
        {
          "internalType": "uint256",
          "name": "id",
          "type": "uint256"
        },
        {
          "internalType": "address",
          "name": "investor",
          "type": "address"
        }
      ],
      "name": "prefunded",
      "outputs": [
        {
          "internalType": "bool",
          "name": "",
          "type": "bool"
        }
      ],
      "stateMutability": "view",
      "type": "function"
    },
    {
      "inputs": [],
      "name": "renounceOwnership",
      "outputs": [],
      "stateMutability": "nonpayable",
      "type": "function"
    },
    {
      "inputs": [
        {
          "internalType": "address",
          "name": "_verifier",
          "type": "address"
        }
      ],
      "name": "setPrefundVerifier",
      "outputs": [],
      "stateMutability": "nonpayable",
      "type": "function"
    },
    {
      "inputs": [
        {
          "internalType": "address",
          "name": "newOwner",
          "type": "address"
        }
      ],
      "name": "transferOwnership",
      "outputs": [],
      "stateMutability": "nonpayable",
      "type": "function"
    }
  ],
  "bytecode": "0x60806040523480156200001157600080fd5b506040516200232f3803806200232f83398181016040528101906200003791906200044d565b620000576200004b6200036a60201b60201c565b6200037260201b60201c565b600073ffffffffffffffffffffffffffffffffffffffff168473ffffffffffffffffffffffffffffffffffffffff1614158015620000c25750600073ffffffffffffffffffffffffffffffffffffffff168373ffffffffffffffffffffffffffffffffffffffff1614155b8015620000fc5750600073ffffffffffffffffffffffffffffffffffffffff168273ffffffffffffffffffffffffffffffffffffffff1614155b8015620001365750600073ffffffffffffffffffffffffffffffffffffffff168173ffffffffffffffffffffffffffffffffffffffff1614155b62000178576040517f08c379a00000000000000000000000000000000000000000000000000000000081526004016200016f906200055f565b60405180910390fd5b8273ffffffffffffffffffffffffffffffffffffffff168473ffffffffffffffffffffffffffffffffffffffff161415620001ea576040517f08c379a0000000000000000000000000000000000000000000000000000000008152600401620001e1906200053d565b60405180910390fd5b8173ffffffffffffffffffffffffffffffffffffffff168473ffffffffffffffffffffffffffffffffffffffff1614156200025c576040517f08c379a000000000000000000000000000000000000000000000000000000000815260040162000253906200053d565b60405180910390fd5b83600160006101000a81548173ffffffffffffffffffffffffffffffffffffffff021916908373ffffffffffffffffffffffffffffffffffffffff16021790555082600260006101000a81548173ffffffffffffffffffffffffffffffffffffffff021916908373ffffffffffffffffffffffffffffffffffffffff16021790555081600360006101000a81548173ffffffffffffffffffffffffffffffffffffffff021916908373ffffffffffffffffffffffffffffffffffffffff16021790555080600560006101000a81548173ffffffffffffffffffffffffffffffffffffffff021916908373ffffffffffffffffffffffffffffffffffffffff16021790555050505050620005e0565b600033905090565b60008060009054906101000a900473ffffffffffffffffffffffffffffffffffffffff169050816000806101000a81548173ffffffffffffffffffffffffffffffffffffffff021916908373ffffffffffffffffffffffffffffffffffffffff1602179055508173ffffffffffffffffffffffffffffffffffffffff168173ffffffffffffffffffffffffffffffffffffffff167f8be0079c531659141344cd1fd0a4f28419497f9722a3daafe3b4186f6b6457e060405160405180910390a35050565b6000815190506200044781620005c6565b92915050565b600080600080608085870312156200046457600080fd5b6000620004748782880162000436565b9450506020620004878782880162000436565b93505060406200049a8782880162000436565b9250506060620004ad8782880162000436565b91505092959194509250565b6000620004c860188362000581565b91507f4c69676874686f7573653a2053414d455f4144445245535300000000000000006000830152602082019050919050565b60006200050a60188362000581565b91507f4c69676874686f7573653a205a45524f5f4144445245535300000000000000006000830152602082019050919050565b600060208201905081810360008301526200055881620004b9565b9050919050565b600060208201905081810360008301526200057a81620004fb565b9050919050565b600082825260208201905092915050565b60006200059f82620005a6565b9050919050565b600073ffffffffffffffffffffffffffffffffffffffff82169050919050565b620005d18162000592565b8114620005dd57600080fd5b50565b611d3f80620005f06000396000f3fe60806040526004361061007b5760003560e01c80639b891a071161004e5780639b891a071461012a578063b11b32d214610153578063ce34ece414610190578063f2fde38b146101ac5761007b565b806302deed0314610080578063704cece0146100bd578063715018a6146100e85780638da5cb5b146100ff575b600080fd5b34801561008c57600080fd5b506100a760048036038101906100a2919061121e565b6101d5565b6040516100b4919061189f565b60405180910390f35b3480156100c957600080fd5b506100d261023d565b6040516100df919061184d565b60405180910390f35b3480156100f457600080fd5b506100fd610263565b005b34801561010b57600080fd5b506101146102eb565b604051610121919061184d565b60405180910390f35b34801561013657600080fd5b50610151600480360381019061014c91906111a3565b610314565b005b34801561015f57600080fd5b5061017a6004803603810190610175919061121e565b6104d5565b604051610187919061189f565b60405180910390f35b6101aa60048036038101906101a591906112d2565b610504565b005b3480156101b857600080fd5b506101d360048036038101906101ce91906111a3565b610f37565b005b60006004600084815260200190815260200160002060008373ffffffffffffffffffffffffffffffffffffffff1673ffffffffffffffffffffffffffffffffffffffff16815260200190815260200160002060009054906101000a900460ff16905092915050565b600560009054906101000a900473ffffffffffffffffffffffffffffffffffffffff1681565b61026b61102f565b73ffffffffffffffffffffffffffffffffffffffff166102896102eb565b73ffffffffffffffffffffffffffffffffffffffff16146102df576040517f08c379a00000000000000000000000000000000000000000000000000000000081526004016102d690611a68565b60405180910390fd5b6102e96000611037565b565b60008060009054906101000a900473ffffffffffffffffffffffffffffffffffffffff16905090565b61031c61102f565b73ffffffffffffffffffffffffffffffffffffffff1661033a6102eb565b73ffffffffffffffffffffffffffffffffffffffff1614610390576040517f08c379a000000000000000000000000000000000000000000000000000000000815260040161038790611a68565b60405180910390fd5b600073ffffffffffffffffffffffffffffffffffffffff168173ffffffffffffffffffffffffffffffffffffffff161415610400576040517f08c379a00000000000000000000000000000000000000000000000000000000081526004016103f790611aa8565b60405180910390fd5b8073ffffffffffffffffffffffffffffffffffffffff16600560009054906101000a900473ffffffffffffffffffffffffffffffffffffffff1673ffffffffffffffffffffffffffffffffffffffff161415610491576040517f08c379a000000000000000000000000000000000000000000000000000000000815260040161048890611a48565b60405180910390fd5b80600560006101000a81548173ffffffffffffffffffffffffffffffffffffffff021916908373ffffffffffffffffffffffffffffffffffffffff16021790555050565b60046020528160005260406000206020528060005260406000206000915091509054906101000a900460ff1681565b600360009054906101000a900473ffffffffffffffffffffffffffffffffffffffff1673ffffffffffffffffffffffffffffffffffffffff16636592b724856040518263ffffffff1660e01b815260040161055f9190611ae8565b60206040518083038186803b15801561057757600080fd5b505afa15801561058b573d6000803e3d6000fd5b505050506040513d601f19601f820116820180604052508101906105af91906111cc565b6105ee576040517f08c379a00000000000000000000000000000000000000000000000000000000081526004016105e5906119a8565b60405180910390fd5b6105f884336101d5565b15610638576040517f08c379a000000000000000000000000000000000000000000000000000000000815260040161062f90611a88565b60405180910390fd5b600080600360009054906101000a900473ffffffffffffffffffffffffffffffffffffffff1673ffffffffffffffffffffffffffffffffffffffff16638ee2a6d1876040518263ffffffff1660e01b81526004016106969190611ae8565b604080518083038186803b1580156106ad57600080fd5b505afa1580156106c1573d6000803e3d6000fd5b505050506040513d601f19601f820116820180604052508101906106e59190611296565b809250819350505081421015610730576040517f08c379a0000000000000000000000000000000000000000000000000000000008152600401610727906119c8565b60405180910390fd5b80421115610773576040517f08c379a000000000000000000000000000000000000000000000000000000000815260040161076a90611ac8565b60405180910390fd5b5050600260009054906101000a900473ffffffffffffffffffffffffffffffffffffffff1673ffffffffffffffffffffffffffffffffffffffff16638c817b6e85336040518363ffffffff1660e01b81526004016107d2929190611b03565b60206040518083038186803b1580156107ea57600080fd5b505afa1580156107fe573d6000803e3d6000fd5b505050506040513d601f19601f8201168201806040525081019061082291906111cc565b610861576040517f08c379a000000000000000000000000000000000000000000000000000000000815260040161085890611968565b60405180910390fd5b6000600160009054906101000a900473ffffffffffffffffffffffffffffffffffffffff1673ffffffffffffffffffffffffffffffffffffffff166328fc4c3c336040518263ffffffff1660e01b81526004016108be919061184d565b60206040518083038186803b1580156108d657600080fd5b505afa1580156108ea573d6000803e3d6000fd5b505050506040513d601f19601f8201168201806040525081019061090e91906111f5565b905060008160000b138015610926575060048160000b125b610965576040517f08c379a000000000000000000000000000000000000000000000000000000000815260040161095c90611a08565b60405180910390fd5b600080600360009054906101000a900473ffffffffffffffffffffffffffffffffffffffff1673ffffffffffffffffffffffffffffffffffffffff16637480285788856040518363ffffffff1660e01b81526004016109c5929190611b2c565b604080518083038186803b1580156109dc57600080fd5b505afa1580156109f0573d6000803e3d6000fd5b505050506040513d601f19601f82011682018060405250810190610a149190611296565b8092508193505050808210610a5e576040517f08c379a0000000000000000000000000000000000000000000000000000000008152600401610a5590611928565b60405180910390fd5b60006040518060400160405280601c81526020017f19457468657265756d205369676e6564204d6573736167653a0a33320000000081525090506000338986604051602001610aaf939291906117e8565b60405160208183030381529060405280519060200120905060008282604051602001610adc929190611825565b60405160208183030381529060405280519060200120905060006001828b8b8b60405160008152602001604052604051610b1994939291906118ba565b6020604051602081039080840390855afa158015610b3b573d6000803e3d6000fd5b505050602060405103519050600560009054906101000a900473ffffffffffffffffffffffffffffffffffffffff1673ffffffffffffffffffffffffffffffffffffffff168173ffffffffffffffffffffffffffffffffffffffff1614610bd7576040517f08c379a0000000000000000000000000000000000000000000000000000000008152600401610bce90611988565b60405180910390fd5b600080600360009054906101000a900473ffffffffffffffffffffffffffffffffffffffff1673ffffffffffffffffffffffffffffffffffffffff1663b5f5cf708e8b6040518363ffffffff1660e01b8152600401610c37929190611b2c565b604080518083038186803b158015610c4e57600080fd5b505afa158015610c62573d6000803e3d6000fd5b505050506040513d601f19601f82011682018060405250810190610c86919061125a565b8092508193505050600073ffffffffffffffffffffffffffffffffffffffff168173ffffffffffffffffffffffffffffffffffffffff161415610d0a57813414610d05576040517f08c379a0000000000000000000000000000000000000000000000000000000008152600401610cfc906119e8565b60405180910390fd5b610ddf565b60008190508073ffffffffffffffffffffffffffffffffffffffff166323b872dd3330866040518463ffffffff1660e01b8152600401610d4c93929190611868565b602060405180830381600087803b158015610d6657600080fd5b505af1158015610d7a573d6000803e3d6000fd5b505050506040513d601f19601f82011682018060405250810190610d9e91906111cc565b610ddd576040517f08c379a0000000000000000000000000000000000000000000000000000000008152600401610dd490611a28565b60405180910390fd5b505b600360009054906101000a900473ffffffffffffffffffffffffffffffffffffffff1673ffffffffffffffffffffffffffffffffffffffff1663c82189e08e8b6040518363ffffffff1660e01b8152600401610e3c929190611b2c565b600060405180830381600087803b158015610e5657600080fd5b505af1158015610e6a573d6000803e3d6000fd5b505050506001600460008f815260200190815260200160002060003373ffffffffffffffffffffffffffffffffffffffff1673ffffffffffffffffffffffffffffffffffffffff16815260200190815260200160002060006101000a81548160ff0219169083151502179055503373ffffffffffffffffffffffffffffffffffffffff168d7f8598f161559951f8d26c6782ad0bfdf057b7531aca566d3e518ba68fd37d7b378b42604051610f209291906118ff565b60405180910390a350505050505050505050505050565b610f3f61102f565b73ffffffffffffffffffffffffffffffffffffffff16610f5d6102eb565b73ffffffffffffffffffffffffffffffffffffffff1614610fb3576040517f08c379a0000000000000000000000000000000000000000000000000000000008152600401610faa90611a68565b60405180910390fd5b600073ffffffffffffffffffffffffffffffffffffffff168173ffffffffffffffffffffffffffffffffffffffff161415611023576040517f08c379a000000000000000000000000000000000000000000000000000000000815260040161101a90611948565b60405180910390fd5b61102c81611037565b50565b600033905090565b60008060009054906101000a900473ffffffffffffffffffffffffffffffffffffffff169050816000806101000a81548173ffffffffffffffffffffffffffffffffffffffff021916908373ffffffffffffffffffffffffffffffffffffffff1602179055508173ffffffffffffffffffffffffffffffffffffffff168173ffffffffffffffffffffffffffffffffffffffff167f8be0079c531659141344cd1fd0a4f28419497f9722a3daafe3b4186f6b6457e060405160405180910390a35050565b60008135905061110a81611c7f565b92915050565b60008151905061111f81611c7f565b92915050565b60008151905061113481611c96565b92915050565b60008135905061114981611cad565b92915050565b60008151905061115e81611cc4565b92915050565b60008135905061117381611cdb565b92915050565b60008151905061118881611cdb565b92915050565b60008135905061119d81611cf2565b92915050565b6000602082840312156111b557600080fd5b60006111c3848285016110fb565b91505092915050565b6000602082840312156111de57600080fd5b60006111ec84828501611125565b91505092915050565b60006020828403121561120757600080fd5b60006112158482850161114f565b91505092915050565b6000806040838503121561123157600080fd5b600061123f85828601611164565b9250506020611250858286016110fb565b9150509250929050565b6000806040838503121561126d57600080fd5b600061127b85828601611179565b925050602061128c85828601611110565b9150509250929050565b600080604083850312156112a957600080fd5b60006112b785828601611179565b92505060206112c885828601611179565b9150509250929050565b600080600080608085870312156112e857600080fd5b60006112f687828801611164565b94505060206113078782880161118e565b93505060406113188782880161113a565b92505060606113298782880161113a565b91505092959194509250565b61133e81611b7c565b82525050565b61135561135082611b7c565b611c1b565b82525050565b61136481611b8e565b82525050565b61137381611b9a565b82525050565b61138a61138582611b9a565b611c2d565b82525050565b600061139b82611b55565b6113a58185611b60565b93506113b5818560208601611be8565b80840191505092915050565b6113ca81611ba4565b82525050565b6113e16113dc82611ba4565b611c37565b82525050565b60006113f4601483611b6b565b91507f4c69676874686f7573653a20544945525f4341500000000000000000000000006000830152602082019050919050565b6000611434602683611b6b565b91507f4f776e61626c653a206e6577206f776e657220697320746865207a65726f206160008301527f64647265737300000000000000000000000000000000000000000000000000006020830152604082019050919050565b600061149a601a83611b6b565b91507f4c69676874686f7573653a204e4f545f524547495354455245440000000000006000830152602082019050919050565b60006114da600f83611b6b565b91507f4c69676874686f7573653a2053494700000000000000000000000000000000006000830152602082019050919050565b600061151a602883611b6b565b91507f4c69676874686f7573653a20524547495354524154494f4e5f4e4f545f494e4960008301527f5449414c495a45440000000000000000000000000000000000000000000000006020830152604082019050919050565b6000611580601b83611b6b565b91507f4c69676874686f7573653a204e4f545f535441525445445f59455400000000006000830152602082019050919050565b60006115c0601d83611b6b565b91507f4c69676874686f7573653a204e4f545f454e4f5547485f4e41544956450000006000830152602082019050919050565b6000611600601383611b6b565b91507f4c69676874686f7573653a204e4f5f54494552000000000000000000000000006000830152602082019050919050565b6000611640601d83611b6b565b91507f4c69676874686f7573653a204641494c45445f544f5f5452414e5345520000006000830152602082019050919050565b6000611680601883611b6b565b91507f4c69676874686f7573653a2053414d455f4144445245535300000000000000006000830152602082019050919050565b60006116c0602083611b6b565b91507f4f776e61626c653a2063616c6c6572206973206e6f7420746865206f776e65726000830152602082019050919050565b6000611700601d83611b6b565b91507f4c69676874686f7573653a20414c52454144595f50524546554e4445440000006000830152602082019050919050565b6000611740601883611b6b565b91507f4c69676874686f7573653a205a45524f5f4144445245535300000000000000006000830152602082019050919050565b6000611780601483611b6b565b91507f4c69676874686f7573653a2046494e49534845440000000000000000000000006000830152602082019050919050565b6117bc81611bd1565b82525050565b6117d36117ce82611bd1565b611c5b565b82525050565b6117e281611bdb565b82525050565b60006117f48286611344565b60148201915061180482856117c2565b60208201915061181482846113d0565b600182019150819050949350505050565b60006118318285611390565b915061183d8284611379565b6020820191508190509392505050565b60006020820190506118626000830184611335565b92915050565b600060608201905061187d6000830186611335565b61188a6020830185611335565b61189760408301846117b3565b949350505050565b60006020820190506118b4600083018461135b565b92915050565b60006080820190506118cf600083018761136a565b6118dc60208301866117d9565b6118e9604083018561136a565b6118f6606083018461136a565b95945050505050565b600060408201905061191460008301856113c1565b61192160208301846117b3565b9392505050565b60006020820190508181036000830152611941816113e7565b9050919050565b6000602082019050818103600083015261196181611427565b9050919050565b600060208201905081810360008301526119818161148d565b9050919050565b600060208201905081810360008301526119a1816114cd565b9050919050565b600060208201905081810360008301526119c18161150d565b9050919050565b600060208201905081810360008301526119e181611573565b9050919050565b60006020820190508181036000830152611a01816115b3565b9050919050565b60006020820190508181036000830152611a21816115f3565b9050919050565b60006020820190508181036000830152611a4181611633565b9050919050565b60006020820190508181036000830152611a6181611673565b9050919050565b60006020820190508181036000830152611a81816116b3565b9050919050565b60006020820190508181036000830152611aa1816116f3565b9050919050565b60006020820190508181036000830152611ac181611733565b9050919050565b60006020820190508181036000830152611ae181611773565b9050919050565b6000602082019050611afd60008301846117b3565b92915050565b6000604082019050611b1860008301856117b3565b611b256020830184611335565b9392505050565b6000604082019050611b4160008301856117b3565b611b4e60208301846113c1565b9392505050565b600081519050919050565b600081905092915050565b600082825260208201905092915050565b6000611b8782611bb1565b9050919050565b60008115159050919050565b6000819050919050565b60008160000b9050919050565b600073ffffffffffffffffffffffffffffffffffffffff82169050919050565b6000819050919050565b600060ff82169050919050565b60005b83811015611c06578082015181840152602081019050611beb565b83811115611c15576000848401525b50505050565b6000611c2682611c49565b9050919050565b6000819050919050565b6000611c4282611c65565b9050919050565b6000611c5482611c72565b9050919050565b6000819050919050565b60008160f81b9050919050565b60008160601b9050919050565b611c8881611b7c565b8114611c9357600080fd5b50565b611c9f81611b8e565b8114611caa57600080fd5b50565b611cb681611b9a565b8114611cc157600080fd5b50565b611ccd81611ba4565b8114611cd857600080fd5b50565b611ce481611bd1565b8114611cef57600080fd5b50565b611cfb81611bdb565b8114611d0657600080fd5b5056fea2646970667358221220cdba71b0cff0693663511522c986045525ced9753a6617867e1de52390ca6b4264736f6c63430008000033",
  "linkReferences": {},
  "deployedLinkReferences": {}
}