{
  "_format": "hh-sol-artifact-1",
  "contractName": "LighthousePrefund",
  "sourceName": "contracts/LighthousePrefund.sol",
  "abi": [
    {
      "inputs": [
        {
          "internalType": "address",
          "name": "_tier",
          "type": "address"
        },
        {
          "internalType": "address",
          "name": "_submission",
          "type": "address"
        },
        {
          "internalType": "address",
          "name": "_project",
          "type": "address"
        },
        {
          "internalType": "address payable",
          "name": "_fundCollector",
          "type": "address"
        },
        {
          "internalType": "uint256",
          "name": "_chainID",
          "type": "uint256"
        }
      ],
      "stateMutability": "nonpayable",
      "type": "constructor"
    },
    {
      "anonymous": false,
      "inputs": [
        {
          "indexed": true,
          "internalType": "address",
          "name": "previousOwner",
          "type": "address"
        },
        {
          "indexed": true,
          "internalType": "address",
          "name": "newOwner",
          "type": "address"
        }
      ],
      "name": "OwnershipTransferred",
      "type": "event"
    },
    {
      "anonymous": false,
      "inputs": [
        {
          "indexed": true,
          "internalType": "uint256",
          "name": "projectId",
          "type": "uint256"
        },
        {
          "indexed": true,
          "internalType": "address",
          "name": "investor",
          "type": "address"
        },
        {
          "indexed": false,
          "internalType": "int8",
          "name": "tier",
          "type": "int8"
        },
        {
          "indexed": false,
          "internalType": "uint256",
          "name": "time",
          "type": "uint256"
        }
      ],
      "name": "Prefund",
      "type": "event"
    },
    {
      "inputs": [],
      "name": "chainID",
      "outputs": [
        {
          "internalType": "uint256",
          "name": "",
          "type": "uint256"
        }
      ],
      "stateMutability": "view",
      "type": "function"
    },
    {
      "inputs": [
        {
          "internalType": "uint256",
          "name": "id",
          "type": "uint256"
        },
        {
          "internalType": "address",
          "name": "investor",
          "type": "address"
        }
      ],
      "name": "getPrefundTier",
      "outputs": [
        {
          "internalType": "int8",
          "name": "",
          "type": "int8"
        }
      ],
      "stateMutability": "view",
      "type": "function"
    },
    {
      "inputs": [
        {
          "internalType": "uint256",
          "name": "",
          "type": "uint256"
        },
        {
          "internalType": "address",
          "name": "",
          "type": "address"
        }
      ],
      "name": "investments",
      "outputs": [
        {
          "internalType": "bool",
          "name": "",
          "type": "bool"
        }
      ],
      "stateMutability": "view",
      "type": "function"
    },
    {
      "inputs": [],
      "name": "owner",
      "outputs": [
        {
          "internalType": "address",
          "name": "",
          "type": "address"
        }
      ],
      "stateMutability": "view",
      "type": "function"
    },
    {
      "inputs": [
        {
          "internalType": "uint256",
          "name": "projectId",
          "type": "uint256"
        },
        {
          "internalType": "int8",
          "name": "certainTier",
          "type": "int8"
        },
        {
          "internalType": "uint8",
          "name": "v",
          "type": "uint8"
        },
        {
          "internalType": "bytes32",
          "name": "r",
          "type": "bytes32"
        },
        {
          "internalType": "bytes32",
          "name": "s",
          "type": "bytes32"
        }
      ],
      "name": "prefund",
      "outputs": [],
      "stateMutability": "payable",
      "type": "function"
    },
    {
      "inputs": [
        {
          "internalType": "uint256",
          "name": "id",
          "type": "uint256"
        },
        {
          "internalType": "address",
          "name": "investor",
          "type": "address"
        }
      ],
      "name": "prefunded",
      "outputs": [
        {
          "internalType": "bool",
          "name": "",
          "type": "bool"
        }
      ],
      "stateMutability": "view",
      "type": "function"
    },
    {
      "inputs": [],
      "name": "renounceOwnership",
      "outputs": [],
      "stateMutability": "nonpayable",
      "type": "function"
    },
    {
      "inputs": [
        {
          "internalType": "address payable",
          "name": "_fundCollector",
          "type": "address"
        }
      ],
      "name": "setFundCollector",
      "outputs": [],
      "stateMutability": "nonpayable",
      "type": "function"
    },
    {
      "inputs": [
        {
          "internalType": "address",
          "name": "newTier",
          "type": "address"
        }
      ],
      "name": "setLighthouseTier",
      "outputs": [],
      "stateMutability": "nonpayable",
      "type": "function"
    },
    {
      "inputs": [
        {
          "internalType": "uint256",
          "name": "",
          "type": "uint256"
        },
        {
          "internalType": "address",
          "name": "",
          "type": "address"
        }
      ],
      "name": "tiers",
      "outputs": [
        {
          "internalType": "int8",
          "name": "",
          "type": "int8"
        }
      ],
      "stateMutability": "view",
      "type": "function"
    },
    {
      "inputs": [
        {
          "internalType": "address",
          "name": "newOwner",
          "type": "address"
        }
      ],
      "name": "transferOwnership",
      "outputs": [],
      "stateMutability": "nonpayable",
      "type": "function"
    }
  ],
  "bytecode": "0x60806040523480156200001157600080fd5b5060405162002b7038038062002b708339818101604052810190620000379190620004c9565b620000576200004b620003b860201b60201c565b620003c060201b60201c565b600073ffffffffffffffffffffffffffffffffffffffff168573ffffffffffffffffffffffffffffffffffffffff1614158015620000c25750600073ffffffffffffffffffffffffffffffffffffffff168473ffffffffffffffffffffffffffffffffffffffff1614155b8015620000fc5750600073ffffffffffffffffffffffffffffffffffffffff168373ffffffffffffffffffffffffffffffffffffffff1614155b8015620001365750600073ffffffffffffffffffffffffffffffffffffffff168273ffffffffffffffffffffffffffffffffffffffff1614155b62000178576040517f08c379a00000000000000000000000000000000000000000000000000000000081526004016200016f9062000655565b60405180910390fd5b8373ffffffffffffffffffffffffffffffffffffffff168573ffffffffffffffffffffffffffffffffffffffff161415620001ea576040517f08c379a0000000000000000000000000000000000000000000000000000000008152600401620001e19062000611565b60405180910390fd5b8273ffffffffffffffffffffffffffffffffffffffff168573ffffffffffffffffffffffffffffffffffffffff1614156200025c576040517f08c379a0000000000000000000000000000000000000000000000000000000008152600401620002539062000611565b60405180910390fd5b60008111620002a2576040517f08c379a0000000000000000000000000000000000000000000000000000000008152600401620002999062000633565b60405180910390fd5b84600160006101000a81548173ffffffffffffffffffffffffffffffffffffffff021916908373ffffffffffffffffffffffffffffffffffffffff16021790555083600260006101000a81548173ffffffffffffffffffffffffffffffffffffffff021916908373ffffffffffffffffffffffffffffffffffffffff16021790555082600360006101000a81548173ffffffffffffffffffffffffffffffffffffffff021916908373ffffffffffffffffffffffffffffffffffffffff16021790555081600760006101000a81548173ffffffffffffffffffffffffffffffffffffffff021916908373ffffffffffffffffffffffffffffffffffffffff16021790555080600481905550505050505062000728565b600033905090565b60008060009054906101000a900473ffffffffffffffffffffffffffffffffffffffff169050816000806101000a81548173ffffffffffffffffffffffffffffffffffffffff021916908373ffffffffffffffffffffffffffffffffffffffff1602179055508173ffffffffffffffffffffffffffffffffffffffff168173ffffffffffffffffffffffffffffffffffffffff167f8be0079c531659141344cd1fd0a4f28419497f9722a3daafe3b4186f6b6457e060405160405180910390a35050565b6000815190506200049581620006da565b92915050565b600081519050620004ac81620006f4565b92915050565b600081519050620004c3816200070e565b92915050565b600080600080600060a08688031215620004e257600080fd5b6000620004f28882890162000484565b9550506020620005058882890162000484565b9450506040620005188882890162000484565b93505060606200052b888289016200049b565b92505060806200053e88828901620004b2565b9150509295509295909350565b60006200055a60188362000677565b91507f4c69676874686f7573653a2053414d455f4144445245535300000000000000006000830152602082019050919050565b60006200059c60168362000677565b91507f4c69676874686f7573653a205a45524f5f56414c5545000000000000000000006000830152602082019050919050565b6000620005de60188362000677565b91507f4c69676874686f7573653a205a45524f5f4144445245535300000000000000006000830152602082019050919050565b600060208201905081810360008301526200062c816200054b565b9050919050565b600060208201905081810360008301526200064e816200058d565b9050919050565b600060208201905081810360008301526200067081620005cf565b9050919050565b600082825260208201905092915050565b60006200069582620006b0565b9050919050565b6000620006a982620006b0565b9050919050565b600073ffffffffffffffffffffffffffffffffffffffff82169050919050565b6000819050919050565b620006e58162000688565b8114620006f157600080fd5b50565b620006ff816200069c565b81146200070b57600080fd5b50565b6200071981620006d0565b81146200072557600080fd5b50565b61243880620007386000396000f3fe60806040526004361061009c5760003560e01c8063715018a611610064578063715018a61461019d5780638da5cb5b146101b4578063adc879e9146101df578063aee7a1ef1461020a578063b11b32d214610233578063f2fde38b146102705761009c565b806302deed03146100a157806328036256146100de5780633f204c131461011b5780634697969c1461013757806347b6070814610174575b600080fd5b3480156100ad57600080fd5b506100c860048036038101906100c391906117cf565b610299565b6040516100d59190611efe565b60405180910390f35b3480156100ea57600080fd5b50610105600480360381019061010091906117cf565b610301565b6040516101129190611f5e565b60405180910390f35b61013560048036038101906101309190611847565b610369565b005b34801561014357600080fd5b5061015e600480360381019061015991906117cf565b6110f1565b60405161016b9190611f5e565b60405180910390f35b34801561018057600080fd5b5061019b60048036038101906101969190611754565b611120565b005b3480156101a957600080fd5b506101b26112c6565b005b3480156101c057600080fd5b506101c961134e565b6040516101d69190611e83565b60405180910390f35b3480156101eb57600080fd5b506101f4611377565b6040516102019190612182565b60405180910390f35b34801561021657600080fd5b50610231600480360381019061022c9190611702565b61137d565b005b34801561023f57600080fd5b5061025a600480360381019061025591906117cf565b61143d565b6040516102679190611efe565b60405180910390f35b34801561027c57600080fd5b5061029760048036038101906102929190611702565b61146c565b005b60006005600084815260200190815260200160002060008373ffffffffffffffffffffffffffffffffffffffff1673ffffffffffffffffffffffffffffffffffffffff16815260200190815260200160002060009054906101000a900460ff16905092915050565b60006006600084815260200190815260200160002060008373ffffffffffffffffffffffffffffffffffffffff1673ffffffffffffffffffffffffffffffffffffffff16815260200190815260200160002060009054906101000a900460000b905092915050565b600360009054906101000a900473ffffffffffffffffffffffffffffffffffffffff1673ffffffffffffffffffffffffffffffffffffffff16636592b724866040518263ffffffff1660e01b81526004016103c49190612182565b60206040518083038186803b1580156103dc57600080fd5b505afa1580156103f0573d6000803e3d6000fd5b505050506040513d601f19601f82011682018060405250810190610414919061177d565b610453576040517f08c379a000000000000000000000000000000000000000000000000000000000815260040161044a90612022565b60405180910390fd5b61045d8533610299565b1561049d576040517f08c379a000000000000000000000000000000000000000000000000000000000815260040161049490612102565b60405180910390fd5b60008460000b1380156104b3575060048460000b125b6104f2576040517f08c379a00000000000000000000000000000000000000000000000000000000081526004016104e9906120e2565b60405180910390fd5b600080600360009054906101000a900473ffffffffffffffffffffffffffffffffffffffff1673ffffffffffffffffffffffffffffffffffffffff16638ee2a6d1886040518263ffffffff1660e01b81526004016105509190612182565b604080518083038186803b15801561056757600080fd5b505afa15801561057b573d6000803e3d6000fd5b505050506040513d601f19601f8201168201806040525081019061059f91906118be565b8092508193505050814210156105ea576040517f08c379a00000000000000000000000000000000000000000000000000000000081526004016105e190612042565b60405180910390fd5b8042111561062d576040517f08c379a000000000000000000000000000000000000000000000000000000000815260040161062490612162565b60405180910390fd5b5050600260009054906101000a900473ffffffffffffffffffffffffffffffffffffffff1673ffffffffffffffffffffffffffffffffffffffff16638c817b6e86336040518363ffffffff1660e01b815260040161068c92919061219d565b60206040518083038186803b1580156106a457600080fd5b505afa1580156106b8573d6000803e3d6000fd5b505050506040513d601f19601f820116820180604052508101906106dc919061177d565b61071b576040517f08c379a000000000000000000000000000000000000000000000000000000000815260040161071290611fe2565b60405180910390fd5b6000600160009054906101000a900473ffffffffffffffffffffffffffffffffffffffff1673ffffffffffffffffffffffffffffffffffffffff166328fc4c3c336040518263ffffffff1660e01b81526004016107789190611e83565b60206040518083038186803b15801561079057600080fd5b505afa1580156107a4573d6000803e3d6000fd5b505050506040513d601f19601f820116820180604052508101906107c891906117a6565b905060008160000b1380156107e0575060048160000b125b61081f576040517f08c379a000000000000000000000000000000000000000000000000000000000815260040161081690612082565b60405180910390fd5b8060000b8560000b1315610868576040517f08c379a000000000000000000000000000000000000000000000000000000000815260040161085f906120e2565b60405180910390fd5b849050600080600360009054906101000a900473ffffffffffffffffffffffffffffffffffffffff1673ffffffffffffffffffffffffffffffffffffffff16637480285789856040518363ffffffff1660e01b81526004016108cb9291906121c6565b604080518083038186803b1580156108e257600080fd5b505afa1580156108f6573d6000803e3d6000fd5b505050506040513d601f19601f8201168201806040525081019061091a91906118be565b8092508193505050808210610964576040517f08c379a000000000000000000000000000000000000000000000000000000000815260040161095b90611fa2565b60405180910390fd5b60006040518060400160405280601c81526020017f19457468657265756d205369676e6564204d6573736167653a0a3332000000008152509050600033306004548c8c6040516020016109bb959493929190611dfc565b604051602081830303815290604052805190602001209050600082826040516020016109e8929190611e5b565b60405160208183030381529060405280519060200120905060006001828b8b8b60405160008152602001604052604051610a259493929190611f19565b6020604051602081039080840390855afa158015610a47573d6000803e3d6000fd5b505050602060405103519050600360009054906101000a900473ffffffffffffffffffffffffffffffffffffffff1673ffffffffffffffffffffffffffffffffffffffff1663b60da0856040518163ffffffff1660e01b815260040160206040518083038186803b158015610abb57600080fd5b505afa158015610acf573d6000803e3d6000fd5b505050506040513d601f19601f82011682018060405250810190610af3919061172b565b73ffffffffffffffffffffffffffffffffffffffff168173ffffffffffffffffffffffffffffffffffffffff1614610b60576040517f08c379a0000000000000000000000000000000000000000000000000000000008152600401610b5790612002565b60405180910390fd5b50505050600080600360009054906101000a900473ffffffffffffffffffffffffffffffffffffffff1673ffffffffffffffffffffffffffffffffffffffff1663b5f5cf708b876040518363ffffffff1660e01b8152600401610bc49291906121c6565b604080518083038186803b158015610bdb57600080fd5b505afa158015610bef573d6000803e3d6000fd5b505050506040513d601f19601f82011682018060405250810190610c13919061180b565b8092508193505050600073ffffffffffffffffffffffffffffffffffffffff168173ffffffffffffffffffffffffffffffffffffffff161415610d0057813414610c92576040517f08c379a0000000000000000000000000000000000000000000000000000000008152600401610c8990612062565b60405180910390fd5b600760009054906101000a900473ffffffffffffffffffffffffffffffffffffffff1673ffffffffffffffffffffffffffffffffffffffff166108fc349081150290604051600060405180830381858888f19350505050158015610cfa573d6000803e3d6000fd5b50610df7565b60008190508073ffffffffffffffffffffffffffffffffffffffff166323b872dd33600760009054906101000a900473ffffffffffffffffffffffffffffffffffffffff16866040518463ffffffff1660e01b8152600401610d6493929190611e9e565b602060405180830381600087803b158015610d7e57600080fd5b505af1158015610d92573d6000803e3d6000fd5b505050506040513d601f19601f82011682018060405250810190610db6919061177d565b610df5576040517f08c379a0000000000000000000000000000000000000000000000000000000008152600401610dec906120a2565b60405180910390fd5b505b600160009054906101000a900473ffffffffffffffffffffffffffffffffffffffff1673ffffffffffffffffffffffffffffffffffffffff1663ba1cbc7f33600160009054906101000a900473ffffffffffffffffffffffffffffffffffffffff1673ffffffffffffffffffffffffffffffffffffffff166328fc4c3c336040518263ffffffff1660e01b8152600401610e919190611e83565b60206040518083038186803b158015610ea957600080fd5b505afa158015610ebd573d6000803e3d6000fd5b505050506040513d601f19601f82011682018060405250810190610ee191906117a6565b6040518363ffffffff1660e01b8152600401610efe929190611ed5565b600060405180830381600087803b158015610f1857600080fd5b505af1158015610f2c573d6000803e3d6000fd5b50505050600360009054906101000a900473ffffffffffffffffffffffffffffffffffffffff1673ffffffffffffffffffffffffffffffffffffffff1663c82189e08b876040518363ffffffff1660e01b8152600401610f8d9291906121c6565b600060405180830381600087803b158015610fa757600080fd5b505af1158015610fbb573d6000803e3d6000fd5b505050506001600560008c815260200190815260200160002060003373ffffffffffffffffffffffffffffffffffffffff1673ffffffffffffffffffffffffffffffffffffffff16815260200190815260200160002060006101000a81548160ff02191690831515021790555084600660008c815260200190815260200160002060003373ffffffffffffffffffffffffffffffffffffffff1673ffffffffffffffffffffffffffffffffffffffff16815260200190815260200160002060006101000a81548160ff021916908360000b60ff1602179055503373ffffffffffffffffffffffffffffffffffffffff168a7f8598f161559951f8d26c6782ad0bfdf057b7531aca566d3e518ba68fd37d7b3787426040516110dd929190611f79565b60405180910390a350505050505050505050565b60066020528160005260406000206020528060005260406000206000915091509054906101000a900460000b81565b611128611564565b73ffffffffffffffffffffffffffffffffffffffff1661114661134e565b73ffffffffffffffffffffffffffffffffffffffff161461119c576040517f08c379a0000000000000000000000000000000000000000000000000000000008152600401611193906120c2565b60405180910390fd5b600073ffffffffffffffffffffffffffffffffffffffff168173ffffffffffffffffffffffffffffffffffffffff16141561120c576040517f08c379a000000000000000000000000000000000000000000000000000000000815260040161120390612122565b60405180910390fd5b61121461134e565b73ffffffffffffffffffffffffffffffffffffffff168173ffffffffffffffffffffffffffffffffffffffff161415611282576040517f08c379a000000000000000000000000000000000000000000000000000000000815260040161127990612142565b60405180910390fd5b80600760006101000a81548173ffffffffffffffffffffffffffffffffffffffff021916908373ffffffffffffffffffffffffffffffffffffffff16021790555050565b6112ce611564565b73ffffffffffffffffffffffffffffffffffffffff166112ec61134e565b73ffffffffffffffffffffffffffffffffffffffff1614611342576040517f08c379a0000000000000000000000000000000000000000000000000000000008152600401611339906120c2565b60405180910390fd5b61134c600061156c565b565b60008060009054906101000a900473ffffffffffffffffffffffffffffffffffffffff16905090565b60045481565b611385611564565b73ffffffffffffffffffffffffffffffffffffffff166113a361134e565b73ffffffffffffffffffffffffffffffffffffffff16146113f9576040517f08c379a00000000000000000000000000000000000000000000000000000000081526004016113f0906120c2565b60405180910390fd5b80600160006101000a81548173ffffffffffffffffffffffffffffffffffffffff021916908373ffffffffffffffffffffffffffffffffffffffff16021790555050565b60056020528160005260406000206020528060005260406000206000915091509054906101000a900460ff1681565b611474611564565b73ffffffffffffffffffffffffffffffffffffffff1661149261134e565b73ffffffffffffffffffffffffffffffffffffffff16146114e8576040517f08c379a00000000000000000000000000000000000000000000000000000000081526004016114df906120c2565b60405180910390fd5b600073ffffffffffffffffffffffffffffffffffffffff168173ffffffffffffffffffffffffffffffffffffffff161415611558576040517f08c379a000000000000000000000000000000000000000000000000000000000815260040161154f90611fc2565b60405180910390fd5b6115618161156c565b50565b600033905090565b60008060009054906101000a900473ffffffffffffffffffffffffffffffffffffffff169050816000806101000a81548173ffffffffffffffffffffffffffffffffffffffff021916908373ffffffffffffffffffffffffffffffffffffffff1602179055508173ffffffffffffffffffffffffffffffffffffffff168173ffffffffffffffffffffffffffffffffffffffff167f8be0079c531659141344cd1fd0a4f28419497f9722a3daafe3b4186f6b6457e060405160405180910390a35050565b60008135905061163f81612361565b92915050565b60008151905061165481612361565b92915050565b60008135905061166981612378565b92915050565b60008151905061167e8161238f565b92915050565b600081359050611693816123a6565b92915050565b6000813590506116a8816123bd565b92915050565b6000815190506116bd816123bd565b92915050565b6000813590506116d2816123d4565b92915050565b6000815190506116e7816123d4565b92915050565b6000813590506116fc816123eb565b92915050565b60006020828403121561171457600080fd5b600061172284828501611630565b91505092915050565b60006020828403121561173d57600080fd5b600061174b84828501611645565b91505092915050565b60006020828403121561176657600080fd5b60006117748482850161165a565b91505092915050565b60006020828403121561178f57600080fd5b600061179d8482850161166f565b91505092915050565b6000602082840312156117b857600080fd5b60006117c6848285016116ae565b91505092915050565b600080604083850312156117e257600080fd5b60006117f0858286016116c3565b925050602061180185828601611630565b9150509250929050565b6000806040838503121561181e57600080fd5b600061182c858286016116d8565b925050602061183d85828601611645565b9150509250929050565b600080600080600060a0868803121561185f57600080fd5b600061186d888289016116c3565b955050602061187e88828901611699565b945050604061188f888289016116ed565b93505060606118a088828901611684565b92505060806118b188828901611684565b9150509295509295909350565b600080604083850312156118d157600080fd5b60006118df858286016116d8565b92505060206118f0858286016116d8565b9150509250929050565b61190381612294565b82525050565b61191281612216565b82525050565b61192961192482612216565b6122fd565b82525050565b6119388161223a565b82525050565b61194781612246565b82525050565b61195e61195982612246565b61230f565b82525050565b600061196f826121ef565b61197981856121fa565b93506119898185602086016122ca565b80840191505092915050565b61199e81612250565b82525050565b60006119b1601483612205565b91507f4c69676874686f7573653a20544945525f4341500000000000000000000000006000830152602082019050919050565b60006119f1602683612205565b91507f4f776e61626c653a206e6577206f776e657220697320746865207a65726f206160008301527f64647265737300000000000000000000000000000000000000000000000000006020830152604082019050919050565b6000611a57601a83612205565b91507f4c69676874686f7573653a204e4f545f524547495354455245440000000000006000830152602082019050919050565b6000611a97600f83612205565b91507f4c69676874686f7573653a2053494700000000000000000000000000000000006000830152602082019050919050565b6000611ad7602883612205565b91507f4c69676874686f7573653a20524547495354524154494f4e5f4e4f545f494e4960008301527f5449414c495a45440000000000000000000000000000000000000000000000006020830152604082019050919050565b6000611b3d601b83612205565b91507f4c69676874686f7573653a204e4f545f535441525445445f59455400000000006000830152602082019050919050565b6000611b7d601d83612205565b91507f4c69676874686f7573653a204e4f545f454e4f5547485f4e41544956450000006000830152602082019050919050565b6000611bbd601383612205565b91507f4c69676874686f7573653a204e4f5f54494552000000000000000000000000006000830152602082019050919050565b6000611bfd601d83612205565b91507f4c69676874686f7573653a204641494c45445f544f5f5452414e5345520000006000830152602082019050919050565b6000611c3d602083612205565b91507f4f776e61626c653a2063616c6c6572206973206e6f7420746865206f776e65726000830152602082019050919050565b6000611c7d602083612205565b91507f4c69676874686f7573653a20494e56414c49445f4345525441494e5f544945526000830152602082019050919050565b6000611cbd601d83612205565b91507f4c69676874686f7573653a20414c52454144595f50524546554e4445440000006000830152602082019050919050565b6000611cfd601883612205565b91507f4c69676874686f7573653a205a45524f5f4144445245535300000000000000006000830152602082019050919050565b6000611d3d601683612205565b91507f4c69676874686f7573653a20555345445f4f574e4552000000000000000000006000830152602082019050919050565b6000611d7d601483612205565b91507f4c69676874686f7573653a2046494e49534845440000000000000000000000006000830152602082019050919050565b611db98161227d565b82525050565b611dd0611dcb8261227d565b61232b565b82525050565b611ddf81612287565b82525050565b611df6611df182612287565b612335565b82525050565b6000611e088288611918565b601482019150611e188287611918565b601482019150611e288286611dbf565b602082019150611e388285611dbf565b602082019150611e488284611de5565b6001820191508190509695505050505050565b6000611e678285611964565b9150611e73828461194d565b6020820191508190509392505050565b6000602082019050611e986000830184611909565b92915050565b6000606082019050611eb36000830186611909565b611ec060208301856118fa565b611ecd6040830184611db0565b949350505050565b6000604082019050611eea6000830185611909565b611ef76020830184611dd6565b9392505050565b6000602082019050611f13600083018461192f565b92915050565b6000608082019050611f2e600083018761193e565b611f3b6020830186611dd6565b611f48604083018561193e565b611f55606083018461193e565b95945050505050565b6000602082019050611f736000830184611995565b92915050565b6000604082019050611f8e6000830185611995565b611f9b6020830184611db0565b9392505050565b60006020820190508181036000830152611fbb816119a4565b9050919050565b60006020820190508181036000830152611fdb816119e4565b9050919050565b60006020820190508181036000830152611ffb81611a4a565b9050919050565b6000602082019050818103600083015261201b81611a8a565b9050919050565b6000602082019050818103600083015261203b81611aca565b9050919050565b6000602082019050818103600083015261205b81611b30565b9050919050565b6000602082019050818103600083015261207b81611b70565b9050919050565b6000602082019050818103600083015261209b81611bb0565b9050919050565b600060208201905081810360008301526120bb81611bf0565b9050919050565b600060208201905081810360008301526120db81611c30565b9050919050565b600060208201905081810360008301526120fb81611c70565b9050919050565b6000602082019050818103600083015261211b81611cb0565b9050919050565b6000602082019050818103600083015261213b81611cf0565b9050919050565b6000602082019050818103600083015261215b81611d30565b9050919050565b6000602082019050818103600083015261217b81611d70565b9050919050565b60006020820190506121976000830184611db0565b92915050565b60006040820190506121b26000830185611db0565b6121bf6020830184611909565b9392505050565b60006040820190506121db6000830185611db0565b6121e86020830184611995565b9392505050565b600081519050919050565b600081905092915050565b600082825260208201905092915050565b60006122218261225d565b9050919050565b60006122338261225d565b9050919050565b60008115159050919050565b6000819050919050565b60008160000b9050919050565b600073ffffffffffffffffffffffffffffffffffffffff82169050919050565b6000819050919050565b600060ff82169050919050565b600061229f826122a6565b9050919050565b60006122b1826122b8565b9050919050565b60006122c38261225d565b9050919050565b60005b838110156122e85780820151818401526020810190506122cd565b838111156122f7576000848401525b50505050565b600061230882612319565b9050919050565b6000819050919050565b600061232482612354565b9050919050565b6000819050919050565b600061234082612347565b9050919050565b60008160f81b9050919050565b60008160601b9050919050565b61236a81612216565b811461237557600080fd5b50565b61238181612228565b811461238c57600080fd5b50565b6123988161223a565b81146123a357600080fd5b50565b6123af81612246565b81146123ba57600080fd5b50565b6123c681612250565b81146123d157600080fd5b50565b6123dd8161227d565b81146123e857600080fd5b50565b6123f481612287565b81146123ff57600080fd5b5056fea2646970667358221220017dde983dd5e9ddedffb3b67880c889343a1a2e2aff2de36da75d072f05463564736f6c63430008000033",
  "linkReferences": {},
  "deployedLinkReferences": {}
}