{
  "_format": "hh-sol-artifact-1",
  "contractName": "LighthousePrefund",
  "sourceName": "contracts/LighthousePrefund.sol",
  "abi": [
    {
      "inputs": [
        {
          "internalType": "address",
          "name": "_tier",
          "type": "address"
        },
        {
          "internalType": "address",
          "name": "_submission",
          "type": "address"
        },
        {
          "internalType": "address",
          "name": "_project",
          "type": "address"
        },
        {
          "internalType": "address payable",
          "name": "_fundCollector",
          "type": "address"
        }
      ],
      "stateMutability": "nonpayable",
      "type": "constructor"
    },
    {
      "anonymous": false,
      "inputs": [
        {
          "indexed": true,
          "internalType": "address",
          "name": "previousOwner",
          "type": "address"
        },
        {
          "indexed": true,
          "internalType": "address",
          "name": "newOwner",
          "type": "address"
        }
      ],
      "name": "OwnershipTransferred",
      "type": "event"
    },
    {
      "anonymous": false,
      "inputs": [
        {
          "indexed": true,
          "internalType": "uint256",
          "name": "projectId",
          "type": "uint256"
        },
        {
          "indexed": true,
          "internalType": "address",
          "name": "investor",
          "type": "address"
        },
        {
          "indexed": false,
          "internalType": "int8",
          "name": "tier",
          "type": "int8"
        },
        {
          "indexed": false,
          "internalType": "uint256",
          "name": "time",
          "type": "uint256"
        }
      ],
      "name": "Prefund",
      "type": "event"
    },
    {
      "inputs": [
        {
          "internalType": "uint256",
          "name": "",
          "type": "uint256"
        },
        {
          "internalType": "address",
          "name": "",
          "type": "address"
        }
      ],
      "name": "investments",
      "outputs": [
        {
          "internalType": "bool",
          "name": "",
          "type": "bool"
        }
      ],
      "stateMutability": "view",
      "type": "function"
    },
    {
      "inputs": [],
      "name": "owner",
      "outputs": [
        {
          "internalType": "address",
          "name": "",
          "type": "address"
        }
      ],
      "stateMutability": "view",
      "type": "function"
    },
    {
      "inputs": [
        {
          "internalType": "uint256",
          "name": "projectId",
          "type": "uint256"
        },
        {
          "internalType": "int8",
          "name": "certainTier",
          "type": "int8"
        },
        {
          "internalType": "uint8",
          "name": "v",
          "type": "uint8"
        },
        {
          "internalType": "bytes32",
          "name": "r",
          "type": "bytes32"
        },
        {
          "internalType": "bytes32",
          "name": "s",
          "type": "bytes32"
        }
      ],
      "name": "prefund",
      "outputs": [],
      "stateMutability": "payable",
      "type": "function"
    },
    {
      "inputs": [
        {
          "internalType": "uint256",
          "name": "id",
          "type": "uint256"
        },
        {
          "internalType": "address",
          "name": "investor",
          "type": "address"
        }
      ],
      "name": "prefunded",
      "outputs": [
        {
          "internalType": "bool",
          "name": "",
          "type": "bool"
        }
      ],
      "stateMutability": "view",
      "type": "function"
    },
    {
      "inputs": [],
      "name": "renounceOwnership",
      "outputs": [],
      "stateMutability": "nonpayable",
      "type": "function"
    },
    {
      "inputs": [
        {
          "internalType": "address payable",
          "name": "_fundCollector",
          "type": "address"
        }
      ],
      "name": "setFundCollector",
      "outputs": [],
      "stateMutability": "nonpayable",
      "type": "function"
    },
    {
      "inputs": [
        {
          "internalType": "address",
          "name": "newOwner",
          "type": "address"
        }
      ],
      "name": "transferOwnership",
      "outputs": [],
      "stateMutability": "nonpayable",
      "type": "function"
    }
  ],
  "bytecode": "0x60806040523480156200001157600080fd5b506040516200276738038062002767833981810160405281019062000037919062000464565b620000576200004b6200036a60201b60201c565b6200037260201b60201c565b600073ffffffffffffffffffffffffffffffffffffffff168473ffffffffffffffffffffffffffffffffffffffff1614158015620000c25750600073ffffffffffffffffffffffffffffffffffffffff168373ffffffffffffffffffffffffffffffffffffffff1614155b8015620000fc5750600073ffffffffffffffffffffffffffffffffffffffff168273ffffffffffffffffffffffffffffffffffffffff1614155b8015620001365750600073ffffffffffffffffffffffffffffffffffffffff168173ffffffffffffffffffffffffffffffffffffffff1614155b62000178576040517f08c379a00000000000000000000000000000000000000000000000000000000081526004016200016f9062000576565b60405180910390fd5b8273ffffffffffffffffffffffffffffffffffffffff168473ffffffffffffffffffffffffffffffffffffffff161415620001ea576040517f08c379a0000000000000000000000000000000000000000000000000000000008152600401620001e19062000554565b60405180910390fd5b8173ffffffffffffffffffffffffffffffffffffffff168473ffffffffffffffffffffffffffffffffffffffff1614156200025c576040517f08c379a0000000000000000000000000000000000000000000000000000000008152600401620002539062000554565b60405180910390fd5b83600160006101000a81548173ffffffffffffffffffffffffffffffffffffffff021916908373ffffffffffffffffffffffffffffffffffffffff16021790555082600260006101000a81548173ffffffffffffffffffffffffffffffffffffffff021916908373ffffffffffffffffffffffffffffffffffffffff16021790555081600360006101000a81548173ffffffffffffffffffffffffffffffffffffffff021916908373ffffffffffffffffffffffffffffffffffffffff16021790555080600560006101000a81548173ffffffffffffffffffffffffffffffffffffffff021916908373ffffffffffffffffffffffffffffffffffffffff1602179055505050505062000625565b600033905090565b60008060009054906101000a900473ffffffffffffffffffffffffffffffffffffffff169050816000806101000a81548173ffffffffffffffffffffffffffffffffffffffff021916908373ffffffffffffffffffffffffffffffffffffffff1602179055508173ffffffffffffffffffffffffffffffffffffffff168173ffffffffffffffffffffffffffffffffffffffff167f8be0079c531659141344cd1fd0a4f28419497f9722a3daafe3b4186f6b6457e060405160405180910390a35050565b6000815190506200044781620005f1565b92915050565b6000815190506200045e816200060b565b92915050565b600080600080608085870312156200047b57600080fd5b60006200048b8782880162000436565b94505060206200049e8782880162000436565b9350506040620004b18782880162000436565b9250506060620004c4878288016200044d565b91505092959194509250565b6000620004df60188362000598565b91507f4c69676874686f7573653a2053414d455f4144445245535300000000000000006000830152602082019050919050565b60006200052160188362000598565b91507f4c69676874686f7573653a205a45524f5f4144445245535300000000000000006000830152602082019050919050565b600060208201905081810360008301526200056f81620004d0565b9050919050565b60006020820190508181036000830152620005918162000512565b9050919050565b600082825260208201905092915050565b6000620005b682620005d1565b9050919050565b6000620005ca82620005d1565b9050919050565b600073ffffffffffffffffffffffffffffffffffffffff82169050919050565b620005fc81620005a9565b81146200060857600080fd5b50565b6200061681620005bd565b81146200062257600080fd5b50565b61213280620006356000396000f3fe6080604052600436106100705760003560e01c8063715018a61161004e578063715018a6146100f75780638da5cb5b1461010e578063b11b32d214610139578063f2fde38b1461017657610070565b806302deed03146100755780633f204c13146100b257806347b60708146100ce575b600080fd5b34801561008157600080fd5b5061009c60048036038101906100979190611506565b61019f565b6040516100a99190611c13565b60405180910390f35b6100cc60048036038101906100c7919061157e565b610207565b005b3480156100da57600080fd5b506100f560048036038101906100f0919061148b565b610f1d565b005b34801561010357600080fd5b5061010c6110c3565b005b34801561011a57600080fd5b5061012361114b565b6040516101309190611b98565b60405180910390f35b34801561014557600080fd5b50610160600480360381019061015b9190611506565b611174565b60405161016d9190611c13565b60405180910390f35b34801561018257600080fd5b5061019d60048036038101906101989190611439565b6111a3565b005b60006004600084815260200190815260200160002060008373ffffffffffffffffffffffffffffffffffffffff1673ffffffffffffffffffffffffffffffffffffffff16815260200190815260200160002060009054906101000a900460ff16905092915050565b600360009054906101000a900473ffffffffffffffffffffffffffffffffffffffff1673ffffffffffffffffffffffffffffffffffffffff16636592b724866040518263ffffffff1660e01b81526004016102629190611e7c565b60206040518083038186803b15801561027a57600080fd5b505afa15801561028e573d6000803e3d6000fd5b505050506040513d601f19601f820116820180604052508101906102b291906114b4565b6102f1576040517f08c379a00000000000000000000000000000000000000000000000000000000081526004016102e890611d1c565b60405180910390fd5b6102fb853361019f565b1561033b576040517f08c379a000000000000000000000000000000000000000000000000000000000815260040161033290611dfc565b60405180910390fd5b60008460000b138015610351575060048460000b125b610390576040517f08c379a000000000000000000000000000000000000000000000000000000000815260040161038790611ddc565b60405180910390fd5b600080600360009054906101000a900473ffffffffffffffffffffffffffffffffffffffff1673ffffffffffffffffffffffffffffffffffffffff16638ee2a6d1886040518263ffffffff1660e01b81526004016103ee9190611e7c565b604080518083038186803b15801561040557600080fd5b505afa158015610419573d6000803e3d6000fd5b505050506040513d601f19601f8201168201806040525081019061043d91906115f5565b809250819350505081421015610488576040517f08c379a000000000000000000000000000000000000000000000000000000000815260040161047f90611d3c565b60405180910390fd5b804211156104cb576040517f08c379a00000000000000000000000000000000000000000000000000000000081526004016104c290611e5c565b60405180910390fd5b5050600260009054906101000a900473ffffffffffffffffffffffffffffffffffffffff1673ffffffffffffffffffffffffffffffffffffffff16638c817b6e86336040518363ffffffff1660e01b815260040161052a929190611e97565b60206040518083038186803b15801561054257600080fd5b505afa158015610556573d6000803e3d6000fd5b505050506040513d601f19601f8201168201806040525081019061057a91906114b4565b6105b9576040517f08c379a00000000000000000000000000000000000000000000000000000000081526004016105b090611cdc565b60405180910390fd5b6000600160009054906101000a900473ffffffffffffffffffffffffffffffffffffffff1673ffffffffffffffffffffffffffffffffffffffff166328fc4c3c336040518263ffffffff1660e01b81526004016106169190611b98565b60206040518083038186803b15801561062e57600080fd5b505afa158015610642573d6000803e3d6000fd5b505050506040513d601f19601f8201168201806040525081019061066691906114dd565b905060008160000b13801561067e575060048160000b125b6106bd576040517f08c379a00000000000000000000000000000000000000000000000000000000081526004016106b490611d7c565b60405180910390fd5b8060000b8560000b1315610706576040517f08c379a00000000000000000000000000000000000000000000000000000000081526004016106fd90611ddc565b60405180910390fd5b849050600080600360009054906101000a900473ffffffffffffffffffffffffffffffffffffffff1673ffffffffffffffffffffffffffffffffffffffff16637480285789856040518363ffffffff1660e01b8152600401610769929190611ec0565b604080518083038186803b15801561078057600080fd5b505afa158015610794573d6000803e3d6000fd5b505050506040513d601f19601f820116820180604052508101906107b891906115f5565b8092508193505050808210610802576040517f08c379a00000000000000000000000000000000000000000000000000000000081526004016107f990611c9c565b60405180910390fd5b60006040518060400160405280601c81526020017f19457468657265756d205369676e6564204d6573736167653a0a33320000000081525090506000338a8660405160200161085393929190611b33565b60405160208183030381529060405280519060200120905060008282604051602001610880929190611b70565b60405160208183030381529060405280519060200120905060006001828b8b8b604051600081526020016040526040516108bd9493929190611c2e565b6020604051602081039080840390855afa1580156108df573d6000803e3d6000fd5b505050602060405103519050600360009054906101000a900473ffffffffffffffffffffffffffffffffffffffff1673ffffffffffffffffffffffffffffffffffffffff1663b60da0856040518163ffffffff1660e01b815260040160206040518083038186803b15801561095357600080fd5b505afa158015610967573d6000803e3d6000fd5b505050506040513d601f19601f8201168201806040525081019061098b9190611462565b73ffffffffffffffffffffffffffffffffffffffff168173ffffffffffffffffffffffffffffffffffffffff16146109f8576040517f08c379a00000000000000000000000000000000000000000000000000000000081526004016109ef90611cfc565b60405180910390fd5b50505050600160009054906101000a900473ffffffffffffffffffffffffffffffffffffffff1673ffffffffffffffffffffffffffffffffffffffff1663ba1cbc7f33600160009054906101000a900473ffffffffffffffffffffffffffffffffffffffff1673ffffffffffffffffffffffffffffffffffffffff166328fc4c3c336040518263ffffffff1660e01b8152600401610a969190611b98565b60206040518083038186803b158015610aae57600080fd5b505afa158015610ac2573d6000803e3d6000fd5b505050506040513d601f19601f82011682018060405250810190610ae691906114dd565b6040518363ffffffff1660e01b8152600401610b03929190611bea565b600060405180830381600087803b158015610b1d57600080fd5b505af1158015610b31573d6000803e3d6000fd5b50505050600080600360009054906101000a900473ffffffffffffffffffffffffffffffffffffffff1673ffffffffffffffffffffffffffffffffffffffff1663b5f5cf708b876040518363ffffffff1660e01b8152600401610b95929190611ec0565b604080518083038186803b158015610bac57600080fd5b505afa158015610bc0573d6000803e3d6000fd5b505050506040513d601f19601f82011682018060405250810190610be49190611542565b8092508193505050600073ffffffffffffffffffffffffffffffffffffffff168173ffffffffffffffffffffffffffffffffffffffff161415610cd157813414610c63576040517f08c379a0000000000000000000000000000000000000000000000000000000008152600401610c5a90611d5c565b60405180910390fd5b600560009054906101000a900473ffffffffffffffffffffffffffffffffffffffff1673ffffffffffffffffffffffffffffffffffffffff166108fc349081150290604051600060405180830381858888f19350505050158015610ccb573d6000803e3d6000fd5b50610dc8565b60008190508073ffffffffffffffffffffffffffffffffffffffff166323b872dd33600560009054906101000a900473ffffffffffffffffffffffffffffffffffffffff16866040518463ffffffff1660e01b8152600401610d3593929190611bb3565b602060405180830381600087803b158015610d4f57600080fd5b505af1158015610d63573d6000803e3d6000fd5b505050506040513d601f19601f82011682018060405250810190610d8791906114b4565b610dc6576040517f08c379a0000000000000000000000000000000000000000000000000000000008152600401610dbd90611d9c565b60405180910390fd5b505b600360009054906101000a900473ffffffffffffffffffffffffffffffffffffffff1673ffffffffffffffffffffffffffffffffffffffff1663c82189e08b876040518363ffffffff1660e01b8152600401610e25929190611ec0565b600060405180830381600087803b158015610e3f57600080fd5b505af1158015610e53573d6000803e3d6000fd5b505050506001600460008c815260200190815260200160002060003373ffffffffffffffffffffffffffffffffffffffff1673ffffffffffffffffffffffffffffffffffffffff16815260200190815260200160002060006101000a81548160ff0219169083151502179055503373ffffffffffffffffffffffffffffffffffffffff168a7f8598f161559951f8d26c6782ad0bfdf057b7531aca566d3e518ba68fd37d7b378742604051610f09929190611c73565b60405180910390a350505050505050505050565b610f2561129b565b73ffffffffffffffffffffffffffffffffffffffff16610f4361114b565b73ffffffffffffffffffffffffffffffffffffffff1614610f99576040517f08c379a0000000000000000000000000000000000000000000000000000000008152600401610f9090611dbc565b60405180910390fd5b600073ffffffffffffffffffffffffffffffffffffffff168173ffffffffffffffffffffffffffffffffffffffff161415611009576040517f08c379a000000000000000000000000000000000000000000000000000000000815260040161100090611e1c565b60405180910390fd5b61101161114b565b73ffffffffffffffffffffffffffffffffffffffff168173ffffffffffffffffffffffffffffffffffffffff16141561107f576040517f08c379a000000000000000000000000000000000000000000000000000000000815260040161107690611e3c565b60405180910390fd5b80600560006101000a81548173ffffffffffffffffffffffffffffffffffffffff021916908373ffffffffffffffffffffffffffffffffffffffff16021790555050565b6110cb61129b565b73ffffffffffffffffffffffffffffffffffffffff166110e961114b565b73ffffffffffffffffffffffffffffffffffffffff161461113f576040517f08c379a000000000000000000000000000000000000000000000000000000000815260040161113690611dbc565b60405180910390fd5b61114960006112a3565b565b60008060009054906101000a900473ffffffffffffffffffffffffffffffffffffffff16905090565b60046020528160005260406000206020528060005260406000206000915091509054906101000a900460ff1681565b6111ab61129b565b73ffffffffffffffffffffffffffffffffffffffff166111c961114b565b73ffffffffffffffffffffffffffffffffffffffff161461121f576040517f08c379a000000000000000000000000000000000000000000000000000000000815260040161121690611dbc565b60405180910390fd5b600073ffffffffffffffffffffffffffffffffffffffff168173ffffffffffffffffffffffffffffffffffffffff16141561128f576040517f08c379a000000000000000000000000000000000000000000000000000000000815260040161128690611cbc565b60405180910390fd5b611298816112a3565b50565b600033905090565b60008060009054906101000a900473ffffffffffffffffffffffffffffffffffffffff169050816000806101000a81548173ffffffffffffffffffffffffffffffffffffffff021916908373ffffffffffffffffffffffffffffffffffffffff1602179055508173ffffffffffffffffffffffffffffffffffffffff168173ffffffffffffffffffffffffffffffffffffffff167f8be0079c531659141344cd1fd0a4f28419497f9722a3daafe3b4186f6b6457e060405160405180910390a35050565b6000813590506113768161205b565b92915050565b60008151905061138b8161205b565b92915050565b6000813590506113a081612072565b92915050565b6000815190506113b581612089565b92915050565b6000813590506113ca816120a0565b92915050565b6000813590506113df816120b7565b92915050565b6000815190506113f4816120b7565b92915050565b600081359050611409816120ce565b92915050565b60008151905061141e816120ce565b92915050565b600081359050611433816120e5565b92915050565b60006020828403121561144b57600080fd5b600061145984828501611367565b91505092915050565b60006020828403121561147457600080fd5b60006114828482850161137c565b91505092915050565b60006020828403121561149d57600080fd5b60006114ab84828501611391565b91505092915050565b6000602082840312156114c657600080fd5b60006114d4848285016113a6565b91505092915050565b6000602082840312156114ef57600080fd5b60006114fd848285016113e5565b91505092915050565b6000806040838503121561151957600080fd5b6000611527858286016113fa565b925050602061153885828601611367565b9150509250929050565b6000806040838503121561155557600080fd5b60006115638582860161140f565b92505060206115748582860161137c565b9150509250929050565b600080600080600060a0868803121561159657600080fd5b60006115a4888289016113fa565b95505060206115b5888289016113d0565b94505060406115c688828901611424565b93505060606115d7888289016113bb565b92505060806115e8888289016113bb565b9150509295509295909350565b6000806040838503121561160857600080fd5b60006116168582860161140f565b92505060206116278582860161140f565b9150509250929050565b61163a81611f8e565b82525050565b61164981611f10565b82525050565b61166061165b82611f10565b611ff7565b82525050565b61166f81611f34565b82525050565b61167e81611f40565b82525050565b61169561169082611f40565b612009565b82525050565b60006116a682611ee9565b6116b08185611ef4565b93506116c0818560208601611fc4565b80840191505092915050565b6116d581611f4a565b82525050565b6116ec6116e782611f4a565b612013565b82525050565b60006116ff601483611eff565b91507f4c69676874686f7573653a20544945525f4341500000000000000000000000006000830152602082019050919050565b600061173f602683611eff565b91507f4f776e61626c653a206e6577206f776e657220697320746865207a65726f206160008301527f64647265737300000000000000000000000000000000000000000000000000006020830152604082019050919050565b60006117a5601a83611eff565b91507f4c69676874686f7573653a204e4f545f524547495354455245440000000000006000830152602082019050919050565b60006117e5600f83611eff565b91507f4c69676874686f7573653a2053494700000000000000000000000000000000006000830152602082019050919050565b6000611825602883611eff565b91507f4c69676874686f7573653a20524547495354524154494f4e5f4e4f545f494e4960008301527f5449414c495a45440000000000000000000000000000000000000000000000006020830152604082019050919050565b600061188b601b83611eff565b91507f4c69676874686f7573653a204e4f545f535441525445445f59455400000000006000830152602082019050919050565b60006118cb601d83611eff565b91507f4c69676874686f7573653a204e4f545f454e4f5547485f4e41544956450000006000830152602082019050919050565b600061190b601383611eff565b91507f4c69676874686f7573653a204e4f5f54494552000000000000000000000000006000830152602082019050919050565b600061194b601d83611eff565b91507f4c69676874686f7573653a204641494c45445f544f5f5452414e5345520000006000830152602082019050919050565b600061198b602083611eff565b91507f4f776e61626c653a2063616c6c6572206973206e6f7420746865206f776e65726000830152602082019050919050565b60006119cb602083611eff565b91507f4c69676874686f7573653a20494e56414c49445f4345525441494e5f544945526000830152602082019050919050565b6000611a0b601d83611eff565b91507f4c69676874686f7573653a20414c52454144595f50524546554e4445440000006000830152602082019050919050565b6000611a4b601883611eff565b91507f4c69676874686f7573653a205a45524f5f4144445245535300000000000000006000830152602082019050919050565b6000611a8b601683611eff565b91507f4c69676874686f7573653a20555345445f4f574e4552000000000000000000006000830152602082019050919050565b6000611acb601483611eff565b91507f4c69676874686f7573653a2046494e49534845440000000000000000000000006000830152602082019050919050565b611b0781611f77565b82525050565b611b1e611b1982611f77565b612037565b82525050565b611b2d81611f81565b82525050565b6000611b3f828661164f565b601482019150611b4f8285611b0d565b602082019150611b5f82846116db565b600182019150819050949350505050565b6000611b7c828561169b565b9150611b888284611684565b6020820191508190509392505050565b6000602082019050611bad6000830184611640565b92915050565b6000606082019050611bc86000830186611640565b611bd56020830185611631565b611be26040830184611afe565b949350505050565b6000604082019050611bff6000830185611640565b611c0c6020830184611b24565b9392505050565b6000602082019050611c286000830184611666565b92915050565b6000608082019050611c436000830187611675565b611c506020830186611b24565b611c5d6040830185611675565b611c6a6060830184611675565b95945050505050565b6000604082019050611c8860008301856116cc565b611c956020830184611afe565b9392505050565b60006020820190508181036000830152611cb5816116f2565b9050919050565b60006020820190508181036000830152611cd581611732565b9050919050565b60006020820190508181036000830152611cf581611798565b9050919050565b60006020820190508181036000830152611d15816117d8565b9050919050565b60006020820190508181036000830152611d3581611818565b9050919050565b60006020820190508181036000830152611d558161187e565b9050919050565b60006020820190508181036000830152611d75816118be565b9050919050565b60006020820190508181036000830152611d95816118fe565b9050919050565b60006020820190508181036000830152611db58161193e565b9050919050565b60006020820190508181036000830152611dd58161197e565b9050919050565b60006020820190508181036000830152611df5816119be565b9050919050565b60006020820190508181036000830152611e15816119fe565b9050919050565b60006020820190508181036000830152611e3581611a3e565b9050919050565b60006020820190508181036000830152611e5581611a7e565b9050919050565b60006020820190508181036000830152611e7581611abe565b9050919050565b6000602082019050611e916000830184611afe565b92915050565b6000604082019050611eac6000830185611afe565b611eb96020830184611640565b9392505050565b6000604082019050611ed56000830185611afe565b611ee260208301846116cc565b9392505050565b600081519050919050565b600081905092915050565b600082825260208201905092915050565b6000611f1b82611f57565b9050919050565b6000611f2d82611f57565b9050919050565b60008115159050919050565b6000819050919050565b60008160000b9050919050565b600073ffffffffffffffffffffffffffffffffffffffff82169050919050565b6000819050919050565b600060ff82169050919050565b6000611f9982611fa0565b9050919050565b6000611fab82611fb2565b9050919050565b6000611fbd82611f57565b9050919050565b60005b83811015611fe2578082015181840152602081019050611fc7565b83811115611ff1576000848401525b50505050565b600061200282612025565b9050919050565b6000819050919050565b600061201e82612041565b9050919050565b60006120308261204e565b9050919050565b6000819050919050565b60008160f81b9050919050565b60008160601b9050919050565b61206481611f10565b811461206f57600080fd5b50565b61207b81611f22565b811461208657600080fd5b50565b61209281611f34565b811461209d57600080fd5b50565b6120a981611f40565b81146120b457600080fd5b50565b6120c081611f4a565b81146120cb57600080fd5b50565b6120d781611f77565b81146120e257600080fd5b50565b6120ee81611f81565b81146120f957600080fd5b5056fea2646970667358221220e3e8906b4ed60fd077a56a4d1d216a225c4413b37a210e9630f8ced0e5c01ad064736f6c63430008000033",
  "linkReferences": {},
  "deployedLinkReferences": {}
}