{
  "_format": "hh-sol-artifact-1",
  "contractName": "LighthousePrefund",
  "sourceName": "contracts/LighthousePrefund.sol",
  "abi": [
    {
      "inputs": [
        {
          "internalType": "address",
          "name": "_tier",
          "type": "address"
        },
        {
          "internalType": "address",
          "name": "_submission",
          "type": "address"
        },
        {
          "internalType": "address",
          "name": "_project",
          "type": "address"
        },
        {
          "internalType": "address payable",
          "name": "_fundCollector",
          "type": "address"
        }
      ],
      "stateMutability": "nonpayable",
      "type": "constructor"
    },
    {
      "anonymous": false,
      "inputs": [
        {
          "indexed": true,
          "internalType": "address",
          "name": "previousOwner",
          "type": "address"
        },
        {
          "indexed": true,
          "internalType": "address",
          "name": "newOwner",
          "type": "address"
        }
      ],
      "name": "OwnershipTransferred",
      "type": "event"
    },
    {
      "anonymous": false,
      "inputs": [
        {
          "indexed": true,
          "internalType": "uint256",
          "name": "projectId",
          "type": "uint256"
        },
        {
          "indexed": true,
          "internalType": "address",
          "name": "investor",
          "type": "address"
        },
        {
          "indexed": false,
          "internalType": "int8",
          "name": "tier",
          "type": "int8"
        },
        {
          "indexed": false,
          "internalType": "uint256",
          "name": "time",
          "type": "uint256"
        }
      ],
      "name": "Prefund",
      "type": "event"
    },
    {
      "inputs": [
        {
          "internalType": "uint256",
          "name": "",
          "type": "uint256"
        },
        {
          "internalType": "address",
          "name": "",
          "type": "address"
        }
      ],
      "name": "investments",
      "outputs": [
        {
          "internalType": "bool",
          "name": "",
          "type": "bool"
        }
      ],
      "stateMutability": "view",
      "type": "function"
    },
    {
      "inputs": [],
      "name": "owner",
      "outputs": [
        {
          "internalType": "address",
          "name": "",
          "type": "address"
        }
      ],
      "stateMutability": "view",
      "type": "function"
    },
    {
      "inputs": [
        {
          "internalType": "uint256",
          "name": "projectId",
          "type": "uint256"
        },
        {
          "internalType": "int8",
          "name": "certainTier",
          "type": "int8"
        },
        {
          "internalType": "uint8",
          "name": "v",
          "type": "uint8"
        },
        {
          "internalType": "bytes32",
          "name": "r",
          "type": "bytes32"
        },
        {
          "internalType": "bytes32",
          "name": "s",
          "type": "bytes32"
        }
      ],
      "name": "prefund",
      "outputs": [],
      "stateMutability": "payable",
      "type": "function"
    },
    {
      "inputs": [
        {
          "internalType": "uint256",
          "name": "id",
          "type": "uint256"
        },
        {
          "internalType": "address",
          "name": "investor",
          "type": "address"
        }
      ],
      "name": "prefunded",
      "outputs": [
        {
          "internalType": "bool",
          "name": "",
          "type": "bool"
        }
      ],
      "stateMutability": "view",
      "type": "function"
    },
    {
      "inputs": [],
      "name": "renounceOwnership",
      "outputs": [],
      "stateMutability": "nonpayable",
      "type": "function"
    },
    {
      "inputs": [
        {
          "internalType": "address payable",
          "name": "_fundCollector",
          "type": "address"
        }
      ],
      "name": "setFundCollector",
      "outputs": [],
      "stateMutability": "nonpayable",
      "type": "function"
    },
    {
      "inputs": [
        {
          "internalType": "address",
          "name": "newOwner",
          "type": "address"
        }
      ],
      "name": "transferOwnership",
      "outputs": [],
      "stateMutability": "nonpayable",
      "type": "function"
    }
  ],
  "bytecode": "0x60806040523480156200001157600080fd5b506040516200260538038062002605833981810160405281019062000037919062000464565b620000576200004b6200036a60201b60201c565b6200037260201b60201c565b600073ffffffffffffffffffffffffffffffffffffffff168473ffffffffffffffffffffffffffffffffffffffff1614158015620000c25750600073ffffffffffffffffffffffffffffffffffffffff168373ffffffffffffffffffffffffffffffffffffffff1614155b8015620000fc5750600073ffffffffffffffffffffffffffffffffffffffff168273ffffffffffffffffffffffffffffffffffffffff1614155b8015620001365750600073ffffffffffffffffffffffffffffffffffffffff168173ffffffffffffffffffffffffffffffffffffffff1614155b62000178576040517f08c379a00000000000000000000000000000000000000000000000000000000081526004016200016f9062000576565b60405180910390fd5b8273ffffffffffffffffffffffffffffffffffffffff168473ffffffffffffffffffffffffffffffffffffffff161415620001ea576040517f08c379a0000000000000000000000000000000000000000000000000000000008152600401620001e19062000554565b60405180910390fd5b8173ffffffffffffffffffffffffffffffffffffffff168473ffffffffffffffffffffffffffffffffffffffff1614156200025c576040517f08c379a0000000000000000000000000000000000000000000000000000000008152600401620002539062000554565b60405180910390fd5b83600160006101000a81548173ffffffffffffffffffffffffffffffffffffffff021916908373ffffffffffffffffffffffffffffffffffffffff16021790555082600260006101000a81548173ffffffffffffffffffffffffffffffffffffffff021916908373ffffffffffffffffffffffffffffffffffffffff16021790555081600360006101000a81548173ffffffffffffffffffffffffffffffffffffffff021916908373ffffffffffffffffffffffffffffffffffffffff16021790555080600560006101000a81548173ffffffffffffffffffffffffffffffffffffffff021916908373ffffffffffffffffffffffffffffffffffffffff1602179055505050505062000625565b600033905090565b60008060009054906101000a900473ffffffffffffffffffffffffffffffffffffffff169050816000806101000a81548173ffffffffffffffffffffffffffffffffffffffff021916908373ffffffffffffffffffffffffffffffffffffffff1602179055508173ffffffffffffffffffffffffffffffffffffffff168173ffffffffffffffffffffffffffffffffffffffff167f8be0079c531659141344cd1fd0a4f28419497f9722a3daafe3b4186f6b6457e060405160405180910390a35050565b6000815190506200044781620005f1565b92915050565b6000815190506200045e816200060b565b92915050565b600080600080608085870312156200047b57600080fd5b60006200048b8782880162000436565b94505060206200049e8782880162000436565b9350506040620004b18782880162000436565b9250506060620004c4878288016200044d565b91505092959194509250565b6000620004df60188362000598565b91507f4c69676874686f7573653a2053414d455f4144445245535300000000000000006000830152602082019050919050565b60006200052160188362000598565b91507f4c69676874686f7573653a205a45524f5f4144445245535300000000000000006000830152602082019050919050565b600060208201905081810360008301526200056f81620004d0565b9050919050565b60006020820190508181036000830152620005918162000512565b9050919050565b600082825260208201905092915050565b6000620005b682620005d1565b9050919050565b6000620005ca82620005d1565b9050919050565b600073ffffffffffffffffffffffffffffffffffffffff82169050919050565b620005fc81620005a9565b81146200060857600080fd5b50565b6200061681620005bd565b81146200062257600080fd5b50565b611fd080620006356000396000f3fe6080604052600436106100705760003560e01c8063715018a61161004e578063715018a6146100f75780638da5cb5b1461010e578063b11b32d214610139578063f2fde38b1461017657610070565b806302deed03146100755780633f204c13146100b257806347b60708146100ce575b600080fd5b34801561008157600080fd5b5061009c600480360381019061009791906113cd565b61019f565b6040516100a99190611ab1565b60405180910390f35b6100cc60048036038101906100c79190611445565b610207565b005b3480156100da57600080fd5b506100f560048036038101906100f09190611352565b610de4565b005b34801561010357600080fd5b5061010c610f8a565b005b34801561011a57600080fd5b50610123611012565b6040516101309190611a5f565b60405180910390f35b34801561014557600080fd5b50610160600480360381019061015b91906113cd565b61103b565b60405161016d9190611ab1565b60405180910390f35b34801561018257600080fd5b5061019d60048036038101906101989190611300565b61106a565b005b60006004600084815260200190815260200160002060008373ffffffffffffffffffffffffffffffffffffffff1673ffffffffffffffffffffffffffffffffffffffff16815260200190815260200160002060009054906101000a900460ff16905092915050565b600360009054906101000a900473ffffffffffffffffffffffffffffffffffffffff1673ffffffffffffffffffffffffffffffffffffffff16636592b724866040518263ffffffff1660e01b81526004016102629190611d1a565b60206040518083038186803b15801561027a57600080fd5b505afa15801561028e573d6000803e3d6000fd5b505050506040513d601f19601f820116820180604052508101906102b2919061137b565b6102f1576040517f08c379a00000000000000000000000000000000000000000000000000000000081526004016102e890611bba565b60405180910390fd5b6102fb853361019f565b1561033b576040517f08c379a000000000000000000000000000000000000000000000000000000000815260040161033290611c9a565b60405180910390fd5b60008460000b138015610351575060048460000b125b610390576040517f08c379a000000000000000000000000000000000000000000000000000000000815260040161038790611c7a565b60405180910390fd5b600080600360009054906101000a900473ffffffffffffffffffffffffffffffffffffffff1673ffffffffffffffffffffffffffffffffffffffff16638ee2a6d1886040518263ffffffff1660e01b81526004016103ee9190611d1a565b604080518083038186803b15801561040557600080fd5b505afa158015610419573d6000803e3d6000fd5b505050506040513d601f19601f8201168201806040525081019061043d91906114bc565b809250819350505081421015610488576040517f08c379a000000000000000000000000000000000000000000000000000000000815260040161047f90611bda565b60405180910390fd5b804211156104cb576040517f08c379a00000000000000000000000000000000000000000000000000000000081526004016104c290611cfa565b60405180910390fd5b5050600260009054906101000a900473ffffffffffffffffffffffffffffffffffffffff1673ffffffffffffffffffffffffffffffffffffffff16638c817b6e86336040518363ffffffff1660e01b815260040161052a929190611d35565b60206040518083038186803b15801561054257600080fd5b505afa158015610556573d6000803e3d6000fd5b505050506040513d601f19601f8201168201806040525081019061057a919061137b565b6105b9576040517f08c379a00000000000000000000000000000000000000000000000000000000081526004016105b090611b7a565b60405180910390fd5b6000600160009054906101000a900473ffffffffffffffffffffffffffffffffffffffff1673ffffffffffffffffffffffffffffffffffffffff166328fc4c3c336040518263ffffffff1660e01b81526004016106169190611a5f565b60206040518083038186803b15801561062e57600080fd5b505afa158015610642573d6000803e3d6000fd5b505050506040513d601f19601f8201168201806040525081019061066691906113a4565b905060008160000b13801561067e575060048160000b125b6106bd576040517f08c379a00000000000000000000000000000000000000000000000000000000081526004016106b490611c1a565b60405180910390fd5b8060000b8560000b1315610706576040517f08c379a00000000000000000000000000000000000000000000000000000000081526004016106fd90611c7a565b60405180910390fd5b849050600080600360009054906101000a900473ffffffffffffffffffffffffffffffffffffffff1673ffffffffffffffffffffffffffffffffffffffff16637480285789856040518363ffffffff1660e01b8152600401610769929190611d5e565b604080518083038186803b15801561078057600080fd5b505afa158015610794573d6000803e3d6000fd5b505050506040513d601f19601f820116820180604052508101906107b891906114bc565b8092508193505050808210610802576040517f08c379a00000000000000000000000000000000000000000000000000000000081526004016107f990611b3a565b60405180910390fd5b60006040518060400160405280601c81526020017f19457468657265756d205369676e6564204d6573736167653a0a33320000000081525090506000338a86604051602001610853939291906119fa565b60405160208183030381529060405280519060200120905060008282604051602001610880929190611a37565b60405160208183030381529060405280519060200120905060006001828b8b8b604051600081526020016040526040516108bd9493929190611acc565b6020604051602081039080840390855afa1580156108df573d6000803e3d6000fd5b505050602060405103519050600360009054906101000a900473ffffffffffffffffffffffffffffffffffffffff1673ffffffffffffffffffffffffffffffffffffffff1663b60da0856040518163ffffffff1660e01b815260040160206040518083038186803b15801561095357600080fd5b505afa158015610967573d6000803e3d6000fd5b505050506040513d601f19601f8201168201806040525081019061098b9190611329565b73ffffffffffffffffffffffffffffffffffffffff168173ffffffffffffffffffffffffffffffffffffffff16146109f8576040517f08c379a00000000000000000000000000000000000000000000000000000000081526004016109ef90611b9a565b60405180910390fd5b50505050600080600360009054906101000a900473ffffffffffffffffffffffffffffffffffffffff1673ffffffffffffffffffffffffffffffffffffffff1663b5f5cf708b876040518363ffffffff1660e01b8152600401610a5c929190611d5e565b604080518083038186803b158015610a7357600080fd5b505afa158015610a87573d6000803e3d6000fd5b505050506040513d601f19601f82011682018060405250810190610aab9190611409565b8092508193505050600073ffffffffffffffffffffffffffffffffffffffff168173ffffffffffffffffffffffffffffffffffffffff161415610b9857813414610b2a576040517f08c379a0000000000000000000000000000000000000000000000000000000008152600401610b2190611bfa565b60405180910390fd5b600560009054906101000a900473ffffffffffffffffffffffffffffffffffffffff1673ffffffffffffffffffffffffffffffffffffffff166108fc349081150290604051600060405180830381858888f19350505050158015610b92573d6000803e3d6000fd5b50610c8f565b60008190508073ffffffffffffffffffffffffffffffffffffffff166323b872dd33600560009054906101000a900473ffffffffffffffffffffffffffffffffffffffff16866040518463ffffffff1660e01b8152600401610bfc93929190611a7a565b602060405180830381600087803b158015610c1657600080fd5b505af1158015610c2a573d6000803e3d6000fd5b505050506040513d601f19601f82011682018060405250810190610c4e919061137b565b610c8d576040517f08c379a0000000000000000000000000000000000000000000000000000000008152600401610c8490611c3a565b60405180910390fd5b505b600360009054906101000a900473ffffffffffffffffffffffffffffffffffffffff1673ffffffffffffffffffffffffffffffffffffffff1663c82189e08b876040518363ffffffff1660e01b8152600401610cec929190611d5e565b600060405180830381600087803b158015610d0657600080fd5b505af1158015610d1a573d6000803e3d6000fd5b505050506001600460008c815260200190815260200160002060003373ffffffffffffffffffffffffffffffffffffffff1673ffffffffffffffffffffffffffffffffffffffff16815260200190815260200160002060006101000a81548160ff0219169083151502179055503373ffffffffffffffffffffffffffffffffffffffff168a7f8598f161559951f8d26c6782ad0bfdf057b7531aca566d3e518ba68fd37d7b378742604051610dd0929190611b11565b60405180910390a350505050505050505050565b610dec611162565b73ffffffffffffffffffffffffffffffffffffffff16610e0a611012565b73ffffffffffffffffffffffffffffffffffffffff1614610e60576040517f08c379a0000000000000000000000000000000000000000000000000000000008152600401610e5790611c5a565b60405180910390fd5b600073ffffffffffffffffffffffffffffffffffffffff168173ffffffffffffffffffffffffffffffffffffffff161415610ed0576040517f08c379a0000000000000000000000000000000000000000000000000000000008152600401610ec790611cba565b60405180910390fd5b610ed8611012565b73ffffffffffffffffffffffffffffffffffffffff168173ffffffffffffffffffffffffffffffffffffffff161415610f46576040517f08c379a0000000000000000000000000000000000000000000000000000000008152600401610f3d90611cda565b60405180910390fd5b80600560006101000a81548173ffffffffffffffffffffffffffffffffffffffff021916908373ffffffffffffffffffffffffffffffffffffffff16021790555050565b610f92611162565b73ffffffffffffffffffffffffffffffffffffffff16610fb0611012565b73ffffffffffffffffffffffffffffffffffffffff1614611006576040517f08c379a0000000000000000000000000000000000000000000000000000000008152600401610ffd90611c5a565b60405180910390fd5b611010600061116a565b565b60008060009054906101000a900473ffffffffffffffffffffffffffffffffffffffff16905090565b60046020528160005260406000206020528060005260406000206000915091509054906101000a900460ff1681565b611072611162565b73ffffffffffffffffffffffffffffffffffffffff16611090611012565b73ffffffffffffffffffffffffffffffffffffffff16146110e6576040517f08c379a00000000000000000000000000000000000000000000000000000000081526004016110dd90611c5a565b60405180910390fd5b600073ffffffffffffffffffffffffffffffffffffffff168173ffffffffffffffffffffffffffffffffffffffff161415611156576040517f08c379a000000000000000000000000000000000000000000000000000000000815260040161114d90611b5a565b60405180910390fd5b61115f8161116a565b50565b600033905090565b60008060009054906101000a900473ffffffffffffffffffffffffffffffffffffffff169050816000806101000a81548173ffffffffffffffffffffffffffffffffffffffff021916908373ffffffffffffffffffffffffffffffffffffffff1602179055508173ffffffffffffffffffffffffffffffffffffffff168173ffffffffffffffffffffffffffffffffffffffff167f8be0079c531659141344cd1fd0a4f28419497f9722a3daafe3b4186f6b6457e060405160405180910390a35050565b60008135905061123d81611ef9565b92915050565b60008151905061125281611ef9565b92915050565b60008135905061126781611f10565b92915050565b60008151905061127c81611f27565b92915050565b60008135905061129181611f3e565b92915050565b6000813590506112a681611f55565b92915050565b6000815190506112bb81611f55565b92915050565b6000813590506112d081611f6c565b92915050565b6000815190506112e581611f6c565b92915050565b6000813590506112fa81611f83565b92915050565b60006020828403121561131257600080fd5b60006113208482850161122e565b91505092915050565b60006020828403121561133b57600080fd5b600061134984828501611243565b91505092915050565b60006020828403121561136457600080fd5b600061137284828501611258565b91505092915050565b60006020828403121561138d57600080fd5b600061139b8482850161126d565b91505092915050565b6000602082840312156113b657600080fd5b60006113c4848285016112ac565b91505092915050565b600080604083850312156113e057600080fd5b60006113ee858286016112c1565b92505060206113ff8582860161122e565b9150509250929050565b6000806040838503121561141c57600080fd5b600061142a858286016112d6565b925050602061143b85828601611243565b9150509250929050565b600080600080600060a0868803121561145d57600080fd5b600061146b888289016112c1565b955050602061147c88828901611297565b945050604061148d888289016112eb565b935050606061149e88828901611282565b92505060806114af88828901611282565b9150509295509295909350565b600080604083850312156114cf57600080fd5b60006114dd858286016112d6565b92505060206114ee858286016112d6565b9150509250929050565b61150181611e2c565b82525050565b61151081611dae565b82525050565b61152761152282611dae565b611e95565b82525050565b61153681611dd2565b82525050565b61154581611dde565b82525050565b61155c61155782611dde565b611ea7565b82525050565b600061156d82611d87565b6115778185611d92565b9350611587818560208601611e62565b80840191505092915050565b61159c81611de8565b82525050565b6115b36115ae82611de8565b611eb1565b82525050565b60006115c6601483611d9d565b91507f4c69676874686f7573653a20544945525f4341500000000000000000000000006000830152602082019050919050565b6000611606602683611d9d565b91507f4f776e61626c653a206e6577206f776e657220697320746865207a65726f206160008301527f64647265737300000000000000000000000000000000000000000000000000006020830152604082019050919050565b600061166c601a83611d9d565b91507f4c69676874686f7573653a204e4f545f524547495354455245440000000000006000830152602082019050919050565b60006116ac600f83611d9d565b91507f4c69676874686f7573653a2053494700000000000000000000000000000000006000830152602082019050919050565b60006116ec602883611d9d565b91507f4c69676874686f7573653a20524547495354524154494f4e5f4e4f545f494e4960008301527f5449414c495a45440000000000000000000000000000000000000000000000006020830152604082019050919050565b6000611752601b83611d9d565b91507f4c69676874686f7573653a204e4f545f535441525445445f59455400000000006000830152602082019050919050565b6000611792601d83611d9d565b91507f4c69676874686f7573653a204e4f545f454e4f5547485f4e41544956450000006000830152602082019050919050565b60006117d2601383611d9d565b91507f4c69676874686f7573653a204e4f5f54494552000000000000000000000000006000830152602082019050919050565b6000611812601d83611d9d565b91507f4c69676874686f7573653a204641494c45445f544f5f5452414e5345520000006000830152602082019050919050565b6000611852602083611d9d565b91507f4f776e61626c653a2063616c6c6572206973206e6f7420746865206f776e65726000830152602082019050919050565b6000611892602083611d9d565b91507f4c69676874686f7573653a20494e56414c49445f4345525441494e5f544945526000830152602082019050919050565b60006118d2601d83611d9d565b91507f4c69676874686f7573653a20414c52454144595f50524546554e4445440000006000830152602082019050919050565b6000611912601883611d9d565b91507f4c69676874686f7573653a205a45524f5f4144445245535300000000000000006000830152602082019050919050565b6000611952601683611d9d565b91507f4c69676874686f7573653a20555345445f4f574e4552000000000000000000006000830152602082019050919050565b6000611992601483611d9d565b91507f4c69676874686f7573653a2046494e49534845440000000000000000000000006000830152602082019050919050565b6119ce81611e15565b82525050565b6119e56119e082611e15565b611ed5565b82525050565b6119f481611e1f565b82525050565b6000611a068286611516565b601482019150611a1682856119d4565b602082019150611a2682846115a2565b600182019150819050949350505050565b6000611a438285611562565b9150611a4f828461154b565b6020820191508190509392505050565b6000602082019050611a746000830184611507565b92915050565b6000606082019050611a8f6000830186611507565b611a9c60208301856114f8565b611aa960408301846119c5565b949350505050565b6000602082019050611ac6600083018461152d565b92915050565b6000608082019050611ae1600083018761153c565b611aee60208301866119eb565b611afb604083018561153c565b611b08606083018461153c565b95945050505050565b6000604082019050611b266000830185611593565b611b3360208301846119c5565b9392505050565b60006020820190508181036000830152611b53816115b9565b9050919050565b60006020820190508181036000830152611b73816115f9565b9050919050565b60006020820190508181036000830152611b938161165f565b9050919050565b60006020820190508181036000830152611bb38161169f565b9050919050565b60006020820190508181036000830152611bd3816116df565b9050919050565b60006020820190508181036000830152611bf381611745565b9050919050565b60006020820190508181036000830152611c1381611785565b9050919050565b60006020820190508181036000830152611c33816117c5565b9050919050565b60006020820190508181036000830152611c5381611805565b9050919050565b60006020820190508181036000830152611c7381611845565b9050919050565b60006020820190508181036000830152611c9381611885565b9050919050565b60006020820190508181036000830152611cb3816118c5565b9050919050565b60006020820190508181036000830152611cd381611905565b9050919050565b60006020820190508181036000830152611cf381611945565b9050919050565b60006020820190508181036000830152611d1381611985565b9050919050565b6000602082019050611d2f60008301846119c5565b92915050565b6000604082019050611d4a60008301856119c5565b611d576020830184611507565b9392505050565b6000604082019050611d7360008301856119c5565b611d806020830184611593565b9392505050565b600081519050919050565b600081905092915050565b600082825260208201905092915050565b6000611db982611df5565b9050919050565b6000611dcb82611df5565b9050919050565b60008115159050919050565b6000819050919050565b60008160000b9050919050565b600073ffffffffffffffffffffffffffffffffffffffff82169050919050565b6000819050919050565b600060ff82169050919050565b6000611e3782611e3e565b9050919050565b6000611e4982611e50565b9050919050565b6000611e5b82611df5565b9050919050565b60005b83811015611e80578082015181840152602081019050611e65565b83811115611e8f576000848401525b50505050565b6000611ea082611ec3565b9050919050565b6000819050919050565b6000611ebc82611edf565b9050919050565b6000611ece82611eec565b9050919050565b6000819050919050565b60008160f81b9050919050565b60008160601b9050919050565b611f0281611dae565b8114611f0d57600080fd5b50565b611f1981611dc0565b8114611f2457600080fd5b50565b611f3081611dd2565b8114611f3b57600080fd5b50565b611f4781611dde565b8114611f5257600080fd5b50565b611f5e81611de8565b8114611f6957600080fd5b50565b611f7581611e15565b8114611f8057600080fd5b50565b611f8c81611e1f565b8114611f9757600080fd5b5056fea2646970667358221220be27774acb691d2dc854177c4374f199c2581f60ff5e059fdcc25a6fd2a2262a64736f6c63430008000033",
  "linkReferences": {},
  "deployedLinkReferences": {}
}