{
  "_format": "hh-sol-artifact-1",
  "contractName": "LighthousePrefund",
  "sourceName": "contracts/LighthousePrefund.sol",
  "abi": [
    {
      "inputs": [
        {
          "internalType": "address",
          "name": "_tier",
          "type": "address"
        },
        {
          "internalType": "address",
          "name": "_submission",
          "type": "address"
        },
        {
          "internalType": "address",
          "name": "_project",
          "type": "address"
        },
        {
          "internalType": "address payable",
          "name": "_fundCollector",
          "type": "address"
        },
        {
          "internalType": "uint256",
          "name": "_chainID",
          "type": "uint256"
        }
      ],
      "stateMutability": "nonpayable",
      "type": "constructor"
    },
    {
      "anonymous": false,
      "inputs": [
        {
          "indexed": true,
          "internalType": "address",
          "name": "previousOwner",
          "type": "address"
        },
        {
          "indexed": true,
          "internalType": "address",
          "name": "newOwner",
          "type": "address"
        }
      ],
      "name": "OwnershipTransferred",
      "type": "event"
    },
    {
      "anonymous": false,
      "inputs": [
        {
          "indexed": true,
          "internalType": "uint256",
          "name": "projectId",
          "type": "uint256"
        },
        {
          "indexed": true,
          "internalType": "address",
          "name": "investor",
          "type": "address"
        },
        {
          "indexed": false,
          "internalType": "int8",
          "name": "tier",
          "type": "int8"
        },
        {
          "indexed": false,
          "internalType": "uint256",
          "name": "time",
          "type": "uint256"
        }
      ],
      "name": "Prefund",
      "type": "event"
    },
    {
      "inputs": [],
      "name": "chainID",
      "outputs": [
        {
          "internalType": "uint256",
          "name": "",
          "type": "uint256"
        }
      ],
      "stateMutability": "view",
      "type": "function"
    },
    {
      "inputs": [],
      "name": "fundCollector",
      "outputs": [
        {
          "internalType": "address payable",
          "name": "",
          "type": "address"
        }
      ],
      "stateMutability": "view",
      "type": "function"
    },
    {
      "inputs": [
        {
          "internalType": "uint256",
          "name": "id",
          "type": "uint256"
        },
        {
          "internalType": "address",
          "name": "investor",
          "type": "address"
        }
      ],
      "name": "getPrefundTier",
      "outputs": [
        {
          "internalType": "int8",
          "name": "",
          "type": "int8"
        }
      ],
      "stateMutability": "view",
      "type": "function"
    },
    {
      "inputs": [
        {
          "internalType": "uint256",
          "name": "",
          "type": "uint256"
        },
        {
          "internalType": "address",
          "name": "",
          "type": "address"
        }
      ],
      "name": "investments",
      "outputs": [
        {
          "internalType": "bool",
          "name": "",
          "type": "bool"
        }
      ],
      "stateMutability": "view",
      "type": "function"
    },
    {
      "inputs": [],
      "name": "owner",
      "outputs": [
        {
          "internalType": "address",
          "name": "",
          "type": "address"
        }
      ],
      "stateMutability": "view",
      "type": "function"
    },
    {
      "inputs": [
        {
          "internalType": "uint256",
          "name": "projectId",
          "type": "uint256"
        },
        {
          "internalType": "int8",
          "name": "certainTier",
          "type": "int8"
        },
        {
          "internalType": "uint8",
          "name": "v",
          "type": "uint8"
        },
        {
          "internalType": "bytes32",
          "name": "r",
          "type": "bytes32"
        },
        {
          "internalType": "bytes32",
          "name": "s",
          "type": "bytes32"
        }
      ],
      "name": "prefund",
      "outputs": [],
      "stateMutability": "payable",
      "type": "function"
    },
    {
      "inputs": [
        {
          "internalType": "uint256",
          "name": "id",
          "type": "uint256"
        },
        {
          "internalType": "address",
          "name": "investor",
          "type": "address"
        }
      ],
      "name": "prefunded",
      "outputs": [
        {
          "internalType": "bool",
          "name": "",
          "type": "bool"
        }
      ],
      "stateMutability": "view",
      "type": "function"
    },
    {
      "inputs": [],
      "name": "renounceOwnership",
      "outputs": [],
      "stateMutability": "nonpayable",
      "type": "function"
    },
    {
      "inputs": [
        {
          "internalType": "address payable",
          "name": "_fundCollector",
          "type": "address"
        }
      ],
      "name": "setFundCollector",
      "outputs": [],
      "stateMutability": "nonpayable",
      "type": "function"
    },
    {
      "inputs": [
        {
          "internalType": "address",
          "name": "newTier",
          "type": "address"
        }
      ],
      "name": "setLighthouseTier",
      "outputs": [],
      "stateMutability": "nonpayable",
      "type": "function"
    },
    {
      "inputs": [
        {
          "internalType": "uint256",
          "name": "",
          "type": "uint256"
        },
        {
          "internalType": "address",
          "name": "",
          "type": "address"
        }
      ],
      "name": "tiers",
      "outputs": [
        {
          "internalType": "int8",
          "name": "",
          "type": "int8"
        }
      ],
      "stateMutability": "view",
      "type": "function"
    },
    {
      "inputs": [
        {
          "internalType": "address",
          "name": "newOwner",
          "type": "address"
        }
      ],
      "name": "transferOwnership",
      "outputs": [],
      "stateMutability": "nonpayable",
      "type": "function"
    }
  ],
  "bytecode": "0x60806040523480156200001157600080fd5b5060405162002cee38038062002cee83398181016040528101906200003791906200055d565b620000576200004b6200044c60201b60201c565b6200045460201b60201c565b600073ffffffffffffffffffffffffffffffffffffffff168573ffffffffffffffffffffffffffffffffffffffff1614158015620000c25750600073ffffffffffffffffffffffffffffffffffffffff168473ffffffffffffffffffffffffffffffffffffffff1614155b8015620000fc5750600073ffffffffffffffffffffffffffffffffffffffff168373ffffffffffffffffffffffffffffffffffffffff1614155b8015620001365750600073ffffffffffffffffffffffffffffffffffffffff168273ffffffffffffffffffffffffffffffffffffffff1614155b62000178576040517f08c379a00000000000000000000000000000000000000000000000000000000081526004016200016f906200072b565b60405180910390fd5b8373ffffffffffffffffffffffffffffffffffffffff168573ffffffffffffffffffffffffffffffffffffffff161415620001ea576040517f08c379a0000000000000000000000000000000000000000000000000000000008152600401620001e190620006e7565b60405180910390fd5b8273ffffffffffffffffffffffffffffffffffffffff168573ffffffffffffffffffffffffffffffffffffffff1614156200025c576040517f08c379a00000000000000000000000000000000000000000000000000000000081526004016200025390620006e7565b60405180910390fd5b60008111620002a2576040517f08c379a0000000000000000000000000000000000000000000000000000000008152600401620002999062000709565b60405180910390fd5b8173ffffffffffffffffffffffffffffffffffffffff16600760009054906101000a900473ffffffffffffffffffffffffffffffffffffffff1673ffffffffffffffffffffffffffffffffffffffff16141562000336576040517f08c379a00000000000000000000000000000000000000000000000000000000081526004016200032d906200074d565b60405180910390fd5b84600160006101000a81548173ffffffffffffffffffffffffffffffffffffffff021916908373ffffffffffffffffffffffffffffffffffffffff16021790555083600260006101000a81548173ffffffffffffffffffffffffffffffffffffffff021916908373ffffffffffffffffffffffffffffffffffffffff16021790555082600360006101000a81548173ffffffffffffffffffffffffffffffffffffffff021916908373ffffffffffffffffffffffffffffffffffffffff16021790555081600760006101000a81548173ffffffffffffffffffffffffffffffffffffffff021916908373ffffffffffffffffffffffffffffffffffffffff16021790555080600481905550505050505062000820565b600033905090565b60008060009054906101000a900473ffffffffffffffffffffffffffffffffffffffff169050816000806101000a81548173ffffffffffffffffffffffffffffffffffffffff021916908373ffffffffffffffffffffffffffffffffffffffff1602179055508173ffffffffffffffffffffffffffffffffffffffff168173ffffffffffffffffffffffffffffffffffffffff167f8be0079c531659141344cd1fd0a4f28419497f9722a3daafe3b4186f6b6457e060405160405180910390a35050565b6000815190506200052981620007d2565b92915050565b6000815190506200054081620007ec565b92915050565b600081519050620005578162000806565b92915050565b600080600080600060a086880312156200057657600080fd5b6000620005868882890162000518565b9550506020620005998882890162000518565b9450506040620005ac8882890162000518565b9350506060620005bf888289016200052f565b9250506080620005d28882890162000546565b9150509295509295909350565b6000620005ee6018836200076f565b91507f4c69676874686f7573653a2053414d455f4144445245535300000000000000006000830152602082019050919050565b6000620006306016836200076f565b91507f4c69676874686f7573653a205a45524f5f56414c5545000000000000000000006000830152602082019050919050565b6000620006726018836200076f565b91507f4c69676874686f7573653a205a45524f5f4144445245535300000000000000006000830152602082019050919050565b6000620006b46016836200076f565b91507f4c69676874686f7573653a20555345445f4f574e4552000000000000000000006000830152602082019050919050565b600060208201905081810360008301526200070281620005df565b9050919050565b60006020820190508181036000830152620007248162000621565b9050919050565b60006020820190508181036000830152620007468162000663565b9050919050565b600060208201905081810360008301526200076881620006a5565b9050919050565b600082825260208201905092915050565b60006200078d82620007a8565b9050919050565b6000620007a182620007a8565b9050919050565b600073ffffffffffffffffffffffffffffffffffffffff82169050919050565b6000819050919050565b620007dd8162000780565b8114620007e957600080fd5b50565b620007f78162000794565b81146200080357600080fd5b50565b6200081181620007c8565b81146200081d57600080fd5b50565b6124be80620008306000396000f3fe6080604052600436106100a75760003560e01c8063715018a611610064578063715018a6146101d35780638da5cb5b146101ea578063adc879e914610215578063aee7a1ef14610240578063b11b32d214610269578063f2fde38b146102a6576100a7565b806302deed03146100ac57806328036256146100e957806338dfb0a1146101265780633f204c13146101515780634697969c1461016d57806347b60708146101aa575b600080fd5b3480156100b857600080fd5b506100d360048036038101906100ce919061182b565b6102cf565b6040516100e09190611f84565b60405180910390f35b3480156100f557600080fd5b50610110600480360381019061010b919061182b565b610337565b60405161011d9190611fe4565b60405180910390f35b34801561013257600080fd5b5061013b61039f565b6040516101489190611f09565b60405180910390f35b61016b600480360381019061016691906118a3565b6103c5565b005b34801561017957600080fd5b50610194600480360381019061018f919061182b565b61114d565b6040516101a19190611fe4565b60405180910390f35b3480156101b657600080fd5b506101d160048036038101906101cc91906117b0565b61117c565b005b3480156101df57600080fd5b506101e8611322565b005b3480156101f657600080fd5b506101ff6113aa565b60405161020c9190611eee565b60405180910390f35b34801561022157600080fd5b5061022a6113d3565b6040516102379190612208565b60405180910390f35b34801561024c57600080fd5b506102676004803603810190610262919061175e565b6113d9565b005b34801561027557600080fd5b50610290600480360381019061028b919061182b565b611499565b60405161029d9190611f84565b60405180910390f35b3480156102b257600080fd5b506102cd60048036038101906102c8919061175e565b6114c8565b005b60006005600084815260200190815260200160002060008373ffffffffffffffffffffffffffffffffffffffff1673ffffffffffffffffffffffffffffffffffffffff16815260200190815260200160002060009054906101000a900460ff16905092915050565b60006006600084815260200190815260200160002060008373ffffffffffffffffffffffffffffffffffffffff1673ffffffffffffffffffffffffffffffffffffffff16815260200190815260200160002060009054906101000a900460000b905092915050565b600760009054906101000a900473ffffffffffffffffffffffffffffffffffffffff1681565b600360009054906101000a900473ffffffffffffffffffffffffffffffffffffffff1673ffffffffffffffffffffffffffffffffffffffff16636592b724866040518263ffffffff1660e01b81526004016104209190612208565b60206040518083038186803b15801561043857600080fd5b505afa15801561044c573d6000803e3d6000fd5b505050506040513d601f19601f8201168201806040525081019061047091906117d9565b6104af576040517f08c379a00000000000000000000000000000000000000000000000000000000081526004016104a690612048565b60405180910390fd5b6104b985336102cf565b156104f9576040517f08c379a00000000000000000000000000000000000000000000000000000000081526004016104f090612188565b60405180910390fd5b60008460000b13801561050f575060048460000b125b61054e576040517f08c379a000000000000000000000000000000000000000000000000000000000815260040161054590612168565b60405180910390fd5b600080600360009054906101000a900473ffffffffffffffffffffffffffffffffffffffff1673ffffffffffffffffffffffffffffffffffffffff16638ee2a6d1886040518263ffffffff1660e01b81526004016105ac9190612208565b604080518083038186803b1580156105c357600080fd5b505afa1580156105d7573d6000803e3d6000fd5b505050506040513d601f19601f820116820180604052508101906105fb919061191a565b809250819350505081421015610646576040517f08c379a000000000000000000000000000000000000000000000000000000000815260040161063d906120c8565b60405180910390fd5b80421115610689576040517f08c379a0000000000000000000000000000000000000000000000000000000008152600401610680906121e8565b60405180910390fd5b5050600260009054906101000a900473ffffffffffffffffffffffffffffffffffffffff1673ffffffffffffffffffffffffffffffffffffffff16638c817b6e86336040518363ffffffff1660e01b81526004016106e8929190612223565b60206040518083038186803b15801561070057600080fd5b505afa158015610714573d6000803e3d6000fd5b505050506040513d601f19601f8201168201806040525081019061073891906117d9565b610777576040517f08c379a000000000000000000000000000000000000000000000000000000000815260040161076e90612088565b60405180910390fd5b6000600160009054906101000a900473ffffffffffffffffffffffffffffffffffffffff1673ffffffffffffffffffffffffffffffffffffffff166328fc4c3c336040518263ffffffff1660e01b81526004016107d49190611eee565b60206040518083038186803b1580156107ec57600080fd5b505afa158015610800573d6000803e3d6000fd5b505050506040513d601f19601f820116820180604052508101906108249190611802565b905060008160000b13801561083c575060048160000b125b61087b576040517f08c379a000000000000000000000000000000000000000000000000000000000815260040161087290612108565b60405180910390fd5b8060000b8560000b13156108c4576040517f08c379a00000000000000000000000000000000000000000000000000000000081526004016108bb90612168565b60405180910390fd5b849050600080600360009054906101000a900473ffffffffffffffffffffffffffffffffffffffff1673ffffffffffffffffffffffffffffffffffffffff16637480285789856040518363ffffffff1660e01b815260040161092792919061224c565b604080518083038186803b15801561093e57600080fd5b505afa158015610952573d6000803e3d6000fd5b505050506040513d601f19601f82011682018060405250810190610976919061191a565b80925081935050508082106109c0576040517f08c379a00000000000000000000000000000000000000000000000000000000081526004016109b790612028565b60405180910390fd5b60006040518060400160405280601c81526020017f19457468657265756d205369676e6564204d6573736167653a0a3332000000008152509050600033306004548c8c604051602001610a17959493929190611e67565b60405160208183030381529060405280519060200120905060008282604051602001610a44929190611ec6565b60405160208183030381529060405280519060200120905060006001828b8b8b60405160008152602001604052604051610a819493929190611f9f565b6020604051602081039080840390855afa158015610aa3573d6000803e3d6000fd5b505050602060405103519050600360009054906101000a900473ffffffffffffffffffffffffffffffffffffffff1673ffffffffffffffffffffffffffffffffffffffff1663b60da0856040518163ffffffff1660e01b815260040160206040518083038186803b158015610b1757600080fd5b505afa158015610b2b573d6000803e3d6000fd5b505050506040513d601f19601f82011682018060405250810190610b4f9190611787565b73ffffffffffffffffffffffffffffffffffffffff168173ffffffffffffffffffffffffffffffffffffffff1614610bbc576040517f08c379a0000000000000000000000000000000000000000000000000000000008152600401610bb3906120a8565b60405180910390fd5b50505050600080600360009054906101000a900473ffffffffffffffffffffffffffffffffffffffff1673ffffffffffffffffffffffffffffffffffffffff1663b5f5cf708b876040518363ffffffff1660e01b8152600401610c2092919061224c565b604080518083038186803b158015610c3757600080fd5b505afa158015610c4b573d6000803e3d6000fd5b505050506040513d601f19601f82011682018060405250810190610c6f9190611867565b8092508193505050600073ffffffffffffffffffffffffffffffffffffffff168173ffffffffffffffffffffffffffffffffffffffff161415610d5c57813414610cee576040517f08c379a0000000000000000000000000000000000000000000000000000000008152600401610ce5906120e8565b60405180910390fd5b600760009054906101000a900473ffffffffffffffffffffffffffffffffffffffff1673ffffffffffffffffffffffffffffffffffffffff166108fc349081150290604051600060405180830381858888f19350505050158015610d56573d6000803e3d6000fd5b50610e53565b60008190508073ffffffffffffffffffffffffffffffffffffffff166323b872dd33600760009054906101000a900473ffffffffffffffffffffffffffffffffffffffff16866040518463ffffffff1660e01b8152600401610dc093929190611f24565b602060405180830381600087803b158015610dda57600080fd5b505af1158015610dee573d6000803e3d6000fd5b505050506040513d601f19601f82011682018060405250810190610e1291906117d9565b610e51576040517f08c379a0000000000000000000000000000000000000000000000000000000008152600401610e4890612128565b60405180910390fd5b505b600160009054906101000a900473ffffffffffffffffffffffffffffffffffffffff1673ffffffffffffffffffffffffffffffffffffffff1663ba1cbc7f33600160009054906101000a900473ffffffffffffffffffffffffffffffffffffffff1673ffffffffffffffffffffffffffffffffffffffff166328fc4c3c336040518263ffffffff1660e01b8152600401610eed9190611eee565b60206040518083038186803b158015610f0557600080fd5b505afa158015610f19573d6000803e3d6000fd5b505050506040513d601f19601f82011682018060405250810190610f3d9190611802565b6040518363ffffffff1660e01b8152600401610f5a929190611f5b565b600060405180830381600087803b158015610f7457600080fd5b505af1158015610f88573d6000803e3d6000fd5b50505050600360009054906101000a900473ffffffffffffffffffffffffffffffffffffffff1673ffffffffffffffffffffffffffffffffffffffff1663c82189e08b876040518363ffffffff1660e01b8152600401610fe992919061224c565b600060405180830381600087803b15801561100357600080fd5b505af1158015611017573d6000803e3d6000fd5b505050506001600560008c815260200190815260200160002060003373ffffffffffffffffffffffffffffffffffffffff1673ffffffffffffffffffffffffffffffffffffffff16815260200190815260200160002060006101000a81548160ff02191690831515021790555084600660008c815260200190815260200160002060003373ffffffffffffffffffffffffffffffffffffffff1673ffffffffffffffffffffffffffffffffffffffff16815260200190815260200160002060006101000a81548160ff021916908360000b60ff1602179055503373ffffffffffffffffffffffffffffffffffffffff168a7f8598f161559951f8d26c6782ad0bfdf057b7531aca566d3e518ba68fd37d7b378742604051611139929190611fff565b60405180910390a350505050505050505050565b60066020528160005260406000206020528060005260406000206000915091509054906101000a900460000b81565b6111846115c0565b73ffffffffffffffffffffffffffffffffffffffff166111a26113aa565b73ffffffffffffffffffffffffffffffffffffffff16146111f8576040517f08c379a00000000000000000000000000000000000000000000000000000000081526004016111ef90612148565b60405180910390fd5b600073ffffffffffffffffffffffffffffffffffffffff168173ffffffffffffffffffffffffffffffffffffffff161415611268576040517f08c379a000000000000000000000000000000000000000000000000000000000815260040161125f906121a8565b60405180910390fd5b6112706113aa565b73ffffffffffffffffffffffffffffffffffffffff168173ffffffffffffffffffffffffffffffffffffffff1614156112de576040517f08c379a00000000000000000000000000000000000000000000000000000000081526004016112d5906121c8565b60405180910390fd5b80600760006101000a81548173ffffffffffffffffffffffffffffffffffffffff021916908373ffffffffffffffffffffffffffffffffffffffff16021790555050565b61132a6115c0565b73ffffffffffffffffffffffffffffffffffffffff166113486113aa565b73ffffffffffffffffffffffffffffffffffffffff161461139e576040517f08c379a000000000000000000000000000000000000000000000000000000000815260040161139590612148565b60405180910390fd5b6113a860006115c8565b565b60008060009054906101000a900473ffffffffffffffffffffffffffffffffffffffff16905090565b60045481565b6113e16115c0565b73ffffffffffffffffffffffffffffffffffffffff166113ff6113aa565b73ffffffffffffffffffffffffffffffffffffffff1614611455576040517f08c379a000000000000000000000000000000000000000000000000000000000815260040161144c90612148565b60405180910390fd5b80600160006101000a81548173ffffffffffffffffffffffffffffffffffffffff021916908373ffffffffffffffffffffffffffffffffffffffff16021790555050565b60056020528160005260406000206020528060005260406000206000915091509054906101000a900460ff1681565b6114d06115c0565b73ffffffffffffffffffffffffffffffffffffffff166114ee6113aa565b73ffffffffffffffffffffffffffffffffffffffff1614611544576040517f08c379a000000000000000000000000000000000000000000000000000000000815260040161153b90612148565b60405180910390fd5b600073ffffffffffffffffffffffffffffffffffffffff168173ffffffffffffffffffffffffffffffffffffffff1614156115b4576040517f08c379a00000000000000000000000000000000000000000000000000000000081526004016115ab90612068565b60405180910390fd5b6115bd816115c8565b50565b600033905090565b60008060009054906101000a900473ffffffffffffffffffffffffffffffffffffffff169050816000806101000a81548173ffffffffffffffffffffffffffffffffffffffff021916908373ffffffffffffffffffffffffffffffffffffffff1602179055508173ffffffffffffffffffffffffffffffffffffffff168173ffffffffffffffffffffffffffffffffffffffff167f8be0079c531659141344cd1fd0a4f28419497f9722a3daafe3b4186f6b6457e060405160405180910390a35050565b60008135905061169b816123e7565b92915050565b6000815190506116b0816123e7565b92915050565b6000813590506116c5816123fe565b92915050565b6000815190506116da81612415565b92915050565b6000813590506116ef8161242c565b92915050565b60008135905061170481612443565b92915050565b60008151905061171981612443565b92915050565b60008135905061172e8161245a565b92915050565b6000815190506117438161245a565b92915050565b60008135905061175881612471565b92915050565b60006020828403121561177057600080fd5b600061177e8482850161168c565b91505092915050565b60006020828403121561179957600080fd5b60006117a7848285016116a1565b91505092915050565b6000602082840312156117c257600080fd5b60006117d0848285016116b6565b91505092915050565b6000602082840312156117eb57600080fd5b60006117f9848285016116cb565b91505092915050565b60006020828403121561181457600080fd5b60006118228482850161170a565b91505092915050565b6000806040838503121561183e57600080fd5b600061184c8582860161171f565b925050602061185d8582860161168c565b9150509250929050565b6000806040838503121561187a57600080fd5b600061188885828601611734565b9250506020611899858286016116a1565b9150509250929050565b600080600080600060a086880312156118bb57600080fd5b60006118c98882890161171f565b95505060206118da888289016116f5565b94505060406118eb88828901611749565b93505060606118fc888289016116e0565b925050608061190d888289016116e0565b9150509295509295909350565b6000806040838503121561192d57600080fd5b600061193b85828601611734565b925050602061194c85828601611734565b9150509250929050565b61195f8161231a565b82525050565b61196e816122ae565b82525050565b61197d8161229c565b82525050565b61199461198f8261229c565b612383565b82525050565b6119a3816122c0565b82525050565b6119b2816122cc565b82525050565b6119c96119c4826122cc565b612395565b82525050565b60006119da82612275565b6119e48185612280565b93506119f4818560208601612350565b80840191505092915050565b611a09816122d6565b82525050565b6000611a1c60148361228b565b91507f4c69676874686f7573653a20544945525f4341500000000000000000000000006000830152602082019050919050565b6000611a5c60238361228b565b91507f4c69676874686f7573653a2050524546554e445f4e4f545f494e495449414c4960008301527f5a454400000000000000000000000000000000000000000000000000000000006020830152604082019050919050565b6000611ac260268361228b565b91507f4f776e61626c653a206e6577206f776e657220697320746865207a65726f206160008301527f64647265737300000000000000000000000000000000000000000000000000006020830152604082019050919050565b6000611b28601a8361228b565b91507f4c69676874686f7573653a204e4f545f524547495354455245440000000000006000830152602082019050919050565b6000611b68600f8361228b565b91507f4c69676874686f7573653a2053494700000000000000000000000000000000006000830152602082019050919050565b6000611ba8601b8361228b565b91507f4c69676874686f7573653a204e4f545f535441525445445f59455400000000006000830152602082019050919050565b6000611be8601d8361228b565b91507f4c69676874686f7573653a204e4f545f454e4f5547485f4e41544956450000006000830152602082019050919050565b6000611c2860138361228b565b91507f4c69676874686f7573653a204e4f5f54494552000000000000000000000000006000830152602082019050919050565b6000611c68601d8361228b565b91507f4c69676874686f7573653a204641494c45445f544f5f5452414e5345520000006000830152602082019050919050565b6000611ca860208361228b565b91507f4f776e61626c653a2063616c6c6572206973206e6f7420746865206f776e65726000830152602082019050919050565b6000611ce860208361228b565b91507f4c69676874686f7573653a20494e56414c49445f4345525441494e5f544945526000830152602082019050919050565b6000611d28601d8361228b565b91507f4c69676874686f7573653a20414c52454144595f50524546554e4445440000006000830152602082019050919050565b6000611d6860188361228b565b91507f4c69676874686f7573653a205a45524f5f4144445245535300000000000000006000830152602082019050919050565b6000611da860168361228b565b91507f4c69676874686f7573653a20555345445f4f574e4552000000000000000000006000830152602082019050919050565b6000611de860148361228b565b91507f4c69676874686f7573653a2046494e49534845440000000000000000000000006000830152602082019050919050565b611e2481612303565b82525050565b611e3b611e3682612303565b6123b1565b82525050565b611e4a8161230d565b82525050565b611e61611e5c8261230d565b6123bb565b82525050565b6000611e738288611983565b601482019150611e838287611983565b601482019150611e938286611e2a565b602082019150611ea38285611e2a565b602082019150611eb38284611e50565b6001820191508190509695505050505050565b6000611ed282856119cf565b9150611ede82846119b8565b6020820191508190509392505050565b6000602082019050611f036000830184611974565b92915050565b6000602082019050611f1e6000830184611965565b92915050565b6000606082019050611f396000830186611974565b611f466020830185611956565b611f536040830184611e1b565b949350505050565b6000604082019050611f706000830185611974565b611f7d6020830184611e41565b9392505050565b6000602082019050611f99600083018461199a565b92915050565b6000608082019050611fb460008301876119a9565b611fc16020830186611e41565b611fce60408301856119a9565b611fdb60608301846119a9565b95945050505050565b6000602082019050611ff96000830184611a00565b92915050565b60006040820190506120146000830185611a00565b6120216020830184611e1b565b9392505050565b6000602082019050818103600083015261204181611a0f565b9050919050565b6000602082019050818103600083015261206181611a4f565b9050919050565b6000602082019050818103600083015261208181611ab5565b9050919050565b600060208201905081810360008301526120a181611b1b565b9050919050565b600060208201905081810360008301526120c181611b5b565b9050919050565b600060208201905081810360008301526120e181611b9b565b9050919050565b6000602082019050818103600083015261210181611bdb565b9050919050565b6000602082019050818103600083015261212181611c1b565b9050919050565b6000602082019050818103600083015261214181611c5b565b9050919050565b6000602082019050818103600083015261216181611c9b565b9050919050565b6000602082019050818103600083015261218181611cdb565b9050919050565b600060208201905081810360008301526121a181611d1b565b9050919050565b600060208201905081810360008301526121c181611d5b565b9050919050565b600060208201905081810360008301526121e181611d9b565b9050919050565b6000602082019050818103600083015261220181611ddb565b9050919050565b600060208201905061221d6000830184611e1b565b92915050565b60006040820190506122386000830185611e1b565b6122456020830184611974565b9392505050565b60006040820190506122616000830185611e1b565b61226e6020830184611a00565b9392505050565b600081519050919050565b600081905092915050565b600082825260208201905092915050565b60006122a7826122e3565b9050919050565b60006122b9826122e3565b9050919050565b60008115159050919050565b6000819050919050565b60008160000b9050919050565b600073ffffffffffffffffffffffffffffffffffffffff82169050919050565b6000819050919050565b600060ff82169050919050565b60006123258261232c565b9050919050565b60006123378261233e565b9050919050565b6000612349826122e3565b9050919050565b60005b8381101561236e578082015181840152602081019050612353565b8381111561237d576000848401525b50505050565b600061238e8261239f565b9050919050565b6000819050919050565b60006123aa826123da565b9050919050565b6000819050919050565b60006123c6826123cd565b9050919050565b60008160f81b9050919050565b60008160601b9050919050565b6123f08161229c565b81146123fb57600080fd5b50565b612407816122ae565b811461241257600080fd5b50565b61241e816122c0565b811461242957600080fd5b50565b612435816122cc565b811461244057600080fd5b50565b61244c816122d6565b811461245757600080fd5b50565b61246381612303565b811461246e57600080fd5b50565b61247a8161230d565b811461248557600080fd5b5056fea2646970667358221220cb181d723e5246f3a40d7192a0c9b548ad7bb7977379bfc44c7206ade0546a8264736f6c63430008000033",
  "linkReferences": {},
  "deployedLinkReferences": {}
}