{
  "_format": "hh-sol-artifact-1",
  "contractName": "LighthouseNft",
  "sourceName": "contracts/LighthouseNft.sol",
  "abi": [
    {
      "inputs": [],
      "stateMutability": "nonpayable",
      "type": "constructor"
    },
    {
      "anonymous": false,
      "inputs": [
        {
          "indexed": true,
          "internalType": "address",
          "name": "owner",
          "type": "address"
        },
        {
          "indexed": true,
          "internalType": "address",
          "name": "approved",
          "type": "address"
        },
        {
          "indexed": true,
          "internalType": "uint256",
          "name": "tokenId",
          "type": "uint256"
        }
      ],
      "name": "Approval",
      "type": "event"
    },
    {
      "anonymous": false,
      "inputs": [
        {
          "indexed": true,
          "internalType": "address",
          "name": "owner",
          "type": "address"
        },
        {
          "indexed": true,
          "internalType": "address",
          "name": "operator",
          "type": "address"
        },
        {
          "indexed": false,
          "internalType": "bool",
          "name": "approved",
          "type": "bool"
        }
      ],
      "name": "ApprovalForAll",
      "type": "event"
    },
    {
      "anonymous": false,
      "inputs": [
        {
          "indexed": true,
          "internalType": "address",
          "name": "owner",
          "type": "address"
        },
        {
          "indexed": true,
          "internalType": "uint256",
          "name": "id",
          "type": "uint256"
        },
        {
          "indexed": false,
          "internalType": "uint256",
          "name": "allocation",
          "type": "uint256"
        },
        {
          "indexed": false,
          "internalType": "uint256",
          "name": "compensation",
          "type": "uint256"
        },
        {
          "indexed": false,
          "internalType": "int8",
          "name": "tier",
          "type": "int8"
        },
        {
          "indexed": false,
          "internalType": "uint8",
          "name": "mintType",
          "type": "uint8"
        },
        {
          "indexed": false,
          "internalType": "uint256",
          "name": "projectId",
          "type": "uint256"
        }
      ],
      "name": "Minted",
      "type": "event"
    },
    {
      "anonymous": false,
      "inputs": [
        {
          "indexed": true,
          "internalType": "address",
          "name": "previousOwner",
          "type": "address"
        },
        {
          "indexed": true,
          "internalType": "address",
          "name": "newOwner",
          "type": "address"
        }
      ],
      "name": "OwnershipTransferred",
      "type": "event"
    },
    {
      "anonymous": false,
      "inputs": [
        {
          "indexed": true,
          "internalType": "address",
          "name": "from",
          "type": "address"
        },
        {
          "indexed": true,
          "internalType": "address",
          "name": "to",
          "type": "address"
        },
        {
          "indexed": true,
          "internalType": "uint256",
          "name": "tokenId",
          "type": "uint256"
        }
      ],
      "name": "Transfer",
      "type": "event"
    },
    {
      "inputs": [
        {
          "internalType": "address",
          "name": "to",
          "type": "address"
        },
        {
          "internalType": "uint256",
          "name": "tokenId",
          "type": "uint256"
        }
      ],
      "name": "approve",
      "outputs": [],
      "stateMutability": "nonpayable",
      "type": "function"
    },
    {
      "inputs": [
        {
          "internalType": "address",
          "name": "owner",
          "type": "address"
        }
      ],
      "name": "balanceOf",
      "outputs": [
        {
          "internalType": "uint256",
          "name": "",
          "type": "uint256"
        }
      ],
      "stateMutability": "view",
      "type": "function"
    },
    {
      "inputs": [
        {
          "internalType": "uint256",
          "name": "tokenId",
          "type": "uint256"
        }
      ],
      "name": "burn",
      "outputs": [],
      "stateMutability": "nonpayable",
      "type": "function"
    },
    {
      "inputs": [
        {
          "internalType": "uint256",
          "name": "nftId",
          "type": "uint256"
        }
      ],
      "name": "getAllocation",
      "outputs": [
        {
          "internalType": "uint256",
          "name": "",
          "type": "uint256"
        }
      ],
      "stateMutability": "view",
      "type": "function"
    },
    {
      "inputs": [
        {
          "internalType": "uint256",
          "name": "tokenId",
          "type": "uint256"
        }
      ],
      "name": "getApproved",
      "outputs": [
        {
          "internalType": "address",
          "name": "",
          "type": "address"
        }
      ],
      "stateMutability": "view",
      "type": "function"
    },
    {
      "inputs": [
        {
          "internalType": "uint256",
          "name": "nftId",
          "type": "uint256"
        }
      ],
      "name": "getCompensation",
      "outputs": [
        {
          "internalType": "uint256",
          "name": "",
          "type": "uint256"
        }
      ],
      "stateMutability": "view",
      "type": "function"
    },
    {
      "inputs": [
        {
          "internalType": "address",
          "name": "owner",
          "type": "address"
        },
        {
          "internalType": "address",
          "name": "operator",
          "type": "address"
        }
      ],
      "name": "isApprovedForAll",
      "outputs": [
        {
          "internalType": "bool",
          "name": "",
          "type": "bool"
        }
      ],
      "stateMutability": "view",
      "type": "function"
    },
    {
      "inputs": [
        {
          "internalType": "address",
          "name": "_to",
          "type": "address"
        },
        {
          "internalType": "uint256",
          "name": "_allocation",
          "type": "uint256"
        },
        {
          "internalType": "uint256",
          "name": "_compensation",
          "type": "uint256"
        },
        {
          "internalType": "int8",
          "name": "_tier",
          "type": "int8"
        },
        {
          "internalType": "uint8",
          "name": "_type",
          "type": "uint8"
        },
        {
          "internalType": "uint256",
          "name": "_projectId",
          "type": "uint256"
        }
      ],
      "name": "mint",
      "outputs": [
        {
          "internalType": "uint256",
          "name": "",
          "type": "uint256"
        }
      ],
      "stateMutability": "nonpayable",
      "type": "function"
    },
    {
      "inputs": [
        {
          "internalType": "address",
          "name": "",
          "type": "address"
        }
      ],
      "name": "minters",
      "outputs": [
        {
          "internalType": "bool",
          "name": "",
          "type": "bool"
        }
      ],
      "stateMutability": "view",
      "type": "function"
    },
    {
      "inputs": [],
      "name": "name",
      "outputs": [
        {
          "internalType": "string",
          "name": "",
          "type": "string"
        }
      ],
      "stateMutability": "view",
      "type": "function"
    },
    {
      "inputs": [],
      "name": "owner",
      "outputs": [
        {
          "internalType": "address",
          "name": "",
          "type": "address"
        }
      ],
      "stateMutability": "view",
      "type": "function"
    },
    {
      "inputs": [
        {
          "internalType": "uint256",
          "name": "tokenId",
          "type": "uint256"
        }
      ],
      "name": "ownerOf",
      "outputs": [
        {
          "internalType": "address",
          "name": "",
          "type": "address"
        }
      ],
      "stateMutability": "view",
      "type": "function"
    },
    {
      "inputs": [
        {
          "internalType": "uint256",
          "name": "",
          "type": "uint256"
        }
      ],
      "name": "paramsOf",
      "outputs": [
        {
          "internalType": "uint256",
          "name": "allocation",
          "type": "uint256"
        },
        {
          "internalType": "uint256",
          "name": "compensation",
          "type": "uint256"
        },
        {
          "internalType": "int8",
          "name": "tier",
          "type": "int8"
        },
        {
          "internalType": "uint8",
          "name": "mintType",
          "type": "uint8"
        }
      ],
      "stateMutability": "view",
      "type": "function"
    },
    {
      "inputs": [],
      "name": "projectId",
      "outputs": [
        {
          "internalType": "uint256",
          "name": "",
          "type": "uint256"
        }
      ],
      "stateMutability": "view",
      "type": "function"
    },
    {
      "inputs": [],
      "name": "renounceOwnership",
      "outputs": [],
      "stateMutability": "nonpayable",
      "type": "function"
    },
    {
      "inputs": [
        {
          "internalType": "address",
          "name": "from",
          "type": "address"
        },
        {
          "internalType": "address",
          "name": "to",
          "type": "address"
        },
        {
          "internalType": "uint256",
          "name": "tokenId",
          "type": "uint256"
        }
      ],
      "name": "safeTransferFrom",
      "outputs": [],
      "stateMutability": "nonpayable",
      "type": "function"
    },
    {
      "inputs": [
        {
          "internalType": "address",
          "name": "from",
          "type": "address"
        },
        {
          "internalType": "address",
          "name": "to",
          "type": "address"
        },
        {
          "internalType": "uint256",
          "name": "tokenId",
          "type": "uint256"
        },
        {
          "internalType": "bytes",
          "name": "_data",
          "type": "bytes"
        }
      ],
      "name": "safeTransferFrom",
      "outputs": [],
      "stateMutability": "nonpayable",
      "type": "function"
    },
    {
      "inputs": [
        {
          "internalType": "address",
          "name": "operator",
          "type": "address"
        },
        {
          "internalType": "bool",
          "name": "approved",
          "type": "bool"
        }
      ],
      "name": "setApprovalForAll",
      "outputs": [],
      "stateMutability": "nonpayable",
      "type": "function"
    },
    {
      "inputs": [
        {
          "internalType": "string",
          "name": "baseURI_",
          "type": "string"
        }
      ],
      "name": "setBaseURI",
      "outputs": [],
      "stateMutability": "nonpayable",
      "type": "function"
    },
    {
      "inputs": [
        {
          "internalType": "address",
          "name": "_minter",
          "type": "address"
        }
      ],
      "name": "setMinter",
      "outputs": [],
      "stateMutability": "nonpayable",
      "type": "function"
    },
    {
      "inputs": [
        {
          "internalType": "address",
          "name": "_owner",
          "type": "address"
        }
      ],
      "name": "setOwner",
      "outputs": [],
      "stateMutability": "nonpayable",
      "type": "function"
    },
    {
      "inputs": [
        {
          "internalType": "bytes4",
          "name": "interfaceId",
          "type": "bytes4"
        }
      ],
      "name": "supportsInterface",
      "outputs": [
        {
          "internalType": "bool",
          "name": "",
          "type": "bool"
        }
      ],
      "stateMutability": "view",
      "type": "function"
    },
    {
      "inputs": [],
      "name": "symbol",
      "outputs": [
        {
          "internalType": "string",
          "name": "",
          "type": "string"
        }
      ],
      "stateMutability": "view",
      "type": "function"
    },
    {
      "inputs": [
        {
          "internalType": "uint256",
          "name": "tokenId",
          "type": "uint256"
        }
      ],
      "name": "tokenURI",
      "outputs": [
        {
          "internalType": "string",
          "name": "",
          "type": "string"
        }
      ],
      "stateMutability": "view",
      "type": "function"
    },
    {
      "inputs": [
        {
          "internalType": "address",
          "name": "from",
          "type": "address"
        },
        {
          "internalType": "address",
          "name": "to",
          "type": "address"
        },
        {
          "internalType": "uint256",
          "name": "tokenId",
          "type": "uint256"
        }
      ],
      "name": "transferFrom",
      "outputs": [],
      "stateMutability": "nonpayable",
      "type": "function"
    },
    {
      "inputs": [
        {
          "internalType": "address",
          "name": "newOwner",
          "type": "address"
        }
      ],
      "name": "transferOwnership",
      "outputs": [],
      "stateMutability": "nonpayable",
      "type": "function"
    },
    {
      "inputs": [
        {
          "internalType": "address",
          "name": "_minter",
          "type": "address"
        }
      ],
      "name": "unsetMinter",
      "outputs": [],
      "stateMutability": "nonpayable",
      "type": "function"
    }
  ],
  "bytecode": "0x60806040523480156200001157600080fd5b506040518060400160405280600a81526020017f4c69676874686f757365000000000000000000000000000000000000000000008152506040518060400160405280600a81526020017f4c49474854484f55534500000000000000000000000000000000000000000000815250816000908051906020019062000096929190620001d3565b508060019080519060200190620000af929190620001d3565b505050620000d2620000c6620000ef60201b60201c565b620000f760201b60201c565b620000e96008620001bd60201b6200159c1760201c565b620002e8565b600033905090565b6000600660009054906101000a900473ffffffffffffffffffffffffffffffffffffffff16905081600660006101000a81548173ffffffffffffffffffffffffffffffffffffffff021916908373ffffffffffffffffffffffffffffffffffffffff1602179055508173ffffffffffffffffffffffffffffffffffffffff168173ffffffffffffffffffffffffffffffffffffffff167f8be0079c531659141344cd1fd0a4f28419497f9722a3daafe3b4186f6b6457e060405160405180910390a35050565b6001816000016000828254019250508190555050565b828054620001e19062000283565b90600052602060002090601f01602090048101928262000205576000855562000251565b82601f106200022057805160ff191683800117855562000251565b8280016001018555821562000251579182015b828111156200025057825182559160200191906001019062000233565b5b50905062000260919062000264565b5090565b5b808211156200027f57600081600090555060010162000265565b5090565b600060028204905060018216806200029c57607f821691505b60208210811415620002b357620002b2620002b9565b5b50919050565b7f4e487b7100000000000000000000000000000000000000000000000000000000600052602260045260246000fd5b61382080620002f86000396000f3fe608060405234801561001057600080fd5b50600436106101a95760003560e01c806370a08231116100f9578063a39bf78c11610097578063e985e9c511610071578063e985e9c5146104df578063f2fde38b1461050f578063f46eccc41461052b578063fca3b5aa1461055b576101a9565b8063a39bf78c14610460578063b88d4fde14610493578063c87b56dd146104af576101a9565b80638da5cb5b116100d35780638da5cb5b146103d85780638dbac30b146103f657806395d89b4114610426578063a22cb46514610444576101a9565b806370a0823114610382578063715018a6146103b257806371f2337e146103bc576101a9565b80633fafa12711610166578063434d382d11610140578063434d382d146102d657806355f804b3146103065780635a5804b3146103225780636352211e14610352576101a9565b80633fafa1271461028057806342842e0e1461029e57806342966c68146102ba576101a9565b806301ffc9a7146101ae57806306fdde03146101de578063081812fc146101fc578063095ea7b31461022c57806313af40351461024857806323b872dd14610264575b600080fd5b6101c860048036038101906101c3919061272f565b610577565b6040516101d59190613038565b60405180910390f35b6101e6610659565b6040516101f39190613053565b60405180910390f35b610216600480360381019061021191906127c2565b6106eb565b6040516102239190612fd1565b60405180910390f35b6102466004803603810190610241919061266a565b610770565b005b610262600480360381019061025d91906124ff565b610888565b005b61027e60048036038101906102799190612564565b610910565b005b610288610970565b60405161029591906132d5565b60405180910390f35b6102b860048036038101906102b39190612564565b610976565b005b6102d460048036038101906102cf91906127c2565b610996565b005b6102f060048036038101906102eb91906127c2565b6109f2565b6040516102fd91906132d5565b60405180910390f35b610320600480360381019061031b9190612781565b610a12565b005b61033c600480360381019061033791906127c2565b610aa8565b60405161034991906132d5565b60405180910390f35b61036c600480360381019061036791906127c2565b610ac8565b6040516103799190612fd1565b60405180910390f35b61039c600480360381019061039791906124ff565b610b7a565b6040516103a991906132d5565b60405180910390f35b6103ba610c32565b005b6103d660048036038101906103d191906124ff565b610cba565b005b6103e0610d91565b6040516103ed9190612fd1565b60405180910390f35b610410600480360381019061040b91906126a6565b610dbb565b60405161041d91906132d5565b60405180910390f35b61042e610fb3565b60405161043b9190613053565b60405180910390f35b61045e6004803603810190610459919061262e565b611045565b005b61047a600480360381019061047591906127c2565b6111c6565b60405161048a94939291906132f0565b60405180910390f35b6104ad60048036038101906104a891906125b3565b611210565b005b6104c960048036038101906104c491906127c2565b611272565b6040516104d69190613053565b60405180910390f35b6104f960048036038101906104f49190612528565b611319565b6040516105069190613038565b60405180910390f35b610529600480360381019061052491906124ff565b6113ad565b005b610545600480360381019061054091906124ff565b6114a5565b6040516105529190613038565b60405180910390f35b610575600480360381019061057091906124ff565b6114c5565b005b60007f80ac58cd000000000000000000000000000000000000000000000000000000007bffffffffffffffffffffffffffffffffffffffffffffffffffffffff1916827bffffffffffffffffffffffffffffffffffffffffffffffffffffffff1916148061064257507f5b5e139f000000000000000000000000000000000000000000000000000000007bffffffffffffffffffffffffffffffffffffffffffffffffffffffff1916827bffffffffffffffffffffffffffffffffffffffffffffffffffffffff1916145b806106525750610651826115b2565b5b9050919050565b606060008054610668906135e7565b80601f0160208091040260200160405190810160405280929190818152602001828054610694906135e7565b80156106e15780601f106106b6576101008083540402835291602001916106e1565b820191906000526020600020905b8154815290600101906020018083116106c457829003601f168201915b5050505050905090565b60006106f68261161c565b610735576040517f08c379a000000000000000000000000000000000000000000000000000000000815260040161072c906131f5565b60405180910390fd5b6004600083815260200190815260200160002060009054906101000a900473ffffffffffffffffffffffffffffffffffffffff169050919050565b600061077b82610ac8565b90508073ffffffffffffffffffffffffffffffffffffffff168373ffffffffffffffffffffffffffffffffffffffff1614156107ec576040517f08c379a00000000000000000000000000000000000000000000000000000000081526004016107e390613275565b60405180910390fd5b8073ffffffffffffffffffffffffffffffffffffffff1661080b611688565b73ffffffffffffffffffffffffffffffffffffffff16148061083a575061083981610834611688565b611319565b5b610879576040517f08c379a000000000000000000000000000000000000000000000000000000000815260040161087090613155565b60405180910390fd5b6108838383611690565b505050565b610890611688565b73ffffffffffffffffffffffffffffffffffffffff166108ae610d91565b73ffffffffffffffffffffffffffffffffffffffff1614610904576040517f08c379a00000000000000000000000000000000000000000000000000000000081526004016108fb90613215565b60405180910390fd5b61090d816113ad565b50565b61092161091b611688565b82611749565b610960576040517f08c379a000000000000000000000000000000000000000000000000000000000815260040161095790613295565b60405180910390fd5b61096b838383611827565b505050565b60095481565b61099183838360405180602001604052806000815250611210565b505050565b6109a76109a1611688565b82611749565b6109e6576040517f08c379a00000000000000000000000000000000000000000000000000000000081526004016109dd906132b5565b60405180910390fd5b6109ef81611a83565b50565b6000600b6000838152602001908152602001600020600101549050919050565b610a1a611688565b73ffffffffffffffffffffffffffffffffffffffff16610a38610d91565b73ffffffffffffffffffffffffffffffffffffffff1614610a8e576040517f08c379a0000000000000000000000000000000000000000000000000000000008152600401610a8590613215565b60405180910390fd5b8060079080519060200190610aa49291906122f9565b5050565b6000600b6000838152602001908152602001600020600001549050919050565b6000806002600084815260200190815260200160002060009054906101000a900473ffffffffffffffffffffffffffffffffffffffff169050600073ffffffffffffffffffffffffffffffffffffffff168173ffffffffffffffffffffffffffffffffffffffff161415610b71576040517f08c379a0000000000000000000000000000000000000000000000000000000008152600401610b6890613195565b60405180910390fd5b80915050919050565b60008073ffffffffffffffffffffffffffffffffffffffff168273ffffffffffffffffffffffffffffffffffffffff161415610beb576040517f08c379a0000000000000000000000000000000000000000000000000000000008152600401610be290613175565b60405180910390fd5b600360008373ffffffffffffffffffffffffffffffffffffffff1673ffffffffffffffffffffffffffffffffffffffff168152602001908152602001600020549050919050565b610c3a611688565b73ffffffffffffffffffffffffffffffffffffffff16610c58610d91565b73ffffffffffffffffffffffffffffffffffffffff1614610cae576040517f08c379a0000000000000000000000000000000000000000000000000000000008152600401610ca590613215565b60405180910390fd5b610cb86000611b94565b565b610cc2611688565b73ffffffffffffffffffffffffffffffffffffffff16610ce0610d91565b73ffffffffffffffffffffffffffffffffffffffff1614610d36576040517f08c379a0000000000000000000000000000000000000000000000000000000008152600401610d2d90613215565b60405180910390fd5b6000600a60008373ffffffffffffffffffffffffffffffffffffffff1673ffffffffffffffffffffffffffffffffffffffff16815260200190815260200160002060006101000a81548160ff02191690831515021790555050565b6000600660009054906101000a900473ffffffffffffffffffffffffffffffffffffffff16905090565b6000600a6000610dc9611688565b73ffffffffffffffffffffffffffffffffffffffff1673ffffffffffffffffffffffffffffffffffffffff16815260200190815260200160002060009054906101000a900460ff16610e50576040517f08c379a0000000000000000000000000000000000000000000000000000000008152600401610e47906131b5565b60405180910390fd5b6009548214610e94576040517f08c379a0000000000000000000000000000000000000000000000000000000008152600401610e8b90613115565b60405180910390fd5b6000610ea06008611c5a565b9050610eac8882611c68565b60405180608001604052808881526020018781526020018660000b81526020018560ff16815250600b6000838152602001908152602001600020600082015181600001556020820151816001015560408201518160020160006101000a81548160ff021916908360000b60ff16021790555060608201518160020160016101000a81548160ff021916908360ff160217905550905050610f4c600861159c565b808873ffffffffffffffffffffffffffffffffffffffff167f12037fe5dc79c60c9a1ae2607ce17ee8840855d888571f99bc0b178a9d1f1e2b89898989600954604051610f9d959493929190613335565b60405180910390a3809150509695505050505050565b606060018054610fc2906135e7565b80601f0160208091040260200160405190810160405280929190818152602001828054610fee906135e7565b801561103b5780601f106110105761010080835404028352916020019161103b565b820191906000526020600020905b81548152906001019060200180831161101e57829003601f168201915b5050505050905090565b61104d611688565b73ffffffffffffffffffffffffffffffffffffffff168273ffffffffffffffffffffffffffffffffffffffff1614156110bb576040517f08c379a00000000000000000000000000000000000000000000000000000000081526004016110b2906130f5565b60405180910390fd5b80600560006110c8611688565b73ffffffffffffffffffffffffffffffffffffffff1673ffffffffffffffffffffffffffffffffffffffff16815260200190815260200160002060008473ffffffffffffffffffffffffffffffffffffffff1673ffffffffffffffffffffffffffffffffffffffff16815260200190815260200160002060006101000a81548160ff0219169083151502179055508173ffffffffffffffffffffffffffffffffffffffff16611175611688565b73ffffffffffffffffffffffffffffffffffffffff167f17307eab39ab6107e8899845ad3d59bd9653f200f220920489ca2b5937696c31836040516111ba9190613038565b60405180910390a35050565b600b6020528060005260406000206000915090508060000154908060010154908060020160009054906101000a900460000b908060020160019054906101000a900460ff16905084565b61122161121b611688565b83611749565b611260576040517f08c379a000000000000000000000000000000000000000000000000000000000815260040161125790613295565b60405180910390fd5b61126c84848484611c86565b50505050565b606061127d8261161c565b6112bc576040517f08c379a00000000000000000000000000000000000000000000000000000000081526004016112b390613255565b60405180910390fd5b60006112c6611ce2565b905060008151116112e65760405180602001604052806000815250611311565b806112f084611d74565b604051602001611301929190612fad565b6040516020818303038152906040525b915050919050565b6000600560008473ffffffffffffffffffffffffffffffffffffffff1673ffffffffffffffffffffffffffffffffffffffff16815260200190815260200160002060008373ffffffffffffffffffffffffffffffffffffffff1673ffffffffffffffffffffffffffffffffffffffff16815260200190815260200160002060009054906101000a900460ff16905092915050565b6113b5611688565b73ffffffffffffffffffffffffffffffffffffffff166113d3610d91565b73ffffffffffffffffffffffffffffffffffffffff1614611429576040517f08c379a000000000000000000000000000000000000000000000000000000000815260040161142090613215565b60405180910390fd5b600073ffffffffffffffffffffffffffffffffffffffff168173ffffffffffffffffffffffffffffffffffffffff161415611499576040517f08c379a000000000000000000000000000000000000000000000000000000000815260040161149090613095565b60405180910390fd5b6114a281611b94565b50565b600a6020528060005260406000206000915054906101000a900460ff1681565b6114cd611688565b73ffffffffffffffffffffffffffffffffffffffff166114eb610d91565b73ffffffffffffffffffffffffffffffffffffffff1614611541576040517f08c379a000000000000000000000000000000000000000000000000000000000815260040161153890613215565b60405180910390fd5b6001600a60008373ffffffffffffffffffffffffffffffffffffffff1673ffffffffffffffffffffffffffffffffffffffff16815260200190815260200160002060006101000a81548160ff02191690831515021790555050565b6001816000016000828254019250508190555050565b60007f01ffc9a7000000000000000000000000000000000000000000000000000000007bffffffffffffffffffffffffffffffffffffffffffffffffffffffff1916827bffffffffffffffffffffffffffffffffffffffffffffffffffffffff1916149050919050565b60008073ffffffffffffffffffffffffffffffffffffffff166002600084815260200190815260200160002060009054906101000a900473ffffffffffffffffffffffffffffffffffffffff1673ffffffffffffffffffffffffffffffffffffffff1614159050919050565b600033905090565b816004600083815260200190815260200160002060006101000a81548173ffffffffffffffffffffffffffffffffffffffff021916908373ffffffffffffffffffffffffffffffffffffffff160217905550808273ffffffffffffffffffffffffffffffffffffffff1661170383610ac8565b73ffffffffffffffffffffffffffffffffffffffff167f8c5be1e5ebec7d5bd14f71427d1e84f3dd0314c0f7b2291e5b200ac8c7c3b92560405160405180910390a45050565b60006117548261161c565b611793576040517f08c379a000000000000000000000000000000000000000000000000000000000815260040161178a90613135565b60405180910390fd5b600061179e83610ac8565b90508073ffffffffffffffffffffffffffffffffffffffff168473ffffffffffffffffffffffffffffffffffffffff16148061180d57508373ffffffffffffffffffffffffffffffffffffffff166117f5846106eb565b73ffffffffffffffffffffffffffffffffffffffff16145b8061181e575061181d8185611319565b5b91505092915050565b8273ffffffffffffffffffffffffffffffffffffffff1661184782610ac8565b73ffffffffffffffffffffffffffffffffffffffff161461189d576040517f08c379a000000000000000000000000000000000000000000000000000000000815260040161189490613235565b60405180910390fd5b600073ffffffffffffffffffffffffffffffffffffffff168273ffffffffffffffffffffffffffffffffffffffff16141561190d576040517f08c379a0000000000000000000000000000000000000000000000000000000008152600401611904906130d5565b60405180910390fd5b611918838383611f21565b611923600082611690565b6001600360008573ffffffffffffffffffffffffffffffffffffffff1673ffffffffffffffffffffffffffffffffffffffff168152602001908152602001600020600082825461197391906134e3565b925050819055506001600360008473ffffffffffffffffffffffffffffffffffffffff1673ffffffffffffffffffffffffffffffffffffffff16815260200190815260200160002060008282546119ca919061345c565b92505081905550816002600083815260200190815260200160002060006101000a81548173ffffffffffffffffffffffffffffffffffffffff021916908373ffffffffffffffffffffffffffffffffffffffff160217905550808273ffffffffffffffffffffffffffffffffffffffff168473ffffffffffffffffffffffffffffffffffffffff167fddf252ad1be2c89b69c2b068fc378daa952ba7f163c4a11628f55a4df523b3ef60405160405180910390a4505050565b6000611a8e82610ac8565b9050611a9c81600084611f21565b611aa7600083611690565b6001600360008373ffffffffffffffffffffffffffffffffffffffff1673ffffffffffffffffffffffffffffffffffffffff1681526020019081526020016000206000828254611af791906134e3565b925050819055506002600083815260200190815260200160002060006101000a81549073ffffffffffffffffffffffffffffffffffffffff021916905581600073ffffffffffffffffffffffffffffffffffffffff168273ffffffffffffffffffffffffffffffffffffffff167fddf252ad1be2c89b69c2b068fc378daa952ba7f163c4a11628f55a4df523b3ef60405160405180910390a45050565b6000600660009054906101000a900473ffffffffffffffffffffffffffffffffffffffff16905081600660006101000a81548173ffffffffffffffffffffffffffffffffffffffff021916908373ffffffffffffffffffffffffffffffffffffffff1602179055508173ffffffffffffffffffffffffffffffffffffffff168173ffffffffffffffffffffffffffffffffffffffff167f8be0079c531659141344cd1fd0a4f28419497f9722a3daafe3b4186f6b6457e060405160405180910390a35050565b600081600001549050919050565b611c82828260405180602001604052806000815250611f26565b5050565b611c91848484611827565b611c9d84848484611f81565b611cdc576040517f08c379a0000000000000000000000000000000000000000000000000000000008152600401611cd390613075565b60405180910390fd5b50505050565b606060078054611cf1906135e7565b80601f0160208091040260200160405190810160405280929190818152602001828054611d1d906135e7565b8015611d6a5780601f10611d3f57610100808354040283529160200191611d6a565b820191906000526020600020905b815481529060010190602001808311611d4d57829003601f168201915b5050505050905090565b60606000821415611dbc576040518060400160405280600181526020017f30000000000000000000000000000000000000000000000000000000000000008152509050611f1c565b600082905060005b60008214611dee578080611dd790613619565b915050600a82611de791906134b2565b9150611dc4565b60008167ffffffffffffffff811115611e30577f4e487b7100000000000000000000000000000000000000000000000000000000600052604160045260246000fd5b6040519080825280601f01601f191660200182016040528015611e625781602001600182028036833780820191505090505b5090505b60008514611f1557600182611e7b91906134e3565b9150600a85611e8a9190613662565b6030611e96919061345c565b60f81b818381518110611ed2577f4e487b7100000000000000000000000000000000000000000000000000000000600052603260045260246000fd5b60200101907effffffffffffffffffffffffffffffffffffffffffffffffffffffffffffff1916908160001a905350600a85611f0e91906134b2565b9450611e66565b8093505050505b919050565b505050565b611f308383612118565b611f3d6000848484611f81565b611f7c576040517f08c379a0000000000000000000000000000000000000000000000000000000008152600401611f7390613075565b60405180910390fd5b505050565b6000611fa28473ffffffffffffffffffffffffffffffffffffffff166122e6565b1561210b578373ffffffffffffffffffffffffffffffffffffffff1663150b7a02611fcb611688565b8786866040518563ffffffff1660e01b8152600401611fed9493929190612fec565b602060405180830381600087803b15801561200757600080fd5b505af192505050801561203857506040513d601f19601f820116820180604052508101906120359190612758565b60015b6120bb573d8060008114612068576040519150601f19603f3d011682016040523d82523d6000602084013e61206d565b606091505b506000815114156120b3576040517f08c379a00000000000000000000000000000000000000000000000000000000081526004016120aa90613075565b60405180910390fd5b805181602001fd5b63150b7a0260e01b7bffffffffffffffffffffffffffffffffffffffffffffffffffffffff1916817bffffffffffffffffffffffffffffffffffffffffffffffffffffffff191614915050612110565b600190505b949350505050565b600073ffffffffffffffffffffffffffffffffffffffff168273ffffffffffffffffffffffffffffffffffffffff161415612188576040517f08c379a000000000000000000000000000000000000000000000000000000000815260040161217f906131d5565b60405180910390fd5b6121918161161c565b156121d1576040517f08c379a00000000000000000000000000000000000000000000000000000000081526004016121c8906130b5565b60405180910390fd5b6121dd60008383611f21565b6001600360008473ffffffffffffffffffffffffffffffffffffffff1673ffffffffffffffffffffffffffffffffffffffff168152602001908152602001600020600082825461222d919061345c565b92505081905550816002600083815260200190815260200160002060006101000a81548173ffffffffffffffffffffffffffffffffffffffff021916908373ffffffffffffffffffffffffffffffffffffffff160217905550808273ffffffffffffffffffffffffffffffffffffffff16600073ffffffffffffffffffffffffffffffffffffffff167fddf252ad1be2c89b69c2b068fc378daa952ba7f163c4a11628f55a4df523b3ef60405160405180910390a45050565b600080823b905060008111915050919050565b828054612305906135e7565b90600052602060002090601f016020900481019282612327576000855561236e565b82601f1061234057805160ff191683800117855561236e565b8280016001018555821561236e579182015b8281111561236d578251825591602001919060010190612352565b5b50905061237b919061237f565b5090565b5b80821115612398576000816000905550600101612380565b5090565b60006123af6123aa846133b9565b613388565b9050828152602081018484840111156123c757600080fd5b6123d28482856135a5565b509392505050565b60006123ed6123e8846133e9565b613388565b90508281526020810184848401111561240557600080fd5b6124108482856135a5565b509392505050565b60008135905061242781613760565b92915050565b60008135905061243c81613777565b92915050565b6000813590506124518161378e565b92915050565b6000815190506124668161378e565b92915050565b600082601f83011261247d57600080fd5b813561248d84826020860161239c565b91505092915050565b6000813590506124a5816137a5565b92915050565b600082601f8301126124bc57600080fd5b81356124cc8482602086016123da565b91505092915050565b6000813590506124e4816137bc565b92915050565b6000813590506124f9816137d3565b92915050565b60006020828403121561251157600080fd5b600061251f84828501612418565b91505092915050565b6000806040838503121561253b57600080fd5b600061254985828601612418565b925050602061255a85828601612418565b9150509250929050565b60008060006060848603121561257957600080fd5b600061258786828701612418565b935050602061259886828701612418565b92505060406125a9868287016124d5565b9150509250925092565b600080600080608085870312156125c957600080fd5b60006125d787828801612418565b94505060206125e887828801612418565b93505060406125f9878288016124d5565b925050606085013567ffffffffffffffff81111561261657600080fd5b6126228782880161246c565b91505092959194509250565b6000806040838503121561264157600080fd5b600061264f85828601612418565b92505060206126608582860161242d565b9150509250929050565b6000806040838503121561267d57600080fd5b600061268b85828601612418565b925050602061269c858286016124d5565b9150509250929050565b60008060008060008060c087890312156126bf57600080fd5b60006126cd89828a01612418565b96505060206126de89828a016124d5565b95505060406126ef89828a016124d5565b945050606061270089828a01612496565b935050608061271189828a016124ea565b92505060a061272289828a016124d5565b9150509295509295509295565b60006020828403121561274157600080fd5b600061274f84828501612442565b91505092915050565b60006020828403121561276a57600080fd5b600061277884828501612457565b91505092915050565b60006020828403121561279357600080fd5b600082013567ffffffffffffffff8111156127ad57600080fd5b6127b9848285016124ab565b91505092915050565b6000602082840312156127d457600080fd5b60006127e2848285016124d5565b91505092915050565b6127f481613517565b82525050565b61280381613529565b82525050565b600061281482613419565b61281e818561342f565b935061282e8185602086016135b4565b6128378161374f565b840191505092915050565b61284b81613561565b82525050565b600061285c82613424565b6128668185613440565b93506128768185602086016135b4565b61287f8161374f565b840191505092915050565b600061289582613424565b61289f8185613451565b93506128af8185602086016135b4565b80840191505092915050565b60006128c8603283613440565b91507f4552433732313a207472616e7366657220746f206e6f6e20455243373231526560008301527f63656976657220696d706c656d656e74657200000000000000000000000000006020830152604082019050919050565b600061292e602683613440565b91507f4f776e61626c653a206e6577206f776e657220697320746865207a65726f206160008301527f64647265737300000000000000000000000000000000000000000000000000006020830152604082019050919050565b6000612994601c83613440565b91507f4552433732313a20746f6b656e20616c7265616479206d696e746564000000006000830152602082019050919050565b60006129d4602483613440565b91507f4552433732313a207472616e7366657220746f20746865207a65726f2061646460008301527f72657373000000000000000000000000000000000000000000000000000000006020830152604082019050919050565b6000612a3a601983613440565b91507f4552433732313a20617070726f766520746f2063616c6c6572000000000000006000830152602082019050919050565b6000612a7a601f83613440565b91507f4c69676874686f7573653a2050524f4a4543545f49445f4d49534d41544348006000830152602082019050919050565b6000612aba602c83613440565b91507f4552433732313a206f70657261746f7220717565727920666f72206e6f6e657860008301527f697374656e7420746f6b656e00000000000000000000000000000000000000006020830152604082019050919050565b6000612b20603883613440565b91507f4552433732313a20617070726f76652063616c6c6572206973206e6f74206f7760008301527f6e6572206e6f7220617070726f76656420666f7220616c6c00000000000000006020830152604082019050919050565b6000612b86602a83613440565b91507f4552433732313a2062616c616e636520717565727920666f7220746865207a6560008301527f726f2061646472657373000000000000000000000000000000000000000000006020830152604082019050919050565b6000612bec602983613440565b91507f4552433732313a206f776e657220717565727920666f72206e6f6e657869737460008301527f656e7420746f6b656e00000000000000000000000000000000000000000000006020830152604082019050919050565b6000612c52603283613440565b91507f5365617363617065204e46543a204f6e6c79204e465420466163746f7279206360008301527f616e2063616c6c20746865206d6574686f6400000000000000000000000000006020830152604082019050919050565b6000612cb8602083613440565b91507f4552433732313a206d696e7420746f20746865207a65726f20616464726573736000830152602082019050919050565b6000612cf8602c83613440565b91507f4552433732313a20617070726f76656420717565727920666f72206e6f6e657860008301527f697374656e7420746f6b656e00000000000000000000000000000000000000006020830152604082019050919050565b6000612d5e602083613440565b91507f4f776e61626c653a2063616c6c6572206973206e6f7420746865206f776e65726000830152602082019050919050565b6000612d9e602983613440565b91507f4552433732313a207472616e73666572206f6620746f6b656e2074686174206960008301527f73206e6f74206f776e00000000000000000000000000000000000000000000006020830152604082019050919050565b6000612e04602f83613440565b91507f4552433732314d657461646174613a2055524920717565727920666f72206e6f60008301527f6e6578697374656e7420746f6b656e00000000000000000000000000000000006020830152604082019050919050565b6000612e6a602183613440565b91507f4552433732313a20617070726f76616c20746f2063757272656e74206f776e6560008301527f72000000000000000000000000000000000000000000000000000000000000006020830152604082019050919050565b6000612ed0603183613440565b91507f4552433732313a207472616e736665722063616c6c6572206973206e6f74206f60008301527f776e6572206e6f7220617070726f7665640000000000000000000000000000006020830152604082019050919050565b6000612f36603083613440565b91507f4552433732314275726e61626c653a2063616c6c6572206973206e6f74206f7760008301527f6e6572206e6f7220617070726f766564000000000000000000000000000000006020830152604082019050919050565b612f988161358e565b82525050565b612fa781613598565b82525050565b6000612fb9828561288a565b9150612fc5828461288a565b91508190509392505050565b6000602082019050612fe660008301846127eb565b92915050565b600060808201905061300160008301876127eb565b61300e60208301866127eb565b61301b6040830185612f8f565b818103606083015261302d8184612809565b905095945050505050565b600060208201905061304d60008301846127fa565b92915050565b6000602082019050818103600083015261306d8184612851565b905092915050565b6000602082019050818103600083015261308e816128bb565b9050919050565b600060208201905081810360008301526130ae81612921565b9050919050565b600060208201905081810360008301526130ce81612987565b9050919050565b600060208201905081810360008301526130ee816129c7565b9050919050565b6000602082019050818103600083015261310e81612a2d565b9050919050565b6000602082019050818103600083015261312e81612a6d565b9050919050565b6000602082019050818103600083015261314e81612aad565b9050919050565b6000602082019050818103600083015261316e81612b13565b9050919050565b6000602082019050818103600083015261318e81612b79565b9050919050565b600060208201905081810360008301526131ae81612bdf565b9050919050565b600060208201905081810360008301526131ce81612c45565b9050919050565b600060208201905081810360008301526131ee81612cab565b9050919050565b6000602082019050818103600083015261320e81612ceb565b9050919050565b6000602082019050818103600083015261322e81612d51565b9050919050565b6000602082019050818103600083015261324e81612d91565b9050919050565b6000602082019050818103600083015261326e81612df7565b9050919050565b6000602082019050818103600083015261328e81612e5d565b9050919050565b600060208201905081810360008301526132ae81612ec3565b9050919050565b600060208201905081810360008301526132ce81612f29565b9050919050565b60006020820190506132ea6000830184612f8f565b92915050565b60006080820190506133056000830187612f8f565b6133126020830186612f8f565b61331f6040830185612842565b61332c6060830184612f9e565b95945050505050565b600060a08201905061334a6000830188612f8f565b6133576020830187612f8f565b6133646040830186612842565b6133716060830185612f9e565b61337e6080830184612f8f565b9695505050505050565b6000604051905081810181811067ffffffffffffffff821117156133af576133ae613720565b5b8060405250919050565b600067ffffffffffffffff8211156133d4576133d3613720565b5b601f19601f8301169050602081019050919050565b600067ffffffffffffffff82111561340457613403613720565b5b601f19601f8301169050602081019050919050565b600081519050919050565b600081519050919050565b600082825260208201905092915050565b600082825260208201905092915050565b600081905092915050565b60006134678261358e565b91506134728361358e565b9250827fffffffffffffffffffffffffffffffffffffffffffffffffffffffffffffffff038211156134a7576134a6613693565b5b828201905092915050565b60006134bd8261358e565b91506134c88361358e565b9250826134d8576134d76136c2565b5b828204905092915050565b60006134ee8261358e565b91506134f98361358e565b92508282101561350c5761350b613693565b5b828203905092915050565b60006135228261356e565b9050919050565b60008115159050919050565b60007fffffffff0000000000000000000000000000000000000000000000000000000082169050919050565b60008160000b9050919050565b600073ffffffffffffffffffffffffffffffffffffffff82169050919050565b6000819050919050565b600060ff82169050919050565b82818337600083830152505050565b60005b838110156135d25780820151818401526020810190506135b7565b838111156135e1576000848401525b50505050565b600060028204905060018216806135ff57607f821691505b60208210811415613613576136126136f1565b5b50919050565b60006136248261358e565b91507fffffffffffffffffffffffffffffffffffffffffffffffffffffffffffffffff82141561365757613656613693565b5b600182019050919050565b600061366d8261358e565b91506136788361358e565b925082613688576136876136c2565b5b828206905092915050565b7f4e487b7100000000000000000000000000000000000000000000000000000000600052601160045260246000fd5b7f4e487b7100000000000000000000000000000000000000000000000000000000600052601260045260246000fd5b7f4e487b7100000000000000000000000000000000000000000000000000000000600052602260045260246000fd5b7f4e487b7100000000000000000000000000000000000000000000000000000000600052604160045260246000fd5b6000601f19601f8301169050919050565b61376981613517565b811461377457600080fd5b50565b61378081613529565b811461378b57600080fd5b50565b61379781613535565b81146137a257600080fd5b50565b6137ae81613561565b81146137b957600080fd5b50565b6137c58161358e565b81146137d057600080fd5b50565b6137dc81613598565b81146137e757600080fd5b5056fea2646970667358221220e67b6da9ab0b44df3e56ed05f497e9faadcafc91ae5d0d18b79abef0b398b0be64736f6c63430008000033",
  "linkReferences": {},
  "deployedLinkReferences": {}
}