{
  "_format": "hh-sol-artifact-1",
  "contractName": "LighthouseNft",
  "sourceName": "contracts/LighthouseNft.sol",
  "abi": [
    {
      "inputs": [
        {
          "internalType": "uint256",
          "name": "_projectId",
          "type": "uint256"
        },
        {
          "internalType": "string",
          "name": "nftName",
          "type": "string"
        },
        {
          "internalType": "string",
          "name": "nftSymbol",
          "type": "string"
        }
      ],
      "stateMutability": "nonpayable",
      "type": "constructor"
    },
    {
      "anonymous": false,
      "inputs": [
        {
          "indexed": true,
          "internalType": "address",
          "name": "owner",
          "type": "address"
        },
        {
          "indexed": true,
          "internalType": "address",
          "name": "approved",
          "type": "address"
        },
        {
          "indexed": true,
          "internalType": "uint256",
          "name": "tokenId",
          "type": "uint256"
        }
      ],
      "name": "Approval",
      "type": "event"
    },
    {
      "anonymous": false,
      "inputs": [
        {
          "indexed": true,
          "internalType": "address",
          "name": "owner",
          "type": "address"
        },
        {
          "indexed": true,
          "internalType": "address",
          "name": "operator",
          "type": "address"
        },
        {
          "indexed": false,
          "internalType": "bool",
          "name": "approved",
          "type": "bool"
        }
      ],
      "name": "ApprovalForAll",
      "type": "event"
    },
    {
      "anonymous": false,
      "inputs": [
        {
          "indexed": true,
          "internalType": "address",
          "name": "owner",
          "type": "address"
        },
        {
          "indexed": true,
          "internalType": "uint256",
          "name": "id",
          "type": "uint256"
        },
        {
          "indexed": false,
          "internalType": "uint256",
          "name": "allocation",
          "type": "uint256"
        },
        {
          "indexed": false,
          "internalType": "uint256",
          "name": "compensation",
          "type": "uint256"
        },
        {
          "indexed": false,
          "internalType": "int8",
          "name": "tier",
          "type": "int8"
        },
        {
          "indexed": false,
          "internalType": "uint8",
          "name": "mintType",
          "type": "uint8"
        },
        {
          "indexed": false,
          "internalType": "uint256",
          "name": "projectId",
          "type": "uint256"
        }
      ],
      "name": "Minted",
      "type": "event"
    },
    {
      "anonymous": false,
      "inputs": [
        {
          "indexed": true,
          "internalType": "address",
          "name": "previousOwner",
          "type": "address"
        },
        {
          "indexed": true,
          "internalType": "address",
          "name": "newOwner",
          "type": "address"
        }
      ],
      "name": "OwnershipTransferred",
      "type": "event"
    },
    {
      "anonymous": false,
      "inputs": [
        {
          "indexed": true,
          "internalType": "address",
          "name": "from",
          "type": "address"
        },
        {
          "indexed": true,
          "internalType": "address",
          "name": "to",
          "type": "address"
        },
        {
          "indexed": true,
          "internalType": "uint256",
          "name": "tokenId",
          "type": "uint256"
        }
      ],
      "name": "Transfer",
      "type": "event"
    },
    {
      "inputs": [
        {
          "internalType": "address",
          "name": "to",
          "type": "address"
        },
        {
          "internalType": "uint256",
          "name": "tokenId",
          "type": "uint256"
        }
      ],
      "name": "approve",
      "outputs": [],
      "stateMutability": "nonpayable",
      "type": "function"
    },
    {
      "inputs": [
        {
          "internalType": "address",
          "name": "owner",
          "type": "address"
        }
      ],
      "name": "balanceOf",
      "outputs": [
        {
          "internalType": "uint256",
          "name": "",
          "type": "uint256"
        }
      ],
      "stateMutability": "view",
      "type": "function"
    },
    {
      "inputs": [
        {
          "internalType": "uint256",
          "name": "id",
          "type": "uint256"
        }
      ],
      "name": "burn",
      "outputs": [],
      "stateMutability": "nonpayable",
      "type": "function"
    },
    {
      "inputs": [
        {
          "internalType": "address",
          "name": "",
          "type": "address"
        }
      ],
      "name": "burners",
      "outputs": [
        {
          "internalType": "bool",
          "name": "",
          "type": "bool"
        }
      ],
      "stateMutability": "view",
      "type": "function"
    },
    {
      "inputs": [
        {
          "internalType": "uint256",
          "name": "tokenId",
          "type": "uint256"
        }
      ],
      "name": "getApproved",
      "outputs": [
        {
          "internalType": "address",
          "name": "",
          "type": "address"
        }
      ],
      "stateMutability": "view",
      "type": "function"
    },
    {
      "inputs": [],
      "name": "getNextTokenId",
      "outputs": [
        {
          "internalType": "uint256",
          "name": "",
          "type": "uint256"
        }
      ],
      "stateMutability": "view",
      "type": "function"
    },
    {
      "inputs": [
        {
          "internalType": "address",
          "name": "owner",
          "type": "address"
        },
        {
          "internalType": "address",
          "name": "operator",
          "type": "address"
        }
      ],
      "name": "isApprovedForAll",
      "outputs": [
        {
          "internalType": "bool",
          "name": "",
          "type": "bool"
        }
      ],
      "stateMutability": "view",
      "type": "function"
    },
    {
      "inputs": [
        {
          "internalType": "uint256",
          "name": "_projectId",
          "type": "uint256"
        },
        {
          "internalType": "uint256",
          "name": "_tokenId",
          "type": "uint256"
        },
        {
          "internalType": "address",
          "name": "_to",
          "type": "address"
        },
        {
          "internalType": "uint256",
          "name": "_allocation",
          "type": "uint256"
        },
        {
          "internalType": "uint256",
          "name": "_compensation",
          "type": "uint256"
        },
        {
          "internalType": "int8",
          "name": "_tier",
          "type": "int8"
        },
        {
          "internalType": "uint8",
          "name": "_type",
          "type": "uint8"
        }
      ],
      "name": "mint",
      "outputs": [
        {
          "internalType": "bool",
          "name": "",
          "type": "bool"
        }
      ],
      "stateMutability": "nonpayable",
      "type": "function"
    },
    {
      "inputs": [
        {
          "internalType": "uint256",
          "name": "nftId",
          "type": "uint256"
        }
      ],
      "name": "mintType",
      "outputs": [
        {
          "internalType": "uint8",
          "name": "",
          "type": "uint8"
        }
      ],
      "stateMutability": "view",
      "type": "function"
    },
    {
      "inputs": [
        {
          "internalType": "address",
          "name": "",
          "type": "address"
        }
      ],
      "name": "minters",
      "outputs": [
        {
          "internalType": "bool",
          "name": "",
          "type": "bool"
        }
      ],
      "stateMutability": "view",
      "type": "function"
    },
    {
      "inputs": [],
      "name": "name",
      "outputs": [
        {
          "internalType": "string",
          "name": "",
          "type": "string"
        }
      ],
      "stateMutability": "view",
      "type": "function"
    },
    {
      "inputs": [],
      "name": "owner",
      "outputs": [
        {
          "internalType": "address",
          "name": "",
          "type": "address"
        }
      ],
      "stateMutability": "view",
      "type": "function"
    },
    {
      "inputs": [
        {
          "internalType": "uint256",
          "name": "tokenId",
          "type": "uint256"
        }
      ],
      "name": "ownerOf",
      "outputs": [
        {
          "internalType": "address",
          "name": "",
          "type": "address"
        }
      ],
      "stateMutability": "view",
      "type": "function"
    },
    {
      "inputs": [
        {
          "internalType": "uint256",
          "name": "",
          "type": "uint256"
        }
      ],
      "name": "paramsOf",
      "outputs": [
        {
          "internalType": "uint256",
          "name": "scaledAllocation",
          "type": "uint256"
        },
        {
          "internalType": "uint256",
          "name": "scaledCompensation",
          "type": "uint256"
        },
        {
          "internalType": "int8",
          "name": "tier",
          "type": "int8"
        },
        {
          "internalType": "uint8",
          "name": "mintType",
          "type": "uint8"
        }
      ],
      "stateMutability": "view",
      "type": "function"
    },
    {
      "inputs": [],
      "name": "projectId",
      "outputs": [
        {
          "internalType": "uint256",
          "name": "",
          "type": "uint256"
        }
      ],
      "stateMutability": "view",
      "type": "function"
    },
    {
      "inputs": [],
      "name": "renounceOwnership",
      "outputs": [],
      "stateMutability": "nonpayable",
      "type": "function"
    },
    {
      "inputs": [
        {
          "internalType": "address",
          "name": "from",
          "type": "address"
        },
        {
          "internalType": "address",
          "name": "to",
          "type": "address"
        },
        {
          "internalType": "uint256",
          "name": "tokenId",
          "type": "uint256"
        }
      ],
      "name": "safeTransferFrom",
      "outputs": [],
      "stateMutability": "nonpayable",
      "type": "function"
    },
    {
      "inputs": [
        {
          "internalType": "address",
          "name": "from",
          "type": "address"
        },
        {
          "internalType": "address",
          "name": "to",
          "type": "address"
        },
        {
          "internalType": "uint256",
          "name": "tokenId",
          "type": "uint256"
        },
        {
          "internalType": "bytes",
          "name": "_data",
          "type": "bytes"
        }
      ],
      "name": "safeTransferFrom",
      "outputs": [],
      "stateMutability": "nonpayable",
      "type": "function"
    },
    {
      "inputs": [
        {
          "internalType": "uint256",
          "name": "nftId",
          "type": "uint256"
        }
      ],
      "name": "scaledAllocation",
      "outputs": [
        {
          "internalType": "uint256",
          "name": "",
          "type": "uint256"
        }
      ],
      "stateMutability": "view",
      "type": "function"
    },
    {
      "inputs": [
        {
          "internalType": "uint256",
          "name": "nftId",
          "type": "uint256"
        }
      ],
      "name": "scaledCompensation",
      "outputs": [
        {
          "internalType": "uint256",
          "name": "",
          "type": "uint256"
        }
      ],
      "stateMutability": "view",
      "type": "function"
    },
    {
      "inputs": [
        {
          "internalType": "address",
          "name": "operator",
          "type": "address"
        },
        {
          "internalType": "bool",
          "name": "approved",
          "type": "bool"
        }
      ],
      "name": "setApprovalForAll",
      "outputs": [],
      "stateMutability": "nonpayable",
      "type": "function"
    },
    {
      "inputs": [
        {
          "internalType": "string",
          "name": "baseURI_",
          "type": "string"
        }
      ],
      "name": "setBaseURI",
      "outputs": [],
      "stateMutability": "nonpayable",
      "type": "function"
    },
    {
      "inputs": [
        {
          "internalType": "address",
          "name": "_burner",
          "type": "address"
        }
      ],
      "name": "setBurner",
      "outputs": [],
      "stateMutability": "nonpayable",
      "type": "function"
    },
    {
      "inputs": [
        {
          "internalType": "address",
          "name": "_minter",
          "type": "address"
        }
      ],
      "name": "setMinter",
      "outputs": [],
      "stateMutability": "nonpayable",
      "type": "function"
    },
    {
      "inputs": [
        {
          "internalType": "address",
          "name": "_owner",
          "type": "address"
        }
      ],
      "name": "setOwner",
      "outputs": [],
      "stateMutability": "nonpayable",
      "type": "function"
    },
    {
      "inputs": [
        {
          "internalType": "bytes4",
          "name": "interfaceId",
          "type": "bytes4"
        }
      ],
      "name": "supportsInterface",
      "outputs": [
        {
          "internalType": "bool",
          "name": "",
          "type": "bool"
        }
      ],
      "stateMutability": "view",
      "type": "function"
    },
    {
      "inputs": [],
      "name": "symbol",
      "outputs": [
        {
          "internalType": "string",
          "name": "",
          "type": "string"
        }
      ],
      "stateMutability": "view",
      "type": "function"
    },
    {
      "inputs": [
        {
          "internalType": "uint256",
          "name": "tokenId",
          "type": "uint256"
        }
      ],
      "name": "tokenURI",
      "outputs": [
        {
          "internalType": "string",
          "name": "",
          "type": "string"
        }
      ],
      "stateMutability": "view",
      "type": "function"
    },
    {
      "inputs": [
        {
          "internalType": "address",
          "name": "from",
          "type": "address"
        },
        {
          "internalType": "address",
          "name": "to",
          "type": "address"
        },
        {
          "internalType": "uint256",
          "name": "tokenId",
          "type": "uint256"
        }
      ],
      "name": "transferFrom",
      "outputs": [],
      "stateMutability": "nonpayable",
      "type": "function"
    },
    {
      "inputs": [
        {
          "internalType": "address",
          "name": "newOwner",
          "type": "address"
        }
      ],
      "name": "transferOwnership",
      "outputs": [],
      "stateMutability": "nonpayable",
      "type": "function"
    },
    {
      "inputs": [
        {
          "internalType": "address",
          "name": "_burner",
          "type": "address"
        }
      ],
      "name": "unsetBurner",
      "outputs": [],
      "stateMutability": "nonpayable",
      "type": "function"
    },
    {
      "inputs": [
        {
          "internalType": "address",
          "name": "_minter",
          "type": "address"
        }
      ],
      "name": "unsetMinter",
      "outputs": [],
      "stateMutability": "nonpayable",
      "type": "function"
    }
  ],
  "bytecode": "0x60806040523480156200001157600080fd5b506040516200424338038062004243833981810160405281019062000037919062000317565b8181816000908051906020019062000051929190620001de565b5080600190805190602001906200006a929190620001de565b5050506200008d62000081620000fa60201b60201c565b6200010260201b60201c565b60008311620000d3576040517f08c379a0000000000000000000000000000000000000000000000000000000008152600401620000ca90620003e1565b60405180910390fd5b620000ea6008620001c860201b6200197c1760201c565b8260098190555050505062000569565b600033905090565b6000600660009054906101000a900473ffffffffffffffffffffffffffffffffffffffff16905081600660006101000a81548173ffffffffffffffffffffffffffffffffffffffff021916908373ffffffffffffffffffffffffffffffffffffffff1602179055508173ffffffffffffffffffffffffffffffffffffffff168173ffffffffffffffffffffffffffffffffffffffff167f8be0079c531659141344cd1fd0a4f28419497f9722a3daafe3b4186f6b6457e060405160405180910390a35050565b6001816000016000828254019250508190555050565b828054620001ec90620004bb565b90600052602060002090601f0160209004810192826200021057600085556200025c565b82601f106200022b57805160ff19168380011785556200025c565b828001600101855582156200025c579182015b828111156200025b5782518255916020019190600101906200023e565b5b5090506200026b91906200026f565b5090565b5b808211156200028a57600081600090555060010162000270565b5090565b6000620002a56200029f8462000437565b62000403565b905082815260208101848484011115620002be57600080fd5b620002cb84828562000485565b509392505050565b600082601f830112620002e557600080fd5b8151620002f78482602086016200028e565b91505092915050565b60008151905062000311816200054f565b92915050565b6000806000606084860312156200032d57600080fd5b60006200033d8682870162000300565b935050602084015167ffffffffffffffff8111156200035b57600080fd5b6200036986828701620002d3565b925050604084015167ffffffffffffffff8111156200038757600080fd5b6200039586828701620002d3565b9150509250925092565b6000620003ae6016836200046a565b91507f4c69676874686f7573653a205a45524f5f56414c5545000000000000000000006000830152602082019050919050565b60006020820190508181036000830152620003fc816200039f565b9050919050565b6000604051905081810181811067ffffffffffffffff821117156200042d576200042c62000520565b5b8060405250919050565b600067ffffffffffffffff82111562000455576200045462000520565b5b601f19601f8301169050602081019050919050565b600082825260208201905092915050565b6000819050919050565b60005b83811015620004a557808201518184015260208101905062000488565b83811115620004b5576000848401525b50505050565b60006002820490506001821680620004d457607f821691505b60208210811415620004eb57620004ea620004f1565b5b50919050565b7f4e487b7100000000000000000000000000000000000000000000000000000000600052602260045260246000fd5b7f4e487b7100000000000000000000000000000000000000000000000000000000600052604160045260246000fd5b6200055a816200047b565b81146200056657600080fd5b50565b613cca80620005796000396000f3fe608060405234801561001057600080fd5b50600436106101f05760003560e01c80638da5cb5b1161010f578063b88d4fde116100a2578063eb7f143811610071578063eb7f1438146105f0578063f2fde38b1461060c578063f46eccc414610628578063fca3b5aa14610658576101f0565b8063b88d4fde14610556578063c87b56dd14610572578063caa0f92a146105a2578063e985e9c5146105c0576101f0565b80639ab8ee15116100de5780639ab8ee15146104bb578063a22cb465146104eb578063a39bf78c14610507578063a996d6ce1461053a576101f0565b80638da5cb5b1461041f57806395d89b411461043d57806396f537111461045b578063989981d71461048b576101f0565b806342842e0e116101875780636352211e116101565780636352211e1461039957806370a08231146103c9578063715018a6146103f957806371f2337e14610403576101f0565b806342842e0e1461031557806342966c681461033157806353f036c71461034d57806355f804b31461037d576101f0565b8063095ea7b3116101c3578063095ea7b3146102a357806313af4035146102bf57806323b872dd146102db5780633fafa127146102f7576101f0565b806301ffc9a7146101f557806303d41e0e1461022557806306fdde0314610255578063081812fc14610273575b600080fd5b61020f600480360381019061020a9190612a86565b610674565b60405161021c9190613487565b60405180910390f35b61023f600480360381019061023a91906128df565b610756565b60405161024c9190613487565b60405180910390f35b61025d610776565b60405161026a91906134a2565b60405180910390f35b61028d60048036038101906102889190612b19565b610808565b60405161029a9190613420565b60405180910390f35b6102bd60048036038101906102b89190612a4a565b61088d565b005b6102d960048036038101906102d491906128df565b6109a5565b005b6102f560048036038101906102f09190612944565b610a2d565b005b6102ff610a8d565b60405161030c9190613764565b60405180910390f35b61032f600480360381019061032a9190612944565b610a93565b005b61034b60048036038101906103469190612b19565b610ab3565b005b61036760048036038101906103629190612b42565b610ba2565b6040516103749190613487565b60405180910390f35b61039760048036038101906103929190612ad8565b610dde565b005b6103b360048036038101906103ae9190612b19565b610e74565b6040516103c09190613420565b60405180910390f35b6103e360048036038101906103de91906128df565b610f26565b6040516103f09190613764565b60405180910390f35b610401610fde565b005b61041d600480360381019061041891906128df565b611066565b005b61042761113d565b6040516104349190613420565b60405180910390f35b610445611167565b60405161045291906134a2565b60405180910390f35b61047560048036038101906104709190612b19565b6111f9565b6040516104829190613764565b60405180910390f35b6104a560048036038101906104a09190612b19565b611219565b6040516104b29190613817565b60405180910390f35b6104d560048036038101906104d09190612b19565b611246565b6040516104e29190613764565b60405180910390f35b61050560048036038101906105009190612a0e565b611266565b005b610521600480360381019061051c9190612b19565b6113e7565b604051610531949392919061377f565b60405180910390f35b610554600480360381019061054f91906128df565b611431565b005b610570600480360381019061056b9190612993565b611508565b005b61058c60048036038101906105879190612b19565b61156a565b60405161059991906134a2565b60405180910390f35b6105aa611611565b6040516105b79190613764565b60405180910390f35b6105da60048036038101906105d59190612908565b611622565b6040516105e79190613487565b60405180910390f35b61060a600480360381019061060591906128df565b6116b6565b005b610626600480360381019061062191906128df565b61178d565b005b610642600480360381019061063d91906128df565b611885565b60405161064f9190613487565b60405180910390f35b610672600480360381019061066d91906128df565b6118a5565b005b60007f80ac58cd000000000000000000000000000000000000000000000000000000007bffffffffffffffffffffffffffffffffffffffffffffffffffffffff1916827bffffffffffffffffffffffffffffffffffffffffffffffffffffffff1916148061073f57507f5b5e139f000000000000000000000000000000000000000000000000000000007bffffffffffffffffffffffffffffffffffffffffffffffffffffffff1916827bffffffffffffffffffffffffffffffffffffffffffffffffffffffff1916145b8061074f575061074e82611992565b5b9050919050565b600b6020528060005260406000206000915054906101000a900460ff1681565b60606000805461078590613a91565b80601f01602080910402602001604051908101604052809291908181526020018280546107b190613a91565b80156107fe5780601f106107d3576101008083540402835291602001916107fe565b820191906000526020600020905b8154815290600101906020018083116107e157829003601f168201915b5050505050905090565b6000610813826119fc565b610852576040517f08c379a000000000000000000000000000000000000000000000000000000000815260040161084990613664565b60405180910390fd5b6004600083815260200190815260200160002060009054906101000a900473ffffffffffffffffffffffffffffffffffffffff169050919050565b600061089882610e74565b90508073ffffffffffffffffffffffffffffffffffffffff168373ffffffffffffffffffffffffffffffffffffffff161415610909576040517f08c379a0000000000000000000000000000000000000000000000000000000008152600401610900906136e4565b60405180910390fd5b8073ffffffffffffffffffffffffffffffffffffffff16610928611a68565b73ffffffffffffffffffffffffffffffffffffffff161480610957575061095681610951611a68565b611622565b5b610996576040517f08c379a000000000000000000000000000000000000000000000000000000000815260040161098d906135e4565b60405180910390fd5b6109a08383611a70565b505050565b6109ad611a68565b73ffffffffffffffffffffffffffffffffffffffff166109cb61113d565b73ffffffffffffffffffffffffffffffffffffffff1614610a21576040517f08c379a0000000000000000000000000000000000000000000000000000000008152600401610a1890613684565b60405180910390fd5b610a2a8161178d565b50565b610a3e610a38611a68565b82611b29565b610a7d576040517f08c379a0000000000000000000000000000000000000000000000000000000008152600401610a7490613704565b60405180910390fd5b610a88838383611c07565b505050565b60095481565b610aae83838360405180602001604052806000815250611508565b505050565b600b6000610abf611a68565b73ffffffffffffffffffffffffffffffffffffffff1673ffffffffffffffffffffffffffffffffffffffff16815260200190815260200160002060009054906101000a900460ff16610b46576040517f08c379a0000000000000000000000000000000000000000000000000000000008152600401610b3d90613724565b60405180910390fd5b610b57610b51611a68565b82611b29565b610b96576040517f08c379a0000000000000000000000000000000000000000000000000000000008152600401610b8d90613744565b60405180910390fd5b610b9f81611e63565b50565b6000600a6000610bb0611a68565b73ffffffffffffffffffffffffffffffffffffffff1673ffffffffffffffffffffffffffffffffffffffff16815260200190815260200160002060009054906101000a900460ff16610c37576040517f08c379a0000000000000000000000000000000000000000000000000000000008152600401610c2e90613544565b60405180910390fd5b6009548814610c7b576040517f08c379a0000000000000000000000000000000000000000000000000000000008152600401610c72906135a4565b60405180910390fd5b6000610c876008611f74565b9050808814610ccb576040517f08c379a0000000000000000000000000000000000000000000000000000000008152600401610cc290613504565b60405180910390fd5b610cd58789611f82565b60405180608001604052808781526020018681526020018560000b81526020018460ff16815250600c60008a8152602001908152602001600020600082015181600001556020820151816001015560408201518160020160006101000a81548160ff021916908360000b60ff16021790555060608201518160020160016101000a81548160ff021916908360ff160217905550905050610d75600861197c565b878773ffffffffffffffffffffffffffffffffffffffff167f12037fe5dc79c60c9a1ae2607ce17ee8840855d888571f99bc0b178a9d1f1e2b88888888600954604051610dc69594939291906137c4565b60405180910390a36001915050979650505050505050565b610de6611a68565b73ffffffffffffffffffffffffffffffffffffffff16610e0461113d565b73ffffffffffffffffffffffffffffffffffffffff1614610e5a576040517f08c379a0000000000000000000000000000000000000000000000000000000008152600401610e5190613684565b60405180910390fd5b8060079080519060200190610e709291906126d9565b5050565b6000806002600084815260200190815260200160002060009054906101000a900473ffffffffffffffffffffffffffffffffffffffff169050600073ffffffffffffffffffffffffffffffffffffffff168173ffffffffffffffffffffffffffffffffffffffff161415610f1d576040517f08c379a0000000000000000000000000000000000000000000000000000000008152600401610f1490613624565b60405180910390fd5b80915050919050565b60008073ffffffffffffffffffffffffffffffffffffffff168273ffffffffffffffffffffffffffffffffffffffff161415610f97576040517f08c379a0000000000000000000000000000000000000000000000000000000008152600401610f8e90613604565b60405180910390fd5b600360008373ffffffffffffffffffffffffffffffffffffffff1673ffffffffffffffffffffffffffffffffffffffff168152602001908152602001600020549050919050565b610fe6611a68565b73ffffffffffffffffffffffffffffffffffffffff1661100461113d565b73ffffffffffffffffffffffffffffffffffffffff161461105a576040517f08c379a000000000000000000000000000000000000000000000000000000000815260040161105190613684565b60405180910390fd5b6110646000611fa0565b565b61106e611a68565b73ffffffffffffffffffffffffffffffffffffffff1661108c61113d565b73ffffffffffffffffffffffffffffffffffffffff16146110e2576040517f08c379a00000000000000000000000000000000000000000000000000000000081526004016110d990613684565b60405180910390fd5b6000600a60008373ffffffffffffffffffffffffffffffffffffffff1673ffffffffffffffffffffffffffffffffffffffff16815260200190815260200160002060006101000a81548160ff02191690831515021790555050565b6000600660009054906101000a900473ffffffffffffffffffffffffffffffffffffffff16905090565b60606001805461117690613a91565b80601f01602080910402602001604051908101604052809291908181526020018280546111a290613a91565b80156111ef5780601f106111c4576101008083540402835291602001916111ef565b820191906000526020600020905b8154815290600101906020018083116111d257829003601f168201915b5050505050905090565b6000600c6000838152602001908152602001600020600101549050919050565b6000600c600083815260200190815260200160002060020160019054906101000a900460ff169050919050565b6000600c6000838152602001908152602001600020600001549050919050565b61126e611a68565b73ffffffffffffffffffffffffffffffffffffffff168273ffffffffffffffffffffffffffffffffffffffff1614156112dc576040517f08c379a00000000000000000000000000000000000000000000000000000000081526004016112d390613584565b60405180910390fd5b80600560006112e9611a68565b73ffffffffffffffffffffffffffffffffffffffff1673ffffffffffffffffffffffffffffffffffffffff16815260200190815260200160002060008473ffffffffffffffffffffffffffffffffffffffff1673ffffffffffffffffffffffffffffffffffffffff16815260200190815260200160002060006101000a81548160ff0219169083151502179055508173ffffffffffffffffffffffffffffffffffffffff16611396611a68565b73ffffffffffffffffffffffffffffffffffffffff167f17307eab39ab6107e8899845ad3d59bd9653f200f220920489ca2b5937696c31836040516113db9190613487565b60405180910390a35050565b600c6020528060005260406000206000915090508060000154908060010154908060020160009054906101000a900460000b908060020160019054906101000a900460ff16905084565b611439611a68565b73ffffffffffffffffffffffffffffffffffffffff1661145761113d565b73ffffffffffffffffffffffffffffffffffffffff16146114ad576040517f08c379a00000000000000000000000000000000000000000000000000000000081526004016114a490613684565b60405180910390fd5b6001600b60008373ffffffffffffffffffffffffffffffffffffffff1673ffffffffffffffffffffffffffffffffffffffff16815260200190815260200160002060006101000a81548160ff02191690831515021790555050565b611519611513611a68565b83611b29565b611558576040517f08c379a000000000000000000000000000000000000000000000000000000000815260040161154f90613704565b60405180910390fd5b61156484848484612066565b50505050565b6060611575826119fc565b6115b4576040517f08c379a00000000000000000000000000000000000000000000000000000000081526004016115ab906136c4565b60405180910390fd5b60006115be6120c2565b905060008151116115de5760405180602001604052806000815250611609565b806115e884612154565b6040516020016115f99291906133fc565b6040516020818303038152906040525b915050919050565b600061161d6008611f74565b905090565b6000600560008473ffffffffffffffffffffffffffffffffffffffff1673ffffffffffffffffffffffffffffffffffffffff16815260200190815260200160002060008373ffffffffffffffffffffffffffffffffffffffff1673ffffffffffffffffffffffffffffffffffffffff16815260200190815260200160002060009054906101000a900460ff16905092915050565b6116be611a68565b73ffffffffffffffffffffffffffffffffffffffff166116dc61113d565b73ffffffffffffffffffffffffffffffffffffffff1614611732576040517f08c379a000000000000000000000000000000000000000000000000000000000815260040161172990613684565b60405180910390fd5b6000600b60008373ffffffffffffffffffffffffffffffffffffffff1673ffffffffffffffffffffffffffffffffffffffff16815260200190815260200160002060006101000a81548160ff02191690831515021790555050565b611795611a68565b73ffffffffffffffffffffffffffffffffffffffff166117b361113d565b73ffffffffffffffffffffffffffffffffffffffff1614611809576040517f08c379a000000000000000000000000000000000000000000000000000000000815260040161180090613684565b60405180910390fd5b600073ffffffffffffffffffffffffffffffffffffffff168173ffffffffffffffffffffffffffffffffffffffff161415611879576040517f08c379a0000000000000000000000000000000000000000000000000000000008152600401611870906134e4565b60405180910390fd5b61188281611fa0565b50565b600a6020528060005260406000206000915054906101000a900460ff1681565b6118ad611a68565b73ffffffffffffffffffffffffffffffffffffffff166118cb61113d565b73ffffffffffffffffffffffffffffffffffffffff1614611921576040517f08c379a000000000000000000000000000000000000000000000000000000000815260040161191890613684565b60405180910390fd5b6001600a60008373ffffffffffffffffffffffffffffffffffffffff1673ffffffffffffffffffffffffffffffffffffffff16815260200190815260200160002060006101000a81548160ff02191690831515021790555050565b6001816000016000828254019250508190555050565b60007f01ffc9a7000000000000000000000000000000000000000000000000000000007bffffffffffffffffffffffffffffffffffffffffffffffffffffffff1916827bffffffffffffffffffffffffffffffffffffffffffffffffffffffff1916149050919050565b60008073ffffffffffffffffffffffffffffffffffffffff166002600084815260200190815260200160002060009054906101000a900473ffffffffffffffffffffffffffffffffffffffff1673ffffffffffffffffffffffffffffffffffffffff1614159050919050565b600033905090565b816004600083815260200190815260200160002060006101000a81548173ffffffffffffffffffffffffffffffffffffffff021916908373ffffffffffffffffffffffffffffffffffffffff160217905550808273ffffffffffffffffffffffffffffffffffffffff16611ae383610e74565b73ffffffffffffffffffffffffffffffffffffffff167f8c5be1e5ebec7d5bd14f71427d1e84f3dd0314c0f7b2291e5b200ac8c7c3b92560405160405180910390a45050565b6000611b34826119fc565b611b73576040517f08c379a0000000000000000000000000000000000000000000000000000000008152600401611b6a906135c4565b60405180910390fd5b6000611b7e83610e74565b90508073ffffffffffffffffffffffffffffffffffffffff168473ffffffffffffffffffffffffffffffffffffffff161480611bed57508373ffffffffffffffffffffffffffffffffffffffff16611bd584610808565b73ffffffffffffffffffffffffffffffffffffffff16145b80611bfe5750611bfd8185611622565b5b91505092915050565b8273ffffffffffffffffffffffffffffffffffffffff16611c2782610e74565b73ffffffffffffffffffffffffffffffffffffffff1614611c7d576040517f08c379a0000000000000000000000000000000000000000000000000000000008152600401611c74906136a4565b60405180910390fd5b600073ffffffffffffffffffffffffffffffffffffffff168273ffffffffffffffffffffffffffffffffffffffff161415611ced576040517f08c379a0000000000000000000000000000000000000000000000000000000008152600401611ce490613564565b60405180910390fd5b611cf8838383612301565b611d03600082611a70565b6001600360008573ffffffffffffffffffffffffffffffffffffffff1673ffffffffffffffffffffffffffffffffffffffff1681526020019081526020016000206000828254611d53919061398d565b925050819055506001600360008473ffffffffffffffffffffffffffffffffffffffff1673ffffffffffffffffffffffffffffffffffffffff1681526020019081526020016000206000828254611daa9190613906565b92505081905550816002600083815260200190815260200160002060006101000a81548173ffffffffffffffffffffffffffffffffffffffff021916908373ffffffffffffffffffffffffffffffffffffffff160217905550808273ffffffffffffffffffffffffffffffffffffffff168473ffffffffffffffffffffffffffffffffffffffff167fddf252ad1be2c89b69c2b068fc378daa952ba7f163c4a11628f55a4df523b3ef60405160405180910390a4505050565b6000611e6e82610e74565b9050611e7c81600084612301565b611e87600083611a70565b6001600360008373ffffffffffffffffffffffffffffffffffffffff1673ffffffffffffffffffffffffffffffffffffffff1681526020019081526020016000206000828254611ed7919061398d565b925050819055506002600083815260200190815260200160002060006101000a81549073ffffffffffffffffffffffffffffffffffffffff021916905581600073ffffffffffffffffffffffffffffffffffffffff168273ffffffffffffffffffffffffffffffffffffffff167fddf252ad1be2c89b69c2b068fc378daa952ba7f163c4a11628f55a4df523b3ef60405160405180910390a45050565b600081600001549050919050565b611f9c828260405180602001604052806000815250612306565b5050565b6000600660009054906101000a900473ffffffffffffffffffffffffffffffffffffffff16905081600660006101000a81548173ffffffffffffffffffffffffffffffffffffffff021916908373ffffffffffffffffffffffffffffffffffffffff1602179055508173ffffffffffffffffffffffffffffffffffffffff168173ffffffffffffffffffffffffffffffffffffffff167f8be0079c531659141344cd1fd0a4f28419497f9722a3daafe3b4186f6b6457e060405160405180910390a35050565b612071848484611c07565b61207d84848484612361565b6120bc576040517f08c379a00000000000000000000000000000000000000000000000000000000081526004016120b3906134c4565b60405180910390fd5b50505050565b6060600780546120d190613a91565b80601f01602080910402602001604051908101604052809291908181526020018280546120fd90613a91565b801561214a5780601f1061211f5761010080835404028352916020019161214a565b820191906000526020600020905b81548152906001019060200180831161212d57829003601f168201915b5050505050905090565b6060600082141561219c576040518060400160405280600181526020017f300000000000000000000000000000000000000000000000000000000000000081525090506122fc565b600082905060005b600082146121ce5780806121b790613ac3565b915050600a826121c7919061395c565b91506121a4565b60008167ffffffffffffffff811115612210577f4e487b7100000000000000000000000000000000000000000000000000000000600052604160045260246000fd5b6040519080825280601f01601f1916602001820160405280156122425781602001600182028036833780820191505090505b5090505b600085146122f55760018261225b919061398d565b9150600a8561226a9190613b0c565b60306122769190613906565b60f81b8183815181106122b2577f4e487b7100000000000000000000000000000000000000000000000000000000600052603260045260246000fd5b60200101907effffffffffffffffffffffffffffffffffffffffffffffffffffffffffffff1916908160001a905350600a856122ee919061395c565b9450612246565b8093505050505b919050565b505050565b61231083836124f8565b61231d6000848484612361565b61235c576040517f08c379a0000000000000000000000000000000000000000000000000000000008152600401612353906134c4565b60405180910390fd5b505050565b60006123828473ffffffffffffffffffffffffffffffffffffffff166126c6565b156124eb578373ffffffffffffffffffffffffffffffffffffffff1663150b7a026123ab611a68565b8786866040518563ffffffff1660e01b81526004016123cd949392919061343b565b602060405180830381600087803b1580156123e757600080fd5b505af192505050801561241857506040513d601f19601f820116820180604052508101906124159190612aaf565b60015b61249b573d8060008114612448576040519150601f19603f3d011682016040523d82523d6000602084013e61244d565b606091505b50600081511415612493576040517f08c379a000000000000000000000000000000000000000000000000000000000815260040161248a906134c4565b60405180910390fd5b805181602001fd5b63150b7a0260e01b7bffffffffffffffffffffffffffffffffffffffffffffffffffffffff1916817bffffffffffffffffffffffffffffffffffffffffffffffffffffffff1916149150506124f0565b600190505b949350505050565b600073ffffffffffffffffffffffffffffffffffffffff168273ffffffffffffffffffffffffffffffffffffffff161415612568576040517f08c379a000000000000000000000000000000000000000000000000000000000815260040161255f90613644565b60405180910390fd5b612571816119fc565b156125b1576040517f08c379a00000000000000000000000000000000000000000000000000000000081526004016125a890613524565b60405180910390fd5b6125bd60008383612301565b6001600360008473ffffffffffffffffffffffffffffffffffffffff1673ffffffffffffffffffffffffffffffffffffffff168152602001908152602001600020600082825461260d9190613906565b92505081905550816002600083815260200190815260200160002060006101000a81548173ffffffffffffffffffffffffffffffffffffffff021916908373ffffffffffffffffffffffffffffffffffffffff160217905550808273ffffffffffffffffffffffffffffffffffffffff16600073ffffffffffffffffffffffffffffffffffffffff167fddf252ad1be2c89b69c2b068fc378daa952ba7f163c4a11628f55a4df523b3ef60405160405180910390a45050565b600080823b905060008111915050919050565b8280546126e590613a91565b90600052602060002090601f016020900481019282612707576000855561274e565b82601f1061272057805160ff191683800117855561274e565b8280016001018555821561274e579182015b8281111561274d578251825591602001919060010190612732565b5b50905061275b919061275f565b5090565b5b80821115612778576000816000905550600101612760565b5090565b600061278f61278a84613863565b613832565b9050828152602081018484840111156127a757600080fd5b6127b2848285613a4f565b509392505050565b60006127cd6127c884613893565b613832565b9050828152602081018484840111156127e557600080fd5b6127f0848285613a4f565b509392505050565b60008135905061280781613c0a565b92915050565b60008135905061281c81613c21565b92915050565b60008135905061283181613c38565b92915050565b60008151905061284681613c38565b92915050565b600082601f83011261285d57600080fd5b813561286d84826020860161277c565b91505092915050565b60008135905061288581613c4f565b92915050565b600082601f83011261289c57600080fd5b81356128ac8482602086016127ba565b91505092915050565b6000813590506128c481613c66565b92915050565b6000813590506128d981613c7d565b92915050565b6000602082840312156128f157600080fd5b60006128ff848285016127f8565b91505092915050565b6000806040838503121561291b57600080fd5b6000612929858286016127f8565b925050602061293a858286016127f8565b9150509250929050565b60008060006060848603121561295957600080fd5b6000612967868287016127f8565b9350506020612978868287016127f8565b9250506040612989868287016128b5565b9150509250925092565b600080600080608085870312156129a957600080fd5b60006129b7878288016127f8565b94505060206129c8878288016127f8565b93505060406129d9878288016128b5565b925050606085013567ffffffffffffffff8111156129f657600080fd5b612a028782880161284c565b91505092959194509250565b60008060408385031215612a2157600080fd5b6000612a2f858286016127f8565b9250506020612a408582860161280d565b9150509250929050565b60008060408385031215612a5d57600080fd5b6000612a6b858286016127f8565b9250506020612a7c858286016128b5565b9150509250929050565b600060208284031215612a9857600080fd5b6000612aa684828501612822565b91505092915050565b600060208284031215612ac157600080fd5b6000612acf84828501612837565b91505092915050565b600060208284031215612aea57600080fd5b600082013567ffffffffffffffff811115612b0457600080fd5b612b108482850161288b565b91505092915050565b600060208284031215612b2b57600080fd5b6000612b39848285016128b5565b91505092915050565b600080600080600080600060e0888a031215612b5d57600080fd5b6000612b6b8a828b016128b5565b9750506020612b7c8a828b016128b5565b9650506040612b8d8a828b016127f8565b9550506060612b9e8a828b016128b5565b9450506080612baf8a828b016128b5565b93505060a0612bc08a828b01612876565b92505060c0612bd18a828b016128ca565b91505092959891949750929550565b612be9816139c1565b82525050565b612bf8816139d3565b82525050565b6000612c09826138c3565b612c1381856138d9565b9350612c23818560208601613a5e565b612c2c81613bf9565b840191505092915050565b612c4081613a0b565b82525050565b6000612c51826138ce565b612c5b81856138ea565b9350612c6b818560208601613a5e565b612c7481613bf9565b840191505092915050565b6000612c8a826138ce565b612c9481856138fb565b9350612ca4818560208601613a5e565b80840191505092915050565b6000612cbd6032836138ea565b91507f4552433732313a207472616e7366657220746f206e6f6e20455243373231526560008301527f63656976657220696d706c656d656e74657200000000000000000000000000006020830152604082019050919050565b6000612d236026836138ea565b91507f4f776e61626c653a206e6577206f776e657220697320746865207a65726f206160008301527f64647265737300000000000000000000000000000000000000000000000000006020830152604082019050919050565b6000612d89601c836138ea565b91507f4c69676874686f7573654e46543a20494e56414c49445f544f4b454e000000006000830152602082019050919050565b6000612dc9601c836138ea565b91507f4552433732313a20746f6b656e20616c7265616479206d696e746564000000006000830152602082019050919050565b6000612e096016836138ea565b91507f4c69676874686f7573653a204e4f545f4d494e544552000000000000000000006000830152602082019050919050565b6000612e496024836138ea565b91507f4552433732313a207472616e7366657220746f20746865207a65726f2061646460008301527f72657373000000000000000000000000000000000000000000000000000000006020830152604082019050919050565b6000612eaf6019836138ea565b91507f4552433732313a20617070726f766520746f2063616c6c6572000000000000006000830152602082019050919050565b6000612eef601f836138ea565b91507f4c69676874686f7573653a2050524f4a4543545f49445f4d49534d41544348006000830152602082019050919050565b6000612f2f602c836138ea565b91507f4552433732313a206f70657261746f7220717565727920666f72206e6f6e657860008301527f697374656e7420746f6b656e00000000000000000000000000000000000000006020830152604082019050919050565b6000612f956038836138ea565b91507f4552433732313a20617070726f76652063616c6c6572206973206e6f74206f7760008301527f6e6572206e6f7220617070726f76656420666f7220616c6c00000000000000006020830152604082019050919050565b6000612ffb602a836138ea565b91507f4552433732313a2062616c616e636520717565727920666f7220746865207a6560008301527f726f2061646472657373000000000000000000000000000000000000000000006020830152604082019050919050565b60006130616029836138ea565b91507f4552433732313a206f776e657220717565727920666f72206e6f6e657869737460008301527f656e7420746f6b656e00000000000000000000000000000000000000000000006020830152604082019050919050565b60006130c76020836138ea565b91507f4552433732313a206d696e7420746f20746865207a65726f20616464726573736000830152602082019050919050565b6000613107602c836138ea565b91507f4552433732313a20617070726f76656420717565727920666f72206e6f6e657860008301527f697374656e7420746f6b656e00000000000000000000000000000000000000006020830152604082019050919050565b600061316d6020836138ea565b91507f4f776e61626c653a2063616c6c6572206973206e6f7420746865206f776e65726000830152602082019050919050565b60006131ad6029836138ea565b91507f4552433732313a207472616e73666572206f6620746f6b656e2074686174206960008301527f73206e6f74206f776e00000000000000000000000000000000000000000000006020830152604082019050919050565b6000613213602f836138ea565b91507f4552433732314d657461646174613a2055524920717565727920666f72206e6f60008301527f6e6578697374656e7420746f6b656e00000000000000000000000000000000006020830152604082019050919050565b60006132796021836138ea565b91507f4552433732313a20617070726f76616c20746f2063757272656e74206f776e6560008301527f72000000000000000000000000000000000000000000000000000000000000006020830152604082019050919050565b60006132df6031836138ea565b91507f4552433732313a207472616e736665722063616c6c6572206973206e6f74206f60008301527f776e6572206e6f7220617070726f7665640000000000000000000000000000006020830152604082019050919050565b60006133456016836138ea565b91507f4c69676874686f7573653a204e4f545f4255524e4552000000000000000000006000830152602082019050919050565b60006133856030836138ea565b91507f4552433732314275726e61626c653a2063616c6c6572206973206e6f74206f7760008301527f6e6572206e6f7220617070726f766564000000000000000000000000000000006020830152604082019050919050565b6133e781613a38565b82525050565b6133f681613a42565b82525050565b60006134088285612c7f565b91506134148284612c7f565b91508190509392505050565b60006020820190506134356000830184612be0565b92915050565b60006080820190506134506000830187612be0565b61345d6020830186612be0565b61346a60408301856133de565b818103606083015261347c8184612bfe565b905095945050505050565b600060208201905061349c6000830184612bef565b92915050565b600060208201905081810360008301526134bc8184612c46565b905092915050565b600060208201905081810360008301526134dd81612cb0565b9050919050565b600060208201905081810360008301526134fd81612d16565b9050919050565b6000602082019050818103600083015261351d81612d7c565b9050919050565b6000602082019050818103600083015261353d81612dbc565b9050919050565b6000602082019050818103600083015261355d81612dfc565b9050919050565b6000602082019050818103600083015261357d81612e3c565b9050919050565b6000602082019050818103600083015261359d81612ea2565b9050919050565b600060208201905081810360008301526135bd81612ee2565b9050919050565b600060208201905081810360008301526135dd81612f22565b9050919050565b600060208201905081810360008301526135fd81612f88565b9050919050565b6000602082019050818103600083015261361d81612fee565b9050919050565b6000602082019050818103600083015261363d81613054565b9050919050565b6000602082019050818103600083015261365d816130ba565b9050919050565b6000602082019050818103600083015261367d816130fa565b9050919050565b6000602082019050818103600083015261369d81613160565b9050919050565b600060208201905081810360008301526136bd816131a0565b9050919050565b600060208201905081810360008301526136dd81613206565b9050919050565b600060208201905081810360008301526136fd8161326c565b9050919050565b6000602082019050818103600083015261371d816132d2565b9050919050565b6000602082019050818103600083015261373d81613338565b9050919050565b6000602082019050818103600083015261375d81613378565b9050919050565b600060208201905061377960008301846133de565b92915050565b600060808201905061379460008301876133de565b6137a160208301866133de565b6137ae6040830185612c37565b6137bb60608301846133ed565b95945050505050565b600060a0820190506137d960008301886133de565b6137e660208301876133de565b6137f36040830186612c37565b61380060608301856133ed565b61380d60808301846133de565b9695505050505050565b600060208201905061382c60008301846133ed565b92915050565b6000604051905081810181811067ffffffffffffffff8211171561385957613858613bca565b5b8060405250919050565b600067ffffffffffffffff82111561387e5761387d613bca565b5b601f19601f8301169050602081019050919050565b600067ffffffffffffffff8211156138ae576138ad613bca565b5b601f19601f8301169050602081019050919050565b600081519050919050565b600081519050919050565b600082825260208201905092915050565b600082825260208201905092915050565b600081905092915050565b600061391182613a38565b915061391c83613a38565b9250827fffffffffffffffffffffffffffffffffffffffffffffffffffffffffffffffff0382111561395157613950613b3d565b5b828201905092915050565b600061396782613a38565b915061397283613a38565b92508261398257613981613b6c565b5b828204905092915050565b600061399882613a38565b91506139a383613a38565b9250828210156139b6576139b5613b3d565b5b828203905092915050565b60006139cc82613a18565b9050919050565b60008115159050919050565b60007fffffffff0000000000000000000000000000000000000000000000000000000082169050919050565b60008160000b9050919050565b600073ffffffffffffffffffffffffffffffffffffffff82169050919050565b6000819050919050565b600060ff82169050919050565b82818337600083830152505050565b60005b83811015613a7c578082015181840152602081019050613a61565b83811115613a8b576000848401525b50505050565b60006002820490506001821680613aa957607f821691505b60208210811415613abd57613abc613b9b565b5b50919050565b6000613ace82613a38565b91507fffffffffffffffffffffffffffffffffffffffffffffffffffffffffffffffff821415613b0157613b00613b3d565b5b600182019050919050565b6000613b1782613a38565b9150613b2283613a38565b925082613b3257613b31613b6c565b5b828206905092915050565b7f4e487b7100000000000000000000000000000000000000000000000000000000600052601160045260246000fd5b7f4e487b7100000000000000000000000000000000000000000000000000000000600052601260045260246000fd5b7f4e487b7100000000000000000000000000000000000000000000000000000000600052602260045260246000fd5b7f4e487b7100000000000000000000000000000000000000000000000000000000600052604160045260246000fd5b6000601f19601f8301169050919050565b613c13816139c1565b8114613c1e57600080fd5b50565b613c2a816139d3565b8114613c3557600080fd5b50565b613c41816139df565b8114613c4c57600080fd5b50565b613c5881613a0b565b8114613c6357600080fd5b50565b613c6f81613a38565b8114613c7a57600080fd5b50565b613c8681613a42565b8114613c9157600080fd5b5056fea2646970667358221220e31261a24aecfada1dd0b6795e1ebd09408d9759b746382052aa7e022928597164736f6c63430008000033",
  "linkReferences": {},
  "deployedLinkReferences": {}
}