{
  "_format": "hh-sol-artifact-1",
  "contractName": "LighthouseNft",
  "sourceName": "contracts/LighthouseNft.sol",
  "abi": [
    {
      "inputs": [],
      "stateMutability": "nonpayable",
      "type": "constructor"
    },
    {
      "anonymous": false,
      "inputs": [
        {
          "indexed": true,
          "internalType": "address",
          "name": "owner",
          "type": "address"
        },
        {
          "indexed": true,
          "internalType": "address",
          "name": "approved",
          "type": "address"
        },
        {
          "indexed": true,
          "internalType": "uint256",
          "name": "tokenId",
          "type": "uint256"
        }
      ],
      "name": "Approval",
      "type": "event"
    },
    {
      "anonymous": false,
      "inputs": [
        {
          "indexed": true,
          "internalType": "address",
          "name": "owner",
          "type": "address"
        },
        {
          "indexed": true,
          "internalType": "address",
          "name": "operator",
          "type": "address"
        },
        {
          "indexed": false,
          "internalType": "bool",
          "name": "approved",
          "type": "bool"
        }
      ],
      "name": "ApprovalForAll",
      "type": "event"
    },
    {
      "anonymous": false,
      "inputs": [
        {
          "indexed": true,
          "internalType": "address",
          "name": "owner",
          "type": "address"
        },
        {
          "indexed": true,
          "internalType": "uint256",
          "name": "id",
          "type": "uint256"
        },
        {
          "indexed": false,
          "internalType": "uint256",
          "name": "allocation",
          "type": "uint256"
        },
        {
          "indexed": false,
          "internalType": "uint256",
          "name": "compensation",
          "type": "uint256"
        },
        {
          "indexed": false,
          "internalType": "int8",
          "name": "tier",
          "type": "int8"
        },
        {
          "indexed": false,
          "internalType": "uint8",
          "name": "mintType",
          "type": "uint8"
        },
        {
          "indexed": false,
          "internalType": "uint256",
          "name": "projectId",
          "type": "uint256"
        }
      ],
      "name": "Minted",
      "type": "event"
    },
    {
      "anonymous": false,
      "inputs": [
        {
          "indexed": true,
          "internalType": "address",
          "name": "previousOwner",
          "type": "address"
        },
        {
          "indexed": true,
          "internalType": "address",
          "name": "newOwner",
          "type": "address"
        }
      ],
      "name": "OwnershipTransferred",
      "type": "event"
    },
    {
      "anonymous": false,
      "inputs": [
        {
          "indexed": true,
          "internalType": "address",
          "name": "from",
          "type": "address"
        },
        {
          "indexed": true,
          "internalType": "address",
          "name": "to",
          "type": "address"
        },
        {
          "indexed": true,
          "internalType": "uint256",
          "name": "tokenId",
          "type": "uint256"
        }
      ],
      "name": "Transfer",
      "type": "event"
    },
    {
      "inputs": [
        {
          "internalType": "address",
          "name": "to",
          "type": "address"
        },
        {
          "internalType": "uint256",
          "name": "tokenId",
          "type": "uint256"
        }
      ],
      "name": "approve",
      "outputs": [],
      "stateMutability": "nonpayable",
      "type": "function"
    },
    {
      "inputs": [
        {
          "internalType": "address",
          "name": "owner",
          "type": "address"
        }
      ],
      "name": "balanceOf",
      "outputs": [
        {
          "internalType": "uint256",
          "name": "",
          "type": "uint256"
        }
      ],
      "stateMutability": "view",
      "type": "function"
    },
    {
      "inputs": [
        {
          "internalType": "uint256",
          "name": "tokenId",
          "type": "uint256"
        }
      ],
      "name": "burn",
      "outputs": [],
      "stateMutability": "nonpayable",
      "type": "function"
    },
    {
      "inputs": [
        {
          "internalType": "uint256",
          "name": "nftId",
          "type": "uint256"
        }
      ],
      "name": "getAllocation",
      "outputs": [
        {
          "internalType": "uint256",
          "name": "",
          "type": "uint256"
        }
      ],
      "stateMutability": "view",
      "type": "function"
    },
    {
      "inputs": [
        {
          "internalType": "uint256",
          "name": "tokenId",
          "type": "uint256"
        }
      ],
      "name": "getApproved",
      "outputs": [
        {
          "internalType": "address",
          "name": "",
          "type": "address"
        }
      ],
      "stateMutability": "view",
      "type": "function"
    },
    {
      "inputs": [
        {
          "internalType": "uint256",
          "name": "nftId",
          "type": "uint256"
        }
      ],
      "name": "getCompensation",
      "outputs": [
        {
          "internalType": "uint256",
          "name": "",
          "type": "uint256"
        }
      ],
      "stateMutability": "view",
      "type": "function"
    },
    {
      "inputs": [
        {
          "internalType": "address",
          "name": "owner",
          "type": "address"
        },
        {
          "internalType": "address",
          "name": "operator",
          "type": "address"
        }
      ],
      "name": "isApprovedForAll",
      "outputs": [
        {
          "internalType": "bool",
          "name": "",
          "type": "bool"
        }
      ],
      "stateMutability": "view",
      "type": "function"
    },
    {
      "inputs": [
        {
          "internalType": "uint256",
          "name": "_projectId",
          "type": "uint256"
        },
        {
          "internalType": "address",
          "name": "_to",
          "type": "address"
        },
        {
          "internalType": "uint256",
          "name": "_allocation",
          "type": "uint256"
        },
        {
          "internalType": "uint256",
          "name": "_compensation",
          "type": "uint256"
        },
        {
          "internalType": "int8",
          "name": "_tier",
          "type": "int8"
        },
        {
          "internalType": "uint8",
          "name": "_type",
          "type": "uint8"
        }
      ],
      "name": "mint",
      "outputs": [
        {
          "internalType": "uint256",
          "name": "",
          "type": "uint256"
        }
      ],
      "stateMutability": "nonpayable",
      "type": "function"
    },
    {
      "inputs": [
        {
          "internalType": "uint256",
          "name": "nftId",
          "type": "uint256"
        }
      ],
      "name": "mintType",
      "outputs": [
        {
          "internalType": "uint8",
          "name": "",
          "type": "uint8"
        }
      ],
      "stateMutability": "view",
      "type": "function"
    },
    {
      "inputs": [
        {
          "internalType": "address",
          "name": "",
          "type": "address"
        }
      ],
      "name": "minters",
      "outputs": [
        {
          "internalType": "bool",
          "name": "",
          "type": "bool"
        }
      ],
      "stateMutability": "view",
      "type": "function"
    },
    {
      "inputs": [],
      "name": "name",
      "outputs": [
        {
          "internalType": "string",
          "name": "",
          "type": "string"
        }
      ],
      "stateMutability": "view",
      "type": "function"
    },
    {
      "inputs": [],
      "name": "owner",
      "outputs": [
        {
          "internalType": "address",
          "name": "",
          "type": "address"
        }
      ],
      "stateMutability": "view",
      "type": "function"
    },
    {
      "inputs": [
        {
          "internalType": "uint256",
          "name": "tokenId",
          "type": "uint256"
        }
      ],
      "name": "ownerOf",
      "outputs": [
        {
          "internalType": "address",
          "name": "",
          "type": "address"
        }
      ],
      "stateMutability": "view",
      "type": "function"
    },
    {
      "inputs": [
        {
          "internalType": "uint256",
          "name": "",
          "type": "uint256"
        }
      ],
      "name": "paramsOf",
      "outputs": [
        {
          "internalType": "uint256",
          "name": "allocation",
          "type": "uint256"
        },
        {
          "internalType": "uint256",
          "name": "compensation",
          "type": "uint256"
        },
        {
          "internalType": "int8",
          "name": "tier",
          "type": "int8"
        },
        {
          "internalType": "uint8",
          "name": "mintType",
          "type": "uint8"
        }
      ],
      "stateMutability": "view",
      "type": "function"
    },
    {
      "inputs": [],
      "name": "projectId",
      "outputs": [
        {
          "internalType": "uint256",
          "name": "",
          "type": "uint256"
        }
      ],
      "stateMutability": "view",
      "type": "function"
    },
    {
      "inputs": [],
      "name": "renounceOwnership",
      "outputs": [],
      "stateMutability": "nonpayable",
      "type": "function"
    },
    {
      "inputs": [
        {
          "internalType": "address",
          "name": "from",
          "type": "address"
        },
        {
          "internalType": "address",
          "name": "to",
          "type": "address"
        },
        {
          "internalType": "uint256",
          "name": "tokenId",
          "type": "uint256"
        }
      ],
      "name": "safeTransferFrom",
      "outputs": [],
      "stateMutability": "nonpayable",
      "type": "function"
    },
    {
      "inputs": [
        {
          "internalType": "address",
          "name": "from",
          "type": "address"
        },
        {
          "internalType": "address",
          "name": "to",
          "type": "address"
        },
        {
          "internalType": "uint256",
          "name": "tokenId",
          "type": "uint256"
        },
        {
          "internalType": "bytes",
          "name": "_data",
          "type": "bytes"
        }
      ],
      "name": "safeTransferFrom",
      "outputs": [],
      "stateMutability": "nonpayable",
      "type": "function"
    },
    {
      "inputs": [
        {
          "internalType": "address",
          "name": "operator",
          "type": "address"
        },
        {
          "internalType": "bool",
          "name": "approved",
          "type": "bool"
        }
      ],
      "name": "setApprovalForAll",
      "outputs": [],
      "stateMutability": "nonpayable",
      "type": "function"
    },
    {
      "inputs": [
        {
          "internalType": "string",
          "name": "baseURI_",
          "type": "string"
        }
      ],
      "name": "setBaseURI",
      "outputs": [],
      "stateMutability": "nonpayable",
      "type": "function"
    },
    {
      "inputs": [
        {
          "internalType": "address",
          "name": "_minter",
          "type": "address"
        }
      ],
      "name": "setMinter",
      "outputs": [],
      "stateMutability": "nonpayable",
      "type": "function"
    },
    {
      "inputs": [
        {
          "internalType": "address",
          "name": "_owner",
          "type": "address"
        }
      ],
      "name": "setOwner",
      "outputs": [],
      "stateMutability": "nonpayable",
      "type": "function"
    },
    {
      "inputs": [
        {
          "internalType": "bytes4",
          "name": "interfaceId",
          "type": "bytes4"
        }
      ],
      "name": "supportsInterface",
      "outputs": [
        {
          "internalType": "bool",
          "name": "",
          "type": "bool"
        }
      ],
      "stateMutability": "view",
      "type": "function"
    },
    {
      "inputs": [],
      "name": "symbol",
      "outputs": [
        {
          "internalType": "string",
          "name": "",
          "type": "string"
        }
      ],
      "stateMutability": "view",
      "type": "function"
    },
    {
      "inputs": [
        {
          "internalType": "uint256",
          "name": "tokenId",
          "type": "uint256"
        }
      ],
      "name": "tokenURI",
      "outputs": [
        {
          "internalType": "string",
          "name": "",
          "type": "string"
        }
      ],
      "stateMutability": "view",
      "type": "function"
    },
    {
      "inputs": [
        {
          "internalType": "address",
          "name": "from",
          "type": "address"
        },
        {
          "internalType": "address",
          "name": "to",
          "type": "address"
        },
        {
          "internalType": "uint256",
          "name": "tokenId",
          "type": "uint256"
        }
      ],
      "name": "transferFrom",
      "outputs": [],
      "stateMutability": "nonpayable",
      "type": "function"
    },
    {
      "inputs": [
        {
          "internalType": "address",
          "name": "newOwner",
          "type": "address"
        }
      ],
      "name": "transferOwnership",
      "outputs": [],
      "stateMutability": "nonpayable",
      "type": "function"
    },
    {
      "inputs": [
        {
          "internalType": "address",
          "name": "_minter",
          "type": "address"
        }
      ],
      "name": "unsetMinter",
      "outputs": [],
      "stateMutability": "nonpayable",
      "type": "function"
    }
  ],
  "bytecode": "0x60806040523480156200001157600080fd5b506040518060400160405280600a81526020017f4c69676874686f757365000000000000000000000000000000000000000000008152506040518060400160405280600a81526020017f4c49474854484f55534500000000000000000000000000000000000000000000815250816000908051906020019062000096929190620001d3565b508060019080519060200190620000af929190620001d3565b505050620000d2620000c6620000ef60201b60201c565b620000f760201b60201c565b620000e96008620001bd60201b620016141760201c565b620002e8565b600033905090565b6000600660009054906101000a900473ffffffffffffffffffffffffffffffffffffffff16905081600660006101000a81548173ffffffffffffffffffffffffffffffffffffffff021916908373ffffffffffffffffffffffffffffffffffffffff1602179055508173ffffffffffffffffffffffffffffffffffffffff168173ffffffffffffffffffffffffffffffffffffffff167f8be0079c531659141344cd1fd0a4f28419497f9722a3daafe3b4186f6b6457e060405160405180910390a35050565b6001816000016000828254019250508190555050565b828054620001e19062000283565b90600052602060002090601f01602090048101928262000205576000855562000251565b82601f106200022057805160ff191683800117855562000251565b8280016001018555821562000251579182015b828111156200025057825182559160200191906001019062000233565b5b50905062000260919062000264565b5090565b5b808211156200027f57600081600090555060010162000265565b5090565b600060028204905060018216806200029c57607f821691505b60208210811415620002b357620002b2620002b9565b5b50919050565b7f4e487b7100000000000000000000000000000000000000000000000000000000600052602260045260246000fd5b6138b380620002f86000396000f3fe608060405234801561001057600080fd5b50600436106101c45760003560e01c806370a08231116100f9578063a39bf78c11610097578063e985e9c511610071578063e985e9c51461052a578063f2fde38b1461055a578063f46eccc414610576578063fca3b5aa146105a6576101c4565b8063a39bf78c146104ab578063b88d4fde146104de578063c87b56dd146104fa576101c4565b80638da5cb5b116100d35780638da5cb5b1461042357806395d89b4114610441578063989981d71461045f578063a22cb4651461048f576101c4565b806370a08231146103cd578063715018a6146103fd57806371f2337e14610407576101c4565b80633fafa12711610166578063434d382d11610140578063434d382d1461032157806355f804b3146103515780635a5804b31461036d5780636352211e1461039d576101c4565b80633fafa127146102cb57806342842e0e146102e957806342966c6814610305576101c4565b8063095ea7b3116101a2578063095ea7b3146102475780630dde7ef11461026357806313af40351461029357806323b872dd146102af576101c4565b806301ffc9a7146101c957806306fdde03146101f9578063081812fc14610217575b600080fd5b6101e360048036038101906101de919061271e565b6105c2565b6040516101f091906130b0565b60405180910390f35b6102016106a4565b60405161020e91906130cb565b60405180910390f35b610231600480360381019061022c91906127b1565b610736565b60405161023e9190613049565b60405180910390f35b610261600480360381019061025c91906126e2565b6107bb565b005b61027d600480360381019061027891906127da565b6108d3565b60405161028a919061334d565b60405180910390f35b6102ad60048036038101906102a89190612577565b610acb565b005b6102c960048036038101906102c491906125dc565b610b53565b005b6102d3610bb3565b6040516102e0919061334d565b60405180910390f35b61030360048036038101906102fe91906125dc565b610bb9565b005b61031f600480360381019061031a91906127b1565b610bd9565b005b61033b600480360381019061033691906127b1565b610c35565b604051610348919061334d565b60405180910390f35b61036b60048036038101906103669190612770565b610c55565b005b610387600480360381019061038291906127b1565b610ceb565b604051610394919061334d565b60405180910390f35b6103b760048036038101906103b291906127b1565b610d0b565b6040516103c49190613049565b60405180910390f35b6103e760048036038101906103e29190612577565b610dbd565b6040516103f4919061334d565b60405180910390f35b610405610e75565b005b610421600480360381019061041c9190612577565b610efd565b005b61042b610fd4565b6040516104389190613049565b60405180910390f35b610449610ffe565b60405161045691906130cb565b60405180910390f35b610479600480360381019061047491906127b1565b611090565b6040516104869190613400565b60405180910390f35b6104a960048036038101906104a491906126a6565b6110bd565b005b6104c560048036038101906104c091906127b1565b61123e565b6040516104d59493929190613368565b60405180910390f35b6104f860048036038101906104f3919061262b565b611288565b005b610514600480360381019061050f91906127b1565b6112ea565b60405161052191906130cb565b60405180910390f35b610544600480360381019061053f91906125a0565b611391565b60405161055191906130b0565b60405180910390f35b610574600480360381019061056f9190612577565b611425565b005b610590600480360381019061058b9190612577565b61151d565b60405161059d91906130b0565b60405180910390f35b6105c060048036038101906105bb9190612577565b61153d565b005b60007f80ac58cd000000000000000000000000000000000000000000000000000000007bffffffffffffffffffffffffffffffffffffffffffffffffffffffff1916827bffffffffffffffffffffffffffffffffffffffffffffffffffffffff1916148061068d57507f5b5e139f000000000000000000000000000000000000000000000000000000007bffffffffffffffffffffffffffffffffffffffffffffffffffffffff1916827bffffffffffffffffffffffffffffffffffffffffffffffffffffffff1916145b8061069d575061069c8261162a565b5b9050919050565b6060600080546106b39061367a565b80601f01602080910402602001604051908101604052809291908181526020018280546106df9061367a565b801561072c5780601f106107015761010080835404028352916020019161072c565b820191906000526020600020905b81548152906001019060200180831161070f57829003601f168201915b5050505050905090565b600061074182611694565b610780576040517f08c379a00000000000000000000000000000000000000000000000000000000081526004016107779061326d565b60405180910390fd5b6004600083815260200190815260200160002060009054906101000a900473ffffffffffffffffffffffffffffffffffffffff169050919050565b60006107c682610d0b565b90508073ffffffffffffffffffffffffffffffffffffffff168373ffffffffffffffffffffffffffffffffffffffff161415610837576040517f08c379a000000000000000000000000000000000000000000000000000000000815260040161082e906132ed565b60405180910390fd5b8073ffffffffffffffffffffffffffffffffffffffff16610856611700565b73ffffffffffffffffffffffffffffffffffffffff16148061088557506108848161087f611700565b611391565b5b6108c4576040517f08c379a00000000000000000000000000000000000000000000000000000000081526004016108bb906131cd565b60405180910390fd5b6108ce8383611708565b505050565b6000600a60006108e1611700565b73ffffffffffffffffffffffffffffffffffffffff1673ffffffffffffffffffffffffffffffffffffffff16815260200190815260200160002060009054906101000a900460ff16610968576040517f08c379a000000000000000000000000000000000000000000000000000000000815260040161095f9061322d565b60405180910390fd5b60095487146109ac576040517f08c379a00000000000000000000000000000000000000000000000000000000081526004016109a39061318d565b60405180910390fd5b60006109b860086117c1565b90506109c487826117cf565b60405180608001604052808781526020018681526020018560000b81526020018460ff16815250600b6000838152602001908152602001600020600082015181600001556020820151816001015560408201518160020160006101000a81548160ff021916908360000b60ff16021790555060608201518160020160016101000a81548160ff021916908360ff160217905550905050610a646008611614565b808773ffffffffffffffffffffffffffffffffffffffff167f12037fe5dc79c60c9a1ae2607ce17ee8840855d888571f99bc0b178a9d1f1e2b88888888600954604051610ab59594939291906133ad565b60405180910390a3809150509695505050505050565b610ad3611700565b73ffffffffffffffffffffffffffffffffffffffff16610af1610fd4565b73ffffffffffffffffffffffffffffffffffffffff1614610b47576040517f08c379a0000000000000000000000000000000000000000000000000000000008152600401610b3e9061328d565b60405180910390fd5b610b5081611425565b50565b610b64610b5e611700565b826117ed565b610ba3576040517f08c379a0000000000000000000000000000000000000000000000000000000008152600401610b9a9061330d565b60405180910390fd5b610bae8383836118cb565b505050565b60095481565b610bd483838360405180602001604052806000815250611288565b505050565b610bea610be4611700565b826117ed565b610c29576040517f08c379a0000000000000000000000000000000000000000000000000000000008152600401610c209061332d565b60405180910390fd5b610c3281611b27565b50565b6000600b6000838152602001908152602001600020600101549050919050565b610c5d611700565b73ffffffffffffffffffffffffffffffffffffffff16610c7b610fd4565b73ffffffffffffffffffffffffffffffffffffffff1614610cd1576040517f08c379a0000000000000000000000000000000000000000000000000000000008152600401610cc89061328d565b60405180910390fd5b8060079080519060200190610ce7929190612371565b5050565b6000600b6000838152602001908152602001600020600001549050919050565b6000806002600084815260200190815260200160002060009054906101000a900473ffffffffffffffffffffffffffffffffffffffff169050600073ffffffffffffffffffffffffffffffffffffffff168173ffffffffffffffffffffffffffffffffffffffff161415610db4576040517f08c379a0000000000000000000000000000000000000000000000000000000008152600401610dab9061320d565b60405180910390fd5b80915050919050565b60008073ffffffffffffffffffffffffffffffffffffffff168273ffffffffffffffffffffffffffffffffffffffff161415610e2e576040517f08c379a0000000000000000000000000000000000000000000000000000000008152600401610e25906131ed565b60405180910390fd5b600360008373ffffffffffffffffffffffffffffffffffffffff1673ffffffffffffffffffffffffffffffffffffffff168152602001908152602001600020549050919050565b610e7d611700565b73ffffffffffffffffffffffffffffffffffffffff16610e9b610fd4565b73ffffffffffffffffffffffffffffffffffffffff1614610ef1576040517f08c379a0000000000000000000000000000000000000000000000000000000008152600401610ee89061328d565b60405180910390fd5b610efb6000611c38565b565b610f05611700565b73ffffffffffffffffffffffffffffffffffffffff16610f23610fd4565b73ffffffffffffffffffffffffffffffffffffffff1614610f79576040517f08c379a0000000000000000000000000000000000000000000000000000000008152600401610f709061328d565b60405180910390fd5b6000600a60008373ffffffffffffffffffffffffffffffffffffffff1673ffffffffffffffffffffffffffffffffffffffff16815260200190815260200160002060006101000a81548160ff02191690831515021790555050565b6000600660009054906101000a900473ffffffffffffffffffffffffffffffffffffffff16905090565b60606001805461100d9061367a565b80601f01602080910402602001604051908101604052809291908181526020018280546110399061367a565b80156110865780601f1061105b57610100808354040283529160200191611086565b820191906000526020600020905b81548152906001019060200180831161106957829003601f168201915b5050505050905090565b6000600b600083815260200190815260200160002060020160019054906101000a900460ff169050919050565b6110c5611700565b73ffffffffffffffffffffffffffffffffffffffff168273ffffffffffffffffffffffffffffffffffffffff161415611133576040517f08c379a000000000000000000000000000000000000000000000000000000000815260040161112a9061316d565b60405180910390fd5b8060056000611140611700565b73ffffffffffffffffffffffffffffffffffffffff1673ffffffffffffffffffffffffffffffffffffffff16815260200190815260200160002060008473ffffffffffffffffffffffffffffffffffffffff1673ffffffffffffffffffffffffffffffffffffffff16815260200190815260200160002060006101000a81548160ff0219169083151502179055508173ffffffffffffffffffffffffffffffffffffffff166111ed611700565b73ffffffffffffffffffffffffffffffffffffffff167f17307eab39ab6107e8899845ad3d59bd9653f200f220920489ca2b5937696c318360405161123291906130b0565b60405180910390a35050565b600b6020528060005260406000206000915090508060000154908060010154908060020160009054906101000a900460000b908060020160019054906101000a900460ff16905084565b611299611293611700565b836117ed565b6112d8576040517f08c379a00000000000000000000000000000000000000000000000000000000081526004016112cf9061330d565b60405180910390fd5b6112e484848484611cfe565b50505050565b60606112f582611694565b611334576040517f08c379a000000000000000000000000000000000000000000000000000000000815260040161132b906132cd565b60405180910390fd5b600061133e611d5a565b9050600081511161135e5760405180602001604052806000815250611389565b8061136884611dec565b604051602001611379929190613025565b6040516020818303038152906040525b915050919050565b6000600560008473ffffffffffffffffffffffffffffffffffffffff1673ffffffffffffffffffffffffffffffffffffffff16815260200190815260200160002060008373ffffffffffffffffffffffffffffffffffffffff1673ffffffffffffffffffffffffffffffffffffffff16815260200190815260200160002060009054906101000a900460ff16905092915050565b61142d611700565b73ffffffffffffffffffffffffffffffffffffffff1661144b610fd4565b73ffffffffffffffffffffffffffffffffffffffff16146114a1576040517f08c379a00000000000000000000000000000000000000000000000000000000081526004016114989061328d565b60405180910390fd5b600073ffffffffffffffffffffffffffffffffffffffff168173ffffffffffffffffffffffffffffffffffffffff161415611511576040517f08c379a00000000000000000000000000000000000000000000000000000000081526004016115089061310d565b60405180910390fd5b61151a81611c38565b50565b600a6020528060005260406000206000915054906101000a900460ff1681565b611545611700565b73ffffffffffffffffffffffffffffffffffffffff16611563610fd4565b73ffffffffffffffffffffffffffffffffffffffff16146115b9576040517f08c379a00000000000000000000000000000000000000000000000000000000081526004016115b09061328d565b60405180910390fd5b6001600a60008373ffffffffffffffffffffffffffffffffffffffff1673ffffffffffffffffffffffffffffffffffffffff16815260200190815260200160002060006101000a81548160ff02191690831515021790555050565b6001816000016000828254019250508190555050565b60007f01ffc9a7000000000000000000000000000000000000000000000000000000007bffffffffffffffffffffffffffffffffffffffffffffffffffffffff1916827bffffffffffffffffffffffffffffffffffffffffffffffffffffffff1916149050919050565b60008073ffffffffffffffffffffffffffffffffffffffff166002600084815260200190815260200160002060009054906101000a900473ffffffffffffffffffffffffffffffffffffffff1673ffffffffffffffffffffffffffffffffffffffff1614159050919050565b600033905090565b816004600083815260200190815260200160002060006101000a81548173ffffffffffffffffffffffffffffffffffffffff021916908373ffffffffffffffffffffffffffffffffffffffff160217905550808273ffffffffffffffffffffffffffffffffffffffff1661177b83610d0b565b73ffffffffffffffffffffffffffffffffffffffff167f8c5be1e5ebec7d5bd14f71427d1e84f3dd0314c0f7b2291e5b200ac8c7c3b92560405160405180910390a45050565b600081600001549050919050565b6117e9828260405180602001604052806000815250611f99565b5050565b60006117f882611694565b611837576040517f08c379a000000000000000000000000000000000000000000000000000000000815260040161182e906131ad565b60405180910390fd5b600061184283610d0b565b90508073ffffffffffffffffffffffffffffffffffffffff168473ffffffffffffffffffffffffffffffffffffffff1614806118b157508373ffffffffffffffffffffffffffffffffffffffff1661189984610736565b73ffffffffffffffffffffffffffffffffffffffff16145b806118c257506118c18185611391565b5b91505092915050565b8273ffffffffffffffffffffffffffffffffffffffff166118eb82610d0b565b73ffffffffffffffffffffffffffffffffffffffff1614611941576040517f08c379a0000000000000000000000000000000000000000000000000000000008152600401611938906132ad565b60405180910390fd5b600073ffffffffffffffffffffffffffffffffffffffff168273ffffffffffffffffffffffffffffffffffffffff1614156119b1576040517f08c379a00000000000000000000000000000000000000000000000000000000081526004016119a89061314d565b60405180910390fd5b6119bc838383611ff4565b6119c7600082611708565b6001600360008573ffffffffffffffffffffffffffffffffffffffff1673ffffffffffffffffffffffffffffffffffffffff1681526020019081526020016000206000828254611a179190613576565b925050819055506001600360008473ffffffffffffffffffffffffffffffffffffffff1673ffffffffffffffffffffffffffffffffffffffff1681526020019081526020016000206000828254611a6e91906134ef565b92505081905550816002600083815260200190815260200160002060006101000a81548173ffffffffffffffffffffffffffffffffffffffff021916908373ffffffffffffffffffffffffffffffffffffffff160217905550808273ffffffffffffffffffffffffffffffffffffffff168473ffffffffffffffffffffffffffffffffffffffff167fddf252ad1be2c89b69c2b068fc378daa952ba7f163c4a11628f55a4df523b3ef60405160405180910390a4505050565b6000611b3282610d0b565b9050611b4081600084611ff4565b611b4b600083611708565b6001600360008373ffffffffffffffffffffffffffffffffffffffff1673ffffffffffffffffffffffffffffffffffffffff1681526020019081526020016000206000828254611b9b9190613576565b925050819055506002600083815260200190815260200160002060006101000a81549073ffffffffffffffffffffffffffffffffffffffff021916905581600073ffffffffffffffffffffffffffffffffffffffff168273ffffffffffffffffffffffffffffffffffffffff167fddf252ad1be2c89b69c2b068fc378daa952ba7f163c4a11628f55a4df523b3ef60405160405180910390a45050565b6000600660009054906101000a900473ffffffffffffffffffffffffffffffffffffffff16905081600660006101000a81548173ffffffffffffffffffffffffffffffffffffffff021916908373ffffffffffffffffffffffffffffffffffffffff1602179055508173ffffffffffffffffffffffffffffffffffffffff168173ffffffffffffffffffffffffffffffffffffffff167f8be0079c531659141344cd1fd0a4f28419497f9722a3daafe3b4186f6b6457e060405160405180910390a35050565b611d098484846118cb565b611d1584848484611ff9565b611d54576040517f08c379a0000000000000000000000000000000000000000000000000000000008152600401611d4b906130ed565b60405180910390fd5b50505050565b606060078054611d699061367a565b80601f0160208091040260200160405190810160405280929190818152602001828054611d959061367a565b8015611de25780601f10611db757610100808354040283529160200191611de2565b820191906000526020600020905b815481529060010190602001808311611dc557829003601f168201915b5050505050905090565b60606000821415611e34576040518060400160405280600181526020017f30000000000000000000000000000000000000000000000000000000000000008152509050611f94565b600082905060005b60008214611e66578080611e4f906136ac565b915050600a82611e5f9190613545565b9150611e3c565b60008167ffffffffffffffff811115611ea8577f4e487b7100000000000000000000000000000000000000000000000000000000600052604160045260246000fd5b6040519080825280601f01601f191660200182016040528015611eda5781602001600182028036833780820191505090505b5090505b60008514611f8d57600182611ef39190613576565b9150600a85611f0291906136f5565b6030611f0e91906134ef565b60f81b818381518110611f4a577f4e487b7100000000000000000000000000000000000000000000000000000000600052603260045260246000fd5b60200101907effffffffffffffffffffffffffffffffffffffffffffffffffffffffffffff1916908160001a905350600a85611f869190613545565b9450611ede565b8093505050505b919050565b611fa38383612190565b611fb06000848484611ff9565b611fef576040517f08c379a0000000000000000000000000000000000000000000000000000000008152600401611fe6906130ed565b60405180910390fd5b505050565b505050565b600061201a8473ffffffffffffffffffffffffffffffffffffffff1661235e565b15612183578373ffffffffffffffffffffffffffffffffffffffff1663150b7a02612043611700565b8786866040518563ffffffff1660e01b81526004016120659493929190613064565b602060405180830381600087803b15801561207f57600080fd5b505af19250505080156120b057506040513d601f19601f820116820180604052508101906120ad9190612747565b60015b612133573d80600081146120e0576040519150601f19603f3d011682016040523d82523d6000602084013e6120e5565b606091505b5060008151141561212b576040517f08c379a0000000000000000000000000000000000000000000000000000000008152600401612122906130ed565b60405180910390fd5b805181602001fd5b63150b7a0260e01b7bffffffffffffffffffffffffffffffffffffffffffffffffffffffff1916817bffffffffffffffffffffffffffffffffffffffffffffffffffffffff191614915050612188565b600190505b949350505050565b600073ffffffffffffffffffffffffffffffffffffffff168273ffffffffffffffffffffffffffffffffffffffff161415612200576040517f08c379a00000000000000000000000000000000000000000000000000000000081526004016121f79061324d565b60405180910390fd5b61220981611694565b15612249576040517f08c379a00000000000000000000000000000000000000000000000000000000081526004016122409061312d565b60405180910390fd5b61225560008383611ff4565b6001600360008473ffffffffffffffffffffffffffffffffffffffff1673ffffffffffffffffffffffffffffffffffffffff16815260200190815260200160002060008282546122a591906134ef565b92505081905550816002600083815260200190815260200160002060006101000a81548173ffffffffffffffffffffffffffffffffffffffff021916908373ffffffffffffffffffffffffffffffffffffffff160217905550808273ffffffffffffffffffffffffffffffffffffffff16600073ffffffffffffffffffffffffffffffffffffffff167fddf252ad1be2c89b69c2b068fc378daa952ba7f163c4a11628f55a4df523b3ef60405160405180910390a45050565b600080823b905060008111915050919050565b82805461237d9061367a565b90600052602060002090601f01602090048101928261239f57600085556123e6565b82601f106123b857805160ff19168380011785556123e6565b828001600101855582156123e6579182015b828111156123e55782518255916020019190600101906123ca565b5b5090506123f391906123f7565b5090565b5b808211156124105760008160009055506001016123f8565b5090565b60006124276124228461344c565b61341b565b90508281526020810184848401111561243f57600080fd5b61244a848285613638565b509392505050565b60006124656124608461347c565b61341b565b90508281526020810184848401111561247d57600080fd5b612488848285613638565b509392505050565b60008135905061249f816137f3565b92915050565b6000813590506124b48161380a565b92915050565b6000813590506124c981613821565b92915050565b6000815190506124de81613821565b92915050565b600082601f8301126124f557600080fd5b8135612505848260208601612414565b91505092915050565b60008135905061251d81613838565b92915050565b600082601f83011261253457600080fd5b8135612544848260208601612452565b91505092915050565b60008135905061255c8161384f565b92915050565b60008135905061257181613866565b92915050565b60006020828403121561258957600080fd5b600061259784828501612490565b91505092915050565b600080604083850312156125b357600080fd5b60006125c185828601612490565b92505060206125d285828601612490565b9150509250929050565b6000806000606084860312156125f157600080fd5b60006125ff86828701612490565b935050602061261086828701612490565b92505060406126218682870161254d565b9150509250925092565b6000806000806080858703121561264157600080fd5b600061264f87828801612490565b945050602061266087828801612490565b93505060406126718782880161254d565b925050606085013567ffffffffffffffff81111561268e57600080fd5b61269a878288016124e4565b91505092959194509250565b600080604083850312156126b957600080fd5b60006126c785828601612490565b92505060206126d8858286016124a5565b9150509250929050565b600080604083850312156126f557600080fd5b600061270385828601612490565b92505060206127148582860161254d565b9150509250929050565b60006020828403121561273057600080fd5b600061273e848285016124ba565b91505092915050565b60006020828403121561275957600080fd5b6000612767848285016124cf565b91505092915050565b60006020828403121561278257600080fd5b600082013567ffffffffffffffff81111561279c57600080fd5b6127a884828501612523565b91505092915050565b6000602082840312156127c357600080fd5b60006127d18482850161254d565b91505092915050565b60008060008060008060c087890312156127f357600080fd5b600061280189828a0161254d565b965050602061281289828a01612490565b955050604061282389828a0161254d565b945050606061283489828a0161254d565b935050608061284589828a0161250e565b92505060a061285689828a01612562565b9150509295509295509295565b61286c816135aa565b82525050565b61287b816135bc565b82525050565b600061288c826134ac565b61289681856134c2565b93506128a6818560208601613647565b6128af816137e2565b840191505092915050565b6128c3816135f4565b82525050565b60006128d4826134b7565b6128de81856134d3565b93506128ee818560208601613647565b6128f7816137e2565b840191505092915050565b600061290d826134b7565b61291781856134e4565b9350612927818560208601613647565b80840191505092915050565b60006129406032836134d3565b91507f4552433732313a207472616e7366657220746f206e6f6e20455243373231526560008301527f63656976657220696d706c656d656e74657200000000000000000000000000006020830152604082019050919050565b60006129a66026836134d3565b91507f4f776e61626c653a206e6577206f776e657220697320746865207a65726f206160008301527f64647265737300000000000000000000000000000000000000000000000000006020830152604082019050919050565b6000612a0c601c836134d3565b91507f4552433732313a20746f6b656e20616c7265616479206d696e746564000000006000830152602082019050919050565b6000612a4c6024836134d3565b91507f4552433732313a207472616e7366657220746f20746865207a65726f2061646460008301527f72657373000000000000000000000000000000000000000000000000000000006020830152604082019050919050565b6000612ab26019836134d3565b91507f4552433732313a20617070726f766520746f2063616c6c6572000000000000006000830152602082019050919050565b6000612af2601f836134d3565b91507f4c69676874686f7573653a2050524f4a4543545f49445f4d49534d41544348006000830152602082019050919050565b6000612b32602c836134d3565b91507f4552433732313a206f70657261746f7220717565727920666f72206e6f6e657860008301527f697374656e7420746f6b656e00000000000000000000000000000000000000006020830152604082019050919050565b6000612b986038836134d3565b91507f4552433732313a20617070726f76652063616c6c6572206973206e6f74206f7760008301527f6e6572206e6f7220617070726f76656420666f7220616c6c00000000000000006020830152604082019050919050565b6000612bfe602a836134d3565b91507f4552433732313a2062616c616e636520717565727920666f7220746865207a6560008301527f726f2061646472657373000000000000000000000000000000000000000000006020830152604082019050919050565b6000612c646029836134d3565b91507f4552433732313a206f776e657220717565727920666f72206e6f6e657869737460008301527f656e7420746f6b656e00000000000000000000000000000000000000000000006020830152604082019050919050565b6000612cca6032836134d3565b91507f5365617363617065204e46543a204f6e6c79204e465420466163746f7279206360008301527f616e2063616c6c20746865206d6574686f6400000000000000000000000000006020830152604082019050919050565b6000612d306020836134d3565b91507f4552433732313a206d696e7420746f20746865207a65726f20616464726573736000830152602082019050919050565b6000612d70602c836134d3565b91507f4552433732313a20617070726f76656420717565727920666f72206e6f6e657860008301527f697374656e7420746f6b656e00000000000000000000000000000000000000006020830152604082019050919050565b6000612dd66020836134d3565b91507f4f776e61626c653a2063616c6c6572206973206e6f7420746865206f776e65726000830152602082019050919050565b6000612e166029836134d3565b91507f4552433732313a207472616e73666572206f6620746f6b656e2074686174206960008301527f73206e6f74206f776e00000000000000000000000000000000000000000000006020830152604082019050919050565b6000612e7c602f836134d3565b91507f4552433732314d657461646174613a2055524920717565727920666f72206e6f60008301527f6e6578697374656e7420746f6b656e00000000000000000000000000000000006020830152604082019050919050565b6000612ee26021836134d3565b91507f4552433732313a20617070726f76616c20746f2063757272656e74206f776e6560008301527f72000000000000000000000000000000000000000000000000000000000000006020830152604082019050919050565b6000612f486031836134d3565b91507f4552433732313a207472616e736665722063616c6c6572206973206e6f74206f60008301527f776e6572206e6f7220617070726f7665640000000000000000000000000000006020830152604082019050919050565b6000612fae6030836134d3565b91507f4552433732314275726e61626c653a2063616c6c6572206973206e6f74206f7760008301527f6e6572206e6f7220617070726f766564000000000000000000000000000000006020830152604082019050919050565b61301081613621565b82525050565b61301f8161362b565b82525050565b60006130318285612902565b915061303d8284612902565b91508190509392505050565b600060208201905061305e6000830184612863565b92915050565b60006080820190506130796000830187612863565b6130866020830186612863565b6130936040830185613007565b81810360608301526130a58184612881565b905095945050505050565b60006020820190506130c56000830184612872565b92915050565b600060208201905081810360008301526130e581846128c9565b905092915050565b6000602082019050818103600083015261310681612933565b9050919050565b6000602082019050818103600083015261312681612999565b9050919050565b60006020820190508181036000830152613146816129ff565b9050919050565b6000602082019050818103600083015261316681612a3f565b9050919050565b6000602082019050818103600083015261318681612aa5565b9050919050565b600060208201905081810360008301526131a681612ae5565b9050919050565b600060208201905081810360008301526131c681612b25565b9050919050565b600060208201905081810360008301526131e681612b8b565b9050919050565b6000602082019050818103600083015261320681612bf1565b9050919050565b6000602082019050818103600083015261322681612c57565b9050919050565b6000602082019050818103600083015261324681612cbd565b9050919050565b6000602082019050818103600083015261326681612d23565b9050919050565b6000602082019050818103600083015261328681612d63565b9050919050565b600060208201905081810360008301526132a681612dc9565b9050919050565b600060208201905081810360008301526132c681612e09565b9050919050565b600060208201905081810360008301526132e681612e6f565b9050919050565b6000602082019050818103600083015261330681612ed5565b9050919050565b6000602082019050818103600083015261332681612f3b565b9050919050565b6000602082019050818103600083015261334681612fa1565b9050919050565b60006020820190506133626000830184613007565b92915050565b600060808201905061337d6000830187613007565b61338a6020830186613007565b61339760408301856128ba565b6133a46060830184613016565b95945050505050565b600060a0820190506133c26000830188613007565b6133cf6020830187613007565b6133dc60408301866128ba565b6133e96060830185613016565b6133f66080830184613007565b9695505050505050565b60006020820190506134156000830184613016565b92915050565b6000604051905081810181811067ffffffffffffffff82111715613442576134416137b3565b5b8060405250919050565b600067ffffffffffffffff821115613467576134666137b3565b5b601f19601f8301169050602081019050919050565b600067ffffffffffffffff821115613497576134966137b3565b5b601f19601f8301169050602081019050919050565b600081519050919050565b600081519050919050565b600082825260208201905092915050565b600082825260208201905092915050565b600081905092915050565b60006134fa82613621565b915061350583613621565b9250827fffffffffffffffffffffffffffffffffffffffffffffffffffffffffffffffff0382111561353a57613539613726565b5b828201905092915050565b600061355082613621565b915061355b83613621565b92508261356b5761356a613755565b5b828204905092915050565b600061358182613621565b915061358c83613621565b92508282101561359f5761359e613726565b5b828203905092915050565b60006135b582613601565b9050919050565b60008115159050919050565b60007fffffffff0000000000000000000000000000000000000000000000000000000082169050919050565b60008160000b9050919050565b600073ffffffffffffffffffffffffffffffffffffffff82169050919050565b6000819050919050565b600060ff82169050919050565b82818337600083830152505050565b60005b8381101561366557808201518184015260208101905061364a565b83811115613674576000848401525b50505050565b6000600282049050600182168061369257607f821691505b602082108114156136a6576136a5613784565b5b50919050565b60006136b782613621565b91507fffffffffffffffffffffffffffffffffffffffffffffffffffffffffffffffff8214156136ea576136e9613726565b5b600182019050919050565b600061370082613621565b915061370b83613621565b92508261371b5761371a613755565b5b828206905092915050565b7f4e487b7100000000000000000000000000000000000000000000000000000000600052601160045260246000fd5b7f4e487b7100000000000000000000000000000000000000000000000000000000600052601260045260246000fd5b7f4e487b7100000000000000000000000000000000000000000000000000000000600052602260045260246000fd5b7f4e487b7100000000000000000000000000000000000000000000000000000000600052604160045260246000fd5b6000601f19601f8301169050919050565b6137fc816135aa565b811461380757600080fd5b50565b613813816135bc565b811461381e57600080fd5b50565b61382a816135c8565b811461383557600080fd5b50565b613841816135f4565b811461384c57600080fd5b50565b61385881613621565b811461386357600080fd5b50565b61386f8161362b565b811461387a57600080fd5b5056fea26469706673582212209be0c75338883b92fff89ef2cbaea3452c8c7d111d11ea8e1dde8841509dac7a64736f6c63430008000033",
  "linkReferences": {},
  "deployedLinkReferences": {}
}