{
  "_format": "hh-sol-artifact-1",
  "contractName": "LighthouseNft",
  "sourceName": "contracts/LighthouseNft.sol",
  "abi": [
    {
      "inputs": [
        {
          "internalType": "uint256",
          "name": "_projectId",
          "type": "uint256"
        }
      ],
      "stateMutability": "nonpayable",
      "type": "constructor"
    },
    {
      "anonymous": false,
      "inputs": [
        {
          "indexed": true,
          "internalType": "address",
          "name": "owner",
          "type": "address"
        },
        {
          "indexed": true,
          "internalType": "address",
          "name": "approved",
          "type": "address"
        },
        {
          "indexed": true,
          "internalType": "uint256",
          "name": "tokenId",
          "type": "uint256"
        }
      ],
      "name": "Approval",
      "type": "event"
    },
    {
      "anonymous": false,
      "inputs": [
        {
          "indexed": true,
          "internalType": "address",
          "name": "owner",
          "type": "address"
        },
        {
          "indexed": true,
          "internalType": "address",
          "name": "operator",
          "type": "address"
        },
        {
          "indexed": false,
          "internalType": "bool",
          "name": "approved",
          "type": "bool"
        }
      ],
      "name": "ApprovalForAll",
      "type": "event"
    },
    {
      "anonymous": false,
      "inputs": [
        {
          "indexed": true,
          "internalType": "address",
          "name": "owner",
          "type": "address"
        },
        {
          "indexed": true,
          "internalType": "uint256",
          "name": "id",
          "type": "uint256"
        },
        {
          "indexed": false,
          "internalType": "uint256",
          "name": "allocation",
          "type": "uint256"
        },
        {
          "indexed": false,
          "internalType": "uint256",
          "name": "compensation",
          "type": "uint256"
        },
        {
          "indexed": false,
          "internalType": "int8",
          "name": "tier",
          "type": "int8"
        },
        {
          "indexed": false,
          "internalType": "uint8",
          "name": "mintType",
          "type": "uint8"
        },
        {
          "indexed": false,
          "internalType": "uint256",
          "name": "projectId",
          "type": "uint256"
        }
      ],
      "name": "Minted",
      "type": "event"
    },
    {
      "anonymous": false,
      "inputs": [
        {
          "indexed": true,
          "internalType": "address",
          "name": "previousOwner",
          "type": "address"
        },
        {
          "indexed": true,
          "internalType": "address",
          "name": "newOwner",
          "type": "address"
        }
      ],
      "name": "OwnershipTransferred",
      "type": "event"
    },
    {
      "anonymous": false,
      "inputs": [
        {
          "indexed": true,
          "internalType": "address",
          "name": "from",
          "type": "address"
        },
        {
          "indexed": true,
          "internalType": "address",
          "name": "to",
          "type": "address"
        },
        {
          "indexed": true,
          "internalType": "uint256",
          "name": "tokenId",
          "type": "uint256"
        }
      ],
      "name": "Transfer",
      "type": "event"
    },
    {
      "inputs": [
        {
          "internalType": "address",
          "name": "to",
          "type": "address"
        },
        {
          "internalType": "uint256",
          "name": "tokenId",
          "type": "uint256"
        }
      ],
      "name": "approve",
      "outputs": [],
      "stateMutability": "nonpayable",
      "type": "function"
    },
    {
      "inputs": [
        {
          "internalType": "address",
          "name": "owner",
          "type": "address"
        }
      ],
      "name": "balanceOf",
      "outputs": [
        {
          "internalType": "uint256",
          "name": "",
          "type": "uint256"
        }
      ],
      "stateMutability": "view",
      "type": "function"
    },
    {
      "inputs": [
        {
          "internalType": "uint256",
          "name": "tokenId",
          "type": "uint256"
        }
      ],
      "name": "burn",
      "outputs": [],
      "stateMutability": "nonpayable",
      "type": "function"
    },
    {
      "inputs": [
        {
          "internalType": "uint256",
          "name": "tokenId",
          "type": "uint256"
        }
      ],
      "name": "getApproved",
      "outputs": [
        {
          "internalType": "address",
          "name": "",
          "type": "address"
        }
      ],
      "stateMutability": "view",
      "type": "function"
    },
    {
      "inputs": [],
      "name": "getNextTokenId",
      "outputs": [
        {
          "internalType": "uint256",
          "name": "",
          "type": "uint256"
        }
      ],
      "stateMutability": "view",
      "type": "function"
    },
    {
      "inputs": [
        {
          "internalType": "address",
          "name": "owner",
          "type": "address"
        },
        {
          "internalType": "address",
          "name": "operator",
          "type": "address"
        }
      ],
      "name": "isApprovedForAll",
      "outputs": [
        {
          "internalType": "bool",
          "name": "",
          "type": "bool"
        }
      ],
      "stateMutability": "view",
      "type": "function"
    },
    {
      "inputs": [
        {
          "internalType": "uint256",
          "name": "_projectId",
          "type": "uint256"
        },
        {
          "internalType": "uint256",
          "name": "_tokenId",
          "type": "uint256"
        },
        {
          "internalType": "address",
          "name": "_to",
          "type": "address"
        },
        {
          "internalType": "uint256",
          "name": "_allocation",
          "type": "uint256"
        },
        {
          "internalType": "uint256",
          "name": "_compensation",
          "type": "uint256"
        },
        {
          "internalType": "int8",
          "name": "_tier",
          "type": "int8"
        },
        {
          "internalType": "uint8",
          "name": "_type",
          "type": "uint8"
        }
      ],
      "name": "mint",
      "outputs": [
        {
          "internalType": "bool",
          "name": "",
          "type": "bool"
        }
      ],
      "stateMutability": "nonpayable",
      "type": "function"
    },
    {
      "inputs": [
        {
          "internalType": "uint256",
          "name": "nftId",
          "type": "uint256"
        }
      ],
      "name": "mintType",
      "outputs": [
        {
          "internalType": "uint8",
          "name": "",
          "type": "uint8"
        }
      ],
      "stateMutability": "view",
      "type": "function"
    },
    {
      "inputs": [
        {
          "internalType": "address",
          "name": "",
          "type": "address"
        }
      ],
      "name": "minters",
      "outputs": [
        {
          "internalType": "bool",
          "name": "",
          "type": "bool"
        }
      ],
      "stateMutability": "view",
      "type": "function"
    },
    {
      "inputs": [],
      "name": "name",
      "outputs": [
        {
          "internalType": "string",
          "name": "",
          "type": "string"
        }
      ],
      "stateMutability": "view",
      "type": "function"
    },
    {
      "inputs": [],
      "name": "owner",
      "outputs": [
        {
          "internalType": "address",
          "name": "",
          "type": "address"
        }
      ],
      "stateMutability": "view",
      "type": "function"
    },
    {
      "inputs": [
        {
          "internalType": "uint256",
          "name": "tokenId",
          "type": "uint256"
        }
      ],
      "name": "ownerOf",
      "outputs": [
        {
          "internalType": "address",
          "name": "",
          "type": "address"
        }
      ],
      "stateMutability": "view",
      "type": "function"
    },
    {
      "inputs": [
        {
          "internalType": "uint256",
          "name": "",
          "type": "uint256"
        }
      ],
      "name": "paramsOf",
      "outputs": [
        {
          "internalType": "uint256",
          "name": "scaledAllocation",
          "type": "uint256"
        },
        {
          "internalType": "uint256",
          "name": "scaledCompensation",
          "type": "uint256"
        },
        {
          "internalType": "int8",
          "name": "tier",
          "type": "int8"
        },
        {
          "internalType": "uint8",
          "name": "mintType",
          "type": "uint8"
        }
      ],
      "stateMutability": "view",
      "type": "function"
    },
    {
      "inputs": [],
      "name": "projectId",
      "outputs": [
        {
          "internalType": "uint256",
          "name": "",
          "type": "uint256"
        }
      ],
      "stateMutability": "view",
      "type": "function"
    },
    {
      "inputs": [],
      "name": "renounceOwnership",
      "outputs": [],
      "stateMutability": "nonpayable",
      "type": "function"
    },
    {
      "inputs": [
        {
          "internalType": "address",
          "name": "from",
          "type": "address"
        },
        {
          "internalType": "address",
          "name": "to",
          "type": "address"
        },
        {
          "internalType": "uint256",
          "name": "tokenId",
          "type": "uint256"
        }
      ],
      "name": "safeTransferFrom",
      "outputs": [],
      "stateMutability": "nonpayable",
      "type": "function"
    },
    {
      "inputs": [
        {
          "internalType": "address",
          "name": "from",
          "type": "address"
        },
        {
          "internalType": "address",
          "name": "to",
          "type": "address"
        },
        {
          "internalType": "uint256",
          "name": "tokenId",
          "type": "uint256"
        },
        {
          "internalType": "bytes",
          "name": "_data",
          "type": "bytes"
        }
      ],
      "name": "safeTransferFrom",
      "outputs": [],
      "stateMutability": "nonpayable",
      "type": "function"
    },
    {
      "inputs": [
        {
          "internalType": "uint256",
          "name": "nftId",
          "type": "uint256"
        }
      ],
      "name": "scaledAllocation",
      "outputs": [
        {
          "internalType": "uint256",
          "name": "",
          "type": "uint256"
        }
      ],
      "stateMutability": "view",
      "type": "function"
    },
    {
      "inputs": [
        {
          "internalType": "uint256",
          "name": "nftId",
          "type": "uint256"
        }
      ],
      "name": "scaledCompensation",
      "outputs": [
        {
          "internalType": "uint256",
          "name": "",
          "type": "uint256"
        }
      ],
      "stateMutability": "view",
      "type": "function"
    },
    {
      "inputs": [
        {
          "internalType": "address",
          "name": "operator",
          "type": "address"
        },
        {
          "internalType": "bool",
          "name": "approved",
          "type": "bool"
        }
      ],
      "name": "setApprovalForAll",
      "outputs": [],
      "stateMutability": "nonpayable",
      "type": "function"
    },
    {
      "inputs": [
        {
          "internalType": "string",
          "name": "baseURI_",
          "type": "string"
        }
      ],
      "name": "setBaseURI",
      "outputs": [],
      "stateMutability": "nonpayable",
      "type": "function"
    },
    {
      "inputs": [
        {
          "internalType": "address",
          "name": "_minter",
          "type": "address"
        }
      ],
      "name": "setMinter",
      "outputs": [],
      "stateMutability": "nonpayable",
      "type": "function"
    },
    {
      "inputs": [
        {
          "internalType": "address",
          "name": "_owner",
          "type": "address"
        }
      ],
      "name": "setOwner",
      "outputs": [],
      "stateMutability": "nonpayable",
      "type": "function"
    },
    {
      "inputs": [
        {
          "internalType": "bytes4",
          "name": "interfaceId",
          "type": "bytes4"
        }
      ],
      "name": "supportsInterface",
      "outputs": [
        {
          "internalType": "bool",
          "name": "",
          "type": "bool"
        }
      ],
      "stateMutability": "view",
      "type": "function"
    },
    {
      "inputs": [],
      "name": "symbol",
      "outputs": [
        {
          "internalType": "string",
          "name": "",
          "type": "string"
        }
      ],
      "stateMutability": "view",
      "type": "function"
    },
    {
      "inputs": [
        {
          "internalType": "uint256",
          "name": "tokenId",
          "type": "uint256"
        }
      ],
      "name": "tokenURI",
      "outputs": [
        {
          "internalType": "string",
          "name": "",
          "type": "string"
        }
      ],
      "stateMutability": "view",
      "type": "function"
    },
    {
      "inputs": [
        {
          "internalType": "address",
          "name": "from",
          "type": "address"
        },
        {
          "internalType": "address",
          "name": "to",
          "type": "address"
        },
        {
          "internalType": "uint256",
          "name": "tokenId",
          "type": "uint256"
        }
      ],
      "name": "transferFrom",
      "outputs": [],
      "stateMutability": "nonpayable",
      "type": "function"
    },
    {
      "inputs": [
        {
          "internalType": "address",
          "name": "newOwner",
          "type": "address"
        }
      ],
      "name": "transferOwnership",
      "outputs": [],
      "stateMutability": "nonpayable",
      "type": "function"
    },
    {
      "inputs": [
        {
          "internalType": "address",
          "name": "_minter",
          "type": "address"
        }
      ],
      "name": "unsetMinter",
      "outputs": [],
      "stateMutability": "nonpayable",
      "type": "function"
    }
  ],
  "bytecode": "0x60806040523480156200001157600080fd5b5060405162003de638038062003de6833981810160405281019062000037919062000306565b6040518060400160405280600a81526020017f4c69676874686f757365000000000000000000000000000000000000000000008152506040518060400160405280600a81526020017f4c49474854484f555345000000000000000000000000000000000000000000008152508160009080519060200190620000bb9291906200023f565b508060019080519060200190620000d49291906200023f565b505050620000f7620000eb6200015b60201b60201c565b6200016360201b60201c565b600081116200013d576040517f08c379a0000000000000000000000000000000000000000000000000000000008152600401620001349062000374565b60405180910390fd5b6200015460086200022960201b620016921760201c565b5062000430565b600033905090565b6000600660009054906101000a900473ffffffffffffffffffffffffffffffffffffffff16905081600660006101000a81548173ffffffffffffffffffffffffffffffffffffffff021916908373ffffffffffffffffffffffffffffffffffffffff1602179055508173ffffffffffffffffffffffffffffffffffffffff168173ffffffffffffffffffffffffffffffffffffffff167f8be0079c531659141344cd1fd0a4f28419497f9722a3daafe3b4186f6b6457e060405160405180910390a35050565b6001816000016000828254019250508190555050565b8280546200024d90620003b1565b90600052602060002090601f016020900481019282620002715760008555620002bd565b82601f106200028c57805160ff1916838001178555620002bd565b82800160010185558215620002bd579182015b82811115620002bc5782518255916020019190600101906200029f565b5b509050620002cc9190620002d0565b5090565b5b80821115620002eb576000816000905550600101620002d1565b5090565b600081519050620003008162000416565b92915050565b6000602082840312156200031957600080fd5b60006200032984828501620002ef565b91505092915050565b60006200034160168362000396565b91507f4c69676874686f7573653a205a45524f5f56414c5545000000000000000000006000830152602082019050919050565b600060208201905081810360008301526200038f8162000332565b9050919050565b600082825260208201905092915050565b6000819050919050565b60006002820490506001821680620003ca57607f821691505b60208210811415620003e157620003e0620003e7565b5b50919050565b7f4e487b7100000000000000000000000000000000000000000000000000000000600052602260045260246000fd5b6200042181620003a7565b81146200042d57600080fd5b50565b6139a680620004406000396000f3fe608060405234801561001057600080fd5b50600436106101cf5760003560e01c806371f2337e11610104578063a39bf78c116100a2578063e985e9c511610071578063e985e9c514610553578063f2fde38b14610583578063f46eccc41461059f578063fca3b5aa146105cf576101cf565b8063a39bf78c146104b6578063b88d4fde146104e9578063c87b56dd14610505578063caa0f92a14610535576101cf565b806396f53711116100de57806396f537111461040a578063989981d71461043a5780639ab8ee151461046a578063a22cb4651461049a576101cf565b806371f2337e146103b25780638da5cb5b146103ce57806395d89b41146103ec576101cf565b806342842e0e1161017157806355f804b31161014b57806355f804b31461032c5780636352211e1461034857806370a0823114610378578063715018a6146103a8576101cf565b806342842e0e146102c457806342966c68146102e057806353f036c7146102fc576101cf565b8063095ea7b3116101ad578063095ea7b31461025257806313af40351461026e57806323b872dd1461028a5780633fafa127146102a6576101cf565b806301ffc9a7146101d457806306fdde0314610204578063081812fc14610222575b600080fd5b6101ee60048036038101906101e9919061279c565b6105eb565b6040516101fb9190613183565b60405180910390f35b61020c6106cd565b604051610219919061319e565b60405180910390f35b61023c6004803603810190610237919061282f565b61075f565b604051610249919061311c565b60405180910390f35b61026c60048036038101906102679190612760565b6107e4565b005b610288600480360381019061028391906125f5565b6108fc565b005b6102a4600480360381019061029f919061265a565b610984565b005b6102ae6109e4565b6040516102bb9190613440565b60405180910390f35b6102de60048036038101906102d9919061265a565b6109ea565b005b6102fa60048036038101906102f5919061282f565b610a0a565b005b61031660048036038101906103119190612858565b610a66565b6040516103239190613183565b60405180910390f35b610346600480360381019061034191906127ee565b610ca2565b005b610362600480360381019061035d919061282f565b610d38565b60405161036f919061311c565b60405180910390f35b610392600480360381019061038d91906125f5565b610dea565b60405161039f9190613440565b60405180910390f35b6103b0610ea2565b005b6103cc60048036038101906103c791906125f5565b610f2a565b005b6103d6611001565b6040516103e3919061311c565b60405180910390f35b6103f461102b565b604051610401919061319e565b60405180910390f35b610424600480360381019061041f919061282f565b6110bd565b6040516104319190613440565b60405180910390f35b610454600480360381019061044f919061282f565b6110dd565b60405161046191906134f3565b60405180910390f35b610484600480360381019061047f919061282f565b61110a565b6040516104919190613440565b60405180910390f35b6104b460048036038101906104af9190612724565b61112a565b005b6104d060048036038101906104cb919061282f565b6112ab565b6040516104e0949392919061345b565b60405180910390f35b61050360048036038101906104fe91906126a9565b6112f5565b005b61051f600480360381019061051a919061282f565b611357565b60405161052c919061319e565b60405180910390f35b61053d6113fe565b60405161054a9190613440565b60405180910390f35b61056d6004803603810190610568919061261e565b61140f565b60405161057a9190613183565b60405180910390f35b61059d600480360381019061059891906125f5565b6114a3565b005b6105b960048036038101906105b491906125f5565b61159b565b6040516105c69190613183565b60405180910390f35b6105e960048036038101906105e491906125f5565b6115bb565b005b60007f80ac58cd000000000000000000000000000000000000000000000000000000007bffffffffffffffffffffffffffffffffffffffffffffffffffffffff1916827bffffffffffffffffffffffffffffffffffffffffffffffffffffffff191614806106b657507f5b5e139f000000000000000000000000000000000000000000000000000000007bffffffffffffffffffffffffffffffffffffffffffffffffffffffff1916827bffffffffffffffffffffffffffffffffffffffffffffffffffffffff1916145b806106c657506106c5826116a8565b5b9050919050565b6060600080546106dc9061376d565b80601f01602080910402602001604051908101604052809291908181526020018280546107089061376d565b80156107555780601f1061072a57610100808354040283529160200191610755565b820191906000526020600020905b81548152906001019060200180831161073857829003601f168201915b5050505050905090565b600061076a82611712565b6107a9576040517f08c379a00000000000000000000000000000000000000000000000000000000081526004016107a090613360565b60405180910390fd5b6004600083815260200190815260200160002060009054906101000a900473ffffffffffffffffffffffffffffffffffffffff169050919050565b60006107ef82610d38565b90508073ffffffffffffffffffffffffffffffffffffffff168373ffffffffffffffffffffffffffffffffffffffff161415610860576040517f08c379a0000000000000000000000000000000000000000000000000000000008152600401610857906133e0565b60405180910390fd5b8073ffffffffffffffffffffffffffffffffffffffff1661087f61177e565b73ffffffffffffffffffffffffffffffffffffffff1614806108ae57506108ad816108a861177e565b61140f565b5b6108ed576040517f08c379a00000000000000000000000000000000000000000000000000000000081526004016108e4906132c0565b60405180910390fd5b6108f78383611786565b505050565b61090461177e565b73ffffffffffffffffffffffffffffffffffffffff16610922611001565b73ffffffffffffffffffffffffffffffffffffffff1614610978576040517f08c379a000000000000000000000000000000000000000000000000000000000815260040161096f90613380565b60405180910390fd5b610981816114a3565b50565b61099561098f61177e565b8261183f565b6109d4576040517f08c379a00000000000000000000000000000000000000000000000000000000081526004016109cb90613400565b60405180910390fd5b6109df83838361191d565b505050565b60095481565b610a05838383604051806020016040528060008152506112f5565b505050565b610a1b610a1561177e565b8261183f565b610a5a576040517f08c379a0000000000000000000000000000000000000000000000000000000008152600401610a5190613420565b60405180910390fd5b610a6381611b79565b50565b6000600a6000610a7461177e565b73ffffffffffffffffffffffffffffffffffffffff1673ffffffffffffffffffffffffffffffffffffffff16815260200190815260200160002060009054906101000a900460ff16610afb576040517f08c379a0000000000000000000000000000000000000000000000000000000008152600401610af290613320565b60405180910390fd5b6009548814610b3f576040517f08c379a0000000000000000000000000000000000000000000000000000000008152600401610b3690613280565b60405180910390fd5b6000610b4b6008611c8a565b9050808814610b8f576040517f08c379a0000000000000000000000000000000000000000000000000000000008152600401610b8690613200565b60405180910390fd5b610b998789611c98565b60405180608001604052808781526020018681526020018560000b81526020018460ff16815250600b60008a8152602001908152602001600020600082015181600001556020820151816001015560408201518160020160006101000a81548160ff021916908360000b60ff16021790555060608201518160020160016101000a81548160ff021916908360ff160217905550905050610c396008611692565b878773ffffffffffffffffffffffffffffffffffffffff167f12037fe5dc79c60c9a1ae2607ce17ee8840855d888571f99bc0b178a9d1f1e2b88888888600954604051610c8a9594939291906134a0565b60405180910390a36001915050979650505050505050565b610caa61177e565b73ffffffffffffffffffffffffffffffffffffffff16610cc8611001565b73ffffffffffffffffffffffffffffffffffffffff1614610d1e576040517f08c379a0000000000000000000000000000000000000000000000000000000008152600401610d1590613380565b60405180910390fd5b8060079080519060200190610d349291906123ef565b5050565b6000806002600084815260200190815260200160002060009054906101000a900473ffffffffffffffffffffffffffffffffffffffff169050600073ffffffffffffffffffffffffffffffffffffffff168173ffffffffffffffffffffffffffffffffffffffff161415610de1576040517f08c379a0000000000000000000000000000000000000000000000000000000008152600401610dd890613300565b60405180910390fd5b80915050919050565b60008073ffffffffffffffffffffffffffffffffffffffff168273ffffffffffffffffffffffffffffffffffffffff161415610e5b576040517f08c379a0000000000000000000000000000000000000000000000000000000008152600401610e52906132e0565b60405180910390fd5b600360008373ffffffffffffffffffffffffffffffffffffffff1673ffffffffffffffffffffffffffffffffffffffff168152602001908152602001600020549050919050565b610eaa61177e565b73ffffffffffffffffffffffffffffffffffffffff16610ec8611001565b73ffffffffffffffffffffffffffffffffffffffff1614610f1e576040517f08c379a0000000000000000000000000000000000000000000000000000000008152600401610f1590613380565b60405180910390fd5b610f286000611cb6565b565b610f3261177e565b73ffffffffffffffffffffffffffffffffffffffff16610f50611001565b73ffffffffffffffffffffffffffffffffffffffff1614610fa6576040517f08c379a0000000000000000000000000000000000000000000000000000000008152600401610f9d90613380565b60405180910390fd5b6000600a60008373ffffffffffffffffffffffffffffffffffffffff1673ffffffffffffffffffffffffffffffffffffffff16815260200190815260200160002060006101000a81548160ff02191690831515021790555050565b6000600660009054906101000a900473ffffffffffffffffffffffffffffffffffffffff16905090565b60606001805461103a9061376d565b80601f01602080910402602001604051908101604052809291908181526020018280546110669061376d565b80156110b35780601f10611088576101008083540402835291602001916110b3565b820191906000526020600020905b81548152906001019060200180831161109657829003601f168201915b5050505050905090565b6000600b6000838152602001908152602001600020600101549050919050565b6000600b600083815260200190815260200160002060020160019054906101000a900460ff169050919050565b6000600b6000838152602001908152602001600020600001549050919050565b61113261177e565b73ffffffffffffffffffffffffffffffffffffffff168273ffffffffffffffffffffffffffffffffffffffff1614156111a0576040517f08c379a000000000000000000000000000000000000000000000000000000000815260040161119790613260565b60405180910390fd5b80600560006111ad61177e565b73ffffffffffffffffffffffffffffffffffffffff1673ffffffffffffffffffffffffffffffffffffffff16815260200190815260200160002060008473ffffffffffffffffffffffffffffffffffffffff1673ffffffffffffffffffffffffffffffffffffffff16815260200190815260200160002060006101000a81548160ff0219169083151502179055508173ffffffffffffffffffffffffffffffffffffffff1661125a61177e565b73ffffffffffffffffffffffffffffffffffffffff167f17307eab39ab6107e8899845ad3d59bd9653f200f220920489ca2b5937696c318360405161129f9190613183565b60405180910390a35050565b600b6020528060005260406000206000915090508060000154908060010154908060020160009054906101000a900460000b908060020160019054906101000a900460ff16905084565b61130661130061177e565b8361183f565b611345576040517f08c379a000000000000000000000000000000000000000000000000000000000815260040161133c90613400565b60405180910390fd5b61135184848484611d7c565b50505050565b606061136282611712565b6113a1576040517f08c379a0000000000000000000000000000000000000000000000000000000008152600401611398906133c0565b60405180910390fd5b60006113ab611dd8565b905060008151116113cb57604051806020016040528060008152506113f6565b806113d584611e6a565b6040516020016113e69291906130f8565b6040516020818303038152906040525b915050919050565b600061140a6008611c8a565b905090565b6000600560008473ffffffffffffffffffffffffffffffffffffffff1673ffffffffffffffffffffffffffffffffffffffff16815260200190815260200160002060008373ffffffffffffffffffffffffffffffffffffffff1673ffffffffffffffffffffffffffffffffffffffff16815260200190815260200160002060009054906101000a900460ff16905092915050565b6114ab61177e565b73ffffffffffffffffffffffffffffffffffffffff166114c9611001565b73ffffffffffffffffffffffffffffffffffffffff161461151f576040517f08c379a000000000000000000000000000000000000000000000000000000000815260040161151690613380565b60405180910390fd5b600073ffffffffffffffffffffffffffffffffffffffff168173ffffffffffffffffffffffffffffffffffffffff16141561158f576040517f08c379a0000000000000000000000000000000000000000000000000000000008152600401611586906131e0565b60405180910390fd5b61159881611cb6565b50565b600a6020528060005260406000206000915054906101000a900460ff1681565b6115c361177e565b73ffffffffffffffffffffffffffffffffffffffff166115e1611001565b73ffffffffffffffffffffffffffffffffffffffff1614611637576040517f08c379a000000000000000000000000000000000000000000000000000000000815260040161162e90613380565b60405180910390fd5b6001600a60008373ffffffffffffffffffffffffffffffffffffffff1673ffffffffffffffffffffffffffffffffffffffff16815260200190815260200160002060006101000a81548160ff02191690831515021790555050565b6001816000016000828254019250508190555050565b60007f01ffc9a7000000000000000000000000000000000000000000000000000000007bffffffffffffffffffffffffffffffffffffffffffffffffffffffff1916827bffffffffffffffffffffffffffffffffffffffffffffffffffffffff1916149050919050565b60008073ffffffffffffffffffffffffffffffffffffffff166002600084815260200190815260200160002060009054906101000a900473ffffffffffffffffffffffffffffffffffffffff1673ffffffffffffffffffffffffffffffffffffffff1614159050919050565b600033905090565b816004600083815260200190815260200160002060006101000a81548173ffffffffffffffffffffffffffffffffffffffff021916908373ffffffffffffffffffffffffffffffffffffffff160217905550808273ffffffffffffffffffffffffffffffffffffffff166117f983610d38565b73ffffffffffffffffffffffffffffffffffffffff167f8c5be1e5ebec7d5bd14f71427d1e84f3dd0314c0f7b2291e5b200ac8c7c3b92560405160405180910390a45050565b600061184a82611712565b611889576040517f08c379a0000000000000000000000000000000000000000000000000000000008152600401611880906132a0565b60405180910390fd5b600061189483610d38565b90508073ffffffffffffffffffffffffffffffffffffffff168473ffffffffffffffffffffffffffffffffffffffff16148061190357508373ffffffffffffffffffffffffffffffffffffffff166118eb8461075f565b73ffffffffffffffffffffffffffffffffffffffff16145b806119145750611913818561140f565b5b91505092915050565b8273ffffffffffffffffffffffffffffffffffffffff1661193d82610d38565b73ffffffffffffffffffffffffffffffffffffffff1614611993576040517f08c379a000000000000000000000000000000000000000000000000000000000815260040161198a906133a0565b60405180910390fd5b600073ffffffffffffffffffffffffffffffffffffffff168273ffffffffffffffffffffffffffffffffffffffff161415611a03576040517f08c379a00000000000000000000000000000000000000000000000000000000081526004016119fa90613240565b60405180910390fd5b611a0e838383612017565b611a19600082611786565b6001600360008573ffffffffffffffffffffffffffffffffffffffff1673ffffffffffffffffffffffffffffffffffffffff1681526020019081526020016000206000828254611a699190613669565b925050819055506001600360008473ffffffffffffffffffffffffffffffffffffffff1673ffffffffffffffffffffffffffffffffffffffff1681526020019081526020016000206000828254611ac091906135e2565b92505081905550816002600083815260200190815260200160002060006101000a81548173ffffffffffffffffffffffffffffffffffffffff021916908373ffffffffffffffffffffffffffffffffffffffff160217905550808273ffffffffffffffffffffffffffffffffffffffff168473ffffffffffffffffffffffffffffffffffffffff167fddf252ad1be2c89b69c2b068fc378daa952ba7f163c4a11628f55a4df523b3ef60405160405180910390a4505050565b6000611b8482610d38565b9050611b9281600084612017565b611b9d600083611786565b6001600360008373ffffffffffffffffffffffffffffffffffffffff1673ffffffffffffffffffffffffffffffffffffffff1681526020019081526020016000206000828254611bed9190613669565b925050819055506002600083815260200190815260200160002060006101000a81549073ffffffffffffffffffffffffffffffffffffffff021916905581600073ffffffffffffffffffffffffffffffffffffffff168273ffffffffffffffffffffffffffffffffffffffff167fddf252ad1be2c89b69c2b068fc378daa952ba7f163c4a11628f55a4df523b3ef60405160405180910390a45050565b600081600001549050919050565b611cb282826040518060200160405280600081525061201c565b5050565b6000600660009054906101000a900473ffffffffffffffffffffffffffffffffffffffff16905081600660006101000a81548173ffffffffffffffffffffffffffffffffffffffff021916908373ffffffffffffffffffffffffffffffffffffffff1602179055508173ffffffffffffffffffffffffffffffffffffffff168173ffffffffffffffffffffffffffffffffffffffff167f8be0079c531659141344cd1fd0a4f28419497f9722a3daafe3b4186f6b6457e060405160405180910390a35050565b611d8784848461191d565b611d9384848484612077565b611dd2576040517f08c379a0000000000000000000000000000000000000000000000000000000008152600401611dc9906131c0565b60405180910390fd5b50505050565b606060078054611de79061376d565b80601f0160208091040260200160405190810160405280929190818152602001828054611e139061376d565b8015611e605780601f10611e3557610100808354040283529160200191611e60565b820191906000526020600020905b815481529060010190602001808311611e4357829003601f168201915b5050505050905090565b60606000821415611eb2576040518060400160405280600181526020017f30000000000000000000000000000000000000000000000000000000000000008152509050612012565b600082905060005b60008214611ee4578080611ecd9061379f565b915050600a82611edd9190613638565b9150611eba565b60008167ffffffffffffffff811115611f26577f4e487b7100000000000000000000000000000000000000000000000000000000600052604160045260246000fd5b6040519080825280601f01601f191660200182016040528015611f585781602001600182028036833780820191505090505b5090505b6000851461200b57600182611f719190613669565b9150600a85611f8091906137e8565b6030611f8c91906135e2565b60f81b818381518110611fc8577f4e487b7100000000000000000000000000000000000000000000000000000000600052603260045260246000fd5b60200101907effffffffffffffffffffffffffffffffffffffffffffffffffffffffffffff1916908160001a905350600a856120049190613638565b9450611f5c565b8093505050505b919050565b505050565b612026838361220e565b6120336000848484612077565b612072576040517f08c379a0000000000000000000000000000000000000000000000000000000008152600401612069906131c0565b60405180910390fd5b505050565b60006120988473ffffffffffffffffffffffffffffffffffffffff166123dc565b15612201578373ffffffffffffffffffffffffffffffffffffffff1663150b7a026120c161177e565b8786866040518563ffffffff1660e01b81526004016120e39493929190613137565b602060405180830381600087803b1580156120fd57600080fd5b505af192505050801561212e57506040513d601f19601f8201168201806040525081019061212b91906127c5565b60015b6121b1573d806000811461215e576040519150601f19603f3d011682016040523d82523d6000602084013e612163565b606091505b506000815114156121a9576040517f08c379a00000000000000000000000000000000000000000000000000000000081526004016121a0906131c0565b60405180910390fd5b805181602001fd5b63150b7a0260e01b7bffffffffffffffffffffffffffffffffffffffffffffffffffffffff1916817bffffffffffffffffffffffffffffffffffffffffffffffffffffffff191614915050612206565b600190505b949350505050565b600073ffffffffffffffffffffffffffffffffffffffff168273ffffffffffffffffffffffffffffffffffffffff16141561227e576040517f08c379a000000000000000000000000000000000000000000000000000000000815260040161227590613340565b60405180910390fd5b61228781611712565b156122c7576040517f08c379a00000000000000000000000000000000000000000000000000000000081526004016122be90613220565b60405180910390fd5b6122d360008383612017565b6001600360008473ffffffffffffffffffffffffffffffffffffffff1673ffffffffffffffffffffffffffffffffffffffff168152602001908152602001600020600082825461232391906135e2565b92505081905550816002600083815260200190815260200160002060006101000a81548173ffffffffffffffffffffffffffffffffffffffff021916908373ffffffffffffffffffffffffffffffffffffffff160217905550808273ffffffffffffffffffffffffffffffffffffffff16600073ffffffffffffffffffffffffffffffffffffffff167fddf252ad1be2c89b69c2b068fc378daa952ba7f163c4a11628f55a4df523b3ef60405160405180910390a45050565b600080823b905060008111915050919050565b8280546123fb9061376d565b90600052602060002090601f01602090048101928261241d5760008555612464565b82601f1061243657805160ff1916838001178555612464565b82800160010185558215612464579182015b82811115612463578251825591602001919060010190612448565b5b5090506124719190612475565b5090565b5b8082111561248e576000816000905550600101612476565b5090565b60006124a56124a08461353f565b61350e565b9050828152602081018484840111156124bd57600080fd5b6124c884828561372b565b509392505050565b60006124e36124de8461356f565b61350e565b9050828152602081018484840111156124fb57600080fd5b61250684828561372b565b509392505050565b60008135905061251d816138e6565b92915050565b600081359050612532816138fd565b92915050565b60008135905061254781613914565b92915050565b60008151905061255c81613914565b92915050565b600082601f83011261257357600080fd5b8135612583848260208601612492565b91505092915050565b60008135905061259b8161392b565b92915050565b600082601f8301126125b257600080fd5b81356125c28482602086016124d0565b91505092915050565b6000813590506125da81613942565b92915050565b6000813590506125ef81613959565b92915050565b60006020828403121561260757600080fd5b60006126158482850161250e565b91505092915050565b6000806040838503121561263157600080fd5b600061263f8582860161250e565b92505060206126508582860161250e565b9150509250929050565b60008060006060848603121561266f57600080fd5b600061267d8682870161250e565b935050602061268e8682870161250e565b925050604061269f868287016125cb565b9150509250925092565b600080600080608085870312156126bf57600080fd5b60006126cd8782880161250e565b94505060206126de8782880161250e565b93505060406126ef878288016125cb565b925050606085013567ffffffffffffffff81111561270c57600080fd5b61271887828801612562565b91505092959194509250565b6000806040838503121561273757600080fd5b60006127458582860161250e565b925050602061275685828601612523565b9150509250929050565b6000806040838503121561277357600080fd5b60006127818582860161250e565b9250506020612792858286016125cb565b9150509250929050565b6000602082840312156127ae57600080fd5b60006127bc84828501612538565b91505092915050565b6000602082840312156127d757600080fd5b60006127e58482850161254d565b91505092915050565b60006020828403121561280057600080fd5b600082013567ffffffffffffffff81111561281a57600080fd5b612826848285016125a1565b91505092915050565b60006020828403121561284157600080fd5b600061284f848285016125cb565b91505092915050565b600080600080600080600060e0888a03121561287357600080fd5b60006128818a828b016125cb565b97505060206128928a828b016125cb565b96505060406128a38a828b0161250e565b95505060606128b48a828b016125cb565b94505060806128c58a828b016125cb565b93505060a06128d68a828b0161258c565b92505060c06128e78a828b016125e0565b91505092959891949750929550565b6128ff8161369d565b82525050565b61290e816136af565b82525050565b600061291f8261359f565b61292981856135b5565b935061293981856020860161373a565b612942816138d5565b840191505092915050565b612956816136e7565b82525050565b6000612967826135aa565b61297181856135c6565b935061298181856020860161373a565b61298a816138d5565b840191505092915050565b60006129a0826135aa565b6129aa81856135d7565b93506129ba81856020860161373a565b80840191505092915050565b60006129d36032836135c6565b91507f4552433732313a207472616e7366657220746f206e6f6e20455243373231526560008301527f63656976657220696d706c656d656e74657200000000000000000000000000006020830152604082019050919050565b6000612a396026836135c6565b91507f4f776e61626c653a206e6577206f776e657220697320746865207a65726f206160008301527f64647265737300000000000000000000000000000000000000000000000000006020830152604082019050919050565b6000612a9f601c836135c6565b91507f4c69676874686f7573654e46543a20494e56414c49445f544f4b454e000000006000830152602082019050919050565b6000612adf601c836135c6565b91507f4552433732313a20746f6b656e20616c7265616479206d696e746564000000006000830152602082019050919050565b6000612b1f6024836135c6565b91507f4552433732313a207472616e7366657220746f20746865207a65726f2061646460008301527f72657373000000000000000000000000000000000000000000000000000000006020830152604082019050919050565b6000612b856019836135c6565b91507f4552433732313a20617070726f766520746f2063616c6c6572000000000000006000830152602082019050919050565b6000612bc5601f836135c6565b91507f4c69676874686f7573653a2050524f4a4543545f49445f4d49534d41544348006000830152602082019050919050565b6000612c05602c836135c6565b91507f4552433732313a206f70657261746f7220717565727920666f72206e6f6e657860008301527f697374656e7420746f6b656e00000000000000000000000000000000000000006020830152604082019050919050565b6000612c6b6038836135c6565b91507f4552433732313a20617070726f76652063616c6c6572206973206e6f74206f7760008301527f6e6572206e6f7220617070726f76656420666f7220616c6c00000000000000006020830152604082019050919050565b6000612cd1602a836135c6565b91507f4552433732313a2062616c616e636520717565727920666f7220746865207a6560008301527f726f2061646472657373000000000000000000000000000000000000000000006020830152604082019050919050565b6000612d376029836135c6565b91507f4552433732313a206f776e657220717565727920666f72206e6f6e657869737460008301527f656e7420746f6b656e00000000000000000000000000000000000000000000006020830152604082019050919050565b6000612d9d6032836135c6565b91507f5365617363617065204e46543a204f6e6c79204e465420466163746f7279206360008301527f616e2063616c6c20746865206d6574686f6400000000000000000000000000006020830152604082019050919050565b6000612e036020836135c6565b91507f4552433732313a206d696e7420746f20746865207a65726f20616464726573736000830152602082019050919050565b6000612e43602c836135c6565b91507f4552433732313a20617070726f76656420717565727920666f72206e6f6e657860008301527f697374656e7420746f6b656e00000000000000000000000000000000000000006020830152604082019050919050565b6000612ea96020836135c6565b91507f4f776e61626c653a2063616c6c6572206973206e6f7420746865206f776e65726000830152602082019050919050565b6000612ee96029836135c6565b91507f4552433732313a207472616e73666572206f6620746f6b656e2074686174206960008301527f73206e6f74206f776e00000000000000000000000000000000000000000000006020830152604082019050919050565b6000612f4f602f836135c6565b91507f4552433732314d657461646174613a2055524920717565727920666f72206e6f60008301527f6e6578697374656e7420746f6b656e00000000000000000000000000000000006020830152604082019050919050565b6000612fb56021836135c6565b91507f4552433732313a20617070726f76616c20746f2063757272656e74206f776e6560008301527f72000000000000000000000000000000000000000000000000000000000000006020830152604082019050919050565b600061301b6031836135c6565b91507f4552433732313a207472616e736665722063616c6c6572206973206e6f74206f60008301527f776e6572206e6f7220617070726f7665640000000000000000000000000000006020830152604082019050919050565b60006130816030836135c6565b91507f4552433732314275726e61626c653a2063616c6c6572206973206e6f74206f7760008301527f6e6572206e6f7220617070726f766564000000000000000000000000000000006020830152604082019050919050565b6130e381613714565b82525050565b6130f28161371e565b82525050565b60006131048285612995565b91506131108284612995565b91508190509392505050565b600060208201905061313160008301846128f6565b92915050565b600060808201905061314c60008301876128f6565b61315960208301866128f6565b61316660408301856130da565b81810360608301526131788184612914565b905095945050505050565b60006020820190506131986000830184612905565b92915050565b600060208201905081810360008301526131b8818461295c565b905092915050565b600060208201905081810360008301526131d9816129c6565b9050919050565b600060208201905081810360008301526131f981612a2c565b9050919050565b6000602082019050818103600083015261321981612a92565b9050919050565b6000602082019050818103600083015261323981612ad2565b9050919050565b6000602082019050818103600083015261325981612b12565b9050919050565b6000602082019050818103600083015261327981612b78565b9050919050565b6000602082019050818103600083015261329981612bb8565b9050919050565b600060208201905081810360008301526132b981612bf8565b9050919050565b600060208201905081810360008301526132d981612c5e565b9050919050565b600060208201905081810360008301526132f981612cc4565b9050919050565b6000602082019050818103600083015261331981612d2a565b9050919050565b6000602082019050818103600083015261333981612d90565b9050919050565b6000602082019050818103600083015261335981612df6565b9050919050565b6000602082019050818103600083015261337981612e36565b9050919050565b6000602082019050818103600083015261339981612e9c565b9050919050565b600060208201905081810360008301526133b981612edc565b9050919050565b600060208201905081810360008301526133d981612f42565b9050919050565b600060208201905081810360008301526133f981612fa8565b9050919050565b600060208201905081810360008301526134198161300e565b9050919050565b6000602082019050818103600083015261343981613074565b9050919050565b600060208201905061345560008301846130da565b92915050565b600060808201905061347060008301876130da565b61347d60208301866130da565b61348a604083018561294d565b61349760608301846130e9565b95945050505050565b600060a0820190506134b560008301886130da565b6134c260208301876130da565b6134cf604083018661294d565b6134dc60608301856130e9565b6134e960808301846130da565b9695505050505050565b600060208201905061350860008301846130e9565b92915050565b6000604051905081810181811067ffffffffffffffff82111715613535576135346138a6565b5b8060405250919050565b600067ffffffffffffffff82111561355a576135596138a6565b5b601f19601f8301169050602081019050919050565b600067ffffffffffffffff82111561358a576135896138a6565b5b601f19601f8301169050602081019050919050565b600081519050919050565b600081519050919050565b600082825260208201905092915050565b600082825260208201905092915050565b600081905092915050565b60006135ed82613714565b91506135f883613714565b9250827fffffffffffffffffffffffffffffffffffffffffffffffffffffffffffffffff0382111561362d5761362c613819565b5b828201905092915050565b600061364382613714565b915061364e83613714565b92508261365e5761365d613848565b5b828204905092915050565b600061367482613714565b915061367f83613714565b92508282101561369257613691613819565b5b828203905092915050565b60006136a8826136f4565b9050919050565b60008115159050919050565b60007fffffffff0000000000000000000000000000000000000000000000000000000082169050919050565b60008160000b9050919050565b600073ffffffffffffffffffffffffffffffffffffffff82169050919050565b6000819050919050565b600060ff82169050919050565b82818337600083830152505050565b60005b8381101561375857808201518184015260208101905061373d565b83811115613767576000848401525b50505050565b6000600282049050600182168061378557607f821691505b6020821081141561379957613798613877565b5b50919050565b60006137aa82613714565b91507fffffffffffffffffffffffffffffffffffffffffffffffffffffffffffffffff8214156137dd576137dc613819565b5b600182019050919050565b60006137f382613714565b91506137fe83613714565b92508261380e5761380d613848565b5b828206905092915050565b7f4e487b7100000000000000000000000000000000000000000000000000000000600052601160045260246000fd5b7f4e487b7100000000000000000000000000000000000000000000000000000000600052601260045260246000fd5b7f4e487b7100000000000000000000000000000000000000000000000000000000600052602260045260246000fd5b7f4e487b7100000000000000000000000000000000000000000000000000000000600052604160045260246000fd5b6000601f19601f8301169050919050565b6138ef8161369d565b81146138fa57600080fd5b50565b613906816136af565b811461391157600080fd5b50565b61391d816136bb565b811461392857600080fd5b50565b613934816136e7565b811461393f57600080fd5b50565b61394b81613714565b811461395657600080fd5b50565b6139628161371e565b811461396d57600080fd5b5056fea2646970667358221220b7f9f92c29996ce343a37b31bddae9b8113581cbfff1a567ceb03507a66d5dc764736f6c63430008000033",
  "linkReferences": {},
  "deployedLinkReferences": {}
}