{
  "_format": "hh-sol-artifact-1",
  "contractName": "LighthouseMint",
  "sourceName": "contracts/LighthouseMint.sol",
  "abi": [
    {
      "inputs": [
        {
          "internalType": "address",
          "name": "_lighthouseAuction",
          "type": "address"
        },
        {
          "internalType": "address",
          "name": "_lighthousePrefund",
          "type": "address"
        },
        {
          "internalType": "address",
          "name": "_lighthouseTier",
          "type": "address"
        },
        {
          "internalType": "address",
          "name": "_project",
          "type": "address"
        },
        {
          "internalType": "address",
          "name": "_crowns",
          "type": "address"
        },
        {
          "internalType": "uint256",
          "name": "_chainID",
          "type": "uint256"
        }
      ],
      "stateMutability": "nonpayable",
      "type": "constructor"
    },
    {
      "anonymous": false,
      "inputs": [
        {
          "indexed": true,
          "internalType": "uint256",
          "name": "projectId",
          "type": "uint256"
        },
        {
          "indexed": true,
          "internalType": "address",
          "name": "nft",
          "type": "address"
        },
        {
          "indexed": true,
          "internalType": "uint256",
          "name": "nftId",
          "type": "uint256"
        },
        {
          "indexed": false,
          "internalType": "address",
          "name": "owner",
          "type": "address"
        },
        {
          "indexed": false,
          "internalType": "uint256",
          "name": "allocation",
          "type": "uint256"
        },
        {
          "indexed": false,
          "internalType": "uint256",
          "name": "compensation",
          "type": "uint256"
        },
        {
          "indexed": false,
          "internalType": "int256",
          "name": "tierLevel",
          "type": "int256"
        },
        {
          "indexed": false,
          "internalType": "uint8",
          "name": "mintType",
          "type": "uint8"
        }
      ],
      "name": "Mint",
      "type": "event"
    },
    {
      "anonymous": false,
      "inputs": [
        {
          "indexed": true,
          "internalType": "address",
          "name": "previousOwner",
          "type": "address"
        },
        {
          "indexed": true,
          "internalType": "address",
          "name": "newOwner",
          "type": "address"
        }
      ],
      "name": "OwnershipTransferred",
      "type": "event"
    },
    {
      "inputs": [
        {
          "internalType": "uint256",
          "name": "projectId",
          "type": "uint256"
        },
        {
          "internalType": "address",
          "name": "investor",
          "type": "address"
        }
      ],
      "name": "allocationCompensation",
      "outputs": [
        {
          "internalType": "uint256",
          "name": "",
          "type": "uint256"
        },
        {
          "internalType": "uint256",
          "name": "",
          "type": "uint256"
        },
        {
          "internalType": "int8",
          "name": "",
          "type": "int8"
        },
        {
          "internalType": "uint8",
          "name": "",
          "type": "uint8"
        }
      ],
      "stateMutability": "view",
      "type": "function"
    },
    {
      "inputs": [
        {
          "internalType": "uint256",
          "name": "projectId",
          "type": "uint256"
        },
        {
          "internalType": "uint8",
          "name": "v",
          "type": "uint8"
        },
        {
          "internalType": "bytes32[2]",
          "name": "sig",
          "type": "bytes32[2]"
        }
      ],
      "name": "mint",
      "outputs": [],
      "stateMutability": "nonpayable",
      "type": "function"
    },
    {
      "inputs": [
        {
          "internalType": "uint256",
          "name": "",
          "type": "uint256"
        },
        {
          "internalType": "address",
          "name": "",
          "type": "address"
        }
      ],
      "name": "mintedNfts",
      "outputs": [
        {
          "internalType": "uint256",
          "name": "",
          "type": "uint256"
        }
      ],
      "stateMutability": "view",
      "type": "function"
    },
    {
      "inputs": [],
      "name": "owner",
      "outputs": [
        {
          "internalType": "address",
          "name": "",
          "type": "address"
        }
      ],
      "stateMutability": "view",
      "type": "function"
    },
    {
      "inputs": [],
      "name": "renounceOwnership",
      "outputs": [],
      "stateMutability": "nonpayable",
      "type": "function"
    },
    {
      "inputs": [
        {
          "internalType": "address",
          "name": "newTier",
          "type": "address"
        }
      ],
      "name": "setLighthouseTier",
      "outputs": [],
      "stateMutability": "nonpayable",
      "type": "function"
    },
    {
      "inputs": [
        {
          "internalType": "address",
          "name": "newOwner",
          "type": "address"
        }
      ],
      "name": "transferOwnership",
      "outputs": [],
      "stateMutability": "nonpayable",
      "type": "function"
    }
  ],
  "bytecode": "0x60806040523480156200001157600080fd5b5060405162002b6a38038062002b6a833981810160405281019062000037919062000404565b620000576200004b6200030a60201b60201c565b6200031260201b60201c565b600073ffffffffffffffffffffffffffffffffffffffff168673ffffffffffffffffffffffffffffffffffffffff1614158015620000c25750600073ffffffffffffffffffffffffffffffffffffffff168273ffffffffffffffffffffffffffffffffffffffff1614155b8015620000fc5750600073ffffffffffffffffffffffffffffffffffffffff168573ffffffffffffffffffffffffffffffffffffffff1614155b8015620001365750600073ffffffffffffffffffffffffffffffffffffffff168473ffffffffffffffffffffffffffffffffffffffff1614155b8015620001705750600073ffffffffffffffffffffffffffffffffffffffff168373ffffffffffffffffffffffffffffffffffffffff1614155b620001b2576040517f08c379a0000000000000000000000000000000000000000000000000000000008152600401620001a990620004dc565b60405180910390fd5b85600160006101000a81548173ffffffffffffffffffffffffffffffffffffffff021916908373ffffffffffffffffffffffffffffffffffffffff16021790555084600260006101000a81548173ffffffffffffffffffffffffffffffffffffffff021916908373ffffffffffffffffffffffffffffffffffffffff16021790555083600360006101000a81548173ffffffffffffffffffffffffffffffffffffffff021916908373ffffffffffffffffffffffffffffffffffffffff16021790555082600460006101000a81548173ffffffffffffffffffffffffffffffffffffffff021916908373ffffffffffffffffffffffffffffffffffffffff16021790555081600560006101000a81548173ffffffffffffffffffffffffffffffffffffffff021916908373ffffffffffffffffffffffffffffffffffffffff1602179055508060068190555050505050505062000581565b600033905090565b60008060009054906101000a900473ffffffffffffffffffffffffffffffffffffffff169050816000806101000a81548173ffffffffffffffffffffffffffffffffffffffff021916908373ffffffffffffffffffffffffffffffffffffffff1602179055508173ffffffffffffffffffffffffffffffffffffffff168173ffffffffffffffffffffffffffffffffffffffff167f8be0079c531659141344cd1fd0a4f28419497f9722a3daafe3b4186f6b6457e060405160405180910390a35050565b600081519050620003e7816200054d565b92915050565b600081519050620003fe8162000567565b92915050565b60008060008060008060c087890312156200041e57600080fd5b60006200042e89828a01620003d6565b96505060206200044189828a01620003d6565b95505060406200045489828a01620003d6565b94505060606200046789828a01620003d6565b93505060806200047a89828a01620003d6565b92505060a06200048d89828a01620003ed565b9150509295509295509295565b6000620004a9601883620004fe565b91507f4c69676874686f7573653a205a45524f5f4144445245535300000000000000006000830152602082019050919050565b60006020820190508181036000830152620004f7816200049a565b9050919050565b600082825260208201905092915050565b60006200051c8262000523565b9050919050565b600073ffffffffffffffffffffffffffffffffffffffff82169050919050565b6000819050919050565b62000558816200050f565b81146200056457600080fd5b50565b620005728162000543565b81146200057e57600080fd5b50565b6125d980620005916000396000f3fe608060405234801561001057600080fd5b506004361061007d5760003560e01c8063aee7a1ef1161005b578063aee7a1ef146100dd578063da8e78fd146100f9578063deab84d914610129578063f2fde38b146101455761007d565b8063361bd15e14610082578063715018a6146100b55780638da5cb5b146100bf575b600080fd5b61009c60048036038101906100979190611b32565b610161565b6040516100ac9493929190612383565b60405180910390f35b6100bd6107c8565b005b6100c7610850565b6040516100d49190612094565b60405180910390f35b6100f760048036038101906100f29190611a65565b610879565b005b610113600480360381019061010e9190611b32565b610939565b60405161012091906122a7565b60405180910390f35b610143600480360381019061013e9190611be6565b61095e565b005b61015f600480360381019061015a9190611a65565b61158c565b005b6000806000806000600460009054906101000a900473ffffffffffffffffffffffffffffffffffffffff1673ffffffffffffffffffffffffffffffffffffffff1663777de704886040518263ffffffff1660e01b81526004016101c491906122a7565b60206040518083038186803b1580156101dc57600080fd5b505afa1580156101f0573d6000803e3d6000fd5b505050506040513d601f19601f820116820180604052508101906102149190611b09565b905080421180610275575060006007600089815260200190815260200160002060008873ffffffffffffffffffffffffffffffffffffffff1673ffffffffffffffffffffffffffffffffffffffff1681526020019081526020016000205414155b806103285750600460009054906101000a900473ffffffffffffffffffffffffffffffffffffffff1673ffffffffffffffffffffffffffffffffffffffff16631b4ead45886040518263ffffffff1660e01b81526004016102d691906122a7565b60206040518083038186803b1580156102ee57600080fd5b505afa158015610302573d6000803e3d6000fd5b505050506040513d601f19601f820116820180604052508101906103269190611ab7565b155b806103db5750600460009054906101000a900473ffffffffffffffffffffffffffffffffffffffff1673ffffffffffffffffffffffffffffffffffffffff16630f784943886040518263ffffffff1660e01b815260040161038991906122a7565b60206040518083038186803b1580156103a157600080fd5b505afa1580156103b5573d6000803e3d6000fd5b505050506040513d601f19601f820116820180604052508101906103d99190611ab7565b155b15610414576000807ffffffffffffffffffffffffffffffffffffffffffffffffffffffffffffffffe60009450945094509450506107bf565b6000600260009054906101000a900473ffffffffffffffffffffffffffffffffffffffff1673ffffffffffffffffffffffffffffffffffffffff166302deed0389896040518363ffffffff1660e01b81526004016104739291906122c2565b60206040518083038186803b15801561048b57600080fd5b505afa15801561049f573d6000803e3d6000fd5b505050506040513d601f19601f820116820180604052508101906104c39190611ab7565b90506000600160009054906101000a900473ffffffffffffffffffffffffffffffffffffffff1673ffffffffffffffffffffffffffffffffffffffff16639eefc7b18a8a6040518363ffffffff1660e01b81526004016105249291906122c2565b60206040518083038186803b15801561053c57600080fd5b505afa158015610550573d6000803e3d6000fd5b505050506040513d601f19601f820116820180604052508101906105749190611b09565b90508115806105835750600081145b156105be576000807ffffffffffffffffffffffffffffffffffffffffffffffffffffffffffffffffd600096509650965096505050506107bf565b6000600360009054906101000a900473ffffffffffffffffffffffffffffffffffffffff1673ffffffffffffffffffffffffffffffffffffffff166328fc4c3c8a6040518263ffffffff1660e01b815260040161061b9190612094565b60206040518083038186803b15801561063357600080fd5b505afa158015610647573d6000803e3d6000fd5b505050506040513d601f19601f8201168201806040525081019061066b9190611ae0565b905060008160000b1361072857600260009054906101000a900473ffffffffffffffffffffffffffffffffffffffff1673ffffffffffffffffffffffffffffffffffffffff1663280362568b8b6040518363ffffffff1660e01b81526004016106d59291906122c2565b60206040518083038186803b1580156106ed57600080fd5b505afa158015610701573d6000803e3d6000fd5b505050506040513d601f19601f820116820180604052508101906107259190611ae0565b90505b60008160000b1361076e576040517f08c379a000000000000000000000000000000000000000000000000000000000815260040161076590612267565b60405180910390fd5b6000600190506000808515610794576107878d85611684565b80925081935050506107ab565b600292506107a28d8661180f565b80925081935050505b818185859a509a509a509a50505050505050505b92959194509250565b6107d06118e8565b73ffffffffffffffffffffffffffffffffffffffff166107ee610850565b73ffffffffffffffffffffffffffffffffffffffff1614610844576040517f08c379a000000000000000000000000000000000000000000000000000000000815260040161083b90612247565b60405180910390fd5b61084e60006118f0565b565b60008060009054906101000a900473ffffffffffffffffffffffffffffffffffffffff16905090565b6108816118e8565b73ffffffffffffffffffffffffffffffffffffffff1661089f610850565b73ffffffffffffffffffffffffffffffffffffffff16146108f5576040517f08c379a00000000000000000000000000000000000000000000000000000000081526004016108ec90612247565b60405180910390fd5b80600360006101000a81548173ffffffffffffffffffffffffffffffffffffffff021916908373ffffffffffffffffffffffffffffffffffffffff16021790555050565b6007602052816000526040600020602052806000526040600020600091509150505481565b6000600460009054906101000a900473ffffffffffffffffffffffffffffffffffffffff1673ffffffffffffffffffffffffffffffffffffffff1663777de704856040518263ffffffff1660e01b81526004016109bb91906122a7565b60206040518083038186803b1580156109d357600080fd5b505afa1580156109e7573d6000803e3d6000fd5b505050506040513d601f19601f82011682018060405250810190610a0b9190611b09565b9050804211610a4f576040517f08c379a0000000000000000000000000000000000000000000000000000000008152600401610a46906121c7565b60405180910390fd5b60006007600086815260200190815260200160002060003373ffffffffffffffffffffffffffffffffffffffff1673ffffffffffffffffffffffffffffffffffffffff1681526020019081526020016000205414610ae2576040517f08c379a0000000000000000000000000000000000000000000000000000000008152600401610ad990612207565b60405180910390fd5b600460009054906101000a900473ffffffffffffffffffffffffffffffffffffffff1673ffffffffffffffffffffffffffffffffffffffff16631b4ead45856040518263ffffffff1660e01b8152600401610b3d91906122a7565b60206040518083038186803b158015610b5557600080fd5b505afa158015610b69573d6000803e3d6000fd5b505050506040513d601f19601f82011682018060405250810190610b8d9190611ab7565b610bcc576040517f08c379a0000000000000000000000000000000000000000000000000000000008152600401610bc390612287565b60405180910390fd5b600460009054906101000a900473ffffffffffffffffffffffffffffffffffffffff1673ffffffffffffffffffffffffffffffffffffffff16630f784943856040518263ffffffff1660e01b8152600401610c2791906122a7565b60206040518083038186803b158015610c3f57600080fd5b505afa158015610c53573d6000803e3d6000fd5b505050506040513d601f19601f82011682018060405250810190610c779190611ab7565b610cb6576040517f08c379a0000000000000000000000000000000000000000000000000000000008152600401610cad906121e7565b60405180910390fd5b6000600260009054906101000a900473ffffffffffffffffffffffffffffffffffffffff1673ffffffffffffffffffffffffffffffffffffffff166302deed0386336040518363ffffffff1660e01b8152600401610d159291906122c2565b60206040518083038186803b158015610d2d57600080fd5b505afa158015610d41573d6000803e3d6000fd5b505050506040513d601f19601f82011682018060405250810190610d659190611ab7565b90506000600160009054906101000a900473ffffffffffffffffffffffffffffffffffffffff1673ffffffffffffffffffffffffffffffffffffffff16639eefc7b187336040518363ffffffff1660e01b8152600401610dc69291906122c2565b60206040518083038186803b158015610dde57600080fd5b505afa158015610df2573d6000803e3d6000fd5b505050506040513d601f19601f82011682018060405250810190610e169190611b09565b90508180610e245750600081115b610e63576040517f08c379a0000000000000000000000000000000000000000000000000000000008152600401610e5a90612227565b60405180910390fd5b6000333060065489604051602001610e7e9493929190612020565b60405160208183030381529060405280519060200120604051602001610ea4919061206e565b604051602081830303815290604052805190602001209050600460009054906101000a900473ffffffffffffffffffffffffffffffffffffffff1673ffffffffffffffffffffffffffffffffffffffff1663b60da0856040518163ffffffff1660e01b815260040160206040518083038186803b158015610f2457600080fd5b505afa158015610f38573d6000803e3d6000fd5b505050506040513d601f19601f82011682018060405250810190610f5c9190611a8e565b73ffffffffffffffffffffffffffffffffffffffff166001828888600060028110610fb0577f4e487b7100000000000000000000000000000000000000000000000000000000600052603260045260246000fd5b602002013589600160028110610fef577f4e487b7100000000000000000000000000000000000000000000000000000000600052603260045260246000fd5b6020020135604051600081526020016040526040516110119493929190612102565b6020604051602081039080840390855afa158015611033573d6000803e3d6000fd5b5050506020604051035173ffffffffffffffffffffffffffffffffffffffff1614611093576040517f08c379a000000000000000000000000000000000000000000000000000000000815260040161108a906121a7565b60405180910390fd5b506000600360009054906101000a900473ffffffffffffffffffffffffffffffffffffffff1673ffffffffffffffffffffffffffffffffffffffff166328fc4c3c336040518263ffffffff1660e01b81526004016110f19190612094565b60206040518083038186803b15801561110957600080fd5b505afa15801561111d573d6000803e3d6000fd5b505050506040513d601f19601f820116820180604052508101906111419190611ae0565b905060008160000b136111fe57600260009054906101000a900473ffffffffffffffffffffffffffffffffffffffff1673ffffffffffffffffffffffffffffffffffffffff16632803625688336040518363ffffffff1660e01b81526004016111ab9291906122c2565b60206040518083038186803b1580156111c357600080fd5b505afa1580156111d7573d6000803e3d6000fd5b505050506040513d601f19601f820116820180604052508101906111fb9190611ae0565b90505b60008160000b13611244576040517f08c379a000000000000000000000000000000000000000000000000000000000815260040161123b90612267565b60405180910390fd5b600060019050600080851561126a5761125d8a85611684565b8092508193505050611281565b600292506112788a8661180f565b80925081935050505b6000600460009054906101000a900473ffffffffffffffffffffffffffffffffffffffff1673ffffffffffffffffffffffffffffffffffffffff16639d0214cb8c6040518263ffffffff1660e01b81526004016112de91906122a7565b60206040518083038186803b1580156112f657600080fd5b505afa15801561130a573d6000803e3d6000fd5b505050506040513d601f19601f8201168201806040525081019061132e9190611a8e565b9050600081905060008173ffffffffffffffffffffffffffffffffffffffff1663caa0f92a6040518163ffffffff1660e01b815260040160206040518083038186803b15801561137d57600080fd5b505afa158015611391573d6000803e3d6000fd5b505050506040513d601f19601f820116820180604052508101906113b59190611b09565b9050600081116113fa576040517f08c379a00000000000000000000000000000000000000000000000000000000081526004016113f190612147565b60405180910390fd5b8173ffffffffffffffffffffffffffffffffffffffff166353f036c78e833389898d8d6040518863ffffffff1660e01b815260040161143f9796959493929190612314565b602060405180830381600087803b15801561145957600080fd5b505af115801561146d573d6000803e3d6000fd5b505050506040513d601f19601f820116820180604052508101906114919190611ab7565b6114d0576040517f08c379a00000000000000000000000000000000000000000000000000000000081526004016114c790612187565b60405180910390fd5b80600760008f815260200190815260200160002060003373ffffffffffffffffffffffffffffffffffffffff1673ffffffffffffffffffffffffffffffffffffffff16815260200190815260200160002081905550808373ffffffffffffffffffffffffffffffffffffffff168e7f814b8e38d6559734e60dd56602a6ed5e2a6a30e19bc976c6c326420b48fe1aae3389898d8d6040516115759594939291906120af565b60405180910390a450505050505050505050505050565b6115946118e8565b73ffffffffffffffffffffffffffffffffffffffff166115b2610850565b73ffffffffffffffffffffffffffffffffffffffff1614611608576040517f08c379a00000000000000000000000000000000000000000000000000000000081526004016115ff90612247565b60405180910390fd5b600073ffffffffffffffffffffffffffffffffffffffff168173ffffffffffffffffffffffffffffffffffffffff161415611678576040517f08c379a000000000000000000000000000000000000000000000000000000000815260040161166f90612167565b60405180910390fd5b611681816118f0565b50565b600080600080600460009054906101000a900473ffffffffffffffffffffffffffffffffffffffff1673ffffffffffffffffffffffffffffffffffffffff1663b47e9f3e876040518263ffffffff1660e01b81526004016116e591906122a7565b604080518083038186803b1580156116fc57600080fd5b505afa158015611710573d6000803e3d6000fd5b505050506040513d601f19601f820116820180604052508101906117349190611baa565b915091506000600460009054906101000a900473ffffffffffffffffffffffffffffffffffffffff1673ffffffffffffffffffffffffffffffffffffffff1663b5f5cf7088886040518363ffffffff1660e01b81526004016117979291906122eb565b604080518083038186803b1580156117ae57600080fd5b505afa1580156117c2573d6000803e3d6000fd5b505050506040513d601f19601f820116820180604052508101906117e69190611b6e565b50905080836117f591906123e4565b818361180191906123e4565b945094505050509250929050565b600080600080600460009054906101000a900473ffffffffffffffffffffffffffffffffffffffff1673ffffffffffffffffffffffffffffffffffffffff16639922a1d5876040518263ffffffff1660e01b815260040161187091906122a7565b604080518083038186803b15801561188757600080fd5b505afa15801561189b573d6000803e3d6000fd5b505050506040513d601f19601f820116820180604052508101906118bf9190611baa565b9150915084826118cf91906123e4565b85826118db91906123e4565b9350935050509250929050565b600033905090565b60008060009054906101000a900473ffffffffffffffffffffffffffffffffffffffff169050816000806101000a81548173ffffffffffffffffffffffffffffffffffffffff021916908373ffffffffffffffffffffffffffffffffffffffff1602179055508173ffffffffffffffffffffffffffffffffffffffff168173ffffffffffffffffffffffffffffffffffffffff167f8be0079c531659141344cd1fd0a4f28419497f9722a3daafe3b4186f6b6457e060405160405180910390a35050565b6000813590506119c381612530565b92915050565b6000815190506119d881612530565b92915050565b6000819050826020600202820111156119f657600080fd5b92915050565b600081519050611a0b81612547565b92915050565b600081519050611a208161255e565b92915050565b600081359050611a3581612575565b92915050565b600081519050611a4a81612575565b92915050565b600081359050611a5f8161258c565b92915050565b600060208284031215611a7757600080fd5b6000611a85848285016119b4565b91505092915050565b600060208284031215611aa057600080fd5b6000611aae848285016119c9565b91505092915050565b600060208284031215611ac957600080fd5b6000611ad7848285016119fc565b91505092915050565b600060208284031215611af257600080fd5b6000611b0084828501611a11565b91505092915050565b600060208284031215611b1b57600080fd5b6000611b2984828501611a3b565b91505092915050565b60008060408385031215611b4557600080fd5b6000611b5385828601611a26565b9250506020611b64858286016119b4565b9150509250929050565b60008060408385031215611b8157600080fd5b6000611b8f85828601611a3b565b9250506020611ba0858286016119c9565b9150509250929050565b60008060408385031215611bbd57600080fd5b6000611bcb85828601611a3b565b9250506020611bdc85828601611a3b565b9150509250929050565b600080600060808486031215611bfb57600080fd5b6000611c0986828701611a26565b9350506020611c1a86828701611a50565b9250506040611c2b868287016119de565b9150509250925092565b611c3e8161243e565b82525050565b611c55611c508261243e565b6124bc565b82525050565b611c648161245c565b82525050565b611c7b611c768261245c565b6124ce565b82525050565b611c8a816124aa565b82525050565b611c9981612466565b82525050565b6000611cac6019836123c8565b91507f4c69676874686f7573653a204e4f5f4e46545f4d494e544544000000000000006000830152602082019050919050565b6000611cec601c836123d9565b91507f19457468657265756d205369676e6564204d6573736167653a0a3332000000006000830152601c82019050919050565b6000611d2c6026836123c8565b91507f4f776e61626c653a206e6577206f776e657220697320746865207a65726f206160008301527f64647265737300000000000000000000000000000000000000000000000000006020830152604082019050919050565b6000611d926016836123c8565b91507f4c69676874686f7573654d696e743a204641494c4544000000000000000000006000830152602082019050919050565b6000611dd2600f836123c8565b91507f4c69676874686f7573653a2053494700000000000000000000000000000000006000830152602082019050919050565b6000611e126020836123c8565b91507f4c69676874686f7573653a2041554354494f4e5f46494e49534845445f5945546000830152602082019050919050565b6000611e526019836123c8565b91507f4c69676874686f7573653a204e4f5f5045524d495353494f4e000000000000006000830152602082019050919050565b6000611e92601a836123c8565b91507f4c69676874686f7573653a20414c52454144595f4d494e5445440000000000006000830152602082019050919050565b6000611ed26018836123c8565b91507f4c69676874686f7573653a204e4f545f494e56455354454400000000000000006000830152602082019050919050565b6000611f126020836123c8565b91507f4f776e61626c653a2063616c6c6572206973206e6f7420746865206f776e65726000830152602082019050919050565b6000611f526018836123c8565b91507f4c69676874686f7573653a20494e56414c49445f5449455200000000000000006000830152602082019050919050565b6000611f92602a836123c8565b91507f4c69676874686f7573653a20414c4c4f434154494f4e5f4e4f545f494e49544960008301527f414c495a45445f594554000000000000000000000000000000000000000000006020830152604082019050919050565b611ff481612493565b82525050565b61200b61200682612493565b6124ea565b82525050565b61201a8161249d565b82525050565b600061202c8287611c44565b60148201915061203c8286611c44565b60148201915061204c8285611ffa565b60208201915061205c8284611ffa565b60208201915081905095945050505050565b600061207982611cdf565b91506120858284611c6a565b60208201915081905092915050565b60006020820190506120a96000830184611c35565b92915050565b600060a0820190506120c46000830188611c35565b6120d16020830187611feb565b6120de6040830186611feb565b6120eb6060830185611c81565b6120f86080830184612011565b9695505050505050565b60006080820190506121176000830187611c5b565b6121246020830186612011565b6121316040830185611c5b565b61213e6060830184611c5b565b95945050505050565b6000602082019050818103600083015261216081611c9f565b9050919050565b6000602082019050818103600083015261218081611d1f565b9050919050565b600060208201905081810360008301526121a081611d85565b9050919050565b600060208201905081810360008301526121c081611dc5565b9050919050565b600060208201905081810360008301526121e081611e05565b9050919050565b6000602082019050818103600083015261220081611e45565b9050919050565b6000602082019050818103600083015261222081611e85565b9050919050565b6000602082019050818103600083015261224081611ec5565b9050919050565b6000602082019050818103600083015261226081611f05565b9050919050565b6000602082019050818103600083015261228081611f45565b9050919050565b600060208201905081810360008301526122a081611f85565b9050919050565b60006020820190506122bc6000830184611feb565b92915050565b60006040820190506122d76000830185611feb565b6122e46020830184611c35565b9392505050565b60006040820190506123006000830185611feb565b61230d6020830184611c90565b9392505050565b600060e082019050612329600083018a611feb565b6123366020830189611feb565b6123436040830188611c35565b6123506060830187611feb565b61235d6080830186611feb565b61236a60a0830185611c90565b61237760c0830184612011565b98975050505050505050565b60006080820190506123986000830187611feb565b6123a56020830186611feb565b6123b26040830185611c90565b6123bf6060830184612011565b95945050505050565b600082825260208201905092915050565b600081905092915050565b60006123ef82612493565b91506123fa83612493565b9250817fffffffffffffffffffffffffffffffffffffffffffffffffffffffffffffffff0483118215151615612433576124326124f4565b5b828202905092915050565b600061244982612473565b9050919050565b60008115159050919050565b6000819050919050565b60008160000b9050919050565b600073ffffffffffffffffffffffffffffffffffffffff82169050919050565b6000819050919050565b600060ff82169050919050565b60006124b582612466565b9050919050565b60006124c7826124d8565b9050919050565b6000819050919050565b60006124e382612523565b9050919050565b6000819050919050565b7f4e487b7100000000000000000000000000000000000000000000000000000000600052601160045260246000fd5b60008160601b9050919050565b6125398161243e565b811461254457600080fd5b50565b61255081612450565b811461255b57600080fd5b50565b61256781612466565b811461257257600080fd5b50565b61257e81612493565b811461258957600080fd5b50565b6125958161249d565b81146125a057600080fd5b5056fea26469706673582212200cecffa458cccdb63d0a77a0652effcdccbe849fd7a0b581b049d036b4d76b4a64736f6c63430008000033",
  "linkReferences": {},
  "deployedLinkReferences": {}
}