{
  "_format": "hh-sol-artifact-1",
  "contractName": "LighthouseMint",
  "sourceName": "contracts/LighthouseMint.sol",
  "abi": [
    {
      "inputs": [
        {
          "internalType": "address",
          "name": "_lighthouseAuction",
          "type": "address"
        },
        {
          "internalType": "address",
          "name": "_lighthousePrefund",
          "type": "address"
        },
        {
          "internalType": "address",
          "name": "_lighthouseTier",
          "type": "address"
        },
        {
          "internalType": "address",
          "name": "_project",
          "type": "address"
        },
        {
          "internalType": "address",
          "name": "_crowns",
          "type": "address"
        }
      ],
      "stateMutability": "nonpayable",
      "type": "constructor"
    },
    {
      "anonymous": false,
      "inputs": [
        {
          "indexed": true,
          "internalType": "uint256",
          "name": "projectId",
          "type": "uint256"
        },
        {
          "indexed": true,
          "internalType": "address",
          "name": "nft",
          "type": "address"
        },
        {
          "indexed": true,
          "internalType": "uint256",
          "name": "nftId",
          "type": "uint256"
        },
        {
          "indexed": false,
          "internalType": "address",
          "name": "owner",
          "type": "address"
        },
        {
          "indexed": false,
          "internalType": "uint256",
          "name": "allocation",
          "type": "uint256"
        },
        {
          "indexed": false,
          "internalType": "uint256",
          "name": "compensation",
          "type": "uint256"
        }
      ],
      "name": "Mint",
      "type": "event"
    },
    {
      "anonymous": false,
      "inputs": [
        {
          "indexed": true,
          "internalType": "address",
          "name": "previousOwner",
          "type": "address"
        },
        {
          "indexed": true,
          "internalType": "address",
          "name": "newOwner",
          "type": "address"
        }
      ],
      "name": "OwnershipTransferred",
      "type": "event"
    },
    {
      "inputs": [
        {
          "internalType": "uint256",
          "name": "projectId",
          "type": "uint256"
        }
      ],
      "name": "mint",
      "outputs": [],
      "stateMutability": "nonpayable",
      "type": "function"
    },
    {
      "inputs": [
        {
          "internalType": "uint256",
          "name": "",
          "type": "uint256"
        },
        {
          "internalType": "address",
          "name": "",
          "type": "address"
        }
      ],
      "name": "mintedNfts",
      "outputs": [
        {
          "internalType": "uint256",
          "name": "",
          "type": "uint256"
        }
      ],
      "stateMutability": "view",
      "type": "function"
    },
    {
      "inputs": [],
      "name": "owner",
      "outputs": [
        {
          "internalType": "address",
          "name": "",
          "type": "address"
        }
      ],
      "stateMutability": "view",
      "type": "function"
    },
    {
      "inputs": [],
      "name": "renounceOwnership",
      "outputs": [],
      "stateMutability": "nonpayable",
      "type": "function"
    },
    {
      "inputs": [
        {
          "internalType": "address",
          "name": "newTier",
          "type": "address"
        }
      ],
      "name": "setLighthouseTier",
      "outputs": [],
      "stateMutability": "nonpayable",
      "type": "function"
    },
    {
      "inputs": [
        {
          "internalType": "address",
          "name": "newOwner",
          "type": "address"
        }
      ],
      "name": "transferOwnership",
      "outputs": [],
      "stateMutability": "nonpayable",
      "type": "function"
    }
  ],
  "bytecode": "0x60806040523480156200001157600080fd5b5060405162001dd638038062001dd68339818101604052810190620000379190620003e5565b620000576200004b6200030260201b60201c565b6200030a60201b60201c565b600073ffffffffffffffffffffffffffffffffffffffff168573ffffffffffffffffffffffffffffffffffffffff1614158015620000c25750600073ffffffffffffffffffffffffffffffffffffffff168173ffffffffffffffffffffffffffffffffffffffff1614155b8015620000fc5750600073ffffffffffffffffffffffffffffffffffffffff168473ffffffffffffffffffffffffffffffffffffffff1614155b8015620001365750600073ffffffffffffffffffffffffffffffffffffffff168373ffffffffffffffffffffffffffffffffffffffff1614155b8015620001705750600073ffffffffffffffffffffffffffffffffffffffff168273ffffffffffffffffffffffffffffffffffffffff1614155b620001b2576040517f08c379a0000000000000000000000000000000000000000000000000000000008152600401620001a990620004a9565b60405180910390fd5b84600160006101000a81548173ffffffffffffffffffffffffffffffffffffffff021916908373ffffffffffffffffffffffffffffffffffffffff16021790555083600260006101000a81548173ffffffffffffffffffffffffffffffffffffffff021916908373ffffffffffffffffffffffffffffffffffffffff16021790555082600360006101000a81548173ffffffffffffffffffffffffffffffffffffffff021916908373ffffffffffffffffffffffffffffffffffffffff16021790555081600460006101000a81548173ffffffffffffffffffffffffffffffffffffffff021916908373ffffffffffffffffffffffffffffffffffffffff16021790555080600560006101000a81548173ffffffffffffffffffffffffffffffffffffffff021916908373ffffffffffffffffffffffffffffffffffffffff16021790555050505050506200052a565b600033905090565b60008060009054906101000a900473ffffffffffffffffffffffffffffffffffffffff169050816000806101000a81548173ffffffffffffffffffffffffffffffffffffffff021916908373ffffffffffffffffffffffffffffffffffffffff1602179055508173ffffffffffffffffffffffffffffffffffffffff168173ffffffffffffffffffffffffffffffffffffffff167f8be0079c531659141344cd1fd0a4f28419497f9722a3daafe3b4186f6b6457e060405160405180910390a35050565b600081519050620003df8162000510565b92915050565b600080600080600060a08688031215620003fe57600080fd5b60006200040e88828901620003ce565b95505060206200042188828901620003ce565b94505060406200043488828901620003ce565b93505060606200044788828901620003ce565b92505060806200045a88828901620003ce565b9150509295509295909350565b600062000476601883620004cb565b91507f4c69676874686f7573653a205a45524f5f4144445245535300000000000000006000830152602082019050919050565b60006020820190508181036000830152620004c48162000467565b9050919050565b600082825260208201905092915050565b6000620004e982620004f0565b9050919050565b600073ffffffffffffffffffffffffffffffffffffffff82169050919050565b6200051b81620004dc565b81146200052757600080fd5b50565b61189c806200053a6000396000f3fe608060405234801561001057600080fd5b50600436106100625760003560e01c8063715018a6146100675780638da5cb5b14610071578063a0712d681461008f578063aee7a1ef146100ab578063da8e78fd146100c7578063f2fde38b146100f7575b600080fd5b61006f610113565b005b61007961019b565b60405161008691906114c0565b60405180910390f35b6100a960048036038101906100a491906110f2565b6101c4565b005b6100c560048036038101906100c0919061104e565b610d27565b005b6100e160048036038101906100dc9190611144565b610de7565b6040516100ee9190611632565b60405180910390f35b610111600480360381019061010c919061104e565b610e0c565b005b61011b610f04565b73ffffffffffffffffffffffffffffffffffffffff1661013961019b565b73ffffffffffffffffffffffffffffffffffffffff161461018f576040517f08c379a0000000000000000000000000000000000000000000000000000000008152600401610186906115d2565b60405180910390fd5b6101996000610f0c565b565b60008060009054906101000a900473ffffffffffffffffffffffffffffffffffffffff16905090565b6000600460009054906101000a900473ffffffffffffffffffffffffffffffffffffffff1673ffffffffffffffffffffffffffffffffffffffff1663777de704836040518263ffffffff1660e01b81526004016102219190611632565b60206040518083038186803b15801561023957600080fd5b505afa15801561024d573d6000803e3d6000fd5b505050506040513d601f19601f82011682018060405250810190610271919061111b565b90508042116102b5576040517f08c379a00000000000000000000000000000000000000000000000000000000081526004016102ac90611572565b60405180910390fd5b60006006600084815260200190815260200160002060003373ffffffffffffffffffffffffffffffffffffffff1673ffffffffffffffffffffffffffffffffffffffff1681526020019081526020016000205414610348576040517f08c379a000000000000000000000000000000000000000000000000000000000815260040161033f90611592565b60405180910390fd5b600460009054906101000a900473ffffffffffffffffffffffffffffffffffffffff1673ffffffffffffffffffffffffffffffffffffffff16631b4ead45836040518263ffffffff1660e01b81526004016103a39190611632565b60206040518083038186803b1580156103bb57600080fd5b505afa1580156103cf573d6000803e3d6000fd5b505050506040513d601f19601f820116820180604052508101906103f391906110a0565b610432576040517f08c379a000000000000000000000000000000000000000000000000000000000815260040161042990611612565b60405180910390fd5b6000600260009054906101000a900473ffffffffffffffffffffffffffffffffffffffff1673ffffffffffffffffffffffffffffffffffffffff166302deed0384336040518363ffffffff1660e01b815260040161049192919061164d565b60206040518083038186803b1580156104a957600080fd5b505afa1580156104bd573d6000803e3d6000fd5b505050506040513d601f19601f820116820180604052508101906104e191906110a0565b90506000600160009054906101000a900473ffffffffffffffffffffffffffffffffffffffff1673ffffffffffffffffffffffffffffffffffffffff16639eefc7b185336040518363ffffffff1660e01b815260040161054292919061164d565b60206040518083038186803b15801561055a57600080fd5b505afa15801561056e573d6000803e3d6000fd5b505050506040513d601f19601f82011682018060405250810190610592919061111b565b905081806105a05750600081115b6105df576040517f08c379a00000000000000000000000000000000000000000000000000000000081526004016105d6906115b2565b60405180910390fd5b6000600360009054906101000a900473ffffffffffffffffffffffffffffffffffffffff1673ffffffffffffffffffffffffffffffffffffffff166328fc4c3c336040518263ffffffff1660e01b815260040161063c91906114c0565b60206040518083038186803b15801561065457600080fd5b505afa158015610668573d6000803e3d6000fd5b505050506040513d601f19601f8201168201806040525081019061068c91906110c9565b90507fffffffffffffffffffffffffffffffffffffffffffffffffffffffffffffffff8160000b141561076957600260009054906101000a900473ffffffffffffffffffffffffffffffffffffffff1673ffffffffffffffffffffffffffffffffffffffff16632803625686336040518363ffffffff1660e01b815260040161071692919061164d565b60206040518083038186803b15801561072e57600080fd5b505afa158015610742573d6000803e3d6000fd5b505050506040513d601f19601f8201168201806040525081019061076691906110c9565b90505b60008160000b136107af576040517f08c379a00000000000000000000000000000000000000000000000000000000081526004016107a6906115f2565b60405180910390fd5b6000806000806000871561094d5760019450600460009054906101000a900473ffffffffffffffffffffffffffffffffffffffff1673ffffffffffffffffffffffffffffffffffffffff1663b47e9f3e8b6040518263ffffffff1660e01b815260040161081c9190611632565b604080518083038186803b15801561083357600080fd5b505afa158015610847573d6000803e3d6000fd5b505050506040513d601f19601f8201168201806040525081019061086b91906111bc565b8092508193505050600080600460009054906101000a900473ffffffffffffffffffffffffffffffffffffffff1673ffffffffffffffffffffffffffffffffffffffff1663b5f5cf708d8a6040518363ffffffff1660e01b81526004016108d3929190611676565b604080518083038186803b1580156108ea57600080fd5b505afa1580156108fe573d6000803e3d6000fd5b505050506040513d601f19601f820116820180604052508101906109229190611180565b80925081935050508184610936919061171f565b95508183610944919061171f565b94505050610a20565b60029450600460009054906101000a900473ffffffffffffffffffffffffffffffffffffffff1673ffffffffffffffffffffffffffffffffffffffff16639922a1d58b6040518263ffffffff1660e01b81526004016109ac9190611632565b604080518083038186803b1580156109c357600080fd5b505afa1580156109d7573d6000803e3d6000fd5b505050506040513d601f19601f820116820180604052508101906109fb91906111bc565b80925081935050508682610a0f919061171f565b93508681610a1d919061171f565b92505b6000600460009054906101000a900473ffffffffffffffffffffffffffffffffffffffff1673ffffffffffffffffffffffffffffffffffffffff16639d0214cb8c6040518263ffffffff1660e01b8152600401610a7d9190611632565b60206040518083038186803b158015610a9557600080fd5b505afa158015610aa9573d6000803e3d6000fd5b505050506040513d601f19601f82011682018060405250810190610acd9190611077565b9050600081905060008173ffffffffffffffffffffffffffffffffffffffff1663caa0f92a6040518163ffffffff1660e01b815260040160206040518083038186803b158015610b1c57600080fd5b505afa158015610b30573d6000803e3d6000fd5b505050506040513d601f19601f82011682018060405250810190610b54919061111b565b905060008111610b99576040517f08c379a0000000000000000000000000000000000000000000000000000000008152600401610b9090611512565b60405180910390fd5b8173ffffffffffffffffffffffffffffffffffffffff166353f036c78e83338b8b8f8f6040518863ffffffff1660e01b8152600401610bde979695949392919061169f565b602060405180830381600087803b158015610bf857600080fd5b505af1158015610c0c573d6000803e3d6000fd5b505050506040513d601f19601f82011682018060405250810190610c3091906110a0565b610c6f576040517f08c379a0000000000000000000000000000000000000000000000000000000008152600401610c6690611552565b60405180910390fd5b80600660008f815260200190815260200160002060003373ffffffffffffffffffffffffffffffffffffffff1673ffffffffffffffffffffffffffffffffffffffff16815260200190815260200160002081905550808373ffffffffffffffffffffffffffffffffffffffff168e7fa83d603695073338ac034e47452778740ceba80e5976e1af06a45b53c4ef919e338b8b604051610d10939291906114db565b60405180910390a450505050505050505050505050565b610d2f610f04565b73ffffffffffffffffffffffffffffffffffffffff16610d4d61019b565b73ffffffffffffffffffffffffffffffffffffffff1614610da3576040517f08c379a0000000000000000000000000000000000000000000000000000000008152600401610d9a906115d2565b60405180910390fd5b80600360006101000a81548173ffffffffffffffffffffffffffffffffffffffff021916908373ffffffffffffffffffffffffffffffffffffffff16021790555050565b6006602052816000526040600020602052806000526040600020600091509150505481565b610e14610f04565b73ffffffffffffffffffffffffffffffffffffffff16610e3261019b565b73ffffffffffffffffffffffffffffffffffffffff1614610e88576040517f08c379a0000000000000000000000000000000000000000000000000000000008152600401610e7f906115d2565b60405180910390fd5b600073ffffffffffffffffffffffffffffffffffffffff168173ffffffffffffffffffffffffffffffffffffffff161415610ef8576040517f08c379a0000000000000000000000000000000000000000000000000000000008152600401610eef90611532565b60405180910390fd5b610f0181610f0c565b50565b600033905090565b60008060009054906101000a900473ffffffffffffffffffffffffffffffffffffffff169050816000806101000a81548173ffffffffffffffffffffffffffffffffffffffff021916908373ffffffffffffffffffffffffffffffffffffffff1602179055508173ffffffffffffffffffffffffffffffffffffffff168173ffffffffffffffffffffffffffffffffffffffff167f8be0079c531659141344cd1fd0a4f28419497f9722a3daafe3b4186f6b6457e060405160405180910390a35050565b600081359050610fdf8161180a565b92915050565b600081519050610ff48161180a565b92915050565b60008151905061100981611821565b92915050565b60008151905061101e81611838565b92915050565b6000813590506110338161184f565b92915050565b6000815190506110488161184f565b92915050565b60006020828403121561106057600080fd5b600061106e84828501610fd0565b91505092915050565b60006020828403121561108957600080fd5b600061109784828501610fe5565b91505092915050565b6000602082840312156110b257600080fd5b60006110c084828501610ffa565b91505092915050565b6000602082840312156110db57600080fd5b60006110e98482850161100f565b91505092915050565b60006020828403121561110457600080fd5b600061111284828501611024565b91505092915050565b60006020828403121561112d57600080fd5b600061113b84828501611039565b91505092915050565b6000806040838503121561115757600080fd5b600061116585828601611024565b925050602061117685828601610fd0565b9150509250929050565b6000806040838503121561119357600080fd5b60006111a185828601611039565b92505060206111b285828601610fe5565b9150509250929050565b600080604083850312156111cf57600080fd5b60006111dd85828601611039565b92505060206111ee85828601611039565b9150509250929050565b61120181611779565b82525050565b61121081611797565b82525050565b600061122360198361170e565b91507f4c69676874686f7573653a204e4f5f4e46545f4d494e544544000000000000006000830152602082019050919050565b600061126360268361170e565b91507f4f776e61626c653a206e6577206f776e657220697320746865207a65726f206160008301527f64647265737300000000000000000000000000000000000000000000000000006020830152604082019050919050565b60006112c960168361170e565b91507f4c69676874686f7573654d696e743a204641494c4544000000000000000000006000830152602082019050919050565b600061130960208361170e565b91507f4c69676874686f7573653a2041554354494f4e5f46494e49534845445f5945546000830152602082019050919050565b6000611349601a8361170e565b91507f4c69676874686f7573653a20414c52454144595f4d494e5445440000000000006000830152602082019050919050565b600061138960188361170e565b91507f4c69676874686f7573653a204e4f545f494e56455354454400000000000000006000830152602082019050919050565b60006113c960208361170e565b91507f4f776e61626c653a2063616c6c6572206973206e6f7420746865206f776e65726000830152602082019050919050565b600061140960188361170e565b91507f4c69676874686f7573653a20494e56414c49445f5449455200000000000000006000830152602082019050919050565b6000611449602a8361170e565b91507f4c69676874686f7573653a20414c4c4f434154494f4e5f4e4f545f494e49544960008301527f414c495a45445f594554000000000000000000000000000000000000000000006020830152604082019050919050565b6114ab816117c4565b82525050565b6114ba816117ce565b82525050565b60006020820190506114d560008301846111f8565b92915050565b60006060820190506114f060008301866111f8565b6114fd60208301856114a2565b61150a60408301846114a2565b949350505050565b6000602082019050818103600083015261152b81611216565b9050919050565b6000602082019050818103600083015261154b81611256565b9050919050565b6000602082019050818103600083015261156b816112bc565b9050919050565b6000602082019050818103600083015261158b816112fc565b9050919050565b600060208201905081810360008301526115ab8161133c565b9050919050565b600060208201905081810360008301526115cb8161137c565b9050919050565b600060208201905081810360008301526115eb816113bc565b9050919050565b6000602082019050818103600083015261160b816113fc565b9050919050565b6000602082019050818103600083015261162b8161143c565b9050919050565b600060208201905061164760008301846114a2565b92915050565b600060408201905061166260008301856114a2565b61166f60208301846111f8565b9392505050565b600060408201905061168b60008301856114a2565b6116986020830184611207565b9392505050565b600060e0820190506116b4600083018a6114a2565b6116c160208301896114a2565b6116ce60408301886111f8565b6116db60608301876114a2565b6116e860808301866114a2565b6116f560a0830185611207565b61170260c08301846114b1565b98975050505050505050565b600082825260208201905092915050565b600061172a826117c4565b9150611735836117c4565b9250817fffffffffffffffffffffffffffffffffffffffffffffffffffffffffffffffff048311821515161561176e5761176d6117db565b5b828202905092915050565b6000611784826117a4565b9050919050565b60008115159050919050565b60008160000b9050919050565b600073ffffffffffffffffffffffffffffffffffffffff82169050919050565b6000819050919050565b600060ff82169050919050565b7f4e487b7100000000000000000000000000000000000000000000000000000000600052601160045260246000fd5b61181381611779565b811461181e57600080fd5b50565b61182a8161178b565b811461183557600080fd5b50565b61184181611797565b811461184c57600080fd5b50565b611858816117c4565b811461186357600080fd5b5056fea264697066735822122082dec60ce06357a66b18173ba9dbf975d40e9ccba0468aaa677eb9fc6c29488464736f6c63430008000033",
  "linkReferences": {},
  "deployedLinkReferences": {}
}