{
  "_format": "hh-sol-artifact-1",
  "contractName": "LighthouseMint",
  "sourceName": "contracts/LighthouseMint.sol",
  "abi": [
    {
      "inputs": [
        {
          "internalType": "address",
          "name": "_lighthouseAuction",
          "type": "address"
        },
        {
          "internalType": "address",
          "name": "_lighthousePrefund",
          "type": "address"
        },
        {
          "internalType": "address",
          "name": "_lighthouseTier",
          "type": "address"
        },
        {
          "internalType": "address",
          "name": "_project",
          "type": "address"
        },
        {
          "internalType": "address",
          "name": "_crowns",
          "type": "address"
        }
      ],
      "stateMutability": "nonpayable",
      "type": "constructor"
    },
    {
      "anonymous": false,
      "inputs": [
        {
          "indexed": true,
          "internalType": "uint256",
          "name": "projectId",
          "type": "uint256"
        },
        {
          "indexed": true,
          "internalType": "address",
          "name": "nft",
          "type": "address"
        },
        {
          "indexed": true,
          "internalType": "uint256",
          "name": "nftId",
          "type": "uint256"
        },
        {
          "indexed": false,
          "internalType": "address",
          "name": "owner",
          "type": "address"
        },
        {
          "indexed": false,
          "internalType": "uint256",
          "name": "allocation",
          "type": "uint256"
        },
        {
          "indexed": false,
          "internalType": "uint256",
          "name": "compensation",
          "type": "uint256"
        }
      ],
      "name": "Mint",
      "type": "event"
    },
    {
      "anonymous": false,
      "inputs": [
        {
          "indexed": true,
          "internalType": "address",
          "name": "previousOwner",
          "type": "address"
        },
        {
          "indexed": true,
          "internalType": "address",
          "name": "newOwner",
          "type": "address"
        }
      ],
      "name": "OwnershipTransferred",
      "type": "event"
    },
    {
      "inputs": [
        {
          "internalType": "uint256",
          "name": "projectId",
          "type": "uint256"
        }
      ],
      "name": "mint",
      "outputs": [],
      "stateMutability": "nonpayable",
      "type": "function"
    },
    {
      "inputs": [
        {
          "internalType": "uint256",
          "name": "",
          "type": "uint256"
        },
        {
          "internalType": "address",
          "name": "",
          "type": "address"
        }
      ],
      "name": "mintedNfts",
      "outputs": [
        {
          "internalType": "uint256",
          "name": "",
          "type": "uint256"
        }
      ],
      "stateMutability": "view",
      "type": "function"
    },
    {
      "inputs": [],
      "name": "owner",
      "outputs": [
        {
          "internalType": "address",
          "name": "",
          "type": "address"
        }
      ],
      "stateMutability": "view",
      "type": "function"
    },
    {
      "inputs": [],
      "name": "renounceOwnership",
      "outputs": [],
      "stateMutability": "nonpayable",
      "type": "function"
    },
    {
      "inputs": [
        {
          "internalType": "uint256",
          "name": "projectId",
          "type": "uint256"
        },
        {
          "internalType": "uint256",
          "name": "nftId",
          "type": "uint256"
        }
      ],
      "name": "stake",
      "outputs": [],
      "stateMutability": "nonpayable",
      "type": "function"
    },
    {
      "inputs": [
        {
          "internalType": "address",
          "name": "newOwner",
          "type": "address"
        }
      ],
      "name": "transferOwnership",
      "outputs": [],
      "stateMutability": "nonpayable",
      "type": "function"
    }
  ],
  "bytecode": "0x60806040523480156200001157600080fd5b50604051620019de380380620019de8339818101604052810190620000379190620003e5565b620000576200004b6200030260201b60201c565b6200030a60201b60201c565b600073ffffffffffffffffffffffffffffffffffffffff168573ffffffffffffffffffffffffffffffffffffffff1614158015620000c25750600073ffffffffffffffffffffffffffffffffffffffff168173ffffffffffffffffffffffffffffffffffffffff1614155b8015620000fc5750600073ffffffffffffffffffffffffffffffffffffffff168473ffffffffffffffffffffffffffffffffffffffff1614155b8015620001365750600073ffffffffffffffffffffffffffffffffffffffff168373ffffffffffffffffffffffffffffffffffffffff1614155b8015620001705750600073ffffffffffffffffffffffffffffffffffffffff168273ffffffffffffffffffffffffffffffffffffffff1614155b620001b2576040517f08c379a0000000000000000000000000000000000000000000000000000000008152600401620001a990620004a9565b60405180910390fd5b84600160006101000a81548173ffffffffffffffffffffffffffffffffffffffff021916908373ffffffffffffffffffffffffffffffffffffffff16021790555083600260006101000a81548173ffffffffffffffffffffffffffffffffffffffff021916908373ffffffffffffffffffffffffffffffffffffffff16021790555082600360006101000a81548173ffffffffffffffffffffffffffffffffffffffff021916908373ffffffffffffffffffffffffffffffffffffffff16021790555081600460006101000a81548173ffffffffffffffffffffffffffffffffffffffff021916908373ffffffffffffffffffffffffffffffffffffffff16021790555080600560006101000a81548173ffffffffffffffffffffffffffffffffffffffff021916908373ffffffffffffffffffffffffffffffffffffffff16021790555050505050506200052a565b600033905090565b60008060009054906101000a900473ffffffffffffffffffffffffffffffffffffffff169050816000806101000a81548173ffffffffffffffffffffffffffffffffffffffff021916908373ffffffffffffffffffffffffffffffffffffffff1602179055508173ffffffffffffffffffffffffffffffffffffffff168173ffffffffffffffffffffffffffffffffffffffff167f8be0079c531659141344cd1fd0a4f28419497f9722a3daafe3b4186f6b6457e060405160405180910390a35050565b600081519050620003df8162000510565b92915050565b600080600080600060a08688031215620003fe57600080fd5b60006200040e88828901620003ce565b95505060206200042188828901620003ce565b94505060406200043488828901620003ce565b93505060606200044788828901620003ce565b92505060806200045a88828901620003ce565b9150509295509295909350565b600062000476601883620004cb565b91507f4c69676874686f7573653a205a45524f5f4144445245535300000000000000006000830152602082019050919050565b60006020820190508181036000830152620004c48162000467565b9050919050565b600082825260208201905092915050565b6000620004e982620004f0565b9050919050565b600073ffffffffffffffffffffffffffffffffffffffff82169050919050565b6200051b81620004dc565b81146200052757600080fd5b50565b6114a4806200053a6000396000f3fe608060405234801561001057600080fd5b50600436106100625760003560e01c8063715018a6146100675780637b0472f0146100715780638da5cb5b1461008d578063a0712d68146100ab578063da8e78fd146100c7578063f2fde38b146100f7575b600080fd5b61006f610113565b005b61008b60048036038101906100869190610e7c565b61019b565b005b61009561019f565b6040516100a29190611116565b60405180910390f35b6100c560048036038101906100c09190610db2565b6101c8565b005b6100e160048036038101906100dc9190610e04565b610aa7565b6040516100ee9190611248565b60405180910390f35b610111600480360381019061010c9190610d0e565b610acc565b005b61011b610bc4565b73ffffffffffffffffffffffffffffffffffffffff1661013961019f565b73ffffffffffffffffffffffffffffffffffffffff161461018f576040517f08c379a000000000000000000000000000000000000000000000000000000000815260040161018690611208565b60405180910390fd5b6101996000610bcc565b565b5050565b60008060009054906101000a900473ffffffffffffffffffffffffffffffffffffffff16905090565b6000600460009054906101000a900473ffffffffffffffffffffffffffffffffffffffff1673ffffffffffffffffffffffffffffffffffffffff1663777de704836040518263ffffffff1660e01b81526004016102259190611248565b60206040518083038186803b15801561023d57600080fd5b505afa158015610251573d6000803e3d6000fd5b505050506040513d601f19601f820116820180604052508101906102759190610ddb565b90508042116102b9576040517f08c379a00000000000000000000000000000000000000000000000000000000081526004016102b0906111a8565b60405180910390fd5b60006006600084815260200190815260200160002060003373ffffffffffffffffffffffffffffffffffffffff1673ffffffffffffffffffffffffffffffffffffffff168152602001908152602001600020541461034c576040517f08c379a0000000000000000000000000000000000000000000000000000000008152600401610343906111c8565b60405180910390fd5b6000600260009054906101000a900473ffffffffffffffffffffffffffffffffffffffff1673ffffffffffffffffffffffffffffffffffffffff166302deed0384336040518363ffffffff1660e01b81526004016103ab929190611263565b60206040518083038186803b1580156103c357600080fd5b505afa1580156103d7573d6000803e3d6000fd5b505050506040513d601f19601f820116820180604052508101906103fb9190610d60565b90506000600160009054906101000a900473ffffffffffffffffffffffffffffffffffffffff1673ffffffffffffffffffffffffffffffffffffffff16639eefc7b185336040518363ffffffff1660e01b815260040161045c929190611263565b60206040518083038186803b15801561047457600080fd5b505afa158015610488573d6000803e3d6000fd5b505050506040513d601f19601f820116820180604052508101906104ac9190610ddb565b905081806104ba5750600081115b6104f9576040517f08c379a00000000000000000000000000000000000000000000000000000000081526004016104f0906111e8565b60405180910390fd5b6000600360009054906101000a900473ffffffffffffffffffffffffffffffffffffffff1673ffffffffffffffffffffffffffffffffffffffff166328fc4c3c336040518263ffffffff1660e01b81526004016105569190611116565b60206040518083038186803b15801561056e57600080fd5b505afa158015610582573d6000803e3d6000fd5b505050506040513d601f19601f820116820180604052508101906105a69190610d89565b905060008160000b136105ee576040517f08c379a00000000000000000000000000000000000000000000000000000000081526004016105e590611228565b60405180910390fd5b6000806000806000871561078c5760019450600460009054906101000a900473ffffffffffffffffffffffffffffffffffffffff1673ffffffffffffffffffffffffffffffffffffffff1663b47e9f3e8b6040518263ffffffff1660e01b815260040161065b9190611248565b604080518083038186803b15801561067257600080fd5b505afa158015610686573d6000803e3d6000fd5b505050506040513d601f19601f820116820180604052508101906106aa9190610eb8565b8092508193505050600080600460009054906101000a900473ffffffffffffffffffffffffffffffffffffffff1673ffffffffffffffffffffffffffffffffffffffff1663b5f5cf708d8a6040518363ffffffff1660e01b81526004016107129291906112ed565b604080518083038186803b15801561072957600080fd5b505afa15801561073d573d6000803e3d6000fd5b505050506040513d601f19601f820116820180604052508101906107619190610e40565b809250819350505081846107759190611327565b955081836107839190611327565b9450505061085f565b60029450600460009054906101000a900473ffffffffffffffffffffffffffffffffffffffff1673ffffffffffffffffffffffffffffffffffffffff16639922a1d58b6040518263ffffffff1660e01b81526004016107eb9190611248565b604080518083038186803b15801561080257600080fd5b505afa158015610816573d6000803e3d6000fd5b505050506040513d601f19601f8201168201806040525081019061083a9190610eb8565b8092508193505050868261084e9190611327565b9350868161085c9190611327565b92505b6000600460009054906101000a900473ffffffffffffffffffffffffffffffffffffffff1673ffffffffffffffffffffffffffffffffffffffff1663f88fba8c8c6040518263ffffffff1660e01b81526004016108bc9190611248565b60206040518083038186803b1580156108d457600080fd5b505afa1580156108e8573d6000803e3d6000fd5b505050506040513d601f19601f8201168201806040525081019061090c9190610d37565b9050600081905060008173ffffffffffffffffffffffffffffffffffffffff16630dde7ef18e338a8a8e8e6040518763ffffffff1660e01b81526004016109589695949392919061128c565b602060405180830381600087803b15801561097257600080fd5b505af1158015610986573d6000803e3d6000fd5b505050506040513d601f19601f820116820180604052508101906109aa9190610ddb565b9050600081116109ef576040517f08c379a00000000000000000000000000000000000000000000000000000000081526004016109e690611168565b60405180910390fd5b80600660008f815260200190815260200160002060003373ffffffffffffffffffffffffffffffffffffffff1673ffffffffffffffffffffffffffffffffffffffff16815260200190815260200160002081905550808373ffffffffffffffffffffffffffffffffffffffff168e7fa83d603695073338ac034e47452778740ceba80e5976e1af06a45b53c4ef919e338b8b604051610a9093929190611131565b60405180910390a450505050505050505050505050565b6006602052816000526040600020602052806000526040600020600091509150505481565b610ad4610bc4565b73ffffffffffffffffffffffffffffffffffffffff16610af261019f565b73ffffffffffffffffffffffffffffffffffffffff1614610b48576040517f08c379a0000000000000000000000000000000000000000000000000000000008152600401610b3f90611208565b60405180910390fd5b600073ffffffffffffffffffffffffffffffffffffffff168173ffffffffffffffffffffffffffffffffffffffff161415610bb8576040517f08c379a0000000000000000000000000000000000000000000000000000000008152600401610baf90611188565b60405180910390fd5b610bc181610bcc565b50565b600033905090565b60008060009054906101000a900473ffffffffffffffffffffffffffffffffffffffff169050816000806101000a81548173ffffffffffffffffffffffffffffffffffffffff021916908373ffffffffffffffffffffffffffffffffffffffff1602179055508173ffffffffffffffffffffffffffffffffffffffff168173ffffffffffffffffffffffffffffffffffffffff167f8be0079c531659141344cd1fd0a4f28419497f9722a3daafe3b4186f6b6457e060405160405180910390a35050565b600081359050610c9f81611412565b92915050565b600081519050610cb481611412565b92915050565b600081519050610cc981611429565b92915050565b600081519050610cde81611440565b92915050565b600081359050610cf381611457565b92915050565b600081519050610d0881611457565b92915050565b600060208284031215610d2057600080fd5b6000610d2e84828501610c90565b91505092915050565b600060208284031215610d4957600080fd5b6000610d5784828501610ca5565b91505092915050565b600060208284031215610d7257600080fd5b6000610d8084828501610cba565b91505092915050565b600060208284031215610d9b57600080fd5b6000610da984828501610ccf565b91505092915050565b600060208284031215610dc457600080fd5b6000610dd284828501610ce4565b91505092915050565b600060208284031215610ded57600080fd5b6000610dfb84828501610cf9565b91505092915050565b60008060408385031215610e1757600080fd5b6000610e2585828601610ce4565b9250506020610e3685828601610c90565b9150509250929050565b60008060408385031215610e5357600080fd5b6000610e6185828601610cf9565b9250506020610e7285828601610ca5565b9150509250929050565b60008060408385031215610e8f57600080fd5b6000610e9d85828601610ce4565b9250506020610eae85828601610ce4565b9150509250929050565b60008060408385031215610ecb57600080fd5b6000610ed985828601610cf9565b9250506020610eea85828601610cf9565b9150509250929050565b610efd81611381565b82525050565b610f0c8161139f565b82525050565b6000610f1f601983611316565b91507f4c69676874686f7573653a204e4f5f4e46545f4d494e544544000000000000006000830152602082019050919050565b6000610f5f602683611316565b91507f4f776e61626c653a206e6577206f776e657220697320746865207a65726f206160008301527f64647265737300000000000000000000000000000000000000000000000000006020830152604082019050919050565b6000610fc5602083611316565b91507f4c69676874686f7573653a2041554354494f4e5f46494e49534845445f5945546000830152602082019050919050565b6000611005601a83611316565b91507f4c69676874686f7573653a20414c52454144595f4d494e5445440000000000006000830152602082019050919050565b6000611045601883611316565b91507f4c69676874686f7573653a204e4f545f494e56455354454400000000000000006000830152602082019050919050565b6000611085602083611316565b91507f4f776e61626c653a2063616c6c6572206973206e6f7420746865206f776e65726000830152602082019050919050565b60006110c5601883611316565b91507f4c69676874686f7573653a20494e56414c49445f5449455200000000000000006000830152602082019050919050565b611101816113cc565b82525050565b611110816113d6565b82525050565b600060208201905061112b6000830184610ef4565b92915050565b60006060820190506111466000830186610ef4565b61115360208301856110f8565b61116060408301846110f8565b949350505050565b6000602082019050818103600083015261118181610f12565b9050919050565b600060208201905081810360008301526111a181610f52565b9050919050565b600060208201905081810360008301526111c181610fb8565b9050919050565b600060208201905081810360008301526111e181610ff8565b9050919050565b6000602082019050818103600083015261120181611038565b9050919050565b6000602082019050818103600083015261122181611078565b9050919050565b60006020820190508181036000830152611241816110b8565b9050919050565b600060208201905061125d60008301846110f8565b92915050565b600060408201905061127860008301856110f8565b6112856020830184610ef4565b9392505050565b600060c0820190506112a160008301896110f8565b6112ae6020830188610ef4565b6112bb60408301876110f8565b6112c860608301866110f8565b6112d56080830185610f03565b6112e260a0830184611107565b979650505050505050565b600060408201905061130260008301856110f8565b61130f6020830184610f03565b9392505050565b600082825260208201905092915050565b6000611332826113cc565b915061133d836113cc565b9250817fffffffffffffffffffffffffffffffffffffffffffffffffffffffffffffffff0483118215151615611376576113756113e3565b5b828202905092915050565b600061138c826113ac565b9050919050565b60008115159050919050565b60008160000b9050919050565b600073ffffffffffffffffffffffffffffffffffffffff82169050919050565b6000819050919050565b600060ff82169050919050565b7f4e487b7100000000000000000000000000000000000000000000000000000000600052601160045260246000fd5b61141b81611381565b811461142657600080fd5b50565b61143281611393565b811461143d57600080fd5b50565b6114498161139f565b811461145457600080fd5b50565b611460816113cc565b811461146b57600080fd5b5056fea2646970667358221220681f2b36f0b628fe32a664b5b5cd5d4b3acb1c157a0eff2ddcd00ee3ee9bbc0664736f6c63430008000033",
  "linkReferences": {},
  "deployedLinkReferences": {}
}