{
  "_format": "hh-sol-artifact-1",
  "contractName": "LighthouseMint",
  "sourceName": "contracts/LighthouseMint.sol",
  "abi": [
    {
      "inputs": [
        {
          "internalType": "address",
          "name": "_lighthouseAuction",
          "type": "address"
        },
        {
          "internalType": "address",
          "name": "_lighthousePrefund",
          "type": "address"
        },
        {
          "internalType": "address",
          "name": "_lighthouseTier",
          "type": "address"
        },
        {
          "internalType": "address",
          "name": "_project",
          "type": "address"
        },
        {
          "internalType": "address",
          "name": "_crowns",
          "type": "address"
        }
      ],
      "stateMutability": "nonpayable",
      "type": "constructor"
    },
    {
      "anonymous": false,
      "inputs": [
        {
          "indexed": true,
          "internalType": "uint256",
          "name": "projectId",
          "type": "uint256"
        },
        {
          "indexed": true,
          "internalType": "address",
          "name": "nft",
          "type": "address"
        },
        {
          "indexed": true,
          "internalType": "uint256",
          "name": "nftId",
          "type": "uint256"
        },
        {
          "indexed": false,
          "internalType": "address",
          "name": "owner",
          "type": "address"
        },
        {
          "indexed": false,
          "internalType": "uint256",
          "name": "allocation",
          "type": "uint256"
        },
        {
          "indexed": false,
          "internalType": "uint256",
          "name": "compensation",
          "type": "uint256"
        }
      ],
      "name": "Mint",
      "type": "event"
    },
    {
      "anonymous": false,
      "inputs": [
        {
          "indexed": true,
          "internalType": "address",
          "name": "previousOwner",
          "type": "address"
        },
        {
          "indexed": true,
          "internalType": "address",
          "name": "newOwner",
          "type": "address"
        }
      ],
      "name": "OwnershipTransferred",
      "type": "event"
    },
    {
      "inputs": [
        {
          "internalType": "uint256",
          "name": "projectId",
          "type": "uint256"
        }
      ],
      "name": "mint",
      "outputs": [],
      "stateMutability": "nonpayable",
      "type": "function"
    },
    {
      "inputs": [
        {
          "internalType": "uint256",
          "name": "",
          "type": "uint256"
        },
        {
          "internalType": "address",
          "name": "",
          "type": "address"
        }
      ],
      "name": "mintedNfts",
      "outputs": [
        {
          "internalType": "uint256",
          "name": "",
          "type": "uint256"
        }
      ],
      "stateMutability": "view",
      "type": "function"
    },
    {
      "inputs": [],
      "name": "owner",
      "outputs": [
        {
          "internalType": "address",
          "name": "",
          "type": "address"
        }
      ],
      "stateMutability": "view",
      "type": "function"
    },
    {
      "inputs": [],
      "name": "renounceOwnership",
      "outputs": [],
      "stateMutability": "nonpayable",
      "type": "function"
    },
    {
      "inputs": [
        {
          "internalType": "address",
          "name": "newTier",
          "type": "address"
        }
      ],
      "name": "setLighthouseTier",
      "outputs": [],
      "stateMutability": "nonpayable",
      "type": "function"
    },
    {
      "inputs": [
        {
          "internalType": "address",
          "name": "newOwner",
          "type": "address"
        }
      ],
      "name": "transferOwnership",
      "outputs": [],
      "stateMutability": "nonpayable",
      "type": "function"
    }
  ],
  "bytecode": "0x60806040523480156200001157600080fd5b5060405162001f2038038062001f208339818101604052810190620000379190620003e5565b620000576200004b6200030260201b60201c565b6200030a60201b60201c565b600073ffffffffffffffffffffffffffffffffffffffff168573ffffffffffffffffffffffffffffffffffffffff1614158015620000c25750600073ffffffffffffffffffffffffffffffffffffffff168173ffffffffffffffffffffffffffffffffffffffff1614155b8015620000fc5750600073ffffffffffffffffffffffffffffffffffffffff168473ffffffffffffffffffffffffffffffffffffffff1614155b8015620001365750600073ffffffffffffffffffffffffffffffffffffffff168373ffffffffffffffffffffffffffffffffffffffff1614155b8015620001705750600073ffffffffffffffffffffffffffffffffffffffff168273ffffffffffffffffffffffffffffffffffffffff1614155b620001b2576040517f08c379a0000000000000000000000000000000000000000000000000000000008152600401620001a990620004a9565b60405180910390fd5b84600160006101000a81548173ffffffffffffffffffffffffffffffffffffffff021916908373ffffffffffffffffffffffffffffffffffffffff16021790555083600260006101000a81548173ffffffffffffffffffffffffffffffffffffffff021916908373ffffffffffffffffffffffffffffffffffffffff16021790555082600360006101000a81548173ffffffffffffffffffffffffffffffffffffffff021916908373ffffffffffffffffffffffffffffffffffffffff16021790555081600460006101000a81548173ffffffffffffffffffffffffffffffffffffffff021916908373ffffffffffffffffffffffffffffffffffffffff16021790555080600560006101000a81548173ffffffffffffffffffffffffffffffffffffffff021916908373ffffffffffffffffffffffffffffffffffffffff16021790555050505050506200052a565b600033905090565b60008060009054906101000a900473ffffffffffffffffffffffffffffffffffffffff169050816000806101000a81548173ffffffffffffffffffffffffffffffffffffffff021916908373ffffffffffffffffffffffffffffffffffffffff1602179055508173ffffffffffffffffffffffffffffffffffffffff168173ffffffffffffffffffffffffffffffffffffffff167f8be0079c531659141344cd1fd0a4f28419497f9722a3daafe3b4186f6b6457e060405160405180910390a35050565b600081519050620003df8162000510565b92915050565b600080600080600060a08688031215620003fe57600080fd5b60006200040e88828901620003ce565b95505060206200042188828901620003ce565b94505060406200043488828901620003ce565b93505060606200044788828901620003ce565b92505060806200045a88828901620003ce565b9150509295509295909350565b600062000476601883620004cb565b91507f4c69676874686f7573653a205a45524f5f4144445245535300000000000000006000830152602082019050919050565b60006020820190508181036000830152620004c48162000467565b9050919050565b600082825260208201905092915050565b6000620004e982620004f0565b9050919050565b600073ffffffffffffffffffffffffffffffffffffffff82169050919050565b6200051b81620004dc565b81146200052757600080fd5b50565b6119e6806200053a6000396000f3fe608060405234801561001057600080fd5b50600436106100625760003560e01c8063715018a6146100675780638da5cb5b14610071578063a0712d681461008f578063aee7a1ef146100ab578063da8e78fd146100c7578063f2fde38b146100f7575b600080fd5b61006f610113565b005b61007961019b565b60405161008691906115ea565b60405180910390f35b6100a960048036038101906100a491906111dc565b6101c4565b005b6100c560048036038101906100c09190611138565b610e11565b005b6100e160048036038101906100dc919061122e565b610ed1565b6040516100ee919061177c565b60405180910390f35b610111600480360381019061010c9190611138565b610ef6565b005b61011b610fee565b73ffffffffffffffffffffffffffffffffffffffff1661013961019b565b73ffffffffffffffffffffffffffffffffffffffff161461018f576040517f08c379a00000000000000000000000000000000000000000000000000000000081526004016101869061171c565b60405180910390fd5b6101996000610ff6565b565b60008060009054906101000a900473ffffffffffffffffffffffffffffffffffffffff16905090565b6000600460009054906101000a900473ffffffffffffffffffffffffffffffffffffffff1673ffffffffffffffffffffffffffffffffffffffff1663777de704836040518263ffffffff1660e01b8152600401610221919061177c565b60206040518083038186803b15801561023957600080fd5b505afa15801561024d573d6000803e3d6000fd5b505050506040513d601f19601f820116820180604052508101906102719190611205565b90508042116102b5576040517f08c379a00000000000000000000000000000000000000000000000000000000081526004016102ac9061169c565b60405180910390fd5b60006006600084815260200190815260200160002060003373ffffffffffffffffffffffffffffffffffffffff1673ffffffffffffffffffffffffffffffffffffffff1681526020019081526020016000205414610348576040517f08c379a000000000000000000000000000000000000000000000000000000000815260040161033f906116dc565b60405180910390fd5b600460009054906101000a900473ffffffffffffffffffffffffffffffffffffffff1673ffffffffffffffffffffffffffffffffffffffff16631b4ead45836040518263ffffffff1660e01b81526004016103a3919061177c565b60206040518083038186803b1580156103bb57600080fd5b505afa1580156103cf573d6000803e3d6000fd5b505050506040513d601f19601f820116820180604052508101906103f3919061118a565b610432576040517f08c379a00000000000000000000000000000000000000000000000000000000081526004016104299061175c565b60405180910390fd5b600460009054906101000a900473ffffffffffffffffffffffffffffffffffffffff1673ffffffffffffffffffffffffffffffffffffffff16630f784943836040518263ffffffff1660e01b815260040161048d919061177c565b60206040518083038186803b1580156104a557600080fd5b505afa1580156104b9573d6000803e3d6000fd5b505050506040513d601f19601f820116820180604052508101906104dd919061118a565b61051c576040517f08c379a0000000000000000000000000000000000000000000000000000000008152600401610513906116bc565b60405180910390fd5b6000600260009054906101000a900473ffffffffffffffffffffffffffffffffffffffff1673ffffffffffffffffffffffffffffffffffffffff166302deed0384336040518363ffffffff1660e01b815260040161057b929190611797565b60206040518083038186803b15801561059357600080fd5b505afa1580156105a7573d6000803e3d6000fd5b505050506040513d601f19601f820116820180604052508101906105cb919061118a565b90506000600160009054906101000a900473ffffffffffffffffffffffffffffffffffffffff1673ffffffffffffffffffffffffffffffffffffffff16639eefc7b185336040518363ffffffff1660e01b815260040161062c929190611797565b60206040518083038186803b15801561064457600080fd5b505afa158015610658573d6000803e3d6000fd5b505050506040513d601f19601f8201168201806040525081019061067c9190611205565b9050818061068a5750600081115b6106c9576040517f08c379a00000000000000000000000000000000000000000000000000000000081526004016106c0906116fc565b60405180910390fd5b6000600360009054906101000a900473ffffffffffffffffffffffffffffffffffffffff1673ffffffffffffffffffffffffffffffffffffffff166328fc4c3c336040518263ffffffff1660e01b815260040161072691906115ea565b60206040518083038186803b15801561073e57600080fd5b505afa158015610752573d6000803e3d6000fd5b505050506040513d601f19601f8201168201806040525081019061077691906111b3565b90507fffffffffffffffffffffffffffffffffffffffffffffffffffffffffffffffff8160000b141561085357600260009054906101000a900473ffffffffffffffffffffffffffffffffffffffff1673ffffffffffffffffffffffffffffffffffffffff16632803625686336040518363ffffffff1660e01b8152600401610800929190611797565b60206040518083038186803b15801561081857600080fd5b505afa15801561082c573d6000803e3d6000fd5b505050506040513d601f19601f8201168201806040525081019061085091906111b3565b90505b60008160000b13610899576040517f08c379a00000000000000000000000000000000000000000000000000000000081526004016108909061173c565b60405180910390fd5b60008060008060008715610a375760019450600460009054906101000a900473ffffffffffffffffffffffffffffffffffffffff1673ffffffffffffffffffffffffffffffffffffffff1663b47e9f3e8b6040518263ffffffff1660e01b8152600401610906919061177c565b604080518083038186803b15801561091d57600080fd5b505afa158015610931573d6000803e3d6000fd5b505050506040513d601f19601f8201168201806040525081019061095591906112a6565b8092508193505050600080600460009054906101000a900473ffffffffffffffffffffffffffffffffffffffff1673ffffffffffffffffffffffffffffffffffffffff1663b5f5cf708d8a6040518363ffffffff1660e01b81526004016109bd9291906117c0565b604080518083038186803b1580156109d457600080fd5b505afa1580156109e8573d6000803e3d6000fd5b505050506040513d601f19601f82011682018060405250810190610a0c919061126a565b80925081935050508184610a209190611869565b95508183610a2e9190611869565b94505050610b0a565b60029450600460009054906101000a900473ffffffffffffffffffffffffffffffffffffffff1673ffffffffffffffffffffffffffffffffffffffff16639922a1d58b6040518263ffffffff1660e01b8152600401610a96919061177c565b604080518083038186803b158015610aad57600080fd5b505afa158015610ac1573d6000803e3d6000fd5b505050506040513d601f19601f82011682018060405250810190610ae591906112a6565b80925081935050508682610af99190611869565b93508681610b079190611869565b92505b6000600460009054906101000a900473ffffffffffffffffffffffffffffffffffffffff1673ffffffffffffffffffffffffffffffffffffffff16639d0214cb8c6040518263ffffffff1660e01b8152600401610b67919061177c565b60206040518083038186803b158015610b7f57600080fd5b505afa158015610b93573d6000803e3d6000fd5b505050506040513d601f19601f82011682018060405250810190610bb79190611161565b9050600081905060008173ffffffffffffffffffffffffffffffffffffffff1663caa0f92a6040518163ffffffff1660e01b815260040160206040518083038186803b158015610c0657600080fd5b505afa158015610c1a573d6000803e3d6000fd5b505050506040513d601f19601f82011682018060405250810190610c3e9190611205565b905060008111610c83576040517f08c379a0000000000000000000000000000000000000000000000000000000008152600401610c7a9061163c565b60405180910390fd5b8173ffffffffffffffffffffffffffffffffffffffff166353f036c78e83338b8b8f8f6040518863ffffffff1660e01b8152600401610cc897969594939291906117e9565b602060405180830381600087803b158015610ce257600080fd5b505af1158015610cf6573d6000803e3d6000fd5b505050506040513d601f19601f82011682018060405250810190610d1a919061118a565b610d59576040517f08c379a0000000000000000000000000000000000000000000000000000000008152600401610d509061167c565b60405180910390fd5b80600660008f815260200190815260200160002060003373ffffffffffffffffffffffffffffffffffffffff1673ffffffffffffffffffffffffffffffffffffffff16815260200190815260200160002081905550808373ffffffffffffffffffffffffffffffffffffffff168e7fa83d603695073338ac034e47452778740ceba80e5976e1af06a45b53c4ef919e338b8b604051610dfa93929190611605565b60405180910390a450505050505050505050505050565b610e19610fee565b73ffffffffffffffffffffffffffffffffffffffff16610e3761019b565b73ffffffffffffffffffffffffffffffffffffffff1614610e8d576040517f08c379a0000000000000000000000000000000000000000000000000000000008152600401610e849061171c565b60405180910390fd5b80600360006101000a81548173ffffffffffffffffffffffffffffffffffffffff021916908373ffffffffffffffffffffffffffffffffffffffff16021790555050565b6006602052816000526040600020602052806000526040600020600091509150505481565b610efe610fee565b73ffffffffffffffffffffffffffffffffffffffff16610f1c61019b565b73ffffffffffffffffffffffffffffffffffffffff1614610f72576040517f08c379a0000000000000000000000000000000000000000000000000000000008152600401610f699061171c565b60405180910390fd5b600073ffffffffffffffffffffffffffffffffffffffff168173ffffffffffffffffffffffffffffffffffffffff161415610fe2576040517f08c379a0000000000000000000000000000000000000000000000000000000008152600401610fd99061165c565b60405180910390fd5b610feb81610ff6565b50565b600033905090565b60008060009054906101000a900473ffffffffffffffffffffffffffffffffffffffff169050816000806101000a81548173ffffffffffffffffffffffffffffffffffffffff021916908373ffffffffffffffffffffffffffffffffffffffff1602179055508173ffffffffffffffffffffffffffffffffffffffff168173ffffffffffffffffffffffffffffffffffffffff167f8be0079c531659141344cd1fd0a4f28419497f9722a3daafe3b4186f6b6457e060405160405180910390a35050565b6000813590506110c981611954565b92915050565b6000815190506110de81611954565b92915050565b6000815190506110f38161196b565b92915050565b60008151905061110881611982565b92915050565b60008135905061111d81611999565b92915050565b60008151905061113281611999565b92915050565b60006020828403121561114a57600080fd5b6000611158848285016110ba565b91505092915050565b60006020828403121561117357600080fd5b6000611181848285016110cf565b91505092915050565b60006020828403121561119c57600080fd5b60006111aa848285016110e4565b91505092915050565b6000602082840312156111c557600080fd5b60006111d3848285016110f9565b91505092915050565b6000602082840312156111ee57600080fd5b60006111fc8482850161110e565b91505092915050565b60006020828403121561121757600080fd5b600061122584828501611123565b91505092915050565b6000806040838503121561124157600080fd5b600061124f8582860161110e565b9250506020611260858286016110ba565b9150509250929050565b6000806040838503121561127d57600080fd5b600061128b85828601611123565b925050602061129c858286016110cf565b9150509250929050565b600080604083850312156112b957600080fd5b60006112c785828601611123565b92505060206112d885828601611123565b9150509250929050565b6112eb816118c3565b82525050565b6112fa816118e1565b82525050565b600061130d601983611858565b91507f4c69676874686f7573653a204e4f5f4e46545f4d494e544544000000000000006000830152602082019050919050565b600061134d602683611858565b91507f4f776e61626c653a206e6577206f776e657220697320746865207a65726f206160008301527f64647265737300000000000000000000000000000000000000000000000000006020830152604082019050919050565b60006113b3601683611858565b91507f4c69676874686f7573654d696e743a204641494c4544000000000000000000006000830152602082019050919050565b60006113f3602083611858565b91507f4c69676874686f7573653a2041554354494f4e5f46494e49534845445f5945546000830152602082019050919050565b6000611433601983611858565b91507f4c69676874686f7573653a204e4f5f5045524d495353494f4e000000000000006000830152602082019050919050565b6000611473601a83611858565b91507f4c69676874686f7573653a20414c52454144595f4d494e5445440000000000006000830152602082019050919050565b60006114b3601883611858565b91507f4c69676874686f7573653a204e4f545f494e56455354454400000000000000006000830152602082019050919050565b60006114f3602083611858565b91507f4f776e61626c653a2063616c6c6572206973206e6f7420746865206f776e65726000830152602082019050919050565b6000611533601883611858565b91507f4c69676874686f7573653a20494e56414c49445f5449455200000000000000006000830152602082019050919050565b6000611573602a83611858565b91507f4c69676874686f7573653a20414c4c4f434154494f4e5f4e4f545f494e49544960008301527f414c495a45445f594554000000000000000000000000000000000000000000006020830152604082019050919050565b6115d58161190e565b82525050565b6115e481611918565b82525050565b60006020820190506115ff60008301846112e2565b92915050565b600060608201905061161a60008301866112e2565b61162760208301856115cc565b61163460408301846115cc565b949350505050565b6000602082019050818103600083015261165581611300565b9050919050565b6000602082019050818103600083015261167581611340565b9050919050565b60006020820190508181036000830152611695816113a6565b9050919050565b600060208201905081810360008301526116b5816113e6565b9050919050565b600060208201905081810360008301526116d581611426565b9050919050565b600060208201905081810360008301526116f581611466565b9050919050565b60006020820190508181036000830152611715816114a6565b9050919050565b60006020820190508181036000830152611735816114e6565b9050919050565b6000602082019050818103600083015261175581611526565b9050919050565b6000602082019050818103600083015261177581611566565b9050919050565b600060208201905061179160008301846115cc565b92915050565b60006040820190506117ac60008301856115cc565b6117b960208301846112e2565b9392505050565b60006040820190506117d560008301856115cc565b6117e260208301846112f1565b9392505050565b600060e0820190506117fe600083018a6115cc565b61180b60208301896115cc565b61181860408301886112e2565b61182560608301876115cc565b61183260808301866115cc565b61183f60a08301856112f1565b61184c60c08301846115db565b98975050505050505050565b600082825260208201905092915050565b60006118748261190e565b915061187f8361190e565b9250817fffffffffffffffffffffffffffffffffffffffffffffffffffffffffffffffff04831182151516156118b8576118b7611925565b5b828202905092915050565b60006118ce826118ee565b9050919050565b60008115159050919050565b60008160000b9050919050565b600073ffffffffffffffffffffffffffffffffffffffff82169050919050565b6000819050919050565b600060ff82169050919050565b7f4e487b7100000000000000000000000000000000000000000000000000000000600052601160045260246000fd5b61195d816118c3565b811461196857600080fd5b50565b611974816118d5565b811461197f57600080fd5b50565b61198b816118e1565b811461199657600080fd5b50565b6119a28161190e565b81146119ad57600080fd5b5056fea26469706673582212206da396b37c6c534c85c699af2907eeb9a6352ef6c12347a2792baff36fffad2964736f6c63430008000033",
  "linkReferences": {},
  "deployedLinkReferences": {}
}