{
  "_format": "hh-sol-artifact-1",
  "contractName": "LighthouseMint",
  "sourceName": "contracts/LighthouseMint.sol",
  "abi": [
    {
      "inputs": [
        {
          "internalType": "address",
          "name": "_lighthouseAuction",
          "type": "address"
        },
        {
          "internalType": "address",
          "name": "_lighthousePrefund",
          "type": "address"
        },
        {
          "internalType": "address",
          "name": "_lighthouseTier",
          "type": "address"
        },
        {
          "internalType": "address",
          "name": "_project",
          "type": "address"
        },
        {
          "internalType": "address",
          "name": "_crowns",
          "type": "address"
        }
      ],
      "stateMutability": "nonpayable",
      "type": "constructor"
    },
    {
      "anonymous": false,
      "inputs": [
        {
          "indexed": true,
          "internalType": "uint256",
          "name": "projectId",
          "type": "uint256"
        },
        {
          "indexed": true,
          "internalType": "address",
          "name": "pcc",
          "type": "address"
        }
      ],
      "name": "AddPCC",
      "type": "event"
    },
    {
      "anonymous": false,
      "inputs": [
        {
          "indexed": true,
          "internalType": "uint256",
          "name": "projectId",
          "type": "uint256"
        },
        {
          "indexed": false,
          "internalType": "uint256",
          "name": "prefundPool",
          "type": "uint256"
        },
        {
          "indexed": false,
          "internalType": "uint256",
          "name": "auctionPool",
          "type": "uint256"
        },
        {
          "indexed": false,
          "internalType": "uint256",
          "name": "prefundCompensation",
          "type": "uint256"
        },
        {
          "indexed": false,
          "internalType": "uint256",
          "name": "auctionCompensation",
          "type": "uint256"
        },
        {
          "indexed": true,
          "internalType": "address",
          "name": "lighthouse",
          "type": "address"
        },
        {
          "indexed": false,
          "internalType": "uint256",
          "name": "startTime",
          "type": "uint256"
        }
      ],
      "name": "AddProject",
      "type": "event"
    },
    {
      "anonymous": false,
      "inputs": [
        {
          "indexed": true,
          "internalType": "uint256",
          "name": "projectId",
          "type": "uint256"
        },
        {
          "indexed": false,
          "internalType": "uint256",
          "name": "allocation",
          "type": "uint256"
        },
        {
          "indexed": false,
          "internalType": "address",
          "name": "nft",
          "type": "address"
        },
        {
          "indexed": false,
          "internalType": "uint256",
          "name": "nftId",
          "type": "uint256"
        }
      ],
      "name": "ClaimNft",
      "type": "event"
    },
    {
      "anonymous": false,
      "inputs": [
        {
          "indexed": true,
          "internalType": "address",
          "name": "previousOwner",
          "type": "address"
        },
        {
          "indexed": true,
          "internalType": "address",
          "name": "newOwner",
          "type": "address"
        }
      ],
      "name": "OwnershipTransferred",
      "type": "event"
    },
    {
      "inputs": [
        {
          "internalType": "uint256",
          "name": "projectId",
          "type": "uint256"
        },
        {
          "internalType": "uint256",
          "name": "prefundPool",
          "type": "uint256"
        },
        {
          "internalType": "uint256",
          "name": "auctionPool",
          "type": "uint256"
        },
        {
          "internalType": "uint256",
          "name": "prefundCompensation",
          "type": "uint256"
        },
        {
          "internalType": "uint256",
          "name": "auctionCompensation",
          "type": "uint256"
        },
        {
          "internalType": "uint256",
          "name": "startTime",
          "type": "uint256"
        },
        {
          "internalType": "address",
          "name": "lighthouse",
          "type": "address"
        }
      ],
      "name": "addProject",
      "outputs": [],
      "stateMutability": "nonpayable",
      "type": "function"
    },
    {
      "inputs": [
        {
          "internalType": "uint256",
          "name": "projectId",
          "type": "uint256"
        },
        {
          "internalType": "address",
          "name": "pcc",
          "type": "address"
        }
      ],
      "name": "addProjectPcc",
      "outputs": [],
      "stateMutability": "nonpayable",
      "type": "function"
    },
    {
      "inputs": [
        {
          "internalType": "uint256",
          "name": "projectId",
          "type": "uint256"
        },
        {
          "internalType": "uint256",
          "name": "nftId",
          "type": "uint256"
        }
      ],
      "name": "burnForCws",
      "outputs": [],
      "stateMutability": "nonpayable",
      "type": "function"
    },
    {
      "inputs": [
        {
          "internalType": "uint256",
          "name": "projectId",
          "type": "uint256"
        },
        {
          "internalType": "uint256",
          "name": "nftId",
          "type": "uint256"
        }
      ],
      "name": "burnForPcc",
      "outputs": [],
      "stateMutability": "nonpayable",
      "type": "function"
    },
    {
      "inputs": [
        {
          "internalType": "uint256",
          "name": "projectId",
          "type": "uint256"
        },
        {
          "internalType": "uint256",
          "name": "nftId",
          "type": "uint256"
        },
        {
          "internalType": "uint256",
          "name": "anotherProjectId",
          "type": "uint256"
        }
      ],
      "name": "burnForProject",
      "outputs": [],
      "stateMutability": "nonpayable",
      "type": "function"
    },
    {
      "inputs": [
        {
          "internalType": "uint256",
          "name": "projectId",
          "type": "uint256"
        }
      ],
      "name": "claimNft",
      "outputs": [],
      "stateMutability": "nonpayable",
      "type": "function"
    },
    {
      "inputs": [
        {
          "internalType": "uint256",
          "name": "",
          "type": "uint256"
        },
        {
          "internalType": "address",
          "name": "",
          "type": "address"
        }
      ],
      "name": "mintedNfts",
      "outputs": [
        {
          "internalType": "uint256",
          "name": "",
          "type": "uint256"
        }
      ],
      "stateMutability": "view",
      "type": "function"
    },
    {
      "inputs": [],
      "name": "owner",
      "outputs": [
        {
          "internalType": "address",
          "name": "",
          "type": "address"
        }
      ],
      "stateMutability": "view",
      "type": "function"
    },
    {
      "inputs": [
        {
          "internalType": "uint256",
          "name": "",
          "type": "uint256"
        }
      ],
      "name": "projects",
      "outputs": [
        {
          "internalType": "uint256",
          "name": "prefundPool",
          "type": "uint256"
        },
        {
          "internalType": "uint256",
          "name": "auctionPool",
          "type": "uint256"
        },
        {
          "internalType": "uint256",
          "name": "prefundCompensation",
          "type": "uint256"
        },
        {
          "internalType": "uint256",
          "name": "auctionCompensation",
          "type": "uint256"
        },
        {
          "internalType": "uint256",
          "name": "pool",
          "type": "uint256"
        },
        {
          "internalType": "uint256",
          "name": "compensation",
          "type": "uint256"
        },
        {
          "internalType": "address",
          "name": "pcc",
          "type": "address"
        },
        {
          "internalType": "address",
          "name": "lighthouse",
          "type": "address"
        },
        {
          "internalType": "uint256",
          "name": "startTime",
          "type": "uint256"
        }
      ],
      "stateMutability": "view",
      "type": "function"
    },
    {
      "inputs": [],
      "name": "renounceOwnership",
      "outputs": [],
      "stateMutability": "nonpayable",
      "type": "function"
    },
    {
      "inputs": [
        {
          "internalType": "uint256",
          "name": "projectId",
          "type": "uint256"
        },
        {
          "internalType": "uint256",
          "name": "nftId",
          "type": "uint256"
        }
      ],
      "name": "stake",
      "outputs": [],
      "stateMutability": "nonpayable",
      "type": "function"
    },
    {
      "inputs": [
        {
          "internalType": "address",
          "name": "newOwner",
          "type": "address"
        }
      ],
      "name": "transferOwnership",
      "outputs": [],
      "stateMutability": "nonpayable",
      "type": "function"
    }
  ],
  "bytecode": "0x60806040523480156200001157600080fd5b5060405162002592380380620025928339818101604052810190620000379190620003e5565b620000576200004b6200030260201b60201c565b6200030a60201b60201c565b600073ffffffffffffffffffffffffffffffffffffffff168573ffffffffffffffffffffffffffffffffffffffff1614158015620000c25750600073ffffffffffffffffffffffffffffffffffffffff168173ffffffffffffffffffffffffffffffffffffffff1614155b8015620000fc5750600073ffffffffffffffffffffffffffffffffffffffff168473ffffffffffffffffffffffffffffffffffffffff1614155b8015620001365750600073ffffffffffffffffffffffffffffffffffffffff168373ffffffffffffffffffffffffffffffffffffffff1614155b8015620001705750600073ffffffffffffffffffffffffffffffffffffffff168273ffffffffffffffffffffffffffffffffffffffff1614155b620001b2576040517f08c379a0000000000000000000000000000000000000000000000000000000008152600401620001a990620004a9565b60405180910390fd5b84600160006101000a81548173ffffffffffffffffffffffffffffffffffffffff021916908373ffffffffffffffffffffffffffffffffffffffff16021790555083600260006101000a81548173ffffffffffffffffffffffffffffffffffffffff021916908373ffffffffffffffffffffffffffffffffffffffff16021790555082600360006101000a81548173ffffffffffffffffffffffffffffffffffffffff021916908373ffffffffffffffffffffffffffffffffffffffff16021790555081600460006101000a81548173ffffffffffffffffffffffffffffffffffffffff021916908373ffffffffffffffffffffffffffffffffffffffff16021790555080600560006101000a81548173ffffffffffffffffffffffffffffffffffffffff021916908373ffffffffffffffffffffffffffffffffffffffff16021790555050505050506200052a565b600033905090565b60008060009054906101000a900473ffffffffffffffffffffffffffffffffffffffff169050816000806101000a81548173ffffffffffffffffffffffffffffffffffffffff021916908373ffffffffffffffffffffffffffffffffffffffff1602179055508173ffffffffffffffffffffffffffffffffffffffff168173ffffffffffffffffffffffffffffffffffffffff167f8be0079c531659141344cd1fd0a4f28419497f9722a3daafe3b4186f6b6457e060405160405180910390a35050565b600081519050620003df8162000510565b92915050565b600080600080600060a08688031215620003fe57600080fd5b60006200040e88828901620003ce565b95505060206200042188828901620003ce565b94505060406200043488828901620003ce565b93505060606200044788828901620003ce565b92505060806200045a88828901620003ce565b9150509295509295909350565b600062000476601883620004cb565b91507f4c69676874686f7573653a205a45524f5f4144445245535300000000000000006000830152602082019050919050565b60006020820190508181036000830152620004c48162000467565b9050919050565b600082825260208201905092915050565b6000620004e982620004f0565b9050919050565b600073ffffffffffffffffffffffffffffffffffffffff82169050919050565b6200051b81620004dc565b81146200052757600080fd5b50565b612058806200053a6000396000f3fe608060405234801561001057600080fd5b50600436106100b45760003560e01c806385d044661161007157806385d044661461016b5780638da5cb5b14610187578063cb4e5934146101a5578063da8e78fd146101c1578063e1259a87146101f1578063f2fde38b1461020d576100b4565b80630c664189146100b9578063107046bd146100d55780632ec09d391461010d5780635499332314610129578063715018a6146101455780637b0472f01461014f575b600080fd5b6100d360048036038101906100ce919061154f565b610229565b005b6100ef60048036038101906100ea91906114fd565b61048e565b60405161010499989796959493929190611d60565b60405180910390f35b610127600480360381019061012291906114fd565b61051c565b005b610143600480360381019061013e919061168e565b610b9c565b005b61014d611159565b005b610169600480360381019061016491906115c7565b6111e1565b005b610185600480360381019061018091906115c7565b6111e5565b005b61018f6111e9565b60405161019c9190611ae5565b60405180910390f35b6101bf60048036038101906101ba919061163f565b611212565b005b6101db60048036038101906101d6919061154f565b611217565b6040516101e89190611ca0565b60405180910390f35b61020b600480360381019061020691906115c7565b61123c565b005b61022760048036038101906102229190611482565b611240565b005b610231611338565b73ffffffffffffffffffffffffffffffffffffffff1661024f6111e9565b73ffffffffffffffffffffffffffffffffffffffff16146102a5576040517f08c379a000000000000000000000000000000000000000000000000000000000815260040161029c90611bc0565b60405180910390fd5b600082116102e8576040517f08c379a00000000000000000000000000000000000000000000000000000000081526004016102df90611c20565b60405180910390fd5b600073ffffffffffffffffffffffffffffffffffffffff168173ffffffffffffffffffffffffffffffffffffffff161415610358576040517f08c379a000000000000000000000000000000000000000000000000000000000815260040161034f90611c80565b60405180910390fd5b6000600660008481526020019081526020016000209050600073ffffffffffffffffffffffffffffffffffffffff168160060160009054906101000a900473ffffffffffffffffffffffffffffffffffffffff1673ffffffffffffffffffffffffffffffffffffffff1614610402576040517f08c379a00000000000000000000000000000000000000000000000000000000081526004016103f990611c60565b60405180910390fd5b818160060160006101000a81548173ffffffffffffffffffffffffffffffffffffffff021916908373ffffffffffffffffffffffffffffffffffffffff1602179055508173ffffffffffffffffffffffffffffffffffffffff16837f8e35588fe3af09a9e4fed9970d5829d649ac93c62a5412873b5c4a39afeec18660405160405180910390a3505050565b60066020528060005260406000206000915090508060000154908060010154908060020154908060030154908060040154908060050154908060060160009054906101000a900473ffffffffffffffffffffffffffffffffffffffff16908060070160009054906101000a900473ffffffffffffffffffffffffffffffffffffffff16908060080154905089565b6000600660008381526020019081526020016000209050600081600801541161057a576040517f08c379a000000000000000000000000000000000000000000000000000000000815260040161057190611c20565b60405180910390fd5b80600801544210156105c1576040517f08c379a00000000000000000000000000000000000000000000000000000000081526004016105b890611b20565b60405180910390fd5b60006007600084815260200190815260200160002060003373ffffffffffffffffffffffffffffffffffffffff1673ffffffffffffffffffffffffffffffffffffffff1681526020019081526020016000205414610654576040517f08c379a000000000000000000000000000000000000000000000000000000000815260040161064b90611b80565b60405180910390fd5b6000600260009054906101000a900473ffffffffffffffffffffffffffffffffffffffff1673ffffffffffffffffffffffffffffffffffffffff166302deed0384336040518363ffffffff1660e01b81526004016106b3929190611cbb565b60206040518083038186803b1580156106cb57600080fd5b505afa1580156106df573d6000803e3d6000fd5b505050506040513d601f19601f8201168201806040525081019061070391906114ab565b9050600080600160009054906101000a900473ffffffffffffffffffffffffffffffffffffffff1673ffffffffffffffffffffffffffffffffffffffff16639eefc7b186336040518363ffffffff1660e01b8152600401610765929190611cbb565b60206040518083038186803b15801561077d57600080fd5b505afa158015610791573d6000803e3d6000fd5b505050506040513d601f19601f820116820180604052508101906107b59190611526565b9050600083806107c55750600082115b610804576040517f08c379a00000000000000000000000000000000000000000000000000000000081526004016107fb90611ba0565b60405180910390fd5b6000600360009054906101000a900473ffffffffffffffffffffffffffffffffffffffff1673ffffffffffffffffffffffffffffffffffffffff166328fc4c3c336040518263ffffffff1660e01b81526004016108619190611ae5565b60206040518083038186803b15801561087957600080fd5b505afa15801561088d573d6000803e3d6000fd5b505050506040513d601f19601f820116820180604052508101906108b191906114d4565b905060008160000b136108f9576040517f08c379a00000000000000000000000000000000000000000000000000000000081526004016108f090611be0565b60405180910390fd5b60008060008715610aab5760019450600460009054906101000a900473ffffffffffffffffffffffffffffffffffffffff1673ffffffffffffffffffffffffffffffffffffffff1663943df3158b6040518263ffffffff1660e01b81526004016109639190611ca0565b604080518083038186803b15801561097a57600080fd5b505afa15801561098e573d6000803e3d6000fd5b505050506040513d601f19601f820116820180604052508101906109b29190611603565b809850819250505086670de0b6b3a76400008a600001546109d39190611e85565b6109dd9190611e54565b9250600080600460009054906101000a900473ffffffffffffffffffffffffffffffffffffffff1673ffffffffffffffffffffffffffffffffffffffff1663b5f5cf708d886040518363ffffffff1660e01b8152600401610a3f929190611ce4565b604080518083038186803b158015610a5657600080fd5b505afa158015610a6a573d6000803e3d6000fd5b505050506040513d601f19601f82011682018060405250810190610a8e919061158b565b80925081935050508185610aa29190611e85565b93505050610b90565b60029450600460009054906101000a900473ffffffffffffffffffffffffffffffffffffffff1673ffffffffffffffffffffffffffffffffffffffff1663ae9d403a8b6040518263ffffffff1660e01b8152600401610b0a9190611ca0565b60206040518083038186803b158015610b2257600080fd5b505afa158015610b36573d6000803e3d6000fd5b505050506040513d601f19601f82011682018060405250810190610b5a9190611526565b965086670de0b6b3a76400008a60010154610b759190611e85565b610b7f9190611e54565b92508583610b8d9190611e85565b91505b50505050505050505050565b610ba4611338565b73ffffffffffffffffffffffffffffffffffffffff16610bc26111e9565b73ffffffffffffffffffffffffffffffffffffffff1614610c18576040517f08c379a0000000000000000000000000000000000000000000000000000000008152600401610c0f90611bc0565b60405180910390fd5b600087118015610c285750600086115b8015610c345750600085115b8015610c405750600084115b8015610c4c5750600083115b610c8b576040517f08c379a0000000000000000000000000000000000000000000000000000000008152600401610c8290611c40565b60405180910390fd5b600073ffffffffffffffffffffffffffffffffffffffff168173ffffffffffffffffffffffffffffffffffffffff161415610cfb576040517f08c379a0000000000000000000000000000000000000000000000000000000008152600401610cf290611c80565b60405180910390fd5b6000600660008981526020019081526020016000206008015414610d54576040517f08c379a0000000000000000000000000000000000000000000000000000000008152600401610d4b90611b60565b60405180910390fd5b60008211610d97576040517f08c379a0000000000000000000000000000000000000000000000000000000008152600401610d8e90611c40565b60405180910390fd5b6000600460009054906101000a900473ffffffffffffffffffffffffffffffffffffffff1673ffffffffffffffffffffffffffffffffffffffff1663777de704896040518263ffffffff1660e01b8152600401610df49190611ca0565b60206040518083038186803b158015610e0c57600080fd5b505afa158015610e20573d6000803e3d6000fd5b505050506040513d601f19601f82011682018060405250810190610e449190611526565b905060008111610e89576040517f08c379a0000000000000000000000000000000000000000000000000000000008152600401610e8090611b40565b60405180910390fd5b80831015610ecc576040517f08c379a0000000000000000000000000000000000000000000000000000000008152600401610ec390611c00565b60405180910390fd5b6000600660008a81526020019081526020016000209050600080600460009054906101000a900473ffffffffffffffffffffffffffffffffffffffff1673ffffffffffffffffffffffffffffffffffffffff1663943df3158c6040518263ffffffff1660e01b8152600401610f419190611ca0565b604080518083038186803b158015610f5857600080fd5b505afa158015610f6c573d6000803e3d6000fd5b505050506040513d601f19601f82011682018060405250810190610f909190611603565b80925081935050508181101561105d576000606483610faf9190611e54565b8284610fbb9190611edf565b610fc59190611e54565b90508060648c610fd59190611e54565b610fdf9190611e85565b8a610fea9190611dfe565b99508060648c610ffa9190611e54565b6110049190611e85565b8b61100f9190611edf565b9a508060648a61101f9190611e54565b6110299190611e85565b886110349190611dfe565b97508060648a6110449190611e54565b61104e9190611e85565b896110599190611edf565b9850505b898360000181905550888360010181905550878360020181905550868360030181905550888a61108d9190611dfe565b8360040181905550868a6110a19190611dfe565b8360050181905550848360070160006101000a81548173ffffffffffffffffffffffffffffffffffffffff021916908373ffffffffffffffffffffffffffffffffffffffff1602179055508583600801819055508473ffffffffffffffffffffffffffffffffffffffff168b7f5c5192af912419ed7d4827db74f71b5415c8e51d7e02ff605e470a9e8ed6cdc38c8c8c8c8c604051611144959493929190611d0d565b60405180910390a35050505050505050505050565b611161611338565b73ffffffffffffffffffffffffffffffffffffffff1661117f6111e9565b73ffffffffffffffffffffffffffffffffffffffff16146111d5576040517f08c379a00000000000000000000000000000000000000000000000000000000081526004016111cc90611bc0565b60405180910390fd5b6111df6000611340565b565b5050565b5050565b60008060009054906101000a900473ffffffffffffffffffffffffffffffffffffffff16905090565b505050565b6007602052816000526040600020602052806000526040600020600091509150505481565b5050565b611248611338565b73ffffffffffffffffffffffffffffffffffffffff166112666111e9565b73ffffffffffffffffffffffffffffffffffffffff16146112bc576040517f08c379a00000000000000000000000000000000000000000000000000000000081526004016112b390611bc0565b60405180910390fd5b600073ffffffffffffffffffffffffffffffffffffffff168173ffffffffffffffffffffffffffffffffffffffff16141561132c576040517f08c379a000000000000000000000000000000000000000000000000000000000815260040161132390611b00565b60405180910390fd5b61133581611340565b50565b600033905090565b60008060009054906101000a900473ffffffffffffffffffffffffffffffffffffffff169050816000806101000a81548173ffffffffffffffffffffffffffffffffffffffff021916908373ffffffffffffffffffffffffffffffffffffffff1602179055508173ffffffffffffffffffffffffffffffffffffffff168173ffffffffffffffffffffffffffffffffffffffff167f8be0079c531659141344cd1fd0a4f28419497f9722a3daafe3b4186f6b6457e060405160405180910390a35050565b60008135905061141381611fc6565b92915050565b60008151905061142881611fc6565b92915050565b60008151905061143d81611fdd565b92915050565b60008151905061145281611ff4565b92915050565b6000813590506114678161200b565b92915050565b60008151905061147c8161200b565b92915050565b60006020828403121561149457600080fd5b60006114a284828501611404565b91505092915050565b6000602082840312156114bd57600080fd5b60006114cb8482850161142e565b91505092915050565b6000602082840312156114e657600080fd5b60006114f484828501611443565b91505092915050565b60006020828403121561150f57600080fd5b600061151d84828501611458565b91505092915050565b60006020828403121561153857600080fd5b60006115468482850161146d565b91505092915050565b6000806040838503121561156257600080fd5b600061157085828601611458565b925050602061158185828601611404565b9150509250929050565b6000806040838503121561159e57600080fd5b60006115ac8582860161146d565b92505060206115bd85828601611419565b9150509250929050565b600080604083850312156115da57600080fd5b60006115e885828601611458565b92505060206115f985828601611458565b9150509250929050565b6000806040838503121561161657600080fd5b60006116248582860161146d565b92505060206116358582860161146d565b9150509250929050565b60008060006060848603121561165457600080fd5b600061166286828701611458565b935050602061167386828701611458565b925050604061168486828701611458565b9150509250925092565b600080600080600080600060e0888a0312156116a957600080fd5b60006116b78a828b01611458565b97505060206116c88a828b01611458565b96505060406116d98a828b01611458565b95505060606116ea8a828b01611458565b94505060806116fb8a828b01611458565b93505060a061170c8a828b01611458565b92505060c061171d8a828b01611404565b91505092959891949750929550565b61173581611f13565b82525050565b61174481611f31565b82525050565b6000611757602683611ded565b91507f4f776e61626c653a206e6577206f776e657220697320746865207a65726f206160008301527f64647265737300000000000000000000000000000000000000000000000000006020830152604082019050919050565b60006117bd601583611ded565b91507f4c69676874686f7573653a204e4f5f4c41554e434800000000000000000000006000830152602082019050919050565b60006117fd601f83611ded565b91507f4c69676874686f7573653a204e4f5f41554354494f4e5f454e445f54494d45006000830152602082019050919050565b600061183d601b83611ded565b91507f4c69676874686f7573653a20414c52454144595f5354415254454400000000006000830152602082019050919050565b600061187d601a83611ded565b91507f4c69676874686f7573653a20414c52454144595f4d494e5445440000000000006000830152602082019050919050565b60006118bd601883611ded565b91507f4c69676874686f7573653a204e4f545f494e56455354454400000000000000006000830152602082019050919050565b60006118fd602083611ded565b91507f4f776e61626c653a2063616c6c6572206973206e6f7420746865206f776e65726000830152602082019050919050565b600061193d601883611ded565b91507f4c69676874686f7573653a20494e56414c49445f5449455200000000000000006000830152602082019050919050565b600061197d602983611ded565b91507f4c69676874686f7573653a2053544152545f54494d455f4245464f52455f415560008301527f4354494f4e5f454e4400000000000000000000000000000000000000000000006020830152604082019050919050565b60006119e3601d83611ded565b91507f4c69676874686f7573653a2050524f4a4543545f4e4f545f45584953540000006000830152602082019050919050565b6000611a23601a83611ded565b91507f4c69676874686f7573653a205a45524f5f504152414d455445520000000000006000830152602082019050919050565b6000611a63601983611ded565b91507f4c69676874686f7573653a20414c52454144595f4144444544000000000000006000830152602082019050919050565b6000611aa3601883611ded565b91507f4c69676874686f7573653a205a45524f5f4144445245535300000000000000006000830152602082019050919050565b611adf81611f5e565b82525050565b6000602082019050611afa600083018461172c565b92915050565b60006020820190508181036000830152611b198161174a565b9050919050565b60006020820190508181036000830152611b39816117b0565b9050919050565b60006020820190508181036000830152611b59816117f0565b9050919050565b60006020820190508181036000830152611b7981611830565b9050919050565b60006020820190508181036000830152611b9981611870565b9050919050565b60006020820190508181036000830152611bb9816118b0565b9050919050565b60006020820190508181036000830152611bd9816118f0565b9050919050565b60006020820190508181036000830152611bf981611930565b9050919050565b60006020820190508181036000830152611c1981611970565b9050919050565b60006020820190508181036000830152611c39816119d6565b9050919050565b60006020820190508181036000830152611c5981611a16565b9050919050565b60006020820190508181036000830152611c7981611a56565b9050919050565b60006020820190508181036000830152611c9981611a96565b9050919050565b6000602082019050611cb56000830184611ad6565b92915050565b6000604082019050611cd06000830185611ad6565b611cdd602083018461172c565b9392505050565b6000604082019050611cf96000830185611ad6565b611d06602083018461173b565b9392505050565b600060a082019050611d226000830188611ad6565b611d2f6020830187611ad6565b611d3c6040830186611ad6565b611d496060830185611ad6565b611d566080830184611ad6565b9695505050505050565b600061012082019050611d76600083018c611ad6565b611d83602083018b611ad6565b611d90604083018a611ad6565b611d9d6060830189611ad6565b611daa6080830188611ad6565b611db760a0830187611ad6565b611dc460c083018661172c565b611dd160e083018561172c565b611ddf610100830184611ad6565b9a9950505050505050505050565b600082825260208201905092915050565b6000611e0982611f5e565b9150611e1483611f5e565b9250827fffffffffffffffffffffffffffffffffffffffffffffffffffffffffffffffff03821115611e4957611e48611f68565b5b828201905092915050565b6000611e5f82611f5e565b9150611e6a83611f5e565b925082611e7a57611e79611f97565b5b828204905092915050565b6000611e9082611f5e565b9150611e9b83611f5e565b9250817fffffffffffffffffffffffffffffffffffffffffffffffffffffffffffffffff0483118215151615611ed457611ed3611f68565b5b828202905092915050565b6000611eea82611f5e565b9150611ef583611f5e565b925082821015611f0857611f07611f68565b5b828203905092915050565b6000611f1e82611f3e565b9050919050565b60008115159050919050565b60008160000b9050919050565b600073ffffffffffffffffffffffffffffffffffffffff82169050919050565b6000819050919050565b7f4e487b7100000000000000000000000000000000000000000000000000000000600052601160045260246000fd5b7f4e487b7100000000000000000000000000000000000000000000000000000000600052601260045260246000fd5b611fcf81611f13565b8114611fda57600080fd5b50565b611fe681611f25565b8114611ff157600080fd5b50565b611ffd81611f31565b811461200857600080fd5b50565b61201481611f5e565b811461201f57600080fd5b5056fea264697066735822122011866e630e942b4fdda472db561c5993d076414fba1edb5bcead212ad431500264736f6c63430008000033",
  "linkReferences": {},
  "deployedLinkReferences": {}
}