{
  "_format": "hh-sol-artifact-1",
  "contractName": "LighthouseMint",
  "sourceName": "contracts/LighthouseMint.sol",
  "abi": [
    {
      "inputs": [
        {
          "internalType": "address",
          "name": "_lighthouseAuction",
          "type": "address"
        },
        {
          "internalType": "address",
          "name": "_lighthousePrefund",
          "type": "address"
        },
        {
          "internalType": "address",
          "name": "_lighthouseTier",
          "type": "address"
        },
        {
          "internalType": "address",
          "name": "_project",
          "type": "address"
        },
        {
          "internalType": "address",
          "name": "_crowns",
          "type": "address"
        },
        {
          "internalType": "uint256",
          "name": "_chainID",
          "type": "uint256"
        }
      ],
      "stateMutability": "nonpayable",
      "type": "constructor"
    },
    {
      "anonymous": false,
      "inputs": [
        {
          "indexed": true,
          "internalType": "uint256",
          "name": "projectId",
          "type": "uint256"
        },
        {
          "indexed": true,
          "internalType": "address",
          "name": "nft",
          "type": "address"
        },
        {
          "indexed": true,
          "internalType": "uint256",
          "name": "nftId",
          "type": "uint256"
        },
        {
          "indexed": false,
          "internalType": "address",
          "name": "owner",
          "type": "address"
        },
        {
          "indexed": false,
          "internalType": "uint256",
          "name": "allocation",
          "type": "uint256"
        },
        {
          "indexed": false,
          "internalType": "uint256",
          "name": "compensation",
          "type": "uint256"
        },
        {
          "indexed": false,
          "internalType": "int256",
          "name": "tierLevel",
          "type": "int256"
        },
        {
          "indexed": false,
          "internalType": "uint8",
          "name": "mintType",
          "type": "uint8"
        }
      ],
      "name": "Mint",
      "type": "event"
    },
    {
      "anonymous": false,
      "inputs": [
        {
          "indexed": true,
          "internalType": "address",
          "name": "previousOwner",
          "type": "address"
        },
        {
          "indexed": true,
          "internalType": "address",
          "name": "newOwner",
          "type": "address"
        }
      ],
      "name": "OwnershipTransferred",
      "type": "event"
    },
    {
      "inputs": [
        {
          "internalType": "uint256",
          "name": "projectId",
          "type": "uint256"
        },
        {
          "internalType": "address",
          "name": "nftAddress",
          "type": "address"
        },
        {
          "internalType": "uint256",
          "name": "nftId",
          "type": "uint256"
        },
        {
          "internalType": "uint256",
          "name": "allocation",
          "type": "uint256"
        },
        {
          "internalType": "uint256",
          "name": "compensation",
          "type": "uint256"
        },
        {
          "internalType": "int8",
          "name": "tierLevel",
          "type": "int8"
        },
        {
          "internalType": "uint8",
          "name": "mintType",
          "type": "uint8"
        }
      ],
      "name": "imitate",
      "outputs": [],
      "stateMutability": "nonpayable",
      "type": "function"
    },
    {
      "inputs": [
        {
          "internalType": "uint256",
          "name": "projectId",
          "type": "uint256"
        },
        {
          "internalType": "uint8",
          "name": "v",
          "type": "uint8"
        },
        {
          "internalType": "bytes32[2]",
          "name": "sig",
          "type": "bytes32[2]"
        }
      ],
      "name": "mint",
      "outputs": [],
      "stateMutability": "nonpayable",
      "type": "function"
    },
    {
      "inputs": [
        {
          "internalType": "uint256",
          "name": "",
          "type": "uint256"
        },
        {
          "internalType": "address",
          "name": "",
          "type": "address"
        }
      ],
      "name": "mintedNfts",
      "outputs": [
        {
          "internalType": "uint256",
          "name": "",
          "type": "uint256"
        }
      ],
      "stateMutability": "view",
      "type": "function"
    },
    {
      "inputs": [],
      "name": "owner",
      "outputs": [
        {
          "internalType": "address",
          "name": "",
          "type": "address"
        }
      ],
      "stateMutability": "view",
      "type": "function"
    },
    {
      "inputs": [],
      "name": "renounceOwnership",
      "outputs": [],
      "stateMutability": "nonpayable",
      "type": "function"
    },
    {
      "inputs": [
        {
          "internalType": "address",
          "name": "newTier",
          "type": "address"
        }
      ],
      "name": "setLighthouseTier",
      "outputs": [],
      "stateMutability": "nonpayable",
      "type": "function"
    },
    {
      "inputs": [
        {
          "internalType": "address",
          "name": "newOwner",
          "type": "address"
        }
      ],
      "name": "transferOwnership",
      "outputs": [],
      "stateMutability": "nonpayable",
      "type": "function"
    }
  ],
  "bytecode": "0x60806040523480156200001157600080fd5b50604051620025bb380380620025bb833981810160405281019062000037919062000404565b620000576200004b6200030a60201b60201c565b6200031260201b60201c565b600073ffffffffffffffffffffffffffffffffffffffff168673ffffffffffffffffffffffffffffffffffffffff1614158015620000c25750600073ffffffffffffffffffffffffffffffffffffffff168273ffffffffffffffffffffffffffffffffffffffff1614155b8015620000fc5750600073ffffffffffffffffffffffffffffffffffffffff168573ffffffffffffffffffffffffffffffffffffffff1614155b8015620001365750600073ffffffffffffffffffffffffffffffffffffffff168473ffffffffffffffffffffffffffffffffffffffff1614155b8015620001705750600073ffffffffffffffffffffffffffffffffffffffff168373ffffffffffffffffffffffffffffffffffffffff1614155b620001b2576040517f08c379a0000000000000000000000000000000000000000000000000000000008152600401620001a990620004dc565b60405180910390fd5b85600160006101000a81548173ffffffffffffffffffffffffffffffffffffffff021916908373ffffffffffffffffffffffffffffffffffffffff16021790555084600260006101000a81548173ffffffffffffffffffffffffffffffffffffffff021916908373ffffffffffffffffffffffffffffffffffffffff16021790555083600360006101000a81548173ffffffffffffffffffffffffffffffffffffffff021916908373ffffffffffffffffffffffffffffffffffffffff16021790555082600460006101000a81548173ffffffffffffffffffffffffffffffffffffffff021916908373ffffffffffffffffffffffffffffffffffffffff16021790555081600560006101000a81548173ffffffffffffffffffffffffffffffffffffffff021916908373ffffffffffffffffffffffffffffffffffffffff1602179055508060068190555050505050505062000581565b600033905090565b60008060009054906101000a900473ffffffffffffffffffffffffffffffffffffffff169050816000806101000a81548173ffffffffffffffffffffffffffffffffffffffff021916908373ffffffffffffffffffffffffffffffffffffffff1602179055508173ffffffffffffffffffffffffffffffffffffffff168173ffffffffffffffffffffffffffffffffffffffff167f8be0079c531659141344cd1fd0a4f28419497f9722a3daafe3b4186f6b6457e060405160405180910390a35050565b600081519050620003e7816200054d565b92915050565b600081519050620003fe8162000567565b92915050565b60008060008060008060c087890312156200041e57600080fd5b60006200042e89828a01620003d6565b96505060206200044189828a01620003d6565b95505060406200045489828a01620003d6565b94505060606200046789828a01620003d6565b93505060806200047a89828a01620003d6565b92505060a06200048d89828a01620003ed565b9150509295509295509295565b6000620004a9601883620004fe565b91507f4c69676874686f7573653a205a45524f5f4144445245535300000000000000006000830152602082019050919050565b60006020820190508181036000830152620004f7816200049a565b9050919050565b600082825260208201905092915050565b60006200051c8262000523565b9050919050565b600073ffffffffffffffffffffffffffffffffffffffff82169050919050565b6000819050919050565b62000558816200050f565b81146200056457600080fd5b50565b620005728162000543565b81146200057e57600080fd5b50565b61202a80620005916000396000f3fe608060405234801561001057600080fd5b506004361061007d5760003560e01c8063aee7a1ef1161005b578063aee7a1ef146100c6578063da8e78fd146100e2578063deab84d914610112578063f2fde38b1461012e5761007d565b80636ece305c14610082578063715018a61461009e5780638da5cb5b146100a8575b600080fd5b61009c600480360381019061009791906115a2565b61014a565b005b6100a66101ab565b005b6100b0610233565b6040516100bd9190611b2a565b60405180910390f35b6100e060048036038101906100db919061145d565b61025c565b005b6100fc60048036038101906100f7919061152a565b61031c565b6040516101099190611d3d565b60405180910390f35b61012c6004803603810190610127919061167c565b610341565b005b6101486004803603810190610143919061145d565b610f6f565b005b848673ffffffffffffffffffffffffffffffffffffffff16887f814b8e38d6559734e60dd56602a6ed5e2a6a30e19bc976c6c326420b48fe1aae338888888860405161019a959493929190611b45565b60405180910390a450505050505050565b6101b3611067565b73ffffffffffffffffffffffffffffffffffffffff166101d1610233565b73ffffffffffffffffffffffffffffffffffffffff1614610227576040517f08c379a000000000000000000000000000000000000000000000000000000000815260040161021e90611cdd565b60405180910390fd5b610231600061106f565b565b60008060009054906101000a900473ffffffffffffffffffffffffffffffffffffffff16905090565b610264611067565b73ffffffffffffffffffffffffffffffffffffffff16610282610233565b73ffffffffffffffffffffffffffffffffffffffff16146102d8576040517f08c379a00000000000000000000000000000000000000000000000000000000081526004016102cf90611cdd565b60405180910390fd5b80600360006101000a81548173ffffffffffffffffffffffffffffffffffffffff021916908373ffffffffffffffffffffffffffffffffffffffff16021790555050565b6007602052816000526040600020602052806000526040600020600091509150505481565b6000600460009054906101000a900473ffffffffffffffffffffffffffffffffffffffff1673ffffffffffffffffffffffffffffffffffffffff1663777de704856040518263ffffffff1660e01b815260040161039e9190611d3d565b60206040518083038186803b1580156103b657600080fd5b505afa1580156103ca573d6000803e3d6000fd5b505050506040513d601f19601f820116820180604052508101906103ee9190611501565b9050804211610432576040517f08c379a000000000000000000000000000000000000000000000000000000000815260040161042990611c5d565b60405180910390fd5b60006007600086815260200190815260200160002060003373ffffffffffffffffffffffffffffffffffffffff1673ffffffffffffffffffffffffffffffffffffffff16815260200190815260200160002054146104c5576040517f08c379a00000000000000000000000000000000000000000000000000000000081526004016104bc90611c9d565b60405180910390fd5b600460009054906101000a900473ffffffffffffffffffffffffffffffffffffffff1673ffffffffffffffffffffffffffffffffffffffff16631b4ead45856040518263ffffffff1660e01b81526004016105209190611d3d565b60206040518083038186803b15801561053857600080fd5b505afa15801561054c573d6000803e3d6000fd5b505050506040513d601f19601f8201168201806040525081019061057091906114af565b6105af576040517f08c379a00000000000000000000000000000000000000000000000000000000081526004016105a690611d1d565b60405180910390fd5b600460009054906101000a900473ffffffffffffffffffffffffffffffffffffffff1673ffffffffffffffffffffffffffffffffffffffff16630f784943856040518263ffffffff1660e01b815260040161060a9190611d3d565b60206040518083038186803b15801561062257600080fd5b505afa158015610636573d6000803e3d6000fd5b505050506040513d601f19601f8201168201806040525081019061065a91906114af565b610699576040517f08c379a000000000000000000000000000000000000000000000000000000000815260040161069090611c7d565b60405180910390fd5b6000600260009054906101000a900473ffffffffffffffffffffffffffffffffffffffff1673ffffffffffffffffffffffffffffffffffffffff166302deed0386336040518363ffffffff1660e01b81526004016106f8929190611d58565b60206040518083038186803b15801561071057600080fd5b505afa158015610724573d6000803e3d6000fd5b505050506040513d601f19601f8201168201806040525081019061074891906114af565b90506000600160009054906101000a900473ffffffffffffffffffffffffffffffffffffffff1673ffffffffffffffffffffffffffffffffffffffff16639eefc7b187336040518363ffffffff1660e01b81526004016107a9929190611d58565b60206040518083038186803b1580156107c157600080fd5b505afa1580156107d5573d6000803e3d6000fd5b505050506040513d601f19601f820116820180604052508101906107f99190611501565b905081806108075750600081115b610846576040517f08c379a000000000000000000000000000000000000000000000000000000000815260040161083d90611cbd565b60405180910390fd5b60003330600654896040516020016108619493929190611ab6565b604051602081830303815290604052805190602001206040516020016108879190611b04565b604051602081830303815290604052805190602001209050600460009054906101000a900473ffffffffffffffffffffffffffffffffffffffff1673ffffffffffffffffffffffffffffffffffffffff1663b60da0856040518163ffffffff1660e01b815260040160206040518083038186803b15801561090757600080fd5b505afa15801561091b573d6000803e3d6000fd5b505050506040513d601f19601f8201168201806040525081019061093f9190611486565b73ffffffffffffffffffffffffffffffffffffffff166001828888600060028110610993577f4e487b7100000000000000000000000000000000000000000000000000000000600052603260045260246000fd5b6020020135896001600281106109d2577f4e487b7100000000000000000000000000000000000000000000000000000000600052603260045260246000fd5b6020020135604051600081526020016040526040516109f49493929190611b98565b6020604051602081039080840390855afa158015610a16573d6000803e3d6000fd5b5050506020604051035173ffffffffffffffffffffffffffffffffffffffff1614610a76576040517f08c379a0000000000000000000000000000000000000000000000000000000008152600401610a6d90611c3d565b60405180910390fd5b506000600360009054906101000a900473ffffffffffffffffffffffffffffffffffffffff1673ffffffffffffffffffffffffffffffffffffffff166328fc4c3c336040518263ffffffff1660e01b8152600401610ad49190611b2a565b60206040518083038186803b158015610aec57600080fd5b505afa158015610b00573d6000803e3d6000fd5b505050506040513d601f19601f82011682018060405250810190610b2491906114d8565b905060008160000b13610be157600260009054906101000a900473ffffffffffffffffffffffffffffffffffffffff1673ffffffffffffffffffffffffffffffffffffffff16632803625688336040518363ffffffff1660e01b8152600401610b8e929190611d58565b60206040518083038186803b158015610ba657600080fd5b505afa158015610bba573d6000803e3d6000fd5b505050506040513d601f19601f82011682018060405250810190610bde91906114d8565b90505b60008160000b13610c27576040517f08c379a0000000000000000000000000000000000000000000000000000000008152600401610c1e90611cfd565b60405180910390fd5b6000600190506000808515610c4d57610c408a85611133565b8092508193505050610c64565b60029250610c5b8a866112be565b80925081935050505b6000600460009054906101000a900473ffffffffffffffffffffffffffffffffffffffff1673ffffffffffffffffffffffffffffffffffffffff16639d0214cb8c6040518263ffffffff1660e01b8152600401610cc19190611d3d565b60206040518083038186803b158015610cd957600080fd5b505afa158015610ced573d6000803e3d6000fd5b505050506040513d601f19601f82011682018060405250810190610d119190611486565b9050600081905060008173ffffffffffffffffffffffffffffffffffffffff1663caa0f92a6040518163ffffffff1660e01b815260040160206040518083038186803b158015610d6057600080fd5b505afa158015610d74573d6000803e3d6000fd5b505050506040513d601f19601f82011682018060405250810190610d989190611501565b905060008111610ddd576040517f08c379a0000000000000000000000000000000000000000000000000000000008152600401610dd490611bdd565b60405180910390fd5b8173ffffffffffffffffffffffffffffffffffffffff166353f036c78e833389898d8d6040518863ffffffff1660e01b8152600401610e229796959493929190611daa565b602060405180830381600087803b158015610e3c57600080fd5b505af1158015610e50573d6000803e3d6000fd5b505050506040513d601f19601f82011682018060405250810190610e7491906114af565b610eb3576040517f08c379a0000000000000000000000000000000000000000000000000000000008152600401610eaa90611c1d565b60405180910390fd5b80600760008f815260200190815260200160002060003373ffffffffffffffffffffffffffffffffffffffff1673ffffffffffffffffffffffffffffffffffffffff16815260200190815260200160002081905550808373ffffffffffffffffffffffffffffffffffffffff168e7f814b8e38d6559734e60dd56602a6ed5e2a6a30e19bc976c6c326420b48fe1aae3389898d8d604051610f58959493929190611b45565b60405180910390a450505050505050505050505050565b610f77611067565b73ffffffffffffffffffffffffffffffffffffffff16610f95610233565b73ffffffffffffffffffffffffffffffffffffffff1614610feb576040517f08c379a0000000000000000000000000000000000000000000000000000000008152600401610fe290611cdd565b60405180910390fd5b600073ffffffffffffffffffffffffffffffffffffffff168173ffffffffffffffffffffffffffffffffffffffff16141561105b576040517f08c379a000000000000000000000000000000000000000000000000000000000815260040161105290611bfd565b60405180910390fd5b6110648161106f565b50565b600033905090565b60008060009054906101000a900473ffffffffffffffffffffffffffffffffffffffff169050816000806101000a81548173ffffffffffffffffffffffffffffffffffffffff021916908373ffffffffffffffffffffffffffffffffffffffff1602179055508173ffffffffffffffffffffffffffffffffffffffff168173ffffffffffffffffffffffffffffffffffffffff167f8be0079c531659141344cd1fd0a4f28419497f9722a3daafe3b4186f6b6457e060405160405180910390a35050565b600080600080600460009054906101000a900473ffffffffffffffffffffffffffffffffffffffff1673ffffffffffffffffffffffffffffffffffffffff1663b47e9f3e876040518263ffffffff1660e01b81526004016111949190611d3d565b604080518083038186803b1580156111ab57600080fd5b505afa1580156111bf573d6000803e3d6000fd5b505050506040513d601f19601f820116820180604052508101906111e39190611640565b915091506000600460009054906101000a900473ffffffffffffffffffffffffffffffffffffffff1673ffffffffffffffffffffffffffffffffffffffff1663b5f5cf7088886040518363ffffffff1660e01b8152600401611246929190611d81565b604080518083038186803b15801561125d57600080fd5b505afa158015611271573d6000803e3d6000fd5b505050506040513d601f19601f820116820180604052508101906112959190611566565b50905080836112a49190611e35565b81836112b09190611e35565b945094505050509250929050565b600080600080600460009054906101000a900473ffffffffffffffffffffffffffffffffffffffff1673ffffffffffffffffffffffffffffffffffffffff16639922a1d5876040518263ffffffff1660e01b815260040161131f9190611d3d565b604080518083038186803b15801561133657600080fd5b505afa15801561134a573d6000803e3d6000fd5b505050506040513d601f19601f8201168201806040525081019061136e9190611640565b91509150848261137e9190611e35565b858261138a9190611e35565b9350935050509250929050565b6000813590506113a681611f81565b92915050565b6000815190506113bb81611f81565b92915050565b6000819050826020600202820111156113d957600080fd5b92915050565b6000815190506113ee81611f98565b92915050565b60008135905061140381611faf565b92915050565b60008151905061141881611faf565b92915050565b60008135905061142d81611fc6565b92915050565b60008151905061144281611fc6565b92915050565b60008135905061145781611fdd565b92915050565b60006020828403121561146f57600080fd5b600061147d84828501611397565b91505092915050565b60006020828403121561149857600080fd5b60006114a6848285016113ac565b91505092915050565b6000602082840312156114c157600080fd5b60006114cf848285016113df565b91505092915050565b6000602082840312156114ea57600080fd5b60006114f884828501611409565b91505092915050565b60006020828403121561151357600080fd5b600061152184828501611433565b91505092915050565b6000806040838503121561153d57600080fd5b600061154b8582860161141e565b925050602061155c85828601611397565b9150509250929050565b6000806040838503121561157957600080fd5b600061158785828601611433565b9250506020611598858286016113ac565b9150509250929050565b600080600080600080600060e0888a0312156115bd57600080fd5b60006115cb8a828b0161141e565b97505060206115dc8a828b01611397565b96505060406115ed8a828b0161141e565b95505060606115fe8a828b0161141e565b945050608061160f8a828b0161141e565b93505060a06116208a828b016113f4565b92505060c06116318a828b01611448565b91505092959891949750929550565b6000806040838503121561165357600080fd5b600061166185828601611433565b925050602061167285828601611433565b9150509250929050565b60008060006080848603121561169157600080fd5b600061169f8682870161141e565b93505060206116b086828701611448565b92505060406116c1868287016113c1565b9150509250925092565b6116d481611e8f565b82525050565b6116eb6116e682611e8f565b611f0d565b82525050565b6116fa81611ead565b82525050565b61171161170c82611ead565b611f1f565b82525050565b61172081611efb565b82525050565b61172f81611eb7565b82525050565b6000611742601983611e19565b91507f4c69676874686f7573653a204e4f5f4e46545f4d494e544544000000000000006000830152602082019050919050565b6000611782601c83611e2a565b91507f19457468657265756d205369676e6564204d6573736167653a0a3332000000006000830152601c82019050919050565b60006117c2602683611e19565b91507f4f776e61626c653a206e6577206f776e657220697320746865207a65726f206160008301527f64647265737300000000000000000000000000000000000000000000000000006020830152604082019050919050565b6000611828601683611e19565b91507f4c69676874686f7573654d696e743a204641494c4544000000000000000000006000830152602082019050919050565b6000611868600f83611e19565b91507f4c69676874686f7573653a2053494700000000000000000000000000000000006000830152602082019050919050565b60006118a8602083611e19565b91507f4c69676874686f7573653a2041554354494f4e5f46494e49534845445f5945546000830152602082019050919050565b60006118e8601983611e19565b91507f4c69676874686f7573653a204e4f5f5045524d495353494f4e000000000000006000830152602082019050919050565b6000611928601a83611e19565b91507f4c69676874686f7573653a20414c52454144595f4d494e5445440000000000006000830152602082019050919050565b6000611968601883611e19565b91507f4c69676874686f7573653a204e4f545f494e56455354454400000000000000006000830152602082019050919050565b60006119a8602083611e19565b91507f4f776e61626c653a2063616c6c6572206973206e6f7420746865206f776e65726000830152602082019050919050565b60006119e8601883611e19565b91507f4c69676874686f7573653a20494e56414c49445f5449455200000000000000006000830152602082019050919050565b6000611a28602a83611e19565b91507f4c69676874686f7573653a20414c4c4f434154494f4e5f4e4f545f494e49544960008301527f414c495a45445f594554000000000000000000000000000000000000000000006020830152604082019050919050565b611a8a81611ee4565b82525050565b611aa1611a9c82611ee4565b611f3b565b82525050565b611ab081611eee565b82525050565b6000611ac282876116da565b601482019150611ad282866116da565b601482019150611ae28285611a90565b602082019150611af28284611a90565b60208201915081905095945050505050565b6000611b0f82611775565b9150611b1b8284611700565b60208201915081905092915050565b6000602082019050611b3f60008301846116cb565b92915050565b600060a082019050611b5a60008301886116cb565b611b676020830187611a81565b611b746040830186611a81565b611b816060830185611717565b611b8e6080830184611aa7565b9695505050505050565b6000608082019050611bad60008301876116f1565b611bba6020830186611aa7565b611bc760408301856116f1565b611bd460608301846116f1565b95945050505050565b60006020820190508181036000830152611bf681611735565b9050919050565b60006020820190508181036000830152611c16816117b5565b9050919050565b60006020820190508181036000830152611c368161181b565b9050919050565b60006020820190508181036000830152611c568161185b565b9050919050565b60006020820190508181036000830152611c768161189b565b9050919050565b60006020820190508181036000830152611c96816118db565b9050919050565b60006020820190508181036000830152611cb68161191b565b9050919050565b60006020820190508181036000830152611cd68161195b565b9050919050565b60006020820190508181036000830152611cf68161199b565b9050919050565b60006020820190508181036000830152611d16816119db565b9050919050565b60006020820190508181036000830152611d3681611a1b565b9050919050565b6000602082019050611d526000830184611a81565b92915050565b6000604082019050611d6d6000830185611a81565b611d7a60208301846116cb565b9392505050565b6000604082019050611d966000830185611a81565b611da36020830184611726565b9392505050565b600060e082019050611dbf600083018a611a81565b611dcc6020830189611a81565b611dd960408301886116cb565b611de66060830187611a81565b611df36080830186611a81565b611e0060a0830185611726565b611e0d60c0830184611aa7565b98975050505050505050565b600082825260208201905092915050565b600081905092915050565b6000611e4082611ee4565b9150611e4b83611ee4565b9250817fffffffffffffffffffffffffffffffffffffffffffffffffffffffffffffffff0483118215151615611e8457611e83611f45565b5b828202905092915050565b6000611e9a82611ec4565b9050919050565b60008115159050919050565b6000819050919050565b60008160000b9050919050565b600073ffffffffffffffffffffffffffffffffffffffff82169050919050565b6000819050919050565b600060ff82169050919050565b6000611f0682611eb7565b9050919050565b6000611f1882611f29565b9050919050565b6000819050919050565b6000611f3482611f74565b9050919050565b6000819050919050565b7f4e487b7100000000000000000000000000000000000000000000000000000000600052601160045260246000fd5b60008160601b9050919050565b611f8a81611e8f565b8114611f9557600080fd5b50565b611fa181611ea1565b8114611fac57600080fd5b50565b611fb881611eb7565b8114611fc357600080fd5b50565b611fcf81611ee4565b8114611fda57600080fd5b50565b611fe681611eee565b8114611ff157600080fd5b5056fea2646970667358221220b3f05d4e78cede1c6a380ffea2859d9611ca359a2cd3631d5d35e8cc24e67ace64736f6c63430008000033",
  "linkReferences": {},
  "deployedLinkReferences": {}
}