{
  "_format": "hh-sol-artifact-1",
  "contractName": "LighthouseMint",
  "sourceName": "contracts/LighthouseMint.sol",
  "abi": [
    {
      "inputs": [
        {
          "internalType": "address",
          "name": "_lighthouseAuction",
          "type": "address"
        },
        {
          "internalType": "address",
          "name": "_lighthousePrefund",
          "type": "address"
        },
        {
          "internalType": "address",
          "name": "_lighthouseTier",
          "type": "address"
        },
        {
          "internalType": "address",
          "name": "_project",
          "type": "address"
        },
        {
          "internalType": "address",
          "name": "_crowns",
          "type": "address"
        }
      ],
      "stateMutability": "nonpayable",
      "type": "constructor"
    },
    {
      "anonymous": false,
      "inputs": [
        {
          "indexed": true,
          "internalType": "uint256",
          "name": "projectId",
          "type": "uint256"
        },
        {
          "indexed": true,
          "internalType": "address",
          "name": "nft",
          "type": "address"
        },
        {
          "indexed": true,
          "internalType": "uint256",
          "name": "nftId",
          "type": "uint256"
        },
        {
          "indexed": false,
          "internalType": "address",
          "name": "owner",
          "type": "address"
        },
        {
          "indexed": false,
          "internalType": "uint256",
          "name": "allocation",
          "type": "uint256"
        },
        {
          "indexed": false,
          "internalType": "uint256",
          "name": "compensation",
          "type": "uint256"
        }
      ],
      "name": "Mint",
      "type": "event"
    },
    {
      "anonymous": false,
      "inputs": [
        {
          "indexed": true,
          "internalType": "address",
          "name": "previousOwner",
          "type": "address"
        },
        {
          "indexed": true,
          "internalType": "address",
          "name": "newOwner",
          "type": "address"
        }
      ],
      "name": "OwnershipTransferred",
      "type": "event"
    },
    {
      "inputs": [
        {
          "internalType": "uint256",
          "name": "projectId",
          "type": "uint256"
        }
      ],
      "name": "mint",
      "outputs": [],
      "stateMutability": "nonpayable",
      "type": "function"
    },
    {
      "inputs": [
        {
          "internalType": "uint256",
          "name": "",
          "type": "uint256"
        },
        {
          "internalType": "address",
          "name": "",
          "type": "address"
        }
      ],
      "name": "mintedNfts",
      "outputs": [
        {
          "internalType": "uint256",
          "name": "",
          "type": "uint256"
        }
      ],
      "stateMutability": "view",
      "type": "function"
    },
    {
      "inputs": [],
      "name": "owner",
      "outputs": [
        {
          "internalType": "address",
          "name": "",
          "type": "address"
        }
      ],
      "stateMutability": "view",
      "type": "function"
    },
    {
      "inputs": [],
      "name": "renounceOwnership",
      "outputs": [],
      "stateMutability": "nonpayable",
      "type": "function"
    },
    {
      "inputs": [
        {
          "internalType": "address",
          "name": "newOwner",
          "type": "address"
        }
      ],
      "name": "transferOwnership",
      "outputs": [],
      "stateMutability": "nonpayable",
      "type": "function"
    }
  ],
  "bytecode": "0x60806040523480156200001157600080fd5b5060405162001ae738038062001ae78339818101604052810190620000379190620003e5565b620000576200004b6200030260201b60201c565b6200030a60201b60201c565b600073ffffffffffffffffffffffffffffffffffffffff168573ffffffffffffffffffffffffffffffffffffffff1614158015620000c25750600073ffffffffffffffffffffffffffffffffffffffff168173ffffffffffffffffffffffffffffffffffffffff1614155b8015620000fc5750600073ffffffffffffffffffffffffffffffffffffffff168473ffffffffffffffffffffffffffffffffffffffff1614155b8015620001365750600073ffffffffffffffffffffffffffffffffffffffff168373ffffffffffffffffffffffffffffffffffffffff1614155b8015620001705750600073ffffffffffffffffffffffffffffffffffffffff168273ffffffffffffffffffffffffffffffffffffffff1614155b620001b2576040517f08c379a0000000000000000000000000000000000000000000000000000000008152600401620001a990620004a9565b60405180910390fd5b84600160006101000a81548173ffffffffffffffffffffffffffffffffffffffff021916908373ffffffffffffffffffffffffffffffffffffffff16021790555083600260006101000a81548173ffffffffffffffffffffffffffffffffffffffff021916908373ffffffffffffffffffffffffffffffffffffffff16021790555082600360006101000a81548173ffffffffffffffffffffffffffffffffffffffff021916908373ffffffffffffffffffffffffffffffffffffffff16021790555081600460006101000a81548173ffffffffffffffffffffffffffffffffffffffff021916908373ffffffffffffffffffffffffffffffffffffffff16021790555080600560006101000a81548173ffffffffffffffffffffffffffffffffffffffff021916908373ffffffffffffffffffffffffffffffffffffffff16021790555050505050506200052a565b600033905090565b60008060009054906101000a900473ffffffffffffffffffffffffffffffffffffffff169050816000806101000a81548173ffffffffffffffffffffffffffffffffffffffff021916908373ffffffffffffffffffffffffffffffffffffffff1602179055508173ffffffffffffffffffffffffffffffffffffffff168173ffffffffffffffffffffffffffffffffffffffff167f8be0079c531659141344cd1fd0a4f28419497f9722a3daafe3b4186f6b6457e060405160405180910390a35050565b600081519050620003df8162000510565b92915050565b600080600080600060a08688031215620003fe57600080fd5b60006200040e88828901620003ce565b95505060206200042188828901620003ce565b94505060406200043488828901620003ce565b93505060606200044788828901620003ce565b92505060806200045a88828901620003ce565b9150509295509295909350565b600062000476601883620004cb565b91507f4c69676874686f7573653a205a45524f5f4144445245535300000000000000006000830152602082019050919050565b60006020820190508181036000830152620004c48162000467565b9050919050565b600082825260208201905092915050565b6000620004e982620004f0565b9050919050565b600073ffffffffffffffffffffffffffffffffffffffff82169050919050565b6200051b81620004dc565b81146200052757600080fd5b50565b6115ad806200053a6000396000f3fe608060405234801561001057600080fd5b50600436106100575760003560e01c8063715018a61461005c5780638da5cb5b14610066578063a0712d6814610084578063da8e78fd146100a0578063f2fde38b146100d0575b600080fd5b6100646100ec565b005b61006e610174565b60405161007b91906111ff565b60405180910390f35b61009e60048036038101906100999190610e71565b61019d565b005b6100ba60048036038101906100b59190610ec3565b610b66565b6040516100c79190611351565b60405180910390f35b6100ea60048036038101906100e59190610dcd565b610b8b565b005b6100f4610c83565b73ffffffffffffffffffffffffffffffffffffffff16610112610174565b73ffffffffffffffffffffffffffffffffffffffff1614610168576040517f08c379a000000000000000000000000000000000000000000000000000000000815260040161015f906112f1565b60405180910390fd5b6101726000610c8b565b565b60008060009054906101000a900473ffffffffffffffffffffffffffffffffffffffff16905090565b6000600460009054906101000a900473ffffffffffffffffffffffffffffffffffffffff1673ffffffffffffffffffffffffffffffffffffffff1663777de704836040518263ffffffff1660e01b81526004016101fa9190611351565b60206040518083038186803b15801561021257600080fd5b505afa158015610226573d6000803e3d6000fd5b505050506040513d601f19601f8201168201806040525081019061024a9190610e9a565b905080421161028e576040517f08c379a000000000000000000000000000000000000000000000000000000000815260040161028590611291565b60405180910390fd5b60006006600084815260200190815260200160002060003373ffffffffffffffffffffffffffffffffffffffff1673ffffffffffffffffffffffffffffffffffffffff1681526020019081526020016000205414610321576040517f08c379a0000000000000000000000000000000000000000000000000000000008152600401610318906112b1565b60405180910390fd5b600460009054906101000a900473ffffffffffffffffffffffffffffffffffffffff1673ffffffffffffffffffffffffffffffffffffffff16631b4ead45836040518263ffffffff1660e01b815260040161037c9190611351565b60206040518083038186803b15801561039457600080fd5b505afa1580156103a8573d6000803e3d6000fd5b505050506040513d601f19601f820116820180604052508101906103cc9190610e1f565b61040b576040517f08c379a000000000000000000000000000000000000000000000000000000000815260040161040290611331565b60405180910390fd5b6000600260009054906101000a900473ffffffffffffffffffffffffffffffffffffffff1673ffffffffffffffffffffffffffffffffffffffff166302deed0384336040518363ffffffff1660e01b815260040161046a92919061136c565b60206040518083038186803b15801561048257600080fd5b505afa158015610496573d6000803e3d6000fd5b505050506040513d601f19601f820116820180604052508101906104ba9190610e1f565b90506000600160009054906101000a900473ffffffffffffffffffffffffffffffffffffffff1673ffffffffffffffffffffffffffffffffffffffff16639eefc7b185336040518363ffffffff1660e01b815260040161051b92919061136c565b60206040518083038186803b15801561053357600080fd5b505afa158015610547573d6000803e3d6000fd5b505050506040513d601f19601f8201168201806040525081019061056b9190610e9a565b905081806105795750600081115b6105b8576040517f08c379a00000000000000000000000000000000000000000000000000000000081526004016105af906112d1565b60405180910390fd5b6000600360009054906101000a900473ffffffffffffffffffffffffffffffffffffffff1673ffffffffffffffffffffffffffffffffffffffff166328fc4c3c336040518263ffffffff1660e01b815260040161061591906111ff565b60206040518083038186803b15801561062d57600080fd5b505afa158015610641573d6000803e3d6000fd5b505050506040513d601f19601f820116820180604052508101906106659190610e48565b905060008160000b136106ad576040517f08c379a00000000000000000000000000000000000000000000000000000000081526004016106a490611311565b60405180910390fd5b6000806000806000871561084b5760019450600460009054906101000a900473ffffffffffffffffffffffffffffffffffffffff1673ffffffffffffffffffffffffffffffffffffffff1663b47e9f3e8b6040518263ffffffff1660e01b815260040161071a9190611351565b604080518083038186803b15801561073157600080fd5b505afa158015610745573d6000803e3d6000fd5b505050506040513d601f19601f820116820180604052508101906107699190610f3b565b8092508193505050600080600460009054906101000a900473ffffffffffffffffffffffffffffffffffffffff1673ffffffffffffffffffffffffffffffffffffffff1663b5f5cf708d8a6040518363ffffffff1660e01b81526004016107d19291906113f6565b604080518083038186803b1580156107e857600080fd5b505afa1580156107fc573d6000803e3d6000fd5b505050506040513d601f19601f820116820180604052508101906108209190610eff565b809250819350505081846108349190611430565b955081836108429190611430565b9450505061091e565b60029450600460009054906101000a900473ffffffffffffffffffffffffffffffffffffffff1673ffffffffffffffffffffffffffffffffffffffff16639922a1d58b6040518263ffffffff1660e01b81526004016108aa9190611351565b604080518083038186803b1580156108c157600080fd5b505afa1580156108d5573d6000803e3d6000fd5b505050506040513d601f19601f820116820180604052508101906108f99190610f3b565b8092508193505050868261090d9190611430565b9350868161091b9190611430565b92505b6000600460009054906101000a900473ffffffffffffffffffffffffffffffffffffffff1673ffffffffffffffffffffffffffffffffffffffff16639d0214cb8c6040518263ffffffff1660e01b815260040161097b9190611351565b60206040518083038186803b15801561099357600080fd5b505afa1580156109a7573d6000803e3d6000fd5b505050506040513d601f19601f820116820180604052508101906109cb9190610df6565b9050600081905060008173ffffffffffffffffffffffffffffffffffffffff16630dde7ef18e338a8a8e8e6040518763ffffffff1660e01b8152600401610a1796959493929190611395565b602060405180830381600087803b158015610a3157600080fd5b505af1158015610a45573d6000803e3d6000fd5b505050506040513d601f19601f82011682018060405250810190610a699190610e9a565b905060008111610aae576040517f08c379a0000000000000000000000000000000000000000000000000000000008152600401610aa590611251565b60405180910390fd5b80600660008f815260200190815260200160002060003373ffffffffffffffffffffffffffffffffffffffff1673ffffffffffffffffffffffffffffffffffffffff16815260200190815260200160002081905550808373ffffffffffffffffffffffffffffffffffffffff168e7fa83d603695073338ac034e47452778740ceba80e5976e1af06a45b53c4ef919e338b8b604051610b4f9392919061121a565b60405180910390a450505050505050505050505050565b6006602052816000526040600020602052806000526040600020600091509150505481565b610b93610c83565b73ffffffffffffffffffffffffffffffffffffffff16610bb1610174565b73ffffffffffffffffffffffffffffffffffffffff1614610c07576040517f08c379a0000000000000000000000000000000000000000000000000000000008152600401610bfe906112f1565b60405180910390fd5b600073ffffffffffffffffffffffffffffffffffffffff168173ffffffffffffffffffffffffffffffffffffffff161415610c77576040517f08c379a0000000000000000000000000000000000000000000000000000000008152600401610c6e90611271565b60405180910390fd5b610c8081610c8b565b50565b600033905090565b60008060009054906101000a900473ffffffffffffffffffffffffffffffffffffffff169050816000806101000a81548173ffffffffffffffffffffffffffffffffffffffff021916908373ffffffffffffffffffffffffffffffffffffffff1602179055508173ffffffffffffffffffffffffffffffffffffffff168173ffffffffffffffffffffffffffffffffffffffff167f8be0079c531659141344cd1fd0a4f28419497f9722a3daafe3b4186f6b6457e060405160405180910390a35050565b600081359050610d5e8161151b565b92915050565b600081519050610d738161151b565b92915050565b600081519050610d8881611532565b92915050565b600081519050610d9d81611549565b92915050565b600081359050610db281611560565b92915050565b600081519050610dc781611560565b92915050565b600060208284031215610ddf57600080fd5b6000610ded84828501610d4f565b91505092915050565b600060208284031215610e0857600080fd5b6000610e1684828501610d64565b91505092915050565b600060208284031215610e3157600080fd5b6000610e3f84828501610d79565b91505092915050565b600060208284031215610e5a57600080fd5b6000610e6884828501610d8e565b91505092915050565b600060208284031215610e8357600080fd5b6000610e9184828501610da3565b91505092915050565b600060208284031215610eac57600080fd5b6000610eba84828501610db8565b91505092915050565b60008060408385031215610ed657600080fd5b6000610ee485828601610da3565b9250506020610ef585828601610d4f565b9150509250929050565b60008060408385031215610f1257600080fd5b6000610f2085828601610db8565b9250506020610f3185828601610d64565b9150509250929050565b60008060408385031215610f4e57600080fd5b6000610f5c85828601610db8565b9250506020610f6d85828601610db8565b9150509250929050565b610f808161148a565b82525050565b610f8f816114a8565b82525050565b6000610fa260198361141f565b91507f4c69676874686f7573653a204e4f5f4e46545f4d494e544544000000000000006000830152602082019050919050565b6000610fe260268361141f565b91507f4f776e61626c653a206e6577206f776e657220697320746865207a65726f206160008301527f64647265737300000000000000000000000000000000000000000000000000006020830152604082019050919050565b600061104860208361141f565b91507f4c69676874686f7573653a2041554354494f4e5f46494e49534845445f5945546000830152602082019050919050565b6000611088601a8361141f565b91507f4c69676874686f7573653a20414c52454144595f4d494e5445440000000000006000830152602082019050919050565b60006110c860188361141f565b91507f4c69676874686f7573653a204e4f545f494e56455354454400000000000000006000830152602082019050919050565b600061110860208361141f565b91507f4f776e61626c653a2063616c6c6572206973206e6f7420746865206f776e65726000830152602082019050919050565b600061114860188361141f565b91507f4c69676874686f7573653a20494e56414c49445f5449455200000000000000006000830152602082019050919050565b6000611188602a8361141f565b91507f4c69676874686f7573653a20414c4c4f434154494f4e5f4e4f545f494e49544960008301527f414c495a45445f594554000000000000000000000000000000000000000000006020830152604082019050919050565b6111ea816114d5565b82525050565b6111f9816114df565b82525050565b60006020820190506112146000830184610f77565b92915050565b600060608201905061122f6000830186610f77565b61123c60208301856111e1565b61124960408301846111e1565b949350505050565b6000602082019050818103600083015261126a81610f95565b9050919050565b6000602082019050818103600083015261128a81610fd5565b9050919050565b600060208201905081810360008301526112aa8161103b565b9050919050565b600060208201905081810360008301526112ca8161107b565b9050919050565b600060208201905081810360008301526112ea816110bb565b9050919050565b6000602082019050818103600083015261130a816110fb565b9050919050565b6000602082019050818103600083015261132a8161113b565b9050919050565b6000602082019050818103600083015261134a8161117b565b9050919050565b600060208201905061136660008301846111e1565b92915050565b600060408201905061138160008301856111e1565b61138e6020830184610f77565b9392505050565b600060c0820190506113aa60008301896111e1565b6113b76020830188610f77565b6113c460408301876111e1565b6113d160608301866111e1565b6113de6080830185610f86565b6113eb60a08301846111f0565b979650505050505050565b600060408201905061140b60008301856111e1565b6114186020830184610f86565b9392505050565b600082825260208201905092915050565b600061143b826114d5565b9150611446836114d5565b9250817fffffffffffffffffffffffffffffffffffffffffffffffffffffffffffffffff048311821515161561147f5761147e6114ec565b5b828202905092915050565b6000611495826114b5565b9050919050565b60008115159050919050565b60008160000b9050919050565b600073ffffffffffffffffffffffffffffffffffffffff82169050919050565b6000819050919050565b600060ff82169050919050565b7f4e487b7100000000000000000000000000000000000000000000000000000000600052601160045260246000fd5b6115248161148a565b811461152f57600080fd5b50565b61153b8161149c565b811461154657600080fd5b50565b611552816114a8565b811461155d57600080fd5b50565b611569816114d5565b811461157457600080fd5b5056fea2646970667358221220f13b3b37605bfdbc601102493feb6f3b1fa24d193025900ded6059c4609f5a5164736f6c63430008000033",
  "linkReferences": {},
  "deployedLinkReferences": {}
}