{
  "_format": "hh-sol-artifact-1",
  "contractName": "LighthouseMint",
  "sourceName": "contracts/LighthouseMint.sol",
  "abi": [
    {
      "inputs": [
        {
          "internalType": "address",
          "name": "_lighthouseAuction",
          "type": "address"
        },
        {
          "internalType": "address",
          "name": "_lighthousePrefund",
          "type": "address"
        },
        {
          "internalType": "address",
          "name": "_lighthouseTier",
          "type": "address"
        },
        {
          "internalType": "address",
          "name": "_project",
          "type": "address"
        },
        {
          "internalType": "address",
          "name": "_crowns",
          "type": "address"
        }
      ],
      "stateMutability": "nonpayable",
      "type": "constructor"
    },
    {
      "anonymous": false,
      "inputs": [
        {
          "indexed": true,
          "internalType": "uint256",
          "name": "projectId",
          "type": "uint256"
        },
        {
          "indexed": true,
          "internalType": "address",
          "name": "nft",
          "type": "address"
        },
        {
          "indexed": true,
          "internalType": "uint256",
          "name": "nftId",
          "type": "uint256"
        },
        {
          "indexed": false,
          "internalType": "address",
          "name": "owner",
          "type": "address"
        },
        {
          "indexed": false,
          "internalType": "uint256",
          "name": "allocation",
          "type": "uint256"
        },
        {
          "indexed": false,
          "internalType": "uint256",
          "name": "compensation",
          "type": "uint256"
        }
      ],
      "name": "Mint",
      "type": "event"
    },
    {
      "anonymous": false,
      "inputs": [
        {
          "indexed": true,
          "internalType": "address",
          "name": "previousOwner",
          "type": "address"
        },
        {
          "indexed": true,
          "internalType": "address",
          "name": "newOwner",
          "type": "address"
        }
      ],
      "name": "OwnershipTransferred",
      "type": "event"
    },
    {
      "inputs": [
        {
          "internalType": "uint256",
          "name": "projectId",
          "type": "uint256"
        }
      ],
      "name": "mint",
      "outputs": [],
      "stateMutability": "nonpayable",
      "type": "function"
    },
    {
      "inputs": [
        {
          "internalType": "uint256",
          "name": "",
          "type": "uint256"
        },
        {
          "internalType": "address",
          "name": "",
          "type": "address"
        }
      ],
      "name": "mintedNfts",
      "outputs": [
        {
          "internalType": "uint256",
          "name": "",
          "type": "uint256"
        }
      ],
      "stateMutability": "view",
      "type": "function"
    },
    {
      "inputs": [],
      "name": "owner",
      "outputs": [
        {
          "internalType": "address",
          "name": "",
          "type": "address"
        }
      ],
      "stateMutability": "view",
      "type": "function"
    },
    {
      "inputs": [],
      "name": "renounceOwnership",
      "outputs": [],
      "stateMutability": "nonpayable",
      "type": "function"
    },
    {
      "inputs": [
        {
          "internalType": "uint256",
          "name": "projectId",
          "type": "uint256"
        },
        {
          "internalType": "uint256",
          "name": "nftId",
          "type": "uint256"
        }
      ],
      "name": "stake",
      "outputs": [],
      "stateMutability": "nonpayable",
      "type": "function"
    },
    {
      "inputs": [
        {
          "internalType": "address",
          "name": "newOwner",
          "type": "address"
        }
      ],
      "name": "transferOwnership",
      "outputs": [],
      "stateMutability": "nonpayable",
      "type": "function"
    }
  ],
  "bytecode": "0x60806040523480156200001157600080fd5b5060405162001b4e38038062001b4e8339818101604052810190620000379190620003e5565b620000576200004b6200030260201b60201c565b6200030a60201b60201c565b600073ffffffffffffffffffffffffffffffffffffffff168573ffffffffffffffffffffffffffffffffffffffff1614158015620000c25750600073ffffffffffffffffffffffffffffffffffffffff168173ffffffffffffffffffffffffffffffffffffffff1614155b8015620000fc5750600073ffffffffffffffffffffffffffffffffffffffff168473ffffffffffffffffffffffffffffffffffffffff1614155b8015620001365750600073ffffffffffffffffffffffffffffffffffffffff168373ffffffffffffffffffffffffffffffffffffffff1614155b8015620001705750600073ffffffffffffffffffffffffffffffffffffffff168273ffffffffffffffffffffffffffffffffffffffff1614155b620001b2576040517f08c379a0000000000000000000000000000000000000000000000000000000008152600401620001a990620004a9565b60405180910390fd5b84600160006101000a81548173ffffffffffffffffffffffffffffffffffffffff021916908373ffffffffffffffffffffffffffffffffffffffff16021790555083600260006101000a81548173ffffffffffffffffffffffffffffffffffffffff021916908373ffffffffffffffffffffffffffffffffffffffff16021790555082600360006101000a81548173ffffffffffffffffffffffffffffffffffffffff021916908373ffffffffffffffffffffffffffffffffffffffff16021790555081600460006101000a81548173ffffffffffffffffffffffffffffffffffffffff021916908373ffffffffffffffffffffffffffffffffffffffff16021790555080600560006101000a81548173ffffffffffffffffffffffffffffffffffffffff021916908373ffffffffffffffffffffffffffffffffffffffff16021790555050505050506200052a565b600033905090565b60008060009054906101000a900473ffffffffffffffffffffffffffffffffffffffff169050816000806101000a81548173ffffffffffffffffffffffffffffffffffffffff021916908373ffffffffffffffffffffffffffffffffffffffff1602179055508173ffffffffffffffffffffffffffffffffffffffff168173ffffffffffffffffffffffffffffffffffffffff167f8be0079c531659141344cd1fd0a4f28419497f9722a3daafe3b4186f6b6457e060405160405180910390a35050565b600081519050620003df8162000510565b92915050565b600080600080600060a08688031215620003fe57600080fd5b60006200040e88828901620003ce565b95505060206200042188828901620003ce565b94505060406200043488828901620003ce565b93505060606200044788828901620003ce565b92505060806200045a88828901620003ce565b9150509295509295909350565b600062000476601883620004cb565b91507f4c69676874686f7573653a205a45524f5f4144445245535300000000000000006000830152602082019050919050565b60006020820190508181036000830152620004c48162000467565b9050919050565b600082825260208201905092915050565b6000620004e982620004f0565b9050919050565b600073ffffffffffffffffffffffffffffffffffffffff82169050919050565b6200051b81620004dc565b81146200052757600080fd5b50565b611614806200053a6000396000f3fe608060405234801561001057600080fd5b50600436106100625760003560e01c8063715018a6146100675780637b0472f0146100715780638da5cb5b1461008d578063a0712d68146100ab578063da8e78fd146100c7578063f2fde38b146100f7575b600080fd5b61006f610113565b005b61008b60048036038101906100869190610f66565b61019b565b005b61009561019f565b6040516100a29190611266565b60405180910390f35b6100c560048036038101906100c09190610e9c565b6101c8565b005b6100e160048036038101906100dc9190610eee565b610b91565b6040516100ee91906113b8565b60405180910390f35b610111600480360381019061010c9190610df8565b610bb6565b005b61011b610cae565b73ffffffffffffffffffffffffffffffffffffffff1661013961019f565b73ffffffffffffffffffffffffffffffffffffffff161461018f576040517f08c379a000000000000000000000000000000000000000000000000000000000815260040161018690611358565b60405180910390fd5b6101996000610cb6565b565b5050565b60008060009054906101000a900473ffffffffffffffffffffffffffffffffffffffff16905090565b6000600460009054906101000a900473ffffffffffffffffffffffffffffffffffffffff1673ffffffffffffffffffffffffffffffffffffffff1663777de704836040518263ffffffff1660e01b815260040161022591906113b8565b60206040518083038186803b15801561023d57600080fd5b505afa158015610251573d6000803e3d6000fd5b505050506040513d601f19601f820116820180604052508101906102759190610ec5565b90508042116102b9576040517f08c379a00000000000000000000000000000000000000000000000000000000081526004016102b0906112f8565b60405180910390fd5b60006006600084815260200190815260200160002060003373ffffffffffffffffffffffffffffffffffffffff1673ffffffffffffffffffffffffffffffffffffffff168152602001908152602001600020541461034c576040517f08c379a000000000000000000000000000000000000000000000000000000000815260040161034390611318565b60405180910390fd5b600460009054906101000a900473ffffffffffffffffffffffffffffffffffffffff1673ffffffffffffffffffffffffffffffffffffffff16631b4ead45836040518263ffffffff1660e01b81526004016103a791906113b8565b60206040518083038186803b1580156103bf57600080fd5b505afa1580156103d3573d6000803e3d6000fd5b505050506040513d601f19601f820116820180604052508101906103f79190610e4a565b610436576040517f08c379a000000000000000000000000000000000000000000000000000000000815260040161042d90611398565b60405180910390fd5b6000600260009054906101000a900473ffffffffffffffffffffffffffffffffffffffff1673ffffffffffffffffffffffffffffffffffffffff166302deed0384336040518363ffffffff1660e01b81526004016104959291906113d3565b60206040518083038186803b1580156104ad57600080fd5b505afa1580156104c1573d6000803e3d6000fd5b505050506040513d601f19601f820116820180604052508101906104e59190610e4a565b90506000600160009054906101000a900473ffffffffffffffffffffffffffffffffffffffff1673ffffffffffffffffffffffffffffffffffffffff16639eefc7b185336040518363ffffffff1660e01b81526004016105469291906113d3565b60206040518083038186803b15801561055e57600080fd5b505afa158015610572573d6000803e3d6000fd5b505050506040513d601f19601f820116820180604052508101906105969190610ec5565b905081806105a45750600081115b6105e3576040517f08c379a00000000000000000000000000000000000000000000000000000000081526004016105da90611338565b60405180910390fd5b6000600360009054906101000a900473ffffffffffffffffffffffffffffffffffffffff1673ffffffffffffffffffffffffffffffffffffffff166328fc4c3c336040518263ffffffff1660e01b81526004016106409190611266565b60206040518083038186803b15801561065857600080fd5b505afa15801561066c573d6000803e3d6000fd5b505050506040513d601f19601f820116820180604052508101906106909190610e73565b905060008160000b136106d8576040517f08c379a00000000000000000000000000000000000000000000000000000000081526004016106cf90611378565b60405180910390fd5b600080600080600087156108765760019450600460009054906101000a900473ffffffffffffffffffffffffffffffffffffffff1673ffffffffffffffffffffffffffffffffffffffff1663b47e9f3e8b6040518263ffffffff1660e01b815260040161074591906113b8565b604080518083038186803b15801561075c57600080fd5b505afa158015610770573d6000803e3d6000fd5b505050506040513d601f19601f820116820180604052508101906107949190610fa2565b8092508193505050600080600460009054906101000a900473ffffffffffffffffffffffffffffffffffffffff1673ffffffffffffffffffffffffffffffffffffffff1663b5f5cf708d8a6040518363ffffffff1660e01b81526004016107fc92919061145d565b604080518083038186803b15801561081357600080fd5b505afa158015610827573d6000803e3d6000fd5b505050506040513d601f19601f8201168201806040525081019061084b9190610f2a565b8092508193505050818461085f9190611497565b9550818361086d9190611497565b94505050610949565b60029450600460009054906101000a900473ffffffffffffffffffffffffffffffffffffffff1673ffffffffffffffffffffffffffffffffffffffff16639922a1d58b6040518263ffffffff1660e01b81526004016108d591906113b8565b604080518083038186803b1580156108ec57600080fd5b505afa158015610900573d6000803e3d6000fd5b505050506040513d601f19601f820116820180604052508101906109249190610fa2565b809250819350505086826109389190611497565b935086816109469190611497565b92505b6000600460009054906101000a900473ffffffffffffffffffffffffffffffffffffffff1673ffffffffffffffffffffffffffffffffffffffff16639d0214cb8c6040518263ffffffff1660e01b81526004016109a691906113b8565b60206040518083038186803b1580156109be57600080fd5b505afa1580156109d2573d6000803e3d6000fd5b505050506040513d601f19601f820116820180604052508101906109f69190610e21565b9050600081905060008173ffffffffffffffffffffffffffffffffffffffff16630dde7ef18e338a8a8e8e6040518763ffffffff1660e01b8152600401610a42969594939291906113fc565b602060405180830381600087803b158015610a5c57600080fd5b505af1158015610a70573d6000803e3d6000fd5b505050506040513d601f19601f82011682018060405250810190610a949190610ec5565b905060008111610ad9576040517f08c379a0000000000000000000000000000000000000000000000000000000008152600401610ad0906112b8565b60405180910390fd5b80600660008f815260200190815260200160002060003373ffffffffffffffffffffffffffffffffffffffff1673ffffffffffffffffffffffffffffffffffffffff16815260200190815260200160002081905550808373ffffffffffffffffffffffffffffffffffffffff168e7fa83d603695073338ac034e47452778740ceba80e5976e1af06a45b53c4ef919e338b8b604051610b7a93929190611281565b60405180910390a450505050505050505050505050565b6006602052816000526040600020602052806000526040600020600091509150505481565b610bbe610cae565b73ffffffffffffffffffffffffffffffffffffffff16610bdc61019f565b73ffffffffffffffffffffffffffffffffffffffff1614610c32576040517f08c379a0000000000000000000000000000000000000000000000000000000008152600401610c2990611358565b60405180910390fd5b600073ffffffffffffffffffffffffffffffffffffffff168173ffffffffffffffffffffffffffffffffffffffff161415610ca2576040517f08c379a0000000000000000000000000000000000000000000000000000000008152600401610c99906112d8565b60405180910390fd5b610cab81610cb6565b50565b600033905090565b60008060009054906101000a900473ffffffffffffffffffffffffffffffffffffffff169050816000806101000a81548173ffffffffffffffffffffffffffffffffffffffff021916908373ffffffffffffffffffffffffffffffffffffffff1602179055508173ffffffffffffffffffffffffffffffffffffffff168173ffffffffffffffffffffffffffffffffffffffff167f8be0079c531659141344cd1fd0a4f28419497f9722a3daafe3b4186f6b6457e060405160405180910390a35050565b600081359050610d8981611582565b92915050565b600081519050610d9e81611582565b92915050565b600081519050610db381611599565b92915050565b600081519050610dc8816115b0565b92915050565b600081359050610ddd816115c7565b92915050565b600081519050610df2816115c7565b92915050565b600060208284031215610e0a57600080fd5b6000610e1884828501610d7a565b91505092915050565b600060208284031215610e3357600080fd5b6000610e4184828501610d8f565b91505092915050565b600060208284031215610e5c57600080fd5b6000610e6a84828501610da4565b91505092915050565b600060208284031215610e8557600080fd5b6000610e9384828501610db9565b91505092915050565b600060208284031215610eae57600080fd5b6000610ebc84828501610dce565b91505092915050565b600060208284031215610ed757600080fd5b6000610ee584828501610de3565b91505092915050565b60008060408385031215610f0157600080fd5b6000610f0f85828601610dce565b9250506020610f2085828601610d7a565b9150509250929050565b60008060408385031215610f3d57600080fd5b6000610f4b85828601610de3565b9250506020610f5c85828601610d8f565b9150509250929050565b60008060408385031215610f7957600080fd5b6000610f8785828601610dce565b9250506020610f9885828601610dce565b9150509250929050565b60008060408385031215610fb557600080fd5b6000610fc385828601610de3565b9250506020610fd485828601610de3565b9150509250929050565b610fe7816114f1565b82525050565b610ff68161150f565b82525050565b6000611009601983611486565b91507f4c69676874686f7573653a204e4f5f4e46545f4d494e544544000000000000006000830152602082019050919050565b6000611049602683611486565b91507f4f776e61626c653a206e6577206f776e657220697320746865207a65726f206160008301527f64647265737300000000000000000000000000000000000000000000000000006020830152604082019050919050565b60006110af602083611486565b91507f4c69676874686f7573653a2041554354494f4e5f46494e49534845445f5945546000830152602082019050919050565b60006110ef601a83611486565b91507f4c69676874686f7573653a20414c52454144595f4d494e5445440000000000006000830152602082019050919050565b600061112f601883611486565b91507f4c69676874686f7573653a204e4f545f494e56455354454400000000000000006000830152602082019050919050565b600061116f602083611486565b91507f4f776e61626c653a2063616c6c6572206973206e6f7420746865206f776e65726000830152602082019050919050565b60006111af601883611486565b91507f4c69676874686f7573653a20494e56414c49445f5449455200000000000000006000830152602082019050919050565b60006111ef602a83611486565b91507f4c69676874686f7573653a20414c4c4f434154494f4e5f4e4f545f494e49544960008301527f414c495a45445f594554000000000000000000000000000000000000000000006020830152604082019050919050565b6112518161153c565b82525050565b61126081611546565b82525050565b600060208201905061127b6000830184610fde565b92915050565b60006060820190506112966000830186610fde565b6112a36020830185611248565b6112b06040830184611248565b949350505050565b600060208201905081810360008301526112d181610ffc565b9050919050565b600060208201905081810360008301526112f18161103c565b9050919050565b60006020820190508181036000830152611311816110a2565b9050919050565b60006020820190508181036000830152611331816110e2565b9050919050565b6000602082019050818103600083015261135181611122565b9050919050565b6000602082019050818103600083015261137181611162565b9050919050565b60006020820190508181036000830152611391816111a2565b9050919050565b600060208201905081810360008301526113b1816111e2565b9050919050565b60006020820190506113cd6000830184611248565b92915050565b60006040820190506113e86000830185611248565b6113f56020830184610fde565b9392505050565b600060c0820190506114116000830189611248565b61141e6020830188610fde565b61142b6040830187611248565b6114386060830186611248565b6114456080830185610fed565b61145260a0830184611257565b979650505050505050565b60006040820190506114726000830185611248565b61147f6020830184610fed565b9392505050565b600082825260208201905092915050565b60006114a28261153c565b91506114ad8361153c565b9250817fffffffffffffffffffffffffffffffffffffffffffffffffffffffffffffffff04831182151516156114e6576114e5611553565b5b828202905092915050565b60006114fc8261151c565b9050919050565b60008115159050919050565b60008160000b9050919050565b600073ffffffffffffffffffffffffffffffffffffffff82169050919050565b6000819050919050565b600060ff82169050919050565b7f4e487b7100000000000000000000000000000000000000000000000000000000600052601160045260246000fd5b61158b816114f1565b811461159657600080fd5b50565b6115a281611503565b81146115ad57600080fd5b50565b6115b98161150f565b81146115c457600080fd5b50565b6115d08161153c565b81146115db57600080fd5b5056fea2646970667358221220cc1bec9a3f20ed881c2bc3528502ee406a26e840ca0c047dd69d946436da168f64736f6c63430008000033",
  "linkReferences": {},
  "deployedLinkReferences": {}
}