{
  "_format": "hh-sol-artifact-1",
  "contractName": "GiftNft",
  "sourceName": "contracts/GiftNft.sol",
  "abi": [
    {
      "inputs": [
        {
          "internalType": "string",
          "name": "nftName",
          "type": "string"
        },
        {
          "internalType": "string",
          "name": "nftSymbol",
          "type": "string"
        },
        {
          "internalType": "address",
          "name": "_auction",
          "type": "address"
        }
      ],
      "stateMutability": "nonpayable",
      "type": "constructor"
    },
    {
      "anonymous": false,
      "inputs": [
        {
          "indexed": true,
          "internalType": "address",
          "name": "owner",
          "type": "address"
        },
        {
          "indexed": true,
          "internalType": "address",
          "name": "approved",
          "type": "address"
        },
        {
          "indexed": true,
          "internalType": "uint256",
          "name": "tokenId",
          "type": "uint256"
        }
      ],
      "name": "Approval",
      "type": "event"
    },
    {
      "anonymous": false,
      "inputs": [
        {
          "indexed": true,
          "internalType": "address",
          "name": "owner",
          "type": "address"
        },
        {
          "indexed": true,
          "internalType": "address",
          "name": "operator",
          "type": "address"
        },
        {
          "indexed": false,
          "internalType": "bool",
          "name": "approved",
          "type": "bool"
        }
      ],
      "name": "ApprovalForAll",
      "type": "event"
    },
    {
      "anonymous": false,
      "inputs": [
        {
          "indexed": true,
          "internalType": "address",
          "name": "owner",
          "type": "address"
        },
        {
          "indexed": true,
          "internalType": "uint256",
          "name": "id",
          "type": "uint256"
        },
        {
          "indexed": true,
          "internalType": "uint256",
          "name": "projectId",
          "type": "uint256"
        }
      ],
      "name": "Gifted",
      "type": "event"
    },
    {
      "anonymous": false,
      "inputs": [
        {
          "indexed": true,
          "internalType": "address",
          "name": "previousOwner",
          "type": "address"
        },
        {
          "indexed": true,
          "internalType": "address",
          "name": "newOwner",
          "type": "address"
        }
      ],
      "name": "OwnershipTransferred",
      "type": "event"
    },
    {
      "anonymous": false,
      "inputs": [
        {
          "indexed": true,
          "internalType": "address",
          "name": "from",
          "type": "address"
        },
        {
          "indexed": true,
          "internalType": "address",
          "name": "to",
          "type": "address"
        },
        {
          "indexed": true,
          "internalType": "uint256",
          "name": "tokenId",
          "type": "uint256"
        }
      ],
      "name": "Transfer",
      "type": "event"
    },
    {
      "inputs": [
        {
          "internalType": "address",
          "name": "to",
          "type": "address"
        },
        {
          "internalType": "uint256",
          "name": "tokenId",
          "type": "uint256"
        }
      ],
      "name": "approve",
      "outputs": [],
      "stateMutability": "nonpayable",
      "type": "function"
    },
    {
      "inputs": [],
      "name": "auction",
      "outputs": [
        {
          "internalType": "contract LighthouseAuction",
          "name": "",
          "type": "address"
        }
      ],
      "stateMutability": "view",
      "type": "function"
    },
    {
      "inputs": [],
      "name": "auctionAddress",
      "outputs": [
        {
          "internalType": "address",
          "name": "",
          "type": "address"
        }
      ],
      "stateMutability": "view",
      "type": "function"
    },
    {
      "inputs": [
        {
          "internalType": "address",
          "name": "owner",
          "type": "address"
        }
      ],
      "name": "balanceOf",
      "outputs": [
        {
          "internalType": "uint256",
          "name": "",
          "type": "uint256"
        }
      ],
      "stateMutability": "view",
      "type": "function"
    },
    {
      "inputs": [
        {
          "internalType": "uint256",
          "name": "id",
          "type": "uint256"
        }
      ],
      "name": "burn",
      "outputs": [],
      "stateMutability": "nonpayable",
      "type": "function"
    },
    {
      "inputs": [
        {
          "internalType": "address",
          "name": "",
          "type": "address"
        }
      ],
      "name": "burners",
      "outputs": [
        {
          "internalType": "bool",
          "name": "",
          "type": "bool"
        }
      ],
      "stateMutability": "view",
      "type": "function"
    },
    {
      "inputs": [
        {
          "internalType": "uint256",
          "name": "",
          "type": "uint256"
        },
        {
          "internalType": "address",
          "name": "",
          "type": "address"
        }
      ],
      "name": "claimed",
      "outputs": [
        {
          "internalType": "bool",
          "name": "",
          "type": "bool"
        }
      ],
      "stateMutability": "view",
      "type": "function"
    },
    {
      "inputs": [
        {
          "internalType": "uint256",
          "name": "tokenId",
          "type": "uint256"
        }
      ],
      "name": "getApproved",
      "outputs": [
        {
          "internalType": "address",
          "name": "",
          "type": "address"
        }
      ],
      "stateMutability": "view",
      "type": "function"
    },
    {
      "inputs": [
        {
          "internalType": "address",
          "name": "owner",
          "type": "address"
        },
        {
          "internalType": "address",
          "name": "operator",
          "type": "address"
        }
      ],
      "name": "isApprovedForAll",
      "outputs": [
        {
          "internalType": "bool",
          "name": "",
          "type": "bool"
        }
      ],
      "stateMutability": "view",
      "type": "function"
    },
    {
      "inputs": [
        {
          "internalType": "uint256",
          "name": "_projectId",
          "type": "uint256"
        },
        {
          "internalType": "address",
          "name": "_to",
          "type": "address"
        }
      ],
      "name": "mint",
      "outputs": [
        {
          "internalType": "uint256",
          "name": "",
          "type": "uint256"
        }
      ],
      "stateMutability": "nonpayable",
      "type": "function"
    },
    {
      "inputs": [
        {
          "internalType": "address",
          "name": "",
          "type": "address"
        }
      ],
      "name": "minters",
      "outputs": [
        {
          "internalType": "bool",
          "name": "",
          "type": "bool"
        }
      ],
      "stateMutability": "view",
      "type": "function"
    },
    {
      "inputs": [],
      "name": "name",
      "outputs": [
        {
          "internalType": "string",
          "name": "",
          "type": "string"
        }
      ],
      "stateMutability": "view",
      "type": "function"
    },
    {
      "inputs": [],
      "name": "owner",
      "outputs": [
        {
          "internalType": "address",
          "name": "",
          "type": "address"
        }
      ],
      "stateMutability": "view",
      "type": "function"
    },
    {
      "inputs": [
        {
          "internalType": "uint256",
          "name": "tokenId",
          "type": "uint256"
        }
      ],
      "name": "ownerOf",
      "outputs": [
        {
          "internalType": "address",
          "name": "",
          "type": "address"
        }
      ],
      "stateMutability": "view",
      "type": "function"
    },
    {
      "inputs": [],
      "name": "renounceOwnership",
      "outputs": [],
      "stateMutability": "nonpayable",
      "type": "function"
    },
    {
      "inputs": [
        {
          "internalType": "address",
          "name": "from",
          "type": "address"
        },
        {
          "internalType": "address",
          "name": "to",
          "type": "address"
        },
        {
          "internalType": "uint256",
          "name": "tokenId",
          "type": "uint256"
        }
      ],
      "name": "safeTransferFrom",
      "outputs": [],
      "stateMutability": "nonpayable",
      "type": "function"
    },
    {
      "inputs": [
        {
          "internalType": "address",
          "name": "from",
          "type": "address"
        },
        {
          "internalType": "address",
          "name": "to",
          "type": "address"
        },
        {
          "internalType": "uint256",
          "name": "tokenId",
          "type": "uint256"
        },
        {
          "internalType": "bytes",
          "name": "_data",
          "type": "bytes"
        }
      ],
      "name": "safeTransferFrom",
      "outputs": [],
      "stateMutability": "nonpayable",
      "type": "function"
    },
    {
      "inputs": [
        {
          "internalType": "address",
          "name": "operator",
          "type": "address"
        },
        {
          "internalType": "bool",
          "name": "approved",
          "type": "bool"
        }
      ],
      "name": "setApprovalForAll",
      "outputs": [],
      "stateMutability": "nonpayable",
      "type": "function"
    },
    {
      "inputs": [
        {
          "internalType": "string",
          "name": "baseURI_",
          "type": "string"
        }
      ],
      "name": "setBaseURI",
      "outputs": [],
      "stateMutability": "nonpayable",
      "type": "function"
    },
    {
      "inputs": [
        {
          "internalType": "address",
          "name": "_burner",
          "type": "address"
        }
      ],
      "name": "setBurner",
      "outputs": [],
      "stateMutability": "nonpayable",
      "type": "function"
    },
    {
      "inputs": [
        {
          "internalType": "address",
          "name": "_minter",
          "type": "address"
        }
      ],
      "name": "setMinter",
      "outputs": [],
      "stateMutability": "nonpayable",
      "type": "function"
    },
    {
      "inputs": [
        {
          "internalType": "address",
          "name": "_owner",
          "type": "address"
        }
      ],
      "name": "setOwner",
      "outputs": [],
      "stateMutability": "nonpayable",
      "type": "function"
    },
    {
      "inputs": [
        {
          "internalType": "bytes4",
          "name": "interfaceId",
          "type": "bytes4"
        }
      ],
      "name": "supportsInterface",
      "outputs": [
        {
          "internalType": "bool",
          "name": "",
          "type": "bool"
        }
      ],
      "stateMutability": "view",
      "type": "function"
    },
    {
      "inputs": [],
      "name": "symbol",
      "outputs": [
        {
          "internalType": "string",
          "name": "",
          "type": "string"
        }
      ],
      "stateMutability": "view",
      "type": "function"
    },
    {
      "inputs": [
        {
          "internalType": "uint256",
          "name": "tokenId",
          "type": "uint256"
        }
      ],
      "name": "tokenURI",
      "outputs": [
        {
          "internalType": "string",
          "name": "",
          "type": "string"
        }
      ],
      "stateMutability": "view",
      "type": "function"
    },
    {
      "inputs": [
        {
          "internalType": "address",
          "name": "from",
          "type": "address"
        },
        {
          "internalType": "address",
          "name": "to",
          "type": "address"
        },
        {
          "internalType": "uint256",
          "name": "tokenId",
          "type": "uint256"
        }
      ],
      "name": "transferFrom",
      "outputs": [],
      "stateMutability": "nonpayable",
      "type": "function"
    },
    {
      "inputs": [
        {
          "internalType": "address",
          "name": "newOwner",
          "type": "address"
        }
      ],
      "name": "transferOwnership",
      "outputs": [],
      "stateMutability": "nonpayable",
      "type": "function"
    },
    {
      "inputs": [
        {
          "internalType": "address",
          "name": "_burner",
          "type": "address"
        }
      ],
      "name": "unsetBurner",
      "outputs": [],
      "stateMutability": "nonpayable",
      "type": "function"
    },
    {
      "inputs": [
        {
          "internalType": "address",
          "name": "_minter",
          "type": "address"
        }
      ],
      "name": "unsetMinter",
      "outputs": [],
      "stateMutability": "nonpayable",
      "type": "function"
    }
  ],
  "bytecode": "0x60806040523480156200001157600080fd5b5060405162004154380380620041548339818101604052810190620000379190620003d6565b82828160009080519060200190620000519291906200029d565b5080600190805190602001906200006a9291906200029d565b5050506200008d62000081620001b960201b60201c565b620001c160201b60201c565b600073ffffffffffffffffffffffffffffffffffffffff168173ffffffffffffffffffffffffffffffffffffffff16141562000100576040517f08c379a0000000000000000000000000000000000000000000000000000000008152600401620000f790620004a0565b60405180910390fd5b6200011760086200028760201b620018fb1760201c565b80600960006101000a81548173ffffffffffffffffffffffffffffffffffffffff021916908373ffffffffffffffffffffffffffffffffffffffff1602179055506001600b60008373ffffffffffffffffffffffffffffffffffffffff1673ffffffffffffffffffffffffffffffffffffffff16815260200190815260200160002060006101000a81548160ff02191690831515021790555050505062000652565b600033905090565b6000600660009054906101000a900473ffffffffffffffffffffffffffffffffffffffff16905081600660006101000a81548173ffffffffffffffffffffffffffffffffffffffff021916908373ffffffffffffffffffffffffffffffffffffffff1602179055508173ffffffffffffffffffffffffffffffffffffffff168173ffffffffffffffffffffffffffffffffffffffff167f8be0079c531659141344cd1fd0a4f28419497f9722a3daafe3b4186f6b6457e060405160405180910390a35050565b6001816000016000828254019250508190555050565b828054620002ab90620005a4565b90600052602060002090601f016020900481019282620002cf57600085556200031b565b82601f10620002ea57805160ff19168380011785556200031b565b828001600101855582156200031b579182015b828111156200031a578251825591602001919060010190620002fd565b5b5090506200032a91906200032e565b5090565b5b80821115620003495760008160009055506001016200032f565b5090565b6000620003646200035e84620004f6565b620004c2565b9050828152602081018484840111156200037d57600080fd5b6200038a8482856200056e565b509392505050565b600081519050620003a38162000638565b92915050565b600082601f830112620003bb57600080fd5b8151620003cd8482602086016200034d565b91505092915050565b600080600060608486031215620003ec57600080fd5b600084015167ffffffffffffffff8111156200040757600080fd5b6200041586828701620003a9565b935050602084015167ffffffffffffffff8111156200043357600080fd5b6200044186828701620003a9565b9250506040620004548682870162000392565b9150509250925092565b60006200046d60188362000529565b91507f4c69676874686f7573653a205a45524f5f4144445245535300000000000000006000830152602082019050919050565b60006020820190508181036000830152620004bb816200045e565b9050919050565b6000604051905081810181811067ffffffffffffffff82111715620004ec57620004eb62000609565b5b8060405250919050565b600067ffffffffffffffff82111562000514576200051362000609565b5b601f19601f8301169050602081019050919050565b600082825260208201905092915050565b600062000547826200054e565b9050919050565b600073ffffffffffffffffffffffffffffffffffffffff82169050919050565b60005b838110156200058e57808201518184015260208101905062000571565b838111156200059e576000848401525b50505050565b60006002820490506001821680620005bd57607f821691505b60208210811415620005d457620005d3620005da565b5b50919050565b7f4e487b7100000000000000000000000000000000000000000000000000000000600052602260045260246000fd5b7f4e487b7100000000000000000000000000000000000000000000000000000000600052604160045260246000fd5b62000643816200053a565b81146200064f57600080fd5b50565b613af280620006626000396000f3fe608060405234801561001057600080fd5b50600436106101cf5760003560e01c8063715018a611610104578063a996d6ce116100a2578063eb7f143811610071578063eb7f14381461053c578063f2fde38b14610558578063f46eccc414610574578063fca3b5aa146105a4576101cf565b8063a996d6ce146104a4578063b88d4fde146104c0578063c87b56dd146104dc578063e985e9c51461050c576101cf565b80638da5cb5b116100de5780638da5cb5b1461041c57806394bf804d1461043a57806395d89b411461046a578063a22cb46514610488576101cf565b8063715018a6146103d857806371f2337e146103e25780637d9f6db5146103fe576101cf565b806323b872dd116101715780635476ea9e1161014b5780635476ea9e1461033e57806355f804b31461035c5780636352211e1461037857806370a08231146103a8576101cf565b806323b872dd146102ea57806342842e0e1461030657806342966c6814610322576101cf565b8063081812fc116101ad578063081812fc14610252578063095ea7b314610282578063120aa8771461029e57806313af4035146102ce576101cf565b806301ffc9a7146101d457806303d41e0e1461020457806306fdde0314610234575b600080fd5b6101ee60048036038101906101e991906129db565b6105c0565b6040516101fb919061336b565b60405180910390f35b61021e60048036038101906102199190612834565b6106a2565b60405161022b919061336b565b60405180910390f35b61023c6106c2565b60405161024991906133a1565b60405180910390f35b61026c60048036038101906102679190612a6e565b610754565b6040516102799190613304565b60405180910390f35b61029c6004803603810190610297919061299f565b6107d9565b005b6102b860048036038101906102b39190612a97565b6108f1565b6040516102c5919061336b565b60405180910390f35b6102e860048036038101906102e39190612834565b610920565b005b61030460048036038101906102ff9190612899565b6109a8565b005b610320600480360381019061031b9190612899565b610a08565b005b61033c60048036038101906103379190612a6e565b610a28565b005b610346610b85565b6040516103539190613304565b60405180910390f35b61037660048036038101906103719190612a2d565b610baf565b005b610392600480360381019061038d9190612a6e565b610c45565b60405161039f9190613304565b60405180910390f35b6103c260048036038101906103bd9190612834565b610cf7565b6040516103cf9190613663565b60405180910390f35b6103e0610daf565b005b6103fc60048036038101906103f79190612834565b610e37565b005b610406610f0e565b6040516104139190613386565b60405180910390f35b610424610f34565b6040516104319190613304565b60405180910390f35b610454600480360381019061044f9190612a97565b610f5e565b6040516104619190613663565b60405180910390f35b6104726111ae565b60405161047f91906133a1565b60405180910390f35b6104a2600480360381019061049d9190612963565b611240565b005b6104be60048036038101906104b99190612834565b6113c1565b005b6104da60048036038101906104d591906128e8565b611498565b005b6104f660048036038101906104f19190612a6e565b6114fa565b60405161050391906133a1565b60405180910390f35b6105266004803603810190610521919061285d565b6115a1565b604051610533919061336b565b60405180910390f35b61055660048036038101906105519190612834565b611635565b005b610572600480360381019061056d9190612834565b61170c565b005b61058e60048036038101906105899190612834565b611804565b60405161059b919061336b565b60405180910390f35b6105be60048036038101906105b99190612834565b611824565b005b60007f80ac58cd000000000000000000000000000000000000000000000000000000007bffffffffffffffffffffffffffffffffffffffffffffffffffffffff1916827bffffffffffffffffffffffffffffffffffffffffffffffffffffffff1916148061068b57507f5b5e139f000000000000000000000000000000000000000000000000000000007bffffffffffffffffffffffffffffffffffffffffffffffffffffffff1916827bffffffffffffffffffffffffffffffffffffffffffffffffffffffff1916145b8061069b575061069a82611911565b5b9050919050565b600c6020528060005260406000206000915054906101000a900460ff1681565b6060600080546106d1906138e7565b80601f01602080910402602001604051908101604052809291908181526020018280546106fd906138e7565b801561074a5780601f1061071f5761010080835404028352916020019161074a565b820191906000526020600020905b81548152906001019060200180831161072d57829003601f168201915b5050505050905090565b600061075f8261197b565b61079e576040517f08c379a000000000000000000000000000000000000000000000000000000000815260040161079590613523565b60405180910390fd5b6004600083815260200190815260200160002060009054906101000a900473ffffffffffffffffffffffffffffffffffffffff169050919050565b60006107e482610c45565b90508073ffffffffffffffffffffffffffffffffffffffff168373ffffffffffffffffffffffffffffffffffffffff161415610855576040517f08c379a000000000000000000000000000000000000000000000000000000000815260040161084c906135c3565b60405180910390fd5b8073ffffffffffffffffffffffffffffffffffffffff166108746119e7565b73ffffffffffffffffffffffffffffffffffffffff1614806108a357506108a28161089d6119e7565b6115a1565b5b6108e2576040517f08c379a00000000000000000000000000000000000000000000000000000000081526004016108d9906134a3565b60405180910390fd5b6108ec83836119ef565b505050565b600a6020528160005260406000206020528060005260406000206000915091509054906101000a900460ff1681565b6109286119e7565b73ffffffffffffffffffffffffffffffffffffffff16610946610f34565b73ffffffffffffffffffffffffffffffffffffffff161461099c576040517f08c379a000000000000000000000000000000000000000000000000000000000815260040161099390613543565b60405180910390fd5b6109a58161170c565b50565b6109b96109b36119e7565b82611aa8565b6109f8576040517f08c379a00000000000000000000000000000000000000000000000000000000081526004016109ef906135e3565b60405180910390fd5b610a03838383611b86565b505050565b610a2383838360405180602001604052806000815250611498565b505050565b600c6000610a346119e7565b73ffffffffffffffffffffffffffffffffffffffff1673ffffffffffffffffffffffffffffffffffffffff16815260200190815260200160002060009054906101000a900460ff16610abb576040517f08c379a0000000000000000000000000000000000000000000000000000000008152600401610ab290613603565b60405180910390fd5b610acc610ac66119e7565b82611aa8565b610b0b576040517f08c379a0000000000000000000000000000000000000000000000000000000008152600401610b0290613643565b60405180910390fd5b6000610b1682610c45565b9050610b2182611de2565b600a600083815260200190815260200160002060008273ffffffffffffffffffffffffffffffffffffffff1673ffffffffffffffffffffffffffffffffffffffff16815260200190815260200160002060006101000a81549060ff02191690555050565b6000600960009054906101000a900473ffffffffffffffffffffffffffffffffffffffff16905090565b610bb76119e7565b73ffffffffffffffffffffffffffffffffffffffff16610bd5610f34565b73ffffffffffffffffffffffffffffffffffffffff1614610c2b576040517f08c379a0000000000000000000000000000000000000000000000000000000008152600401610c2290613543565b60405180910390fd5b8060079080519060200190610c41929190612658565b5050565b6000806002600084815260200190815260200160002060009054906101000a900473ffffffffffffffffffffffffffffffffffffffff169050600073ffffffffffffffffffffffffffffffffffffffff168173ffffffffffffffffffffffffffffffffffffffff161415610cee576040517f08c379a0000000000000000000000000000000000000000000000000000000008152600401610ce5906134e3565b60405180910390fd5b80915050919050565b60008073ffffffffffffffffffffffffffffffffffffffff168273ffffffffffffffffffffffffffffffffffffffff161415610d68576040517f08c379a0000000000000000000000000000000000000000000000000000000008152600401610d5f906134c3565b60405180910390fd5b600360008373ffffffffffffffffffffffffffffffffffffffff1673ffffffffffffffffffffffffffffffffffffffff168152602001908152602001600020549050919050565b610db76119e7565b73ffffffffffffffffffffffffffffffffffffffff16610dd5610f34565b73ffffffffffffffffffffffffffffffffffffffff1614610e2b576040517f08c379a0000000000000000000000000000000000000000000000000000000008152600401610e2290613543565b60405180910390fd5b610e356000611ef3565b565b610e3f6119e7565b73ffffffffffffffffffffffffffffffffffffffff16610e5d610f34565b73ffffffffffffffffffffffffffffffffffffffff1614610eb3576040517f08c379a0000000000000000000000000000000000000000000000000000000008152600401610eaa90613543565b60405180910390fd5b6000600b60008373ffffffffffffffffffffffffffffffffffffffff1673ffffffffffffffffffffffffffffffffffffffff16815260200190815260200160002060006101000a81548160ff02191690831515021790555050565b600960009054906101000a900473ffffffffffffffffffffffffffffffffffffffff1681565b6000600660009054906101000a900473ffffffffffffffffffffffffffffffffffffffff16905090565b6000600b6000610f6c6119e7565b73ffffffffffffffffffffffffffffffffffffffff1673ffffffffffffffffffffffffffffffffffffffff16815260200190815260200160002060009054906101000a900460ff16610ff3576040517f08c379a0000000000000000000000000000000000000000000000000000000008152600401610fea90613423565b60405180910390fd5b60008311611036576040517f08c379a000000000000000000000000000000000000000000000000000000000815260040161102d906135a3565b60405180910390fd5b600a600084815260200190815260200160002060008373ffffffffffffffffffffffffffffffffffffffff1673ffffffffffffffffffffffffffffffffffffffff16815260200190815260200160002060009054906101000a900460ff16156110d4576040517f08c379a00000000000000000000000000000000000000000000000000000000081526004016110cb90613623565b60405180910390fd5b60006110e06008611fb9565b90506110ec8382611fc7565b6110f660086118fb565b6001600a600086815260200190815260200160002060008573ffffffffffffffffffffffffffffffffffffffff1673ffffffffffffffffffffffffffffffffffffffff16815260200190815260200160002060006101000a81548160ff02191690831515021790555083818473ffffffffffffffffffffffffffffffffffffffff167f0b490cac113efb87cfea5c6314bc9ecb35a72068d1166f5a6783e4bcfff2110560405160405180910390a48091505092915050565b6060600180546111bd906138e7565b80601f01602080910402602001604051908101604052809291908181526020018280546111e9906138e7565b80156112365780601f1061120b57610100808354040283529160200191611236565b820191906000526020600020905b81548152906001019060200180831161121957829003601f168201915b5050505050905090565b6112486119e7565b73ffffffffffffffffffffffffffffffffffffffff168273ffffffffffffffffffffffffffffffffffffffff1614156112b6576040517f08c379a00000000000000000000000000000000000000000000000000000000081526004016112ad90613463565b60405180910390fd5b80600560006112c36119e7565b73ffffffffffffffffffffffffffffffffffffffff1673ffffffffffffffffffffffffffffffffffffffff16815260200190815260200160002060008473ffffffffffffffffffffffffffffffffffffffff1673ffffffffffffffffffffffffffffffffffffffff16815260200190815260200160002060006101000a81548160ff0219169083151502179055508173ffffffffffffffffffffffffffffffffffffffff166113706119e7565b73ffffffffffffffffffffffffffffffffffffffff167f17307eab39ab6107e8899845ad3d59bd9653f200f220920489ca2b5937696c31836040516113b5919061336b565b60405180910390a35050565b6113c96119e7565b73ffffffffffffffffffffffffffffffffffffffff166113e7610f34565b73ffffffffffffffffffffffffffffffffffffffff161461143d576040517f08c379a000000000000000000000000000000000000000000000000000000000815260040161143490613543565b60405180910390fd5b6001600c60008373ffffffffffffffffffffffffffffffffffffffff1673ffffffffffffffffffffffffffffffffffffffff16815260200190815260200160002060006101000a81548160ff02191690831515021790555050565b6114a96114a36119e7565b83611aa8565b6114e8576040517f08c379a00000000000000000000000000000000000000000000000000000000081526004016114df906135e3565b60405180910390fd5b6114f484848484611fe5565b50505050565b60606115058261197b565b611544576040517f08c379a000000000000000000000000000000000000000000000000000000000815260040161153b90613583565b60405180910390fd5b600061154e612041565b9050600081511161156e5760405180602001604052806000815250611599565b80611578846120d3565b6040516020016115899291906132e0565b6040516020818303038152906040525b915050919050565b6000600560008473ffffffffffffffffffffffffffffffffffffffff1673ffffffffffffffffffffffffffffffffffffffff16815260200190815260200160002060008373ffffffffffffffffffffffffffffffffffffffff1673ffffffffffffffffffffffffffffffffffffffff16815260200190815260200160002060009054906101000a900460ff16905092915050565b61163d6119e7565b73ffffffffffffffffffffffffffffffffffffffff1661165b610f34565b73ffffffffffffffffffffffffffffffffffffffff16146116b1576040517f08c379a00000000000000000000000000000000000000000000000000000000081526004016116a890613543565b60405180910390fd5b6000600c60008373ffffffffffffffffffffffffffffffffffffffff1673ffffffffffffffffffffffffffffffffffffffff16815260200190815260200160002060006101000a81548160ff02191690831515021790555050565b6117146119e7565b73ffffffffffffffffffffffffffffffffffffffff16611732610f34565b73ffffffffffffffffffffffffffffffffffffffff1614611788576040517f08c379a000000000000000000000000000000000000000000000000000000000815260040161177f90613543565b60405180910390fd5b600073ffffffffffffffffffffffffffffffffffffffff168173ffffffffffffffffffffffffffffffffffffffff1614156117f8576040517f08c379a00000000000000000000000000000000000000000000000000000000081526004016117ef906133e3565b60405180910390fd5b61180181611ef3565b50565b600b6020528060005260406000206000915054906101000a900460ff1681565b61182c6119e7565b73ffffffffffffffffffffffffffffffffffffffff1661184a610f34565b73ffffffffffffffffffffffffffffffffffffffff16146118a0576040517f08c379a000000000000000000000000000000000000000000000000000000000815260040161189790613543565b60405180910390fd5b6001600b60008373ffffffffffffffffffffffffffffffffffffffff1673ffffffffffffffffffffffffffffffffffffffff16815260200190815260200160002060006101000a81548160ff02191690831515021790555050565b6001816000016000828254019250508190555050565b60007f01ffc9a7000000000000000000000000000000000000000000000000000000007bffffffffffffffffffffffffffffffffffffffffffffffffffffffff1916827bffffffffffffffffffffffffffffffffffffffffffffffffffffffff1916149050919050565b60008073ffffffffffffffffffffffffffffffffffffffff166002600084815260200190815260200160002060009054906101000a900473ffffffffffffffffffffffffffffffffffffffff1673ffffffffffffffffffffffffffffffffffffffff1614159050919050565b600033905090565b816004600083815260200190815260200160002060006101000a81548173ffffffffffffffffffffffffffffffffffffffff021916908373ffffffffffffffffffffffffffffffffffffffff160217905550808273ffffffffffffffffffffffffffffffffffffffff16611a6283610c45565b73ffffffffffffffffffffffffffffffffffffffff167f8c5be1e5ebec7d5bd14f71427d1e84f3dd0314c0f7b2291e5b200ac8c7c3b92560405160405180910390a45050565b6000611ab38261197b565b611af2576040517f08c379a0000000000000000000000000000000000000000000000000000000008152600401611ae990613483565b60405180910390fd5b6000611afd83610c45565b90508073ffffffffffffffffffffffffffffffffffffffff168473ffffffffffffffffffffffffffffffffffffffff161480611b6c57508373ffffffffffffffffffffffffffffffffffffffff16611b5484610754565b73ffffffffffffffffffffffffffffffffffffffff16145b80611b7d5750611b7c81856115a1565b5b91505092915050565b8273ffffffffffffffffffffffffffffffffffffffff16611ba682610c45565b73ffffffffffffffffffffffffffffffffffffffff1614611bfc576040517f08c379a0000000000000000000000000000000000000000000000000000000008152600401611bf390613563565b60405180910390fd5b600073ffffffffffffffffffffffffffffffffffffffff168273ffffffffffffffffffffffffffffffffffffffff161415611c6c576040517f08c379a0000000000000000000000000000000000000000000000000000000008152600401611c6390613443565b60405180910390fd5b611c77838383612280565b611c826000826119ef565b6001600360008573ffffffffffffffffffffffffffffffffffffffff1673ffffffffffffffffffffffffffffffffffffffff1681526020019081526020016000206000828254611cd291906137d9565b925050819055506001600360008473ffffffffffffffffffffffffffffffffffffffff1673ffffffffffffffffffffffffffffffffffffffff1681526020019081526020016000206000828254611d299190613752565b92505081905550816002600083815260200190815260200160002060006101000a81548173ffffffffffffffffffffffffffffffffffffffff021916908373ffffffffffffffffffffffffffffffffffffffff160217905550808273ffffffffffffffffffffffffffffffffffffffff168473ffffffffffffffffffffffffffffffffffffffff167fddf252ad1be2c89b69c2b068fc378daa952ba7f163c4a11628f55a4df523b3ef60405160405180910390a4505050565b6000611ded82610c45565b9050611dfb81600084612280565b611e066000836119ef565b6001600360008373ffffffffffffffffffffffffffffffffffffffff1673ffffffffffffffffffffffffffffffffffffffff1681526020019081526020016000206000828254611e5691906137d9565b925050819055506002600083815260200190815260200160002060006101000a81549073ffffffffffffffffffffffffffffffffffffffff021916905581600073ffffffffffffffffffffffffffffffffffffffff168273ffffffffffffffffffffffffffffffffffffffff167fddf252ad1be2c89b69c2b068fc378daa952ba7f163c4a11628f55a4df523b3ef60405160405180910390a45050565b6000600660009054906101000a900473ffffffffffffffffffffffffffffffffffffffff16905081600660006101000a81548173ffffffffffffffffffffffffffffffffffffffff021916908373ffffffffffffffffffffffffffffffffffffffff1602179055508173ffffffffffffffffffffffffffffffffffffffff168173ffffffffffffffffffffffffffffffffffffffff167f8be0079c531659141344cd1fd0a4f28419497f9722a3daafe3b4186f6b6457e060405160405180910390a35050565b600081600001549050919050565b611fe1828260405180602001604052806000815250612285565b5050565b611ff0848484611b86565b611ffc848484846122e0565b61203b576040517f08c379a0000000000000000000000000000000000000000000000000000000008152600401612032906133c3565b60405180910390fd5b50505050565b606060078054612050906138e7565b80601f016020809104026020016040519081016040528092919081815260200182805461207c906138e7565b80156120c95780601f1061209e576101008083540402835291602001916120c9565b820191906000526020600020905b8154815290600101906020018083116120ac57829003601f168201915b5050505050905090565b6060600082141561211b576040518060400160405280600181526020017f3000000000000000000000000000000000000000000000000000000000000000815250905061227b565b600082905060005b6000821461214d57808061213690613919565b915050600a8261214691906137a8565b9150612123565b60008167ffffffffffffffff81111561218f577f4e487b7100000000000000000000000000000000000000000000000000000000600052604160045260246000fd5b6040519080825280601f01601f1916602001820160405280156121c15781602001600182028036833780820191505090505b5090505b60008514612274576001826121da91906137d9565b9150600a856121e99190613962565b60306121f59190613752565b60f81b818381518110612231577f4e487b7100000000000000000000000000000000000000000000000000000000600052603260045260246000fd5b60200101907effffffffffffffffffffffffffffffffffffffffffffffffffffffffffffff1916908160001a905350600a8561226d91906137a8565b94506121c5565b8093505050505b919050565b505050565b61228f8383612477565b61229c60008484846122e0565b6122db576040517f08c379a00000000000000000000000000000000000000000000000000000000081526004016122d2906133c3565b60405180910390fd5b505050565b60006123018473ffffffffffffffffffffffffffffffffffffffff16612645565b1561246a578373ffffffffffffffffffffffffffffffffffffffff1663150b7a0261232a6119e7565b8786866040518563ffffffff1660e01b815260040161234c949392919061331f565b602060405180830381600087803b15801561236657600080fd5b505af192505050801561239757506040513d601f19601f820116820180604052508101906123949190612a04565b60015b61241a573d80600081146123c7576040519150601f19603f3d011682016040523d82523d6000602084013e6123cc565b606091505b50600081511415612412576040517f08c379a0000000000000000000000000000000000000000000000000000000008152600401612409906133c3565b60405180910390fd5b805181602001fd5b63150b7a0260e01b7bffffffffffffffffffffffffffffffffffffffffffffffffffffffff1916817bffffffffffffffffffffffffffffffffffffffffffffffffffffffff19161491505061246f565b600190505b949350505050565b600073ffffffffffffffffffffffffffffffffffffffff168273ffffffffffffffffffffffffffffffffffffffff1614156124e7576040517f08c379a00000000000000000000000000000000000000000000000000000000081526004016124de90613503565b60405180910390fd5b6124f08161197b565b15612530576040517f08c379a000000000000000000000000000000000000000000000000000000000815260040161252790613403565b60405180910390fd5b61253c60008383612280565b6001600360008473ffffffffffffffffffffffffffffffffffffffff1673ffffffffffffffffffffffffffffffffffffffff168152602001908152602001600020600082825461258c9190613752565b92505081905550816002600083815260200190815260200160002060006101000a81548173ffffffffffffffffffffffffffffffffffffffff021916908373ffffffffffffffffffffffffffffffffffffffff160217905550808273ffffffffffffffffffffffffffffffffffffffff16600073ffffffffffffffffffffffffffffffffffffffff167fddf252ad1be2c89b69c2b068fc378daa952ba7f163c4a11628f55a4df523b3ef60405160405180910390a45050565b600080823b905060008111915050919050565b828054612664906138e7565b90600052602060002090601f01602090048101928261268657600085556126cd565b82601f1061269f57805160ff19168380011785556126cd565b828001600101855582156126cd579182015b828111156126cc5782518255916020019190600101906126b1565b5b5090506126da91906126de565b5090565b5b808211156126f75760008160009055506001016126df565b5090565b600061270e612709846136af565b61367e565b90508281526020810184848401111561272657600080fd5b6127318482856138a5565b509392505050565b600061274c612747846136df565b61367e565b90508281526020810184848401111561276457600080fd5b61276f8482856138a5565b509392505050565b60008135905061278681613a60565b92915050565b60008135905061279b81613a77565b92915050565b6000813590506127b081613a8e565b92915050565b6000815190506127c581613a8e565b92915050565b600082601f8301126127dc57600080fd5b81356127ec8482602086016126fb565b91505092915050565b600082601f83011261280657600080fd5b8135612816848260208601612739565b91505092915050565b60008135905061282e81613aa5565b92915050565b60006020828403121561284657600080fd5b600061285484828501612777565b91505092915050565b6000806040838503121561287057600080fd5b600061287e85828601612777565b925050602061288f85828601612777565b9150509250929050565b6000806000606084860312156128ae57600080fd5b60006128bc86828701612777565b93505060206128cd86828701612777565b92505060406128de8682870161281f565b9150509250925092565b600080600080608085870312156128fe57600080fd5b600061290c87828801612777565b945050602061291d87828801612777565b935050604061292e8782880161281f565b925050606085013567ffffffffffffffff81111561294b57600080fd5b612957878288016127cb565b91505092959194509250565b6000806040838503121561297657600080fd5b600061298485828601612777565b92505060206129958582860161278c565b9150509250929050565b600080604083850312156129b257600080fd5b60006129c085828601612777565b92505060206129d18582860161281f565b9150509250929050565b6000602082840312156129ed57600080fd5b60006129fb848285016127a1565b91505092915050565b600060208284031215612a1657600080fd5b6000612a24848285016127b6565b91505092915050565b600060208284031215612a3f57600080fd5b600082013567ffffffffffffffff811115612a5957600080fd5b612a65848285016127f5565b91505092915050565b600060208284031215612a8057600080fd5b6000612a8e8482850161281f565b91505092915050565b60008060408385031215612aaa57600080fd5b6000612ab88582860161281f565b9250506020612ac985828601612777565b9150509250929050565b612adc8161380d565b82525050565b612aeb8161381f565b82525050565b6000612afc8261370f565b612b068185613725565b9350612b168185602086016138b4565b612b1f81613a4f565b840191505092915050565b612b3381613881565b82525050565b6000612b448261371a565b612b4e8185613736565b9350612b5e8185602086016138b4565b612b6781613a4f565b840191505092915050565b6000612b7d8261371a565b612b878185613747565b9350612b978185602086016138b4565b80840191505092915050565b6000612bb0603283613736565b91507f4552433732313a207472616e7366657220746f206e6f6e20455243373231526560008301527f63656976657220696d706c656d656e74657200000000000000000000000000006020830152604082019050919050565b6000612c16602683613736565b91507f4f776e61626c653a206e6577206f776e657220697320746865207a65726f206160008301527f64647265737300000000000000000000000000000000000000000000000000006020830152604082019050919050565b6000612c7c601c83613736565b91507f4552433732313a20746f6b656e20616c7265616479206d696e746564000000006000830152602082019050919050565b6000612cbc601683613736565b91507f4c69676874686f7573653a204e4f545f4d494e544552000000000000000000006000830152602082019050919050565b6000612cfc602483613736565b91507f4552433732313a207472616e7366657220746f20746865207a65726f2061646460008301527f72657373000000000000000000000000000000000000000000000000000000006020830152604082019050919050565b6000612d62601983613736565b91507f4552433732313a20617070726f766520746f2063616c6c6572000000000000006000830152602082019050919050565b6000612da2602c83613736565b91507f4552433732313a206f70657261746f7220717565727920666f72206e6f6e657860008301527f697374656e7420746f6b656e00000000000000000000000000000000000000006020830152604082019050919050565b6000612e08603883613736565b91507f4552433732313a20617070726f76652063616c6c6572206973206e6f74206f7760008301527f6e6572206e6f7220617070726f76656420666f7220616c6c00000000000000006020830152604082019050919050565b6000612e6e602a83613736565b91507f4552433732313a2062616c616e636520717565727920666f7220746865207a6560008301527f726f2061646472657373000000000000000000000000000000000000000000006020830152604082019050919050565b6000612ed4602983613736565b91507f4552433732313a206f776e657220717565727920666f72206e6f6e657869737460008301527f656e7420746f6b656e00000000000000000000000000000000000000000000006020830152604082019050919050565b6000612f3a602083613736565b91507f4552433732313a206d696e7420746f20746865207a65726f20616464726573736000830152602082019050919050565b6000612f7a602c83613736565b91507f4552433732313a20617070726f76656420717565727920666f72206e6f6e657860008301527f697374656e7420746f6b656e00000000000000000000000000000000000000006020830152604082019050919050565b6000612fe0602083613736565b91507f4f776e61626c653a2063616c6c6572206973206e6f7420746865206f776e65726000830152602082019050919050565b6000613020602983613736565b91507f4552433732313a207472616e73666572206f6620746f6b656e2074686174206960008301527f73206e6f74206f776e00000000000000000000000000000000000000000000006020830152604082019050919050565b6000613086602f83613736565b91507f4552433732314d657461646174613a2055524920717565727920666f72206e6f60008301527f6e6578697374656e7420746f6b656e00000000000000000000000000000000006020830152604082019050919050565b60006130ec601083613736565b91507f476966744e46543a205a45524f5f4944000000000000000000000000000000006000830152602082019050919050565b600061312c602183613736565b91507f4552433732313a20617070726f76616c20746f2063757272656e74206f776e6560008301527f72000000000000000000000000000000000000000000000000000000000000006020830152604082019050919050565b6000613192603183613736565b91507f4552433732313a207472616e736665722063616c6c6572206973206e6f74206f60008301527f776e6572206e6f7220617070726f7665640000000000000000000000000000006020830152604082019050919050565b60006131f8601683613736565b91507f4c69676874686f7573653a204e4f545f4255524e4552000000000000000000006000830152602082019050919050565b6000613238600f83613736565b91507f476966744e46543a204d494e54454400000000000000000000000000000000006000830152602082019050919050565b6000613278603083613736565b91507f4552433732314275726e61626c653a2063616c6c6572206973206e6f74206f7760008301527f6e6572206e6f7220617070726f766564000000000000000000000000000000006020830152604082019050919050565b6132da81613877565b82525050565b60006132ec8285612b72565b91506132f88284612b72565b91508190509392505050565b60006020820190506133196000830184612ad3565b92915050565b60006080820190506133346000830187612ad3565b6133416020830186612ad3565b61334e60408301856132d1565b81810360608301526133608184612af1565b905095945050505050565b60006020820190506133806000830184612ae2565b92915050565b600060208201905061339b6000830184612b2a565b92915050565b600060208201905081810360008301526133bb8184612b39565b905092915050565b600060208201905081810360008301526133dc81612ba3565b9050919050565b600060208201905081810360008301526133fc81612c09565b9050919050565b6000602082019050818103600083015261341c81612c6f565b9050919050565b6000602082019050818103600083015261343c81612caf565b9050919050565b6000602082019050818103600083015261345c81612cef565b9050919050565b6000602082019050818103600083015261347c81612d55565b9050919050565b6000602082019050818103600083015261349c81612d95565b9050919050565b600060208201905081810360008301526134bc81612dfb565b9050919050565b600060208201905081810360008301526134dc81612e61565b9050919050565b600060208201905081810360008301526134fc81612ec7565b9050919050565b6000602082019050818103600083015261351c81612f2d565b9050919050565b6000602082019050818103600083015261353c81612f6d565b9050919050565b6000602082019050818103600083015261355c81612fd3565b9050919050565b6000602082019050818103600083015261357c81613013565b9050919050565b6000602082019050818103600083015261359c81613079565b9050919050565b600060208201905081810360008301526135bc816130df565b9050919050565b600060208201905081810360008301526135dc8161311f565b9050919050565b600060208201905081810360008301526135fc81613185565b9050919050565b6000602082019050818103600083015261361c816131eb565b9050919050565b6000602082019050818103600083015261363c8161322b565b9050919050565b6000602082019050818103600083015261365c8161326b565b9050919050565b600060208201905061367860008301846132d1565b92915050565b6000604051905081810181811067ffffffffffffffff821117156136a5576136a4613a20565b5b8060405250919050565b600067ffffffffffffffff8211156136ca576136c9613a20565b5b601f19601f8301169050602081019050919050565b600067ffffffffffffffff8211156136fa576136f9613a20565b5b601f19601f8301169050602081019050919050565b600081519050919050565b600081519050919050565b600082825260208201905092915050565b600082825260208201905092915050565b600081905092915050565b600061375d82613877565b915061376883613877565b9250827fffffffffffffffffffffffffffffffffffffffffffffffffffffffffffffffff0382111561379d5761379c613993565b5b828201905092915050565b60006137b382613877565b91506137be83613877565b9250826137ce576137cd6139c2565b5b828204905092915050565b60006137e482613877565b91506137ef83613877565b92508282101561380257613801613993565b5b828203905092915050565b600061381882613857565b9050919050565b60008115159050919050565b60007fffffffff0000000000000000000000000000000000000000000000000000000082169050919050565b600073ffffffffffffffffffffffffffffffffffffffff82169050919050565b6000819050919050565b600061388c82613893565b9050919050565b600061389e82613857565b9050919050565b82818337600083830152505050565b60005b838110156138d25780820151818401526020810190506138b7565b838111156138e1576000848401525b50505050565b600060028204905060018216806138ff57607f821691505b60208210811415613913576139126139f1565b5b50919050565b600061392482613877565b91507fffffffffffffffffffffffffffffffffffffffffffffffffffffffffffffffff82141561395757613956613993565b5b600182019050919050565b600061396d82613877565b915061397883613877565b925082613988576139876139c2565b5b828206905092915050565b7f4e487b7100000000000000000000000000000000000000000000000000000000600052601160045260246000fd5b7f4e487b7100000000000000000000000000000000000000000000000000000000600052601260045260246000fd5b7f4e487b7100000000000000000000000000000000000000000000000000000000600052602260045260246000fd5b7f4e487b7100000000000000000000000000000000000000000000000000000000600052604160045260246000fd5b6000601f19601f8301169050919050565b613a698161380d565b8114613a7457600080fd5b50565b613a808161381f565b8114613a8b57600080fd5b50565b613a978161382b565b8114613aa257600080fd5b50565b613aae81613877565b8114613ab957600080fd5b5056fea2646970667358221220ede8e55f50f1ecb0777b79ed47295de4a3103f6cf19a7150119b50dad1f91d3164736f6c63430008000033",
  "linkReferences": {},
  "deployedLinkReferences": {}
}