{
  "_format": "hh-sol-artifact-1",
  "contractName": "LighthouseAuction",
  "sourceName": "contracts/LighthouseAuction.sol",
  "abi": [
    {
      "inputs": [
        {
          "internalType": "address",
          "name": "_crowns",
          "type": "address"
        },
        {
          "internalType": "address",
          "name": "tier",
          "type": "address"
        },
        {
          "internalType": "address",
          "name": "submission",
          "type": "address"
        },
        {
          "internalType": "address",
          "name": "prefund",
          "type": "address"
        },
        {
          "internalType": "address",
          "name": "project",
          "type": "address"
        },
        {
          "internalType": "uint256",
          "name": "_chainID",
          "type": "uint256"
        }
      ],
      "stateMutability": "nonpayable",
      "type": "constructor"
    },
    {
      "anonymous": false,
      "inputs": [
        {
          "indexed": true,
          "internalType": "address",
          "name": "previousOwner",
          "type": "address"
        },
        {
          "indexed": true,
          "internalType": "address",
          "name": "newOwner",
          "type": "address"
        }
      ],
      "name": "OwnershipTransferred",
      "type": "event"
    },
    {
      "anonymous": false,
      "inputs": [
        {
          "indexed": true,
          "internalType": "uint256",
          "name": "projectId",
          "type": "uint256"
        },
        {
          "indexed": true,
          "internalType": "address",
          "name": "participant",
          "type": "address"
        },
        {
          "indexed": false,
          "internalType": "uint256",
          "name": "amount",
          "type": "uint256"
        },
        {
          "indexed": false,
          "internalType": "uint256",
          "name": "time",
          "type": "uint256"
        }
      ],
      "name": "Participate",
      "type": "event"
    },
    {
      "inputs": [],
      "name": "chainID",
      "outputs": [
        {
          "internalType": "uint256",
          "name": "",
          "type": "uint256"
        }
      ],
      "stateMutability": "view",
      "type": "function"
    },
    {
      "inputs": [
        {
          "internalType": "uint256",
          "name": "projectId",
          "type": "uint256"
        },
        {
          "internalType": "address",
          "name": "investor",
          "type": "address"
        }
      ],
      "name": "getSpent",
      "outputs": [
        {
          "internalType": "uint256",
          "name": "",
          "type": "uint256"
        }
      ],
      "stateMutability": "view",
      "type": "function"
    },
    {
      "inputs": [],
      "name": "owner",
      "outputs": [
        {
          "internalType": "address",
          "name": "",
          "type": "address"
        }
      ],
      "stateMutability": "view",
      "type": "function"
    },
    {
      "inputs": [
        {
          "internalType": "uint256",
          "name": "projectId",
          "type": "uint256"
        },
        {
          "internalType": "uint256",
          "name": "amount",
          "type": "uint256"
        },
        {
          "internalType": "uint8",
          "name": "v",
          "type": "uint8"
        },
        {
          "internalType": "bytes32",
          "name": "r",
          "type": "bytes32"
        },
        {
          "internalType": "bytes32",
          "name": "s",
          "type": "bytes32"
        }
      ],
      "name": "participate",
      "outputs": [],
      "stateMutability": "nonpayable",
      "type": "function"
    },
    {
      "inputs": [
        {
          "internalType": "uint256",
          "name": "projectId",
          "type": "uint256"
        },
        {
          "internalType": "address",
          "name": "investor",
          "type": "address"
        }
      ],
      "name": "participated",
      "outputs": [
        {
          "internalType": "bool",
          "name": "",
          "type": "bool"
        }
      ],
      "stateMutability": "view",
      "type": "function"
    },
    {
      "inputs": [],
      "name": "renounceOwnership",
      "outputs": [],
      "stateMutability": "nonpayable",
      "type": "function"
    },
    {
      "inputs": [
        {
          "internalType": "address",
          "name": "newTier",
          "type": "address"
        }
      ],
      "name": "setLighthouseTier",
      "outputs": [],
      "stateMutability": "nonpayable",
      "type": "function"
    },
    {
      "inputs": [
        {
          "internalType": "uint256",
          "name": "",
          "type": "uint256"
        },
        {
          "internalType": "address",
          "name": "",
          "type": "address"
        }
      ],
      "name": "spents",
      "outputs": [
        {
          "internalType": "uint256",
          "name": "",
          "type": "uint256"
        }
      ],
      "stateMutability": "view",
      "type": "function"
    },
    {
      "inputs": [
        {
          "internalType": "address",
          "name": "newOwner",
          "type": "address"
        }
      ],
      "name": "transferOwnership",
      "outputs": [],
      "stateMutability": "nonpayable",
      "type": "function"
    }
  ],
  "bytecode": "0x60806040523480156200001157600080fd5b5060405162002227380380620022278339818101604052810190620000379190620005cc565b620000576200004b620004d260201b60201c565b620004da60201b60201c565b600073ffffffffffffffffffffffffffffffffffffffff168673ffffffffffffffffffffffffffffffffffffffff1614158015620000c25750600073ffffffffffffffffffffffffffffffffffffffff168573ffffffffffffffffffffffffffffffffffffffff1614155b8015620000fc5750600073ffffffffffffffffffffffffffffffffffffffff168373ffffffffffffffffffffffffffffffffffffffff1614155b8015620001365750600073ffffffffffffffffffffffffffffffffffffffff168473ffffffffffffffffffffffffffffffffffffffff1614155b8015620001705750600073ffffffffffffffffffffffffffffffffffffffff168273ffffffffffffffffffffffffffffffffffffffff1614155b620001b2576040517f08c379a0000000000000000000000000000000000000000000000000000000008152600401620001a99062000708565b60405180910390fd5b8273ffffffffffffffffffffffffffffffffffffffff168573ffffffffffffffffffffffffffffffffffffffff16141562000224576040517f08c379a00000000000000000000000000000000000000000000000000000000081526004016200021b90620006e6565b60405180910390fd5b8573ffffffffffffffffffffffffffffffffffffffff168573ffffffffffffffffffffffffffffffffffffffff16141562000296576040517f08c379a00000000000000000000000000000000000000000000000000000000081526004016200028d90620006e6565b60405180910390fd5b8373ffffffffffffffffffffffffffffffffffffffff168573ffffffffffffffffffffffffffffffffffffffff16141562000308576040517f08c379a0000000000000000000000000000000000000000000000000000000008152600401620002ff90620006e6565b60405180910390fd5b8173ffffffffffffffffffffffffffffffffffffffff168573ffffffffffffffffffffffffffffffffffffffff1614156200037a576040517f08c379a00000000000000000000000000000000000000000000000000000000081526004016200037190620006e6565b60405180910390fd5b84600160006101000a81548173ffffffffffffffffffffffffffffffffffffffff021916908373ffffffffffffffffffffffffffffffffffffffff16021790555083600260006101000a81548173ffffffffffffffffffffffffffffffffffffffff021916908373ffffffffffffffffffffffffffffffffffffffff16021790555082600360006101000a81548173ffffffffffffffffffffffffffffffffffffffff021916908373ffffffffffffffffffffffffffffffffffffffff16021790555081600460006101000a81548173ffffffffffffffffffffffffffffffffffffffff021916908373ffffffffffffffffffffffffffffffffffffffff16021790555085600560006101000a81548173ffffffffffffffffffffffffffffffffffffffff021916908373ffffffffffffffffffffffffffffffffffffffff16021790555080600681905550505050505050620007ad565b600033905090565b60008060009054906101000a900473ffffffffffffffffffffffffffffffffffffffff169050816000806101000a81548173ffffffffffffffffffffffffffffffffffffffff021916908373ffffffffffffffffffffffffffffffffffffffff1602179055508173ffffffffffffffffffffffffffffffffffffffff168173ffffffffffffffffffffffffffffffffffffffff167f8be0079c531659141344cd1fd0a4f28419497f9722a3daafe3b4186f6b6457e060405160405180910390a35050565b600081519050620005af8162000779565b92915050565b600081519050620005c68162000793565b92915050565b60008060008060008060c08789031215620005e657600080fd5b6000620005f689828a016200059e565b96505060206200060989828a016200059e565b95505060406200061c89828a016200059e565b94505060606200062f89828a016200059e565b93505060806200064289828a016200059e565b92505060a06200065589828a01620005b5565b9150509295509295509295565b6000620006716018836200072a565b91507f4c69676874686f7573653a2053414d455f4144445245535300000000000000006000830152602082019050919050565b6000620006b36018836200072a565b91507f4c69676874686f7573653a205a45524f5f4144445245535300000000000000006000830152602082019050919050565b60006020820190508181036000830152620007018162000662565b9050919050565b600060208201905081810360008301526200072381620006a4565b9050919050565b600082825260208201905092915050565b600062000748826200074f565b9050919050565b600073ffffffffffffffffffffffffffffffffffffffff82169050919050565b6000819050919050565b62000784816200073b565b81146200079057600080fd5b50565b6200079e816200076f565b8114620007aa57600080fd5b50565b611a6a80620007bd6000396000f3fe608060405234801561001057600080fd5b50600436106100935760003560e01c8063aee7a1ef11610066578063aee7a1ef1461010e578063e7481fb31461012a578063f2fde38b1461015a578063f301886314610176578063f8536b941461019257610093565b8063715018a6146100985780638da5cb5b146100a25780639eefc7b1146100c0578063adc879e9146100f0575b600080fd5b6100a06101c2565b005b6100aa61024a565b6040516100b79190611632565b60405180910390f35b6100da60048036038101906100d59190611089565b610273565b6040516100e79190611856565b60405180910390f35b6100f86102ce565b6040516101059190611856565b60405180910390f35b6101286004803603810190610123919061100e565b6102d4565b005b610144600480360381019061013f9190611089565b610394565b6040516101519190611856565b60405180910390f35b610174600480360381019061016f919061100e565b6103b9565b005b610190600480360381019061018b9190611101565b6104b1565b005b6101ac60048036038101906101a79190611089565b610e52565b6040516101b99190611676565b60405180910390f35b6101ca610eaf565b73ffffffffffffffffffffffffffffffffffffffff166101e861024a565b73ffffffffffffffffffffffffffffffffffffffff161461023e576040517f08c379a000000000000000000000000000000000000000000000000000000000815260040161023590611796565b60405180910390fd5b6102486000610eb7565b565b60008060009054906101000a900473ffffffffffffffffffffffffffffffffffffffff16905090565b60006007600084815260200190815260200160002060008373ffffffffffffffffffffffffffffffffffffffff1673ffffffffffffffffffffffffffffffffffffffff16815260200190815260200160002054905092915050565b60065481565b6102dc610eaf565b73ffffffffffffffffffffffffffffffffffffffff166102fa61024a565b73ffffffffffffffffffffffffffffffffffffffff1614610350576040517f08c379a000000000000000000000000000000000000000000000000000000000815260040161034790611796565b60405180910390fd5b80600160006101000a81548173ffffffffffffffffffffffffffffffffffffffff021916908373ffffffffffffffffffffffffffffffffffffffff16021790555050565b6007602052816000526040600020602052806000526040600020600091509150505481565b6103c1610eaf565b73ffffffffffffffffffffffffffffffffffffffff166103df61024a565b73ffffffffffffffffffffffffffffffffffffffff1614610435576040517f08c379a000000000000000000000000000000000000000000000000000000000815260040161042c90611796565b60405180910390fd5b600073ffffffffffffffffffffffffffffffffffffffff168173ffffffffffffffffffffffffffffffffffffffff1614156104a5576040517f08c379a000000000000000000000000000000000000000000000000000000000815260040161049c906116d6565b60405180910390fd5b6104ae81610eb7565b50565b600460009054906101000a900473ffffffffffffffffffffffffffffffffffffffff1673ffffffffffffffffffffffffffffffffffffffff166364507efc866040518263ffffffff1660e01b815260040161050c9190611856565b60206040518083038186803b15801561052457600080fd5b505afa158015610538573d6000803e3d6000fd5b505050506040513d601f19601f8201168201806040525081019061055c9190611060565b61059b576040517f08c379a0000000000000000000000000000000000000000000000000000000008152600401610592906117d6565b60405180910390fd5b600460009054906101000a900473ffffffffffffffffffffffffffffffffffffffff1673ffffffffffffffffffffffffffffffffffffffff1663b22e912b866040518263ffffffff1660e01b81526004016105f69190611856565b60206040518083038186803b15801561060e57600080fd5b505afa158015610622573d6000803e3d6000fd5b505050506040513d601f19601f820116820180604052508101906106469190611060565b610685576040517f08c379a000000000000000000000000000000000000000000000000000000000815260040161067c906117f6565b60405180910390fd5b61068f8533610e52565b156106cf576040517f08c379a00000000000000000000000000000000000000000000000000000000081526004016106c6906116f6565b60405180910390fd5b600080600460009054906101000a900473ffffffffffffffffffffffffffffffffffffffff1673ffffffffffffffffffffffffffffffffffffffff166324d2cb17886040518263ffffffff1660e01b815260040161072d9190611856565b604080518083038186803b15801561074457600080fd5b505afa158015610758573d6000803e3d6000fd5b505050506040513d601f19601f8201168201806040525081019061077c91906110c5565b8092508193505050814210156107c7576040517f08c379a00000000000000000000000000000000000000000000000000000000081526004016107be90611756565b60405180910390fd5b8042111561080a576040517f08c379a000000000000000000000000000000000000000000000000000000000815260040161080190611836565b60405180910390fd5b5050600260009054906101000a900473ffffffffffffffffffffffffffffffffffffffff1673ffffffffffffffffffffffffffffffffffffffff16638c817b6e86336040518363ffffffff1660e01b8152600401610869929190611871565b60206040518083038186803b15801561088157600080fd5b505afa158015610895573d6000803e3d6000fd5b505050506040513d601f19601f820116820180604052508101906108b99190611060565b6108f8576040517f08c379a00000000000000000000000000000000000000000000000000000000081526004016108ef90611716565b60405180910390fd5b600360009054906101000a900473ffffffffffffffffffffffffffffffffffffffff1673ffffffffffffffffffffffffffffffffffffffff166302deed0386336040518363ffffffff1660e01b8152600401610955929190611871565b60206040518083038186803b15801561096d57600080fd5b505afa158015610981573d6000803e3d6000fd5b505050506040513d601f19601f820116820180604052508101906109a59190611060565b156109e5576040517f08c379a00000000000000000000000000000000000000000000000000000000081526004016109dc90611776565b60405180910390fd5b60008411610a28576040517f08c379a0000000000000000000000000000000000000000000000000000000008152600401610a1f906117b6565b60405180910390fd5b60006040518060400160405280601c81526020017f19457468657265756d205369676e6564204d6573736167653a0a3332000000008152509050600033308888600654604051602001610a7f9594939291906115ab565b60405160208183030381529060405280519060200120905060008282604051602001610aac92919061160a565b604051602081830303815290604052805190602001209050600060018288888860405160008152602001604052604051610ae99493929190611691565b6020604051602081039080840390855afa158015610b0b573d6000803e3d6000fd5b505050602060405103519050600460009054906101000a900473ffffffffffffffffffffffffffffffffffffffff1673ffffffffffffffffffffffffffffffffffffffff1663b60da0856040518163ffffffff1660e01b815260040160206040518083038186803b158015610b7f57600080fd5b505afa158015610b93573d6000803e3d6000fd5b505050506040513d601f19601f82011682018060405250810190610bb79190611037565b73ffffffffffffffffffffffffffffffffffffffff168173ffffffffffffffffffffffffffffffffffffffff1614610c24576040517f08c379a0000000000000000000000000000000000000000000000000000000008152600401610c1b90611736565b60405180910390fd5b600560009054906101000a900473ffffffffffffffffffffffffffffffffffffffff1673ffffffffffffffffffffffffffffffffffffffff16636aade288338a6040518363ffffffff1660e01b8152600401610c8192919061164d565b602060405180830381600087803b158015610c9b57600080fd5b505af1158015610caf573d6000803e3d6000fd5b505050506040513d601f19601f82011682018060405250810190610cd39190611060565b610d12576040517f08c379a0000000000000000000000000000000000000000000000000000000008152600401610d0990611816565b60405180910390fd5b600460009054906101000a900473ffffffffffffffffffffffffffffffffffffffff1673ffffffffffffffffffffffffffffffffffffffff166341e0f1b18a8a6040518363ffffffff1660e01b8152600401610d6f92919061189a565b600060405180830381600087803b158015610d8957600080fd5b505af1158015610d9d573d6000803e3d6000fd5b5050505087600760008b815260200190815260200160002060003373ffffffffffffffffffffffffffffffffffffffff1673ffffffffffffffffffffffffffffffffffffffff168152602001908152602001600020819055503373ffffffffffffffffffffffffffffffffffffffff16897f0c084a98097a12b06afc1944617ea8d4b2efde50755080245bd7c9019cfb539d8a42604051610e3f92919061189a565b60405180910390a3505050505050505050565b6000806007600085815260200190815260200160002060008473ffffffffffffffffffffffffffffffffffffffff1673ffffffffffffffffffffffffffffffffffffffff1681526020019081526020016000205411905092915050565b600033905090565b60008060009054906101000a900473ffffffffffffffffffffffffffffffffffffffff169050816000806101000a81548173ffffffffffffffffffffffffffffffffffffffff021916908373ffffffffffffffffffffffffffffffffffffffff1602179055508173ffffffffffffffffffffffffffffffffffffffff168173ffffffffffffffffffffffffffffffffffffffff167f8be0079c531659141344cd1fd0a4f28419497f9722a3daafe3b4186f6b6457e060405160405180910390a35050565b600081359050610f8a816119c1565b92915050565b600081519050610f9f816119c1565b92915050565b600081519050610fb4816119d8565b92915050565b600081359050610fc9816119ef565b92915050565b600081359050610fde81611a06565b92915050565b600081519050610ff381611a06565b92915050565b60008135905061100881611a1d565b92915050565b60006020828403121561102057600080fd5b600061102e84828501610f7b565b91505092915050565b60006020828403121561104957600080fd5b600061105784828501610f90565b91505092915050565b60006020828403121561107257600080fd5b600061108084828501610fa5565b91505092915050565b6000806040838503121561109c57600080fd5b60006110aa85828601610fcf565b92505060206110bb85828601610f7b565b9150509250929050565b600080604083850312156110d857600080fd5b60006110e685828601610fe4565b92505060206110f785828601610fe4565b9150509250929050565b600080600080600060a0868803121561111957600080fd5b600061112788828901610fcf565b955050602061113888828901610fcf565b945050604061114988828901610ff9565b935050606061115a88828901610fba565b925050608061116b88828901610fba565b9150509295509295909350565b611181816118ea565b82525050565b611198611193826118ea565b61197c565b82525050565b6111a7816118fc565b82525050565b6111b681611908565b82525050565b6111cd6111c882611908565b61198e565b82525050565b60006111de826118c3565b6111e881856118ce565b93506111f8818560208601611949565b80840191505092915050565b60006112116026836118d9565b91507f4f776e61626c653a206e6577206f776e657220697320746865207a65726f206160008301527f64647265737300000000000000000000000000000000000000000000000000006020830152604082019050919050565b60006112776020836118d9565b91507f4c69676874686f7573653a20414c52454144595f5041525449434950415445446000830152602082019050919050565b60006112b7601a836118d9565b91507f4c69676874686f7573653a204e4f545f524547495354455245440000000000006000830152602082019050919050565b60006112f7600f836118d9565b91507f4c69676874686f7573653a2053494700000000000000000000000000000000006000830152602082019050919050565b6000611337601b836118d9565b91507f4c69676874686f7573653a204e4f545f535441525445445f59455400000000006000830152602082019050919050565b60006113776015836118d9565b91507f4c69676874686f7573653a2050524546554e44454400000000000000000000006000830152602082019050919050565b60006113b76020836118d9565b91507f4f776e61626c653a2063616c6c6572206973206e6f7420746865206f776e65726000830152602082019050919050565b60006113f76016836118d9565b91507f4c69676874686f7573653a205a45524f5f56414c5545000000000000000000006000830152602082019050919050565b60006114376023836118d9565b91507f4c69676874686f7573653a2041554354494f4e5f4e4f545f494e495449414c4960008301527f5a454400000000000000000000000000000000000000000000000000000000006020830152604082019050919050565b600061149d6027836118d9565b91507f4c69676874686f7573653a204e4f545f5452414e534645525245445f5052454660008301527f554e445f594554000000000000000000000000000000000000000000000000006020830152604082019050919050565b60006115036017836118d9565b91507f4c69676874686f7573653a204357535f554e5350454e440000000000000000006000830152602082019050919050565b60006115436014836118d9565b91507f4c69676874686f7573653a2046494e49534845440000000000000000000000006000830152602082019050919050565b61157f81611932565b82525050565b61159661159182611932565b6119aa565b82525050565b6115a58161193c565b82525050565b60006115b78288611187565b6014820191506115c78287611187565b6014820191506115d78286611585565b6020820191506115e78285611585565b6020820191506115f78284611585565b6020820191508190509695505050505050565b600061161682856111d3565b915061162282846111bc565b6020820191508190509392505050565b60006020820190506116476000830184611178565b92915050565b60006040820190506116626000830185611178565b61166f6020830184611576565b9392505050565b600060208201905061168b600083018461119e565b92915050565b60006080820190506116a660008301876111ad565b6116b3602083018661159c565b6116c060408301856111ad565b6116cd60608301846111ad565b95945050505050565b600060208201905081810360008301526116ef81611204565b9050919050565b6000602082019050818103600083015261170f8161126a565b9050919050565b6000602082019050818103600083015261172f816112aa565b9050919050565b6000602082019050818103600083015261174f816112ea565b9050919050565b6000602082019050818103600083015261176f8161132a565b9050919050565b6000602082019050818103600083015261178f8161136a565b9050919050565b600060208201905081810360008301526117af816113aa565b9050919050565b600060208201905081810360008301526117cf816113ea565b9050919050565b600060208201905081810360008301526117ef8161142a565b9050919050565b6000602082019050818103600083015261180f81611490565b9050919050565b6000602082019050818103600083015261182f816114f6565b9050919050565b6000602082019050818103600083015261184f81611536565b9050919050565b600060208201905061186b6000830184611576565b92915050565b60006040820190506118866000830185611576565b6118936020830184611178565b9392505050565b60006040820190506118af6000830185611576565b6118bc6020830184611576565b9392505050565b600081519050919050565b600081905092915050565b600082825260208201905092915050565b60006118f582611912565b9050919050565b60008115159050919050565b6000819050919050565b600073ffffffffffffffffffffffffffffffffffffffff82169050919050565b6000819050919050565b600060ff82169050919050565b60005b8381101561196757808201518184015260208101905061194c565b83811115611976576000848401525b50505050565b600061198782611998565b9050919050565b6000819050919050565b60006119a3826119b4565b9050919050565b6000819050919050565b60008160601b9050919050565b6119ca816118ea565b81146119d557600080fd5b50565b6119e1816118fc565b81146119ec57600080fd5b50565b6119f881611908565b8114611a0357600080fd5b50565b611a0f81611932565b8114611a1a57600080fd5b50565b611a268161193c565b8114611a3157600080fd5b5056fea2646970667358221220379353fb44a851752c71f250420c6474d295cde311f3aa73c3a446056fe60cde64736f6c63430008000033",
  "linkReferences": {},
  "deployedLinkReferences": {}
}