{
  "_format": "hh-sol-artifact-1",
  "contractName": "LighthouseAuction",
  "sourceName": "contracts/LighthouseAuction.sol",
  "abi": [
    {
      "inputs": [
        {
          "internalType": "address",
          "name": "_crowns",
          "type": "address"
        },
        {
          "internalType": "address",
          "name": "tier",
          "type": "address"
        },
        {
          "internalType": "address",
          "name": "submission",
          "type": "address"
        },
        {
          "internalType": "address",
          "name": "prefund",
          "type": "address"
        },
        {
          "internalType": "address",
          "name": "project",
          "type": "address"
        },
        {
          "internalType": "uint256",
          "name": "_chainID",
          "type": "uint256"
        }
      ],
      "stateMutability": "nonpayable",
      "type": "constructor"
    },
    {
      "anonymous": false,
      "inputs": [
        {
          "indexed": true,
          "internalType": "uint256",
          "name": "projectId",
          "type": "uint256"
        },
        {
          "indexed": true,
          "internalType": "address",
          "name": "participant",
          "type": "address"
        },
        {
          "indexed": true,
          "internalType": "uint256",
          "name": "tokenId",
          "type": "uint256"
        }
      ],
      "name": "Gift",
      "type": "event"
    },
    {
      "anonymous": false,
      "inputs": [
        {
          "indexed": true,
          "internalType": "address",
          "name": "previousOwner",
          "type": "address"
        },
        {
          "indexed": true,
          "internalType": "address",
          "name": "newOwner",
          "type": "address"
        }
      ],
      "name": "OwnershipTransferred",
      "type": "event"
    },
    {
      "anonymous": false,
      "inputs": [
        {
          "indexed": true,
          "internalType": "uint256",
          "name": "projectId",
          "type": "uint256"
        },
        {
          "indexed": true,
          "internalType": "address",
          "name": "participant",
          "type": "address"
        },
        {
          "indexed": false,
          "internalType": "uint256",
          "name": "amount",
          "type": "uint256"
        },
        {
          "indexed": false,
          "internalType": "uint256",
          "name": "time",
          "type": "uint256"
        }
      ],
      "name": "Participate",
      "type": "event"
    },
    {
      "anonymous": false,
      "inputs": [
        {
          "indexed": true,
          "internalType": "uint256",
          "name": "projectId",
          "type": "uint256"
        },
        {
          "indexed": false,
          "internalType": "uint256",
          "name": "min",
          "type": "uint256"
        },
        {
          "indexed": false,
          "internalType": "uint16",
          "name": "giftAmount",
          "type": "uint16"
        }
      ],
      "name": "SetAuctionData",
      "type": "event"
    },
    {
      "inputs": [
        {
          "internalType": "uint256",
          "name": "",
          "type": "uint256"
        }
      ],
      "name": "auctionData",
      "outputs": [
        {
          "internalType": "bool",
          "name": "set",
          "type": "bool"
        },
        {
          "internalType": "uint16",
          "name": "gifted",
          "type": "uint16"
        },
        {
          "internalType": "uint16",
          "name": "giftAmount",
          "type": "uint16"
        },
        {
          "internalType": "uint256",
          "name": "min",
          "type": "uint256"
        }
      ],
      "stateMutability": "view",
      "type": "function"
    },
    {
      "inputs": [],
      "name": "chainID",
      "outputs": [
        {
          "internalType": "uint256",
          "name": "",
          "type": "uint256"
        }
      ],
      "stateMutability": "view",
      "type": "function"
    },
    {
      "inputs": [
        {
          "internalType": "uint256",
          "name": "projectId",
          "type": "uint256"
        },
        {
          "internalType": "address",
          "name": "investor",
          "type": "address"
        }
      ],
      "name": "getSpent",
      "outputs": [
        {
          "internalType": "uint256",
          "name": "",
          "type": "uint256"
        }
      ],
      "stateMutability": "view",
      "type": "function"
    },
    {
      "inputs": [
        {
          "internalType": "uint256",
          "name": "projectId",
          "type": "uint256"
        }
      ],
      "name": "giftInfo",
      "outputs": [
        {
          "internalType": "uint16",
          "name": "",
          "type": "uint16"
        },
        {
          "internalType": "uint16",
          "name": "",
          "type": "uint16"
        }
      ],
      "stateMutability": "view",
      "type": "function"
    },
    {
      "inputs": [
        {
          "internalType": "uint256",
          "name": "",
          "type": "uint256"
        },
        {
          "internalType": "address",
          "name": "",
          "type": "address"
        }
      ],
      "name": "giftOrder",
      "outputs": [
        {
          "internalType": "uint16",
          "name": "",
          "type": "uint16"
        }
      ],
      "stateMutability": "view",
      "type": "function"
    },
    {
      "inputs": [
        {
          "internalType": "uint256",
          "name": "",
          "type": "uint256"
        },
        {
          "internalType": "address",
          "name": "",
          "type": "address"
        }
      ],
      "name": "gifts",
      "outputs": [
        {
          "internalType": "uint256",
          "name": "",
          "type": "uint256"
        }
      ],
      "stateMutability": "view",
      "type": "function"
    },
    {
      "inputs": [],
      "name": "owner",
      "outputs": [
        {
          "internalType": "address",
          "name": "",
          "type": "address"
        }
      ],
      "stateMutability": "view",
      "type": "function"
    },
    {
      "inputs": [
        {
          "internalType": "uint256",
          "name": "projectId",
          "type": "uint256"
        },
        {
          "internalType": "address",
          "name": "participant",
          "type": "address"
        }
      ],
      "name": "participantGiftOrder",
      "outputs": [
        {
          "internalType": "uint16",
          "name": "",
          "type": "uint16"
        }
      ],
      "stateMutability": "view",
      "type": "function"
    },
    {
      "inputs": [
        {
          "internalType": "uint256",
          "name": "projectId",
          "type": "uint256"
        },
        {
          "internalType": "uint256",
          "name": "amount",
          "type": "uint256"
        },
        {
          "internalType": "uint8",
          "name": "v",
          "type": "uint8"
        },
        {
          "internalType": "bytes32",
          "name": "r",
          "type": "bytes32"
        },
        {
          "internalType": "bytes32",
          "name": "s",
          "type": "bytes32"
        }
      ],
      "name": "participate",
      "outputs": [],
      "stateMutability": "nonpayable",
      "type": "function"
    },
    {
      "inputs": [
        {
          "internalType": "uint256",
          "name": "projectId",
          "type": "uint256"
        },
        {
          "internalType": "address",
          "name": "investor",
          "type": "address"
        }
      ],
      "name": "participated",
      "outputs": [
        {
          "internalType": "bool",
          "name": "",
          "type": "bool"
        }
      ],
      "stateMutability": "view",
      "type": "function"
    },
    {
      "inputs": [],
      "name": "renounceOwnership",
      "outputs": [],
      "stateMutability": "nonpayable",
      "type": "function"
    },
    {
      "inputs": [
        {
          "internalType": "uint256",
          "name": "projectId",
          "type": "uint256"
        },
        {
          "internalType": "uint256",
          "name": "min",
          "type": "uint256"
        },
        {
          "internalType": "uint16",
          "name": "giftAmount",
          "type": "uint16"
        }
      ],
      "name": "setAuctionData",
      "outputs": [],
      "stateMutability": "nonpayable",
      "type": "function"
    },
    {
      "inputs": [
        {
          "internalType": "address",
          "name": "giftNft",
          "type": "address"
        }
      ],
      "name": "setGiftNft",
      "outputs": [],
      "stateMutability": "nonpayable",
      "type": "function"
    },
    {
      "inputs": [
        {
          "internalType": "address",
          "name": "newTier",
          "type": "address"
        }
      ],
      "name": "setLighthouseTier",
      "outputs": [],
      "stateMutability": "nonpayable",
      "type": "function"
    },
    {
      "inputs": [
        {
          "internalType": "uint256",
          "name": "",
          "type": "uint256"
        },
        {
          "internalType": "address",
          "name": "",
          "type": "address"
        }
      ],
      "name": "spents",
      "outputs": [
        {
          "internalType": "uint256",
          "name": "",
          "type": "uint256"
        }
      ],
      "stateMutability": "view",
      "type": "function"
    },
    {
      "inputs": [
        {
          "internalType": "address",
          "name": "newOwner",
          "type": "address"
        }
      ],
      "name": "transferOwnership",
      "outputs": [],
      "stateMutability": "nonpayable",
      "type": "function"
    }
  ],
  "bytecode": "0x60806040523480156200001157600080fd5b50604051620031e3380380620031e3833981810160405281019062000037919062000722565b620000576200004b6200062860201b60201c565b6200063060201b60201c565b600073ffffffffffffffffffffffffffffffffffffffff168673ffffffffffffffffffffffffffffffffffffffff1614158015620000c25750600073ffffffffffffffffffffffffffffffffffffffff168573ffffffffffffffffffffffffffffffffffffffff1614155b8015620000fc5750600073ffffffffffffffffffffffffffffffffffffffff168373ffffffffffffffffffffffffffffffffffffffff1614155b8015620001365750600073ffffffffffffffffffffffffffffffffffffffff168473ffffffffffffffffffffffffffffffffffffffff1614155b8015620001705750600073ffffffffffffffffffffffffffffffffffffffff168273ffffffffffffffffffffffffffffffffffffffff1614155b620001b2576040517f08c379a0000000000000000000000000000000000000000000000000000000008152600401620001a9906200085e565b60405180910390fd5b8273ffffffffffffffffffffffffffffffffffffffff168573ffffffffffffffffffffffffffffffffffffffff16141562000224576040517f08c379a00000000000000000000000000000000000000000000000000000000081526004016200021b906200083c565b60405180910390fd5b8573ffffffffffffffffffffffffffffffffffffffff168573ffffffffffffffffffffffffffffffffffffffff16141562000296576040517f08c379a00000000000000000000000000000000000000000000000000000000081526004016200028d906200083c565b60405180910390fd5b8373ffffffffffffffffffffffffffffffffffffffff168573ffffffffffffffffffffffffffffffffffffffff16141562000308576040517f08c379a0000000000000000000000000000000000000000000000000000000008152600401620002ff906200083c565b60405180910390fd5b8173ffffffffffffffffffffffffffffffffffffffff168573ffffffffffffffffffffffffffffffffffffffff1614156200037a576040517f08c379a000000000000000000000000000000000000000000000000000000000815260040162000371906200083c565b60405180910390fd5b8173ffffffffffffffffffffffffffffffffffffffff168473ffffffffffffffffffffffffffffffffffffffff161415620003ec576040517f08c379a0000000000000000000000000000000000000000000000000000000008152600401620003e3906200083c565b60405180910390fd5b8273ffffffffffffffffffffffffffffffffffffffff168473ffffffffffffffffffffffffffffffffffffffff1614156200045e576040517f08c379a000000000000000000000000000000000000000000000000000000000815260040162000455906200083c565b60405180910390fd5b8173ffffffffffffffffffffffffffffffffffffffff168373ffffffffffffffffffffffffffffffffffffffff161415620004d0576040517f08c379a0000000000000000000000000000000000000000000000000000000008152600401620004c7906200083c565b60405180910390fd5b84600160006101000a81548173ffffffffffffffffffffffffffffffffffffffff021916908373ffffffffffffffffffffffffffffffffffffffff16021790555083600260006101000a81548173ffffffffffffffffffffffffffffffffffffffff021916908373ffffffffffffffffffffffffffffffffffffffff16021790555082600360006101000a81548173ffffffffffffffffffffffffffffffffffffffff021916908373ffffffffffffffffffffffffffffffffffffffff16021790555081600460006101000a81548173ffffffffffffffffffffffffffffffffffffffff021916908373ffffffffffffffffffffffffffffffffffffffff16021790555085600560006101000a81548173ffffffffffffffffffffffffffffffffffffffff021916908373ffffffffffffffffffffffffffffffffffffffff1602179055508060078190555050505050505062000903565b600033905090565b60008060009054906101000a900473ffffffffffffffffffffffffffffffffffffffff169050816000806101000a81548173ffffffffffffffffffffffffffffffffffffffff021916908373ffffffffffffffffffffffffffffffffffffffff1602179055508173ffffffffffffffffffffffffffffffffffffffff168173ffffffffffffffffffffffffffffffffffffffff167f8be0079c531659141344cd1fd0a4f28419497f9722a3daafe3b4186f6b6457e060405160405180910390a35050565b6000815190506200070581620008cf565b92915050565b6000815190506200071c81620008e9565b92915050565b60008060008060008060c087890312156200073c57600080fd5b60006200074c89828a01620006f4565b96505060206200075f89828a01620006f4565b95505060406200077289828a01620006f4565b94505060606200078589828a01620006f4565b93505060806200079889828a01620006f4565b92505060a0620007ab89828a016200070b565b9150509295509295509295565b6000620007c760188362000880565b91507f4c69676874686f7573653a2053414d455f4144445245535300000000000000006000830152602082019050919050565b60006200080960188362000880565b91507f4c69676874686f7573653a205a45524f5f4144445245535300000000000000006000830152602082019050919050565b600060208201905081810360008301526200085781620007b8565b9050919050565b600060208201905081810360008301526200087981620007fa565b9050919050565b600082825260208201905092915050565b60006200089e82620008a5565b9050919050565b600073ffffffffffffffffffffffffffffffffffffffff82169050919050565b6000819050919050565b620008da8162000891565b8114620008e657600080fd5b50565b620008f481620008c5565b81146200090057600080fd5b50565b6128d080620009136000396000f3fe608060405234801561001057600080fd5b50600436106101005760003560e01c80639eefc7b111610097578063e7481fb311610066578063e7481fb3146102c3578063f2fde38b146102f3578063f30188631461030f578063f8536b941461032b57610100565b80639eefc7b114610229578063adc879e914610259578063aee7a1ef14610277578063db7c1f261461029357610100565b806355fc62d2116100d357806355fc62d2146101b257806362015b4e146101e5578063715018a6146102015780638da5cb5b1461020b57610100565b80631e2771dc1461010557806323ead87314610121578063312309b31461015157806343468f0914610181575b600080fd5b61011f600480360381019061011a9190611a8c565b61035b565b005b61013b60048036038101906101369190611b59565b61041b565b60405161014891906125dc565b60405180910390f35b61016b60048036038101906101669190611b59565b610440565b6040516101789190612598565b60405180910390f35b61019b60048036038101906101969190611b07565b6104a9565b6040516101a99291906125b3565b60405180910390f35b6101cc60048036038101906101c79190611b07565b6104ff565b6040516101dc94939291906122ee565b60405180910390f35b6101ff60048036038101906101fa9190611bd1565b610558565b005b6102096107be565b005b610213610846565b604051610220919061228f565b60405180910390f35b610243600480360381019061023e9190611b59565b61086f565b60405161025091906125dc565b60405180910390f35b6102616108ca565b60405161026e91906125dc565b60405180910390f35b610291600480360381019061028c9190611a8c565b6108d0565b005b6102ad60048036038101906102a89190611b59565b610990565b6040516102ba9190612598565b60405180910390f35b6102dd60048036038101906102d89190611b59565b6109c0565b6040516102ea91906125dc565b60405180910390f35b61030d60048036038101906103089190611a8c565b6109e5565b005b61032960048036038101906103249190611c20565b610add565b005b61034560048036038101906103409190611b59565b6118bb565b60405161035291906122d3565b60405180910390f35b610363611918565b73ffffffffffffffffffffffffffffffffffffffff16610381610846565b73ffffffffffffffffffffffffffffffffffffffff16146103d7576040517f08c379a00000000000000000000000000000000000000000000000000000000081526004016103ce906124b8565b60405180910390fd5b80600660006101000a81548173ffffffffffffffffffffffffffffffffffffffff021916908373ffffffffffffffffffffffffffffffffffffffff16021790555050565b600a602052816000526040600020602052806000526040600020600091509150505481565b60006009600084815260200190815260200160002060008373ffffffffffffffffffffffffffffffffffffffff1673ffffffffffffffffffffffffffffffffffffffff16815260200190815260200160002060009054906101000a900461ffff16905092915050565b600080600b600084815260200190815260200160002060000160019054906101000a900461ffff16600b600085815260200190815260200160002060000160039054906101000a900461ffff1691509150915091565b600b6020528060005260406000206000915090508060000160009054906101000a900460ff16908060000160019054906101000a900461ffff16908060000160039054906101000a900461ffff16908060010154905084565b610560611918565b73ffffffffffffffffffffffffffffffffffffffff1661057e610846565b73ffffffffffffffffffffffffffffffffffffffff16146105d4576040517f08c379a00000000000000000000000000000000000000000000000000000000081526004016105cb906124b8565b60405180910390fd5b600460009054906101000a900473ffffffffffffffffffffffffffffffffffffffff1673ffffffffffffffffffffffffffffffffffffffff166364507efc846040518263ffffffff1660e01b815260040161062f91906125dc565b60206040518083038186803b15801561064757600080fd5b505afa15801561065b573d6000803e3d6000fd5b505050506040513d601f19601f8201168201806040525081019061067f9190611ade565b6106be576040517f08c379a00000000000000000000000000000000000000000000000000000000081526004016106b590612518565b60405180910390fd5b600b600084815260200190815260200160002060000160009054906101000a900460ff1615610722576040517f08c379a0000000000000000000000000000000000000000000000000000000008152600401610719906124d8565b60405180910390fd5b6000600b6000858152602001908152602001600020905060018160000160006101000a81548160ff021916908315150217905550818160000160036101000a81548161ffff021916908361ffff160217905550828160010181905550837f6736727a6ea17d813f619d36e3f60b60d40f0c126a9083425c3014de5cd834a384846040516107b0929190612620565b60405180910390a250505050565b6107c6611918565b73ffffffffffffffffffffffffffffffffffffffff166107e4610846565b73ffffffffffffffffffffffffffffffffffffffff161461083a576040517f08c379a0000000000000000000000000000000000000000000000000000000008152600401610831906124b8565b60405180910390fd5b6108446000611920565b565b60008060009054906101000a900473ffffffffffffffffffffffffffffffffffffffff16905090565b60006008600084815260200190815260200160002060008373ffffffffffffffffffffffffffffffffffffffff1673ffffffffffffffffffffffffffffffffffffffff16815260200190815260200160002054905092915050565b60075481565b6108d8611918565b73ffffffffffffffffffffffffffffffffffffffff166108f6610846565b73ffffffffffffffffffffffffffffffffffffffff161461094c576040517f08c379a0000000000000000000000000000000000000000000000000000000008152600401610943906124b8565b60405180910390fd5b80600160006101000a81548173ffffffffffffffffffffffffffffffffffffffff021916908373ffffffffffffffffffffffffffffffffffffffff16021790555050565b60096020528160005260406000206020528060005260406000206000915091509054906101000a900461ffff1681565b6008602052816000526040600020602052806000526040600020600091509150505481565b6109ed611918565b73ffffffffffffffffffffffffffffffffffffffff16610a0b610846565b73ffffffffffffffffffffffffffffffffffffffff1614610a61576040517f08c379a0000000000000000000000000000000000000000000000000000000008152600401610a58906124b8565b60405180910390fd5b600073ffffffffffffffffffffffffffffffffffffffff168173ffffffffffffffffffffffffffffffffffffffff161415610ad1576040517f08c379a0000000000000000000000000000000000000000000000000000000008152600401610ac890612378565b60405180910390fd5b610ada81611920565b50565b600460009054906101000a900473ffffffffffffffffffffffffffffffffffffffff1673ffffffffffffffffffffffffffffffffffffffff166364507efc866040518263ffffffff1660e01b8152600401610b3891906125dc565b60206040518083038186803b158015610b5057600080fd5b505afa158015610b64573d6000803e3d6000fd5b505050506040513d601f19601f82011682018060405250810190610b889190611ade565b610bc7576040517f08c379a0000000000000000000000000000000000000000000000000000000008152600401610bbe90612518565b60405180910390fd5b600460009054906101000a900473ffffffffffffffffffffffffffffffffffffffff1673ffffffffffffffffffffffffffffffffffffffff1663b22e912b866040518263ffffffff1660e01b8152600401610c2291906125dc565b60206040518083038186803b158015610c3a57600080fd5b505afa158015610c4e573d6000803e3d6000fd5b505050506040513d601f19601f82011682018060405250810190610c729190611ade565b610cb1576040517f08c379a0000000000000000000000000000000000000000000000000000000008152600401610ca890612538565b60405180910390fd5b600b600086815260200190815260200160002060000160009054906101000a900460ff16610d14576040517f08c379a0000000000000000000000000000000000000000000000000000000008152600401610d0b906123b8565b60405180910390fd5b610d1e85336118bb565b15610d5e576040517f08c379a0000000000000000000000000000000000000000000000000000000008152600401610d5590612398565b60405180910390fd5b60008411610da1576040517f08c379a0000000000000000000000000000000000000000000000000000000008152600401610d98906124f8565b60405180910390fd5b600080600460009054906101000a900473ffffffffffffffffffffffffffffffffffffffff1673ffffffffffffffffffffffffffffffffffffffff166324d2cb17886040518263ffffffff1660e01b8152600401610dff91906125dc565b604080518083038186803b158015610e1657600080fd5b505afa158015610e2a573d6000803e3d6000fd5b505050506040513d601f19601f82011682018060405250810190610e4e9190611b95565b809250819350505081421015610e99576040517f08c379a0000000000000000000000000000000000000000000000000000000008152600401610e9090612438565b60405180910390fd5b80421115610edc576040517f08c379a0000000000000000000000000000000000000000000000000000000008152600401610ed390612578565b60405180910390fd5b600b600088815260200190815260200160002060010154861015610f35576040517f08c379a0000000000000000000000000000000000000000000000000000000008152600401610f2c90612478565b60405180910390fd5b5050600260009054906101000a900473ffffffffffffffffffffffffffffffffffffffff1673ffffffffffffffffffffffffffffffffffffffff16638c817b6e86336040518363ffffffff1660e01b8152600401610f949291906125f7565b60206040518083038186803b158015610fac57600080fd5b505afa158015610fc0573d6000803e3d6000fd5b505050506040513d601f19601f82011682018060405250810190610fe49190611ade565b611023576040517f08c379a000000000000000000000000000000000000000000000000000000000815260040161101a906123d8565b60405180910390fd5b600360009054906101000a900473ffffffffffffffffffffffffffffffffffffffff1673ffffffffffffffffffffffffffffffffffffffff166302deed0386336040518363ffffffff1660e01b81526004016110809291906125f7565b60206040518083038186803b15801561109857600080fd5b505afa1580156110ac573d6000803e3d6000fd5b505050506040513d601f19601f820116820180604052508101906110d09190611ade565b15611110576040517f08c379a000000000000000000000000000000000000000000000000000000000815260040161110790612498565b60405180910390fd5b60006040518060400160405280601c81526020017f19457468657265756d205369676e6564204d6573736167653a0a333200000000815250905060003330886007546040516020016111659493929190612219565b60405160208183030381529060405280519060200120905060008282604051602001611192929190612267565b6040516020818303038152906040528051906020012090506000600182888888604051600081526020016040526040516111cf9493929190612333565b6020604051602081039080840390855afa1580156111f1573d6000803e3d6000fd5b5050506020604051035190506000600b60008b8152602001908152602001600020905060008160000160039054906101000a900461ffff1661ffff1611156112c657600073ffffffffffffffffffffffffffffffffffffffff16600660009054906101000a900473ffffffffffffffffffffffffffffffffffffffff1673ffffffffffffffffffffffffffffffffffffffff1614156112c5576040517f08c379a00000000000000000000000000000000000000000000000000000000081526004016112bc90612418565b60405180910390fd5b5b8060000160039054906101000a900461ffff1661ffff168160000160019054906101000a900461ffff1661ffff1610156114d0576000600660009054906101000a900473ffffffffffffffffffffffffffffffffffffffff1673ffffffffffffffffffffffffffffffffffffffff166394bf804d8c336040518363ffffffff1660e01b81526004016113599291906125f7565b602060405180830381600087803b15801561137357600080fd5b505af1158015611387573d6000803e3d6000fd5b505050506040513d601f19601f820116820180604052508101906113ab9190611b30565b9050600081116113f0576040517f08c379a00000000000000000000000000000000000000000000000000000000081526004016113e790612458565b60405180910390fd5b60018260000160019054906101000a900461ffff1661140f9190612699565b600960008d815260200190815260200160002060003373ffffffffffffffffffffffffffffffffffffffff1673ffffffffffffffffffffffffffffffffffffffff16815260200190815260200160002060006101000a81548161ffff021916908361ffff16021790555080600a60008d815260200190815260200160002060003373ffffffffffffffffffffffffffffffffffffffff1673ffffffffffffffffffffffffffffffffffffffff16815260200190815260200160002081905550505b60018160000160019054906101000a900461ffff166114ef9190612699565b8160000160016101000a81548161ffff021916908361ffff1602179055508060000160039054906101000a900461ffff1661ffff168160000160019054906101000a900461ffff1661ffff16101561157f5780600001600181819054906101000a900461ffff168092919061156390612771565b91906101000a81548161ffff021916908361ffff160217905550505b600460009054906101000a900473ffffffffffffffffffffffffffffffffffffffff1673ffffffffffffffffffffffffffffffffffffffff166341e0f1b18b8b6040518363ffffffff1660e01b81526004016115dc929190612649565b600060405180830381600087803b1580156115f657600080fd5b505af115801561160a573d6000803e3d6000fd5b5050505088600860008c815260200190815260200160002060003373ffffffffffffffffffffffffffffffffffffffff1673ffffffffffffffffffffffffffffffffffffffff16815260200190815260200160002081905550600460009054906101000a900473ffffffffffffffffffffffffffffffffffffffff1673ffffffffffffffffffffffffffffffffffffffff1663b60da0856040518163ffffffff1660e01b815260040160206040518083038186803b1580156116cb57600080fd5b505afa1580156116df573d6000803e3d6000fd5b505050506040513d601f19601f820116820180604052508101906117039190611ab5565b73ffffffffffffffffffffffffffffffffffffffff168273ffffffffffffffffffffffffffffffffffffffff1614611770576040517f08c379a0000000000000000000000000000000000000000000000000000000008152600401611767906123f8565b60405180910390fd5b600560009054906101000a900473ffffffffffffffffffffffffffffffffffffffff1673ffffffffffffffffffffffffffffffffffffffff16636aade288338b6040518363ffffffff1660e01b81526004016117cd9291906122aa565b602060405180830381600087803b1580156117e757600080fd5b505af11580156117fb573d6000803e3d6000fd5b505050506040513d601f19601f8201168201806040525081019061181f9190611ade565b61185e576040517f08c379a000000000000000000000000000000000000000000000000000000000815260040161185590612558565b60405180910390fd5b3373ffffffffffffffffffffffffffffffffffffffff168a7f0c084a98097a12b06afc1944617ea8d4b2efde50755080245bd7c9019cfb539d8b426040516118a7929190612649565b60405180910390a350505050505050505050565b6000806008600085815260200190815260200160002060008473ffffffffffffffffffffffffffffffffffffffff1673ffffffffffffffffffffffffffffffffffffffff1681526020019081526020016000205411905092915050565b600033905090565b60008060009054906101000a900473ffffffffffffffffffffffffffffffffffffffff169050816000806101000a81548173ffffffffffffffffffffffffffffffffffffffff021916908373ffffffffffffffffffffffffffffffffffffffff1602179055508173ffffffffffffffffffffffffffffffffffffffff168173ffffffffffffffffffffffffffffffffffffffff167f8be0079c531659141344cd1fd0a4f28419497f9722a3daafe3b4186f6b6457e060405160405180910390a35050565b6000813590506119f381612810565b92915050565b600081519050611a0881612810565b92915050565b600081519050611a1d81612827565b92915050565b600081359050611a328161283e565b92915050565b600081359050611a4781612855565b92915050565b600081359050611a5c8161286c565b92915050565b600081519050611a718161286c565b92915050565b600081359050611a8681612883565b92915050565b600060208284031215611a9e57600080fd5b6000611aac848285016119e4565b91505092915050565b600060208284031215611ac757600080fd5b6000611ad5848285016119f9565b91505092915050565b600060208284031215611af057600080fd5b6000611afe84828501611a0e565b91505092915050565b600060208284031215611b1957600080fd5b6000611b2784828501611a4d565b91505092915050565b600060208284031215611b4257600080fd5b6000611b5084828501611a62565b91505092915050565b60008060408385031215611b6c57600080fd5b6000611b7a85828601611a4d565b9250506020611b8b858286016119e4565b9150509250929050565b60008060408385031215611ba857600080fd5b6000611bb685828601611a62565b9250506020611bc785828601611a62565b9150509250929050565b600080600060608486031215611be657600080fd5b6000611bf486828701611a4d565b9350506020611c0586828701611a4d565b9250506040611c1686828701611a38565b9150509250925092565b600080600080600060a08688031215611c3857600080fd5b6000611c4688828901611a4d565b9550506020611c5788828901611a4d565b9450506040611c6888828901611a77565b9350506060611c7988828901611a23565b9250506080611c8a88828901611a23565b9150509295509295909350565b611ca0816126d1565b82525050565b611cb7611cb2826126d1565b61279c565b82525050565b611cc6816126e3565b82525050565b611cd5816126ef565b82525050565b611cec611ce7826126ef565b6127ae565b82525050565b6000611cfd82612672565b611d07818561267d565b9350611d1781856020860161273e565b80840191505092915050565b6000611d30602683612688565b91507f4f776e61626c653a206e6577206f776e657220697320746865207a65726f206160008301527f64647265737300000000000000000000000000000000000000000000000000006020830152604082019050919050565b6000611d96602083612688565b91507f4c69676874686f7573653a20414c52454144595f5041525449434950415445446000830152602082019050919050565b6000611dd6601b83612688565b91507f4c69676874686f7573653a2041554354494f4e5f4e4f545f53455400000000006000830152602082019050919050565b6000611e16601a83612688565b91507f4c69676874686f7573653a204e4f545f524547495354455245440000000000006000830152602082019050919050565b6000611e56600f83612688565b91507f4c69676874686f7573653a2053494700000000000000000000000000000000006000830152602082019050919050565b6000611e96601a83612688565b91507f4c69676874686f7573653a204e4f5f4e46545f414444524553530000000000006000830152602082019050919050565b6000611ed6601b83612688565b91507f4c69676874686f7573653a204e4f545f535441525445445f59455400000000006000830152602082019050919050565b6000611f16601683612688565b91507f4c69676874686f7573653a204e4f545f4d494e544544000000000000000000006000830152602082019050919050565b6000611f56601983612688565b91507f4c69676874686f7573653a204c4553535f5448414e5f4d494e000000000000006000830152602082019050919050565b6000611f96601583612688565b91507f4c69676874686f7573653a2050524546554e44454400000000000000000000006000830152602082019050919050565b6000611fd6602083612688565b91507f4f776e61626c653a2063616c6c6572206973206e6f7420746865206f776e65726000830152602082019050919050565b6000612016601783612688565b91507f4c69676874686f7573653a20414c52454144595f5345540000000000000000006000830152602082019050919050565b6000612056601683612688565b91507f4c69676874686f7573653a205a45524f5f56414c5545000000000000000000006000830152602082019050919050565b6000612096602383612688565b91507f4c69676874686f7573653a2041554354494f4e5f4e4f545f494e495449414c4960008301527f5a454400000000000000000000000000000000000000000000000000000000006020830152604082019050919050565b60006120fc602783612688565b91507f4c69676874686f7573653a204e4f545f5452414e534645525245445f5052454660008301527f554e445f594554000000000000000000000000000000000000000000000000006020830152604082019050919050565b6000612162601783612688565b91507f4c69676874686f7573653a204357535f554e5350454e440000000000000000006000830152602082019050919050565b60006121a2601483612688565b91507f4c69676874686f7573653a2046494e49534845440000000000000000000000006000830152602082019050919050565b6121de816126f9565b82525050565b6121ed81612727565b82525050565b6122046121ff82612727565b6127ca565b82525050565b61221381612731565b82525050565b60006122258287611ca6565b6014820191506122358286611ca6565b60148201915061224582856121f3565b60208201915061225582846121f3565b60208201915081905095945050505050565b60006122738285611cf2565b915061227f8284611cdb565b6020820191508190509392505050565b60006020820190506122a46000830184611c97565b92915050565b60006040820190506122bf6000830185611c97565b6122cc60208301846121e4565b9392505050565b60006020820190506122e86000830184611cbd565b92915050565b60006080820190506123036000830187611cbd565b61231060208301866121d5565b61231d60408301856121d5565b61232a60608301846121e4565b95945050505050565b60006080820190506123486000830187611ccc565b612355602083018661220a565b6123626040830185611ccc565b61236f6060830184611ccc565b95945050505050565b6000602082019050818103600083015261239181611d23565b9050919050565b600060208201905081810360008301526123b181611d89565b9050919050565b600060208201905081810360008301526123d181611dc9565b9050919050565b600060208201905081810360008301526123f181611e09565b9050919050565b6000602082019050818103600083015261241181611e49565b9050919050565b6000602082019050818103600083015261243181611e89565b9050919050565b6000602082019050818103600083015261245181611ec9565b9050919050565b6000602082019050818103600083015261247181611f09565b9050919050565b6000602082019050818103600083015261249181611f49565b9050919050565b600060208201905081810360008301526124b181611f89565b9050919050565b600060208201905081810360008301526124d181611fc9565b9050919050565b600060208201905081810360008301526124f181612009565b9050919050565b6000602082019050818103600083015261251181612049565b9050919050565b6000602082019050818103600083015261253181612089565b9050919050565b60006020820190508181036000830152612551816120ef565b9050919050565b6000602082019050818103600083015261257181612155565b9050919050565b6000602082019050818103600083015261259181612195565b9050919050565b60006020820190506125ad60008301846121d5565b92915050565b60006040820190506125c860008301856121d5565b6125d560208301846121d5565b9392505050565b60006020820190506125f160008301846121e4565b92915050565b600060408201905061260c60008301856121e4565b6126196020830184611c97565b9392505050565b600060408201905061263560008301856121e4565b61264260208301846121d5565b9392505050565b600060408201905061265e60008301856121e4565b61266b60208301846121e4565b9392505050565b600081519050919050565b600081905092915050565b600082825260208201905092915050565b60006126a4826126f9565b91506126af836126f9565b92508261ffff038211156126c6576126c56127d4565b5b828201905092915050565b60006126dc82612707565b9050919050565b60008115159050919050565b6000819050919050565b600061ffff82169050919050565b600073ffffffffffffffffffffffffffffffffffffffff82169050919050565b6000819050919050565b600060ff82169050919050565b60005b8381101561275c578082015181840152602081019050612741565b8381111561276b576000848401525b50505050565b600061277c826126f9565b915061ffff821415612791576127906127d4565b5b600182019050919050565b60006127a7826127b8565b9050919050565b6000819050919050565b60006127c382612803565b9050919050565b6000819050919050565b7f4e487b7100000000000000000000000000000000000000000000000000000000600052601160045260246000fd5b60008160601b9050919050565b612819816126d1565b811461282457600080fd5b50565b612830816126e3565b811461283b57600080fd5b50565b612847816126ef565b811461285257600080fd5b50565b61285e816126f9565b811461286957600080fd5b50565b61287581612727565b811461288057600080fd5b50565b61288c81612731565b811461289757600080fd5b5056fea26469706673582212204521b35ea32dd652d47476d53414430a48653e255a515ea75e8fe16a552c9db864736f6c63430008000033",
  "linkReferences": {},
  "deployedLinkReferences": {}
}