{
  "_format": "hh-sol-artifact-1",
  "contractName": "LighthouseAuction",
  "sourceName": "contracts/LighthouseAuction.sol",
  "abi": [
    {
      "inputs": [
        {
          "internalType": "address",
          "name": "_crowns",
          "type": "address"
        },
        {
          "internalType": "address",
          "name": "tier",
          "type": "address"
        },
        {
          "internalType": "address",
          "name": "submission",
          "type": "address"
        },
        {
          "internalType": "address",
          "name": "prefund",
          "type": "address"
        },
        {
          "internalType": "address",
          "name": "project",
          "type": "address"
        },
        {
          "internalType": "uint256",
          "name": "_chainID",
          "type": "uint256"
        }
      ],
      "stateMutability": "nonpayable",
      "type": "constructor"
    },
    {
      "anonymous": false,
      "inputs": [
        {
          "indexed": true,
          "internalType": "uint256",
          "name": "projectId",
          "type": "uint256"
        },
        {
          "indexed": true,
          "internalType": "address",
          "name": "participant",
          "type": "address"
        },
        {
          "indexed": true,
          "internalType": "uint256",
          "name": "tokenId",
          "type": "uint256"
        }
      ],
      "name": "Gift",
      "type": "event"
    },
    {
      "anonymous": false,
      "inputs": [
        {
          "indexed": true,
          "internalType": "address",
          "name": "previousOwner",
          "type": "address"
        },
        {
          "indexed": true,
          "internalType": "address",
          "name": "newOwner",
          "type": "address"
        }
      ],
      "name": "OwnershipTransferred",
      "type": "event"
    },
    {
      "anonymous": false,
      "inputs": [
        {
          "indexed": true,
          "internalType": "uint256",
          "name": "projectId",
          "type": "uint256"
        },
        {
          "indexed": true,
          "internalType": "address",
          "name": "participant",
          "type": "address"
        },
        {
          "indexed": false,
          "internalType": "uint256",
          "name": "amount",
          "type": "uint256"
        },
        {
          "indexed": false,
          "internalType": "uint256",
          "name": "time",
          "type": "uint256"
        }
      ],
      "name": "Participate",
      "type": "event"
    },
    {
      "inputs": [],
      "name": "chainID",
      "outputs": [
        {
          "internalType": "uint256",
          "name": "",
          "type": "uint256"
        }
      ],
      "stateMutability": "view",
      "type": "function"
    },
    {
      "inputs": [
        {
          "internalType": "uint256",
          "name": "projectId",
          "type": "uint256"
        },
        {
          "internalType": "address",
          "name": "investor",
          "type": "address"
        }
      ],
      "name": "getSpent",
      "outputs": [
        {
          "internalType": "uint256",
          "name": "",
          "type": "uint256"
        }
      ],
      "stateMutability": "view",
      "type": "function"
    },
    {
      "inputs": [
        {
          "internalType": "uint256",
          "name": "projectId",
          "type": "uint256"
        }
      ],
      "name": "giftInfo",
      "outputs": [
        {
          "internalType": "uint16",
          "name": "",
          "type": "uint16"
        },
        {
          "internalType": "uint16",
          "name": "",
          "type": "uint16"
        }
      ],
      "stateMutability": "view",
      "type": "function"
    },
    {
      "inputs": [
        {
          "internalType": "uint256",
          "name": "",
          "type": "uint256"
        },
        {
          "internalType": "address",
          "name": "",
          "type": "address"
        }
      ],
      "name": "giftOrder",
      "outputs": [
        {
          "internalType": "uint16",
          "name": "",
          "type": "uint16"
        }
      ],
      "stateMutability": "view",
      "type": "function"
    },
    {
      "inputs": [
        {
          "internalType": "uint256",
          "name": "",
          "type": "uint256"
        },
        {
          "internalType": "address",
          "name": "",
          "type": "address"
        }
      ],
      "name": "gifts",
      "outputs": [
        {
          "internalType": "uint256",
          "name": "",
          "type": "uint256"
        }
      ],
      "stateMutability": "view",
      "type": "function"
    },
    {
      "inputs": [],
      "name": "owner",
      "outputs": [
        {
          "internalType": "address",
          "name": "",
          "type": "address"
        }
      ],
      "stateMutability": "view",
      "type": "function"
    },
    {
      "inputs": [
        {
          "internalType": "uint256",
          "name": "projectId",
          "type": "uint256"
        },
        {
          "internalType": "address",
          "name": "participant",
          "type": "address"
        }
      ],
      "name": "participantGiftOrder",
      "outputs": [
        {
          "internalType": "uint16",
          "name": "",
          "type": "uint16"
        }
      ],
      "stateMutability": "view",
      "type": "function"
    },
    {
      "inputs": [
        {
          "internalType": "uint256",
          "name": "projectId",
          "type": "uint256"
        },
        {
          "internalType": "uint256",
          "name": "amount",
          "type": "uint256"
        },
        {
          "internalType": "uint8",
          "name": "v",
          "type": "uint8"
        },
        {
          "internalType": "bytes32",
          "name": "r",
          "type": "bytes32"
        },
        {
          "internalType": "bytes32",
          "name": "s",
          "type": "bytes32"
        }
      ],
      "name": "participate",
      "outputs": [],
      "stateMutability": "nonpayable",
      "type": "function"
    },
    {
      "inputs": [
        {
          "internalType": "uint256",
          "name": "projectId",
          "type": "uint256"
        },
        {
          "internalType": "address",
          "name": "investor",
          "type": "address"
        }
      ],
      "name": "participated",
      "outputs": [
        {
          "internalType": "bool",
          "name": "",
          "type": "bool"
        }
      ],
      "stateMutability": "view",
      "type": "function"
    },
    {
      "inputs": [],
      "name": "renounceOwnership",
      "outputs": [],
      "stateMutability": "nonpayable",
      "type": "function"
    },
    {
      "inputs": [
        {
          "internalType": "address",
          "name": "giftNft",
          "type": "address"
        }
      ],
      "name": "setGiftNft",
      "outputs": [],
      "stateMutability": "nonpayable",
      "type": "function"
    },
    {
      "inputs": [
        {
          "internalType": "address",
          "name": "newTier",
          "type": "address"
        }
      ],
      "name": "setLighthouseTier",
      "outputs": [],
      "stateMutability": "nonpayable",
      "type": "function"
    },
    {
      "inputs": [
        {
          "internalType": "uint256",
          "name": "",
          "type": "uint256"
        },
        {
          "internalType": "address",
          "name": "",
          "type": "address"
        }
      ],
      "name": "spents",
      "outputs": [
        {
          "internalType": "uint256",
          "name": "",
          "type": "uint256"
        }
      ],
      "stateMutability": "view",
      "type": "function"
    },
    {
      "inputs": [
        {
          "internalType": "address",
          "name": "newOwner",
          "type": "address"
        }
      ],
      "name": "transferOwnership",
      "outputs": [],
      "stateMutability": "nonpayable",
      "type": "function"
    }
  ],
  "bytecode": "0x60806040523480156200001157600080fd5b5060405162002d8c38038062002d8c833981810160405281019062000037919062000722565b620000576200004b6200062860201b60201c565b6200063060201b60201c565b600073ffffffffffffffffffffffffffffffffffffffff168673ffffffffffffffffffffffffffffffffffffffff1614158015620000c25750600073ffffffffffffffffffffffffffffffffffffffff168573ffffffffffffffffffffffffffffffffffffffff1614155b8015620000fc5750600073ffffffffffffffffffffffffffffffffffffffff168373ffffffffffffffffffffffffffffffffffffffff1614155b8015620001365750600073ffffffffffffffffffffffffffffffffffffffff168473ffffffffffffffffffffffffffffffffffffffff1614155b8015620001705750600073ffffffffffffffffffffffffffffffffffffffff168273ffffffffffffffffffffffffffffffffffffffff1614155b620001b2576040517f08c379a0000000000000000000000000000000000000000000000000000000008152600401620001a9906200085e565b60405180910390fd5b8273ffffffffffffffffffffffffffffffffffffffff168573ffffffffffffffffffffffffffffffffffffffff16141562000224576040517f08c379a00000000000000000000000000000000000000000000000000000000081526004016200021b906200083c565b60405180910390fd5b8573ffffffffffffffffffffffffffffffffffffffff168573ffffffffffffffffffffffffffffffffffffffff16141562000296576040517f08c379a00000000000000000000000000000000000000000000000000000000081526004016200028d906200083c565b60405180910390fd5b8373ffffffffffffffffffffffffffffffffffffffff168573ffffffffffffffffffffffffffffffffffffffff16141562000308576040517f08c379a0000000000000000000000000000000000000000000000000000000008152600401620002ff906200083c565b60405180910390fd5b8173ffffffffffffffffffffffffffffffffffffffff168573ffffffffffffffffffffffffffffffffffffffff1614156200037a576040517f08c379a000000000000000000000000000000000000000000000000000000000815260040162000371906200083c565b60405180910390fd5b8173ffffffffffffffffffffffffffffffffffffffff168473ffffffffffffffffffffffffffffffffffffffff161415620003ec576040517f08c379a0000000000000000000000000000000000000000000000000000000008152600401620003e3906200083c565b60405180910390fd5b8273ffffffffffffffffffffffffffffffffffffffff168473ffffffffffffffffffffffffffffffffffffffff1614156200045e576040517f08c379a000000000000000000000000000000000000000000000000000000000815260040162000455906200083c565b60405180910390fd5b8173ffffffffffffffffffffffffffffffffffffffff168373ffffffffffffffffffffffffffffffffffffffff161415620004d0576040517f08c379a0000000000000000000000000000000000000000000000000000000008152600401620004c7906200083c565b60405180910390fd5b84600160006101000a81548173ffffffffffffffffffffffffffffffffffffffff021916908373ffffffffffffffffffffffffffffffffffffffff16021790555083600260006101000a81548173ffffffffffffffffffffffffffffffffffffffff021916908373ffffffffffffffffffffffffffffffffffffffff16021790555082600360006101000a81548173ffffffffffffffffffffffffffffffffffffffff021916908373ffffffffffffffffffffffffffffffffffffffff16021790555081600460006101000a81548173ffffffffffffffffffffffffffffffffffffffff021916908373ffffffffffffffffffffffffffffffffffffffff16021790555085600560006101000a81548173ffffffffffffffffffffffffffffffffffffffff021916908373ffffffffffffffffffffffffffffffffffffffff1602179055508060078190555050505050505062000903565b600033905090565b60008060009054906101000a900473ffffffffffffffffffffffffffffffffffffffff169050816000806101000a81548173ffffffffffffffffffffffffffffffffffffffff021916908373ffffffffffffffffffffffffffffffffffffffff1602179055508173ffffffffffffffffffffffffffffffffffffffff168173ffffffffffffffffffffffffffffffffffffffff167f8be0079c531659141344cd1fd0a4f28419497f9722a3daafe3b4186f6b6457e060405160405180910390a35050565b6000815190506200070581620008cf565b92915050565b6000815190506200071c81620008e9565b92915050565b60008060008060008060c087890312156200073c57600080fd5b60006200074c89828a01620006f4565b96505060206200075f89828a01620006f4565b95505060406200077289828a01620006f4565b94505060606200078589828a01620006f4565b93505060806200079889828a01620006f4565b92505060a0620007ab89828a016200070b565b9150509295509295509295565b6000620007c760188362000880565b91507f4c69676874686f7573653a2053414d455f4144445245535300000000000000006000830152602082019050919050565b60006200080960188362000880565b91507f4c69676874686f7573653a205a45524f5f4144445245535300000000000000006000830152602082019050919050565b600060208201905081810360008301526200085781620007b8565b9050919050565b600060208201905081810360008301526200087981620007fa565b9050919050565b600082825260208201905092915050565b60006200089e82620008a5565b9050919050565b600073ffffffffffffffffffffffffffffffffffffffff82169050919050565b6000819050919050565b620008da8162000891565b8114620008e657600080fd5b50565b620008f481620008c5565b81146200090057600080fd5b50565b61247980620009136000396000f3fe608060405234801561001057600080fd5b50600436106100ea5760003560e01c8063adc879e91161008c578063e7481fb311610066578063e7481fb31461025e578063f2fde38b1461028e578063f3018863146102aa578063f8536b94146102c6576100ea565b8063adc879e9146101f4578063aee7a1ef14610212578063db7c1f261461022e576100ea565b806343468f09116100c857806343468f091461016b578063715018a61461019c5780638da5cb5b146101a65780639eefc7b1146101c4576100ea565b80631e2771dc146100ef57806323ead8731461010b578063312309b31461013b575b600080fd5b610109600480360381019061010491906117a1565b6102f6565b005b610125600480360381019061012091906118aa565b6103b6565b60405161013291906121d9565b60405180910390f35b610155600480360381019061015091906118aa565b6103db565b6040516101629190612195565b60405180910390f35b61018560048036038101906101809190611858565b610444565b6040516101939291906121b0565b60405180910390f35b6101a46104fa565b005b6101ae610582565b6040516101bb9190611f11565b60405180910390f35b6101de60048036038101906101d991906118aa565b6105ab565b6040516101eb91906121d9565b60405180910390f35b6101fc610606565b60405161020991906121d9565b60405180910390f35b61022c600480360381019061022791906117a1565b61060c565b005b610248600480360381019061024391906118aa565b6106cc565b6040516102559190612195565b60405180910390f35b610278600480360381019061027391906118aa565b6106fc565b60405161028591906121d9565b60405180910390f35b6102a860048036038101906102a391906117a1565b610721565b005b6102c460048036038101906102bf9190611922565b610819565b005b6102e060048036038101906102db91906118aa565b6115d0565b6040516102ed9190611f55565b60405180910390f35b6102fe61162d565b73ffffffffffffffffffffffffffffffffffffffff1661031c610582565b73ffffffffffffffffffffffffffffffffffffffff1614610372576040517f08c379a0000000000000000000000000000000000000000000000000000000008152600401610369906120d5565b60405180910390fd5b80600660006101000a81548173ffffffffffffffffffffffffffffffffffffffff021916908373ffffffffffffffffffffffffffffffffffffffff16021790555050565b600a602052816000526040600020602052806000526040600020600091509150505481565b60006009600084815260200190815260200160002060008373ffffffffffffffffffffffffffffffffffffffff1673ffffffffffffffffffffffffffffffffffffffff16815260200190815260200160002060009054906101000a900461ffff16905092915050565b600080600460009054906101000a900473ffffffffffffffffffffffffffffffffffffffff1673ffffffffffffffffffffffffffffffffffffffff1663ad76dfca846040518263ffffffff1660e01b81526004016104a291906121d9565b604080518083038186803b1580156104b957600080fd5b505afa1580156104cd573d6000803e3d6000fd5b505050506040513d601f19601f820116820180604052508101906104f1919061181c565b91509150915091565b61050261162d565b73ffffffffffffffffffffffffffffffffffffffff16610520610582565b73ffffffffffffffffffffffffffffffffffffffff1614610576576040517f08c379a000000000000000000000000000000000000000000000000000000000815260040161056d906120d5565b60405180910390fd5b6105806000611635565b565b60008060009054906101000a900473ffffffffffffffffffffffffffffffffffffffff16905090565b60006008600084815260200190815260200160002060008373ffffffffffffffffffffffffffffffffffffffff1673ffffffffffffffffffffffffffffffffffffffff16815260200190815260200160002054905092915050565b60075481565b61061461162d565b73ffffffffffffffffffffffffffffffffffffffff16610632610582565b73ffffffffffffffffffffffffffffffffffffffff1614610688576040517f08c379a000000000000000000000000000000000000000000000000000000000815260040161067f906120d5565b60405180910390fd5b80600160006101000a81548173ffffffffffffffffffffffffffffffffffffffff021916908373ffffffffffffffffffffffffffffffffffffffff16021790555050565b60096020528160005260406000206020528060005260406000206000915091509054906101000a900461ffff1681565b6008602052816000526040600020602052806000526040600020600091509150505481565b61072961162d565b73ffffffffffffffffffffffffffffffffffffffff16610747610582565b73ffffffffffffffffffffffffffffffffffffffff161461079d576040517f08c379a0000000000000000000000000000000000000000000000000000000008152600401610794906120d5565b60405180910390fd5b600073ffffffffffffffffffffffffffffffffffffffff168173ffffffffffffffffffffffffffffffffffffffff16141561080d576040517f08c379a000000000000000000000000000000000000000000000000000000000815260040161080490611fb5565b60405180910390fd5b61081681611635565b50565b600460009054906101000a900473ffffffffffffffffffffffffffffffffffffffff1673ffffffffffffffffffffffffffffffffffffffff166364507efc866040518263ffffffff1660e01b815260040161087491906121d9565b60206040518083038186803b15801561088c57600080fd5b505afa1580156108a0573d6000803e3d6000fd5b505050506040513d601f19601f820116820180604052508101906108c491906117f3565b610903576040517f08c379a00000000000000000000000000000000000000000000000000000000081526004016108fa90612115565b60405180910390fd5b600460009054906101000a900473ffffffffffffffffffffffffffffffffffffffff1673ffffffffffffffffffffffffffffffffffffffff1663b22e912b866040518263ffffffff1660e01b815260040161095e91906121d9565b60206040518083038186803b15801561097657600080fd5b505afa15801561098a573d6000803e3d6000fd5b505050506040513d601f19601f820116820180604052508101906109ae91906117f3565b6109ed576040517f08c379a00000000000000000000000000000000000000000000000000000000081526004016109e490612135565b60405180910390fd5b6109f785336115d0565b15610a37576040517f08c379a0000000000000000000000000000000000000000000000000000000008152600401610a2e90611fd5565b60405180910390fd5b60008411610a7a576040517f08c379a0000000000000000000000000000000000000000000000000000000008152600401610a71906120f5565b60405180910390fd5b600080600460009054906101000a900473ffffffffffffffffffffffffffffffffffffffff1673ffffffffffffffffffffffffffffffffffffffff166324d2cb17886040518263ffffffff1660e01b8152600401610ad891906121d9565b604080518083038186803b158015610aef57600080fd5b505afa158015610b03573d6000803e3d6000fd5b505050506040513d601f19601f82011682018060405250810190610b2791906118e6565b809250819350505081421015610b72576040517f08c379a0000000000000000000000000000000000000000000000000000000008152600401610b6990612055565b60405180910390fd5b80421115610bb5576040517f08c379a0000000000000000000000000000000000000000000000000000000008152600401610bac90612175565b60405180910390fd5b600460009054906101000a900473ffffffffffffffffffffffffffffffffffffffff1673ffffffffffffffffffffffffffffffffffffffff1663fbbec195886040518263ffffffff1660e01b8152600401610c1091906121d9565b60206040518083038186803b158015610c2857600080fd5b505afa158015610c3c573d6000803e3d6000fd5b505050506040513d601f19601f82011682018060405250810190610c609190611881565b861015610ca2576040517f08c379a0000000000000000000000000000000000000000000000000000000008152600401610c9990612095565b60405180910390fd5b5050600260009054906101000a900473ffffffffffffffffffffffffffffffffffffffff1673ffffffffffffffffffffffffffffffffffffffff16638c817b6e86336040518363ffffffff1660e01b8152600401610d019291906121f4565b60206040518083038186803b158015610d1957600080fd5b505afa158015610d2d573d6000803e3d6000fd5b505050506040513d601f19601f82011682018060405250810190610d5191906117f3565b610d90576040517f08c379a0000000000000000000000000000000000000000000000000000000008152600401610d8790611ff5565b60405180910390fd5b600360009054906101000a900473ffffffffffffffffffffffffffffffffffffffff1673ffffffffffffffffffffffffffffffffffffffff166302deed0386336040518363ffffffff1660e01b8152600401610ded9291906121f4565b60206040518083038186803b158015610e0557600080fd5b505afa158015610e19573d6000803e3d6000fd5b505050506040513d601f19601f82011682018060405250810190610e3d91906117f3565b15610e7d576040517f08c379a0000000000000000000000000000000000000000000000000000000008152600401610e74906120b5565b60405180910390fd5b60006040518060400160405280601c81526020017f19457468657265756d205369676e6564204d6573736167653a0a33320000000081525090506000333088600754604051602001610ed29493929190611e9b565b60405160208183030381529060405280519060200120905060008282604051602001610eff929190611ee9565b604051602081830303815290604052805190602001209050600060018288888860405160008152602001604052604051610f3c9493929190611f70565b6020604051602081039080840390855afa158015610f5e573d6000803e3d6000fd5b505050602060405103519050600080600460009054906101000a900473ffffffffffffffffffffffffffffffffffffffff1673ffffffffffffffffffffffffffffffffffffffff1663ad76dfca8c6040518263ffffffff1660e01b8152600401610fc891906121d9565b604080518083038186803b158015610fdf57600080fd5b505afa158015610ff3573d6000803e3d6000fd5b505050506040513d601f19601f82011682018060405250810190611017919061181c565b809250819350505060008161ffff1611156110bf57600073ffffffffffffffffffffffffffffffffffffffff16600660009054906101000a900473ffffffffffffffffffffffffffffffffffffffff1673ffffffffffffffffffffffffffffffffffffffff1614156110be576040517f08c379a00000000000000000000000000000000000000000000000000000000081526004016110b590612035565b60405180910390fd5b5b8061ffff168261ffff161015611293576000600660009054906101000a900473ffffffffffffffffffffffffffffffffffffffff1673ffffffffffffffffffffffffffffffffffffffff166394bf804d8d336040518363ffffffff1660e01b815260040161112e9291906121f4565b602060405180830381600087803b15801561114857600080fd5b505af115801561115c573d6000803e3d6000fd5b505050506040513d601f19601f820116820180604052508101906111809190611881565b9050600081116111c5576040517f08c379a00000000000000000000000000000000000000000000000000000000081526004016111bc90612075565b60405180910390fd5b6001836111d2919061226d565b600960008e815260200190815260200160002060003373ffffffffffffffffffffffffffffffffffffffff1673ffffffffffffffffffffffffffffffffffffffff16815260200190815260200160002060006101000a81548161ffff021916908361ffff16021790555080600a60008e815260200190815260200160002060003373ffffffffffffffffffffffffffffffffffffffff1673ffffffffffffffffffffffffffffffffffffffff16815260200190815260200160002081905550505b600460009054906101000a900473ffffffffffffffffffffffffffffffffffffffff1673ffffffffffffffffffffffffffffffffffffffff166341e0f1b18c8c6040518363ffffffff1660e01b81526004016112f092919061221d565b600060405180830381600087803b15801561130a57600080fd5b505af115801561131e573d6000803e3d6000fd5b5050505089600860008d815260200190815260200160002060003373ffffffffffffffffffffffffffffffffffffffff1673ffffffffffffffffffffffffffffffffffffffff16815260200190815260200160002081905550600460009054906101000a900473ffffffffffffffffffffffffffffffffffffffff1673ffffffffffffffffffffffffffffffffffffffff1663b60da0856040518163ffffffff1660e01b815260040160206040518083038186803b1580156113df57600080fd5b505afa1580156113f3573d6000803e3d6000fd5b505050506040513d601f19601f8201168201806040525081019061141791906117ca565b73ffffffffffffffffffffffffffffffffffffffff168373ffffffffffffffffffffffffffffffffffffffff1614611484576040517f08c379a000000000000000000000000000000000000000000000000000000000815260040161147b90612015565b60405180910390fd5b600560009054906101000a900473ffffffffffffffffffffffffffffffffffffffff1673ffffffffffffffffffffffffffffffffffffffff16636aade288338c6040518363ffffffff1660e01b81526004016114e1929190611f2c565b602060405180830381600087803b1580156114fb57600080fd5b505af115801561150f573d6000803e3d6000fd5b505050506040513d601f19601f8201168201806040525081019061153391906117f3565b611572576040517f08c379a000000000000000000000000000000000000000000000000000000000815260040161156990612155565b60405180910390fd5b3373ffffffffffffffffffffffffffffffffffffffff168b7f0c084a98097a12b06afc1944617ea8d4b2efde50755080245bd7c9019cfb539d8c426040516115bb92919061221d565b60405180910390a35050505050505050505050565b6000806008600085815260200190815260200160002060008473ffffffffffffffffffffffffffffffffffffffff1673ffffffffffffffffffffffffffffffffffffffff1681526020019081526020016000205411905092915050565b600033905090565b60008060009054906101000a900473ffffffffffffffffffffffffffffffffffffffff169050816000806101000a81548173ffffffffffffffffffffffffffffffffffffffff021916908373ffffffffffffffffffffffffffffffffffffffff1602179055508173ffffffffffffffffffffffffffffffffffffffff168173ffffffffffffffffffffffffffffffffffffffff167f8be0079c531659141344cd1fd0a4f28419497f9722a3daafe3b4186f6b6457e060405160405180910390a35050565b600081359050611708816123b9565b92915050565b60008151905061171d816123b9565b92915050565b600081519050611732816123d0565b92915050565b600081359050611747816123e7565b92915050565b60008151905061175c816123fe565b92915050565b60008135905061177181612415565b92915050565b60008151905061178681612415565b92915050565b60008135905061179b8161242c565b92915050565b6000602082840312156117b357600080fd5b60006117c1848285016116f9565b91505092915050565b6000602082840312156117dc57600080fd5b60006117ea8482850161170e565b91505092915050565b60006020828403121561180557600080fd5b600061181384828501611723565b91505092915050565b6000806040838503121561182f57600080fd5b600061183d8582860161174d565b925050602061184e8582860161174d565b9150509250929050565b60006020828403121561186a57600080fd5b600061187884828501611762565b91505092915050565b60006020828403121561189357600080fd5b60006118a184828501611777565b91505092915050565b600080604083850312156118bd57600080fd5b60006118cb85828601611762565b92505060206118dc858286016116f9565b9150509250929050565b600080604083850312156118f957600080fd5b600061190785828601611777565b925050602061191885828601611777565b9150509250929050565b600080600080600060a0868803121561193a57600080fd5b600061194888828901611762565b955050602061195988828901611762565b945050604061196a8882890161178c565b935050606061197b88828901611738565b925050608061198c88828901611738565b9150509295509295909350565b6119a2816122a5565b82525050565b6119b96119b4826122a5565b612345565b82525050565b6119c8816122b7565b82525050565b6119d7816122c3565b82525050565b6119ee6119e9826122c3565b612357565b82525050565b60006119ff82612246565b611a098185612251565b9350611a19818560208601612312565b80840191505092915050565b6000611a3260268361225c565b91507f4f776e61626c653a206e6577206f776e657220697320746865207a65726f206160008301527f64647265737300000000000000000000000000000000000000000000000000006020830152604082019050919050565b6000611a9860208361225c565b91507f4c69676874686f7573653a20414c52454144595f5041525449434950415445446000830152602082019050919050565b6000611ad8601a8361225c565b91507f4c69676874686f7573653a204e4f545f524547495354455245440000000000006000830152602082019050919050565b6000611b18600f8361225c565b91507f4c69676874686f7573653a2053494700000000000000000000000000000000006000830152602082019050919050565b6000611b58601a8361225c565b91507f4c69676874686f7573653a204e4f5f4e46545f414444524553530000000000006000830152602082019050919050565b6000611b98601b8361225c565b91507f4c69676874686f7573653a204e4f545f535441525445445f59455400000000006000830152602082019050919050565b6000611bd860168361225c565b91507f4c69676874686f7573653a204e4f545f4d494e544544000000000000000000006000830152602082019050919050565b6000611c1860198361225c565b91507f4c69676874686f7573653a204c4553535f5448414e5f4d494e000000000000006000830152602082019050919050565b6000611c5860158361225c565b91507f4c69676874686f7573653a2050524546554e44454400000000000000000000006000830152602082019050919050565b6000611c9860208361225c565b91507f4f776e61626c653a2063616c6c6572206973206e6f7420746865206f776e65726000830152602082019050919050565b6000611cd860168361225c565b91507f4c69676874686f7573653a205a45524f5f56414c5545000000000000000000006000830152602082019050919050565b6000611d1860238361225c565b91507f4c69676874686f7573653a2041554354494f4e5f4e4f545f494e495449414c4960008301527f5a454400000000000000000000000000000000000000000000000000000000006020830152604082019050919050565b6000611d7e60278361225c565b91507f4c69676874686f7573653a204e4f545f5452414e534645525245445f5052454660008301527f554e445f594554000000000000000000000000000000000000000000000000006020830152604082019050919050565b6000611de460178361225c565b91507f4c69676874686f7573653a204357535f554e5350454e440000000000000000006000830152602082019050919050565b6000611e2460148361225c565b91507f4c69676874686f7573653a2046494e49534845440000000000000000000000006000830152602082019050919050565b611e60816122cd565b82525050565b611e6f816122fb565b82525050565b611e86611e81826122fb565b612373565b82525050565b611e9581612305565b82525050565b6000611ea782876119a8565b601482019150611eb782866119a8565b601482019150611ec78285611e75565b602082019150611ed78284611e75565b60208201915081905095945050505050565b6000611ef582856119f4565b9150611f0182846119dd565b6020820191508190509392505050565b6000602082019050611f266000830184611999565b92915050565b6000604082019050611f416000830185611999565b611f4e6020830184611e66565b9392505050565b6000602082019050611f6a60008301846119bf565b92915050565b6000608082019050611f8560008301876119ce565b611f926020830186611e8c565b611f9f60408301856119ce565b611fac60608301846119ce565b95945050505050565b60006020820190508181036000830152611fce81611a25565b9050919050565b60006020820190508181036000830152611fee81611a8b565b9050919050565b6000602082019050818103600083015261200e81611acb565b9050919050565b6000602082019050818103600083015261202e81611b0b565b9050919050565b6000602082019050818103600083015261204e81611b4b565b9050919050565b6000602082019050818103600083015261206e81611b8b565b9050919050565b6000602082019050818103600083015261208e81611bcb565b9050919050565b600060208201905081810360008301526120ae81611c0b565b9050919050565b600060208201905081810360008301526120ce81611c4b565b9050919050565b600060208201905081810360008301526120ee81611c8b565b9050919050565b6000602082019050818103600083015261210e81611ccb565b9050919050565b6000602082019050818103600083015261212e81611d0b565b9050919050565b6000602082019050818103600083015261214e81611d71565b9050919050565b6000602082019050818103600083015261216e81611dd7565b9050919050565b6000602082019050818103600083015261218e81611e17565b9050919050565b60006020820190506121aa6000830184611e57565b92915050565b60006040820190506121c56000830185611e57565b6121d26020830184611e57565b9392505050565b60006020820190506121ee6000830184611e66565b92915050565b60006040820190506122096000830185611e66565b6122166020830184611999565b9392505050565b60006040820190506122326000830185611e66565b61223f6020830184611e66565b9392505050565b600081519050919050565b600081905092915050565b600082825260208201905092915050565b6000612278826122cd565b9150612283836122cd565b92508261ffff0382111561229a5761229961237d565b5b828201905092915050565b60006122b0826122db565b9050919050565b60008115159050919050565b6000819050919050565b600061ffff82169050919050565b600073ffffffffffffffffffffffffffffffffffffffff82169050919050565b6000819050919050565b600060ff82169050919050565b60005b83811015612330578082015181840152602081019050612315565b8381111561233f576000848401525b50505050565b600061235082612361565b9050919050565b6000819050919050565b600061236c826123ac565b9050919050565b6000819050919050565b7f4e487b7100000000000000000000000000000000000000000000000000000000600052601160045260246000fd5b60008160601b9050919050565b6123c2816122a5565b81146123cd57600080fd5b50565b6123d9816122b7565b81146123e457600080fd5b50565b6123f0816122c3565b81146123fb57600080fd5b50565b612407816122cd565b811461241257600080fd5b50565b61241e816122fb565b811461242957600080fd5b50565b61243581612305565b811461244057600080fd5b5056fea2646970667358221220f2fbd6d88733f2fe7f1f06b9ea4e98eaa62bb054477de967ad290f968a09d10464736f6c63430008000033",
  "linkReferences": {},
  "deployedLinkReferences": {}
}