{
  "_format": "hh-sol-artifact-1",
  "contractName": "LighthouseAuction",
  "sourceName": "contracts/LighthouseAuction.sol",
  "abi": [
    {
      "inputs": [
        {
          "internalType": "address",
          "name": "_crowns",
          "type": "address"
        },
        {
          "internalType": "address",
          "name": "tier",
          "type": "address"
        },
        {
          "internalType": "address",
          "name": "submission",
          "type": "address"
        },
        {
          "internalType": "address",
          "name": "prefund",
          "type": "address"
        },
        {
          "internalType": "address",
          "name": "project",
          "type": "address"
        }
      ],
      "stateMutability": "nonpayable",
      "type": "constructor"
    },
    {
      "anonymous": false,
      "inputs": [
        {
          "indexed": true,
          "internalType": "address",
          "name": "previousOwner",
          "type": "address"
        },
        {
          "indexed": true,
          "internalType": "address",
          "name": "newOwner",
          "type": "address"
        }
      ],
      "name": "OwnershipTransferred",
      "type": "event"
    },
    {
      "anonymous": false,
      "inputs": [
        {
          "indexed": true,
          "internalType": "uint256",
          "name": "projectId",
          "type": "uint256"
        },
        {
          "indexed": true,
          "internalType": "address",
          "name": "participant",
          "type": "address"
        },
        {
          "indexed": false,
          "internalType": "uint256",
          "name": "amount",
          "type": "uint256"
        },
        {
          "indexed": false,
          "internalType": "uint256",
          "name": "time",
          "type": "uint256"
        }
      ],
      "name": "Participate",
      "type": "event"
    },
    {
      "inputs": [
        {
          "internalType": "uint256",
          "name": "projectId",
          "type": "uint256"
        },
        {
          "internalType": "address",
          "name": "investor",
          "type": "address"
        }
      ],
      "name": "getSpent",
      "outputs": [
        {
          "internalType": "uint256",
          "name": "",
          "type": "uint256"
        }
      ],
      "stateMutability": "view",
      "type": "function"
    },
    {
      "inputs": [],
      "name": "owner",
      "outputs": [
        {
          "internalType": "address",
          "name": "",
          "type": "address"
        }
      ],
      "stateMutability": "view",
      "type": "function"
    },
    {
      "inputs": [
        {
          "internalType": "uint256",
          "name": "projectId",
          "type": "uint256"
        },
        {
          "internalType": "uint256",
          "name": "amount",
          "type": "uint256"
        },
        {
          "internalType": "uint8",
          "name": "v",
          "type": "uint8"
        },
        {
          "internalType": "bytes32",
          "name": "r",
          "type": "bytes32"
        },
        {
          "internalType": "bytes32",
          "name": "s",
          "type": "bytes32"
        }
      ],
      "name": "participate",
      "outputs": [],
      "stateMutability": "nonpayable",
      "type": "function"
    },
    {
      "inputs": [
        {
          "internalType": "uint256",
          "name": "projectId",
          "type": "uint256"
        },
        {
          "internalType": "address",
          "name": "investor",
          "type": "address"
        }
      ],
      "name": "participated",
      "outputs": [
        {
          "internalType": "bool",
          "name": "",
          "type": "bool"
        }
      ],
      "stateMutability": "view",
      "type": "function"
    },
    {
      "inputs": [],
      "name": "renounceOwnership",
      "outputs": [],
      "stateMutability": "nonpayable",
      "type": "function"
    },
    {
      "inputs": [
        {
          "internalType": "uint256",
          "name": "",
          "type": "uint256"
        },
        {
          "internalType": "address",
          "name": "",
          "type": "address"
        }
      ],
      "name": "spents",
      "outputs": [
        {
          "internalType": "uint256",
          "name": "",
          "type": "uint256"
        }
      ],
      "stateMutability": "view",
      "type": "function"
    },
    {
      "inputs": [
        {
          "internalType": "address",
          "name": "newOwner",
          "type": "address"
        }
      ],
      "name": "transferOwnership",
      "outputs": [],
      "stateMutability": "nonpayable",
      "type": "function"
    }
  ],
  "bytecode": "0x60806040523480156200001157600080fd5b5060405162002092380380620020928339818101604052810190620000379190620005ad565b620000576200004b620004ca60201b60201c565b620004d260201b60201c565b600073ffffffffffffffffffffffffffffffffffffffff168573ffffffffffffffffffffffffffffffffffffffff1614158015620000c25750600073ffffffffffffffffffffffffffffffffffffffff168473ffffffffffffffffffffffffffffffffffffffff1614155b8015620000fc5750600073ffffffffffffffffffffffffffffffffffffffff168273ffffffffffffffffffffffffffffffffffffffff1614155b8015620001365750600073ffffffffffffffffffffffffffffffffffffffff168373ffffffffffffffffffffffffffffffffffffffff1614155b8015620001705750600073ffffffffffffffffffffffffffffffffffffffff168173ffffffffffffffffffffffffffffffffffffffff1614155b620001b2576040517f08c379a0000000000000000000000000000000000000000000000000000000008152600401620001a990620006d5565b60405180910390fd5b8173ffffffffffffffffffffffffffffffffffffffff168473ffffffffffffffffffffffffffffffffffffffff16141562000224576040517f08c379a00000000000000000000000000000000000000000000000000000000081526004016200021b90620006b3565b60405180910390fd5b8473ffffffffffffffffffffffffffffffffffffffff168473ffffffffffffffffffffffffffffffffffffffff16141562000296576040517f08c379a00000000000000000000000000000000000000000000000000000000081526004016200028d90620006b3565b60405180910390fd5b8273ffffffffffffffffffffffffffffffffffffffff168473ffffffffffffffffffffffffffffffffffffffff16141562000308576040517f08c379a0000000000000000000000000000000000000000000000000000000008152600401620002ff90620006b3565b60405180910390fd5b8073ffffffffffffffffffffffffffffffffffffffff168473ffffffffffffffffffffffffffffffffffffffff1614156200037a576040517f08c379a00000000000000000000000000000000000000000000000000000000081526004016200037190620006b3565b60405180910390fd5b83600160006101000a81548173ffffffffffffffffffffffffffffffffffffffff021916908373ffffffffffffffffffffffffffffffffffffffff16021790555082600260006101000a81548173ffffffffffffffffffffffffffffffffffffffff021916908373ffffffffffffffffffffffffffffffffffffffff16021790555081600360006101000a81548173ffffffffffffffffffffffffffffffffffffffff021916908373ffffffffffffffffffffffffffffffffffffffff16021790555080600460006101000a81548173ffffffffffffffffffffffffffffffffffffffff021916908373ffffffffffffffffffffffffffffffffffffffff16021790555084600560006101000a81548173ffffffffffffffffffffffffffffffffffffffff021916908373ffffffffffffffffffffffffffffffffffffffff160217905550505050505062000756565b600033905090565b60008060009054906101000a900473ffffffffffffffffffffffffffffffffffffffff169050816000806101000a81548173ffffffffffffffffffffffffffffffffffffffff021916908373ffffffffffffffffffffffffffffffffffffffff1602179055508173ffffffffffffffffffffffffffffffffffffffff168173ffffffffffffffffffffffffffffffffffffffff167f8be0079c531659141344cd1fd0a4f28419497f9722a3daafe3b4186f6b6457e060405160405180910390a35050565b600081519050620005a7816200073c565b92915050565b600080600080600060a08688031215620005c657600080fd5b6000620005d68882890162000596565b9550506020620005e98882890162000596565b9450506040620005fc8882890162000596565b93505060606200060f8882890162000596565b9250506080620006228882890162000596565b9150509295509295909350565b60006200063e601883620006f7565b91507f4c69676874686f7573653a2053414d455f4144445245535300000000000000006000830152602082019050919050565b600062000680601883620006f7565b91507f4c69676874686f7573653a205a45524f5f4144445245535300000000000000006000830152602082019050919050565b60006020820190508181036000830152620006ce816200062f565b9050919050565b60006020820190508181036000830152620006f08162000671565b9050919050565b600082825260208201905092915050565b600062000715826200071c565b9050919050565b600073ffffffffffffffffffffffffffffffffffffffff82169050919050565b620007478162000708565b81146200075357600080fd5b50565b61192c80620007666000396000f3fe608060405234801561001057600080fd5b506004361061007d5760003560e01c8063e7481fb31161005b578063e7481fb3146100da578063f2fde38b1461010a578063f301886314610126578063f8536b94146101425761007d565b8063715018a6146100825780638da5cb5b1461008c5780639eefc7b1146100aa575b600080fd5b61008a610172565b005b6100946101fa565b6040516100a191906114f4565b60405180910390f35b6100c460048036038101906100bf9190610f6d565b610223565b6040516100d19190611718565b60405180910390f35b6100f460048036038101906100ef9190610f6d565b61027e565b6040516101019190611718565b60405180910390f35b610124600480360381019061011f9190610ef2565b6102a3565b005b610140600480360381019061013b9190610fe5565b61039b565b005b61015c60048036038101906101579190610f6d565b610d36565b6040516101699190611538565b60405180910390f35b61017a610d93565b73ffffffffffffffffffffffffffffffffffffffff166101986101fa565b73ffffffffffffffffffffffffffffffffffffffff16146101ee576040517f08c379a00000000000000000000000000000000000000000000000000000000081526004016101e590611658565b60405180910390fd5b6101f86000610d9b565b565b60008060009054906101000a900473ffffffffffffffffffffffffffffffffffffffff16905090565b60006006600084815260200190815260200160002060008373ffffffffffffffffffffffffffffffffffffffff1673ffffffffffffffffffffffffffffffffffffffff16815260200190815260200160002054905092915050565b6006602052816000526040600020602052806000526040600020600091509150505481565b6102ab610d93565b73ffffffffffffffffffffffffffffffffffffffff166102c96101fa565b73ffffffffffffffffffffffffffffffffffffffff161461031f576040517f08c379a000000000000000000000000000000000000000000000000000000000815260040161031690611658565b60405180910390fd5b600073ffffffffffffffffffffffffffffffffffffffff168173ffffffffffffffffffffffffffffffffffffffff16141561038f576040517f08c379a000000000000000000000000000000000000000000000000000000000815260040161038690611598565b60405180910390fd5b61039881610d9b565b50565b600460009054906101000a900473ffffffffffffffffffffffffffffffffffffffff1673ffffffffffffffffffffffffffffffffffffffff166364507efc866040518263ffffffff1660e01b81526004016103f69190611718565b60206040518083038186803b15801561040e57600080fd5b505afa158015610422573d6000803e3d6000fd5b505050506040513d601f19601f820116820180604052508101906104469190610f44565b610485576040517f08c379a000000000000000000000000000000000000000000000000000000000815260040161047c90611698565b60405180910390fd5b600460009054906101000a900473ffffffffffffffffffffffffffffffffffffffff1673ffffffffffffffffffffffffffffffffffffffff1663b22e912b866040518263ffffffff1660e01b81526004016104e09190611718565b60206040518083038186803b1580156104f857600080fd5b505afa15801561050c573d6000803e3d6000fd5b505050506040513d601f19601f820116820180604052508101906105309190610f44565b61056f576040517f08c379a0000000000000000000000000000000000000000000000000000000008152600401610566906116b8565b60405180910390fd5b6105798533610d36565b156105b9576040517f08c379a00000000000000000000000000000000000000000000000000000000081526004016105b0906115b8565b60405180910390fd5b600080600460009054906101000a900473ffffffffffffffffffffffffffffffffffffffff1673ffffffffffffffffffffffffffffffffffffffff166324d2cb17886040518263ffffffff1660e01b81526004016106179190611718565b604080518083038186803b15801561062e57600080fd5b505afa158015610642573d6000803e3d6000fd5b505050506040513d601f19601f820116820180604052508101906106669190610fa9565b8092508193505050814210156106b1576040517f08c379a00000000000000000000000000000000000000000000000000000000081526004016106a890611618565b60405180910390fd5b804211156106f4576040517f08c379a00000000000000000000000000000000000000000000000000000000081526004016106eb906116f8565b60405180910390fd5b5050600260009054906101000a900473ffffffffffffffffffffffffffffffffffffffff1673ffffffffffffffffffffffffffffffffffffffff16638c817b6e86336040518363ffffffff1660e01b8152600401610753929190611733565b60206040518083038186803b15801561076b57600080fd5b505afa15801561077f573d6000803e3d6000fd5b505050506040513d601f19601f820116820180604052508101906107a39190610f44565b6107e2576040517f08c379a00000000000000000000000000000000000000000000000000000000081526004016107d9906115d8565b60405180910390fd5b600360009054906101000a900473ffffffffffffffffffffffffffffffffffffffff1673ffffffffffffffffffffffffffffffffffffffff166302deed0386336040518363ffffffff1660e01b815260040161083f929190611733565b60206040518083038186803b15801561085757600080fd5b505afa15801561086b573d6000803e3d6000fd5b505050506040513d601f19601f8201168201806040525081019061088f9190610f44565b156108cf576040517f08c379a00000000000000000000000000000000000000000000000000000000081526004016108c690611638565b60405180910390fd5b60008411610912576040517f08c379a000000000000000000000000000000000000000000000000000000000815260040161090990611678565b60405180910390fd5b60006040518060400160405280601c81526020017f19457468657265756d205369676e6564204d6573736167653a0a333200000000815250905060003387876040516020016109639392919061148f565b604051602081830303815290604052805190602001209050600082826040516020016109909291906114cc565b6040516020818303038152906040528051906020012090506000600182888888604051600081526020016040526040516109cd9493929190611553565b6020604051602081039080840390855afa1580156109ef573d6000803e3d6000fd5b505050602060405103519050600460009054906101000a900473ffffffffffffffffffffffffffffffffffffffff1673ffffffffffffffffffffffffffffffffffffffff1663b60da0856040518163ffffffff1660e01b815260040160206040518083038186803b158015610a6357600080fd5b505afa158015610a77573d6000803e3d6000fd5b505050506040513d601f19601f82011682018060405250810190610a9b9190610f1b565b73ffffffffffffffffffffffffffffffffffffffff168173ffffffffffffffffffffffffffffffffffffffff1614610b08576040517f08c379a0000000000000000000000000000000000000000000000000000000008152600401610aff906115f8565b60405180910390fd5b600560009054906101000a900473ffffffffffffffffffffffffffffffffffffffff1673ffffffffffffffffffffffffffffffffffffffff16636aade288338a6040518363ffffffff1660e01b8152600401610b6592919061150f565b602060405180830381600087803b158015610b7f57600080fd5b505af1158015610b93573d6000803e3d6000fd5b505050506040513d601f19601f82011682018060405250810190610bb79190610f44565b610bf6576040517f08c379a0000000000000000000000000000000000000000000000000000000008152600401610bed906116d8565b60405180910390fd5b600460009054906101000a900473ffffffffffffffffffffffffffffffffffffffff1673ffffffffffffffffffffffffffffffffffffffff166341e0f1b18a8a6040518363ffffffff1660e01b8152600401610c5392919061175c565b600060405180830381600087803b158015610c6d57600080fd5b505af1158015610c81573d6000803e3d6000fd5b5050505087600660008b815260200190815260200160002060003373ffffffffffffffffffffffffffffffffffffffff1673ffffffffffffffffffffffffffffffffffffffff168152602001908152602001600020819055503373ffffffffffffffffffffffffffffffffffffffff16897f0c084a98097a12b06afc1944617ea8d4b2efde50755080245bd7c9019cfb539d8a42604051610d2392919061175c565b60405180910390a3505050505050505050565b6000806006600085815260200190815260200160002060008473ffffffffffffffffffffffffffffffffffffffff1673ffffffffffffffffffffffffffffffffffffffff1681526020019081526020016000205411905092915050565b600033905090565b60008060009054906101000a900473ffffffffffffffffffffffffffffffffffffffff169050816000806101000a81548173ffffffffffffffffffffffffffffffffffffffff021916908373ffffffffffffffffffffffffffffffffffffffff1602179055508173ffffffffffffffffffffffffffffffffffffffff168173ffffffffffffffffffffffffffffffffffffffff167f8be0079c531659141344cd1fd0a4f28419497f9722a3daafe3b4186f6b6457e060405160405180910390a35050565b600081359050610e6e81611883565b92915050565b600081519050610e8381611883565b92915050565b600081519050610e988161189a565b92915050565b600081359050610ead816118b1565b92915050565b600081359050610ec2816118c8565b92915050565b600081519050610ed7816118c8565b92915050565b600081359050610eec816118df565b92915050565b600060208284031215610f0457600080fd5b6000610f1284828501610e5f565b91505092915050565b600060208284031215610f2d57600080fd5b6000610f3b84828501610e74565b91505092915050565b600060208284031215610f5657600080fd5b6000610f6484828501610e89565b91505092915050565b60008060408385031215610f8057600080fd5b6000610f8e85828601610eb3565b9250506020610f9f85828601610e5f565b9150509250929050565b60008060408385031215610fbc57600080fd5b6000610fca85828601610ec8565b9250506020610fdb85828601610ec8565b9150509250929050565b600080600080600060a08688031215610ffd57600080fd5b600061100b88828901610eb3565b955050602061101c88828901610eb3565b945050604061102d88828901610edd565b935050606061103e88828901610e9e565b925050608061104f88828901610e9e565b9150509295509295909350565b611065816117ac565b82525050565b61107c611077826117ac565b61183e565b82525050565b61108b816117be565b82525050565b61109a816117ca565b82525050565b6110b16110ac826117ca565b611850565b82525050565b60006110c282611785565b6110cc8185611790565b93506110dc81856020860161180b565b80840191505092915050565b60006110f560268361179b565b91507f4f776e61626c653a206e6577206f776e657220697320746865207a65726f206160008301527f64647265737300000000000000000000000000000000000000000000000000006020830152604082019050919050565b600061115b60208361179b565b91507f4c69676874686f7573653a20414c52454144595f5041525449434950415445446000830152602082019050919050565b600061119b601a8361179b565b91507f4c69676874686f7573653a204e4f545f524547495354455245440000000000006000830152602082019050919050565b60006111db600f8361179b565b91507f4c69676874686f7573653a2053494700000000000000000000000000000000006000830152602082019050919050565b600061121b601b8361179b565b91507f4c69676874686f7573653a204e4f545f535441525445445f59455400000000006000830152602082019050919050565b600061125b60158361179b565b91507f4c69676874686f7573653a2050524546554e44454400000000000000000000006000830152602082019050919050565b600061129b60208361179b565b91507f4f776e61626c653a2063616c6c6572206973206e6f7420746865206f776e65726000830152602082019050919050565b60006112db60168361179b565b91507f4c69676874686f7573653a205a45524f5f56414c5545000000000000000000006000830152602082019050919050565b600061131b60238361179b565b91507f4c69676874686f7573653a2041554354494f4e5f4e4f545f494e495449414c4960008301527f5a454400000000000000000000000000000000000000000000000000000000006020830152604082019050919050565b600061138160278361179b565b91507f4c69676874686f7573653a204e4f545f5452414e534645525245445f5052454660008301527f554e445f594554000000000000000000000000000000000000000000000000006020830152604082019050919050565b60006113e760178361179b565b91507f4c69676874686f7573653a204357535f554e5350454e440000000000000000006000830152602082019050919050565b600061142760148361179b565b91507f4c69676874686f7573653a2046494e49534845440000000000000000000000006000830152602082019050919050565b611463816117f4565b82525050565b61147a611475826117f4565b61186c565b82525050565b611489816117fe565b82525050565b600061149b828661106b565b6014820191506114ab8285611469565b6020820191506114bb8284611469565b602082019150819050949350505050565b60006114d882856110b7565b91506114e482846110a0565b6020820191508190509392505050565b6000602082019050611509600083018461105c565b92915050565b6000604082019050611524600083018561105c565b611531602083018461145a565b9392505050565b600060208201905061154d6000830184611082565b92915050565b60006080820190506115686000830187611091565b6115756020830186611480565b6115826040830185611091565b61158f6060830184611091565b95945050505050565b600060208201905081810360008301526115b1816110e8565b9050919050565b600060208201905081810360008301526115d18161114e565b9050919050565b600060208201905081810360008301526115f18161118e565b9050919050565b60006020820190508181036000830152611611816111ce565b9050919050565b600060208201905081810360008301526116318161120e565b9050919050565b600060208201905081810360008301526116518161124e565b9050919050565b600060208201905081810360008301526116718161128e565b9050919050565b60006020820190508181036000830152611691816112ce565b9050919050565b600060208201905081810360008301526116b18161130e565b9050919050565b600060208201905081810360008301526116d181611374565b9050919050565b600060208201905081810360008301526116f1816113da565b9050919050565b600060208201905081810360008301526117118161141a565b9050919050565b600060208201905061172d600083018461145a565b92915050565b6000604082019050611748600083018561145a565b611755602083018461105c565b9392505050565b6000604082019050611771600083018561145a565b61177e602083018461145a565b9392505050565b600081519050919050565b600081905092915050565b600082825260208201905092915050565b60006117b7826117d4565b9050919050565b60008115159050919050565b6000819050919050565b600073ffffffffffffffffffffffffffffffffffffffff82169050919050565b6000819050919050565b600060ff82169050919050565b60005b8381101561182957808201518184015260208101905061180e565b83811115611838576000848401525b50505050565b60006118498261185a565b9050919050565b6000819050919050565b600061186582611876565b9050919050565b6000819050919050565b60008160601b9050919050565b61188c816117ac565b811461189757600080fd5b50565b6118a3816117be565b81146118ae57600080fd5b50565b6118ba816117ca565b81146118c557600080fd5b50565b6118d1816117f4565b81146118dc57600080fd5b50565b6118e8816117fe565b81146118f357600080fd5b5056fea26469706673582212200fa5c8b56c2fa96b851c3f5cb975b75762414365b99346c8875823b7e3eee5b164736f6c63430008000033",
  "linkReferences": {},
  "deployedLinkReferences": {}
}