{
  "_format": "hh-sol-artifact-1",
  "contractName": "LighthouseAuction",
  "sourceName": "contracts/LighthouseAuction.sol",
  "abi": [
    {
      "inputs": [
        {
          "internalType": "address",
          "name": "_crowns",
          "type": "address"
        },
        {
          "internalType": "address",
          "name": "tier",
          "type": "address"
        },
        {
          "internalType": "address",
          "name": "submission",
          "type": "address"
        },
        {
          "internalType": "address",
          "name": "prefund",
          "type": "address"
        },
        {
          "internalType": "address",
          "name": "project",
          "type": "address"
        }
      ],
      "stateMutability": "nonpayable",
      "type": "constructor"
    },
    {
      "anonymous": false,
      "inputs": [
        {
          "indexed": true,
          "internalType": "address",
          "name": "previousOwner",
          "type": "address"
        },
        {
          "indexed": true,
          "internalType": "address",
          "name": "newOwner",
          "type": "address"
        }
      ],
      "name": "OwnershipTransferred",
      "type": "event"
    },
    {
      "anonymous": false,
      "inputs": [
        {
          "indexed": true,
          "internalType": "uint256",
          "name": "projectId",
          "type": "uint256"
        },
        {
          "indexed": true,
          "internalType": "address",
          "name": "participant",
          "type": "address"
        },
        {
          "indexed": false,
          "internalType": "uint256",
          "name": "amount",
          "type": "uint256"
        },
        {
          "indexed": false,
          "internalType": "uint256",
          "name": "time",
          "type": "uint256"
        }
      ],
      "name": "Participate",
      "type": "event"
    },
    {
      "inputs": [
        {
          "internalType": "uint256",
          "name": "projectId",
          "type": "uint256"
        },
        {
          "internalType": "address",
          "name": "investor",
          "type": "address"
        }
      ],
      "name": "getSpent",
      "outputs": [
        {
          "internalType": "uint256",
          "name": "",
          "type": "uint256"
        }
      ],
      "stateMutability": "view",
      "type": "function"
    },
    {
      "inputs": [],
      "name": "owner",
      "outputs": [
        {
          "internalType": "address",
          "name": "",
          "type": "address"
        }
      ],
      "stateMutability": "view",
      "type": "function"
    },
    {
      "inputs": [
        {
          "internalType": "uint256",
          "name": "projectId",
          "type": "uint256"
        },
        {
          "internalType": "uint256",
          "name": "amount",
          "type": "uint256"
        },
        {
          "internalType": "uint8",
          "name": "v",
          "type": "uint8"
        },
        {
          "internalType": "bytes32",
          "name": "r",
          "type": "bytes32"
        },
        {
          "internalType": "bytes32",
          "name": "s",
          "type": "bytes32"
        }
      ],
      "name": "participate",
      "outputs": [],
      "stateMutability": "nonpayable",
      "type": "function"
    },
    {
      "inputs": [
        {
          "internalType": "uint256",
          "name": "projectId",
          "type": "uint256"
        },
        {
          "internalType": "address",
          "name": "investor",
          "type": "address"
        }
      ],
      "name": "participated",
      "outputs": [
        {
          "internalType": "bool",
          "name": "",
          "type": "bool"
        }
      ],
      "stateMutability": "view",
      "type": "function"
    },
    {
      "inputs": [],
      "name": "renounceOwnership",
      "outputs": [],
      "stateMutability": "nonpayable",
      "type": "function"
    },
    {
      "inputs": [
        {
          "internalType": "uint256",
          "name": "",
          "type": "uint256"
        },
        {
          "internalType": "address",
          "name": "",
          "type": "address"
        }
      ],
      "name": "spents",
      "outputs": [
        {
          "internalType": "uint256",
          "name": "",
          "type": "uint256"
        }
      ],
      "stateMutability": "view",
      "type": "function"
    },
    {
      "inputs": [
        {
          "internalType": "address",
          "name": "newOwner",
          "type": "address"
        }
      ],
      "name": "transferOwnership",
      "outputs": [],
      "stateMutability": "nonpayable",
      "type": "function"
    }
  ],
  "bytecode": "0x60806040523480156200001157600080fd5b5060405162001f2238038062001f228339818101604052810190620000379190620005ad565b620000576200004b620004ca60201b60201c565b620004d260201b60201c565b600073ffffffffffffffffffffffffffffffffffffffff168573ffffffffffffffffffffffffffffffffffffffff1614158015620000c25750600073ffffffffffffffffffffffffffffffffffffffff168473ffffffffffffffffffffffffffffffffffffffff1614155b8015620000fc5750600073ffffffffffffffffffffffffffffffffffffffff168273ffffffffffffffffffffffffffffffffffffffff1614155b8015620001365750600073ffffffffffffffffffffffffffffffffffffffff168373ffffffffffffffffffffffffffffffffffffffff1614155b8015620001705750600073ffffffffffffffffffffffffffffffffffffffff168173ffffffffffffffffffffffffffffffffffffffff1614155b620001b2576040517f08c379a0000000000000000000000000000000000000000000000000000000008152600401620001a990620006d5565b60405180910390fd5b8173ffffffffffffffffffffffffffffffffffffffff168473ffffffffffffffffffffffffffffffffffffffff16141562000224576040517f08c379a00000000000000000000000000000000000000000000000000000000081526004016200021b90620006b3565b60405180910390fd5b8473ffffffffffffffffffffffffffffffffffffffff168473ffffffffffffffffffffffffffffffffffffffff16141562000296576040517f08c379a00000000000000000000000000000000000000000000000000000000081526004016200028d90620006b3565b60405180910390fd5b8273ffffffffffffffffffffffffffffffffffffffff168473ffffffffffffffffffffffffffffffffffffffff16141562000308576040517f08c379a0000000000000000000000000000000000000000000000000000000008152600401620002ff90620006b3565b60405180910390fd5b8073ffffffffffffffffffffffffffffffffffffffff168473ffffffffffffffffffffffffffffffffffffffff1614156200037a576040517f08c379a00000000000000000000000000000000000000000000000000000000081526004016200037190620006b3565b60405180910390fd5b83600160006101000a81548173ffffffffffffffffffffffffffffffffffffffff021916908373ffffffffffffffffffffffffffffffffffffffff16021790555082600260006101000a81548173ffffffffffffffffffffffffffffffffffffffff021916908373ffffffffffffffffffffffffffffffffffffffff16021790555081600360006101000a81548173ffffffffffffffffffffffffffffffffffffffff021916908373ffffffffffffffffffffffffffffffffffffffff16021790555080600460006101000a81548173ffffffffffffffffffffffffffffffffffffffff021916908373ffffffffffffffffffffffffffffffffffffffff16021790555084600560006101000a81548173ffffffffffffffffffffffffffffffffffffffff021916908373ffffffffffffffffffffffffffffffffffffffff160217905550505050505062000756565b600033905090565b60008060009054906101000a900473ffffffffffffffffffffffffffffffffffffffff169050816000806101000a81548173ffffffffffffffffffffffffffffffffffffffff021916908373ffffffffffffffffffffffffffffffffffffffff1602179055508173ffffffffffffffffffffffffffffffffffffffff168173ffffffffffffffffffffffffffffffffffffffff167f8be0079c531659141344cd1fd0a4f28419497f9722a3daafe3b4186f6b6457e060405160405180910390a35050565b600081519050620005a7816200073c565b92915050565b600080600080600060a08688031215620005c657600080fd5b6000620005d68882890162000596565b9550506020620005e98882890162000596565b9450506040620005fc8882890162000596565b93505060606200060f8882890162000596565b9250506080620006228882890162000596565b9150509295509295909350565b60006200063e601883620006f7565b91507f4c69676874686f7573653a2053414d455f4144445245535300000000000000006000830152602082019050919050565b600062000680601883620006f7565b91507f4c69676874686f7573653a205a45524f5f4144445245535300000000000000006000830152602082019050919050565b60006020820190508181036000830152620006ce816200062f565b9050919050565b60006020820190508181036000830152620006f08162000671565b9050919050565b600082825260208201905092915050565b600062000715826200071c565b9050919050565b600073ffffffffffffffffffffffffffffffffffffffff82169050919050565b620007478162000708565b81146200075357600080fd5b50565b6117bc80620007666000396000f3fe608060405234801561001057600080fd5b506004361061007d5760003560e01c8063e7481fb31161005b578063e7481fb3146100da578063f2fde38b1461010a578063f301886314610126578063f8536b94146101425761007d565b8063715018a6146100825780638da5cb5b1461008c5780639eefc7b1146100aa575b600080fd5b61008a610172565b005b6100946101fa565b6040516100a191906113a4565b60405180910390f35b6100c460048036038101906100bf9190610e83565b610223565b6040516100d191906115a8565b60405180910390f35b6100f460048036038101906100ef9190610e83565b61027e565b60405161010191906115a8565b60405180910390f35b610124600480360381019061011f9190610e08565b6102a3565b005b610140600480360381019061013b9190610efb565b61039b565b005b61015c60048036038101906101579190610e83565b610c4c565b60405161016991906113e8565b60405180910390f35b61017a610ca9565b73ffffffffffffffffffffffffffffffffffffffff166101986101fa565b73ffffffffffffffffffffffffffffffffffffffff16146101ee576040517f08c379a00000000000000000000000000000000000000000000000000000000081526004016101e590611508565b60405180910390fd5b6101f86000610cb1565b565b60008060009054906101000a900473ffffffffffffffffffffffffffffffffffffffff16905090565b60006006600084815260200190815260200160002060008373ffffffffffffffffffffffffffffffffffffffff1673ffffffffffffffffffffffffffffffffffffffff16815260200190815260200160002054905092915050565b6006602052816000526040600020602052806000526040600020600091509150505481565b6102ab610ca9565b73ffffffffffffffffffffffffffffffffffffffff166102c96101fa565b73ffffffffffffffffffffffffffffffffffffffff161461031f576040517f08c379a000000000000000000000000000000000000000000000000000000000815260040161031690611508565b60405180910390fd5b600073ffffffffffffffffffffffffffffffffffffffff168173ffffffffffffffffffffffffffffffffffffffff16141561038f576040517f08c379a000000000000000000000000000000000000000000000000000000000815260040161038690611448565b60405180910390fd5b61039881610cb1565b50565b600460009054906101000a900473ffffffffffffffffffffffffffffffffffffffff1673ffffffffffffffffffffffffffffffffffffffff166364507efc866040518263ffffffff1660e01b81526004016103f691906115a8565b60206040518083038186803b15801561040e57600080fd5b505afa158015610422573d6000803e3d6000fd5b505050506040513d601f19601f820116820180604052508101906104469190610e5a565b610485576040517f08c379a000000000000000000000000000000000000000000000000000000000815260040161047c90611548565b60405180910390fd5b61048f8533610c4c565b156104cf576040517f08c379a00000000000000000000000000000000000000000000000000000000081526004016104c690611468565b60405180910390fd5b600080600460009054906101000a900473ffffffffffffffffffffffffffffffffffffffff1673ffffffffffffffffffffffffffffffffffffffff166324d2cb17886040518263ffffffff1660e01b815260040161052d91906115a8565b604080518083038186803b15801561054457600080fd5b505afa158015610558573d6000803e3d6000fd5b505050506040513d601f19601f8201168201806040525081019061057c9190610ebf565b8092508193505050814210156105c7576040517f08c379a00000000000000000000000000000000000000000000000000000000081526004016105be906114c8565b60405180910390fd5b8042111561060a576040517f08c379a000000000000000000000000000000000000000000000000000000000815260040161060190611588565b60405180910390fd5b5050600260009054906101000a900473ffffffffffffffffffffffffffffffffffffffff1673ffffffffffffffffffffffffffffffffffffffff16638c817b6e86336040518363ffffffff1660e01b81526004016106699291906115c3565b60206040518083038186803b15801561068157600080fd5b505afa158015610695573d6000803e3d6000fd5b505050506040513d601f19601f820116820180604052508101906106b99190610e5a565b6106f8576040517f08c379a00000000000000000000000000000000000000000000000000000000081526004016106ef90611488565b60405180910390fd5b600360009054906101000a900473ffffffffffffffffffffffffffffffffffffffff1673ffffffffffffffffffffffffffffffffffffffff166302deed0386336040518363ffffffff1660e01b81526004016107559291906115c3565b60206040518083038186803b15801561076d57600080fd5b505afa158015610781573d6000803e3d6000fd5b505050506040513d601f19601f820116820180604052508101906107a59190610e5a565b156107e5576040517f08c379a00000000000000000000000000000000000000000000000000000000081526004016107dc906114e8565b60405180910390fd5b60008411610828576040517f08c379a000000000000000000000000000000000000000000000000000000000815260040161081f90611528565b60405180910390fd5b60006040518060400160405280601c81526020017f19457468657265756d205369676e6564204d6573736167653a0a333200000000815250905060003387876040516020016108799392919061133f565b604051602081830303815290604052805190602001209050600082826040516020016108a692919061137c565b6040516020818303038152906040528051906020012090506000600182888888604051600081526020016040526040516108e39493929190611403565b6020604051602081039080840390855afa158015610905573d6000803e3d6000fd5b505050602060405103519050600460009054906101000a900473ffffffffffffffffffffffffffffffffffffffff1673ffffffffffffffffffffffffffffffffffffffff1663b60da0856040518163ffffffff1660e01b815260040160206040518083038186803b15801561097957600080fd5b505afa15801561098d573d6000803e3d6000fd5b505050506040513d601f19601f820116820180604052508101906109b19190610e31565b73ffffffffffffffffffffffffffffffffffffffff168173ffffffffffffffffffffffffffffffffffffffff1614610a1e576040517f08c379a0000000000000000000000000000000000000000000000000000000008152600401610a15906114a8565b60405180910390fd5b600560009054906101000a900473ffffffffffffffffffffffffffffffffffffffff1673ffffffffffffffffffffffffffffffffffffffff16636aade288338a6040518363ffffffff1660e01b8152600401610a7b9291906113bf565b602060405180830381600087803b158015610a9557600080fd5b505af1158015610aa9573d6000803e3d6000fd5b505050506040513d601f19601f82011682018060405250810190610acd9190610e5a565b610b0c576040517f08c379a0000000000000000000000000000000000000000000000000000000008152600401610b0390611568565b60405180910390fd5b600460009054906101000a900473ffffffffffffffffffffffffffffffffffffffff1673ffffffffffffffffffffffffffffffffffffffff166341e0f1b18a8a6040518363ffffffff1660e01b8152600401610b699291906115ec565b600060405180830381600087803b158015610b8357600080fd5b505af1158015610b97573d6000803e3d6000fd5b5050505087600660008b815260200190815260200160002060003373ffffffffffffffffffffffffffffffffffffffff1673ffffffffffffffffffffffffffffffffffffffff168152602001908152602001600020819055503373ffffffffffffffffffffffffffffffffffffffff16897f0c084a98097a12b06afc1944617ea8d4b2efde50755080245bd7c9019cfb539d8a42604051610c399291906115ec565b60405180910390a3505050505050505050565b6000806006600085815260200190815260200160002060008473ffffffffffffffffffffffffffffffffffffffff1673ffffffffffffffffffffffffffffffffffffffff1681526020019081526020016000205411905092915050565b600033905090565b60008060009054906101000a900473ffffffffffffffffffffffffffffffffffffffff169050816000806101000a81548173ffffffffffffffffffffffffffffffffffffffff021916908373ffffffffffffffffffffffffffffffffffffffff1602179055508173ffffffffffffffffffffffffffffffffffffffff168173ffffffffffffffffffffffffffffffffffffffff167f8be0079c531659141344cd1fd0a4f28419497f9722a3daafe3b4186f6b6457e060405160405180910390a35050565b600081359050610d8481611713565b92915050565b600081519050610d9981611713565b92915050565b600081519050610dae8161172a565b92915050565b600081359050610dc381611741565b92915050565b600081359050610dd881611758565b92915050565b600081519050610ded81611758565b92915050565b600081359050610e028161176f565b92915050565b600060208284031215610e1a57600080fd5b6000610e2884828501610d75565b91505092915050565b600060208284031215610e4357600080fd5b6000610e5184828501610d8a565b91505092915050565b600060208284031215610e6c57600080fd5b6000610e7a84828501610d9f565b91505092915050565b60008060408385031215610e9657600080fd5b6000610ea485828601610dc9565b9250506020610eb585828601610d75565b9150509250929050565b60008060408385031215610ed257600080fd5b6000610ee085828601610dde565b9250506020610ef185828601610dde565b9150509250929050565b600080600080600060a08688031215610f1357600080fd5b6000610f2188828901610dc9565b9550506020610f3288828901610dc9565b9450506040610f4388828901610df3565b9350506060610f5488828901610db4565b9250506080610f6588828901610db4565b9150509295509295909350565b610f7b8161163c565b82525050565b610f92610f8d8261163c565b6116ce565b82525050565b610fa18161164e565b82525050565b610fb08161165a565b82525050565b610fc7610fc28261165a565b6116e0565b82525050565b6000610fd882611615565b610fe28185611620565b9350610ff281856020860161169b565b80840191505092915050565b600061100b60268361162b565b91507f4f776e61626c653a206e6577206f776e657220697320746865207a65726f206160008301527f64647265737300000000000000000000000000000000000000000000000000006020830152604082019050919050565b600061107160208361162b565b91507f4c69676874686f7573653a20414c52454144595f5041525449434950415445446000830152602082019050919050565b60006110b1601a8361162b565b91507f4c69676874686f7573653a204e4f545f524547495354455245440000000000006000830152602082019050919050565b60006110f1600f8361162b565b91507f4c69676874686f7573653a2053494700000000000000000000000000000000006000830152602082019050919050565b6000611131601b8361162b565b91507f4c69676874686f7573653a204e4f545f535441525445445f59455400000000006000830152602082019050919050565b600061117160158361162b565b91507f4c69676874686f7573653a2050524546554e44454400000000000000000000006000830152602082019050919050565b60006111b160208361162b565b91507f4f776e61626c653a2063616c6c6572206973206e6f7420746865206f776e65726000830152602082019050919050565b60006111f160168361162b565b91507f4c69676874686f7573653a205a45524f5f56414c5545000000000000000000006000830152602082019050919050565b600061123160238361162b565b91507f4c69676874686f7573653a2041554354494f4e5f4e4f545f494e495449414c4960008301527f5a454400000000000000000000000000000000000000000000000000000000006020830152604082019050919050565b600061129760178361162b565b91507f4c69676874686f7573653a204357535f554e5350454e440000000000000000006000830152602082019050919050565b60006112d760148361162b565b91507f4c69676874686f7573653a2046494e49534845440000000000000000000000006000830152602082019050919050565b61131381611684565b82525050565b61132a61132582611684565b6116fc565b82525050565b6113398161168e565b82525050565b600061134b8286610f81565b60148201915061135b8285611319565b60208201915061136b8284611319565b602082019150819050949350505050565b60006113888285610fcd565b91506113948284610fb6565b6020820191508190509392505050565b60006020820190506113b96000830184610f72565b92915050565b60006040820190506113d46000830185610f72565b6113e1602083018461130a565b9392505050565b60006020820190506113fd6000830184610f98565b92915050565b60006080820190506114186000830187610fa7565b6114256020830186611330565b6114326040830185610fa7565b61143f6060830184610fa7565b95945050505050565b6000602082019050818103600083015261146181610ffe565b9050919050565b6000602082019050818103600083015261148181611064565b9050919050565b600060208201905081810360008301526114a1816110a4565b9050919050565b600060208201905081810360008301526114c1816110e4565b9050919050565b600060208201905081810360008301526114e181611124565b9050919050565b6000602082019050818103600083015261150181611164565b9050919050565b60006020820190508181036000830152611521816111a4565b9050919050565b60006020820190508181036000830152611541816111e4565b9050919050565b6000602082019050818103600083015261156181611224565b9050919050565b600060208201905081810360008301526115818161128a565b9050919050565b600060208201905081810360008301526115a1816112ca565b9050919050565b60006020820190506115bd600083018461130a565b92915050565b60006040820190506115d8600083018561130a565b6115e56020830184610f72565b9392505050565b6000604082019050611601600083018561130a565b61160e602083018461130a565b9392505050565b600081519050919050565b600081905092915050565b600082825260208201905092915050565b600061164782611664565b9050919050565b60008115159050919050565b6000819050919050565b600073ffffffffffffffffffffffffffffffffffffffff82169050919050565b6000819050919050565b600060ff82169050919050565b60005b838110156116b957808201518184015260208101905061169e565b838111156116c8576000848401525b50505050565b60006116d9826116ea565b9050919050565b6000819050919050565b60006116f582611706565b9050919050565b6000819050919050565b60008160601b9050919050565b61171c8161163c565b811461172757600080fd5b50565b6117338161164e565b811461173e57600080fd5b50565b61174a8161165a565b811461175557600080fd5b50565b61176181611684565b811461176c57600080fd5b50565b6117788161168e565b811461178357600080fd5b5056fea2646970667358221220250415687fb093e0142d3c0c70b9d515f9388444391c6e5e069ed71160e1d57d64736f6c63430008000033",
  "linkReferences": {},
  "deployedLinkReferences": {}
}