{
  "_format": "hh-sol-artifact-1",
  "contractName": "LighthouseAuction",
  "sourceName": "contracts/LighthouseAuction.sol",
  "abi": [
    {
      "inputs": [
        {
          "internalType": "address",
          "name": "_crowns",
          "type": "address"
        },
        {
          "internalType": "address",
          "name": "tier",
          "type": "address"
        },
        {
          "internalType": "address",
          "name": "submission",
          "type": "address"
        },
        {
          "internalType": "address",
          "name": "prefund",
          "type": "address"
        },
        {
          "internalType": "address",
          "name": "project",
          "type": "address"
        }
      ],
      "stateMutability": "nonpayable",
      "type": "constructor"
    },
    {
      "anonymous": false,
      "inputs": [
        {
          "indexed": true,
          "internalType": "address",
          "name": "previousOwner",
          "type": "address"
        },
        {
          "indexed": true,
          "internalType": "address",
          "name": "newOwner",
          "type": "address"
        }
      ],
      "name": "OwnershipTransferred",
      "type": "event"
    },
    {
      "anonymous": false,
      "inputs": [
        {
          "indexed": true,
          "internalType": "uint256",
          "name": "projectId",
          "type": "uint256"
        },
        {
          "indexed": true,
          "internalType": "address",
          "name": "participant",
          "type": "address"
        },
        {
          "indexed": false,
          "internalType": "uint256",
          "name": "amount",
          "type": "uint256"
        },
        {
          "indexed": false,
          "internalType": "uint256",
          "name": "time",
          "type": "uint256"
        }
      ],
      "name": "Participate",
      "type": "event"
    },
    {
      "inputs": [
        {
          "internalType": "uint256",
          "name": "projectId",
          "type": "uint256"
        },
        {
          "internalType": "address",
          "name": "investor",
          "type": "address"
        }
      ],
      "name": "getSpent",
      "outputs": [
        {
          "internalType": "uint256",
          "name": "",
          "type": "uint256"
        }
      ],
      "stateMutability": "view",
      "type": "function"
    },
    {
      "inputs": [],
      "name": "owner",
      "outputs": [
        {
          "internalType": "address",
          "name": "",
          "type": "address"
        }
      ],
      "stateMutability": "view",
      "type": "function"
    },
    {
      "inputs": [
        {
          "internalType": "uint256",
          "name": "projectId",
          "type": "uint256"
        },
        {
          "internalType": "uint256",
          "name": "amount",
          "type": "uint256"
        }
      ],
      "name": "participate",
      "outputs": [],
      "stateMutability": "nonpayable",
      "type": "function"
    },
    {
      "inputs": [
        {
          "internalType": "uint256",
          "name": "projectId",
          "type": "uint256"
        },
        {
          "internalType": "address",
          "name": "investor",
          "type": "address"
        }
      ],
      "name": "participated",
      "outputs": [
        {
          "internalType": "bool",
          "name": "",
          "type": "bool"
        }
      ],
      "stateMutability": "view",
      "type": "function"
    },
    {
      "inputs": [],
      "name": "renounceOwnership",
      "outputs": [],
      "stateMutability": "nonpayable",
      "type": "function"
    },
    {
      "inputs": [
        {
          "internalType": "uint256",
          "name": "",
          "type": "uint256"
        },
        {
          "internalType": "address",
          "name": "",
          "type": "address"
        }
      ],
      "name": "spents",
      "outputs": [
        {
          "internalType": "uint256",
          "name": "",
          "type": "uint256"
        }
      ],
      "stateMutability": "view",
      "type": "function"
    },
    {
      "inputs": [
        {
          "internalType": "address",
          "name": "newOwner",
          "type": "address"
        }
      ],
      "name": "transferOwnership",
      "outputs": [],
      "stateMutability": "nonpayable",
      "type": "function"
    }
  ],
  "bytecode": "0x60806040523480156200001157600080fd5b5060405162001a1138038062001a118339818101604052810190620000379190620005ad565b620000576200004b620004ca60201b60201c565b620004d260201b60201c565b600073ffffffffffffffffffffffffffffffffffffffff168573ffffffffffffffffffffffffffffffffffffffff1614158015620000c25750600073ffffffffffffffffffffffffffffffffffffffff168473ffffffffffffffffffffffffffffffffffffffff1614155b8015620000fc5750600073ffffffffffffffffffffffffffffffffffffffff168273ffffffffffffffffffffffffffffffffffffffff1614155b8015620001365750600073ffffffffffffffffffffffffffffffffffffffff168373ffffffffffffffffffffffffffffffffffffffff1614155b8015620001705750600073ffffffffffffffffffffffffffffffffffffffff168173ffffffffffffffffffffffffffffffffffffffff1614155b620001b2576040517f08c379a0000000000000000000000000000000000000000000000000000000008152600401620001a990620006d5565b60405180910390fd5b8173ffffffffffffffffffffffffffffffffffffffff168473ffffffffffffffffffffffffffffffffffffffff16141562000224576040517f08c379a00000000000000000000000000000000000000000000000000000000081526004016200021b90620006b3565b60405180910390fd5b8473ffffffffffffffffffffffffffffffffffffffff168473ffffffffffffffffffffffffffffffffffffffff16141562000296576040517f08c379a00000000000000000000000000000000000000000000000000000000081526004016200028d90620006b3565b60405180910390fd5b8273ffffffffffffffffffffffffffffffffffffffff168473ffffffffffffffffffffffffffffffffffffffff16141562000308576040517f08c379a0000000000000000000000000000000000000000000000000000000008152600401620002ff90620006b3565b60405180910390fd5b8073ffffffffffffffffffffffffffffffffffffffff168473ffffffffffffffffffffffffffffffffffffffff1614156200037a576040517f08c379a00000000000000000000000000000000000000000000000000000000081526004016200037190620006b3565b60405180910390fd5b83600160006101000a81548173ffffffffffffffffffffffffffffffffffffffff021916908373ffffffffffffffffffffffffffffffffffffffff16021790555082600260006101000a81548173ffffffffffffffffffffffffffffffffffffffff021916908373ffffffffffffffffffffffffffffffffffffffff16021790555081600360006101000a81548173ffffffffffffffffffffffffffffffffffffffff021916908373ffffffffffffffffffffffffffffffffffffffff16021790555080600460006101000a81548173ffffffffffffffffffffffffffffffffffffffff021916908373ffffffffffffffffffffffffffffffffffffffff16021790555084600560006101000a81548173ffffffffffffffffffffffffffffffffffffffff021916908373ffffffffffffffffffffffffffffffffffffffff160217905550505050505062000756565b600033905090565b60008060009054906101000a900473ffffffffffffffffffffffffffffffffffffffff169050816000806101000a81548173ffffffffffffffffffffffffffffffffffffffff021916908373ffffffffffffffffffffffffffffffffffffffff1602179055508173ffffffffffffffffffffffffffffffffffffffff168173ffffffffffffffffffffffffffffffffffffffff167f8be0079c531659141344cd1fd0a4f28419497f9722a3daafe3b4186f6b6457e060405160405180910390a35050565b600081519050620005a7816200073c565b92915050565b600080600080600060a08688031215620005c657600080fd5b6000620005d68882890162000596565b9550506020620005e98882890162000596565b9450506040620005fc8882890162000596565b93505060606200060f8882890162000596565b9250506080620006228882890162000596565b9150509295509295909350565b60006200063e601883620006f7565b91507f4c69676874686f7573653a2053414d455f4144445245535300000000000000006000830152602082019050919050565b600062000680601883620006f7565b91507f4c69676874686f7573653a205a45524f5f4144445245535300000000000000006000830152602082019050919050565b60006020820190508181036000830152620006ce816200062f565b9050919050565b60006020820190508181036000830152620006f08162000671565b9050919050565b600082825260208201905092915050565b600062000715826200071c565b9050919050565b600073ffffffffffffffffffffffffffffffffffffffff82169050919050565b620007478162000708565b81146200075357600080fd5b50565b6112ab80620007666000396000f3fe608060405234801561001057600080fd5b506004361061007d5760003560e01c80639eefc7b11161005b5780639eefc7b1146100c6578063e7481fb3146100f6578063f2fde38b14610126578063f8536b94146101425761007d565b8063129874aa14610082578063715018a61461009e5780638da5cb5b146100a8575b600080fd5b61009c60048036038101906100979190610c5a565b610172565b005b6100a6610826565b005b6100b06108ae565b6040516100bd9190610fcb565b60405180910390f35b6100e060048036038101906100db9190610c1e565b6108d7565b6040516100ed919061116a565b60405180910390f35b610110600480360381019061010b9190610c1e565b610932565b60405161011d919061116a565b60405180910390f35b610140600480360381019061013b9190610bcc565b610957565b005b61015c60048036038101906101579190610c1e565b610a4f565b604051610169919061100f565b60405180910390f35b600460009054906101000a900473ffffffffffffffffffffffffffffffffffffffff1673ffffffffffffffffffffffffffffffffffffffff166364507efc836040518263ffffffff1660e01b81526004016101cd919061116a565b60206040518083038186803b1580156101e557600080fd5b505afa1580156101f9573d6000803e3d6000fd5b505050506040513d601f19601f8201168201806040525081019061021d9190610bf5565b61025c576040517f08c379a00000000000000000000000000000000000000000000000000000000081526004016102539061110a565b60405180910390fd5b6102668233610a4f565b156102a6576040517f08c379a000000000000000000000000000000000000000000000000000000000815260040161029d9061104a565b60405180910390fd5b600080600460009054906101000a900473ffffffffffffffffffffffffffffffffffffffff1673ffffffffffffffffffffffffffffffffffffffff166324d2cb17856040518263ffffffff1660e01b8152600401610304919061116a565b604080518083038186803b15801561031b57600080fd5b505afa15801561032f573d6000803e3d6000fd5b505050506040513d601f19601f820116820180604052508101906103539190610c96565b80925081935050508142101561039e576040517f08c379a00000000000000000000000000000000000000000000000000000000081526004016103959061108a565b60405180910390fd5b804211156103e1576040517f08c379a00000000000000000000000000000000000000000000000000000000081526004016103d89061114a565b60405180910390fd5b5050600260009054906101000a900473ffffffffffffffffffffffffffffffffffffffff1673ffffffffffffffffffffffffffffffffffffffff16638c817b6e83336040518363ffffffff1660e01b8152600401610440929190611185565b60206040518083038186803b15801561045857600080fd5b505afa15801561046c573d6000803e3d6000fd5b505050506040513d601f19601f820116820180604052508101906104909190610bf5565b6104cf576040517f08c379a00000000000000000000000000000000000000000000000000000000081526004016104c69061106a565b60405180910390fd5b600360009054906101000a900473ffffffffffffffffffffffffffffffffffffffff1673ffffffffffffffffffffffffffffffffffffffff166302deed0383336040518363ffffffff1660e01b815260040161052c929190611185565b60206040518083038186803b15801561054457600080fd5b505afa158015610558573d6000803e3d6000fd5b505050506040513d601f19601f8201168201806040525081019061057c9190610bf5565b156105bc576040517f08c379a00000000000000000000000000000000000000000000000000000000081526004016105b3906110aa565b60405180910390fd5b600081116105ff576040517f08c379a00000000000000000000000000000000000000000000000000000000081526004016105f6906110ea565b60405180910390fd5b600560009054906101000a900473ffffffffffffffffffffffffffffffffffffffff1673ffffffffffffffffffffffffffffffffffffffff16636aade28833836040518363ffffffff1660e01b815260040161065c929190610fe6565b602060405180830381600087803b15801561067657600080fd5b505af115801561068a573d6000803e3d6000fd5b505050506040513d601f19601f820116820180604052508101906106ae9190610bf5565b6106ed576040517f08c379a00000000000000000000000000000000000000000000000000000000081526004016106e49061112a565b60405180910390fd5b600460009054906101000a900473ffffffffffffffffffffffffffffffffffffffff1673ffffffffffffffffffffffffffffffffffffffff166341e0f1b183836040518363ffffffff1660e01b815260040161074a9291906111ae565b600060405180830381600087803b15801561076457600080fd5b505af1158015610778573d6000803e3d6000fd5b50505050806006600084815260200190815260200160002060003373ffffffffffffffffffffffffffffffffffffffff1673ffffffffffffffffffffffffffffffffffffffff168152602001908152602001600020819055503373ffffffffffffffffffffffffffffffffffffffff16827f0c084a98097a12b06afc1944617ea8d4b2efde50755080245bd7c9019cfb539d834260405161081a9291906111ae565b60405180910390a35050565b61082e610aac565b73ffffffffffffffffffffffffffffffffffffffff1661084c6108ae565b73ffffffffffffffffffffffffffffffffffffffff16146108a2576040517f08c379a0000000000000000000000000000000000000000000000000000000008152600401610899906110ca565b60405180910390fd5b6108ac6000610ab4565b565b60008060009054906101000a900473ffffffffffffffffffffffffffffffffffffffff16905090565b60006006600084815260200190815260200160002060008373ffffffffffffffffffffffffffffffffffffffff1673ffffffffffffffffffffffffffffffffffffffff16815260200190815260200160002054905092915050565b6006602052816000526040600020602052806000526040600020600091509150505481565b61095f610aac565b73ffffffffffffffffffffffffffffffffffffffff1661097d6108ae565b73ffffffffffffffffffffffffffffffffffffffff16146109d3576040517f08c379a00000000000000000000000000000000000000000000000000000000081526004016109ca906110ca565b60405180910390fd5b600073ffffffffffffffffffffffffffffffffffffffff168173ffffffffffffffffffffffffffffffffffffffff161415610a43576040517f08c379a0000000000000000000000000000000000000000000000000000000008152600401610a3a9061102a565b60405180910390fd5b610a4c81610ab4565b50565b6000806006600085815260200190815260200160002060008473ffffffffffffffffffffffffffffffffffffffff1673ffffffffffffffffffffffffffffffffffffffff1681526020019081526020016000205411905092915050565b600033905090565b60008060009054906101000a900473ffffffffffffffffffffffffffffffffffffffff169050816000806101000a81548173ffffffffffffffffffffffffffffffffffffffff021916908373ffffffffffffffffffffffffffffffffffffffff1602179055508173ffffffffffffffffffffffffffffffffffffffff168173ffffffffffffffffffffffffffffffffffffffff167f8be0079c531659141344cd1fd0a4f28419497f9722a3daafe3b4186f6b6457e060405160405180910390a35050565b600081359050610b8781611230565b92915050565b600081519050610b9c81611247565b92915050565b600081359050610bb18161125e565b92915050565b600081519050610bc68161125e565b92915050565b600060208284031215610bde57600080fd5b6000610bec84828501610b78565b91505092915050565b600060208284031215610c0757600080fd5b6000610c1584828501610b8d565b91505092915050565b60008060408385031215610c3157600080fd5b6000610c3f85828601610ba2565b9250506020610c5085828601610b78565b9150509250929050565b60008060408385031215610c6d57600080fd5b6000610c7b85828601610ba2565b9250506020610c8c85828601610ba2565b9150509250929050565b60008060408385031215610ca957600080fd5b6000610cb785828601610bb7565b9250506020610cc885828601610bb7565b9150509250929050565b610cdb816111e8565b82525050565b610cea816111fa565b82525050565b6000610cfd6026836111d7565b91507f4f776e61626c653a206e6577206f776e657220697320746865207a65726f206160008301527f64647265737300000000000000000000000000000000000000000000000000006020830152604082019050919050565b6000610d636020836111d7565b91507f4c69676874686f7573653a20414c52454144595f5041525449434950415445446000830152602082019050919050565b6000610da3601a836111d7565b91507f4c69676874686f7573653a204e4f545f524547495354455245440000000000006000830152602082019050919050565b6000610de3601b836111d7565b91507f4c69676874686f7573653a204e4f545f535441525445445f59455400000000006000830152602082019050919050565b6000610e236015836111d7565b91507f4c69676874686f7573653a2050524546554e44454400000000000000000000006000830152602082019050919050565b6000610e636020836111d7565b91507f4f776e61626c653a2063616c6c6572206973206e6f7420746865206f776e65726000830152602082019050919050565b6000610ea36016836111d7565b91507f4c69676874686f7573653a205a45524f5f56414c5545000000000000000000006000830152602082019050919050565b6000610ee36023836111d7565b91507f4c69676874686f7573653a2041554354494f4e5f4e4f545f494e495449414c4960008301527f5a454400000000000000000000000000000000000000000000000000000000006020830152604082019050919050565b6000610f496017836111d7565b91507f4c69676874686f7573653a204357535f554e5350454e440000000000000000006000830152602082019050919050565b6000610f896014836111d7565b91507f4c69676874686f7573653a2046494e49534845440000000000000000000000006000830152602082019050919050565b610fc581611226565b82525050565b6000602082019050610fe06000830184610cd2565b92915050565b6000604082019050610ffb6000830185610cd2565b6110086020830184610fbc565b9392505050565b60006020820190506110246000830184610ce1565b92915050565b6000602082019050818103600083015261104381610cf0565b9050919050565b6000602082019050818103600083015261106381610d56565b9050919050565b6000602082019050818103600083015261108381610d96565b9050919050565b600060208201905081810360008301526110a381610dd6565b9050919050565b600060208201905081810360008301526110c381610e16565b9050919050565b600060208201905081810360008301526110e381610e56565b9050919050565b6000602082019050818103600083015261110381610e96565b9050919050565b6000602082019050818103600083015261112381610ed6565b9050919050565b6000602082019050818103600083015261114381610f3c565b9050919050565b6000602082019050818103600083015261116381610f7c565b9050919050565b600060208201905061117f6000830184610fbc565b92915050565b600060408201905061119a6000830185610fbc565b6111a76020830184610cd2565b9392505050565b60006040820190506111c36000830185610fbc565b6111d06020830184610fbc565b9392505050565b600082825260208201905092915050565b60006111f382611206565b9050919050565b60008115159050919050565b600073ffffffffffffffffffffffffffffffffffffffff82169050919050565b6000819050919050565b611239816111e8565b811461124457600080fd5b50565b611250816111fa565b811461125b57600080fd5b50565b61126781611226565b811461127257600080fd5b5056fea2646970667358221220cd29782f7bdb5ab686e8ece4799219eb0c400b3112c9622c2cb82dc5c551ee0164736f6c63430008000033",
  "linkReferences": {},
  "deployedLinkReferences": {}
}