{
  "_format": "hh-sol-artifact-1",
  "contractName": "LighthouseAuction",
  "sourceName": "contracts/LighthouseAuction.sol",
  "abi": [
    {
      "inputs": [
        {
          "internalType": "address",
          "name": "_crowns",
          "type": "address"
        },
        {
          "internalType": "address",
          "name": "tier",
          "type": "address"
        },
        {
          "internalType": "address",
          "name": "submission",
          "type": "address"
        },
        {
          "internalType": "address",
          "name": "prefund",
          "type": "address"
        },
        {
          "internalType": "address",
          "name": "project",
          "type": "address"
        },
        {
          "internalType": "uint256",
          "name": "_chainID",
          "type": "uint256"
        }
      ],
      "stateMutability": "nonpayable",
      "type": "constructor"
    },
    {
      "anonymous": false,
      "inputs": [
        {
          "indexed": true,
          "internalType": "uint256",
          "name": "projectId",
          "type": "uint256"
        },
        {
          "indexed": true,
          "internalType": "address",
          "name": "participant",
          "type": "address"
        },
        {
          "indexed": true,
          "internalType": "uint256",
          "name": "tokenId",
          "type": "uint256"
        }
      ],
      "name": "Gift",
      "type": "event"
    },
    {
      "anonymous": false,
      "inputs": [
        {
          "indexed": true,
          "internalType": "address",
          "name": "previousOwner",
          "type": "address"
        },
        {
          "indexed": true,
          "internalType": "address",
          "name": "newOwner",
          "type": "address"
        }
      ],
      "name": "OwnershipTransferred",
      "type": "event"
    },
    {
      "anonymous": false,
      "inputs": [
        {
          "indexed": true,
          "internalType": "uint256",
          "name": "projectId",
          "type": "uint256"
        },
        {
          "indexed": true,
          "internalType": "address",
          "name": "participant",
          "type": "address"
        },
        {
          "indexed": false,
          "internalType": "uint256",
          "name": "amount",
          "type": "uint256"
        },
        {
          "indexed": false,
          "internalType": "uint256",
          "name": "time",
          "type": "uint256"
        }
      ],
      "name": "Participate",
      "type": "event"
    },
    {
      "anonymous": false,
      "inputs": [
        {
          "indexed": true,
          "internalType": "uint256",
          "name": "projectId",
          "type": "uint256"
        },
        {
          "indexed": false,
          "internalType": "uint256",
          "name": "min",
          "type": "uint256"
        },
        {
          "indexed": false,
          "internalType": "uint16",
          "name": "giftAmount",
          "type": "uint16"
        }
      ],
      "name": "SetAuctionData",
      "type": "event"
    },
    {
      "inputs": [
        {
          "internalType": "uint256",
          "name": "",
          "type": "uint256"
        }
      ],
      "name": "auctionData",
      "outputs": [
        {
          "internalType": "bool",
          "name": "set",
          "type": "bool"
        },
        {
          "internalType": "uint16",
          "name": "gifted",
          "type": "uint16"
        },
        {
          "internalType": "uint16",
          "name": "giftAmount",
          "type": "uint16"
        },
        {
          "internalType": "uint256",
          "name": "min",
          "type": "uint256"
        }
      ],
      "stateMutability": "view",
      "type": "function"
    },
    {
      "inputs": [],
      "name": "chainID",
      "outputs": [
        {
          "internalType": "uint256",
          "name": "",
          "type": "uint256"
        }
      ],
      "stateMutability": "view",
      "type": "function"
    },
    {
      "inputs": [
        {
          "internalType": "uint256",
          "name": "projectId",
          "type": "uint256"
        },
        {
          "internalType": "address",
          "name": "investor",
          "type": "address"
        }
      ],
      "name": "getSpent",
      "outputs": [
        {
          "internalType": "uint256",
          "name": "",
          "type": "uint256"
        }
      ],
      "stateMutability": "view",
      "type": "function"
    },
    {
      "inputs": [
        {
          "internalType": "uint256",
          "name": "projectId",
          "type": "uint256"
        }
      ],
      "name": "giftInfo",
      "outputs": [
        {
          "internalType": "uint16",
          "name": "",
          "type": "uint16"
        },
        {
          "internalType": "uint16",
          "name": "",
          "type": "uint16"
        }
      ],
      "stateMutability": "view",
      "type": "function"
    },
    {
      "inputs": [
        {
          "internalType": "uint256",
          "name": "",
          "type": "uint256"
        },
        {
          "internalType": "address",
          "name": "",
          "type": "address"
        }
      ],
      "name": "giftOrder",
      "outputs": [
        {
          "internalType": "uint16",
          "name": "",
          "type": "uint16"
        }
      ],
      "stateMutability": "view",
      "type": "function"
    },
    {
      "inputs": [
        {
          "internalType": "uint256",
          "name": "",
          "type": "uint256"
        },
        {
          "internalType": "address",
          "name": "",
          "type": "address"
        }
      ],
      "name": "gifts",
      "outputs": [
        {
          "internalType": "uint256",
          "name": "",
          "type": "uint256"
        }
      ],
      "stateMutability": "view",
      "type": "function"
    },
    {
      "inputs": [],
      "name": "owner",
      "outputs": [
        {
          "internalType": "address",
          "name": "",
          "type": "address"
        }
      ],
      "stateMutability": "view",
      "type": "function"
    },
    {
      "inputs": [
        {
          "internalType": "uint256",
          "name": "projectId",
          "type": "uint256"
        },
        {
          "internalType": "address",
          "name": "participant",
          "type": "address"
        }
      ],
      "name": "participantGiftOrder",
      "outputs": [
        {
          "internalType": "uint16",
          "name": "",
          "type": "uint16"
        }
      ],
      "stateMutability": "view",
      "type": "function"
    },
    {
      "inputs": [
        {
          "internalType": "uint256",
          "name": "projectId",
          "type": "uint256"
        },
        {
          "internalType": "uint256",
          "name": "amount",
          "type": "uint256"
        },
        {
          "internalType": "uint8",
          "name": "v",
          "type": "uint8"
        },
        {
          "internalType": "bytes32",
          "name": "r",
          "type": "bytes32"
        },
        {
          "internalType": "bytes32",
          "name": "s",
          "type": "bytes32"
        }
      ],
      "name": "participate",
      "outputs": [],
      "stateMutability": "nonpayable",
      "type": "function"
    },
    {
      "inputs": [
        {
          "internalType": "uint256",
          "name": "projectId",
          "type": "uint256"
        },
        {
          "internalType": "address",
          "name": "investor",
          "type": "address"
        }
      ],
      "name": "participated",
      "outputs": [
        {
          "internalType": "bool",
          "name": "",
          "type": "bool"
        }
      ],
      "stateMutability": "view",
      "type": "function"
    },
    {
      "inputs": [],
      "name": "renounceOwnership",
      "outputs": [],
      "stateMutability": "nonpayable",
      "type": "function"
    },
    {
      "inputs": [
        {
          "internalType": "uint256",
          "name": "projectId",
          "type": "uint256"
        },
        {
          "internalType": "uint256",
          "name": "min",
          "type": "uint256"
        },
        {
          "internalType": "uint16",
          "name": "giftAmount",
          "type": "uint16"
        }
      ],
      "name": "setAuctionData",
      "outputs": [],
      "stateMutability": "nonpayable",
      "type": "function"
    },
    {
      "inputs": [
        {
          "internalType": "address",
          "name": "giftNft",
          "type": "address"
        }
      ],
      "name": "setGiftNft",
      "outputs": [],
      "stateMutability": "nonpayable",
      "type": "function"
    },
    {
      "inputs": [
        {
          "internalType": "address",
          "name": "newTier",
          "type": "address"
        }
      ],
      "name": "setLighthouseTier",
      "outputs": [],
      "stateMutability": "nonpayable",
      "type": "function"
    },
    {
      "inputs": [
        {
          "internalType": "uint256",
          "name": "",
          "type": "uint256"
        },
        {
          "internalType": "address",
          "name": "",
          "type": "address"
        }
      ],
      "name": "spents",
      "outputs": [
        {
          "internalType": "uint256",
          "name": "",
          "type": "uint256"
        }
      ],
      "stateMutability": "view",
      "type": "function"
    },
    {
      "inputs": [
        {
          "internalType": "address",
          "name": "newOwner",
          "type": "address"
        }
      ],
      "name": "transferOwnership",
      "outputs": [],
      "stateMutability": "nonpayable",
      "type": "function"
    }
  ],
  "bytecode": "0x60806040523480156200001157600080fd5b506040516200314638038062003146833981810160405281019062000037919062000722565b620000576200004b6200062860201b60201c565b6200063060201b60201c565b600073ffffffffffffffffffffffffffffffffffffffff168673ffffffffffffffffffffffffffffffffffffffff1614158015620000c25750600073ffffffffffffffffffffffffffffffffffffffff168573ffffffffffffffffffffffffffffffffffffffff1614155b8015620000fc5750600073ffffffffffffffffffffffffffffffffffffffff168373ffffffffffffffffffffffffffffffffffffffff1614155b8015620001365750600073ffffffffffffffffffffffffffffffffffffffff168473ffffffffffffffffffffffffffffffffffffffff1614155b8015620001705750600073ffffffffffffffffffffffffffffffffffffffff168273ffffffffffffffffffffffffffffffffffffffff1614155b620001b2576040517f08c379a0000000000000000000000000000000000000000000000000000000008152600401620001a9906200085e565b60405180910390fd5b8273ffffffffffffffffffffffffffffffffffffffff168573ffffffffffffffffffffffffffffffffffffffff16141562000224576040517f08c379a00000000000000000000000000000000000000000000000000000000081526004016200021b906200083c565b60405180910390fd5b8573ffffffffffffffffffffffffffffffffffffffff168573ffffffffffffffffffffffffffffffffffffffff16141562000296576040517f08c379a00000000000000000000000000000000000000000000000000000000081526004016200028d906200083c565b60405180910390fd5b8373ffffffffffffffffffffffffffffffffffffffff168573ffffffffffffffffffffffffffffffffffffffff16141562000308576040517f08c379a0000000000000000000000000000000000000000000000000000000008152600401620002ff906200083c565b60405180910390fd5b8173ffffffffffffffffffffffffffffffffffffffff168573ffffffffffffffffffffffffffffffffffffffff1614156200037a576040517f08c379a000000000000000000000000000000000000000000000000000000000815260040162000371906200083c565b60405180910390fd5b8173ffffffffffffffffffffffffffffffffffffffff168473ffffffffffffffffffffffffffffffffffffffff161415620003ec576040517f08c379a0000000000000000000000000000000000000000000000000000000008152600401620003e3906200083c565b60405180910390fd5b8273ffffffffffffffffffffffffffffffffffffffff168473ffffffffffffffffffffffffffffffffffffffff1614156200045e576040517f08c379a000000000000000000000000000000000000000000000000000000000815260040162000455906200083c565b60405180910390fd5b8173ffffffffffffffffffffffffffffffffffffffff168373ffffffffffffffffffffffffffffffffffffffff161415620004d0576040517f08c379a0000000000000000000000000000000000000000000000000000000008152600401620004c7906200083c565b60405180910390fd5b84600160006101000a81548173ffffffffffffffffffffffffffffffffffffffff021916908373ffffffffffffffffffffffffffffffffffffffff16021790555083600260006101000a81548173ffffffffffffffffffffffffffffffffffffffff021916908373ffffffffffffffffffffffffffffffffffffffff16021790555082600360006101000a81548173ffffffffffffffffffffffffffffffffffffffff021916908373ffffffffffffffffffffffffffffffffffffffff16021790555081600460006101000a81548173ffffffffffffffffffffffffffffffffffffffff021916908373ffffffffffffffffffffffffffffffffffffffff16021790555085600560006101000a81548173ffffffffffffffffffffffffffffffffffffffff021916908373ffffffffffffffffffffffffffffffffffffffff1602179055508060078190555050505050505062000903565b600033905090565b60008060009054906101000a900473ffffffffffffffffffffffffffffffffffffffff169050816000806101000a81548173ffffffffffffffffffffffffffffffffffffffff021916908373ffffffffffffffffffffffffffffffffffffffff1602179055508173ffffffffffffffffffffffffffffffffffffffff168173ffffffffffffffffffffffffffffffffffffffff167f8be0079c531659141344cd1fd0a4f28419497f9722a3daafe3b4186f6b6457e060405160405180910390a35050565b6000815190506200070581620008cf565b92915050565b6000815190506200071c81620008e9565b92915050565b60008060008060008060c087890312156200073c57600080fd5b60006200074c89828a01620006f4565b96505060206200075f89828a01620006f4565b95505060406200077289828a01620006f4565b94505060606200078589828a01620006f4565b93505060806200079889828a01620006f4565b92505060a0620007ab89828a016200070b565b9150509295509295509295565b6000620007c760188362000880565b91507f4c69676874686f7573653a2053414d455f4144445245535300000000000000006000830152602082019050919050565b60006200080960188362000880565b91507f4c69676874686f7573653a205a45524f5f4144445245535300000000000000006000830152602082019050919050565b600060208201905081810360008301526200085781620007b8565b9050919050565b600060208201905081810360008301526200087981620007fa565b9050919050565b600082825260208201905092915050565b60006200089e82620008a5565b9050919050565b600073ffffffffffffffffffffffffffffffffffffffff82169050919050565b6000819050919050565b620008da8162000891565b8114620008e657600080fd5b50565b620008f481620008c5565b81146200090057600080fd5b50565b61283380620009136000396000f3fe608060405234801561001057600080fd5b50600436106101005760003560e01c80639eefc7b111610097578063e7481fb311610066578063e7481fb3146102c3578063f2fde38b146102f3578063f30188631461030f578063f8536b941461032b57610100565b80639eefc7b114610229578063adc879e914610259578063aee7a1ef14610277578063db7c1f261461029357610100565b806355fc62d2116100d357806355fc62d2146101b257806362015b4e146101e5578063715018a6146102015780638da5cb5b1461020b57610100565b80631e2771dc1461010557806323ead87314610121578063312309b31461015157806343468f0914610181575b600080fd5b61011f600480360381019061011a9190611a1a565b61035b565b005b61013b60048036038101906101369190611ae7565b61041b565b604051610148919061256a565b60405180910390f35b61016b60048036038101906101669190611ae7565b610440565b6040516101789190612526565b60405180910390f35b61019b60048036038101906101969190611a95565b6104a9565b6040516101a9929190612541565b60405180910390f35b6101cc60048036038101906101c79190611a95565b6104ff565b6040516101dc949392919061227c565b60405180910390f35b6101ff60048036038101906101fa9190611b5f565b610558565b005b6102096107be565b005b610213610846565b604051610220919061221d565b60405180910390f35b610243600480360381019061023e9190611ae7565b61086f565b604051610250919061256a565b60405180910390f35b6102616108ca565b60405161026e919061256a565b60405180910390f35b610291600480360381019061028c9190611a1a565b6108d0565b005b6102ad60048036038101906102a89190611ae7565b610990565b6040516102ba9190612526565b60405180910390f35b6102dd60048036038101906102d89190611ae7565b6109c0565b6040516102ea919061256a565b60405180910390f35b61030d60048036038101906103089190611a1a565b6109e5565b005b61032960048036038101906103249190611bae565b610add565b005b61034560048036038101906103409190611ae7565b611849565b6040516103529190612261565b60405180910390f35b6103636118a6565b73ffffffffffffffffffffffffffffffffffffffff16610381610846565b73ffffffffffffffffffffffffffffffffffffffff16146103d7576040517f08c379a00000000000000000000000000000000000000000000000000000000081526004016103ce90612446565b60405180910390fd5b80600660006101000a81548173ffffffffffffffffffffffffffffffffffffffff021916908373ffffffffffffffffffffffffffffffffffffffff16021790555050565b600a602052816000526040600020602052806000526040600020600091509150505481565b60006009600084815260200190815260200160002060008373ffffffffffffffffffffffffffffffffffffffff1673ffffffffffffffffffffffffffffffffffffffff16815260200190815260200160002060009054906101000a900461ffff16905092915050565b600080600b600084815260200190815260200160002060000160019054906101000a900461ffff16600b600085815260200190815260200160002060000160039054906101000a900461ffff1691509150915091565b600b6020528060005260406000206000915090508060000160009054906101000a900460ff16908060000160019054906101000a900461ffff16908060000160039054906101000a900461ffff16908060010154905084565b6105606118a6565b73ffffffffffffffffffffffffffffffffffffffff1661057e610846565b73ffffffffffffffffffffffffffffffffffffffff16146105d4576040517f08c379a00000000000000000000000000000000000000000000000000000000081526004016105cb90612446565b60405180910390fd5b600460009054906101000a900473ffffffffffffffffffffffffffffffffffffffff1673ffffffffffffffffffffffffffffffffffffffff166364507efc846040518263ffffffff1660e01b815260040161062f919061256a565b60206040518083038186803b15801561064757600080fd5b505afa15801561065b573d6000803e3d6000fd5b505050506040513d601f19601f8201168201806040525081019061067f9190611a6c565b6106be576040517f08c379a00000000000000000000000000000000000000000000000000000000081526004016106b5906124a6565b60405180910390fd5b600b600084815260200190815260200160002060000160009054906101000a900460ff1615610722576040517f08c379a000000000000000000000000000000000000000000000000000000000815260040161071990612466565b60405180910390fd5b6000600b6000858152602001908152602001600020905060018160000160006101000a81548160ff021916908315150217905550818160000160036101000a81548161ffff021916908361ffff160217905550828160010181905550837f6736727a6ea17d813f619d36e3f60b60d40f0c126a9083425c3014de5cd834a384846040516107b09291906125ae565b60405180910390a250505050565b6107c66118a6565b73ffffffffffffffffffffffffffffffffffffffff166107e4610846565b73ffffffffffffffffffffffffffffffffffffffff161461083a576040517f08c379a000000000000000000000000000000000000000000000000000000000815260040161083190612446565b60405180910390fd5b61084460006118ae565b565b60008060009054906101000a900473ffffffffffffffffffffffffffffffffffffffff16905090565b60006008600084815260200190815260200160002060008373ffffffffffffffffffffffffffffffffffffffff1673ffffffffffffffffffffffffffffffffffffffff16815260200190815260200160002054905092915050565b60075481565b6108d86118a6565b73ffffffffffffffffffffffffffffffffffffffff166108f6610846565b73ffffffffffffffffffffffffffffffffffffffff161461094c576040517f08c379a000000000000000000000000000000000000000000000000000000000815260040161094390612446565b60405180910390fd5b80600160006101000a81548173ffffffffffffffffffffffffffffffffffffffff021916908373ffffffffffffffffffffffffffffffffffffffff16021790555050565b60096020528160005260406000206020528060005260406000206000915091509054906101000a900461ffff1681565b6008602052816000526040600020602052806000526040600020600091509150505481565b6109ed6118a6565b73ffffffffffffffffffffffffffffffffffffffff16610a0b610846565b73ffffffffffffffffffffffffffffffffffffffff1614610a61576040517f08c379a0000000000000000000000000000000000000000000000000000000008152600401610a5890612446565b60405180910390fd5b600073ffffffffffffffffffffffffffffffffffffffff168173ffffffffffffffffffffffffffffffffffffffff161415610ad1576040517f08c379a0000000000000000000000000000000000000000000000000000000008152600401610ac890612306565b60405180910390fd5b610ada816118ae565b50565b600460009054906101000a900473ffffffffffffffffffffffffffffffffffffffff1673ffffffffffffffffffffffffffffffffffffffff166364507efc866040518263ffffffff1660e01b8152600401610b38919061256a565b60206040518083038186803b158015610b5057600080fd5b505afa158015610b64573d6000803e3d6000fd5b505050506040513d601f19601f82011682018060405250810190610b889190611a6c565b610bc7576040517f08c379a0000000000000000000000000000000000000000000000000000000008152600401610bbe906124a6565b60405180910390fd5b600460009054906101000a900473ffffffffffffffffffffffffffffffffffffffff1673ffffffffffffffffffffffffffffffffffffffff1663b22e912b866040518263ffffffff1660e01b8152600401610c22919061256a565b60206040518083038186803b158015610c3a57600080fd5b505afa158015610c4e573d6000803e3d6000fd5b505050506040513d601f19601f82011682018060405250810190610c729190611a6c565b610cb1576040517f08c379a0000000000000000000000000000000000000000000000000000000008152600401610ca8906124c6565b60405180910390fd5b600b600086815260200190815260200160002060000160009054906101000a900460ff16610d14576040517f08c379a0000000000000000000000000000000000000000000000000000000008152600401610d0b90612346565b60405180910390fd5b610d1e8533611849565b15610d5e576040517f08c379a0000000000000000000000000000000000000000000000000000000008152600401610d5590612326565b60405180910390fd5b60008411610da1576040517f08c379a0000000000000000000000000000000000000000000000000000000008152600401610d9890612486565b60405180910390fd5b600080600460009054906101000a900473ffffffffffffffffffffffffffffffffffffffff1673ffffffffffffffffffffffffffffffffffffffff166324d2cb17886040518263ffffffff1660e01b8152600401610dff919061256a565b604080518083038186803b158015610e1657600080fd5b505afa158015610e2a573d6000803e3d6000fd5b505050506040513d601f19601f82011682018060405250810190610e4e9190611b23565b809250819350505081421015610e99576040517f08c379a0000000000000000000000000000000000000000000000000000000008152600401610e90906123c6565b60405180910390fd5b80421115610edc576040517f08c379a0000000000000000000000000000000000000000000000000000000008152600401610ed390612506565b60405180910390fd5b600b600088815260200190815260200160002060010154861015610f35576040517f08c379a0000000000000000000000000000000000000000000000000000000008152600401610f2c90612406565b60405180910390fd5b5050600260009054906101000a900473ffffffffffffffffffffffffffffffffffffffff1673ffffffffffffffffffffffffffffffffffffffff16638c817b6e86336040518363ffffffff1660e01b8152600401610f94929190612585565b60206040518083038186803b158015610fac57600080fd5b505afa158015610fc0573d6000803e3d6000fd5b505050506040513d601f19601f82011682018060405250810190610fe49190611a6c565b611023576040517f08c379a000000000000000000000000000000000000000000000000000000000815260040161101a90612366565b60405180910390fd5b600360009054906101000a900473ffffffffffffffffffffffffffffffffffffffff1673ffffffffffffffffffffffffffffffffffffffff166302deed0386336040518363ffffffff1660e01b8152600401611080929190612585565b60206040518083038186803b15801561109857600080fd5b505afa1580156110ac573d6000803e3d6000fd5b505050506040513d601f19601f820116820180604052508101906110d09190611a6c565b15611110576040517f08c379a000000000000000000000000000000000000000000000000000000000815260040161110790612426565b60405180910390fd5b60006040518060400160405280601c81526020017f19457468657265756d205369676e6564204d6573736167653a0a3332000000008152509050600033308860075460405160200161116594939291906121a7565b604051602081830303815290604052805190602001209050600082826040516020016111929291906121f5565b6040516020818303038152906040528051906020012090506000600182888888604051600081526020016040526040516111cf94939291906122c1565b6020604051602081039080840390855afa1580156111f1573d6000803e3d6000fd5b5050506020604051035190506000600b60008b8152602001908152602001600020905060008160000160039054906101000a900461ffff1661ffff1611156112c657600073ffffffffffffffffffffffffffffffffffffffff16600660009054906101000a900473ffffffffffffffffffffffffffffffffffffffff1673ffffffffffffffffffffffffffffffffffffffff1614156112c5576040517f08c379a00000000000000000000000000000000000000000000000000000000081526004016112bc906123a6565b60405180910390fd5b5b8060000160039054906101000a900461ffff1661ffff168160000160019054906101000a900461ffff1661ffff16101561150d576000600660009054906101000a900473ffffffffffffffffffffffffffffffffffffffff1673ffffffffffffffffffffffffffffffffffffffff166394bf804d8c336040518363ffffffff1660e01b8152600401611359929190612585565b602060405180830381600087803b15801561137357600080fd5b505af1158015611387573d6000803e3d6000fd5b505050506040513d601f19601f820116820180604052508101906113ab9190611abe565b9050600081116113f0576040517f08c379a00000000000000000000000000000000000000000000000000000000081526004016113e7906123e6565b60405180910390fd5b60018260000160019054906101000a900461ffff1661140f9190612627565b600960008d815260200190815260200160002060003373ffffffffffffffffffffffffffffffffffffffff1673ffffffffffffffffffffffffffffffffffffffff16815260200190815260200160002060006101000a81548161ffff021916908361ffff16021790555080600a60008d815260200190815260200160002060003373ffffffffffffffffffffffffffffffffffffffff1673ffffffffffffffffffffffffffffffffffffffff1681526020019081526020016000208190555060018260000160019054906101000a900461ffff166114ed9190612627565b8260000160016101000a81548161ffff021916908361ffff160217905550505b600460009054906101000a900473ffffffffffffffffffffffffffffffffffffffff1673ffffffffffffffffffffffffffffffffffffffff166341e0f1b18b8b6040518363ffffffff1660e01b815260040161156a9291906125d7565b600060405180830381600087803b15801561158457600080fd5b505af1158015611598573d6000803e3d6000fd5b5050505088600860008c815260200190815260200160002060003373ffffffffffffffffffffffffffffffffffffffff1673ffffffffffffffffffffffffffffffffffffffff16815260200190815260200160002081905550600460009054906101000a900473ffffffffffffffffffffffffffffffffffffffff1673ffffffffffffffffffffffffffffffffffffffff1663b60da0856040518163ffffffff1660e01b815260040160206040518083038186803b15801561165957600080fd5b505afa15801561166d573d6000803e3d6000fd5b505050506040513d601f19601f820116820180604052508101906116919190611a43565b73ffffffffffffffffffffffffffffffffffffffff168273ffffffffffffffffffffffffffffffffffffffff16146116fe576040517f08c379a00000000000000000000000000000000000000000000000000000000081526004016116f590612386565b60405180910390fd5b600560009054906101000a900473ffffffffffffffffffffffffffffffffffffffff1673ffffffffffffffffffffffffffffffffffffffff16636aade288338b6040518363ffffffff1660e01b815260040161175b929190612238565b602060405180830381600087803b15801561177557600080fd5b505af1158015611789573d6000803e3d6000fd5b505050506040513d601f19601f820116820180604052508101906117ad9190611a6c565b6117ec576040517f08c379a00000000000000000000000000000000000000000000000000000000081526004016117e3906124e6565b60405180910390fd5b3373ffffffffffffffffffffffffffffffffffffffff168a7f0c084a98097a12b06afc1944617ea8d4b2efde50755080245bd7c9019cfb539d8b426040516118359291906125d7565b60405180910390a350505050505050505050565b6000806008600085815260200190815260200160002060008473ffffffffffffffffffffffffffffffffffffffff1673ffffffffffffffffffffffffffffffffffffffff1681526020019081526020016000205411905092915050565b600033905090565b60008060009054906101000a900473ffffffffffffffffffffffffffffffffffffffff169050816000806101000a81548173ffffffffffffffffffffffffffffffffffffffff021916908373ffffffffffffffffffffffffffffffffffffffff1602179055508173ffffffffffffffffffffffffffffffffffffffff168173ffffffffffffffffffffffffffffffffffffffff167f8be0079c531659141344cd1fd0a4f28419497f9722a3daafe3b4186f6b6457e060405160405180910390a35050565b60008135905061198181612773565b92915050565b60008151905061199681612773565b92915050565b6000815190506119ab8161278a565b92915050565b6000813590506119c0816127a1565b92915050565b6000813590506119d5816127b8565b92915050565b6000813590506119ea816127cf565b92915050565b6000815190506119ff816127cf565b92915050565b600081359050611a14816127e6565b92915050565b600060208284031215611a2c57600080fd5b6000611a3a84828501611972565b91505092915050565b600060208284031215611a5557600080fd5b6000611a6384828501611987565b91505092915050565b600060208284031215611a7e57600080fd5b6000611a8c8482850161199c565b91505092915050565b600060208284031215611aa757600080fd5b6000611ab5848285016119db565b91505092915050565b600060208284031215611ad057600080fd5b6000611ade848285016119f0565b91505092915050565b60008060408385031215611afa57600080fd5b6000611b08858286016119db565b9250506020611b1985828601611972565b9150509250929050565b60008060408385031215611b3657600080fd5b6000611b44858286016119f0565b9250506020611b55858286016119f0565b9150509250929050565b600080600060608486031215611b7457600080fd5b6000611b82868287016119db565b9350506020611b93868287016119db565b9250506040611ba4868287016119c6565b9150509250925092565b600080600080600060a08688031215611bc657600080fd5b6000611bd4888289016119db565b9550506020611be5888289016119db565b9450506040611bf688828901611a05565b9350506060611c07888289016119b1565b9250506080611c18888289016119b1565b9150509295509295909350565b611c2e8161265f565b82525050565b611c45611c408261265f565b6126ff565b82525050565b611c5481612671565b82525050565b611c638161267d565b82525050565b611c7a611c758261267d565b612711565b82525050565b6000611c8b82612600565b611c95818561260b565b9350611ca58185602086016126cc565b80840191505092915050565b6000611cbe602683612616565b91507f4f776e61626c653a206e6577206f776e657220697320746865207a65726f206160008301527f64647265737300000000000000000000000000000000000000000000000000006020830152604082019050919050565b6000611d24602083612616565b91507f4c69676874686f7573653a20414c52454144595f5041525449434950415445446000830152602082019050919050565b6000611d64601b83612616565b91507f4c69676874686f7573653a2041554354494f4e5f4e4f545f53455400000000006000830152602082019050919050565b6000611da4601a83612616565b91507f4c69676874686f7573653a204e4f545f524547495354455245440000000000006000830152602082019050919050565b6000611de4600f83612616565b91507f4c69676874686f7573653a2053494700000000000000000000000000000000006000830152602082019050919050565b6000611e24601a83612616565b91507f4c69676874686f7573653a204e4f5f4e46545f414444524553530000000000006000830152602082019050919050565b6000611e64601b83612616565b91507f4c69676874686f7573653a204e4f545f535441525445445f59455400000000006000830152602082019050919050565b6000611ea4601683612616565b91507f4c69676874686f7573653a204e4f545f4d494e544544000000000000000000006000830152602082019050919050565b6000611ee4601983612616565b91507f4c69676874686f7573653a204c4553535f5448414e5f4d494e000000000000006000830152602082019050919050565b6000611f24601583612616565b91507f4c69676874686f7573653a2050524546554e44454400000000000000000000006000830152602082019050919050565b6000611f64602083612616565b91507f4f776e61626c653a2063616c6c6572206973206e6f7420746865206f776e65726000830152602082019050919050565b6000611fa4601783612616565b91507f4c69676874686f7573653a20414c52454144595f5345540000000000000000006000830152602082019050919050565b6000611fe4601683612616565b91507f4c69676874686f7573653a205a45524f5f56414c5545000000000000000000006000830152602082019050919050565b6000612024602383612616565b91507f4c69676874686f7573653a2041554354494f4e5f4e4f545f494e495449414c4960008301527f5a454400000000000000000000000000000000000000000000000000000000006020830152604082019050919050565b600061208a602783612616565b91507f4c69676874686f7573653a204e4f545f5452414e534645525245445f5052454660008301527f554e445f594554000000000000000000000000000000000000000000000000006020830152604082019050919050565b60006120f0601783612616565b91507f4c69676874686f7573653a204357535f554e5350454e440000000000000000006000830152602082019050919050565b6000612130601483612616565b91507f4c69676874686f7573653a2046494e49534845440000000000000000000000006000830152602082019050919050565b61216c81612687565b82525050565b61217b816126b5565b82525050565b61219261218d826126b5565b61272d565b82525050565b6121a1816126bf565b82525050565b60006121b38287611c34565b6014820191506121c38286611c34565b6014820191506121d38285612181565b6020820191506121e38284612181565b60208201915081905095945050505050565b60006122018285611c80565b915061220d8284611c69565b6020820191508190509392505050565b60006020820190506122326000830184611c25565b92915050565b600060408201905061224d6000830185611c25565b61225a6020830184612172565b9392505050565b60006020820190506122766000830184611c4b565b92915050565b60006080820190506122916000830187611c4b565b61229e6020830186612163565b6122ab6040830185612163565b6122b86060830184612172565b95945050505050565b60006080820190506122d66000830187611c5a565b6122e36020830186612198565b6122f06040830185611c5a565b6122fd6060830184611c5a565b95945050505050565b6000602082019050818103600083015261231f81611cb1565b9050919050565b6000602082019050818103600083015261233f81611d17565b9050919050565b6000602082019050818103600083015261235f81611d57565b9050919050565b6000602082019050818103600083015261237f81611d97565b9050919050565b6000602082019050818103600083015261239f81611dd7565b9050919050565b600060208201905081810360008301526123bf81611e17565b9050919050565b600060208201905081810360008301526123df81611e57565b9050919050565b600060208201905081810360008301526123ff81611e97565b9050919050565b6000602082019050818103600083015261241f81611ed7565b9050919050565b6000602082019050818103600083015261243f81611f17565b9050919050565b6000602082019050818103600083015261245f81611f57565b9050919050565b6000602082019050818103600083015261247f81611f97565b9050919050565b6000602082019050818103600083015261249f81611fd7565b9050919050565b600060208201905081810360008301526124bf81612017565b9050919050565b600060208201905081810360008301526124df8161207d565b9050919050565b600060208201905081810360008301526124ff816120e3565b9050919050565b6000602082019050818103600083015261251f81612123565b9050919050565b600060208201905061253b6000830184612163565b92915050565b60006040820190506125566000830185612163565b6125636020830184612163565b9392505050565b600060208201905061257f6000830184612172565b92915050565b600060408201905061259a6000830185612172565b6125a76020830184611c25565b9392505050565b60006040820190506125c36000830185612172565b6125d06020830184612163565b9392505050565b60006040820190506125ec6000830185612172565b6125f96020830184612172565b9392505050565b600081519050919050565b600081905092915050565b600082825260208201905092915050565b600061263282612687565b915061263d83612687565b92508261ffff0382111561265457612653612737565b5b828201905092915050565b600061266a82612695565b9050919050565b60008115159050919050565b6000819050919050565b600061ffff82169050919050565b600073ffffffffffffffffffffffffffffffffffffffff82169050919050565b6000819050919050565b600060ff82169050919050565b60005b838110156126ea5780820151818401526020810190506126cf565b838111156126f9576000848401525b50505050565b600061270a8261271b565b9050919050565b6000819050919050565b600061272682612766565b9050919050565b6000819050919050565b7f4e487b7100000000000000000000000000000000000000000000000000000000600052601160045260246000fd5b60008160601b9050919050565b61277c8161265f565b811461278757600080fd5b50565b61279381612671565b811461279e57600080fd5b50565b6127aa8161267d565b81146127b557600080fd5b50565b6127c181612687565b81146127cc57600080fd5b50565b6127d8816126b5565b81146127e357600080fd5b50565b6127ef816126bf565b81146127fa57600080fd5b5056fea26469706673582212202186d78dcaabfffd855f918736d787855537478dcc187b8e1772f820213d6aa464736f6c63430008000033",
  "linkReferences": {},
  "deployedLinkReferences": {}
}