{
  "_format": "hh-sol-artifact-1",
  "contractName": "LighthouseAuction",
  "sourceName": "contracts/LighthouseAuction.sol",
  "abi": [
    {
      "inputs": [
        {
          "internalType": "address",
          "name": "_crowns",
          "type": "address"
        },
        {
          "internalType": "address",
          "name": "tier",
          "type": "address"
        },
        {
          "internalType": "address",
          "name": "submission",
          "type": "address"
        },
        {
          "internalType": "address",
          "name": "prefund",
          "type": "address"
        },
        {
          "internalType": "address",
          "name": "project",
          "type": "address"
        },
        {
          "internalType": "uint256",
          "name": "_chainID",
          "type": "uint256"
        }
      ],
      "stateMutability": "nonpayable",
      "type": "constructor"
    },
    {
      "anonymous": false,
      "inputs": [
        {
          "indexed": true,
          "internalType": "address",
          "name": "previousOwner",
          "type": "address"
        },
        {
          "indexed": true,
          "internalType": "address",
          "name": "newOwner",
          "type": "address"
        }
      ],
      "name": "OwnershipTransferred",
      "type": "event"
    },
    {
      "anonymous": false,
      "inputs": [
        {
          "indexed": true,
          "internalType": "uint256",
          "name": "projectId",
          "type": "uint256"
        },
        {
          "indexed": true,
          "internalType": "address",
          "name": "participant",
          "type": "address"
        },
        {
          "indexed": false,
          "internalType": "uint256",
          "name": "amount",
          "type": "uint256"
        },
        {
          "indexed": false,
          "internalType": "uint256",
          "name": "time",
          "type": "uint256"
        }
      ],
      "name": "Participate",
      "type": "event"
    },
    {
      "inputs": [],
      "name": "chainID",
      "outputs": [
        {
          "internalType": "uint256",
          "name": "",
          "type": "uint256"
        }
      ],
      "stateMutability": "view",
      "type": "function"
    },
    {
      "inputs": [
        {
          "internalType": "uint256",
          "name": "projectId",
          "type": "uint256"
        },
        {
          "internalType": "address",
          "name": "investor",
          "type": "address"
        }
      ],
      "name": "getSpent",
      "outputs": [
        {
          "internalType": "uint256",
          "name": "",
          "type": "uint256"
        }
      ],
      "stateMutability": "view",
      "type": "function"
    },
    {
      "inputs": [],
      "name": "owner",
      "outputs": [
        {
          "internalType": "address",
          "name": "",
          "type": "address"
        }
      ],
      "stateMutability": "view",
      "type": "function"
    },
    {
      "inputs": [
        {
          "internalType": "uint256",
          "name": "projectId",
          "type": "uint256"
        },
        {
          "internalType": "uint256",
          "name": "amount",
          "type": "uint256"
        },
        {
          "internalType": "uint8",
          "name": "v",
          "type": "uint8"
        },
        {
          "internalType": "bytes32",
          "name": "r",
          "type": "bytes32"
        },
        {
          "internalType": "bytes32",
          "name": "s",
          "type": "bytes32"
        }
      ],
      "name": "participate",
      "outputs": [],
      "stateMutability": "nonpayable",
      "type": "function"
    },
    {
      "inputs": [
        {
          "internalType": "uint256",
          "name": "projectId",
          "type": "uint256"
        },
        {
          "internalType": "address",
          "name": "investor",
          "type": "address"
        }
      ],
      "name": "participated",
      "outputs": [
        {
          "internalType": "bool",
          "name": "",
          "type": "bool"
        }
      ],
      "stateMutability": "view",
      "type": "function"
    },
    {
      "inputs": [],
      "name": "renounceOwnership",
      "outputs": [],
      "stateMutability": "nonpayable",
      "type": "function"
    },
    {
      "inputs": [
        {
          "internalType": "uint256",
          "name": "",
          "type": "uint256"
        },
        {
          "internalType": "address",
          "name": "",
          "type": "address"
        }
      ],
      "name": "spents",
      "outputs": [
        {
          "internalType": "uint256",
          "name": "",
          "type": "uint256"
        }
      ],
      "stateMutability": "view",
      "type": "function"
    },
    {
      "inputs": [
        {
          "internalType": "address",
          "name": "newOwner",
          "type": "address"
        }
      ],
      "name": "transferOwnership",
      "outputs": [],
      "stateMutability": "nonpayable",
      "type": "function"
    }
  ],
  "bytecode": "0x60806040523480156200001157600080fd5b5060405162002140380380620021408339818101604052810190620000379190620005cc565b620000576200004b620004d260201b60201c565b620004da60201b60201c565b600073ffffffffffffffffffffffffffffffffffffffff168673ffffffffffffffffffffffffffffffffffffffff1614158015620000c25750600073ffffffffffffffffffffffffffffffffffffffff168573ffffffffffffffffffffffffffffffffffffffff1614155b8015620000fc5750600073ffffffffffffffffffffffffffffffffffffffff168373ffffffffffffffffffffffffffffffffffffffff1614155b8015620001365750600073ffffffffffffffffffffffffffffffffffffffff168473ffffffffffffffffffffffffffffffffffffffff1614155b8015620001705750600073ffffffffffffffffffffffffffffffffffffffff168273ffffffffffffffffffffffffffffffffffffffff1614155b620001b2576040517f08c379a0000000000000000000000000000000000000000000000000000000008152600401620001a99062000708565b60405180910390fd5b8273ffffffffffffffffffffffffffffffffffffffff168573ffffffffffffffffffffffffffffffffffffffff16141562000224576040517f08c379a00000000000000000000000000000000000000000000000000000000081526004016200021b90620006e6565b60405180910390fd5b8573ffffffffffffffffffffffffffffffffffffffff168573ffffffffffffffffffffffffffffffffffffffff16141562000296576040517f08c379a00000000000000000000000000000000000000000000000000000000081526004016200028d90620006e6565b60405180910390fd5b8373ffffffffffffffffffffffffffffffffffffffff168573ffffffffffffffffffffffffffffffffffffffff16141562000308576040517f08c379a0000000000000000000000000000000000000000000000000000000008152600401620002ff90620006e6565b60405180910390fd5b8173ffffffffffffffffffffffffffffffffffffffff168573ffffffffffffffffffffffffffffffffffffffff1614156200037a576040517f08c379a00000000000000000000000000000000000000000000000000000000081526004016200037190620006e6565b60405180910390fd5b84600160006101000a81548173ffffffffffffffffffffffffffffffffffffffff021916908373ffffffffffffffffffffffffffffffffffffffff16021790555083600260006101000a81548173ffffffffffffffffffffffffffffffffffffffff021916908373ffffffffffffffffffffffffffffffffffffffff16021790555082600360006101000a81548173ffffffffffffffffffffffffffffffffffffffff021916908373ffffffffffffffffffffffffffffffffffffffff16021790555081600460006101000a81548173ffffffffffffffffffffffffffffffffffffffff021916908373ffffffffffffffffffffffffffffffffffffffff16021790555085600560006101000a81548173ffffffffffffffffffffffffffffffffffffffff021916908373ffffffffffffffffffffffffffffffffffffffff16021790555080600681905550505050505050620007ad565b600033905090565b60008060009054906101000a900473ffffffffffffffffffffffffffffffffffffffff169050816000806101000a81548173ffffffffffffffffffffffffffffffffffffffff021916908373ffffffffffffffffffffffffffffffffffffffff1602179055508173ffffffffffffffffffffffffffffffffffffffff168173ffffffffffffffffffffffffffffffffffffffff167f8be0079c531659141344cd1fd0a4f28419497f9722a3daafe3b4186f6b6457e060405160405180910390a35050565b600081519050620005af8162000779565b92915050565b600081519050620005c68162000793565b92915050565b60008060008060008060c08789031215620005e657600080fd5b6000620005f689828a016200059e565b96505060206200060989828a016200059e565b95505060406200061c89828a016200059e565b94505060606200062f89828a016200059e565b93505060806200064289828a016200059e565b92505060a06200065589828a01620005b5565b9150509295509295509295565b6000620006716018836200072a565b91507f4c69676874686f7573653a2053414d455f4144445245535300000000000000006000830152602082019050919050565b6000620006b36018836200072a565b91507f4c69676874686f7573653a205a45524f5f4144445245535300000000000000006000830152602082019050919050565b60006020820190508181036000830152620007018162000662565b9050919050565b600060208201905081810360008301526200072381620006a4565b9050919050565b600082825260208201905092915050565b600062000748826200074f565b9050919050565b600073ffffffffffffffffffffffffffffffffffffffff82169050919050565b6000819050919050565b62000784816200073b565b81146200079057600080fd5b50565b6200079e816200076f565b8114620007aa57600080fd5b50565b61198380620007bd6000396000f3fe608060405234801561001057600080fd5b50600436106100885760003560e01c8063e7481fb31161005b578063e7481fb314610103578063f2fde38b14610133578063f30188631461014f578063f8536b941461016b57610088565b8063715018a61461008d5780638da5cb5b146100975780639eefc7b1146100b5578063adc879e9146100e5575b600080fd5b61009561019b565b005b61009f610223565b6040516100ac919061154b565b60405180910390f35b6100cf60048036038101906100ca9190610fa2565b61024c565b6040516100dc919061176f565b60405180910390f35b6100ed6102a7565b6040516100fa919061176f565b60405180910390f35b61011d60048036038101906101189190610fa2565b6102ad565b60405161012a919061176f565b60405180910390f35b61014d60048036038101906101489190610f27565b6102d2565b005b6101696004803603810190610164919061101a565b6103ca565b005b61018560048036038101906101809190610fa2565b610d6b565b604051610192919061158f565b60405180910390f35b6101a3610dc8565b73ffffffffffffffffffffffffffffffffffffffff166101c1610223565b73ffffffffffffffffffffffffffffffffffffffff1614610217576040517f08c379a000000000000000000000000000000000000000000000000000000000815260040161020e906116af565b60405180910390fd5b6102216000610dd0565b565b60008060009054906101000a900473ffffffffffffffffffffffffffffffffffffffff16905090565b60006007600084815260200190815260200160002060008373ffffffffffffffffffffffffffffffffffffffff1673ffffffffffffffffffffffffffffffffffffffff16815260200190815260200160002054905092915050565b60065481565b6007602052816000526040600020602052806000526040600020600091509150505481565b6102da610dc8565b73ffffffffffffffffffffffffffffffffffffffff166102f8610223565b73ffffffffffffffffffffffffffffffffffffffff161461034e576040517f08c379a0000000000000000000000000000000000000000000000000000000008152600401610345906116af565b60405180910390fd5b600073ffffffffffffffffffffffffffffffffffffffff168173ffffffffffffffffffffffffffffffffffffffff1614156103be576040517f08c379a00000000000000000000000000000000000000000000000000000000081526004016103b5906115ef565b60405180910390fd5b6103c781610dd0565b50565b600460009054906101000a900473ffffffffffffffffffffffffffffffffffffffff1673ffffffffffffffffffffffffffffffffffffffff166364507efc866040518263ffffffff1660e01b8152600401610425919061176f565b60206040518083038186803b15801561043d57600080fd5b505afa158015610451573d6000803e3d6000fd5b505050506040513d601f19601f820116820180604052508101906104759190610f79565b6104b4576040517f08c379a00000000000000000000000000000000000000000000000000000000081526004016104ab906116ef565b60405180910390fd5b600460009054906101000a900473ffffffffffffffffffffffffffffffffffffffff1673ffffffffffffffffffffffffffffffffffffffff1663b22e912b866040518263ffffffff1660e01b815260040161050f919061176f565b60206040518083038186803b15801561052757600080fd5b505afa15801561053b573d6000803e3d6000fd5b505050506040513d601f19601f8201168201806040525081019061055f9190610f79565b61059e576040517f08c379a00000000000000000000000000000000000000000000000000000000081526004016105959061170f565b60405180910390fd5b6105a88533610d6b565b156105e8576040517f08c379a00000000000000000000000000000000000000000000000000000000081526004016105df9061160f565b60405180910390fd5b600080600460009054906101000a900473ffffffffffffffffffffffffffffffffffffffff1673ffffffffffffffffffffffffffffffffffffffff166324d2cb17886040518263ffffffff1660e01b8152600401610646919061176f565b604080518083038186803b15801561065d57600080fd5b505afa158015610671573d6000803e3d6000fd5b505050506040513d601f19601f820116820180604052508101906106959190610fde565b8092508193505050814210156106e0576040517f08c379a00000000000000000000000000000000000000000000000000000000081526004016106d79061166f565b60405180910390fd5b80421115610723576040517f08c379a000000000000000000000000000000000000000000000000000000000815260040161071a9061174f565b60405180910390fd5b5050600260009054906101000a900473ffffffffffffffffffffffffffffffffffffffff1673ffffffffffffffffffffffffffffffffffffffff16638c817b6e86336040518363ffffffff1660e01b815260040161078292919061178a565b60206040518083038186803b15801561079a57600080fd5b505afa1580156107ae573d6000803e3d6000fd5b505050506040513d601f19601f820116820180604052508101906107d29190610f79565b610811576040517f08c379a00000000000000000000000000000000000000000000000000000000081526004016108089061162f565b60405180910390fd5b600360009054906101000a900473ffffffffffffffffffffffffffffffffffffffff1673ffffffffffffffffffffffffffffffffffffffff166302deed0386336040518363ffffffff1660e01b815260040161086e92919061178a565b60206040518083038186803b15801561088657600080fd5b505afa15801561089a573d6000803e3d6000fd5b505050506040513d601f19601f820116820180604052508101906108be9190610f79565b156108fe576040517f08c379a00000000000000000000000000000000000000000000000000000000081526004016108f59061168f565b60405180910390fd5b60008411610941576040517f08c379a0000000000000000000000000000000000000000000000000000000008152600401610938906116cf565b60405180910390fd5b60006040518060400160405280601c81526020017f19457468657265756d205369676e6564204d6573736167653a0a33320000000081525090506000333088886006546040516020016109989594939291906114c4565b604051602081830303815290604052805190602001209050600082826040516020016109c5929190611523565b604051602081830303815290604052805190602001209050600060018288888860405160008152602001604052604051610a0294939291906115aa565b6020604051602081039080840390855afa158015610a24573d6000803e3d6000fd5b505050602060405103519050600460009054906101000a900473ffffffffffffffffffffffffffffffffffffffff1673ffffffffffffffffffffffffffffffffffffffff1663b60da0856040518163ffffffff1660e01b815260040160206040518083038186803b158015610a9857600080fd5b505afa158015610aac573d6000803e3d6000fd5b505050506040513d601f19601f82011682018060405250810190610ad09190610f50565b73ffffffffffffffffffffffffffffffffffffffff168173ffffffffffffffffffffffffffffffffffffffff1614610b3d576040517f08c379a0000000000000000000000000000000000000000000000000000000008152600401610b349061164f565b60405180910390fd5b600560009054906101000a900473ffffffffffffffffffffffffffffffffffffffff1673ffffffffffffffffffffffffffffffffffffffff16636aade288338a6040518363ffffffff1660e01b8152600401610b9a929190611566565b602060405180830381600087803b158015610bb457600080fd5b505af1158015610bc8573d6000803e3d6000fd5b505050506040513d601f19601f82011682018060405250810190610bec9190610f79565b610c2b576040517f08c379a0000000000000000000000000000000000000000000000000000000008152600401610c229061172f565b60405180910390fd5b600460009054906101000a900473ffffffffffffffffffffffffffffffffffffffff1673ffffffffffffffffffffffffffffffffffffffff166341e0f1b18a8a6040518363ffffffff1660e01b8152600401610c889291906117b3565b600060405180830381600087803b158015610ca257600080fd5b505af1158015610cb6573d6000803e3d6000fd5b5050505087600760008b815260200190815260200160002060003373ffffffffffffffffffffffffffffffffffffffff1673ffffffffffffffffffffffffffffffffffffffff168152602001908152602001600020819055503373ffffffffffffffffffffffffffffffffffffffff16897f0c084a98097a12b06afc1944617ea8d4b2efde50755080245bd7c9019cfb539d8a42604051610d589291906117b3565b60405180910390a3505050505050505050565b6000806007600085815260200190815260200160002060008473ffffffffffffffffffffffffffffffffffffffff1673ffffffffffffffffffffffffffffffffffffffff1681526020019081526020016000205411905092915050565b600033905090565b60008060009054906101000a900473ffffffffffffffffffffffffffffffffffffffff169050816000806101000a81548173ffffffffffffffffffffffffffffffffffffffff021916908373ffffffffffffffffffffffffffffffffffffffff1602179055508173ffffffffffffffffffffffffffffffffffffffff168173ffffffffffffffffffffffffffffffffffffffff167f8be0079c531659141344cd1fd0a4f28419497f9722a3daafe3b4186f6b6457e060405160405180910390a35050565b600081359050610ea3816118da565b92915050565b600081519050610eb8816118da565b92915050565b600081519050610ecd816118f1565b92915050565b600081359050610ee281611908565b92915050565b600081359050610ef78161191f565b92915050565b600081519050610f0c8161191f565b92915050565b600081359050610f2181611936565b92915050565b600060208284031215610f3957600080fd5b6000610f4784828501610e94565b91505092915050565b600060208284031215610f6257600080fd5b6000610f7084828501610ea9565b91505092915050565b600060208284031215610f8b57600080fd5b6000610f9984828501610ebe565b91505092915050565b60008060408385031215610fb557600080fd5b6000610fc385828601610ee8565b9250506020610fd485828601610e94565b9150509250929050565b60008060408385031215610ff157600080fd5b6000610fff85828601610efd565b925050602061101085828601610efd565b9150509250929050565b600080600080600060a0868803121561103257600080fd5b600061104088828901610ee8565b955050602061105188828901610ee8565b945050604061106288828901610f12565b935050606061107388828901610ed3565b925050608061108488828901610ed3565b9150509295509295909350565b61109a81611803565b82525050565b6110b16110ac82611803565b611895565b82525050565b6110c081611815565b82525050565b6110cf81611821565b82525050565b6110e66110e182611821565b6118a7565b82525050565b60006110f7826117dc565b61110181856117e7565b9350611111818560208601611862565b80840191505092915050565b600061112a6026836117f2565b91507f4f776e61626c653a206e6577206f776e657220697320746865207a65726f206160008301527f64647265737300000000000000000000000000000000000000000000000000006020830152604082019050919050565b60006111906020836117f2565b91507f4c69676874686f7573653a20414c52454144595f5041525449434950415445446000830152602082019050919050565b60006111d0601a836117f2565b91507f4c69676874686f7573653a204e4f545f524547495354455245440000000000006000830152602082019050919050565b6000611210600f836117f2565b91507f4c69676874686f7573653a2053494700000000000000000000000000000000006000830152602082019050919050565b6000611250601b836117f2565b91507f4c69676874686f7573653a204e4f545f535441525445445f59455400000000006000830152602082019050919050565b60006112906015836117f2565b91507f4c69676874686f7573653a2050524546554e44454400000000000000000000006000830152602082019050919050565b60006112d06020836117f2565b91507f4f776e61626c653a2063616c6c6572206973206e6f7420746865206f776e65726000830152602082019050919050565b60006113106016836117f2565b91507f4c69676874686f7573653a205a45524f5f56414c5545000000000000000000006000830152602082019050919050565b60006113506023836117f2565b91507f4c69676874686f7573653a2041554354494f4e5f4e4f545f494e495449414c4960008301527f5a454400000000000000000000000000000000000000000000000000000000006020830152604082019050919050565b60006113b66027836117f2565b91507f4c69676874686f7573653a204e4f545f5452414e534645525245445f5052454660008301527f554e445f594554000000000000000000000000000000000000000000000000006020830152604082019050919050565b600061141c6017836117f2565b91507f4c69676874686f7573653a204357535f554e5350454e440000000000000000006000830152602082019050919050565b600061145c6014836117f2565b91507f4c69676874686f7573653a2046494e49534845440000000000000000000000006000830152602082019050919050565b6114988161184b565b82525050565b6114af6114aa8261184b565b6118c3565b82525050565b6114be81611855565b82525050565b60006114d082886110a0565b6014820191506114e082876110a0565b6014820191506114f0828661149e565b602082019150611500828561149e565b602082019150611510828461149e565b6020820191508190509695505050505050565b600061152f82856110ec565b915061153b82846110d5565b6020820191508190509392505050565b60006020820190506115606000830184611091565b92915050565b600060408201905061157b6000830185611091565b611588602083018461148f565b9392505050565b60006020820190506115a460008301846110b7565b92915050565b60006080820190506115bf60008301876110c6565b6115cc60208301866114b5565b6115d960408301856110c6565b6115e660608301846110c6565b95945050505050565b600060208201905081810360008301526116088161111d565b9050919050565b6000602082019050818103600083015261162881611183565b9050919050565b60006020820190508181036000830152611648816111c3565b9050919050565b6000602082019050818103600083015261166881611203565b9050919050565b6000602082019050818103600083015261168881611243565b9050919050565b600060208201905081810360008301526116a881611283565b9050919050565b600060208201905081810360008301526116c8816112c3565b9050919050565b600060208201905081810360008301526116e881611303565b9050919050565b6000602082019050818103600083015261170881611343565b9050919050565b60006020820190508181036000830152611728816113a9565b9050919050565b600060208201905081810360008301526117488161140f565b9050919050565b600060208201905081810360008301526117688161144f565b9050919050565b6000602082019050611784600083018461148f565b92915050565b600060408201905061179f600083018561148f565b6117ac6020830184611091565b9392505050565b60006040820190506117c8600083018561148f565b6117d5602083018461148f565b9392505050565b600081519050919050565b600081905092915050565b600082825260208201905092915050565b600061180e8261182b565b9050919050565b60008115159050919050565b6000819050919050565b600073ffffffffffffffffffffffffffffffffffffffff82169050919050565b6000819050919050565b600060ff82169050919050565b60005b83811015611880578082015181840152602081019050611865565b8381111561188f576000848401525b50505050565b60006118a0826118b1565b9050919050565b6000819050919050565b60006118bc826118cd565b9050919050565b6000819050919050565b60008160601b9050919050565b6118e381611803565b81146118ee57600080fd5b50565b6118fa81611815565b811461190557600080fd5b50565b61191181611821565b811461191c57600080fd5b50565b6119288161184b565b811461193357600080fd5b50565b61193f81611855565b811461194a57600080fd5b5056fea2646970667358221220589161f6341dd03f4f9cda51e7350773236c3bbfd19c2036aad22dde351c75e664736f6c63430008000033",
  "linkReferences": {},
  "deployedLinkReferences": {}
}