{
  "_format": "hh-sol-artifact-1",
  "contractName": "LighthouseAuction",
  "sourceName": "contracts/LighthouseAuction.sol",
  "abi": [
    {
      "inputs": [
        {
          "internalType": "address",
          "name": "_crowns",
          "type": "address"
        },
        {
          "internalType": "address",
          "name": "tier",
          "type": "address"
        },
        {
          "internalType": "address",
          "name": "submission",
          "type": "address"
        },
        {
          "internalType": "address",
          "name": "prefund",
          "type": "address"
        },
        {
          "internalType": "address",
          "name": "project",
          "type": "address"
        },
        {
          "internalType": "uint256",
          "name": "_chainID",
          "type": "uint256"
        }
      ],
      "stateMutability": "nonpayable",
      "type": "constructor"
    },
    {
      "anonymous": false,
      "inputs": [
        {
          "indexed": true,
          "internalType": "address",
          "name": "previousOwner",
          "type": "address"
        },
        {
          "indexed": true,
          "internalType": "address",
          "name": "newOwner",
          "type": "address"
        }
      ],
      "name": "OwnershipTransferred",
      "type": "event"
    },
    {
      "anonymous": false,
      "inputs": [
        {
          "indexed": true,
          "internalType": "uint256",
          "name": "projectId",
          "type": "uint256"
        },
        {
          "indexed": true,
          "internalType": "address",
          "name": "participant",
          "type": "address"
        },
        {
          "indexed": false,
          "internalType": "uint256",
          "name": "amount",
          "type": "uint256"
        },
        {
          "indexed": false,
          "internalType": "uint256",
          "name": "time",
          "type": "uint256"
        }
      ],
      "name": "Participate",
      "type": "event"
    },
    {
      "inputs": [],
      "name": "chainID",
      "outputs": [
        {
          "internalType": "uint256",
          "name": "",
          "type": "uint256"
        }
      ],
      "stateMutability": "view",
      "type": "function"
    },
    {
      "inputs": [
        {
          "internalType": "uint256",
          "name": "projectId",
          "type": "uint256"
        },
        {
          "internalType": "address",
          "name": "investor",
          "type": "address"
        }
      ],
      "name": "getSpent",
      "outputs": [
        {
          "internalType": "uint256",
          "name": "",
          "type": "uint256"
        }
      ],
      "stateMutability": "view",
      "type": "function"
    },
    {
      "inputs": [],
      "name": "owner",
      "outputs": [
        {
          "internalType": "address",
          "name": "",
          "type": "address"
        }
      ],
      "stateMutability": "view",
      "type": "function"
    },
    {
      "inputs": [
        {
          "internalType": "uint256",
          "name": "projectId",
          "type": "uint256"
        },
        {
          "internalType": "uint256",
          "name": "amount",
          "type": "uint256"
        },
        {
          "internalType": "uint8",
          "name": "v",
          "type": "uint8"
        },
        {
          "internalType": "bytes32",
          "name": "r",
          "type": "bytes32"
        },
        {
          "internalType": "bytes32",
          "name": "s",
          "type": "bytes32"
        }
      ],
      "name": "participate",
      "outputs": [],
      "stateMutability": "nonpayable",
      "type": "function"
    },
    {
      "inputs": [
        {
          "internalType": "uint256",
          "name": "projectId",
          "type": "uint256"
        },
        {
          "internalType": "address",
          "name": "investor",
          "type": "address"
        }
      ],
      "name": "participated",
      "outputs": [
        {
          "internalType": "bool",
          "name": "",
          "type": "bool"
        }
      ],
      "stateMutability": "view",
      "type": "function"
    },
    {
      "inputs": [],
      "name": "renounceOwnership",
      "outputs": [],
      "stateMutability": "nonpayable",
      "type": "function"
    },
    {
      "inputs": [
        {
          "internalType": "uint256",
          "name": "",
          "type": "uint256"
        },
        {
          "internalType": "address",
          "name": "",
          "type": "address"
        }
      ],
      "name": "spents",
      "outputs": [
        {
          "internalType": "uint256",
          "name": "",
          "type": "uint256"
        }
      ],
      "stateMutability": "view",
      "type": "function"
    },
    {
      "inputs": [
        {
          "internalType": "address",
          "name": "newOwner",
          "type": "address"
        }
      ],
      "name": "transferOwnership",
      "outputs": [],
      "stateMutability": "nonpayable",
      "type": "function"
    }
  ],
  "bytecode": "0x60806040523480156200001157600080fd5b5060405162002333380380620023338339818101604052810190620000379190620005cc565b620000576200004b620004d260201b60201c565b620004da60201b60201c565b600073ffffffffffffffffffffffffffffffffffffffff168673ffffffffffffffffffffffffffffffffffffffff1614158015620000c25750600073ffffffffffffffffffffffffffffffffffffffff168573ffffffffffffffffffffffffffffffffffffffff1614155b8015620000fc5750600073ffffffffffffffffffffffffffffffffffffffff168373ffffffffffffffffffffffffffffffffffffffff1614155b8015620001365750600073ffffffffffffffffffffffffffffffffffffffff168473ffffffffffffffffffffffffffffffffffffffff1614155b8015620001705750600073ffffffffffffffffffffffffffffffffffffffff168273ffffffffffffffffffffffffffffffffffffffff1614155b620001b2576040517f08c379a0000000000000000000000000000000000000000000000000000000008152600401620001a99062000708565b60405180910390fd5b8273ffffffffffffffffffffffffffffffffffffffff168573ffffffffffffffffffffffffffffffffffffffff16141562000224576040517f08c379a00000000000000000000000000000000000000000000000000000000081526004016200021b90620006e6565b60405180910390fd5b8573ffffffffffffffffffffffffffffffffffffffff168573ffffffffffffffffffffffffffffffffffffffff16141562000296576040517f08c379a00000000000000000000000000000000000000000000000000000000081526004016200028d90620006e6565b60405180910390fd5b8373ffffffffffffffffffffffffffffffffffffffff168573ffffffffffffffffffffffffffffffffffffffff16141562000308576040517f08c379a0000000000000000000000000000000000000000000000000000000008152600401620002ff90620006e6565b60405180910390fd5b8173ffffffffffffffffffffffffffffffffffffffff168573ffffffffffffffffffffffffffffffffffffffff1614156200037a576040517f08c379a00000000000000000000000000000000000000000000000000000000081526004016200037190620006e6565b60405180910390fd5b84600160006101000a81548173ffffffffffffffffffffffffffffffffffffffff021916908373ffffffffffffffffffffffffffffffffffffffff16021790555083600260006101000a81548173ffffffffffffffffffffffffffffffffffffffff021916908373ffffffffffffffffffffffffffffffffffffffff16021790555082600360006101000a81548173ffffffffffffffffffffffffffffffffffffffff021916908373ffffffffffffffffffffffffffffffffffffffff16021790555081600460006101000a81548173ffffffffffffffffffffffffffffffffffffffff021916908373ffffffffffffffffffffffffffffffffffffffff16021790555085600560006101000a81548173ffffffffffffffffffffffffffffffffffffffff021916908373ffffffffffffffffffffffffffffffffffffffff16021790555080600681905550505050505050620007ad565b600033905090565b60008060009054906101000a900473ffffffffffffffffffffffffffffffffffffffff169050816000806101000a81548173ffffffffffffffffffffffffffffffffffffffff021916908373ffffffffffffffffffffffffffffffffffffffff1602179055508173ffffffffffffffffffffffffffffffffffffffff168173ffffffffffffffffffffffffffffffffffffffff167f8be0079c531659141344cd1fd0a4f28419497f9722a3daafe3b4186f6b6457e060405160405180910390a35050565b600081519050620005af8162000779565b92915050565b600081519050620005c68162000793565b92915050565b60008060008060008060c08789031215620005e657600080fd5b6000620005f689828a016200059e565b96505060206200060989828a016200059e565b95505060406200061c89828a016200059e565b94505060606200062f89828a016200059e565b93505060806200064289828a016200059e565b92505060a06200065589828a01620005b5565b9150509295509295509295565b6000620006716018836200072a565b91507f4c69676874686f7573653a2053414d455f4144445245535300000000000000006000830152602082019050919050565b6000620006b36018836200072a565b91507f4c69676874686f7573653a205a45524f5f4144445245535300000000000000006000830152602082019050919050565b60006020820190508181036000830152620007018162000662565b9050919050565b600060208201905081810360008301526200072381620006a4565b9050919050565b600082825260208201905092915050565b600062000748826200074f565b9050919050565b600073ffffffffffffffffffffffffffffffffffffffff82169050919050565b6000819050919050565b62000784816200073b565b81146200079057600080fd5b50565b6200079e816200076f565b8114620007aa57600080fd5b50565b611b7680620007bd6000396000f3fe608060405234801561001057600080fd5b50600436106100885760003560e01c8063e7481fb31161005b578063e7481fb314610103578063f2fde38b14610133578063f30188631461014f578063f8536b941461016b57610088565b8063715018a61461008d5780638da5cb5b146100975780639eefc7b1146100b5578063adc879e9146100e5575b600080fd5b61009561019b565b005b61009f610223565b6040516100ac9190611700565b60405180910390f35b6100cf60048036038101906100ca919061111e565b61024c565b6040516100dc9190611946565b60405180910390f35b6100ed6102a7565b6040516100fa9190611946565b60405180910390f35b61011d6004803603810190610118919061111e565b6102ad565b60405161012a9190611946565b60405180910390f35b61014d600480360381019061014891906110a3565b6102d2565b005b61016960048036038101906101649190611196565b6103ca565b005b6101856004803603810190610180919061111e565b610e25565b6040516101929190611744565b60405180910390f35b6101a3610e82565b73ffffffffffffffffffffffffffffffffffffffff166101c1610223565b73ffffffffffffffffffffffffffffffffffffffff1614610217576040517f08c379a000000000000000000000000000000000000000000000000000000000815260040161020e90611886565b60405180910390fd5b6102216000610e8a565b565b60008060009054906101000a900473ffffffffffffffffffffffffffffffffffffffff16905090565b60006007600084815260200190815260200160002060008373ffffffffffffffffffffffffffffffffffffffff1673ffffffffffffffffffffffffffffffffffffffff16815260200190815260200160002054905092915050565b60065481565b6007602052816000526040600020602052806000526040600020600091509150505481565b6102da610e82565b73ffffffffffffffffffffffffffffffffffffffff166102f8610223565b73ffffffffffffffffffffffffffffffffffffffff161461034e576040517f08c379a000000000000000000000000000000000000000000000000000000000815260040161034590611886565b60405180910390fd5b600073ffffffffffffffffffffffffffffffffffffffff168173ffffffffffffffffffffffffffffffffffffffff1614156103be576040517f08c379a00000000000000000000000000000000000000000000000000000000081526004016103b5906117c6565b60405180910390fd5b6103c781610e8a565b50565b6104086040518060400160405280601181526020017f56616c69646174656420636865636b6564000000000000000000000000000000815250610f4e565b600460009054906101000a900473ffffffffffffffffffffffffffffffffffffffff1673ffffffffffffffffffffffffffffffffffffffff166364507efc866040518263ffffffff1660e01b81526004016104639190611946565b60206040518083038186803b15801561047b57600080fd5b505afa15801561048f573d6000803e3d6000fd5b505050506040513d601f19601f820116820180604052508101906104b391906110f5565b6104f2576040517f08c379a00000000000000000000000000000000000000000000000000000000081526004016104e9906118c6565b60405180910390fd5b600460009054906101000a900473ffffffffffffffffffffffffffffffffffffffff1673ffffffffffffffffffffffffffffffffffffffff1663b22e912b866040518263ffffffff1660e01b815260040161054d9190611946565b60206040518083038186803b15801561056557600080fd5b505afa158015610579573d6000803e3d6000fd5b505050506040513d601f19601f8201168201806040525081019061059d91906110f5565b6105dc576040517f08c379a00000000000000000000000000000000000000000000000000000000081526004016105d3906118e6565b60405180910390fd5b6105e68533610e25565b15610626576040517f08c379a000000000000000000000000000000000000000000000000000000000815260040161061d906117e6565b60405180910390fd5b6106646040518060400160405280601181526020017f56616c69646174656420636865636b6564000000000000000000000000000000815250610f4e565b600080600460009054906101000a900473ffffffffffffffffffffffffffffffffffffffff1673ffffffffffffffffffffffffffffffffffffffff166324d2cb17886040518263ffffffff1660e01b81526004016106c29190611946565b604080518083038186803b1580156106d957600080fd5b505afa1580156106ed573d6000803e3d6000fd5b505050506040513d601f19601f82011682018060405250810190610711919061115a565b80925081935050508142101561075c576040517f08c379a000000000000000000000000000000000000000000000000000000000815260040161075390611846565b60405180910390fd5b8042111561079f576040517f08c379a000000000000000000000000000000000000000000000000000000000815260040161079690611926565b60405180910390fd5b50506107df6040518060400160405280600c81526020017f54696d6520636865636b65640000000000000000000000000000000000000000815250610f4e565b600260009054906101000a900473ffffffffffffffffffffffffffffffffffffffff1673ffffffffffffffffffffffffffffffffffffffff16638c817b6e86336040518363ffffffff1660e01b815260040161083c929190611961565b60206040518083038186803b15801561085457600080fd5b505afa158015610868573d6000803e3d6000fd5b505050506040513d601f19601f8201168201806040525081019061088c91906110f5565b6108cb576040517f08c379a00000000000000000000000000000000000000000000000000000000081526004016108c290611806565b60405180910390fd5b600360009054906101000a900473ffffffffffffffffffffffffffffffffffffffff1673ffffffffffffffffffffffffffffffffffffffff166302deed0386336040518363ffffffff1660e01b8152600401610928929190611961565b60206040518083038186803b15801561094057600080fd5b505afa158015610954573d6000803e3d6000fd5b505050506040513d601f19601f8201168201806040525081019061097891906110f5565b156109b8576040517f08c379a00000000000000000000000000000000000000000000000000000000081526004016109af90611866565b60405180910390fd5b600084116109fb576040517f08c379a00000000000000000000000000000000000000000000000000000000081526004016109f2906118a6565b60405180910390fd5b60006040518060400160405280601c81526020017f19457468657265756d205369676e6564204d6573736167653a0a3332000000008152509050600033308888600654604051602001610a52959493929190611679565b60405160208183030381529060405280519060200120905060008282604051602001610a7f9291906116d8565b604051602081830303815290604052805190602001209050600060018288888860405160008152602001604052604051610abc949392919061175f565b6020604051602081039080840390855afa158015610ade573d6000803e3d6000fd5b505050602060405103519050600460009054906101000a900473ffffffffffffffffffffffffffffffffffffffff1673ffffffffffffffffffffffffffffffffffffffff1663b60da0856040518163ffffffff1660e01b815260040160206040518083038186803b158015610b5257600080fd5b505afa158015610b66573d6000803e3d6000fd5b505050506040513d601f19601f82011682018060405250810190610b8a91906110cc565b73ffffffffffffffffffffffffffffffffffffffff168173ffffffffffffffffffffffffffffffffffffffff1614610bf7576040517f08c379a0000000000000000000000000000000000000000000000000000000008152600401610bee90611826565b60405180910390fd5b600560009054906101000a900473ffffffffffffffffffffffffffffffffffffffff1673ffffffffffffffffffffffffffffffffffffffff16636aade288338a6040518363ffffffff1660e01b8152600401610c5492919061171b565b602060405180830381600087803b158015610c6e57600080fd5b505af1158015610c82573d6000803e3d6000fd5b505050506040513d601f19601f82011682018060405250810190610ca691906110f5565b610ce5576040517f08c379a0000000000000000000000000000000000000000000000000000000008152600401610cdc90611906565b60405180910390fd5b600460009054906101000a900473ffffffffffffffffffffffffffffffffffffffff1673ffffffffffffffffffffffffffffffffffffffff166341e0f1b18a8a6040518363ffffffff1660e01b8152600401610d4292919061198a565b600060405180830381600087803b158015610d5c57600080fd5b505af1158015610d70573d6000803e3d6000fd5b5050505087600760008b815260200190815260200160002060003373ffffffffffffffffffffffffffffffffffffffff1673ffffffffffffffffffffffffffffffffffffffff168152602001908152602001600020819055503373ffffffffffffffffffffffffffffffffffffffff16897f0c084a98097a12b06afc1944617ea8d4b2efde50755080245bd7c9019cfb539d8a42604051610e1292919061198a565b60405180910390a3505050505050505050565b6000806007600085815260200190815260200160002060008473ffffffffffffffffffffffffffffffffffffffff1673ffffffffffffffffffffffffffffffffffffffff1681526020019081526020016000205411905092915050565b600033905090565b60008060009054906101000a900473ffffffffffffffffffffffffffffffffffffffff169050816000806101000a81548173ffffffffffffffffffffffffffffffffffffffff021916908373ffffffffffffffffffffffffffffffffffffffff1602179055508173ffffffffffffffffffffffffffffffffffffffff168173ffffffffffffffffffffffffffffffffffffffff167f8be0079c531659141344cd1fd0a4f28419497f9722a3daafe3b4186f6b6457e060405160405180910390a35050565b610fe481604051602401610f6291906117a4565b6040516020818303038152906040527f41304fac000000000000000000000000000000000000000000000000000000007bffffffffffffffffffffffffffffffffffffffffffffffffffffffff19166020820180517bffffffffffffffffffffffffffffffffffffffffffffffffffffffff8381831617835250505050610fe7565b50565b60008151905060006a636f6e736f6c652e6c6f679050602083016000808483855afa5050505050565b60008135905061101f81611acd565b92915050565b60008151905061103481611acd565b92915050565b60008151905061104981611ae4565b92915050565b60008135905061105e81611afb565b92915050565b60008135905061107381611b12565b92915050565b60008151905061108881611b12565b92915050565b60008135905061109d81611b29565b92915050565b6000602082840312156110b557600080fd5b60006110c384828501611010565b91505092915050565b6000602082840312156110de57600080fd5b60006110ec84828501611025565b91505092915050565b60006020828403121561110757600080fd5b60006111158482850161103a565b91505092915050565b6000806040838503121561113157600080fd5b600061113f85828601611064565b925050602061115085828601611010565b9150509250929050565b6000806040838503121561116d57600080fd5b600061117b85828601611079565b925050602061118c85828601611079565b9150509250929050565b600080600080600060a086880312156111ae57600080fd5b60006111bc88828901611064565b95505060206111cd88828901611064565b94505060406111de8882890161108e565b93505060606111ef8882890161104f565b92505060806112008882890161104f565b9150509295509295909350565b611216816119e5565b82525050565b61122d611228826119e5565b611a77565b82525050565b61123c816119f7565b82525050565b61124b81611a03565b82525050565b61126261125d82611a03565b611a89565b82525050565b6000611273826119b3565b61127d81856119c9565b935061128d818560208601611a44565b80840191505092915050565b60006112a4826119be565b6112ae81856119d4565b93506112be818560208601611a44565b6112c781611aaf565b840191505092915050565b60006112df6026836119d4565b91507f4f776e61626c653a206e6577206f776e657220697320746865207a65726f206160008301527f64647265737300000000000000000000000000000000000000000000000000006020830152604082019050919050565b60006113456020836119d4565b91507f4c69676874686f7573653a20414c52454144595f5041525449434950415445446000830152602082019050919050565b6000611385601a836119d4565b91507f4c69676874686f7573653a204e4f545f524547495354455245440000000000006000830152602082019050919050565b60006113c5600f836119d4565b91507f4c69676874686f7573653a2053494700000000000000000000000000000000006000830152602082019050919050565b6000611405601b836119d4565b91507f4c69676874686f7573653a204e4f545f535441525445445f59455400000000006000830152602082019050919050565b60006114456015836119d4565b91507f4c69676874686f7573653a2050524546554e44454400000000000000000000006000830152602082019050919050565b60006114856020836119d4565b91507f4f776e61626c653a2063616c6c6572206973206e6f7420746865206f776e65726000830152602082019050919050565b60006114c56016836119d4565b91507f4c69676874686f7573653a205a45524f5f56414c5545000000000000000000006000830152602082019050919050565b60006115056023836119d4565b91507f4c69676874686f7573653a2041554354494f4e5f4e4f545f494e495449414c4960008301527f5a454400000000000000000000000000000000000000000000000000000000006020830152604082019050919050565b600061156b6027836119d4565b91507f4c69676874686f7573653a204e4f545f5452414e534645525245445f5052454660008301527f554e445f594554000000000000000000000000000000000000000000000000006020830152604082019050919050565b60006115d16017836119d4565b91507f4c69676874686f7573653a204357535f554e5350454e440000000000000000006000830152602082019050919050565b60006116116014836119d4565b91507f4c69676874686f7573653a2046494e49534845440000000000000000000000006000830152602082019050919050565b61164d81611a2d565b82525050565b61166461165f82611a2d565b611aa5565b82525050565b61167381611a37565b82525050565b6000611685828861121c565b601482019150611695828761121c565b6014820191506116a58286611653565b6020820191506116b58285611653565b6020820191506116c58284611653565b6020820191508190509695505050505050565b60006116e48285611268565b91506116f08284611251565b6020820191508190509392505050565b6000602082019050611715600083018461120d565b92915050565b6000604082019050611730600083018561120d565b61173d6020830184611644565b9392505050565b60006020820190506117596000830184611233565b92915050565b60006080820190506117746000830187611242565b611781602083018661166a565b61178e6040830185611242565b61179b6060830184611242565b95945050505050565b600060208201905081810360008301526117be8184611299565b905092915050565b600060208201905081810360008301526117df816112d2565b9050919050565b600060208201905081810360008301526117ff81611338565b9050919050565b6000602082019050818103600083015261181f81611378565b9050919050565b6000602082019050818103600083015261183f816113b8565b9050919050565b6000602082019050818103600083015261185f816113f8565b9050919050565b6000602082019050818103600083015261187f81611438565b9050919050565b6000602082019050818103600083015261189f81611478565b9050919050565b600060208201905081810360008301526118bf816114b8565b9050919050565b600060208201905081810360008301526118df816114f8565b9050919050565b600060208201905081810360008301526118ff8161155e565b9050919050565b6000602082019050818103600083015261191f816115c4565b9050919050565b6000602082019050818103600083015261193f81611604565b9050919050565b600060208201905061195b6000830184611644565b92915050565b60006040820190506119766000830185611644565b611983602083018461120d565b9392505050565b600060408201905061199f6000830185611644565b6119ac6020830184611644565b9392505050565b600081519050919050565b600081519050919050565b600081905092915050565b600082825260208201905092915050565b60006119f082611a0d565b9050919050565b60008115159050919050565b6000819050919050565b600073ffffffffffffffffffffffffffffffffffffffff82169050919050565b6000819050919050565b600060ff82169050919050565b60005b83811015611a62578082015181840152602081019050611a47565b83811115611a71576000848401525b50505050565b6000611a8282611a93565b9050919050565b6000819050919050565b6000611a9e82611ac0565b9050919050565b6000819050919050565b6000601f19601f8301169050919050565b60008160601b9050919050565b611ad6816119e5565b8114611ae157600080fd5b50565b611aed816119f7565b8114611af857600080fd5b50565b611b0481611a03565b8114611b0f57600080fd5b50565b611b1b81611a2d565b8114611b2657600080fd5b50565b611b3281611a37565b8114611b3d57600080fd5b5056fea26469706673582212202a587f743d6f9a282e2841a1033d0d26280a13f5ed1533977640fbfed05e98e464736f6c63430008000033",
  "linkReferences": {},
  "deployedLinkReferences": {}
}