{
  "_format": "hh-sol-artifact-1",
  "contractName": "LighthouseRegistration",
  "sourceName": "contracts/LighthouseRegistration.sol",
  "abi": [
    {
      "inputs": [
        {
          "internalType": "address",
          "name": "_lighthouseTier",
          "type": "address"
        },
        {
          "internalType": "address",
          "name": "_lighthouseProject",
          "type": "address"
        }
      ],
      "stateMutability": "nonpayable",
      "type": "constructor"
    },
    {
      "anonymous": false,
      "inputs": [
        {
          "indexed": true,
          "internalType": "address",
          "name": "previousOwner",
          "type": "address"
        },
        {
          "indexed": true,
          "internalType": "address",
          "name": "newOwner",
          "type": "address"
        }
      ],
      "name": "OwnershipTransferred",
      "type": "event"
    },
    {
      "anonymous": false,
      "inputs": [
        {
          "indexed": true,
          "internalType": "uint256",
          "name": "projectId",
          "type": "uint256"
        },
        {
          "indexed": true,
          "internalType": "address",
          "name": "participant",
          "type": "address"
        },
        {
          "indexed": true,
          "internalType": "uint256",
          "name": "registrationId",
          "type": "uint256"
        },
        {
          "indexed": false,
          "internalType": "uint256",
          "name": "registrationTime",
          "type": "uint256"
        }
      ],
      "name": "Register",
      "type": "event"
    },
    {
      "inputs": [],
      "name": "owner",
      "outputs": [
        {
          "internalType": "address",
          "name": "",
          "type": "address"
        }
      ],
      "stateMutability": "view",
      "type": "function"
    },
    {
      "inputs": [
        {
          "internalType": "uint256",
          "name": "",
          "type": "uint256"
        }
      ],
      "name": "participantsAmount",
      "outputs": [
        {
          "internalType": "uint256",
          "name": "",
          "type": "uint256"
        }
      ],
      "stateMutability": "view",
      "type": "function"
    },
    {
      "inputs": [
        {
          "internalType": "uint256",
          "name": "id",
          "type": "uint256"
        }
      ],
      "name": "register",
      "outputs": [],
      "stateMutability": "nonpayable",
      "type": "function"
    },
    {
      "inputs": [
        {
          "internalType": "uint256",
          "name": "id",
          "type": "uint256"
        },
        {
          "internalType": "address",
          "name": "investor",
          "type": "address"
        }
      ],
      "name": "registered",
      "outputs": [
        {
          "internalType": "bool",
          "name": "",
          "type": "bool"
        }
      ],
      "stateMutability": "view",
      "type": "function"
    },
    {
      "inputs": [
        {
          "internalType": "uint256",
          "name": "",
          "type": "uint256"
        },
        {
          "internalType": "address",
          "name": "",
          "type": "address"
        }
      ],
      "name": "registrations",
      "outputs": [
        {
          "internalType": "bool",
          "name": "",
          "type": "bool"
        }
      ],
      "stateMutability": "view",
      "type": "function"
    },
    {
      "inputs": [],
      "name": "renounceOwnership",
      "outputs": [],
      "stateMutability": "nonpayable",
      "type": "function"
    },
    {
      "inputs": [
        {
          "internalType": "address",
          "name": "newTier",
          "type": "address"
        }
      ],
      "name": "setLighthouseTier",
      "outputs": [],
      "stateMutability": "nonpayable",
      "type": "function"
    },
    {
      "inputs": [
        {
          "internalType": "address",
          "name": "newOwner",
          "type": "address"
        }
      ],
      "name": "transferOwnership",
      "outputs": [],
      "stateMutability": "nonpayable",
      "type": "function"
    }
  ],
  "bytecode": "0x60806040523480156200001157600080fd5b50604051620013a6380380620013a6833981810160405281019062000037919062000237565b620000576200004b6200015460201b60201c565b6200015c60201b60201c565b600073ffffffffffffffffffffffffffffffffffffffff168273ffffffffffffffffffffffffffffffffffffffff161415620000ca576040517f08c379a0000000000000000000000000000000000000000000000000000000008152600401620000c190620002ba565b60405180910390fd5b81600160006101000a81548173ffffffffffffffffffffffffffffffffffffffff021916908373ffffffffffffffffffffffffffffffffffffffff16021790555080600260006101000a81548173ffffffffffffffffffffffffffffffffffffffff021916908373ffffffffffffffffffffffffffffffffffffffff16021790555050506200033b565b600033905090565b60008060009054906101000a900473ffffffffffffffffffffffffffffffffffffffff169050816000806101000a81548173ffffffffffffffffffffffffffffffffffffffff021916908373ffffffffffffffffffffffffffffffffffffffff1602179055508173ffffffffffffffffffffffffffffffffffffffff168173ffffffffffffffffffffffffffffffffffffffff167f8be0079c531659141344cd1fd0a4f28419497f9722a3daafe3b4186f6b6457e060405160405180910390a35050565b600081519050620002318162000321565b92915050565b600080604083850312156200024b57600080fd5b60006200025b8582860162000220565b92505060206200026e8582860162000220565b9150509250929050565b600062000287601883620002dc565b91507f4c69676874686f7573653a205a45524f5f4144445245535300000000000000006000830152602082019050919050565b60006020820190508181036000830152620002d58162000278565b9050919050565b600082825260208201905092915050565b6000620002fa8262000301565b9050919050565b600073ffffffffffffffffffffffffffffffffffffffff82169050919050565b6200032c81620002ed565b81146200033857600080fd5b50565b61105b806200034b6000396000f3fe608060405234801561001057600080fd5b50600436106100885760003560e01c8063b1ed1e6c1161005b578063b1ed1e6c14610101578063d3df3ca114610131578063f207564e14610161578063f2fde38b1461017d57610088565b8063715018a61461008d5780638c817b6e146100975780638da5cb5b146100c7578063aee7a1ef146100e5575b600080fd5b610095610199565b005b6100b160048036038101906100ac9190610afc565b610221565b6040516100be9190610dc8565b60405180910390f35b6100cf61028e565b6040516100dc9190610dad565b60405180910390f35b6100ff60048036038101906100fa9190610a58565b6102b7565b005b61011b60048036038101906101169190610afc565b610377565b6040516101289190610dc8565b60405180910390f35b61014b60048036038101906101469190610ad3565b6103a6565b6040516101589190610ec3565b60405180910390f35b61017b60048036038101906101769190610ad3565b6103be565b005b61019760048036038101906101929190610a58565b61082b565b005b6101a1610923565b73ffffffffffffffffffffffffffffffffffffffff166101bf61028e565b73ffffffffffffffffffffffffffffffffffffffff1614610215576040517f08c379a000000000000000000000000000000000000000000000000000000000815260040161020c90610e83565b60405180910390fd5b61021f600061092b565b565b6000806004600085815260200190815260200160002060008473ffffffffffffffffffffffffffffffffffffffff1673ffffffffffffffffffffffffffffffffffffffff16815260200190815260200160002060009054906101000a900460ff1690508091505092915050565b60008060009054906101000a900473ffffffffffffffffffffffffffffffffffffffff16905090565b6102bf610923565b73ffffffffffffffffffffffffffffffffffffffff166102dd61028e565b73ffffffffffffffffffffffffffffffffffffffff1614610333576040517f08c379a000000000000000000000000000000000000000000000000000000000815260040161032a90610e83565b60405180910390fd5b80600160006101000a81548173ffffffffffffffffffffffffffffffffffffffff021916908373ffffffffffffffffffffffffffffffffffffffff16021790555050565b60046020528160005260406000206020528060005260406000206000915091509054906101000a900460ff1681565b60036020528060005260406000206000915090505481565b600260009054906101000a900473ffffffffffffffffffffffffffffffffffffffff1673ffffffffffffffffffffffffffffffffffffffff1663428ba893826040518263ffffffff1660e01b81526004016104199190610ec3565b60206040518083038186803b15801561043157600080fd5b505afa158015610445573d6000803e3d6000fd5b505050506040513d601f19601f820116820180604052508101906104699190610a81565b6104a8576040517f08c379a000000000000000000000000000000000000000000000000000000000815260040161049f90610e43565b60405180910390fd5b600080600260009054906101000a900473ffffffffffffffffffffffffffffffffffffffff1673ffffffffffffffffffffffffffffffffffffffff16632693b12c846040518263ffffffff1660e01b81526004016105069190610ec3565b604080518083038186803b15801561051d57600080fd5b505afa158015610531573d6000803e3d6000fd5b505050506040513d601f19601f820116820180604052508101906105559190610b38565b8092508193505050814210156105a0576040517f08c379a000000000000000000000000000000000000000000000000000000000815260040161059790610e63565b60405180910390fd5b804211156105e3576040517f08c379a00000000000000000000000000000000000000000000000000000000081526004016105da90610ea3565b60405180910390fd5b6105ed8333610221565b1561062d576040517f08c379a000000000000000000000000000000000000000000000000000000000815260040161062490610e03565b60405180910390fd5b6000600160009054906101000a900473ffffffffffffffffffffffffffffffffffffffff1673ffffffffffffffffffffffffffffffffffffffff166328fc4c3c336040518263ffffffff1660e01b815260040161068a9190610dad565b60206040518083038186803b1580156106a257600080fd5b505afa1580156106b6573d6000803e3d6000fd5b505050506040513d601f19601f820116820180604052508101906106da9190610aaa565b905060008160000b13610722576040517f08c379a000000000000000000000000000000000000000000000000000000000815260040161071990610e23565b60405180910390fd5b600160036000868152602001908152602001600020546107429190610eef565b600360008681526020019081526020016000208190555060016004600086815260200190815260200160002060003373ffffffffffffffffffffffffffffffffffffffff1673ffffffffffffffffffffffffffffffffffffffff16815260200190815260200160002060006101000a81548160ff02191690831515021790555060036000858152602001908152602001600020543373ffffffffffffffffffffffffffffffffffffffff16857f355a9111424ac3f2571bbdc61550eae14ca67ec2e98398b17be8a349c6b80be64260405161081d9190610ec3565b60405180910390a450505050565b610833610923565b73ffffffffffffffffffffffffffffffffffffffff1661085161028e565b73ffffffffffffffffffffffffffffffffffffffff16146108a7576040517f08c379a000000000000000000000000000000000000000000000000000000000815260040161089e90610e83565b60405180910390fd5b600073ffffffffffffffffffffffffffffffffffffffff168173ffffffffffffffffffffffffffffffffffffffff161415610917576040517f08c379a000000000000000000000000000000000000000000000000000000000815260040161090e90610de3565b60405180910390fd5b6109208161092b565b50565b600033905090565b60008060009054906101000a900473ffffffffffffffffffffffffffffffffffffffff169050816000806101000a81548173ffffffffffffffffffffffffffffffffffffffff021916908373ffffffffffffffffffffffffffffffffffffffff1602179055508173ffffffffffffffffffffffffffffffffffffffff168173ffffffffffffffffffffffffffffffffffffffff167f8be0079c531659141344cd1fd0a4f28419497f9722a3daafe3b4186f6b6457e060405160405180910390a35050565b6000813590506109fe81610fc9565b92915050565b600081519050610a1381610fe0565b92915050565b600081519050610a2881610ff7565b92915050565b600081359050610a3d8161100e565b92915050565b600081519050610a528161100e565b92915050565b600060208284031215610a6a57600080fd5b6000610a78848285016109ef565b91505092915050565b600060208284031215610a9357600080fd5b6000610aa184828501610a04565b91505092915050565b600060208284031215610abc57600080fd5b6000610aca84828501610a19565b91505092915050565b600060208284031215610ae557600080fd5b6000610af384828501610a2e565b91505092915050565b60008060408385031215610b0f57600080fd5b6000610b1d85828601610a2e565b9250506020610b2e858286016109ef565b9150509250929050565b60008060408385031215610b4b57600080fd5b6000610b5985828601610a43565b9250506020610b6a85828601610a43565b9150509250929050565b610b7d81610f45565b82525050565b610b8c81610f57565b82525050565b6000610b9f602683610ede565b91507f4f776e61626c653a206e6577206f776e657220697320746865207a65726f206160008301527f64647265737300000000000000000000000000000000000000000000000000006020830152604082019050919050565b6000610c05601e83610ede565b91507f4c69676874686f7573653a20414c52454144595f5245474953544552454400006000830152602082019050919050565b6000610c45601983610ede565b91507f4c69676874686f7573653a204e4f545f5155414c4946494544000000000000006000830152602082019050919050565b6000610c85602883610ede565b91507f4c69676874686f7573653a20524547495354524154494f4e5f4e4f545f494e4960008301527f5449414c495a45440000000000000000000000000000000000000000000000006020830152604082019050919050565b6000610ceb601b83610ede565b91507f4c69676874686f7573653a204e4f545f535441525445445f59455400000000006000830152602082019050919050565b6000610d2b602083610ede565b91507f4f776e61626c653a2063616c6c6572206973206e6f7420746865206f776e65726000830152602082019050919050565b6000610d6b601483610ede565b91507f4c69676874686f7573653a2046494e49534845440000000000000000000000006000830152602082019050919050565b610da781610f90565b82525050565b6000602082019050610dc26000830184610b74565b92915050565b6000602082019050610ddd6000830184610b83565b92915050565b60006020820190508181036000830152610dfc81610b92565b9050919050565b60006020820190508181036000830152610e1c81610bf8565b9050919050565b60006020820190508181036000830152610e3c81610c38565b9050919050565b60006020820190508181036000830152610e5c81610c78565b9050919050565b60006020820190508181036000830152610e7c81610cde565b9050919050565b60006020820190508181036000830152610e9c81610d1e565b9050919050565b60006020820190508181036000830152610ebc81610d5e565b9050919050565b6000602082019050610ed86000830184610d9e565b92915050565b600082825260208201905092915050565b6000610efa82610f90565b9150610f0583610f90565b9250827fffffffffffffffffffffffffffffffffffffffffffffffffffffffffffffffff03821115610f3a57610f39610f9a565b5b828201905092915050565b6000610f5082610f70565b9050919050565b60008115159050919050565b60008160000b9050919050565b600073ffffffffffffffffffffffffffffffffffffffff82169050919050565b6000819050919050565b7f4e487b7100000000000000000000000000000000000000000000000000000000600052601160045260246000fd5b610fd281610f45565b8114610fdd57600080fd5b50565b610fe981610f57565b8114610ff457600080fd5b50565b61100081610f63565b811461100b57600080fd5b50565b61101781610f90565b811461102257600080fd5b5056fea26469706673582212205841486553e0a43b489c575403efd8db2ab256f2b5b2a3de024e244dc4aa947364736f6c63430008000033",
  "linkReferences": {},
  "deployedLinkReferences": {}
}