{
  "_format": "hh-sol-artifact-1",
  "contractName": "LighthouseRegistration",
  "sourceName": "contracts/LighthouseRegistration.sol",
  "abi": [
    {
      "inputs": [
        {
          "internalType": "address",
          "name": "_lighthouseTier",
          "type": "address"
        },
        {
          "internalType": "address",
          "name": "_lighthouseProject",
          "type": "address"
        }
      ],
      "stateMutability": "nonpayable",
      "type": "constructor"
    },
    {
      "anonymous": false,
      "inputs": [
        {
          "indexed": true,
          "internalType": "address",
          "name": "previousOwner",
          "type": "address"
        },
        {
          "indexed": true,
          "internalType": "address",
          "name": "newOwner",
          "type": "address"
        }
      ],
      "name": "OwnershipTransferred",
      "type": "event"
    },
    {
      "anonymous": false,
      "inputs": [
        {
          "indexed": true,
          "internalType": "uint256",
          "name": "projectId",
          "type": "uint256"
        },
        {
          "indexed": true,
          "internalType": "address",
          "name": "participant",
          "type": "address"
        },
        {
          "indexed": true,
          "internalType": "uint256",
          "name": "registrationId",
          "type": "uint256"
        },
        {
          "indexed": false,
          "internalType": "uint256",
          "name": "registrationTime",
          "type": "uint256"
        }
      ],
      "name": "Register",
      "type": "event"
    },
    {
      "anonymous": false,
      "inputs": [
        {
          "indexed": true,
          "internalType": "uint256",
          "name": "projectId",
          "type": "uint256"
        },
        {
          "indexed": false,
          "internalType": "uint256",
          "name": "startTime",
          "type": "uint256"
        },
        {
          "indexed": false,
          "internalType": "uint256",
          "name": "endTime",
          "type": "uint256"
        }
      ],
      "name": "RegistrationOpen",
      "type": "event"
    },
    {
      "inputs": [],
      "name": "owner",
      "outputs": [
        {
          "internalType": "address",
          "name": "",
          "type": "address"
        }
      ],
      "stateMutability": "view",
      "type": "function"
    },
    {
      "inputs": [
        {
          "internalType": "uint256",
          "name": "",
          "type": "uint256"
        }
      ],
      "name": "participantsAmount",
      "outputs": [
        {
          "internalType": "uint256",
          "name": "",
          "type": "uint256"
        }
      ],
      "stateMutability": "view",
      "type": "function"
    },
    {
      "inputs": [
        {
          "internalType": "uint256",
          "name": "id",
          "type": "uint256"
        }
      ],
      "name": "register",
      "outputs": [],
      "stateMutability": "nonpayable",
      "type": "function"
    },
    {
      "inputs": [
        {
          "internalType": "uint256",
          "name": "id",
          "type": "uint256"
        },
        {
          "internalType": "address",
          "name": "investor",
          "type": "address"
        }
      ],
      "name": "registered",
      "outputs": [
        {
          "internalType": "bool",
          "name": "",
          "type": "bool"
        }
      ],
      "stateMutability": "view",
      "type": "function"
    },
    {
      "inputs": [
        {
          "internalType": "uint256",
          "name": "",
          "type": "uint256"
        },
        {
          "internalType": "address",
          "name": "",
          "type": "address"
        }
      ],
      "name": "registrations",
      "outputs": [
        {
          "internalType": "bool",
          "name": "",
          "type": "bool"
        }
      ],
      "stateMutability": "view",
      "type": "function"
    },
    {
      "inputs": [],
      "name": "renounceOwnership",
      "outputs": [],
      "stateMutability": "nonpayable",
      "type": "function"
    },
    {
      "inputs": [
        {
          "internalType": "address",
          "name": "newOwner",
          "type": "address"
        }
      ],
      "name": "transferOwnership",
      "outputs": [],
      "stateMutability": "nonpayable",
      "type": "function"
    }
  ],
  "bytecode": "0x60806040523480156200001157600080fd5b50604051620012bf380380620012bf833981810160405281019062000037919062000237565b620000576200004b6200015460201b60201c565b6200015c60201b60201c565b600073ffffffffffffffffffffffffffffffffffffffff168273ffffffffffffffffffffffffffffffffffffffff161415620000ca576040517f08c379a0000000000000000000000000000000000000000000000000000000008152600401620000c190620002ba565b60405180910390fd5b81600160006101000a81548173ffffffffffffffffffffffffffffffffffffffff021916908373ffffffffffffffffffffffffffffffffffffffff16021790555080600260006101000a81548173ffffffffffffffffffffffffffffffffffffffff021916908373ffffffffffffffffffffffffffffffffffffffff16021790555050506200033b565b600033905090565b60008060009054906101000a900473ffffffffffffffffffffffffffffffffffffffff169050816000806101000a81548173ffffffffffffffffffffffffffffffffffffffff021916908373ffffffffffffffffffffffffffffffffffffffff1602179055508173ffffffffffffffffffffffffffffffffffffffff168173ffffffffffffffffffffffffffffffffffffffff167f8be0079c531659141344cd1fd0a4f28419497f9722a3daafe3b4186f6b6457e060405160405180910390a35050565b600081519050620002318162000321565b92915050565b600080604083850312156200024b57600080fd5b60006200025b8582860162000220565b92505060206200026e8582860162000220565b9150509250929050565b600062000287601883620002dc565b91507f4c69676874686f7573653a205a45524f5f4144445245535300000000000000006000830152602082019050919050565b60006020820190508181036000830152620002d58162000278565b9050919050565b600082825260208201905092915050565b6000620002fa8262000301565b9050919050565b600073ffffffffffffffffffffffffffffffffffffffff82169050919050565b6200032c81620002ed565b81146200033857600080fd5b50565b610f74806200034b6000396000f3fe608060405234801561001057600080fd5b506004361061007d5760003560e01c8063b1ed1e6c1161005b578063b1ed1e6c146100da578063d3df3ca11461010a578063f207564e1461013a578063f2fde38b146101565761007d565b8063715018a6146100825780638c817b6e1461008c5780638da5cb5b146100bc575b600080fd5b61008a610172565b005b6100a660048036038101906100a19190610a15565b6101fa565b6040516100b39190610ce1565b60405180910390f35b6100c4610267565b6040516100d19190610cc6565b60405180910390f35b6100f460048036038101906100ef9190610a15565b610290565b6040516101019190610ce1565b60405180910390f35b610124600480360381019061011f91906109ec565b6102bf565b6040516101319190610ddc565b60405180910390f35b610154600480360381019061014f91906109ec565b6102d7565b005b610170600480360381019061016b9190610971565b610744565b005b61017a61083c565b73ffffffffffffffffffffffffffffffffffffffff16610198610267565b73ffffffffffffffffffffffffffffffffffffffff16146101ee576040517f08c379a00000000000000000000000000000000000000000000000000000000081526004016101e590610d9c565b60405180910390fd5b6101f86000610844565b565b6000806004600085815260200190815260200160002060008473ffffffffffffffffffffffffffffffffffffffff1673ffffffffffffffffffffffffffffffffffffffff16815260200190815260200160002060009054906101000a900460ff1690508091505092915050565b60008060009054906101000a900473ffffffffffffffffffffffffffffffffffffffff16905090565b60046020528160005260406000206020528060005260406000206000915091509054906101000a900460ff1681565b60036020528060005260406000206000915090505481565b600260009054906101000a900473ffffffffffffffffffffffffffffffffffffffff1673ffffffffffffffffffffffffffffffffffffffff1663428ba893826040518263ffffffff1660e01b81526004016103329190610ddc565b60206040518083038186803b15801561034a57600080fd5b505afa15801561035e573d6000803e3d6000fd5b505050506040513d601f19601f82011682018060405250810190610382919061099a565b6103c1576040517f08c379a00000000000000000000000000000000000000000000000000000000081526004016103b890610d5c565b60405180910390fd5b600080600260009054906101000a900473ffffffffffffffffffffffffffffffffffffffff1673ffffffffffffffffffffffffffffffffffffffff16632693b12c846040518263ffffffff1660e01b815260040161041f9190610ddc565b604080518083038186803b15801561043657600080fd5b505afa15801561044a573d6000803e3d6000fd5b505050506040513d601f19601f8201168201806040525081019061046e9190610a51565b8092508193505050814210156104b9576040517f08c379a00000000000000000000000000000000000000000000000000000000081526004016104b090610d7c565b60405180910390fd5b804211156104fc576040517f08c379a00000000000000000000000000000000000000000000000000000000081526004016104f390610dbc565b60405180910390fd5b61050683336101fa565b15610546576040517f08c379a000000000000000000000000000000000000000000000000000000000815260040161053d90610d1c565b60405180910390fd5b6000600160009054906101000a900473ffffffffffffffffffffffffffffffffffffffff1673ffffffffffffffffffffffffffffffffffffffff166328fc4c3c336040518263ffffffff1660e01b81526004016105a39190610cc6565b60206040518083038186803b1580156105bb57600080fd5b505afa1580156105cf573d6000803e3d6000fd5b505050506040513d601f19601f820116820180604052508101906105f391906109c3565b905060008160000b1361063b576040517f08c379a000000000000000000000000000000000000000000000000000000000815260040161063290610d3c565b60405180910390fd5b6001600360008681526020019081526020016000205461065b9190610e08565b600360008681526020019081526020016000208190555060016004600086815260200190815260200160002060003373ffffffffffffffffffffffffffffffffffffffff1673ffffffffffffffffffffffffffffffffffffffff16815260200190815260200160002060006101000a81548160ff02191690831515021790555060036000858152602001908152602001600020543373ffffffffffffffffffffffffffffffffffffffff16857f355a9111424ac3f2571bbdc61550eae14ca67ec2e98398b17be8a349c6b80be6426040516107369190610ddc565b60405180910390a450505050565b61074c61083c565b73ffffffffffffffffffffffffffffffffffffffff1661076a610267565b73ffffffffffffffffffffffffffffffffffffffff16146107c0576040517f08c379a00000000000000000000000000000000000000000000000000000000081526004016107b790610d9c565b60405180910390fd5b600073ffffffffffffffffffffffffffffffffffffffff168173ffffffffffffffffffffffffffffffffffffffff161415610830576040517f08c379a000000000000000000000000000000000000000000000000000000000815260040161082790610cfc565b60405180910390fd5b61083981610844565b50565b600033905090565b60008060009054906101000a900473ffffffffffffffffffffffffffffffffffffffff169050816000806101000a81548173ffffffffffffffffffffffffffffffffffffffff021916908373ffffffffffffffffffffffffffffffffffffffff1602179055508173ffffffffffffffffffffffffffffffffffffffff168173ffffffffffffffffffffffffffffffffffffffff167f8be0079c531659141344cd1fd0a4f28419497f9722a3daafe3b4186f6b6457e060405160405180910390a35050565b60008135905061091781610ee2565b92915050565b60008151905061092c81610ef9565b92915050565b60008151905061094181610f10565b92915050565b60008135905061095681610f27565b92915050565b60008151905061096b81610f27565b92915050565b60006020828403121561098357600080fd5b600061099184828501610908565b91505092915050565b6000602082840312156109ac57600080fd5b60006109ba8482850161091d565b91505092915050565b6000602082840312156109d557600080fd5b60006109e384828501610932565b91505092915050565b6000602082840312156109fe57600080fd5b6000610a0c84828501610947565b91505092915050565b60008060408385031215610a2857600080fd5b6000610a3685828601610947565b9250506020610a4785828601610908565b9150509250929050565b60008060408385031215610a6457600080fd5b6000610a728582860161095c565b9250506020610a838582860161095c565b9150509250929050565b610a9681610e5e565b82525050565b610aa581610e70565b82525050565b6000610ab8602683610df7565b91507f4f776e61626c653a206e6577206f776e657220697320746865207a65726f206160008301527f64647265737300000000000000000000000000000000000000000000000000006020830152604082019050919050565b6000610b1e601e83610df7565b91507f4c69676874686f7573653a20414c52454144595f5245474953544552454400006000830152602082019050919050565b6000610b5e601983610df7565b91507f4c69676874686f7573653a204e4f545f5155414c4946494544000000000000006000830152602082019050919050565b6000610b9e602883610df7565b91507f4c69676874686f7573653a20524547495354524154494f4e5f4e4f545f494e4960008301527f5449414c495a45440000000000000000000000000000000000000000000000006020830152604082019050919050565b6000610c04601b83610df7565b91507f4c69676874686f7573653a204e4f545f535441525445445f59455400000000006000830152602082019050919050565b6000610c44602083610df7565b91507f4f776e61626c653a2063616c6c6572206973206e6f7420746865206f776e65726000830152602082019050919050565b6000610c84601483610df7565b91507f4c69676874686f7573653a2046494e49534845440000000000000000000000006000830152602082019050919050565b610cc081610ea9565b82525050565b6000602082019050610cdb6000830184610a8d565b92915050565b6000602082019050610cf66000830184610a9c565b92915050565b60006020820190508181036000830152610d1581610aab565b9050919050565b60006020820190508181036000830152610d3581610b11565b9050919050565b60006020820190508181036000830152610d5581610b51565b9050919050565b60006020820190508181036000830152610d7581610b91565b9050919050565b60006020820190508181036000830152610d9581610bf7565b9050919050565b60006020820190508181036000830152610db581610c37565b9050919050565b60006020820190508181036000830152610dd581610c77565b9050919050565b6000602082019050610df16000830184610cb7565b92915050565b600082825260208201905092915050565b6000610e1382610ea9565b9150610e1e83610ea9565b9250827fffffffffffffffffffffffffffffffffffffffffffffffffffffffffffffffff03821115610e5357610e52610eb3565b5b828201905092915050565b6000610e6982610e89565b9050919050565b60008115159050919050565b60008160000b9050919050565b600073ffffffffffffffffffffffffffffffffffffffff82169050919050565b6000819050919050565b7f4e487b7100000000000000000000000000000000000000000000000000000000600052601160045260246000fd5b610eeb81610e5e565b8114610ef657600080fd5b50565b610f0281610e70565b8114610f0d57600080fd5b50565b610f1981610e7c565b8114610f2457600080fd5b50565b610f3081610ea9565b8114610f3b57600080fd5b5056fea2646970667358221220e8c1d3e996036a34cd755fd28c7d156358f656ef962f33ef21986c3313acc94764736f6c63430008000033",
  "linkReferences": {},
  "deployedLinkReferences": {}
}