{
  "_format": "hh-sol-artifact-1",
  "contractName": "LighthouseProjectWrapper",
  "sourceName": "contracts/LighthouseProjectWrapper.sol",
  "abi": [
    {
      "inputs": [
        {
          "internalType": "address",
          "name": "verifier",
          "type": "address"
        },
        {
          "internalType": "address",
          "name": "_project",
          "type": "address"
        }
      ],
      "stateMutability": "nonpayable",
      "type": "constructor"
    },
    {
      "anonymous": false,
      "inputs": [
        {
          "indexed": true,
          "internalType": "uint256",
          "name": "id",
          "type": "uint256"
        },
        {
          "indexed": true,
          "internalType": "address",
          "name": "nftAddress",
          "type": "address"
        },
        {
          "indexed": false,
          "internalType": "uint256",
          "name": "prefundAllocation",
          "type": "uint256"
        },
        {
          "indexed": false,
          "internalType": "uint256",
          "name": "prefundCompensation",
          "type": "uint256"
        },
        {
          "indexed": false,
          "internalType": "uint256",
          "name": "auctionAllocation",
          "type": "uint256"
        },
        {
          "indexed": false,
          "internalType": "uint256",
          "name": "auctionCompensation",
          "type": "uint256"
        }
      ],
      "name": "InitAllocationCompensation",
      "type": "event"
    },
    {
      "anonymous": false,
      "inputs": [
        {
          "indexed": true,
          "internalType": "uint256",
          "name": "id",
          "type": "uint256"
        },
        {
          "indexed": false,
          "internalType": "uint256",
          "name": "startTime",
          "type": "uint256"
        },
        {
          "indexed": false,
          "internalType": "uint256",
          "name": "endTime",
          "type": "uint256"
        }
      ],
      "name": "InitAuction",
      "type": "event"
    },
    {
      "anonymous": false,
      "inputs": [
        {
          "indexed": true,
          "internalType": "uint256",
          "name": "id",
          "type": "uint256"
        }
      ],
      "name": "InitMint",
      "type": "event"
    },
    {
      "anonymous": false,
      "inputs": [
        {
          "indexed": true,
          "internalType": "address",
          "name": "previousOwner",
          "type": "address"
        },
        {
          "indexed": true,
          "internalType": "address",
          "name": "newOwner",
          "type": "address"
        }
      ],
      "name": "OwnershipTransferred",
      "type": "event"
    },
    {
      "anonymous": false,
      "inputs": [
        {
          "indexed": true,
          "internalType": "address",
          "name": "user",
          "type": "address"
        },
        {
          "indexed": false,
          "internalType": "bool",
          "name": "allowed",
          "type": "bool"
        }
      ],
      "name": "ProjectEditor",
      "type": "event"
    },
    {
      "anonymous": false,
      "inputs": [
        {
          "indexed": true,
          "internalType": "address",
          "name": "verifier",
          "type": "address"
        }
      ],
      "name": "SetKYCVerifier",
      "type": "event"
    },
    {
      "anonymous": false,
      "inputs": [
        {
          "indexed": true,
          "internalType": "uint256",
          "name": "id",
          "type": "uint256"
        },
        {
          "indexed": true,
          "internalType": "address",
          "name": "pccAddress",
          "type": "address"
        }
      ],
      "name": "SetPCC",
      "type": "event"
    },
    {
      "anonymous": false,
      "inputs": [
        {
          "indexed": true,
          "internalType": "uint256",
          "name": "id",
          "type": "uint256"
        },
        {
          "indexed": false,
          "internalType": "uint256",
          "name": "scaledPrefundAmount",
          "type": "uint256"
        },
        {
          "indexed": false,
          "internalType": "uint256",
          "name": "scaledCompensationAmount",
          "type": "uint256"
        }
      ],
      "name": "TransferPrefund",
      "type": "event"
    },
    {
      "inputs": [
        {
          "internalType": "address",
          "name": "_user",
          "type": "address"
        }
      ],
      "name": "addEditor",
      "outputs": [],
      "stateMutability": "nonpayable",
      "type": "function"
    },
    {
      "inputs": [
        {
          "internalType": "uint256",
          "name": "id",
          "type": "uint256"
        }
      ],
      "name": "allocationCompensationInitialized",
      "outputs": [
        {
          "internalType": "bool",
          "name": "",
          "type": "bool"
        }
      ],
      "stateMutability": "view",
      "type": "function"
    },
    {
      "inputs": [
        {
          "internalType": "uint256",
          "name": "id",
          "type": "uint256"
        }
      ],
      "name": "auctionEndTime",
      "outputs": [
        {
          "internalType": "uint256",
          "name": "",
          "type": "uint256"
        }
      ],
      "stateMutability": "view",
      "type": "function"
    },
    {
      "inputs": [
        {
          "internalType": "uint256",
          "name": "id",
          "type": "uint256"
        }
      ],
      "name": "auctionInitialized",
      "outputs": [
        {
          "internalType": "bool",
          "name": "",
          "type": "bool"
        }
      ],
      "stateMutability": "view",
      "type": "function"
    },
    {
      "inputs": [
        {
          "internalType": "uint256",
          "name": "id",
          "type": "uint256"
        }
      ],
      "name": "auctionScaledUnit",
      "outputs": [
        {
          "internalType": "uint256",
          "name": "",
          "type": "uint256"
        },
        {
          "internalType": "uint256",
          "name": "",
          "type": "uint256"
        }
      ],
      "stateMutability": "view",
      "type": "function"
    },
    {
      "inputs": [
        {
          "internalType": "uint256",
          "name": "id",
          "type": "uint256"
        }
      ],
      "name": "auctionTimeInfo",
      "outputs": [
        {
          "internalType": "uint256",
          "name": "",
          "type": "uint256"
        },
        {
          "internalType": "uint256",
          "name": "",
          "type": "uint256"
        }
      ],
      "stateMutability": "view",
      "type": "function"
    },
    {
      "inputs": [
        {
          "internalType": "uint256",
          "name": "id",
          "type": "uint256"
        }
      ],
      "name": "auctionTotalPool",
      "outputs": [
        {
          "internalType": "uint256",
          "name": "",
          "type": "uint256"
        }
      ],
      "stateMutability": "view",
      "type": "function"
    },
    {
      "inputs": [
        {
          "internalType": "uint256",
          "name": "",
          "type": "uint256"
        }
      ],
      "name": "auctions",
      "outputs": [
        {
          "internalType": "uint256",
          "name": "startTime",
          "type": "uint256"
        },
        {
          "internalType": "uint256",
          "name": "endTime",
          "type": "uint256"
        },
        {
          "internalType": "uint256",
          "name": "spent",
          "type": "uint256"
        },
        {
          "internalType": "uint256",
          "name": "scaledAllocation",
          "type": "uint256"
        },
        {
          "internalType": "uint256",
          "name": "scaledCompensation",
          "type": "uint256"
        },
        {
          "internalType": "bool",
          "name": "transferredPrefund",
          "type": "bool"
        }
      ],
      "stateMutability": "view",
      "type": "function"
    },
    {
      "inputs": [
        {
          "internalType": "uint256",
          "name": "id",
          "type": "uint256"
        },
        {
          "internalType": "uint256",
          "name": "amount",
          "type": "uint256"
        }
      ],
      "name": "collectAuctionAmount",
      "outputs": [],
      "stateMutability": "nonpayable",
      "type": "function"
    },
    {
      "inputs": [
        {
          "internalType": "address",
          "name": "_user",
          "type": "address"
        }
      ],
      "name": "deleteEditor",
      "outputs": [],
      "stateMutability": "nonpayable",
      "type": "function"
    },
    {
      "inputs": [
        {
          "internalType": "address",
          "name": "",
          "type": "address"
        }
      ],
      "name": "editors",
      "outputs": [
        {
          "internalType": "bool",
          "name": "",
          "type": "bool"
        }
      ],
      "stateMutability": "view",
      "type": "function"
    },
    {
      "inputs": [],
      "name": "getKYCVerifier",
      "outputs": [
        {
          "internalType": "address",
          "name": "",
          "type": "address"
        }
      ],
      "stateMutability": "view",
      "type": "function"
    },
    {
      "inputs": [
        {
          "internalType": "uint256",
          "name": "id",
          "type": "uint256"
        },
        {
          "internalType": "uint256",
          "name": "prefundAllocation",
          "type": "uint256"
        },
        {
          "internalType": "uint256",
          "name": "prefundCompensation",
          "type": "uint256"
        },
        {
          "internalType": "uint256",
          "name": "auctionAllocation",
          "type": "uint256"
        },
        {
          "internalType": "uint256",
          "name": "auctionCompensation",
          "type": "uint256"
        },
        {
          "internalType": "address",
          "name": "nftAddress",
          "type": "address"
        }
      ],
      "name": "initAllocationCompensation",
      "outputs": [],
      "stateMutability": "nonpayable",
      "type": "function"
    },
    {
      "inputs": [
        {
          "internalType": "uint256",
          "name": "id",
          "type": "uint256"
        },
        {
          "internalType": "uint256",
          "name": "startTime",
          "type": "uint256"
        },
        {
          "internalType": "uint256",
          "name": "endTime",
          "type": "uint256"
        }
      ],
      "name": "initAuction",
      "outputs": [],
      "stateMutability": "nonpayable",
      "type": "function"
    },
    {
      "inputs": [
        {
          "internalType": "uint256",
          "name": "id",
          "type": "uint256"
        }
      ],
      "name": "initMinting",
      "outputs": [],
      "stateMutability": "nonpayable",
      "type": "function"
    },
    {
      "inputs": [],
      "name": "kycVerifier",
      "outputs": [
        {
          "internalType": "address",
          "name": "",
          "type": "address"
        }
      ],
      "stateMutability": "view",
      "type": "function"
    },
    {
      "inputs": [
        {
          "internalType": "uint256",
          "name": "id",
          "type": "uint256"
        }
      ],
      "name": "mintInitialized",
      "outputs": [
        {
          "internalType": "bool",
          "name": "",
          "type": "bool"
        }
      ],
      "stateMutability": "view",
      "type": "function"
    },
    {
      "inputs": [
        {
          "internalType": "uint256",
          "name": "",
          "type": "uint256"
        }
      ],
      "name": "mintable",
      "outputs": [
        {
          "internalType": "bool",
          "name": "",
          "type": "bool"
        }
      ],
      "stateMutability": "view",
      "type": "function"
    },
    {
      "inputs": [
        {
          "internalType": "uint256",
          "name": "id",
          "type": "uint256"
        }
      ],
      "name": "nft",
      "outputs": [
        {
          "internalType": "address",
          "name": "",
          "type": "address"
        }
      ],
      "stateMutability": "view",
      "type": "function"
    },
    {
      "inputs": [
        {
          "internalType": "uint256",
          "name": "",
          "type": "uint256"
        }
      ],
      "name": "nfts",
      "outputs": [
        {
          "internalType": "address",
          "name": "",
          "type": "address"
        }
      ],
      "stateMutability": "view",
      "type": "function"
    },
    {
      "inputs": [],
      "name": "owner",
      "outputs": [
        {
          "internalType": "address",
          "name": "",
          "type": "address"
        }
      ],
      "stateMutability": "view",
      "type": "function"
    },
    {
      "inputs": [
        {
          "internalType": "uint256",
          "name": "id",
          "type": "uint256"
        }
      ],
      "name": "pcc",
      "outputs": [
        {
          "internalType": "address",
          "name": "",
          "type": "address"
        }
      ],
      "stateMutability": "view",
      "type": "function"
    },
    {
      "inputs": [
        {
          "internalType": "uint256",
          "name": "",
          "type": "uint256"
        }
      ],
      "name": "pccs",
      "outputs": [
        {
          "internalType": "address",
          "name": "",
          "type": "address"
        }
      ],
      "stateMutability": "view",
      "type": "function"
    },
    {
      "inputs": [
        {
          "internalType": "uint256",
          "name": "id",
          "type": "uint256"
        }
      ],
      "name": "prefundEndTime",
      "outputs": [
        {
          "internalType": "uint256",
          "name": "",
          "type": "uint256"
        }
      ],
      "stateMutability": "view",
      "type": "function"
    },
    {
      "inputs": [
        {
          "internalType": "uint256",
          "name": "id",
          "type": "uint256"
        }
      ],
      "name": "prefundInitialized",
      "outputs": [
        {
          "internalType": "bool",
          "name": "",
          "type": "bool"
        }
      ],
      "stateMutability": "view",
      "type": "function"
    },
    {
      "inputs": [
        {
          "internalType": "uint256",
          "name": "id",
          "type": "uint256"
        },
        {
          "internalType": "int8",
          "name": "tier",
          "type": "int8"
        }
      ],
      "name": "prefundInvestAmount",
      "outputs": [
        {
          "internalType": "uint256",
          "name": "",
          "type": "uint256"
        },
        {
          "internalType": "address",
          "name": "",
          "type": "address"
        }
      ],
      "stateMutability": "view",
      "type": "function"
    },
    {
      "inputs": [
        {
          "internalType": "uint256",
          "name": "id",
          "type": "uint256"
        },
        {
          "internalType": "int8",
          "name": "tier",
          "type": "int8"
        }
      ],
      "name": "prefundPoolInfo",
      "outputs": [
        {
          "internalType": "uint256",
          "name": "",
          "type": "uint256"
        },
        {
          "internalType": "uint256",
          "name": "",
          "type": "uint256"
        }
      ],
      "stateMutability": "view",
      "type": "function"
    },
    {
      "inputs": [
        {
          "internalType": "uint256",
          "name": "id",
          "type": "uint256"
        }
      ],
      "name": "prefundScaledUnit",
      "outputs": [
        {
          "internalType": "uint256",
          "name": "",
          "type": "uint256"
        },
        {
          "internalType": "uint256",
          "name": "",
          "type": "uint256"
        }
      ],
      "stateMutability": "view",
      "type": "function"
    },
    {
      "inputs": [
        {
          "internalType": "uint256",
          "name": "id",
          "type": "uint256"
        }
      ],
      "name": "prefundTimeInfo",
      "outputs": [
        {
          "internalType": "uint256",
          "name": "",
          "type": "uint256"
        },
        {
          "internalType": "uint256",
          "name": "",
          "type": "uint256"
        }
      ],
      "stateMutability": "view",
      "type": "function"
    },
    {
      "inputs": [
        {
          "internalType": "uint256",
          "name": "id",
          "type": "uint256"
        }
      ],
      "name": "prefundTotalPool",
      "outputs": [
        {
          "internalType": "uint256",
          "name": "",
          "type": "uint256"
        },
        {
          "internalType": "uint256",
          "name": "",
          "type": "uint256"
        }
      ],
      "stateMutability": "view",
      "type": "function"
    },
    {
      "inputs": [
        {
          "internalType": "uint256",
          "name": "",
          "type": "uint256"
        }
      ],
      "name": "prefunds",
      "outputs": [
        {
          "internalType": "uint256",
          "name": "scaledAllocation",
          "type": "uint256"
        },
        {
          "internalType": "uint256",
          "name": "scaledCompensation",
          "type": "uint256"
        }
      ],
      "stateMutability": "view",
      "type": "function"
    },
    {
      "inputs": [
        {
          "internalType": "uint256",
          "name": "id",
          "type": "uint256"
        }
      ],
      "name": "registrationEndTime",
      "outputs": [
        {
          "internalType": "uint256",
          "name": "",
          "type": "uint256"
        }
      ],
      "stateMutability": "view",
      "type": "function"
    },
    {
      "inputs": [
        {
          "internalType": "uint256",
          "name": "id",
          "type": "uint256"
        }
      ],
      "name": "registrationInfo",
      "outputs": [
        {
          "internalType": "uint256",
          "name": "",
          "type": "uint256"
        },
        {
          "internalType": "uint256",
          "name": "",
          "type": "uint256"
        }
      ],
      "stateMutability": "view",
      "type": "function"
    },
    {
      "inputs": [
        {
          "internalType": "uint256",
          "name": "id",
          "type": "uint256"
        }
      ],
      "name": "registrationInitialized",
      "outputs": [
        {
          "internalType": "bool",
          "name": "",
          "type": "bool"
        }
      ],
      "stateMutability": "view",
      "type": "function"
    },
    {
      "inputs": [],
      "name": "renounceOwnership",
      "outputs": [],
      "stateMutability": "nonpayable",
      "type": "function"
    },
    {
      "inputs": [
        {
          "internalType": "address",
          "name": "verifier",
          "type": "address"
        }
      ],
      "name": "setKYCVerifier",
      "outputs": [],
      "stateMutability": "nonpayable",
      "type": "function"
    },
    {
      "inputs": [
        {
          "internalType": "uint256",
          "name": "id",
          "type": "uint256"
        },
        {
          "internalType": "address",
          "name": "pccAddress",
          "type": "address"
        }
      ],
      "name": "setPcc",
      "outputs": [],
      "stateMutability": "nonpayable",
      "type": "function"
    },
    {
      "inputs": [],
      "name": "totalProjects",
      "outputs": [
        {
          "internalType": "uint256",
          "name": "",
          "type": "uint256"
        }
      ],
      "stateMutability": "view",
      "type": "function"
    },
    {
      "inputs": [
        {
          "internalType": "address",
          "name": "newOwner",
          "type": "address"
        }
      ],
      "name": "transferOwnership",
      "outputs": [],
      "stateMutability": "nonpayable",
      "type": "function"
    },
    {
      "inputs": [
        {
          "internalType": "uint256",
          "name": "id",
          "type": "uint256"
        }
      ],
      "name": "transferPrefund",
      "outputs": [],
      "stateMutability": "nonpayable",
      "type": "function"
    },
    {
      "inputs": [
        {
          "internalType": "uint256",
          "name": "id",
          "type": "uint256"
        }
      ],
      "name": "transferredPrefund",
      "outputs": [
        {
          "internalType": "bool",
          "name": "",
          "type": "bool"
        }
      ],
      "stateMutability": "view",
      "type": "function"
    },
    {
      "inputs": [
        {
          "internalType": "address",
          "name": "",
          "type": "address"
        }
      ],
      "name": "usedNfts",
      "outputs": [
        {
          "internalType": "uint256",
          "name": "",
          "type": "uint256"
        }
      ],
      "stateMutability": "view",
      "type": "function"
    },
    {
      "inputs": [
        {
          "internalType": "address",
          "name": "",
          "type": "address"
        }
      ],
      "name": "usedPccs",
      "outputs": [
        {
          "internalType": "uint256",
          "name": "",
          "type": "uint256"
        }
      ],
      "stateMutability": "view",
      "type": "function"
    },
    {
      "inputs": [
        {
          "internalType": "uint256",
          "name": "id",
          "type": "uint256"
        }
      ],
      "name": "validProjectId",
      "outputs": [
        {
          "internalType": "bool",
          "name": "",
          "type": "bool"
        }
      ],
      "stateMutability": "view",
      "type": "function"
    }
  ],
  "bytecode": "0x60806040523480156200001157600080fd5b5060405162004245380380620042458339818101604052810190620000379190620003da565b620000576200004b620000b160201b60201c565b620000b960201b60201c565b62000068826200017d60201b60201c565b80600160006101000a81548173ffffffffffffffffffffffffffffffffffffffff021916908373ffffffffffffffffffffffffffffffffffffffff1602179055505050620005a6565b600033905090565b60008060009054906101000a900473ffffffffffffffffffffffffffffffffffffffff169050816000806101000a81548173ffffffffffffffffffffffffffffffffffffffff021916908373ffffffffffffffffffffffffffffffffffffffff1602179055508173ffffffffffffffffffffffffffffffffffffffff168173ffffffffffffffffffffffffffffffffffffffff167f8be0079c531659141344cd1fd0a4f28419497f9722a3daafe3b4186f6b6457e060405160405180910390a35050565b6200018d620000b160201b60201c565b73ffffffffffffffffffffffffffffffffffffffff16620001b36200039a60201b60201c565b73ffffffffffffffffffffffffffffffffffffffff16146200020c576040517f08c379a0000000000000000000000000000000000000000000000000000000008152600401620002039062000503565b60405180910390fd5b600073ffffffffffffffffffffffffffffffffffffffff168173ffffffffffffffffffffffffffffffffffffffff1614156200027f576040517f08c379a0000000000000000000000000000000000000000000000000000000008152600401620002769062000525565b60405180910390fd5b8073ffffffffffffffffffffffffffffffffffffffff16600260009054906101000a900473ffffffffffffffffffffffffffffffffffffffff1673ffffffffffffffffffffffffffffffffffffffff16141562000313576040517f08c379a00000000000000000000000000000000000000000000000000000000081526004016200030a90620004e1565b60405180910390fd5b80600260006101000a81548173ffffffffffffffffffffffffffffffffffffffff021916908373ffffffffffffffffffffffffffffffffffffffff1602179055508073ffffffffffffffffffffffffffffffffffffffff167f4cc9cc2c1c94b0f2a3403db2d1758433cbfa23312f4870c2a182918475ddcf0560405160405180910390a250565b60008060009054906101000a900473ffffffffffffffffffffffffffffffffffffffff16905090565b600081519050620003d4816200058c565b92915050565b60008060408385031215620003ee57600080fd5b6000620003fe85828601620003c3565b92505060206200041185828601620003c3565b9150509250929050565b60006200042a60188362000547565b91507f4c69676874686f7573653a2053414d455f4144445245535300000000000000006000830152602082019050919050565b60006200046c60208362000547565b91507f4f776e61626c653a2063616c6c6572206973206e6f7420746865206f776e65726000830152602082019050919050565b6000620004ae60188362000547565b91507f4c69676874686f7573653a205a45524f5f4144445245535300000000000000006000830152602082019050919050565b60006020820190508181036000830152620004fc816200041b565b9050919050565b600060208201905081810360008301526200051e816200045d565b9050919050565b6000602082019050818103600083015262000540816200049f565b9050919050565b600082825260208201905092915050565b600062000565826200056c565b9050919050565b600073ffffffffffffffffffffffffffffffffffffffff82169050919050565b620005978162000558565b8114620005a357600080fd5b50565b613c8f80620005b66000396000f3fe608060405234801561001057600080fd5b50600436106102745760003560e01c80638de6a11a11610151578063b47e9f3e116100c3578063d0b0f39211610087578063d0b0f392146108e9578063d17f641714610905578063e5975bdc14610921578063f2fde38b1461093d578063fb20d98f14610959578063fb5002471461097557610274565b8063b47e9f3e1461081b578063b5f5cf701461084c578063b60da0851461087d578063b937e7cc1461089b578063cd52844d146108b957610274565b80639d0214cb116101155780639d0214cb146106fb578063a5045a161461072b578063a58039721461075b578063a84b06921461078b578063ae9d403a146107bb578063b22e912b146107eb57610274565b80638de6a11a146106195780638ee2a6d11461064a578063943df3151461067b5780639922a1d5146106ac5780639c361e4e146106dd57610274565b8063428ba893116101ea578063715018a6116101ae578063715018a614610530578063748028571461053a578063777de7041461056b578063835db3221461059b5780638d7365a9146105cb5780638da5cb5b146105fb57610274565b8063428ba8931461044f578063451bf0d31461047f578063571a26a01461049b57806364507efc146104d05780636592b7241461050057610274565b8063265aa6211161023c578063265aa6211461036a5780632693b12c1461039a57806337979b80146103cb5780633e2a6b59146103e75780634005c3df1461040357806341e0f1b11461043357610274565b8063016e34721461027957806305b576e3146102a95780630f784943146102d95780631b4ead451461030957806324d2cb1714610339575b600080fd5b610293600480360381019061028e9190612e62565b610991565b6040516102a091906138e8565b60405180910390f35b6102c360048036038101906102be9190612eb4565b6109a9565b6040516102d091906138e8565b60405180910390f35b6102f360048036038101906102ee9190612eb4565b610a5d565b604051610300919061366d565b60405180910390f35b610323600480360381019061031e9190612eb4565b610a7d565b604051610330919061366d565b60405180910390f35b610353600480360381019061034e9190612eb4565b610b01565b604051610361929190613955565b60405180910390f35b610384600480360381019061037f9190612eb4565b610b2f565b6040516103919190613652565b60405180910390f35b6103b460048036038101906103af9190612eb4565b610b62565b6040516103c2929190613955565b60405180910390f35b6103e560048036038101906103e09190613032565b610c18565b005b61040160048036038101906103fc9190612eb4565b610ea3565b005b61041d60048036038101906104189190612e62565b611024565b60405161042a91906138e8565b60405180910390f35b61044d60048036038101906104489190612fba565b61103c565b005b61046960048036038101906104649190612eb4565b6110fc565b604051610476919061366d565b60405180910390f35b61049960048036038101906104949190612f06565b6111b0565b005b6104b560048036038101906104b09190612eb4565b611444565b6040516104c7969594939291906139c3565b60405180910390f35b6104ea60048036038101906104e59190612eb4565b61148d565b6040516104f7919061366d565b60405180910390f35b61051a60048036038101906105159190612eb4565b6114cd565b604051610527919061366d565b60405180910390f35b610538611581565b005b610554600480360381019061054f9190612f7e565b611609565b604051610562929190613955565b60405180910390f35b61058560048036038101906105809190612eb4565b6116c3565b60405161059291906138e8565b60405180910390f35b6105b560048036038101906105b09190612eb4565b6116e3565b6040516105c2919061366d565b60405180910390f35b6105e560048036038101906105e09190612eb4565b61170d565b6040516105f2919061366d565b60405180910390f35b6106036117c1565b6040516106109190613652565b60405180910390f35b610633600480360381019061062e9190612eb4565b6117ea565b604051610641929190613955565b60405180910390f35b610664600480360381019061065f9190612eb4565b61180e565b604051610672929190613955565b60405180910390f35b61069560048036038101906106909190612eb4565b6118c4565b6040516106a3929190613955565b60405180910390f35b6106c660048036038101906106c19190612eb4565b61197a565b6040516106d4929190613955565b60405180910390f35b6106e56119c6565b6040516106f291906138e8565b60405180910390f35b61071560048036038101906107109190612eb4565b611a6d565b6040516107229190613652565b60405180910390f35b61074560048036038101906107409190612eb4565b611aaa565b6040516107529190613652565b60405180910390f35b61077560048036038101906107709190612eb4565b611ae7565b6040516107829190613652565b60405180910390f35b6107a560048036038101906107a09190612eb4565b611b1a565b6040516107b291906138e8565b60405180910390f35b6107d560048036038101906107d09190612eb4565b611bce565b6040516107e291906138e8565b60405180910390f35b61080560048036038101906108009190612eb4565b611bee565b604051610812919061366d565b60405180910390f35b61083560048036038101906108309190612eb4565b611c1b565b604051610843929190613955565b60405180910390f35b61086660048036038101906108619190612f7e565b611d0f565b604051610874929190613903565b60405180910390f35b610885611dc9565b6040516108929190613652565b60405180910390f35b6108a3611df3565b6040516108b09190613652565b60405180910390f35b6108d360048036038101906108ce9190612e62565b611e19565b6040516108e0919061366d565b60405180910390f35b61090360048036038101906108fe9190612eb4565b611e39565b005b61091f600480360381019061091a9190612e62565b6121de565b005b61093b60048036038101906109369190612e62565b6123e2565b005b61095760048036038101906109529190612e62565b612605565b005b610973600480360381019061096e9190612e62565b6126fd565b005b61098f600480360381019061098a9190613081565b61291f565b005b600a6020528060005260406000206000915090505481565b6000600160009054906101000a900473ffffffffffffffffffffffffffffffffffffffff1673ffffffffffffffffffffffffffffffffffffffff166305b576e3836040518263ffffffff1660e01b8152600401610a0691906138e8565b60206040518083038186803b158015610a1e57600080fd5b505afa158015610a32573d6000803e3d6000fd5b505050506040513d601f19601f82011682018060405250810190610a569190612edd565b9050919050565b60066020528060005260406000206000915054906101000a900460ff1681565b6000610a888261170d565b610a955760009050610afc565b600073ffffffffffffffffffffffffffffffffffffffff166007600084815260200190815260200160002060009054906101000a900473ffffffffffffffffffffffffffffffffffffffff1673ffffffffffffffffffffffffffffffffffffffff16141590505b919050565b6000806000600460008581526020019081526020016000209050806000015481600101549250925050915091565b60076020528060005260406000206000915054906101000a900473ffffffffffffffffffffffffffffffffffffffff1681565b600080600160009054906101000a900473ffffffffffffffffffffffffffffffffffffffff1673ffffffffffffffffffffffffffffffffffffffff16632693b12c846040518263ffffffff1660e01b8152600401610bc091906138e8565b604080518083038186803b158015610bd757600080fd5b505afa158015610beb573d6000803e3d6000fd5b505050506040513d601f19601f82011682018060405250810190610c0f9190612ff6565b91509150915091565b610c20612d18565b73ffffffffffffffffffffffffffffffffffffffff16610c3e6117c1565b73ffffffffffffffffffffffffffffffffffffffff1614610c94576040517f08c379a0000000000000000000000000000000000000000000000000000000008152600401610c8b906137c8565b60405180910390fd5b610c9d8361170d565b610cdc576040517f08c379a0000000000000000000000000000000000000000000000000000000008152600401610cd390613748565b60405180910390fd5b814210610d1e576040517f08c379a0000000000000000000000000000000000000000000000000000000008152600401610d1590613688565b60405180910390fd5b808210610d60576040517f08c379a0000000000000000000000000000000000000000000000000000000008152600401610d5790613848565b60405180910390fd5b60006004600085815260200190815260200160002090506000816000015414610dbe576040517f08c379a0000000000000000000000000000000000000000000000000000000008152600401610db5906138a8565b60405180910390fd5b6000610dc9856109a9565b905060008111610e0e576040517f08c379a0000000000000000000000000000000000000000000000000000000008152600401610e05906137a8565b60405180910390fd5b808411610e50576040517f08c379a0000000000000000000000000000000000000000000000000000000008152600401610e4790613808565b60405180910390fd5b838260000181905550828260010181905550847f9b3770df20128a91841fed18e7e8efbd28645b85d6e95c9feeff96f7c9bd83968585604051610e94929190613955565b60405180910390a25050505050565b610eab612d18565b73ffffffffffffffffffffffffffffffffffffffff16610ec96117c1565b73ffffffffffffffffffffffffffffffffffffffff1614610f1f576040517f08c379a0000000000000000000000000000000000000000000000000000000008152600401610f16906137c8565b60405180910390fd5b610f288161170d565b610f67576040517f08c379a0000000000000000000000000000000000000000000000000000000008152600401610f5e90613748565b60405180910390fd5b6006600082815260200190815260200160002060009054906101000a900460ff1615610fc8576040517f08c379a0000000000000000000000000000000000000000000000000000000008152600401610fbf90613768565b60405180910390fd5b60016006600083815260200190815260200160002060006101000a81548160ff021916908315150217905550807f51ff5cb12e078f374fcf678227d813efbc85de5e628114361e3f170884d9186260405160405180910390a250565b60086020528060005260406000206000915090505481565b600360003373ffffffffffffffffffffffffffffffffffffffff1673ffffffffffffffffffffffffffffffffffffffff16815260200190815260200160002060009054906101000a900460ff166110c8576040517f08c379a00000000000000000000000000000000000000000000000000000000081526004016110bf90613868565b60405180910390fd5b60006004600084815260200190815260200160002090508181600201546110ef9190613a35565b8160020181905550505050565b6000600160009054906101000a900473ffffffffffffffffffffffffffffffffffffffff1673ffffffffffffffffffffffffffffffffffffffff1663428ba893836040518263ffffffff1660e01b815260040161115991906138e8565b60206040518083038186803b15801561117157600080fd5b505afa158015611185573d6000803e3d6000fd5b505050506040513d601f19601f820116820180604052508101906111a99190612e8b565b9050919050565b6111b8612d18565b73ffffffffffffffffffffffffffffffffffffffff166111d66117c1565b73ffffffffffffffffffffffffffffffffffffffff161461122c576040517f08c379a0000000000000000000000000000000000000000000000000000000008152600401611223906137c8565b60405180910390fd5b6112358261170d565b611274576040517f08c379a000000000000000000000000000000000000000000000000000000000815260040161126b90613748565b60405180910390fd5b600073ffffffffffffffffffffffffffffffffffffffff168173ffffffffffffffffffffffffffffffffffffffff1614156112e4576040517f08c379a00000000000000000000000000000000000000000000000000000000081526004016112db906138c8565b60405180910390fd5b6000600a60008373ffffffffffffffffffffffffffffffffffffffff1673ffffffffffffffffffffffffffffffffffffffff1681526020019081526020016000205414611366576040517f08c379a000000000000000000000000000000000000000000000000000000000815260040161135d906137e8565b60405180910390fd5b806009600084815260200190815260200160002060006101000a81548173ffffffffffffffffffffffffffffffffffffffff021916908373ffffffffffffffffffffffffffffffffffffffff16021790555081600a60008373ffffffffffffffffffffffffffffffffffffffff1673ffffffffffffffffffffffffffffffffffffffff168152602001908152602001600020819055508073ffffffffffffffffffffffffffffffffffffffff16827f246302e498f32cefcdb2816520646b24be648dc6bd68adea9f865c4029d82a0960405160405180910390a35050565b60046020528060005260406000206000915090508060000154908060010154908060020154908060030154908060040154908060050160009054906101000a900460ff16905086565b60006114988261170d565b6114a557600090506114c8565b600060046000848152602001908152602001600020905060008160000154119150505b919050565b6000600160009054906101000a900473ffffffffffffffffffffffffffffffffffffffff1673ffffffffffffffffffffffffffffffffffffffff16636592b724836040518263ffffffff1660e01b815260040161152a91906138e8565b60206040518083038186803b15801561154257600080fd5b505afa158015611556573d6000803e3d6000fd5b505050506040513d601f19601f8201168201806040525081019061157a9190612e8b565b9050919050565b611589612d18565b73ffffffffffffffffffffffffffffffffffffffff166115a76117c1565b73ffffffffffffffffffffffffffffffffffffffff16146115fd576040517f08c379a00000000000000000000000000000000000000000000000000000000081526004016115f4906137c8565b60405180910390fd5b6116076000612d20565b565b600080600160009054906101000a900473ffffffffffffffffffffffffffffffffffffffff1673ffffffffffffffffffffffffffffffffffffffff16637480285785856040518363ffffffff1660e01b815260040161166992919061392c565b604080518083038186803b15801561168057600080fd5b505afa158015611694573d6000803e3d6000fd5b505050506040513d601f19601f820116820180604052508101906116b89190612ff6565b915091509250929050565b600060046000838152602001908152602001600020600101549050919050565b60006006600083815260200190815260200160002060009054906101000a900460ff169050919050565b6000600160009054906101000a900473ffffffffffffffffffffffffffffffffffffffff1673ffffffffffffffffffffffffffffffffffffffff16638d7365a9836040518263ffffffff1660e01b815260040161176a91906138e8565b60206040518083038186803b15801561178257600080fd5b505afa158015611796573d6000803e3d6000fd5b505050506040513d601f19601f820116820180604052508101906117ba9190612e8b565b9050919050565b60008060009054906101000a900473ffffffffffffffffffffffffffffffffffffffff16905090565b60056020528060005260406000206000915090508060000154908060010154905082565b600080600160009054906101000a900473ffffffffffffffffffffffffffffffffffffffff1673ffffffffffffffffffffffffffffffffffffffff16638ee2a6d1846040518263ffffffff1660e01b815260040161186c91906138e8565b604080518083038186803b15801561188357600080fd5b505afa158015611897573d6000803e3d6000fd5b505050506040513d601f19601f820116820180604052508101906118bb9190612ff6565b91509150915091565b600080600160009054906101000a900473ffffffffffffffffffffffffffffffffffffffff1673ffffffffffffffffffffffffffffffffffffffff1663943df315846040518263ffffffff1660e01b815260040161192291906138e8565b604080518083038186803b15801561193957600080fd5b505afa15801561194d573d6000803e3d6000fd5b505050506040513d601f19601f820116820180604052508101906119719190612ff6565b91509150915091565b6000806000600460008581526020019081526020016000209050806002015481600301546119a89190613a8b565b816002015482600401546119bc9190613a8b565b9250925050915091565b6000600160009054906101000a900473ffffffffffffffffffffffffffffffffffffffff1673ffffffffffffffffffffffffffffffffffffffff16639c361e4e6040518163ffffffff1660e01b815260040160206040518083038186803b158015611a3057600080fd5b505afa158015611a44573d6000803e3d6000fd5b505050506040513d601f19601f82011682018060405250810190611a689190612edd565b905090565b60006007600083815260200190815260200160002060009054906101000a900473ffffffffffffffffffffffffffffffffffffffff169050919050565b60006009600083815260200190815260200160002060009054906101000a900473ffffffffffffffffffffffffffffffffffffffff169050919050565b60096020528060005260406000206000915054906101000a900473ffffffffffffffffffffffffffffffffffffffff1681565b6000600160009054906101000a900473ffffffffffffffffffffffffffffffffffffffff1673ffffffffffffffffffffffffffffffffffffffff1663a84b0692836040518263ffffffff1660e01b8152600401611b7791906138e8565b60206040518083038186803b158015611b8f57600080fd5b505afa158015611ba3573d6000803e3d6000fd5b505050506040513d601f19601f82011682018060405250810190611bc79190612edd565b9050919050565b600060046000838152602001908152602001600020600201549050919050565b60006004600083815260200190815260200160002060050160009054906101000a900460ff169050919050565b60008060006005600085815260200190815260200160002090506000600160009054906101000a900473ffffffffffffffffffffffffffffffffffffffff1673ffffffffffffffffffffffffffffffffffffffff1663943df315866040518263ffffffff1660e01b8152600401611c9291906138e8565b604080518083038186803b158015611ca957600080fd5b505afa158015611cbd573d6000803e3d6000fd5b505050506040513d601f19601f82011682018060405250810190611ce19190612ff6565b915050808260000154611cf49190613a8b565b818360010154611d049190613a8b565b935093505050915091565b600080600160009054906101000a900473ffffffffffffffffffffffffffffffffffffffff1673ffffffffffffffffffffffffffffffffffffffff1663b5f5cf7085856040518363ffffffff1660e01b8152600401611d6f92919061392c565b604080518083038186803b158015611d8657600080fd5b505afa158015611d9a573d6000803e3d6000fd5b505050506040513d601f19601f82011682018060405250810190611dbe9190612f42565b915091509250929050565b6000600260009054906101000a900473ffffffffffffffffffffffffffffffffffffffff16905090565b600260009054906101000a900473ffffffffffffffffffffffffffffffffffffffff1681565b60036020528060005260406000206000915054906101000a900460ff1681565b611e41612d18565b73ffffffffffffffffffffffffffffffffffffffff16611e5f6117c1565b73ffffffffffffffffffffffffffffffffffffffff1614611eb5576040517f08c379a0000000000000000000000000000000000000000000000000000000008152600401611eac906137c8565b60405180910390fd5b6004600082815260200190815260200160002060050160009054906101000a900460ff1615611ee3576121db565b611eec8161170d565b611f2b576040517f08c379a0000000000000000000000000000000000000000000000000000000008152600401611f2290613748565b60405180910390fd5b42611f35826109a9565b10611f75576040517f08c379a0000000000000000000000000000000000000000000000000000000008152600401611f6c906136a8565b60405180910390fd5b600080611f81836118c4565b8092508193505050818110156121a9576000670de0b6b3a76400006064670de0b6b3a764000085611fb29190613abc565b611fbc9190613a8b565b670de0b6b3a76400008486611fd19190613b16565b611fdb9190613abc565b611fe59190613a8b565b611fef9190613abc565b90506000670de0b6b3a764000060648360056000898152602001908152602001600020600001546120209190613abc565b61202a9190613a8b565b6120349190613a8b565b90508060046000878152602001908152602001600020600301546120589190613a35565b60046000878152602001908152602001600020600301819055508060056000878152602001908152602001600020600001546120949190613b16565b60056000878152602001908152602001600020600001819055506000670de0b6b3a7640000606484600560008a8152602001908152602001600020600101546120dd9190613abc565b6120e79190613a8b565b6120f19190613a8b565b90508060046000888152602001908152602001600020600401546121159190613a35565b60046000888152602001908152602001600020600401819055508060056000888152602001908152602001600020600101546121519190613b16565b6005600088815260200190815260200160002060010181905550857f32e0dcff7306eb2251b431cfb692c9f423ddafa28f545c26ed6fef49c93906d7838360405161219d929190613955565b60405180910390a25050505b60016004600085815260200190815260200160002060050160006101000a81548160ff02191690831515021790555050505b50565b6121e6612d18565b73ffffffffffffffffffffffffffffffffffffffff166122046117c1565b73ffffffffffffffffffffffffffffffffffffffff161461225a576040517f08c379a0000000000000000000000000000000000000000000000000000000008152600401612251906137c8565b60405180910390fd5b600073ffffffffffffffffffffffffffffffffffffffff168173ffffffffffffffffffffffffffffffffffffffff1614156122ca576040517f08c379a00000000000000000000000000000000000000000000000000000000081526004016122c1906138c8565b60405180910390fd5b8073ffffffffffffffffffffffffffffffffffffffff16600260009054906101000a900473ffffffffffffffffffffffffffffffffffffffff1673ffffffffffffffffffffffffffffffffffffffff16141561235b576040517f08c379a000000000000000000000000000000000000000000000000000000000815260040161235290613788565b60405180910390fd5b80600260006101000a81548173ffffffffffffffffffffffffffffffffffffffff021916908373ffffffffffffffffffffffffffffffffffffffff1602179055508073ffffffffffffffffffffffffffffffffffffffff167f4cc9cc2c1c94b0f2a3403db2d1758433cbfa23312f4870c2a182918475ddcf0560405160405180910390a250565b6123ea612d18565b73ffffffffffffffffffffffffffffffffffffffff166124086117c1565b73ffffffffffffffffffffffffffffffffffffffff161461245e576040517f08c379a0000000000000000000000000000000000000000000000000000000008152600401612455906137c8565b60405180910390fd5b600073ffffffffffffffffffffffffffffffffffffffff168173ffffffffffffffffffffffffffffffffffffffff1614156124ce576040517f08c379a00000000000000000000000000000000000000000000000000000000081526004016124c5906138c8565b60405180910390fd5b600360008273ffffffffffffffffffffffffffffffffffffffff1673ffffffffffffffffffffffffffffffffffffffff16815260200190815260200160002060009054906101000a900460ff161561255b576040517f08c379a0000000000000000000000000000000000000000000000000000000008152600401612552906138a8565b60405180910390fd5b6001600360008373ffffffffffffffffffffffffffffffffffffffff1673ffffffffffffffffffffffffffffffffffffffff16815260200190815260200160002060006101000a81548160ff0219169083151502179055508073ffffffffffffffffffffffffffffffffffffffff167fa995c74341d87d6382e611e2f9439787e1d6c954ed0032d4402817eb78f225c860016040516125fa919061366d565b60405180910390a250565b61260d612d18565b73ffffffffffffffffffffffffffffffffffffffff1661262b6117c1565b73ffffffffffffffffffffffffffffffffffffffff1614612681576040517f08c379a0000000000000000000000000000000000000000000000000000000008152600401612678906137c8565b60405180910390fd5b600073ffffffffffffffffffffffffffffffffffffffff168173ffffffffffffffffffffffffffffffffffffffff1614156126f1576040517f08c379a00000000000000000000000000000000000000000000000000000000081526004016126e8906136c8565b60405180910390fd5b6126fa81612d20565b50565b612705612d18565b73ffffffffffffffffffffffffffffffffffffffff166127236117c1565b73ffffffffffffffffffffffffffffffffffffffff1614612779576040517f08c379a0000000000000000000000000000000000000000000000000000000008152600401612770906137c8565b60405180910390fd5b600073ffffffffffffffffffffffffffffffffffffffff168173ffffffffffffffffffffffffffffffffffffffff1614156127e9576040517f08c379a00000000000000000000000000000000000000000000000000000000081526004016127e0906138c8565b60405180910390fd5b600360008273ffffffffffffffffffffffffffffffffffffffff1673ffffffffffffffffffffffffffffffffffffffff16815260200190815260200160002060009054906101000a900460ff16612875576040517f08c379a000000000000000000000000000000000000000000000000000000000815260040161286c90613728565b60405180910390fd5b6000600360008373ffffffffffffffffffffffffffffffffffffffff1673ffffffffffffffffffffffffffffffffffffffff16815260200190815260200160002060006101000a81548160ff0219169083151502179055508073ffffffffffffffffffffffffffffffffffffffff167fa995c74341d87d6382e611e2f9439787e1d6c954ed0032d4402817eb78f225c86000604051612914919061366d565b60405180910390a250565b612927612d18565b73ffffffffffffffffffffffffffffffffffffffff166129456117c1565b73ffffffffffffffffffffffffffffffffffffffff161461299b576040517f08c379a0000000000000000000000000000000000000000000000000000000008152600401612992906137c8565b60405180910390fd5b6129a48661148d565b6129e3576040517f08c379a00000000000000000000000000000000000000000000000000000000081526004016129da906136e8565b60405180910390fd5b6129ec86610a7d565b15612a2c576040517f08c379a0000000000000000000000000000000000000000000000000000000008152600401612a2390613828565b60405180910390fd5b600085118015612a3c5750600084115b8015612a485750600083115b8015612a545750600082115b612a93576040517f08c379a0000000000000000000000000000000000000000000000000000000008152600401612a8a90613888565b60405180910390fd5b600073ffffffffffffffffffffffffffffffffffffffff168173ffffffffffffffffffffffffffffffffffffffff161415612b03576040517f08c379a0000000000000000000000000000000000000000000000000000000008152600401612afa906138c8565b60405180910390fd5b6000600860008373ffffffffffffffffffffffffffffffffffffffff1673ffffffffffffffffffffffffffffffffffffffff1681526020019081526020016000205414612b85576040517f08c379a0000000000000000000000000000000000000000000000000000000008152600401612b7c90613708565b60405180910390fd5b60006005600088815260200190815260200160002090506000600460008981526020019081526020016000209050670de0b6b3a764000087612bc79190613abc565b8260000181905550670de0b6b3a764000086612be39190613abc565b8260010181905550670de0b6b3a764000085612bff9190613abc565b8160030181905550670de0b6b3a764000084612c1b9190613abc565b816004018190555082600760008a815260200190815260200160002060006101000a81548173ffffffffffffffffffffffffffffffffffffffff021916908373ffffffffffffffffffffffffffffffffffffffff16021790555087600860008573ffffffffffffffffffffffffffffffffffffffff1673ffffffffffffffffffffffffffffffffffffffff168152602001908152602001600020819055508273ffffffffffffffffffffffffffffffffffffffff16887f7a9301e1d7e4267aac1f04cc3785bf5fce447f08569268d3d23d997ab05c6d2889898989604051612d06949392919061397e565b60405180910390a35050505050505050565b600033905090565b60008060009054906101000a900473ffffffffffffffffffffffffffffffffffffffff169050816000806101000a81548173ffffffffffffffffffffffffffffffffffffffff021916908373ffffffffffffffffffffffffffffffffffffffff1602179055508173ffffffffffffffffffffffffffffffffffffffff168173ffffffffffffffffffffffffffffffffffffffff167f8be0079c531659141344cd1fd0a4f28419497f9722a3daafe3b4186f6b6457e060405160405180910390a35050565b600081359050612df381613bfd565b92915050565b600081519050612e0881613bfd565b92915050565b600081519050612e1d81613c14565b92915050565b600081359050612e3281613c2b565b92915050565b600081359050612e4781613c42565b92915050565b600081519050612e5c81613c42565b92915050565b600060208284031215612e7457600080fd5b6000612e8284828501612de4565b91505092915050565b600060208284031215612e9d57600080fd5b6000612eab84828501612e0e565b91505092915050565b600060208284031215612ec657600080fd5b6000612ed484828501612e38565b91505092915050565b600060208284031215612eef57600080fd5b6000612efd84828501612e4d565b91505092915050565b60008060408385031215612f1957600080fd5b6000612f2785828601612e38565b9250506020612f3885828601612de4565b9150509250929050565b60008060408385031215612f5557600080fd5b6000612f6385828601612e4d565b9250506020612f7485828601612df9565b9150509250929050565b60008060408385031215612f9157600080fd5b6000612f9f85828601612e38565b9250506020612fb085828601612e23565b9150509250929050565b60008060408385031215612fcd57600080fd5b6000612fdb85828601612e38565b9250506020612fec85828601612e38565b9150509250929050565b6000806040838503121561300957600080fd5b600061301785828601612e4d565b925050602061302885828601612e4d565b9150509250929050565b60008060006060848603121561304757600080fd5b600061305586828701612e38565b935050602061306686828701612e38565b925050604061307786828701612e38565b9150509250925092565b60008060008060008060c0878903121561309a57600080fd5b60006130a889828a01612e38565b96505060206130b989828a01612e38565b95505060406130ca89828a01612e38565b94505060606130db89828a01612e38565b93505060806130ec89828a01612e38565b92505060a06130fd89828a01612de4565b9150509295509295509295565b61311381613b4a565b82525050565b61312281613b5c565b82525050565b61313181613b68565b82525050565b6000613144601e83613a24565b91507f4c69676874686f7573653a20494e56414c49445f53544152545f54494d4500006000830152602082019050919050565b6000613184601983613a24565b91507f4c69676874686f7573653a2050524546554e445f5048415345000000000000006000830152602082019050919050565b60006131c4602683613a24565b91507f4f776e61626c653a206e6577206f776e657220697320746865207a65726f206160008301527f64647265737300000000000000000000000000000000000000000000000000006020830152604082019050919050565b600061322a601683613a24565b91507f4c69676874686f7573653a204e4f5f41554354494f4e000000000000000000006000830152602082019050919050565b600061326a601483613a24565b91507f4c69676874686f7573653a204e46545f555345440000000000000000000000006000830152602082019050919050565b60006132aa601383613a24565b91507f4c69676874686f7573653a204e4f5f55534552000000000000000000000000006000830152602082019050919050565b60006132ea601e83613a24565b91507f4c69676874686f7573653a20494e56414c49445f50524f4a4543545f494400006000830152602082019050919050565b600061332a601a83613a24565b91507f4c69676874686f7573653a20414c52454144595f4d494e5445440000000000006000830152602082019050919050565b600061336a601883613a24565b91507f4c69676874686f7573653a2053414d455f4144445245535300000000000000006000830152602082019050919050565b60006133aa601a83613a24565b91507f4c69676874686f7573653a204e4f5f50524546554e445f5945540000000000006000830152602082019050919050565b60006133ea602083613a24565b91507f4f776e61626c653a2063616c6c6572206973206e6f7420746865206f776e65726000830152602082019050919050565b600061342a601483613a24565b91507f4c69676874686f7573653a205043435f555345440000000000000000000000006000830152602082019050919050565b600061346a602383613a24565b91507f4c69676874686f7573653a204e4f5f524547495354524154494f4e5f454e445f60008301527f59455400000000000000000000000000000000000000000000000000000000006020830152604082019050919050565b60006134d0601d83613a24565b91507f4c69676874686f7573653a20414c52454144595f494e495449415445440000006000830152602082019050919050565b6000613510601c83613a24565b91507f4c69676874686f7573653a20494e56414c49445f454e445f54494d45000000006000830152602082019050919050565b6000613550601583613a24565b91507f4c69676874686f7573653a20464f5242494444454e00000000000000000000006000830152602082019050919050565b6000613590601a83613a24565b91507f4c69676874686f7573653a205a45524f5f504152414d455445520000000000006000830152602082019050919050565b60006135d0601983613a24565b91507f4c69676874686f7573653a20414c52454144595f4144444544000000000000006000830152602082019050919050565b6000613610601883613a24565b91507f4c69676874686f7573653a205a45524f5f4144445245535300000000000000006000830152602082019050919050565b61364c81613b95565b82525050565b6000602082019050613667600083018461310a565b92915050565b60006020820190506136826000830184613119565b92915050565b600060208201905081810360008301526136a181613137565b9050919050565b600060208201905081810360008301526136c181613177565b9050919050565b600060208201905081810360008301526136e1816131b7565b9050919050565b600060208201905081810360008301526137018161321d565b9050919050565b600060208201905081810360008301526137218161325d565b9050919050565b600060208201905081810360008301526137418161329d565b9050919050565b60006020820190508181036000830152613761816132dd565b9050919050565b600060208201905081810360008301526137818161331d565b9050919050565b600060208201905081810360008301526137a18161335d565b9050919050565b600060208201905081810360008301526137c18161339d565b9050919050565b600060208201905081810360008301526137e1816133dd565b9050919050565b600060208201905081810360008301526138018161341d565b9050919050565b600060208201905081810360008301526138218161345d565b9050919050565b60006020820190508181036000830152613841816134c3565b9050919050565b6000602082019050818103600083015261386181613503565b9050919050565b6000602082019050818103600083015261388181613543565b9050919050565b600060208201905081810360008301526138a181613583565b9050919050565b600060208201905081810360008301526138c1816135c3565b9050919050565b600060208201905081810360008301526138e181613603565b9050919050565b60006020820190506138fd6000830184613643565b92915050565b60006040820190506139186000830185613643565b613925602083018461310a565b9392505050565b60006040820190506139416000830185613643565b61394e6020830184613128565b9392505050565b600060408201905061396a6000830185613643565b6139776020830184613643565b9392505050565b60006080820190506139936000830187613643565b6139a06020830186613643565b6139ad6040830185613643565b6139ba6060830184613643565b95945050505050565b600060c0820190506139d86000830189613643565b6139e56020830188613643565b6139f26040830187613643565b6139ff6060830186613643565b613a0c6080830185613643565b613a1960a0830184613119565b979650505050505050565b600082825260208201905092915050565b6000613a4082613b95565b9150613a4b83613b95565b9250827fffffffffffffffffffffffffffffffffffffffffffffffffffffffffffffffff03821115613a8057613a7f613b9f565b5b828201905092915050565b6000613a9682613b95565b9150613aa183613b95565b925082613ab157613ab0613bce565b5b828204905092915050565b6000613ac782613b95565b9150613ad283613b95565b9250817fffffffffffffffffffffffffffffffffffffffffffffffffffffffffffffffff0483118215151615613b0b57613b0a613b9f565b5b828202905092915050565b6000613b2182613b95565b9150613b2c83613b95565b925082821015613b3f57613b3e613b9f565b5b828203905092915050565b6000613b5582613b75565b9050919050565b60008115159050919050565b60008160000b9050919050565b600073ffffffffffffffffffffffffffffffffffffffff82169050919050565b6000819050919050565b7f4e487b7100000000000000000000000000000000000000000000000000000000600052601160045260246000fd5b7f4e487b7100000000000000000000000000000000000000000000000000000000600052601260045260246000fd5b613c0681613b4a565b8114613c1157600080fd5b50565b613c1d81613b5c565b8114613c2857600080fd5b50565b613c3481613b68565b8114613c3f57600080fd5b50565b613c4b81613b95565b8114613c5657600080fd5b5056fea2646970667358221220ac25a766d10fec9a7bd1e4a2c50c246f0e780d3b6a3b0c094c464b0b1c14aae764736f6c63430008000033",
  "linkReferences": {},
  "deployedLinkReferences": {}
}