{
  "_format": "hh-sol-artifact-1",
  "contractName": "LighthouseTier",
  "sourceName": "contracts/LighthouseTier.sol",
  "abi": [
    {
      "inputs": [
        {
          "internalType": "address",
          "name": "_crowns",
          "type": "address"
        },
        {
          "internalType": "address",
          "name": "_claimVerifier",
          "type": "address"
        },
        {
          "internalType": "uint256[4]",
          "name": "_fees",
          "type": "uint256[4]"
        }
      ],
      "stateMutability": "nonpayable",
      "type": "constructor"
    },
    {
      "anonymous": false,
      "inputs": [
        {
          "indexed": true,
          "internalType": "address",
          "name": "investor",
          "type": "address"
        },
        {
          "indexed": true,
          "internalType": "uint8",
          "name": "tier",
          "type": "uint8"
        }
      ],
      "name": "Claim",
      "type": "event"
    },
    {
      "anonymous": false,
      "inputs": [
        {
          "indexed": false,
          "internalType": "uint256",
          "name": "feeZero",
          "type": "uint256"
        },
        {
          "indexed": false,
          "internalType": "uint256",
          "name": "feeOne",
          "type": "uint256"
        },
        {
          "indexed": false,
          "internalType": "uint256",
          "name": "feeTwo",
          "type": "uint256"
        },
        {
          "indexed": false,
          "internalType": "uint256",
          "name": "feeThree",
          "type": "uint256"
        }
      ],
      "name": "Fees",
      "type": "event"
    },
    {
      "anonymous": false,
      "inputs": [
        {
          "indexed": true,
          "internalType": "address",
          "name": "previousOwner",
          "type": "address"
        },
        {
          "indexed": true,
          "internalType": "address",
          "name": "newOwner",
          "type": "address"
        }
      ],
      "name": "OwnershipTransferred",
      "type": "event"
    },
    {
      "anonymous": false,
      "inputs": [
        {
          "indexed": true,
          "internalType": "address",
          "name": "user",
          "type": "address"
        },
        {
          "indexed": false,
          "internalType": "bool",
          "name": "allowed",
          "type": "bool"
        }
      ],
      "name": "TierEditer",
      "type": "event"
    },
    {
      "anonymous": false,
      "inputs": [
        {
          "indexed": true,
          "internalType": "address",
          "name": "investor",
          "type": "address"
        },
        {
          "indexed": true,
          "internalType": "uint8",
          "name": "tier",
          "type": "uint8"
        }
      ],
      "name": "Use",
      "type": "event"
    },
    {
      "inputs": [
        {
          "internalType": "address",
          "name": "_user",
          "type": "address"
        }
      ],
      "name": "addEditor",
      "outputs": [],
      "stateMutability": "nonpayable",
      "type": "function"
    },
    {
      "inputs": [
        {
          "internalType": "uint8",
          "name": "level",
          "type": "uint8"
        },
        {
          "internalType": "uint8",
          "name": "v",
          "type": "uint8"
        },
        {
          "internalType": "bytes32",
          "name": "r",
          "type": "bytes32"
        },
        {
          "internalType": "bytes32",
          "name": "s",
          "type": "bytes32"
        }
      ],
      "name": "claim",
      "outputs": [],
      "stateMutability": "nonpayable",
      "type": "function"
    },
    {
      "inputs": [],
      "name": "claimVerifier",
      "outputs": [
        {
          "internalType": "address",
          "name": "",
          "type": "address"
        }
      ],
      "stateMutability": "view",
      "type": "function"
    },
    {
      "inputs": [
        {
          "internalType": "address",
          "name": "_user",
          "type": "address"
        }
      ],
      "name": "deleteEditorEditor",
      "outputs": [],
      "stateMutability": "nonpayable",
      "type": "function"
    },
    {
      "inputs": [
        {
          "internalType": "address",
          "name": "",
          "type": "address"
        }
      ],
      "name": "editors",
      "outputs": [
        {
          "internalType": "bool",
          "name": "",
          "type": "bool"
        }
      ],
      "stateMutability": "view",
      "type": "function"
    },
    {
      "inputs": [
        {
          "internalType": "uint8",
          "name": "",
          "type": "uint8"
        }
      ],
      "name": "fees",
      "outputs": [
        {
          "internalType": "uint256",
          "name": "",
          "type": "uint256"
        }
      ],
      "stateMutability": "view",
      "type": "function"
    },
    {
      "inputs": [
        {
          "internalType": "address",
          "name": "investor",
          "type": "address"
        }
      ],
      "name": "getTierLevel",
      "outputs": [
        {
          "internalType": "int8",
          "name": "",
          "type": "int8"
        }
      ],
      "stateMutability": "view",
      "type": "function"
    },
    {
      "inputs": [
        {
          "internalType": "uint256",
          "name": "",
          "type": "uint256"
        },
        {
          "internalType": "uint256",
          "name": "",
          "type": "uint256"
        }
      ],
      "name": "investAmount",
      "outputs": [
        {
          "internalType": "uint8",
          "name": "",
          "type": "uint8"
        }
      ],
      "stateMutability": "view",
      "type": "function"
    },
    {
      "inputs": [],
      "name": "owner",
      "outputs": [
        {
          "internalType": "address",
          "name": "",
          "type": "address"
        }
      ],
      "stateMutability": "view",
      "type": "function"
    },
    {
      "inputs": [],
      "name": "renounceOwnership",
      "outputs": [],
      "stateMutability": "nonpayable",
      "type": "function"
    },
    {
      "inputs": [
        {
          "internalType": "address",
          "name": "_claimVerifier",
          "type": "address"
        }
      ],
      "name": "setClaimVerifier",
      "outputs": [],
      "stateMutability": "nonpayable",
      "type": "function"
    },
    {
      "inputs": [
        {
          "internalType": "uint256[4]",
          "name": "_fees",
          "type": "uint256[4]"
        }
      ],
      "name": "setFees",
      "outputs": [],
      "stateMutability": "nonpayable",
      "type": "function"
    },
    {
      "inputs": [
        {
          "internalType": "address",
          "name": "",
          "type": "address"
        }
      ],
      "name": "tiers",
      "outputs": [
        {
          "internalType": "uint8",
          "name": "level",
          "type": "uint8"
        },
        {
          "internalType": "bool",
          "name": "usable",
          "type": "bool"
        },
        {
          "internalType": "uint256",
          "name": "nonce",
          "type": "uint256"
        }
      ],
      "stateMutability": "view",
      "type": "function"
    },
    {
      "inputs": [
        {
          "internalType": "address",
          "name": "newOwner",
          "type": "address"
        }
      ],
      "name": "transferOwnership",
      "outputs": [],
      "stateMutability": "nonpayable",
      "type": "function"
    },
    {
      "inputs": [
        {
          "internalType": "address",
          "name": "investor",
          "type": "address"
        },
        {
          "internalType": "uint8",
          "name": "level",
          "type": "uint8"
        }
      ],
      "name": "use",
      "outputs": [],
      "stateMutability": "nonpayable",
      "type": "function"
    }
  ],
  "bytecode": "0x60a06040523480156200001157600080fd5b5060405162003651380380620036518339818101604052810190620000379190620008d4565b620000576200004b620001cf60201b60201c565b620001d760201b60201c565b600073ffffffffffffffffffffffffffffffffffffffff168373ffffffffffffffffffffffffffffffffffffffff161415620000ca576040517f08c379a0000000000000000000000000000000000000000000000000000000008152600401620000c19062000b0b565b60405180910390fd5b600073ffffffffffffffffffffffffffffffffffffffff168273ffffffffffffffffffffffffffffffffffffffff1614156200013d576040517f08c379a0000000000000000000000000000000000000000000000000000000008152600401620001349062000b0b565b60405180910390fd5b6200014e816200029b60201b60201c565b8273ffffffffffffffffffffffffffffffffffffffff1660808173ffffffffffffffffffffffffffffffffffffffff1660601b8152505081600560006101000a81548173ffffffffffffffffffffffffffffffffffffffff021916908373ffffffffffffffffffffffffffffffffffffffff16021790555050505062000cef565b600033905090565b60008060009054906101000a900473ffffffffffffffffffffffffffffffffffffffff169050816000806101000a81548173ffffffffffffffffffffffffffffffffffffffff021916908373ffffffffffffffffffffffffffffffffffffffff1602179055508173ffffffffffffffffffffffffffffffffffffffff168173ffffffffffffffffffffffffffffffffffffffff167f8be0079c531659141344cd1fd0a4f28419497f9722a3daafe3b4186f6b6457e060405160405180910390a35050565b620002ab620001cf60201b60201c565b73ffffffffffffffffffffffffffffffffffffffff16620002d1620007e760201b60201c565b73ffffffffffffffffffffffffffffffffffffffff16146200032a576040517f08c379a0000000000000000000000000000000000000000000000000000000008152600401620003219062000b2d565b60405180910390fd5b60008160006004811062000367577f4e487b7100000000000000000000000000000000000000000000000000000000600052603260045260246000fd5b602002015111620003af576040517f08c379a0000000000000000000000000000000000000000000000000000000008152600401620003a69062000ae9565b60405180910390fd5b600081600160048110620003ec577f4e487b7100000000000000000000000000000000000000000000000000000000600052603260045260246000fd5b60200201511162000434576040517f08c379a00000000000000000000000000000000000000000000000000000000081526004016200042b9062000ac7565b60405180910390fd5b60008160026004811062000471577f4e487b7100000000000000000000000000000000000000000000000000000000600052603260045260246000fd5b602002015111620004b9576040517f08c379a0000000000000000000000000000000000000000000000000000000008152600401620004b09062000b71565b60405180910390fd5b600081600360048110620004f6577f4e487b7100000000000000000000000000000000000000000000000000000000600052603260045260246000fd5b6020020151116200053e576040517f08c379a0000000000000000000000000000000000000000000000000000000008152600401620005359062000b4f565b60405180910390fd5b8060006004811062000579577f4e487b7100000000000000000000000000000000000000000000000000000000600052603260045260246000fd5b6020020151600360008060ff1681526020019081526020016000208190555080600160048110620005d3577f4e487b7100000000000000000000000000000000000000000000000000000000600052603260045260246000fd5b602002015160036000600160ff16815260200190815260200160002081905550806002600481106200062e577f4e487b7100000000000000000000000000000000000000000000000000000000600052603260045260246000fd5b602002015160036000600260ff168152602001908152602001600020819055508060036004811062000689577f4e487b7100000000000000000000000000000000000000000000000000000000600052603260045260246000fd5b602002015160036000600360ff168152602001908152602001600020819055507f4489155594f1d8b441305041bc1fa2fc40441583393f9626061d38dbefdc18348160006004811062000705577f4e487b7100000000000000000000000000000000000000000000000000000000600052603260045260246000fd5b60200201518260016004811062000745577f4e487b7100000000000000000000000000000000000000000000000000000000600052603260045260246000fd5b60200201518360026004811062000785577f4e487b7100000000000000000000000000000000000000000000000000000000600052603260045260246000fd5b602002015184600360048110620007c5577f4e487b7100000000000000000000000000000000000000000000000000000000600052603260045260246000fd5b6020020151604051620007dc949392919062000b93565b60405180910390a150565b60008060009054906101000a900473ffffffffffffffffffffffffffffffffffffffff16905090565b600062000827620008218462000c14565b62000be0565b905080828560208602820111156200083e57600080fd5b60005b85811015620008725781620008578882620008bd565b84526020840193506020830192505060018101905062000841565b5050509392505050565b6000815190506200088d8162000cbb565b92915050565b600082601f830112620008a557600080fd5b6004620008b484828562000810565b91505092915050565b600081519050620008ce8162000cd5565b92915050565b600080600060c08486031215620008ea57600080fd5b6000620008fa868287016200087c565b93505060206200090d868287016200087c565b9250506040620009208682870162000893565b9150509250925092565b600062000939601a8362000c3d565b91507f4c69676874686f757365546965723a205a45524f5f4645455f310000000000006000830152602082019050919050565b60006200097b601a8362000c3d565b91507f4c69676874686f757365546965723a205a45524f5f4645455f300000000000006000830152602082019050919050565b6000620009bd601c8362000c3d565b91507f4c69676874686f757365546965723a205a45524f5f41444452455353000000006000830152602082019050919050565b6000620009ff60208362000c3d565b91507f4f776e61626c653a2063616c6c6572206973206e6f7420746865206f776e65726000830152602082019050919050565b600062000a41601a8362000c3d565b91507f4c69676874686f757365546965723a205a45524f5f4645455f330000000000006000830152602082019050919050565b600062000a83601a8362000c3d565b91507f4c69676874686f757365546965723a205a45524f5f4645455f320000000000006000830152602082019050919050565b62000ac18162000c82565b82525050565b6000602082019050818103600083015262000ae2816200092a565b9050919050565b6000602082019050818103600083015262000b04816200096c565b9050919050565b6000602082019050818103600083015262000b2681620009ae565b9050919050565b6000602082019050818103600083015262000b4881620009f0565b9050919050565b6000602082019050818103600083015262000b6a8162000a32565b9050919050565b6000602082019050818103600083015262000b8c8162000a74565b9050919050565b600060808201905062000baa600083018762000ab6565b62000bb9602083018662000ab6565b62000bc8604083018562000ab6565b62000bd7606083018462000ab6565b95945050505050565b6000604051905081810181811067ffffffffffffffff8211171562000c0a5762000c0962000c8c565b5b8060405250919050565b600067ffffffffffffffff82111562000c325762000c3162000c8c565b5b602082029050919050565b600082825260208201905092915050565b600062000c5b8262000c62565b9050919050565b600073ffffffffffffffffffffffffffffffffffffffff82169050919050565b6000819050919050565b7f4e487b7100000000000000000000000000000000000000000000000000000000600052604160045260246000fd5b62000cc68162000c4e565b811462000cd257600080fd5b50565b62000ce08162000c82565b811462000cec57600080fd5b50565b60805160601c61294362000d0e600039600061111401526129436000f3fe608060405234801561001057600080fd5b50600436106100f55760003560e01c80638da5cb5b11610097578063c8111f2711610066578063c8111f271461025c578063cd52844d1461028e578063e5975bdc146102be578063f2fde38b146102da576100f5565b80638da5cb5b146101e8578063a398e20614610206578063a93539d014610222578063ba1cbc7f14610240576100f5565b806347fe3022116100d357806347fe30221461017657806362a01ac2146101a65780636b74b211146101c2578063715018a6146101de576100f5565b806328fc4c3c146100fa578063357c13541461012a57806338eb84251461015a575b600080fd5b610114600480360381019061010f9190611ae6565b6102f6565b6040516101219190612321565b60405180910390f35b610144600480360381019061013f9190611bd9565b6103cc565b604051610151919061257c565b60405180910390f35b610174600480360381019061016f9190611ae6565b6103e4565b005b610190600480360381019061018b9190611b9d565b6105a5565b60405161019d91906125dc565b60405180910390f35b6101c060048036038101906101bb9190611ae6565b6105de565b005b6101dc60048036038101906101d79190611b4b565b610800565b005b6101e6610d1f565b005b6101f0610da7565b6040516101fd919061227d565b60405180910390f35b610220600480360381019061021b9190611c02565b610dd0565b005b61022a6112bc565b604051610237919061227d565b60405180910390f35b61025a60048036038101906102559190611b0f565b6112e2565b005b61027660048036038101906102719190611ae6565b6115a8565b604051610285939291906125f7565b60405180910390f35b6102a860048036038101906102a39190611ae6565b6115ec565b6040516102b591906122c1565b60405180910390f35b6102d860048036038101906102d39190611ae6565b61160c565b005b6102f460048036038101906102ef9190611ae6565b61182f565b005b6000600160008373ffffffffffffffffffffffffffffffffffffffff1673ffffffffffffffffffffffffffffffffffffffff16815260200190815260200160002060000160019054906101000a900460ff166103a357600160008373ffffffffffffffffffffffffffffffffffffffff1673ffffffffffffffffffffffffffffffffffffffff16815260200190815260200160002060000160009054906101000a900460ff1690506103c7565b7fffffffffffffffffffffffffffffffffffffffffffffffffffffffffffffffff90505b919050565b60036020528060005260406000206000915090505481565b6103ec611927565b73ffffffffffffffffffffffffffffffffffffffff1661040a610da7565b73ffffffffffffffffffffffffffffffffffffffff1614610460576040517f08c379a0000000000000000000000000000000000000000000000000000000008152600401610457906124fc565b60405180910390fd5b600073ffffffffffffffffffffffffffffffffffffffff168173ffffffffffffffffffffffffffffffffffffffff1614156104d0576040517f08c379a00000000000000000000000000000000000000000000000000000000081526004016104c79061247c565b60405180910390fd5b8073ffffffffffffffffffffffffffffffffffffffff16600560009054906101000a900473ffffffffffffffffffffffffffffffffffffffff1673ffffffffffffffffffffffffffffffffffffffff161415610561576040517f08c379a00000000000000000000000000000000000000000000000000000000081526004016105589061243c565b60405180910390fd5b80600560006101000a81548173ffffffffffffffffffffffffffffffffffffffff021916908373ffffffffffffffffffffffffffffffffffffffff16021790555050565b600260205281600052604060002081600381106105c157600080fd5b60209182820401919006915091509054906101000a900460ff1681565b6105e6611927565b73ffffffffffffffffffffffffffffffffffffffff16610604610da7565b73ffffffffffffffffffffffffffffffffffffffff161461065a576040517f08c379a0000000000000000000000000000000000000000000000000000000008152600401610651906124fc565b60405180910390fd5b600073ffffffffffffffffffffffffffffffffffffffff168173ffffffffffffffffffffffffffffffffffffffff1614156106ca576040517f08c379a00000000000000000000000000000000000000000000000000000000081526004016106c19061247c565b60405180910390fd5b600460008273ffffffffffffffffffffffffffffffffffffffff1673ffffffffffffffffffffffffffffffffffffffff16815260200190815260200160002060009054906101000a900460ff16610756576040517f08c379a000000000000000000000000000000000000000000000000000000000815260040161074d9061253c565b60405180910390fd5b6000600460008373ffffffffffffffffffffffffffffffffffffffff1673ffffffffffffffffffffffffffffffffffffffff16815260200190815260200160002060006101000a81548160ff0219169083151502179055508073ffffffffffffffffffffffffffffffffffffffff167fad424f61135bf7cc55206b37c1dfcef56d2f1dee00559f79fd7481bf0c7b078b60006040516107f591906122c1565b60405180910390a250565b610808611927565b73ffffffffffffffffffffffffffffffffffffffff16610826610da7565b73ffffffffffffffffffffffffffffffffffffffff161461087c576040517f08c379a0000000000000000000000000000000000000000000000000000000008152600401610873906124fc565b60405180910390fd5b6000816000600481106108b8577f4e487b7100000000000000000000000000000000000000000000000000000000600052603260045260246000fd5b6020020151116108fd576040517f08c379a00000000000000000000000000000000000000000000000000000000081526004016108f4906123fc565b60405180910390fd5b600081600160048110610939577f4e487b7100000000000000000000000000000000000000000000000000000000600052603260045260246000fd5b60200201511161097e576040517f08c379a0000000000000000000000000000000000000000000000000000000008152600401610975906123bc565b60405180910390fd5b6000816002600481106109ba577f4e487b7100000000000000000000000000000000000000000000000000000000600052603260045260246000fd5b6020020151116109ff576040517f08c379a00000000000000000000000000000000000000000000000000000000081526004016109f69061255c565b60405180910390fd5b600081600360048110610a3b577f4e487b7100000000000000000000000000000000000000000000000000000000600052603260045260246000fd5b602002015111610a80576040517f08c379a0000000000000000000000000000000000000000000000000000000008152600401610a779061251c565b60405180910390fd5b80600060048110610aba577f4e487b7100000000000000000000000000000000000000000000000000000000600052603260045260246000fd5b6020020151600360008060ff1681526020019081526020016000208190555080600160048110610b13577f4e487b7100000000000000000000000000000000000000000000000000000000600052603260045260246000fd5b602002015160036000600160ff1681526020019081526020016000208190555080600260048110610b6d577f4e487b7100000000000000000000000000000000000000000000000000000000600052603260045260246000fd5b602002015160036000600260ff1681526020019081526020016000208190555080600360048110610bc7577f4e487b7100000000000000000000000000000000000000000000000000000000600052603260045260246000fd5b602002015160036000600360ff168152602001908152602001600020819055507f4489155594f1d8b441305041bc1fa2fc40441583393f9626061d38dbefdc183481600060048110610c42577f4e487b7100000000000000000000000000000000000000000000000000000000600052603260045260246000fd5b602002015182600160048110610c81577f4e487b7100000000000000000000000000000000000000000000000000000000600052603260045260246000fd5b602002015183600260048110610cc0577f4e487b7100000000000000000000000000000000000000000000000000000000600052603260045260246000fd5b602002015184600360048110610cff577f4e487b7100000000000000000000000000000000000000000000000000000000600052603260045260246000fd5b6020020151604051610d149493929190612597565b60405180910390a150565b610d27611927565b73ffffffffffffffffffffffffffffffffffffffff16610d45610da7565b73ffffffffffffffffffffffffffffffffffffffff1614610d9b576040517f08c379a0000000000000000000000000000000000000000000000000000000008152600401610d92906124fc565b60405180910390fd5b610da5600061192f565b565b60008060009054906101000a900473ffffffffffffffffffffffffffffffffffffffff16905090565b60008460ff1610158015610de7575060048460ff16105b610e26576040517f08c379a0000000000000000000000000000000000000000000000000000000008152600401610e1d9061249c565b60405180910390fd5b6000600160003373ffffffffffffffffffffffffffffffffffffffff1673ffffffffffffffffffffffffffffffffffffffff16815260200190815260200160002090508060000160019054906101000a900460ff16610edd578460ff168160000160009054906101000a900460ff1660ff1614610ed8576040517f08c379a0000000000000000000000000000000000000000000000000000000008152600401610ecf9061239c565b60405180910390fd5b610f95565b60008560ff1614610f52578460ff1660018260000160009054906101000a900460ff16610f0a9190612702565b60ff1614610f4d576040517f08c379a0000000000000000000000000000000000000000000000000000000008152600401610f44906124dc565b60405180910390fd5b610f94565b6000610f93576040517f08c379a0000000000000000000000000000000000000000000000000000000008152600401610f8a906124bc565b60405180910390fd5b5b5b60006040518060400160405280601c81526020017f19457468657265756d205369676e6564204d6573736167653a0a3332000000008152509050600033836001015488604051602001610fea93929190612218565b60405160208183030381529060405280519060200120905060008282604051602001611017929190612255565b60405160208183030381529060405280519060200120905060006001828989896040516000815260200160405260405161105494939291906122dc565b6020604051602081039080840390855afa158015611076573d6000803e3d6000fd5b505050602060405103519050600560009054906101000a900473ffffffffffffffffffffffffffffffffffffffff1673ffffffffffffffffffffffffffffffffffffffff168173ffffffffffffffffffffffffffffffffffffffff1614611112576040517f08c379a00000000000000000000000000000000000000000000000000000000081526004016111099061245c565b60405180910390fd5b7f000000000000000000000000000000000000000000000000000000000000000073ffffffffffffffffffffffffffffffffffffffff16636aade28833600360008d60ff1660ff168152602001908152602001600020546040518363ffffffff1660e01b8152600401611186929190612298565b602060405180830381600087803b1580156111a057600080fd5b505af11580156111b4573d6000803e3d6000fd5b505050506040513d601f19601f820116820180604052508101906111d89190611b74565b611217576040517f08c379a000000000000000000000000000000000000000000000000000000000815260040161120e9061233c565b60405180910390fd5b888560000160006101000a81548160ff021916908360ff16021790555060018560000160016101000a81548160ff0219169083151502179055506001856001015461126291906126ac565b85600101819055508860ff163373ffffffffffffffffffffffffffffffffffffffff167f2e2a94b1bf4a5580acb10f544a4b2e39c602981d27e56bf90e73f0074d33b6b260405160405180910390a3505050505050505050565b600560009054906101000a900473ffffffffffffffffffffffffffffffffffffffff1681565b60008160ff16101580156112f9575060048160ff16105b611338576040517f08c379a000000000000000000000000000000000000000000000000000000000815260040161132f9061249c565b60405180910390fd5b600073ffffffffffffffffffffffffffffffffffffffff168273ffffffffffffffffffffffffffffffffffffffff1614156113a8576040517f08c379a000000000000000000000000000000000000000000000000000000000815260040161139f9061247c565b60405180910390fd5b600460003373ffffffffffffffffffffffffffffffffffffffff1673ffffffffffffffffffffffffffffffffffffffff16815260200190815260200160002060009054906101000a900460ff16611434576040517f08c379a000000000000000000000000000000000000000000000000000000000815260040161142b9061241c565b60405180910390fd5b6000600160008473ffffffffffffffffffffffffffffffffffffffff1673ffffffffffffffffffffffffffffffffffffffff16815260200190815260200160002090508160ff168160000160009054906101000a900460ff1660ff16146114d0576040517f08c379a00000000000000000000000000000000000000000000000000000000081526004016114c7906124dc565b60405180910390fd5b8060000160019054906101000a900460ff16611521576040517f08c379a0000000000000000000000000000000000000000000000000000000008152600401611518906123dc565b60405180910390fd5b60008160000160016101000a81548160ff02191690831515021790555060008160000160006101000a81548160ff021916908360ff1602179055508160ff168373ffffffffffffffffffffffffffffffffffffffff167f0eaca539e568efb8aed51f9984b71dee27485782c80de2fcfde4398151c39a8f60405160405180910390a3505050565b60016020528060005260406000206000915090508060000160009054906101000a900460ff16908060000160019054906101000a900460ff16908060010154905083565b60046020528060005260406000206000915054906101000a900460ff1681565b611614611927565b73ffffffffffffffffffffffffffffffffffffffff16611632610da7565b73ffffffffffffffffffffffffffffffffffffffff1614611688576040517f08c379a000000000000000000000000000000000000000000000000000000000815260040161167f906124fc565b60405180910390fd5b600073ffffffffffffffffffffffffffffffffffffffff168173ffffffffffffffffffffffffffffffffffffffff1614156116f8576040517f08c379a00000000000000000000000000000000000000000000000000000000081526004016116ef9061247c565b60405180910390fd5b600460008273ffffffffffffffffffffffffffffffffffffffff1673ffffffffffffffffffffffffffffffffffffffff16815260200190815260200160002060009054906101000a900460ff1615611785576040517f08c379a000000000000000000000000000000000000000000000000000000000815260040161177c9061235c565b60405180910390fd5b6001600460008373ffffffffffffffffffffffffffffffffffffffff1673ffffffffffffffffffffffffffffffffffffffff16815260200190815260200160002060006101000a81548160ff0219169083151502179055508073ffffffffffffffffffffffffffffffffffffffff167fad424f61135bf7cc55206b37c1dfcef56d2f1dee00559f79fd7481bf0c7b078b600160405161182491906122c1565b60405180910390a250565b611837611927565b73ffffffffffffffffffffffffffffffffffffffff16611855610da7565b73ffffffffffffffffffffffffffffffffffffffff16146118ab576040517f08c379a00000000000000000000000000000000000000000000000000000000081526004016118a2906124fc565b60405180910390fd5b600073ffffffffffffffffffffffffffffffffffffffff168173ffffffffffffffffffffffffffffffffffffffff16141561191b576040517f08c379a00000000000000000000000000000000000000000000000000000000081526004016119129061237c565b60405180910390fd5b6119248161192f565b50565b600033905090565b60008060009054906101000a900473ffffffffffffffffffffffffffffffffffffffff169050816000806101000a81548173ffffffffffffffffffffffffffffffffffffffff021916908373ffffffffffffffffffffffffffffffffffffffff1602179055508173ffffffffffffffffffffffffffffffffffffffff168173ffffffffffffffffffffffffffffffffffffffff167f8be0079c531659141344cd1fd0a4f28419497f9722a3daafe3b4186f6b6457e060405160405180910390a35050565b6000611a06611a018461265f565b61262e565b90508082856020860282011115611a1c57600080fd5b60005b85811015611a4c5781611a328882611abc565b845260208401935060208301925050600181019050611a1f565b5050509392505050565b600081359050611a658161289a565b92915050565b600082601f830112611a7c57600080fd5b6004611a898482856119f3565b91505092915050565b600081519050611aa1816128b1565b92915050565b600081359050611ab6816128c8565b92915050565b600081359050611acb816128df565b92915050565b600081359050611ae0816128f6565b92915050565b600060208284031215611af857600080fd5b6000611b0684828501611a56565b91505092915050565b60008060408385031215611b2257600080fd5b6000611b3085828601611a56565b9250506020611b4185828601611ad1565b9150509250929050565b600060808284031215611b5d57600080fd5b6000611b6b84828501611a6b565b91505092915050565b600060208284031215611b8657600080fd5b6000611b9484828501611a92565b91505092915050565b60008060408385031215611bb057600080fd5b6000611bbe85828601611abc565b9250506020611bcf85828601611abc565b9150509250929050565b600060208284031215611beb57600080fd5b6000611bf984828501611ad1565b91505092915050565b60008060008060808587031215611c1857600080fd5b6000611c2687828801611ad1565b9450506020611c3787828801611ad1565b9350506040611c4887828801611aa7565b9250506060611c5987828801611aa7565b91505092959194509250565b611c6e81612739565b82525050565b611c85611c8082612739565b6127d8565b82525050565b611c948161274b565b82525050565b611ca381612757565b82525050565b611cba611cb582612757565b6127ea565b82525050565b6000611ccb82612685565b611cd58185612690565b9350611ce58185602086016127a5565b80840191505092915050565b611cfa81612761565b82525050565b6000611d0d601b8361269b565b91507f4c69676874686f757365546965723a204357535f554e5350454e4400000000006000830152602082019050919050565b6000611d4d601d8361269b565b91507f4c69676874686f757365546965723a20414c52454144595f41444445440000006000830152602082019050919050565b6000611d8d60268361269b565b91507f4f776e61626c653a206e6577206f776e657220697320746865207a65726f206160008301527f64647265737300000000000000000000000000000000000000000000000000006020830152604082019050919050565b6000611df3601e8361269b565b91507f4c69676874686f757365546965723a204c4556454c5f4d49534d4154434800006000830152602082019050919050565b6000611e33601a8361269b565b91507f4c69676874686f757365546965723a205a45524f5f4645455f310000000000006000830152602082019050919050565b6000611e73601c8361269b565b91507f4c69676874686f757365546965723a20414c52454144595f55534544000000006000830152602082019050919050565b6000611eb3601a8361269b565b91507f4c69676874686f757365546965723a205a45524f5f4645455f300000000000006000830152602082019050919050565b6000611ef360198361269b565b91507f4c69676874686f757365546965723a20464f5242494444454e000000000000006000830152602082019050919050565b6000611f33601c8361269b565b91507f4c69676874686f757365546965723a2053414d455f41444452455353000000006000830152602082019050919050565b6000611f7360138361269b565b91507f4c69676874686f757365546965723a20534947000000000000000000000000006000830152602082019050919050565b6000611fb3601c8361269b565b91507f4c69676874686f757365546965723a205a45524f5f41444452455353000000006000830152602082019050919050565b6000611ff360218361269b565b91507f4c69676874686f757365546965723a20494e56414c49445f504152414d45544560008301527f52000000000000000000000000000000000000000000000000000000000000006020830152604082019050919050565b600061205960178361269b565b91507f4c69676874686f757365546965723a20434c41494d5f300000000000000000006000830152602082019050919050565b6000612099601d8361269b565b91507f4c69676874686f757365546965723a20494e56414c49445f4c4556454c0000006000830152602082019050919050565b60006120d960208361269b565b91507f4f776e61626c653a2063616c6c6572206973206e6f7420746865206f776e65726000830152602082019050919050565b6000612119601a8361269b565b91507f4c69676874686f757365546965723a205a45524f5f4645455f330000000000006000830152602082019050919050565b600061215960178361269b565b91507f4c69676874686f757365546965723a204e4f5f555345520000000000000000006000830152602082019050919050565b6000612199601a8361269b565b91507f4c69676874686f757365546965723a205a45524f5f4645455f320000000000006000830152602082019050919050565b6121d58161278e565b82525050565b6121ec6121e78261278e565b612806565b82525050565b6121fb81612798565b82525050565b61221261220d82612798565b612810565b82525050565b60006122248286611c74565b60148201915061223482856121db565b6020820191506122448284612201565b600182019150819050949350505050565b60006122618285611cc0565b915061226d8284611ca9565b6020820191508190509392505050565b60006020820190506122926000830184611c65565b92915050565b60006040820190506122ad6000830185611c65565b6122ba60208301846121cc565b9392505050565b60006020820190506122d66000830184611c8b565b92915050565b60006080820190506122f16000830187611c9a565b6122fe60208301866121f2565b61230b6040830185611c9a565b6123186060830184611c9a565b95945050505050565b60006020820190506123366000830184611cf1565b92915050565b6000602082019050818103600083015261235581611d00565b9050919050565b6000602082019050818103600083015261237581611d40565b9050919050565b6000602082019050818103600083015261239581611d80565b9050919050565b600060208201905081810360008301526123b581611de6565b9050919050565b600060208201905081810360008301526123d581611e26565b9050919050565b600060208201905081810360008301526123f581611e66565b9050919050565b6000602082019050818103600083015261241581611ea6565b9050919050565b6000602082019050818103600083015261243581611ee6565b9050919050565b6000602082019050818103600083015261245581611f26565b9050919050565b6000602082019050818103600083015261247581611f66565b9050919050565b6000602082019050818103600083015261249581611fa6565b9050919050565b600060208201905081810360008301526124b581611fe6565b9050919050565b600060208201905081810360008301526124d58161204c565b9050919050565b600060208201905081810360008301526124f58161208c565b9050919050565b60006020820190508181036000830152612515816120cc565b9050919050565b600060208201905081810360008301526125358161210c565b9050919050565b600060208201905081810360008301526125558161214c565b9050919050565b600060208201905081810360008301526125758161218c565b9050919050565b600060208201905061259160008301846121cc565b92915050565b60006080820190506125ac60008301876121cc565b6125b960208301866121cc565b6125c660408301856121cc565b6125d360608301846121cc565b95945050505050565b60006020820190506125f160008301846121f2565b92915050565b600060608201905061260c60008301866121f2565b6126196020830185611c8b565b61262660408301846121cc565b949350505050565b6000604051905081810181811067ffffffffffffffff8211171561265557612654612851565b5b8060405250919050565b600067ffffffffffffffff82111561267a57612679612851565b5b602082029050919050565b600081519050919050565b600081905092915050565b600082825260208201905092915050565b60006126b78261278e565b91506126c28361278e565b9250827fffffffffffffffffffffffffffffffffffffffffffffffffffffffffffffffff038211156126f7576126f6612822565b5b828201905092915050565b600061270d82612798565b915061271883612798565b92508260ff0382111561272e5761272d612822565b5b828201905092915050565b60006127448261276e565b9050919050565b60008115159050919050565b6000819050919050565b60008160000b9050919050565b600073ffffffffffffffffffffffffffffffffffffffff82169050919050565b6000819050919050565b600060ff82169050919050565b60005b838110156127c35780820151818401526020810190506127a8565b838111156127d2576000848401525b50505050565b60006127e3826127f4565b9050919050565b6000819050919050565b60006127ff8261288d565b9050919050565b6000819050919050565b600061281b82612880565b9050919050565b7f4e487b7100000000000000000000000000000000000000000000000000000000600052601160045260246000fd5b7f4e487b7100000000000000000000000000000000000000000000000000000000600052604160045260246000fd5b60008160f81b9050919050565b60008160601b9050919050565b6128a381612739565b81146128ae57600080fd5b50565b6128ba8161274b565b81146128c557600080fd5b50565b6128d181612757565b81146128dc57600080fd5b50565b6128e88161278e565b81146128f357600080fd5b50565b6128ff81612798565b811461290a57600080fd5b5056fea2646970667358221220d50d9be25a08081c9730f0307e88e04544e68f04aac093015fb114e03ee3905864736f6c63430008000033",
  "linkReferences": {},
  "deployedLinkReferences": {}
}