{
  "_format": "hh-sol-artifact-1",
  "contractName": "LighthouseProject",
  "sourceName": "contracts/LighthouseProject.sol",
  "abi": [
    {
      "inputs": [
        {
          "internalType": "address",
          "name": "verifier",
          "type": "address"
        }
      ],
      "stateMutability": "nonpayable",
      "type": "constructor"
    },
    {
      "anonymous": false,
      "inputs": [
        {
          "indexed": true,
          "internalType": "uint256",
          "name": "id",
          "type": "uint256"
        },
        {
          "indexed": true,
          "internalType": "address",
          "name": "nftAddress",
          "type": "address"
        },
        {
          "indexed": false,
          "internalType": "uint256",
          "name": "prefundAllocation",
          "type": "uint256"
        },
        {
          "indexed": false,
          "internalType": "uint256",
          "name": "prefundCompensation",
          "type": "uint256"
        },
        {
          "indexed": false,
          "internalType": "uint256",
          "name": "auctionAllocation",
          "type": "uint256"
        },
        {
          "indexed": false,
          "internalType": "uint256",
          "name": "auctionCompensation",
          "type": "uint256"
        }
      ],
      "name": "InitAllocationCompensation",
      "type": "event"
    },
    {
      "anonymous": false,
      "inputs": [
        {
          "indexed": true,
          "internalType": "uint256",
          "name": "id",
          "type": "uint256"
        },
        {
          "indexed": false,
          "internalType": "uint256",
          "name": "startTime",
          "type": "uint256"
        },
        {
          "indexed": false,
          "internalType": "uint256",
          "name": "endTime",
          "type": "uint256"
        }
      ],
      "name": "InitAuction",
      "type": "event"
    },
    {
      "anonymous": false,
      "inputs": [
        {
          "indexed": true,
          "internalType": "uint256",
          "name": "id",
          "type": "uint256"
        }
      ],
      "name": "InitMint",
      "type": "event"
    },
    {
      "anonymous": false,
      "inputs": [
        {
          "indexed": true,
          "internalType": "uint256",
          "name": "id",
          "type": "uint256"
        },
        {
          "indexed": true,
          "internalType": "address",
          "name": "token",
          "type": "address"
        },
        {
          "indexed": false,
          "internalType": "uint256",
          "name": "startTime",
          "type": "uint256"
        },
        {
          "indexed": false,
          "internalType": "uint256",
          "name": "endTime",
          "type": "uint256"
        },
        {
          "indexed": false,
          "internalType": "uint256[3]",
          "name": "pools",
          "type": "uint256[3]"
        },
        {
          "indexed": false,
          "internalType": "uint256[3]",
          "name": "investAmounts",
          "type": "uint256[3]"
        }
      ],
      "name": "InitPrefund",
      "type": "event"
    },
    {
      "anonymous": false,
      "inputs": [
        {
          "indexed": true,
          "internalType": "uint256",
          "name": "id",
          "type": "uint256"
        },
        {
          "indexed": false,
          "internalType": "uint256",
          "name": "startTime",
          "type": "uint256"
        },
        {
          "indexed": false,
          "internalType": "uint256",
          "name": "endTime",
          "type": "uint256"
        }
      ],
      "name": "InitRegistration",
      "type": "event"
    },
    {
      "anonymous": false,
      "inputs": [
        {
          "indexed": true,
          "internalType": "address",
          "name": "previousOwner",
          "type": "address"
        },
        {
          "indexed": true,
          "internalType": "address",
          "name": "newOwner",
          "type": "address"
        }
      ],
      "name": "OwnershipTransferred",
      "type": "event"
    },
    {
      "anonymous": false,
      "inputs": [
        {
          "indexed": true,
          "internalType": "address",
          "name": "user",
          "type": "address"
        },
        {
          "indexed": false,
          "internalType": "bool",
          "name": "allowed",
          "type": "bool"
        }
      ],
      "name": "ProjectEditor",
      "type": "event"
    },
    {
      "anonymous": false,
      "inputs": [
        {
          "indexed": true,
          "internalType": "address",
          "name": "verifier",
          "type": "address"
        }
      ],
      "name": "SetKYCVerifier",
      "type": "event"
    },
    {
      "anonymous": false,
      "inputs": [
        {
          "indexed": true,
          "internalType": "uint256",
          "name": "id",
          "type": "uint256"
        },
        {
          "indexed": true,
          "internalType": "address",
          "name": "pccAddress",
          "type": "address"
        }
      ],
      "name": "SetPCC",
      "type": "event"
    },
    {
      "anonymous": false,
      "inputs": [
        {
          "indexed": true,
          "internalType": "uint256",
          "name": "id",
          "type": "uint256"
        },
        {
          "indexed": false,
          "internalType": "uint256",
          "name": "scaledPrefundAmount",
          "type": "uint256"
        },
        {
          "indexed": false,
          "internalType": "uint256",
          "name": "scaledCompensationAmount",
          "type": "uint256"
        }
      ],
      "name": "TransferPrefund",
      "type": "event"
    },
    {
      "inputs": [
        {
          "internalType": "address",
          "name": "_user",
          "type": "address"
        }
      ],
      "name": "addEditor",
      "outputs": [],
      "stateMutability": "nonpayable",
      "type": "function"
    },
    {
      "inputs": [
        {
          "internalType": "uint256",
          "name": "id",
          "type": "uint256"
        }
      ],
      "name": "allocationCompensationInitialized",
      "outputs": [
        {
          "internalType": "bool",
          "name": "",
          "type": "bool"
        }
      ],
      "stateMutability": "view",
      "type": "function"
    },
    {
      "inputs": [
        {
          "internalType": "uint256",
          "name": "id",
          "type": "uint256"
        }
      ],
      "name": "auctionEndTime",
      "outputs": [
        {
          "internalType": "uint256",
          "name": "",
          "type": "uint256"
        }
      ],
      "stateMutability": "view",
      "type": "function"
    },
    {
      "inputs": [
        {
          "internalType": "uint256",
          "name": "id",
          "type": "uint256"
        }
      ],
      "name": "auctionInitialized",
      "outputs": [
        {
          "internalType": "bool",
          "name": "",
          "type": "bool"
        }
      ],
      "stateMutability": "view",
      "type": "function"
    },
    {
      "inputs": [
        {
          "internalType": "uint256",
          "name": "id",
          "type": "uint256"
        }
      ],
      "name": "auctionScaledUnit",
      "outputs": [
        {
          "internalType": "uint256",
          "name": "",
          "type": "uint256"
        },
        {
          "internalType": "uint256",
          "name": "",
          "type": "uint256"
        }
      ],
      "stateMutability": "view",
      "type": "function"
    },
    {
      "inputs": [
        {
          "internalType": "uint256",
          "name": "id",
          "type": "uint256"
        }
      ],
      "name": "auctionTimeInfo",
      "outputs": [
        {
          "internalType": "uint256",
          "name": "",
          "type": "uint256"
        },
        {
          "internalType": "uint256",
          "name": "",
          "type": "uint256"
        }
      ],
      "stateMutability": "view",
      "type": "function"
    },
    {
      "inputs": [
        {
          "internalType": "uint256",
          "name": "id",
          "type": "uint256"
        }
      ],
      "name": "auctionTotalPool",
      "outputs": [
        {
          "internalType": "uint256",
          "name": "",
          "type": "uint256"
        }
      ],
      "stateMutability": "view",
      "type": "function"
    },
    {
      "inputs": [
        {
          "internalType": "uint256",
          "name": "",
          "type": "uint256"
        }
      ],
      "name": "auctions",
      "outputs": [
        {
          "internalType": "uint256",
          "name": "startTime",
          "type": "uint256"
        },
        {
          "internalType": "uint256",
          "name": "endTime",
          "type": "uint256"
        },
        {
          "internalType": "uint256",
          "name": "spent",
          "type": "uint256"
        },
        {
          "internalType": "uint256",
          "name": "scaledAllocation",
          "type": "uint256"
        },
        {
          "internalType": "uint256",
          "name": "scaledCompensation",
          "type": "uint256"
        },
        {
          "internalType": "bool",
          "name": "transferredPrefund",
          "type": "bool"
        }
      ],
      "stateMutability": "view",
      "type": "function"
    },
    {
      "inputs": [
        {
          "internalType": "uint256",
          "name": "id",
          "type": "uint256"
        },
        {
          "internalType": "uint256",
          "name": "amount",
          "type": "uint256"
        }
      ],
      "name": "collectAuctionAmount",
      "outputs": [],
      "stateMutability": "nonpayable",
      "type": "function"
    },
    {
      "inputs": [
        {
          "internalType": "uint256",
          "name": "id",
          "type": "uint256"
        },
        {
          "internalType": "int8",
          "name": "tier",
          "type": "int8"
        }
      ],
      "name": "collectPrefundInvestment",
      "outputs": [],
      "stateMutability": "nonpayable",
      "type": "function"
    },
    {
      "inputs": [
        {
          "internalType": "address",
          "name": "_user",
          "type": "address"
        }
      ],
      "name": "deleteEditor",
      "outputs": [],
      "stateMutability": "nonpayable",
      "type": "function"
    },
    {
      "inputs": [
        {
          "internalType": "address",
          "name": "",
          "type": "address"
        }
      ],
      "name": "editors",
      "outputs": [
        {
          "internalType": "bool",
          "name": "",
          "type": "bool"
        }
      ],
      "stateMutability": "view",
      "type": "function"
    },
    {
      "inputs": [],
      "name": "getKYCVerifier",
      "outputs": [
        {
          "internalType": "address",
          "name": "",
          "type": "address"
        }
      ],
      "stateMutability": "view",
      "type": "function"
    },
    {
      "inputs": [
        {
          "internalType": "uint256",
          "name": "id",
          "type": "uint256"
        },
        {
          "internalType": "uint256",
          "name": "prefundAllocation",
          "type": "uint256"
        },
        {
          "internalType": "uint256",
          "name": "prefundCompensation",
          "type": "uint256"
        },
        {
          "internalType": "uint256",
          "name": "auctionAllocation",
          "type": "uint256"
        },
        {
          "internalType": "uint256",
          "name": "auctionCompensation",
          "type": "uint256"
        },
        {
          "internalType": "address",
          "name": "nftAddress",
          "type": "address"
        }
      ],
      "name": "initAllocationCompensation",
      "outputs": [],
      "stateMutability": "nonpayable",
      "type": "function"
    },
    {
      "inputs": [
        {
          "internalType": "uint256",
          "name": "id",
          "type": "uint256"
        },
        {
          "internalType": "uint256",
          "name": "startTime",
          "type": "uint256"
        },
        {
          "internalType": "uint256",
          "name": "endTime",
          "type": "uint256"
        }
      ],
      "name": "initAuction",
      "outputs": [],
      "stateMutability": "nonpayable",
      "type": "function"
    },
    {
      "inputs": [
        {
          "internalType": "uint256",
          "name": "id",
          "type": "uint256"
        }
      ],
      "name": "initMinting",
      "outputs": [],
      "stateMutability": "nonpayable",
      "type": "function"
    },
    {
      "inputs": [
        {
          "internalType": "uint256",
          "name": "id",
          "type": "uint256"
        },
        {
          "internalType": "uint256",
          "name": "startTime",
          "type": "uint256"
        },
        {
          "internalType": "uint256",
          "name": "endTime",
          "type": "uint256"
        },
        {
          "internalType": "uint256[3]",
          "name": "investAmounts",
          "type": "uint256[3]"
        },
        {
          "internalType": "uint256[3]",
          "name": "pools",
          "type": "uint256[3]"
        },
        {
          "internalType": "address",
          "name": "_token",
          "type": "address"
        }
      ],
      "name": "initPrefund",
      "outputs": [],
      "stateMutability": "nonpayable",
      "type": "function"
    },
    {
      "inputs": [
        {
          "internalType": "uint256",
          "name": "startTime",
          "type": "uint256"
        },
        {
          "internalType": "uint256",
          "name": "endTime",
          "type": "uint256"
        }
      ],
      "name": "initRegistration",
      "outputs": [],
      "stateMutability": "nonpayable",
      "type": "function"
    },
    {
      "inputs": [],
      "name": "kycVerifier",
      "outputs": [
        {
          "internalType": "address",
          "name": "",
          "type": "address"
        }
      ],
      "stateMutability": "view",
      "type": "function"
    },
    {
      "inputs": [
        {
          "internalType": "uint256",
          "name": "id",
          "type": "uint256"
        }
      ],
      "name": "mintInitialized",
      "outputs": [
        {
          "internalType": "bool",
          "name": "",
          "type": "bool"
        }
      ],
      "stateMutability": "view",
      "type": "function"
    },
    {
      "inputs": [
        {
          "internalType": "uint256",
          "name": "",
          "type": "uint256"
        }
      ],
      "name": "mintable",
      "outputs": [
        {
          "internalType": "bool",
          "name": "",
          "type": "bool"
        }
      ],
      "stateMutability": "view",
      "type": "function"
    },
    {
      "inputs": [
        {
          "internalType": "uint256",
          "name": "id",
          "type": "uint256"
        }
      ],
      "name": "nft",
      "outputs": [
        {
          "internalType": "address",
          "name": "",
          "type": "address"
        }
      ],
      "stateMutability": "view",
      "type": "function"
    },
    {
      "inputs": [
        {
          "internalType": "uint256",
          "name": "",
          "type": "uint256"
        }
      ],
      "name": "nfts",
      "outputs": [
        {
          "internalType": "address",
          "name": "",
          "type": "address"
        }
      ],
      "stateMutability": "view",
      "type": "function"
    },
    {
      "inputs": [],
      "name": "owner",
      "outputs": [
        {
          "internalType": "address",
          "name": "",
          "type": "address"
        }
      ],
      "stateMutability": "view",
      "type": "function"
    },
    {
      "inputs": [
        {
          "internalType": "uint256",
          "name": "id",
          "type": "uint256"
        }
      ],
      "name": "pcc",
      "outputs": [
        {
          "internalType": "address",
          "name": "",
          "type": "address"
        }
      ],
      "stateMutability": "view",
      "type": "function"
    },
    {
      "inputs": [
        {
          "internalType": "uint256",
          "name": "",
          "type": "uint256"
        }
      ],
      "name": "pccs",
      "outputs": [
        {
          "internalType": "address",
          "name": "",
          "type": "address"
        }
      ],
      "stateMutability": "view",
      "type": "function"
    },
    {
      "inputs": [
        {
          "internalType": "uint256",
          "name": "id",
          "type": "uint256"
        }
      ],
      "name": "prefundEndTime",
      "outputs": [
        {
          "internalType": "uint256",
          "name": "",
          "type": "uint256"
        }
      ],
      "stateMutability": "view",
      "type": "function"
    },
    {
      "inputs": [
        {
          "internalType": "uint256",
          "name": "id",
          "type": "uint256"
        }
      ],
      "name": "prefundInitialized",
      "outputs": [
        {
          "internalType": "bool",
          "name": "",
          "type": "bool"
        }
      ],
      "stateMutability": "view",
      "type": "function"
    },
    {
      "inputs": [
        {
          "internalType": "uint256",
          "name": "id",
          "type": "uint256"
        },
        {
          "internalType": "int8",
          "name": "tier",
          "type": "int8"
        }
      ],
      "name": "prefundInvestAmount",
      "outputs": [
        {
          "internalType": "uint256",
          "name": "",
          "type": "uint256"
        },
        {
          "internalType": "address",
          "name": "",
          "type": "address"
        }
      ],
      "stateMutability": "view",
      "type": "function"
    },
    {
      "inputs": [
        {
          "internalType": "uint256",
          "name": "id",
          "type": "uint256"
        },
        {
          "internalType": "int8",
          "name": "tier",
          "type": "int8"
        }
      ],
      "name": "prefundPoolInfo",
      "outputs": [
        {
          "internalType": "uint256",
          "name": "",
          "type": "uint256"
        },
        {
          "internalType": "uint256",
          "name": "",
          "type": "uint256"
        }
      ],
      "stateMutability": "view",
      "type": "function"
    },
    {
      "inputs": [
        {
          "internalType": "uint256",
          "name": "id",
          "type": "uint256"
        }
      ],
      "name": "prefundScaledUnit",
      "outputs": [
        {
          "internalType": "uint256",
          "name": "",
          "type": "uint256"
        },
        {
          "internalType": "uint256",
          "name": "",
          "type": "uint256"
        }
      ],
      "stateMutability": "view",
      "type": "function"
    },
    {
      "inputs": [
        {
          "internalType": "uint256",
          "name": "id",
          "type": "uint256"
        }
      ],
      "name": "prefundTimeInfo",
      "outputs": [
        {
          "internalType": "uint256",
          "name": "",
          "type": "uint256"
        },
        {
          "internalType": "uint256",
          "name": "",
          "type": "uint256"
        }
      ],
      "stateMutability": "view",
      "type": "function"
    },
    {
      "inputs": [
        {
          "internalType": "uint256",
          "name": "id",
          "type": "uint256"
        }
      ],
      "name": "prefundTotalPool",
      "outputs": [
        {
          "internalType": "uint256",
          "name": "",
          "type": "uint256"
        },
        {
          "internalType": "uint256",
          "name": "",
          "type": "uint256"
        }
      ],
      "stateMutability": "view",
      "type": "function"
    },
    {
      "inputs": [
        {
          "internalType": "uint256",
          "name": "",
          "type": "uint256"
        }
      ],
      "name": "prefunds",
      "outputs": [
        {
          "internalType": "uint256",
          "name": "startTime",
          "type": "uint256"
        },
        {
          "internalType": "uint256",
          "name": "endTime",
          "type": "uint256"
        },
        {
          "internalType": "address",
          "name": "token",
          "type": "address"
        },
        {
          "internalType": "uint256",
          "name": "scaledAllocation",
          "type": "uint256"
        },
        {
          "internalType": "uint256",
          "name": "scaledCompensation",
          "type": "uint256"
        }
      ],
      "stateMutability": "view",
      "type": "function"
    },
    {
      "inputs": [
        {
          "internalType": "uint256",
          "name": "id",
          "type": "uint256"
        }
      ],
      "name": "registrationEndTime",
      "outputs": [
        {
          "internalType": "uint256",
          "name": "",
          "type": "uint256"
        }
      ],
      "stateMutability": "view",
      "type": "function"
    },
    {
      "inputs": [
        {
          "internalType": "uint256",
          "name": "id",
          "type": "uint256"
        }
      ],
      "name": "registrationInfo",
      "outputs": [
        {
          "internalType": "uint256",
          "name": "",
          "type": "uint256"
        },
        {
          "internalType": "uint256",
          "name": "",
          "type": "uint256"
        }
      ],
      "stateMutability": "view",
      "type": "function"
    },
    {
      "inputs": [
        {
          "internalType": "uint256",
          "name": "id",
          "type": "uint256"
        }
      ],
      "name": "registrationInitialized",
      "outputs": [
        {
          "internalType": "bool",
          "name": "",
          "type": "bool"
        }
      ],
      "stateMutability": "view",
      "type": "function"
    },
    {
      "inputs": [
        {
          "internalType": "uint256",
          "name": "",
          "type": "uint256"
        }
      ],
      "name": "registrations",
      "outputs": [
        {
          "internalType": "uint256",
          "name": "startTime",
          "type": "uint256"
        },
        {
          "internalType": "uint256",
          "name": "endTime",
          "type": "uint256"
        }
      ],
      "stateMutability": "view",
      "type": "function"
    },
    {
      "inputs": [],
      "name": "renounceOwnership",
      "outputs": [],
      "stateMutability": "nonpayable",
      "type": "function"
    },
    {
      "inputs": [
        {
          "internalType": "address",
          "name": "verifier",
          "type": "address"
        }
      ],
      "name": "setKYCVerifier",
      "outputs": [],
      "stateMutability": "nonpayable",
      "type": "function"
    },
    {
      "inputs": [
        {
          "internalType": "uint256",
          "name": "id",
          "type": "uint256"
        },
        {
          "internalType": "address",
          "name": "pccAddress",
          "type": "address"
        }
      ],
      "name": "setPcc",
      "outputs": [],
      "stateMutability": "nonpayable",
      "type": "function"
    },
    {
      "inputs": [],
      "name": "totalProjects",
      "outputs": [
        {
          "internalType": "uint256",
          "name": "",
          "type": "uint256"
        }
      ],
      "stateMutability": "view",
      "type": "function"
    },
    {
      "inputs": [
        {
          "internalType": "address",
          "name": "newOwner",
          "type": "address"
        }
      ],
      "name": "transferOwnership",
      "outputs": [],
      "stateMutability": "nonpayable",
      "type": "function"
    },
    {
      "inputs": [
        {
          "internalType": "uint256",
          "name": "id",
          "type": "uint256"
        }
      ],
      "name": "transferPrefund",
      "outputs": [],
      "stateMutability": "nonpayable",
      "type": "function"
    },
    {
      "inputs": [
        {
          "internalType": "uint256",
          "name": "id",
          "type": "uint256"
        }
      ],
      "name": "transferredPrefund",
      "outputs": [
        {
          "internalType": "bool",
          "name": "",
          "type": "bool"
        }
      ],
      "stateMutability": "view",
      "type": "function"
    },
    {
      "inputs": [
        {
          "internalType": "address",
          "name": "",
          "type": "address"
        }
      ],
      "name": "usedNfts",
      "outputs": [
        {
          "internalType": "uint256",
          "name": "",
          "type": "uint256"
        }
      ],
      "stateMutability": "view",
      "type": "function"
    },
    {
      "inputs": [
        {
          "internalType": "address",
          "name": "",
          "type": "address"
        }
      ],
      "name": "usedPccs",
      "outputs": [
        {
          "internalType": "uint256",
          "name": "",
          "type": "uint256"
        }
      ],
      "stateMutability": "view",
      "type": "function"
    },
    {
      "inputs": [
        {
          "internalType": "uint256",
          "name": "id",
          "type": "uint256"
        }
      ],
      "name": "validProjectId",
      "outputs": [
        {
          "internalType": "bool",
          "name": "",
          "type": "bool"
        }
      ],
      "stateMutability": "view",
      "type": "function"
    }
  ],
  "bytecode": "0x60806040523480156200001157600080fd5b5060405162004b0838038062004b088339818101604052810190620000379190620003c5565b620000576200004b6200008660201b60201c565b6200008e60201b60201c565b62000068816200015260201b60201c565b6200007f60016200036f60201b6200335a1760201c565b506200057c565b600033905090565b60008060009054906101000a900473ffffffffffffffffffffffffffffffffffffffff169050816000806101000a81548173ffffffffffffffffffffffffffffffffffffffff021916908373ffffffffffffffffffffffffffffffffffffffff1602179055508173ffffffffffffffffffffffffffffffffffffffff168173ffffffffffffffffffffffffffffffffffffffff167f8be0079c531659141344cd1fd0a4f28419497f9722a3daafe3b4186f6b6457e060405160405180910390a35050565b620001626200008660201b60201c565b73ffffffffffffffffffffffffffffffffffffffff16620001886200038560201b60201c565b73ffffffffffffffffffffffffffffffffffffffff1614620001e1576040517f08c379a0000000000000000000000000000000000000000000000000000000008152600401620001d890620004d9565b60405180910390fd5b600073ffffffffffffffffffffffffffffffffffffffff168173ffffffffffffffffffffffffffffffffffffffff16141562000254576040517f08c379a00000000000000000000000000000000000000000000000000000000081526004016200024b90620004fb565b60405180910390fd5b8073ffffffffffffffffffffffffffffffffffffffff16600260009054906101000a900473ffffffffffffffffffffffffffffffffffffffff1673ffffffffffffffffffffffffffffffffffffffff161415620002e8576040517f08c379a0000000000000000000000000000000000000000000000000000000008152600401620002df90620004b7565b60405180910390fd5b80600260006101000a81548173ffffffffffffffffffffffffffffffffffffffff021916908373ffffffffffffffffffffffffffffffffffffffff1602179055508073ffffffffffffffffffffffffffffffffffffffff167f4cc9cc2c1c94b0f2a3403db2d1758433cbfa23312f4870c2a182918475ddcf0560405160405180910390a250565b6001816000016000828254019250508190555050565b60008060009054906101000a900473ffffffffffffffffffffffffffffffffffffffff16905090565b600081519050620003bf8162000562565b92915050565b600060208284031215620003d857600080fd5b6000620003e884828501620003ae565b91505092915050565b6000620004006018836200051d565b91507f4c69676874686f7573653a2053414d455f4144445245535300000000000000006000830152602082019050919050565b6000620004426020836200051d565b91507f4f776e61626c653a2063616c6c6572206973206e6f7420746865206f776e65726000830152602082019050919050565b6000620004846018836200051d565b91507f4c69676874686f7573653a205a45524f5f4144445245535300000000000000006000830152602082019050919050565b60006020820190508181036000830152620004d281620003f1565b9050919050565b60006020820190508181036000830152620004f48162000433565b9050919050565b60006020820190508181036000830152620005168162000475565b9050919050565b600082825260208201905092915050565b60006200053b8262000542565b9050919050565b600073ffffffffffffffffffffffffffffffffffffffff82169050919050565b6200056d816200052e565b81146200057957600080fd5b50565b61457c806200058c6000396000f3fe608060405234801561001057600080fd5b50600436106102a05760003560e01c8063943df31511610167578063b937e7cc116100ce578063e5975bdc11610087578063e5975bdc14610988578063f2fde38b146109a4578063f4ddb5be146109c0578063f8285d38146109f1578063fb20d98f14610a0d578063fb50024714610a29576102a0565b8063b937e7cc146108ca578063be27db00146108e8578063c82189e014610904578063cd52844d14610920578063d0b0f39214610950578063d17f64171461096c576102a0565b8063a84b069211610120578063a84b0692146107ba578063ae9d403a146107ea578063b22e912b1461081a578063b47e9f3e1461084a578063b5f5cf701461087b578063b60da085146108ac576102a0565b8063943df315146106aa5780639922a1d5146106db5780639c361e4e1461070c5780639d0214cb1461072a578063a5045a161461075a578063a58039721461078a576102a0565b8063451bf0d31161020b578063777de704116101c4578063777de70414610597578063835db322146105c75780638d7365a9146105f75780638da5cb5b146106275780638de6a11a146106455780638ee2a6d114610679576102a0565b8063451bf0d3146104ab578063571a26a0146104c757806364507efc146104fc5780636592b7241461052c578063715018a61461055c5780637480285714610566576102a0565b80632693b12c1161025d5780632693b12c146103c657806337979b80146103f75780633e2a6b59146104135780634005c3df1461042f57806341e0f1b11461045f578063428ba8931461047b576102a0565b8063016e3472146102a557806305b576e3146102d55780630f784943146103055780631b4ead451461033557806324d2cb1714610365578063265aa62114610396575b600080fd5b6102bf60048036038101906102ba9190613504565b610a45565b6040516102cc919061412c565b60405180910390f35b6102ef60048036038101906102ea919061352d565b610a5d565b6040516102fc919061412c565b60405180910390f35b61031f600480360381019061031a919061352d565b610a7d565b60405161032c9190613e11565b60405180910390f35b61034f600480360381019061034a919061352d565b610a9d565b60405161035c9190613e11565b60405180910390f35b61037f600480360381019061037a919061352d565b610b05565b60405161038d929190614170565b60405180910390f35b6103b060048036038101906103ab919061352d565b610b33565b6040516103bd9190613df6565b60405180910390f35b6103e060048036038101906103db919061352d565b610b66565b6040516103ee929190614170565b60405180910390f35b610411600480360381019061040c919061360a565b610b94565b005b61042d6004803603810190610428919061352d565b610e2d565b005b61044960048036038101906104449190613504565b610fae565b604051610456919061412c565b60405180910390f35b610479600480360381019061047491906135ce565b610fc6565b005b6104956004803603810190610490919061352d565b611086565b6040516104a29190613e11565b60405180910390f35b6104c560048036038101906104c09190613556565b6110c6565b005b6104e160048036038101906104dc919061352d565b61135a565b6040516104f396959493929190614277565b60405180910390f35b6105166004803603810190610511919061352d565b6113a3565b6040516105239190613e11565b60405180910390f35b6105466004803603810190610541919061352d565b6113e3565b6040516105539190613e11565b60405180910390f35b610564611423565b005b610580600480360381019061057b9190613592565b6114ab565b60405161058e929190614170565b60405180910390f35b6105b160048036038101906105ac919061352d565b611565565b6040516105be919061412c565b60405180910390f35b6105e160048036038101906105dc919061352d565b611585565b6040516105ee9190613e11565b60405180910390f35b610611600480360381019061060c919061352d565b6115af565b60405161061e9190613e11565b60405180910390f35b61062f6115cf565b60405161063c9190613df6565b60405180910390f35b61065f600480360381019061065a919061352d565b6115f8565b604051610670959493929190614199565b60405180910390f35b610693600480360381019061068e919061352d565b61164e565b6040516106a1929190614170565b60405180910390f35b6106c460048036038101906106bf919061352d565b61167c565b6040516106d2929190614170565b60405180910390f35b6106f560048036038101906106f0919061352d565b61184e565b604051610703929190614170565b60405180910390f35b61071461189a565b604051610721919061412c565b60405180910390f35b610744600480360381019061073f919061352d565b6118b7565b6040516107519190613df6565b60405180910390f35b610774600480360381019061076f919061352d565b6118f4565b6040516107819190613df6565b60405180910390f35b6107a4600480360381019061079f919061352d565b611931565b6040516107b19190613df6565b60405180910390f35b6107d460048036038101906107cf919061352d565b611964565b6040516107e1919061412c565b60405180910390f35b61080460048036038101906107ff919061352d565b611984565b604051610811919061412c565b60405180910390f35b610834600480360381019061082f919061352d565b6119a4565b6040516108419190613e11565b60405180910390f35b610864600480360381019061085f919061352d565b6119d1565b604051610872929190614170565b60405180910390f35b61089560048036038101906108909190613592565b611aeb565b6040516108a3929190614147565b60405180910390f35b6108b4611b89565b6040516108c19190613df6565b60405180910390f35b6108d2611bb3565b6040516108df9190613df6565b60405180910390f35b61090260048036038101906108fd91906135ce565b611bd9565b005b61091e60048036038101906109199190613592565b611d66565b005b61093a60048036038101906109359190613504565b611ef0565b6040516109479190613e11565b60405180910390f35b61096a6004803603810190610965919061352d565b611f10565b005b61098660048036038101906109819190613504565b6122b0565b005b6109a2600480360381019061099d9190613504565b6124b4565b005b6109be60048036038101906109b99190613504565b6126d7565b005b6109da60048036038101906109d5919061352d565b6127cf565b6040516109e8929190614170565b60405180910390f35b610a0b6004803603810190610a069190613659565b6127f3565b005b610a276004803603810190610a229190613504565b612d3f565b005b610a436004803603810190610a3e91906136e4565b612f61565b005b600b6020528060005260406000206000915090505481565b600060056000838152602001908152602001600020600101549050919050565b60076020528060005260406000206000915054906101000a900460ff1681565b6000610aa8826115af565b610ab55760009050610b00565b60006005600084815260200190815260200160002090506000600660008581526020019081526020016000209050600082600c0154118015610afb575060008160030154115b925050505b919050565b6000806000600660008581526020019081526020016000209050806000015481600101549250925050915091565b60086020528060005260406000206000915054906101000a900473ffffffffffffffffffffffffffffffffffffffff1681565b6000806000600460008581526020019081526020016000209050806000015481600101549250925050915091565b610b9c613370565b73ffffffffffffffffffffffffffffffffffffffff16610bba6115cf565b73ffffffffffffffffffffffffffffffffffffffff1614610c10576040517f08c379a0000000000000000000000000000000000000000000000000000000008152600401610c0790613fac565b60405180910390fd5b610c19836115af565b610c58576040517f08c379a0000000000000000000000000000000000000000000000000000000008152600401610c4f90613eec565b60405180910390fd5b814210610c9a576040517f08c379a0000000000000000000000000000000000000000000000000000000008152600401610c9190613e2c565b60405180910390fd5b808210610cdc576040517f08c379a0000000000000000000000000000000000000000000000000000000008152600401610cd39061406c565b60405180910390fd5b60006006600085815260200190815260200160002090506000816000015414610d3a576040517f08c379a0000000000000000000000000000000000000000000000000000000008152600401610d31906140ec565b60405180910390fd5b60006005600086815260200190815260200160002060010154905060008111610d98576040517f08c379a0000000000000000000000000000000000000000000000000000000008152600401610d8f90613f8c565b60405180910390fd5b808411610dda576040517f08c379a0000000000000000000000000000000000000000000000000000000008152600401610dd19061402c565b60405180910390fd5b838260000181905550828260010181905550847f9b3770df20128a91841fed18e7e8efbd28645b85d6e95c9feeff96f7c9bd83968585604051610e1e929190614170565b60405180910390a25050505050565b610e35613370565b73ffffffffffffffffffffffffffffffffffffffff16610e536115cf565b73ffffffffffffffffffffffffffffffffffffffff1614610ea9576040517f08c379a0000000000000000000000000000000000000000000000000000000008152600401610ea090613fac565b60405180910390fd5b610eb2816115af565b610ef1576040517f08c379a0000000000000000000000000000000000000000000000000000000008152600401610ee890613eec565b60405180910390fd5b6007600082815260200190815260200160002060009054906101000a900460ff1615610f52576040517f08c379a0000000000000000000000000000000000000000000000000000000008152600401610f4990613f4c565b60405180910390fd5b60016007600083815260200190815260200160002060006101000a81548160ff021916908315150217905550807f51ff5cb12e078f374fcf678227d813efbc85de5e628114361e3f170884d9186260405160405180910390a250565b60096020528060005260406000206000915090505481565b600360003373ffffffffffffffffffffffffffffffffffffffff1673ffffffffffffffffffffffffffffffffffffffff16815260200190815260200160002060009054906101000a900460ff16611052576040517f08c379a00000000000000000000000000000000000000000000000000000000081526004016110499061408c565b60405180910390fd5b600060066000848152602001908152602001600020905081816002015461107991906142e9565b8160020181905550505050565b6000611091826115af565b61109e57600090506110c1565b600060046000848152602001908152602001600020905060008160000154119150505b919050565b6110ce613370565b73ffffffffffffffffffffffffffffffffffffffff166110ec6115cf565b73ffffffffffffffffffffffffffffffffffffffff1614611142576040517f08c379a000000000000000000000000000000000000000000000000000000000815260040161113990613fac565b60405180910390fd5b61114b826115af565b61118a576040517f08c379a000000000000000000000000000000000000000000000000000000000815260040161118190613eec565b60405180910390fd5b600073ffffffffffffffffffffffffffffffffffffffff168173ffffffffffffffffffffffffffffffffffffffff1614156111fa576040517f08c379a00000000000000000000000000000000000000000000000000000000081526004016111f19061410c565b60405180910390fd5b6000600b60008373ffffffffffffffffffffffffffffffffffffffff1673ffffffffffffffffffffffffffffffffffffffff168152602001908152602001600020541461127c576040517f08c379a000000000000000000000000000000000000000000000000000000000815260040161127390613fec565b60405180910390fd5b80600a600084815260200190815260200160002060006101000a81548173ffffffffffffffffffffffffffffffffffffffff021916908373ffffffffffffffffffffffffffffffffffffffff16021790555081600b60008373ffffffffffffffffffffffffffffffffffffffff1673ffffffffffffffffffffffffffffffffffffffff168152602001908152602001600020819055508073ffffffffffffffffffffffffffffffffffffffff16827f246302e498f32cefcdb2816520646b24be648dc6bd68adea9f865c4029d82a0960405160405180910390a35050565b60066020528060005260406000206000915090508060000154908060010154908060020154908060030154908060040154908060050160009054906101000a900460ff16905086565b60006113ae826115af565b6113bb57600090506113de565b600060066000848152602001908152602001600020905060008160000154119150505b919050565b60006113ee826115af565b6113fb576000905061141e565b600060056000848152602001908152602001600020905060008160000154119150505b919050565b61142b613370565b73ffffffffffffffffffffffffffffffffffffffff166114496115cf565b73ffffffffffffffffffffffffffffffffffffffff161461149f576040517f08c379a000000000000000000000000000000000000000000000000000000000815260040161149690613fac565b60405180910390fd5b6114a96000613378565b565b600080600060056000868152602001908152602001600020905060006001856114d491906143fe565b9050816005018160ff1660038110611515577f4e487b7100000000000000000000000000000000000000000000000000000000600052603260045260246000fd5b0154826008018260ff1660038110611556577f4e487b7100000000000000000000000000000000000000000000000000000000600052603260045260246000fd5b01549350935050509250929050565b600060066000838152602001908152602001600020600101549050919050565b60006007600083815260200190815260200160002060009054906101000a900460ff169050919050565b600080821180156115c857506115c5600161343c565b82105b9050919050565b60008060009054906101000a900473ffffffffffffffffffffffffffffffffffffffff16905090565b600560205280600052604060002060009150905080600001549080600101549080600b0160009054906101000a900473ffffffffffffffffffffffffffffffffffffffff169080600c01549080600d0154905085565b6000806000600560008581526020019081526020016000209050806000015481600101549250925050915091565b60008060006005600085815260200190815260200160002090506000816008016002600381106116d5577f4e487b7100000000000000000000000000000000000000000000000000000000600052603260045260246000fd5b015482600801600160038110611714577f4e487b7100000000000000000000000000000000000000000000000000000000600052603260045260246000fd5b015483600801600060038110611753577f4e487b7100000000000000000000000000000000000000000000000000000000600052603260045260246000fd5b015461175f91906142e9565b61176991906142e9565b90506000826005016002600381106117aa577f4e487b7100000000000000000000000000000000000000000000000000000000600052603260045260246000fd5b0154836005016001600381106117e9577f4e487b7100000000000000000000000000000000000000000000000000000000600052603260045260246000fd5b015484600501600060038110611828577f4e487b7100000000000000000000000000000000000000000000000000000000600052603260045260246000fd5b015461183491906142e9565b61183e91906142e9565b9050818194509450505050915091565b60008060006006600085815260200190815260200160002090508060020154816003015461187c919061433f565b81600201548260040154611890919061433f565b9250925050915091565b600060016118a8600161343c565b6118b291906143ca565b905090565b60006008600083815260200190815260200160002060009054906101000a900473ffffffffffffffffffffffffffffffffffffffff169050919050565b6000600a600083815260200190815260200160002060009054906101000a900473ffffffffffffffffffffffffffffffffffffffff169050919050565b600a6020528060005260406000206000915054906101000a900473ffffffffffffffffffffffffffffffffffffffff1681565b600060046000838152602001908152602001600020600101549050919050565b600060066000838152602001908152602001600020600201549050919050565b60006006600083815260200190815260200160002060050160009054906101000a900460ff169050919050565b6000806000600560008581526020019081526020016000209050600081600501600260038110611a2a577f4e487b7100000000000000000000000000000000000000000000000000000000600052603260045260246000fd5b015482600501600160038110611a69577f4e487b7100000000000000000000000000000000000000000000000000000000600052603260045260246000fd5b015483600501600060038110611aa8577f4e487b7100000000000000000000000000000000000000000000000000000000600052603260045260246000fd5b0154611ab491906142e9565b611abe91906142e9565b90508082600c0154611ad0919061433f565b8183600d0154611ae0919061433f565b935093505050915091565b60008060006005600086815260200190815260200160002090506000600185611b1491906143fe565b9050816002018160ff1660038110611b55577f4e487b7100000000000000000000000000000000000000000000000000000000600052603260045260246000fd5b015482600b0160009054906101000a900473ffffffffffffffffffffffffffffffffffffffff169350935050509250929050565b6000600260009054906101000a900473ffffffffffffffffffffffffffffffffffffffff16905090565b600260009054906101000a900473ffffffffffffffffffffffffffffffffffffffff1681565b611be1613370565b73ffffffffffffffffffffffffffffffffffffffff16611bff6115cf565b73ffffffffffffffffffffffffffffffffffffffff1614611c55576040517f08c379a0000000000000000000000000000000000000000000000000000000008152600401611c4c90613fac565b60405180910390fd5b814210611c97576040517f08c379a0000000000000000000000000000000000000000000000000000000008152600401611c8e90613f0c565b60405180910390fd5b818111611cd9576040517f08c379a0000000000000000000000000000000000000000000000000000000008152600401611cd090613f2c565b60405180910390fd5b6000611ce5600161343c565b9050826004600083815260200190815260200160002060000181905550816004600083815260200190815260200160002060010181905550611d27600161335a565b807fdf73b2c7803d688e4b8ab4ca91b7327d6a4ba9dccec9caaa12bab2a617fda1b58484604051611d59929190614170565b60405180910390a2505050565b600360003373ffffffffffffffffffffffffffffffffffffffff1673ffffffffffffffffffffffffffffffffffffffff16815260200190815260200160002060009054906101000a900460ff16611df2576040517f08c379a0000000000000000000000000000000000000000000000000000000008152600401611de99061408c565b60405180910390fd5b60006005600084815260200190815260200160002090506000600183611e1891906143fe565b9050816002018160ff1660038110611e59577f4e487b7100000000000000000000000000000000000000000000000000000000600052603260045260246000fd5b0154826005018260ff1660038110611e9a577f4e487b7100000000000000000000000000000000000000000000000000000000600052603260045260246000fd5b0154611ea691906142e9565b826005018260ff1660038110611ee5577f4e487b7100000000000000000000000000000000000000000000000000000000600052603260045260246000fd5b018190555050505050565b60036020528060005260406000206000915054906101000a900460ff1681565b611f18613370565b73ffffffffffffffffffffffffffffffffffffffff16611f366115cf565b73ffffffffffffffffffffffffffffffffffffffff1614611f8c576040517f08c379a0000000000000000000000000000000000000000000000000000000008152600401611f8390613fac565b60405180910390fd5b6006600082815260200190815260200160002060050160009054906101000a900460ff1615611fba576122ad565b611fc3816115af565b612002576040517f08c379a0000000000000000000000000000000000000000000000000000000008152600401611ff990613eec565b60405180910390fd5b4260056000838152602001908152602001600020600101541061205a576040517f08c379a000000000000000000000000000000000000000000000000000000000815260040161205190613e4c565b60405180910390fd5b6000806120668361167c565b80925081935050508181101561227b5760006064670de0b6b3a76400008461208e9190614370565b612098919061433f565b670de0b6b3a764000083856120ad91906143ca565b6120b79190614370565b6120c1919061433f565b90506000670de0b6b3a764000060648360056000898152602001908152602001600020600c01546120f29190614370565b6120fc919061433f565b612106919061433f565b905080600660008781526020019081526020016000206003015461212a91906142e9565b60066000878152602001908152602001600020600301819055508060056000878152602001908152602001600020600c015461216691906143ca565b60056000878152602001908152602001600020600c01819055506000670de0b6b3a7640000606484600560008a8152602001908152602001600020600d01546121af9190614370565b6121b9919061433f565b6121c3919061433f565b90508060066000888152602001908152602001600020600401546121e791906142e9565b60066000888152602001908152602001600020600401819055508060056000888152602001908152602001600020600d015461222391906143ca565b60056000888152602001908152602001600020600d0181905550857f32e0dcff7306eb2251b431cfb692c9f423ddafa28f545c26ed6fef49c93906d7838360405161226f929190614170565b60405180910390a25050505b60016006600085815260200190815260200160002060050160006101000a81548160ff02191690831515021790555050505b50565b6122b8613370565b73ffffffffffffffffffffffffffffffffffffffff166122d66115cf565b73ffffffffffffffffffffffffffffffffffffffff161461232c576040517f08c379a000000000000000000000000000000000000000000000000000000000815260040161232390613fac565b60405180910390fd5b600073ffffffffffffffffffffffffffffffffffffffff168173ffffffffffffffffffffffffffffffffffffffff16141561239c576040517f08c379a00000000000000000000000000000000000000000000000000000000081526004016123939061410c565b60405180910390fd5b8073ffffffffffffffffffffffffffffffffffffffff16600260009054906101000a900473ffffffffffffffffffffffffffffffffffffffff1673ffffffffffffffffffffffffffffffffffffffff16141561242d576040517f08c379a000000000000000000000000000000000000000000000000000000000815260040161242490613f6c565b60405180910390fd5b80600260006101000a81548173ffffffffffffffffffffffffffffffffffffffff021916908373ffffffffffffffffffffffffffffffffffffffff1602179055508073ffffffffffffffffffffffffffffffffffffffff167f4cc9cc2c1c94b0f2a3403db2d1758433cbfa23312f4870c2a182918475ddcf0560405160405180910390a250565b6124bc613370565b73ffffffffffffffffffffffffffffffffffffffff166124da6115cf565b73ffffffffffffffffffffffffffffffffffffffff1614612530576040517f08c379a000000000000000000000000000000000000000000000000000000000815260040161252790613fac565b60405180910390fd5b600073ffffffffffffffffffffffffffffffffffffffff168173ffffffffffffffffffffffffffffffffffffffff1614156125a0576040517f08c379a00000000000000000000000000000000000000000000000000000000081526004016125979061410c565b60405180910390fd5b600360008273ffffffffffffffffffffffffffffffffffffffff1673ffffffffffffffffffffffffffffffffffffffff16815260200190815260200160002060009054906101000a900460ff161561262d576040517f08c379a0000000000000000000000000000000000000000000000000000000008152600401612624906140ec565b60405180910390fd5b6001600360008373ffffffffffffffffffffffffffffffffffffffff1673ffffffffffffffffffffffffffffffffffffffff16815260200190815260200160002060006101000a81548160ff0219169083151502179055508073ffffffffffffffffffffffffffffffffffffffff167fa995c74341d87d6382e611e2f9439787e1d6c954ed0032d4402817eb78f225c860016040516126cc9190613e11565b60405180910390a250565b6126df613370565b73ffffffffffffffffffffffffffffffffffffffff166126fd6115cf565b73ffffffffffffffffffffffffffffffffffffffff1614612753576040517f08c379a000000000000000000000000000000000000000000000000000000000815260040161274a90613fac565b60405180910390fd5b600073ffffffffffffffffffffffffffffffffffffffff168173ffffffffffffffffffffffffffffffffffffffff1614156127c3576040517f08c379a00000000000000000000000000000000000000000000000000000000081526004016127ba90613e6c565b60405180910390fd5b6127cc81613378565b50565b60046020528060005260406000206000915090508060000154908060010154905082565b6127fb613370565b73ffffffffffffffffffffffffffffffffffffffff166128196115cf565b73ffffffffffffffffffffffffffffffffffffffff161461286f576040517f08c379a000000000000000000000000000000000000000000000000000000000815260040161286690613fac565b60405180910390fd5b612878866115af565b6128b7576040517f08c379a00000000000000000000000000000000000000000000000000000000081526004016128ae90613eec565b60405180910390fd5b8442106128f9576040517f08c379a00000000000000000000000000000000000000000000000000000000081526004016128f090613e2c565b60405180910390fd5b83851061293b576040517f08c379a00000000000000000000000000000000000000000000000000000000081526004016129329061406c565b60405180910390fd5b600082600060038110612977577f4e487b7100000000000000000000000000000000000000000000000000000000600052603260045260246000fd5b60200201351180156129c757506000826001600381106129c0577f4e487b7100000000000000000000000000000000000000000000000000000000600052603260045260246000fd5b6020020135115b8015612a115750600082600260038110612a0a577f4e487b7100000000000000000000000000000000000000000000000000000000600052603260045260246000fd5b6020020135115b612a50576040517f08c379a0000000000000000000000000000000000000000000000000000000008152600401612a4790613fcc565b60405180910390fd5b600083600060038110612a8c577f4e487b7100000000000000000000000000000000000000000000000000000000600052603260045260246000fd5b6020020135118015612adc5750600083600160038110612ad5577f4e487b7100000000000000000000000000000000000000000000000000000000600052603260045260246000fd5b6020020135115b8015612b265750600083600260038110612b1f577f4e487b7100000000000000000000000000000000000000000000000000000000600052603260045260246000fd5b6020020135115b612b65576040517f08c379a0000000000000000000000000000000000000000000000000000000008152600401612b5c9061400c565b60405180910390fd5b60006005600088815260200190815260200160002090506000816000015414612bc3576040517f08c379a0000000000000000000000000000000000000000000000000000000008152600401612bba906140ec565b60405180910390fd5b60006004600089815260200190815260200160002060010154905060008111612c21576040517f08c379a0000000000000000000000000000000000000000000000000000000008152600401612c18906140ac565b60405180910390fd5b808711612c63576040517f08c379a0000000000000000000000000000000000000000000000000000000008152600401612c5a9061402c565b60405180910390fd5b8682600001819055508582600101819055508482600201906003612c8892919061344a565b508382600801906003612c9c92919061344a565b508282600b0160006101000a81548173ffffffffffffffffffffffffffffffffffffffff021916908373ffffffffffffffffffffffffffffffffffffffff1602179055508273ffffffffffffffffffffffffffffffffffffffff16887f79bf20ae2c511f70496feccd088ed3e0f7d78cd75dccb90cf37f56d71b48bdee8989888a604051612d2d94939291906141ec565b60405180910390a35050505050505050565b612d47613370565b73ffffffffffffffffffffffffffffffffffffffff16612d656115cf565b73ffffffffffffffffffffffffffffffffffffffff1614612dbb576040517f08c379a0000000000000000000000000000000000000000000000000000000008152600401612db290613fac565b60405180910390fd5b600073ffffffffffffffffffffffffffffffffffffffff168173ffffffffffffffffffffffffffffffffffffffff161415612e2b576040517f08c379a0000000000000000000000000000000000000000000000000000000008152600401612e229061410c565b60405180910390fd5b600360008273ffffffffffffffffffffffffffffffffffffffff1673ffffffffffffffffffffffffffffffffffffffff16815260200190815260200160002060009054906101000a900460ff16612eb7576040517f08c379a0000000000000000000000000000000000000000000000000000000008152600401612eae90613ecc565b60405180910390fd5b6000600360008373ffffffffffffffffffffffffffffffffffffffff1673ffffffffffffffffffffffffffffffffffffffff16815260200190815260200160002060006101000a81548160ff0219169083151502179055508073ffffffffffffffffffffffffffffffffffffffff167fa995c74341d87d6382e611e2f9439787e1d6c954ed0032d4402817eb78f225c86000604051612f569190613e11565b60405180910390a250565b612f69613370565b73ffffffffffffffffffffffffffffffffffffffff16612f876115cf565b73ffffffffffffffffffffffffffffffffffffffff1614612fdd576040517f08c379a0000000000000000000000000000000000000000000000000000000008152600401612fd490613fac565b60405180910390fd5b612fe6866113a3565b613025576040517f08c379a000000000000000000000000000000000000000000000000000000000815260040161301c90613e8c565b60405180910390fd5b61302e86610a9d565b1561306e576040517f08c379a00000000000000000000000000000000000000000000000000000000081526004016130659061404c565b60405180910390fd5b60008511801561307e5750600084115b801561308a5750600083115b80156130965750600082115b6130d5576040517f08c379a00000000000000000000000000000000000000000000000000000000081526004016130cc906140cc565b60405180910390fd5b600073ffffffffffffffffffffffffffffffffffffffff168173ffffffffffffffffffffffffffffffffffffffff161415613145576040517f08c379a000000000000000000000000000000000000000000000000000000000815260040161313c9061410c565b60405180910390fd5b6000600960008373ffffffffffffffffffffffffffffffffffffffff1673ffffffffffffffffffffffffffffffffffffffff16815260200190815260200160002054146131c7576040517f08c379a00000000000000000000000000000000000000000000000000000000081526004016131be90613eac565b60405180910390fd5b60006005600088815260200190815260200160002090506000600660008981526020019081526020016000209050670de0b6b3a7640000876132099190614370565b82600c0181905550670de0b6b3a7640000866132259190614370565b82600d0181905550670de0b6b3a7640000856132419190614370565b8160030181905550670de0b6b3a76400008461325d9190614370565b816004018190555082600860008a815260200190815260200160002060006101000a81548173ffffffffffffffffffffffffffffffffffffffff021916908373ffffffffffffffffffffffffffffffffffffffff16021790555087600960008573ffffffffffffffffffffffffffffffffffffffff1673ffffffffffffffffffffffffffffffffffffffff168152602001908152602001600020819055508273ffffffffffffffffffffffffffffffffffffffff16887f7a9301e1d7e4267aac1f04cc3785bf5fce447f08569268d3d23d997ab05c6d28898989896040516133489493929190614232565b60405180910390a35050505050505050565b6001816000016000828254019250508190555050565b600033905090565b60008060009054906101000a900473ffffffffffffffffffffffffffffffffffffffff169050816000806101000a81548173ffffffffffffffffffffffffffffffffffffffff021916908373ffffffffffffffffffffffffffffffffffffffff1602179055508173ffffffffffffffffffffffffffffffffffffffff168173ffffffffffffffffffffffffffffffffffffffff167f8be0079c531659141344cd1fd0a4f28419497f9722a3daafe3b4186f6b6457e060405160405180910390a35050565b600081600001549050919050565b8260038101928215613479579160200282015b8281111561347857823582559160200191906001019061345d565b5b509050613486919061348a565b5090565b5b808211156134a357600081600090555060010161348b565b5090565b6000813590506134b681614501565b92915050565b6000819050826020600302820111156134d457600080fd5b92915050565b6000813590506134e981614518565b92915050565b6000813590506134fe8161452f565b92915050565b60006020828403121561351657600080fd5b6000613524848285016134a7565b91505092915050565b60006020828403121561353f57600080fd5b600061354d848285016134ef565b91505092915050565b6000806040838503121561356957600080fd5b6000613577858286016134ef565b9250506020613588858286016134a7565b9150509250929050565b600080604083850312156135a557600080fd5b60006135b3858286016134ef565b92505060206135c4858286016134da565b9150509250929050565b600080604083850312156135e157600080fd5b60006135ef858286016134ef565b9250506020613600858286016134ef565b9150509250929050565b60008060006060848603121561361f57600080fd5b600061362d868287016134ef565b935050602061363e868287016134ef565b925050604061364f868287016134ef565b9150509250925092565b600080600080600080610140878903121561367357600080fd5b600061368189828a016134ef565b965050602061369289828a016134ef565b95505060406136a389828a016134ef565b94505060606136b489828a016134bc565b93505060c06136c589828a016134bc565b9250506101206136d789828a016134a7565b9150509295509295509295565b60008060008060008060c087890312156136fd57600080fd5b600061370b89828a016134ef565b965050602061371c89828a016134ef565b955050604061372d89828a016134ef565b945050606061373e89828a016134ef565b935050608061374f89828a016134ef565b92505060a061376089828a016134a7565b9150509295509295509295565b61377681614432565b82525050565b61378860608383614494565b5050565b61379581614444565b82525050565b60006137a8601e836142d8565b91507f4c69676874686f7573653a20494e56414c49445f53544152545f54494d4500006000830152602082019050919050565b60006137e86019836142d8565b91507f4c69676874686f7573653a2050524546554e445f5048415345000000000000006000830152602082019050919050565b60006138286026836142d8565b91507f4f776e61626c653a206e6577206f776e657220697320746865207a65726f206160008301527f64647265737300000000000000000000000000000000000000000000000000006020830152604082019050919050565b600061388e6016836142d8565b91507f4c69676874686f7573653a204e4f5f41554354494f4e000000000000000000006000830152602082019050919050565b60006138ce6014836142d8565b91507f4c69676874686f7573653a204e46545f555345440000000000000000000000006000830152602082019050919050565b600061390e6013836142d8565b91507f4c69676874686f7573653a204e4f5f55534552000000000000000000000000006000830152602082019050919050565b600061394e601e836142d8565b91507f4c69676874686f7573653a20494e56414c49445f50524f4a4543545f494400006000830152602082019050919050565b600061398e6017836142d8565b91507f4c69676874686f7573653a2054494d455f5041535345440000000000000000006000830152602082019050919050565b60006139ce601e836142d8565b91507f4c69676874686f7573653a20494e434f52524543545f454e445f54494d4500006000830152602082019050919050565b6000613a0e601a836142d8565b91507f4c69676874686f7573653a20414c52454144595f4d494e5445440000000000006000830152602082019050919050565b6000613a4e6018836142d8565b91507f4c69676874686f7573653a2053414d455f4144445245535300000000000000006000830152602082019050919050565b6000613a8e601a836142d8565b91507f4c69676874686f7573653a204e4f5f50524546554e445f5945540000000000006000830152602082019050919050565b6000613ace6020836142d8565b91507f4f776e61626c653a2063616c6c6572206973206e6f7420746865206f776e65726000830152602082019050919050565b6000613b0e6019836142d8565b91507f4c69676874686f7573653a205a45524f5f504f4f4c5f434150000000000000006000830152602082019050919050565b6000613b4e6014836142d8565b91507f4c69676874686f7573653a205043435f555345440000000000000000000000006000830152602082019050919050565b6000613b8e601c836142d8565b91507f4c69676874686f7573653a205a45524f5f46495845445f5052494345000000006000830152602082019050919050565b6000613bce6023836142d8565b91507f4c69676874686f7573653a204e4f5f524547495354524154494f4e5f454e445f60008301527f59455400000000000000000000000000000000000000000000000000000000006020830152604082019050919050565b6000613c34601d836142d8565b91507f4c69676874686f7573653a20414c52454144595f494e495449415445440000006000830152602082019050919050565b6000613c74601c836142d8565b91507f4c69676874686f7573653a20494e56414c49445f454e445f54494d45000000006000830152602082019050919050565b6000613cb46015836142d8565b91507f4c69676874686f7573653a20464f5242494444454e00000000000000000000006000830152602082019050919050565b6000613cf4601f836142d8565b91507f4c69676874686f7573653a204e4f5f524547495354524154494f4e5f594554006000830152602082019050919050565b6000613d34601a836142d8565b91507f4c69676874686f7573653a205a45524f5f504152414d455445520000000000006000830152602082019050919050565b6000613d746019836142d8565b91507f4c69676874686f7573653a20414c52454144595f4144444544000000000000006000830152602082019050919050565b6000613db46018836142d8565b91507f4c69676874686f7573653a205a45524f5f4144445245535300000000000000006000830152602082019050919050565b613df08161447d565b82525050565b6000602082019050613e0b600083018461376d565b92915050565b6000602082019050613e26600083018461378c565b92915050565b60006020820190508181036000830152613e458161379b565b9050919050565b60006020820190508181036000830152613e65816137db565b9050919050565b60006020820190508181036000830152613e858161381b565b9050919050565b60006020820190508181036000830152613ea581613881565b9050919050565b60006020820190508181036000830152613ec5816138c1565b9050919050565b60006020820190508181036000830152613ee581613901565b9050919050565b60006020820190508181036000830152613f0581613941565b9050919050565b60006020820190508181036000830152613f2581613981565b9050919050565b60006020820190508181036000830152613f45816139c1565b9050919050565b60006020820190508181036000830152613f6581613a01565b9050919050565b60006020820190508181036000830152613f8581613a41565b9050919050565b60006020820190508181036000830152613fa581613a81565b9050919050565b60006020820190508181036000830152613fc581613ac1565b9050919050565b60006020820190508181036000830152613fe581613b01565b9050919050565b6000602082019050818103600083015261400581613b41565b9050919050565b6000602082019050818103600083015261402581613b81565b9050919050565b6000602082019050818103600083015261404581613bc1565b9050919050565b6000602082019050818103600083015261406581613c27565b9050919050565b6000602082019050818103600083015261408581613c67565b9050919050565b600060208201905081810360008301526140a581613ca7565b9050919050565b600060208201905081810360008301526140c581613ce7565b9050919050565b600060208201905081810360008301526140e581613d27565b9050919050565b6000602082019050818103600083015261410581613d67565b9050919050565b6000602082019050818103600083015261412581613da7565b9050919050565b60006020820190506141416000830184613de7565b92915050565b600060408201905061415c6000830185613de7565b614169602083018461376d565b9392505050565b60006040820190506141856000830185613de7565b6141926020830184613de7565b9392505050565b600060a0820190506141ae6000830188613de7565b6141bb6020830187613de7565b6141c8604083018661376d565b6141d56060830185613de7565b6141e26080830184613de7565b9695505050505050565b6000610100820190506142026000830187613de7565b61420f6020830186613de7565b61421c604083018561377c565b61422960a083018461377c565b95945050505050565b60006080820190506142476000830187613de7565b6142546020830186613de7565b6142616040830185613de7565b61426e6060830184613de7565b95945050505050565b600060c08201905061428c6000830189613de7565b6142996020830188613de7565b6142a66040830187613de7565b6142b36060830186613de7565b6142c06080830185613de7565b6142cd60a083018461378c565b979650505050505050565b600082825260208201905092915050565b60006142f48261447d565b91506142ff8361447d565b9250827fffffffffffffffffffffffffffffffffffffffffffffffffffffffffffffffff03821115614334576143336144a3565b5b828201905092915050565b600061434a8261447d565b91506143558361447d565b925082614365576143646144d2565b5b828204905092915050565b600061437b8261447d565b91506143868361447d565b9250817fffffffffffffffffffffffffffffffffffffffffffffffffffffffffffffffff04831182151516156143bf576143be6144a3565b5b828202905092915050565b60006143d58261447d565b91506143e08361447d565b9250828210156143f3576143f26144a3565b5b828203905092915050565b600061440982614487565b915061441483614487565b925082821015614427576144266144a3565b5b828203905092915050565b600061443d8261445d565b9050919050565b60008115159050919050565b60008160000b9050919050565b600073ffffffffffffffffffffffffffffffffffffffff82169050919050565b6000819050919050565b600060ff82169050919050565b82818337600083830152505050565b7f4e487b7100000000000000000000000000000000000000000000000000000000600052601160045260246000fd5b7f4e487b7100000000000000000000000000000000000000000000000000000000600052601260045260246000fd5b61450a81614432565b811461451557600080fd5b50565b61452181614450565b811461452c57600080fd5b50565b6145388161447d565b811461454357600080fd5b5056fea264697066735822122097f4bdc0edaae66dd4d37bbbddbea2d45f11f821f7f2ba79a6552f3bd86bfdfe64736f6c63430008000033",
  "linkReferences": {},
  "deployedLinkReferences": {}
}