{
  "_format": "hh-sol-artifact-1",
  "contractName": "LighthouseProject",
  "sourceName": "contracts/LighthouseProject.sol",
  "abi": [
    {
      "inputs": [
        {
          "internalType": "address",
          "name": "verifier",
          "type": "address"
        }
      ],
      "stateMutability": "nonpayable",
      "type": "constructor"
    },
    {
      "anonymous": false,
      "inputs": [
        {
          "indexed": true,
          "internalType": "uint256",
          "name": "id",
          "type": "uint256"
        },
        {
          "indexed": false,
          "internalType": "uint256",
          "name": "prefundAllocation",
          "type": "uint256"
        },
        {
          "indexed": false,
          "internalType": "uint256",
          "name": "prefundCompensation",
          "type": "uint256"
        },
        {
          "indexed": false,
          "internalType": "uint256",
          "name": "auctionAllocation",
          "type": "uint256"
        },
        {
          "indexed": false,
          "internalType": "uint256",
          "name": "auctionCompensation",
          "type": "uint256"
        }
      ],
      "name": "InitAllocationCompensation",
      "type": "event"
    },
    {
      "anonymous": false,
      "inputs": [
        {
          "indexed": true,
          "internalType": "uint256",
          "name": "id",
          "type": "uint256"
        },
        {
          "indexed": false,
          "internalType": "uint256",
          "name": "startTime",
          "type": "uint256"
        },
        {
          "indexed": false,
          "internalType": "uint256",
          "name": "endTime",
          "type": "uint256"
        }
      ],
      "name": "InitAuction",
      "type": "event"
    },
    {
      "anonymous": false,
      "inputs": [
        {
          "indexed": true,
          "internalType": "uint256",
          "name": "id",
          "type": "uint256"
        },
        {
          "indexed": false,
          "internalType": "uint256",
          "name": "scaledAllocation",
          "type": "uint256"
        },
        {
          "indexed": false,
          "internalType": "uint256",
          "name": "scaledCompensation",
          "type": "uint256"
        },
        {
          "indexed": false,
          "internalType": "address",
          "name": "nft",
          "type": "address"
        }
      ],
      "name": "InitMinting",
      "type": "event"
    },
    {
      "anonymous": false,
      "inputs": [
        {
          "indexed": true,
          "internalType": "uint256",
          "name": "id",
          "type": "uint256"
        },
        {
          "indexed": true,
          "internalType": "address",
          "name": "token",
          "type": "address"
        },
        {
          "indexed": false,
          "internalType": "uint256",
          "name": "startTime",
          "type": "uint256"
        },
        {
          "indexed": false,
          "internalType": "uint256",
          "name": "endTime",
          "type": "uint256"
        },
        {
          "indexed": false,
          "internalType": "uint256[3]",
          "name": "pools",
          "type": "uint256[3]"
        },
        {
          "indexed": false,
          "internalType": "uint256[3]",
          "name": "investAmounts",
          "type": "uint256[3]"
        }
      ],
      "name": "InitPrefund",
      "type": "event"
    },
    {
      "anonymous": false,
      "inputs": [
        {
          "indexed": true,
          "internalType": "uint256",
          "name": "id",
          "type": "uint256"
        },
        {
          "indexed": false,
          "internalType": "uint256",
          "name": "startTime",
          "type": "uint256"
        },
        {
          "indexed": false,
          "internalType": "uint256",
          "name": "endTime",
          "type": "uint256"
        }
      ],
      "name": "InitRegistration",
      "type": "event"
    },
    {
      "anonymous": false,
      "inputs": [
        {
          "indexed": true,
          "internalType": "address",
          "name": "previousOwner",
          "type": "address"
        },
        {
          "indexed": true,
          "internalType": "address",
          "name": "newOwner",
          "type": "address"
        }
      ],
      "name": "OwnershipTransferred",
      "type": "event"
    },
    {
      "anonymous": false,
      "inputs": [
        {
          "indexed": true,
          "internalType": "address",
          "name": "user",
          "type": "address"
        },
        {
          "indexed": false,
          "internalType": "bool",
          "name": "allowed",
          "type": "bool"
        }
      ],
      "name": "ProjectEditor",
      "type": "event"
    },
    {
      "anonymous": false,
      "inputs": [
        {
          "indexed": true,
          "internalType": "address",
          "name": "verifier",
          "type": "address"
        }
      ],
      "name": "SetKYCVerifier",
      "type": "event"
    },
    {
      "anonymous": false,
      "inputs": [
        {
          "indexed": true,
          "internalType": "uint256",
          "name": "id",
          "type": "uint256"
        },
        {
          "indexed": false,
          "internalType": "uint256",
          "name": "scaledPrefundAmount",
          "type": "uint256"
        },
        {
          "indexed": false,
          "internalType": "uint256",
          "name": "scaledCompensationAmount",
          "type": "uint256"
        }
      ],
      "name": "TransferUnfunded",
      "type": "event"
    },
    {
      "inputs": [
        {
          "internalType": "address",
          "name": "_user",
          "type": "address"
        }
      ],
      "name": "addEditor",
      "outputs": [],
      "stateMutability": "nonpayable",
      "type": "function"
    },
    {
      "inputs": [
        {
          "internalType": "uint256",
          "name": "id",
          "type": "uint256"
        }
      ],
      "name": "allocationCompensationInitialized",
      "outputs": [
        {
          "internalType": "bool",
          "name": "",
          "type": "bool"
        }
      ],
      "stateMutability": "view",
      "type": "function"
    },
    {
      "inputs": [
        {
          "internalType": "uint256",
          "name": "id",
          "type": "uint256"
        }
      ],
      "name": "auctionEndTime",
      "outputs": [
        {
          "internalType": "uint256",
          "name": "",
          "type": "uint256"
        }
      ],
      "stateMutability": "view",
      "type": "function"
    },
    {
      "inputs": [
        {
          "internalType": "uint256",
          "name": "id",
          "type": "uint256"
        }
      ],
      "name": "auctionInitialized",
      "outputs": [
        {
          "internalType": "bool",
          "name": "",
          "type": "bool"
        }
      ],
      "stateMutability": "view",
      "type": "function"
    },
    {
      "inputs": [
        {
          "internalType": "uint256",
          "name": "id",
          "type": "uint256"
        }
      ],
      "name": "auctionScaledUnit",
      "outputs": [
        {
          "internalType": "uint256",
          "name": "",
          "type": "uint256"
        },
        {
          "internalType": "uint256",
          "name": "",
          "type": "uint256"
        }
      ],
      "stateMutability": "view",
      "type": "function"
    },
    {
      "inputs": [
        {
          "internalType": "uint256",
          "name": "id",
          "type": "uint256"
        }
      ],
      "name": "auctionTimeInfo",
      "outputs": [
        {
          "internalType": "uint256",
          "name": "",
          "type": "uint256"
        },
        {
          "internalType": "uint256",
          "name": "",
          "type": "uint256"
        }
      ],
      "stateMutability": "view",
      "type": "function"
    },
    {
      "inputs": [
        {
          "internalType": "uint256",
          "name": "id",
          "type": "uint256"
        }
      ],
      "name": "auctionTotalPool",
      "outputs": [
        {
          "internalType": "uint256",
          "name": "",
          "type": "uint256"
        }
      ],
      "stateMutability": "view",
      "type": "function"
    },
    {
      "inputs": [
        {
          "internalType": "uint256",
          "name": "",
          "type": "uint256"
        }
      ],
      "name": "auctions",
      "outputs": [
        {
          "internalType": "uint256",
          "name": "startTime",
          "type": "uint256"
        },
        {
          "internalType": "uint256",
          "name": "endTime",
          "type": "uint256"
        },
        {
          "internalType": "uint256",
          "name": "spent",
          "type": "uint256"
        },
        {
          "internalType": "uint256",
          "name": "scaledAllocation",
          "type": "uint256"
        },
        {
          "internalType": "uint256",
          "name": "scaledCompensation",
          "type": "uint256"
        }
      ],
      "stateMutability": "view",
      "type": "function"
    },
    {
      "inputs": [
        {
          "internalType": "uint256",
          "name": "id",
          "type": "uint256"
        },
        {
          "internalType": "uint256",
          "name": "amount",
          "type": "uint256"
        }
      ],
      "name": "collectAuctionAmount",
      "outputs": [],
      "stateMutability": "nonpayable",
      "type": "function"
    },
    {
      "inputs": [
        {
          "internalType": "uint256",
          "name": "id",
          "type": "uint256"
        },
        {
          "internalType": "int8",
          "name": "tier",
          "type": "int8"
        }
      ],
      "name": "collectPrefundInvestment",
      "outputs": [],
      "stateMutability": "nonpayable",
      "type": "function"
    },
    {
      "inputs": [
        {
          "internalType": "address",
          "name": "_user",
          "type": "address"
        }
      ],
      "name": "deleteEditorEditor",
      "outputs": [],
      "stateMutability": "nonpayable",
      "type": "function"
    },
    {
      "inputs": [
        {
          "internalType": "address",
          "name": "",
          "type": "address"
        }
      ],
      "name": "editors",
      "outputs": [
        {
          "internalType": "bool",
          "name": "",
          "type": "bool"
        }
      ],
      "stateMutability": "view",
      "type": "function"
    },
    {
      "inputs": [],
      "name": "getKYCVerifier",
      "outputs": [
        {
          "internalType": "address",
          "name": "",
          "type": "address"
        }
      ],
      "stateMutability": "view",
      "type": "function"
    },
    {
      "inputs": [
        {
          "internalType": "uint256",
          "name": "id",
          "type": "uint256"
        },
        {
          "internalType": "uint256",
          "name": "prefundAllocation",
          "type": "uint256"
        },
        {
          "internalType": "uint256",
          "name": "prefundCompensation",
          "type": "uint256"
        },
        {
          "internalType": "uint256",
          "name": "auctionAllocation",
          "type": "uint256"
        },
        {
          "internalType": "uint256",
          "name": "auctionCompensation",
          "type": "uint256"
        }
      ],
      "name": "initAllocationCompensation",
      "outputs": [],
      "stateMutability": "nonpayable",
      "type": "function"
    },
    {
      "inputs": [
        {
          "internalType": "uint256",
          "name": "id",
          "type": "uint256"
        },
        {
          "internalType": "uint256",
          "name": "startTime",
          "type": "uint256"
        },
        {
          "internalType": "uint256",
          "name": "endTime",
          "type": "uint256"
        }
      ],
      "name": "initAuction",
      "outputs": [],
      "stateMutability": "nonpayable",
      "type": "function"
    },
    {
      "inputs": [
        {
          "internalType": "uint256",
          "name": "id",
          "type": "uint256"
        },
        {
          "internalType": "address",
          "name": "nft",
          "type": "address"
        }
      ],
      "name": "initMinting",
      "outputs": [],
      "stateMutability": "nonpayable",
      "type": "function"
    },
    {
      "inputs": [
        {
          "internalType": "uint256",
          "name": "id",
          "type": "uint256"
        },
        {
          "internalType": "uint256",
          "name": "startTime",
          "type": "uint256"
        },
        {
          "internalType": "uint256",
          "name": "endTime",
          "type": "uint256"
        },
        {
          "internalType": "uint256[3]",
          "name": "investAmounts",
          "type": "uint256[3]"
        },
        {
          "internalType": "uint256[3]",
          "name": "pools",
          "type": "uint256[3]"
        },
        {
          "internalType": "address",
          "name": "_token",
          "type": "address"
        }
      ],
      "name": "initPrefund",
      "outputs": [],
      "stateMutability": "nonpayable",
      "type": "function"
    },
    {
      "inputs": [
        {
          "internalType": "uint256",
          "name": "startTime",
          "type": "uint256"
        },
        {
          "internalType": "uint256",
          "name": "endTime",
          "type": "uint256"
        }
      ],
      "name": "initRegistration",
      "outputs": [],
      "stateMutability": "nonpayable",
      "type": "function"
    },
    {
      "inputs": [],
      "name": "kycVerifier",
      "outputs": [
        {
          "internalType": "address",
          "name": "",
          "type": "address"
        }
      ],
      "stateMutability": "view",
      "type": "function"
    },
    {
      "inputs": [
        {
          "internalType": "uint256",
          "name": "id",
          "type": "uint256"
        }
      ],
      "name": "mintingInitialized",
      "outputs": [
        {
          "internalType": "bool",
          "name": "",
          "type": "bool"
        }
      ],
      "stateMutability": "view",
      "type": "function"
    },
    {
      "inputs": [
        {
          "internalType": "uint256",
          "name": "",
          "type": "uint256"
        }
      ],
      "name": "mintings",
      "outputs": [
        {
          "internalType": "uint256",
          "name": "scaledAllocation",
          "type": "uint256"
        },
        {
          "internalType": "uint256",
          "name": "scaledCompensation",
          "type": "uint256"
        },
        {
          "internalType": "address",
          "name": "nft",
          "type": "address"
        },
        {
          "internalType": "address",
          "name": "pcc",
          "type": "address"
        }
      ],
      "stateMutability": "view",
      "type": "function"
    },
    {
      "inputs": [
        {
          "internalType": "uint256",
          "name": "id",
          "type": "uint256"
        }
      ],
      "name": "nftAddress",
      "outputs": [
        {
          "internalType": "address",
          "name": "",
          "type": "address"
        }
      ],
      "stateMutability": "view",
      "type": "function"
    },
    {
      "inputs": [],
      "name": "owner",
      "outputs": [
        {
          "internalType": "address",
          "name": "",
          "type": "address"
        }
      ],
      "stateMutability": "view",
      "type": "function"
    },
    {
      "inputs": [
        {
          "internalType": "uint256",
          "name": "id",
          "type": "uint256"
        }
      ],
      "name": "prefundEndTime",
      "outputs": [
        {
          "internalType": "uint256",
          "name": "",
          "type": "uint256"
        }
      ],
      "stateMutability": "view",
      "type": "function"
    },
    {
      "inputs": [
        {
          "internalType": "uint256",
          "name": "id",
          "type": "uint256"
        }
      ],
      "name": "prefundInitialized",
      "outputs": [
        {
          "internalType": "bool",
          "name": "",
          "type": "bool"
        }
      ],
      "stateMutability": "view",
      "type": "function"
    },
    {
      "inputs": [
        {
          "internalType": "uint256",
          "name": "id",
          "type": "uint256"
        },
        {
          "internalType": "int8",
          "name": "tier",
          "type": "int8"
        }
      ],
      "name": "prefundInvestAmount",
      "outputs": [
        {
          "internalType": "uint256",
          "name": "",
          "type": "uint256"
        },
        {
          "internalType": "address",
          "name": "",
          "type": "address"
        }
      ],
      "stateMutability": "view",
      "type": "function"
    },
    {
      "inputs": [
        {
          "internalType": "uint256",
          "name": "id",
          "type": "uint256"
        },
        {
          "internalType": "int8",
          "name": "tier",
          "type": "int8"
        }
      ],
      "name": "prefundPoolInfo",
      "outputs": [
        {
          "internalType": "uint256",
          "name": "",
          "type": "uint256"
        },
        {
          "internalType": "uint256",
          "name": "",
          "type": "uint256"
        }
      ],
      "stateMutability": "view",
      "type": "function"
    },
    {
      "inputs": [
        {
          "internalType": "uint256",
          "name": "id",
          "type": "uint256"
        }
      ],
      "name": "prefundScaledUnit",
      "outputs": [
        {
          "internalType": "uint256",
          "name": "",
          "type": "uint256"
        },
        {
          "internalType": "uint256",
          "name": "",
          "type": "uint256"
        }
      ],
      "stateMutability": "view",
      "type": "function"
    },
    {
      "inputs": [
        {
          "internalType": "uint256",
          "name": "id",
          "type": "uint256"
        }
      ],
      "name": "prefundTimeInfo",
      "outputs": [
        {
          "internalType": "uint256",
          "name": "",
          "type": "uint256"
        },
        {
          "internalType": "uint256",
          "name": "",
          "type": "uint256"
        }
      ],
      "stateMutability": "view",
      "type": "function"
    },
    {
      "inputs": [
        {
          "internalType": "uint256",
          "name": "id",
          "type": "uint256"
        }
      ],
      "name": "prefundTotalPool",
      "outputs": [
        {
          "internalType": "uint256",
          "name": "",
          "type": "uint256"
        },
        {
          "internalType": "uint256",
          "name": "",
          "type": "uint256"
        }
      ],
      "stateMutability": "view",
      "type": "function"
    },
    {
      "inputs": [
        {
          "internalType": "uint256",
          "name": "",
          "type": "uint256"
        }
      ],
      "name": "prefunds",
      "outputs": [
        {
          "internalType": "uint256",
          "name": "startTime",
          "type": "uint256"
        },
        {
          "internalType": "uint256",
          "name": "endTime",
          "type": "uint256"
        },
        {
          "internalType": "address",
          "name": "token",
          "type": "address"
        },
        {
          "internalType": "uint256",
          "name": "scaledAllocation",
          "type": "uint256"
        },
        {
          "internalType": "uint256",
          "name": "scaledCompensation",
          "type": "uint256"
        },
        {
          "internalType": "uint256",
          "name": "scaledRatio",
          "type": "uint256"
        }
      ],
      "stateMutability": "view",
      "type": "function"
    },
    {
      "inputs": [
        {
          "internalType": "uint256",
          "name": "id",
          "type": "uint256"
        }
      ],
      "name": "registrationEndTime",
      "outputs": [
        {
          "internalType": "uint256",
          "name": "",
          "type": "uint256"
        }
      ],
      "stateMutability": "view",
      "type": "function"
    },
    {
      "inputs": [
        {
          "internalType": "uint256",
          "name": "id",
          "type": "uint256"
        }
      ],
      "name": "registrationInfo",
      "outputs": [
        {
          "internalType": "uint256",
          "name": "",
          "type": "uint256"
        },
        {
          "internalType": "uint256",
          "name": "",
          "type": "uint256"
        }
      ],
      "stateMutability": "view",
      "type": "function"
    },
    {
      "inputs": [
        {
          "internalType": "uint256",
          "name": "id",
          "type": "uint256"
        }
      ],
      "name": "registrationInitialized",
      "outputs": [
        {
          "internalType": "bool",
          "name": "",
          "type": "bool"
        }
      ],
      "stateMutability": "view",
      "type": "function"
    },
    {
      "inputs": [
        {
          "internalType": "uint256",
          "name": "",
          "type": "uint256"
        }
      ],
      "name": "registrations",
      "outputs": [
        {
          "internalType": "uint256",
          "name": "startTime",
          "type": "uint256"
        },
        {
          "internalType": "uint256",
          "name": "endTime",
          "type": "uint256"
        }
      ],
      "stateMutability": "view",
      "type": "function"
    },
    {
      "inputs": [],
      "name": "renounceOwnership",
      "outputs": [],
      "stateMutability": "nonpayable",
      "type": "function"
    },
    {
      "inputs": [
        {
          "internalType": "address",
          "name": "verifier",
          "type": "address"
        }
      ],
      "name": "setKYCVerifier",
      "outputs": [],
      "stateMutability": "nonpayable",
      "type": "function"
    },
    {
      "inputs": [],
      "name": "totalProjects",
      "outputs": [
        {
          "internalType": "uint256",
          "name": "",
          "type": "uint256"
        }
      ],
      "stateMutability": "view",
      "type": "function"
    },
    {
      "inputs": [
        {
          "internalType": "address",
          "name": "newOwner",
          "type": "address"
        }
      ],
      "name": "transferOwnership",
      "outputs": [],
      "stateMutability": "nonpayable",
      "type": "function"
    },
    {
      "inputs": [
        {
          "internalType": "uint256",
          "name": "id",
          "type": "uint256"
        }
      ],
      "name": "validProjectId",
      "outputs": [
        {
          "internalType": "bool",
          "name": "",
          "type": "bool"
        }
      ],
      "stateMutability": "view",
      "type": "function"
    }
  ],
  "bytecode": "0x60806040523480156200001157600080fd5b5060405162004484380380620044848339818101604052810190620000379190620003c5565b620000576200004b6200008660201b60201c565b6200008e60201b60201c565b62000068816200015260201b60201c565b6200007f60016200036f60201b62002ae01760201c565b506200057c565b600033905090565b60008060009054906101000a900473ffffffffffffffffffffffffffffffffffffffff169050816000806101000a81548173ffffffffffffffffffffffffffffffffffffffff021916908373ffffffffffffffffffffffffffffffffffffffff1602179055508173ffffffffffffffffffffffffffffffffffffffff168173ffffffffffffffffffffffffffffffffffffffff167f8be0079c531659141344cd1fd0a4f28419497f9722a3daafe3b4186f6b6457e060405160405180910390a35050565b620001626200008660201b60201c565b73ffffffffffffffffffffffffffffffffffffffff16620001886200038560201b60201c565b73ffffffffffffffffffffffffffffffffffffffff1614620001e1576040517f08c379a0000000000000000000000000000000000000000000000000000000008152600401620001d890620004d9565b60405180910390fd5b600073ffffffffffffffffffffffffffffffffffffffff168173ffffffffffffffffffffffffffffffffffffffff16141562000254576040517f08c379a00000000000000000000000000000000000000000000000000000000081526004016200024b90620004fb565b60405180910390fd5b8073ffffffffffffffffffffffffffffffffffffffff16600260009054906101000a900473ffffffffffffffffffffffffffffffffffffffff1673ffffffffffffffffffffffffffffffffffffffff161415620002e8576040517f08c379a0000000000000000000000000000000000000000000000000000000008152600401620002df90620004b7565b60405180910390fd5b80600260006101000a81548173ffffffffffffffffffffffffffffffffffffffff021916908373ffffffffffffffffffffffffffffffffffffffff1602179055508073ffffffffffffffffffffffffffffffffffffffff167f4cc9cc2c1c94b0f2a3403db2d1758433cbfa23312f4870c2a182918475ddcf0560405160405180910390a250565b6001816000016000828254019250508190555050565b60008060009054906101000a900473ffffffffffffffffffffffffffffffffffffffff16905090565b600081519050620003bf8162000562565b92915050565b600060208284031215620003d857600080fd5b6000620003e884828501620003ae565b91505092915050565b6000620004006018836200051d565b91507f4c69676874686f7573653a2053414d455f4144445245535300000000000000006000830152602082019050919050565b6000620004426020836200051d565b91507f4f776e61626c653a2063616c6c6572206973206e6f7420746865206f776e65726000830152602082019050919050565b6000620004846018836200051d565b91507f4c69676874686f7573653a205a45524f5f4144445245535300000000000000006000830152602082019050919050565b60006020820190508181036000830152620004d281620003f1565b9050919050565b60006020820190508181036000830152620004f48162000433565b9050919050565b60006020820190508181036000830152620005168162000475565b9050919050565b600082825260208201905092915050565b60006200053b8262000542565b9050919050565b600073ffffffffffffffffffffffffffffffffffffffff82169050919050565b6200056d816200052e565b81146200057957600080fd5b50565b613ef8806200058c6000396000f3fe608060405234801561001057600080fd5b50600436106102485760003560e01c80638ee2a6d11161013b578063bbc5f906116100b8578063e5975bdc1161007c578063e5975bdc146107e3578063f2fde38b146107ff578063f4ddb5be1461081b578063f8285d381461084c578063f88fba8c1461086857610248565b8063bbc5f90614610743578063be27db001461075f578063c82189e01461077b578063cd52844d14610797578063d17f6417146107c757610248565b8063ae9d403a116100ff578063ae9d403a14610675578063b47e9f3e146106a5578063b5f5cf70146106d6578063b60da08514610707578063b937e7cc1461072557610248565b80638ee2a6d114610594578063943df315146105c55780639922a1d5146105f65780639c361e4e14610627578063a84b06921461064557610248565b806364507efc116101c9578063777de7041161018d578063777de704146104c55780637cb7eed7146104f55780638d7365a9146105115780638da5cb5b146105415780638de6a11a1461055f57610248565b806364507efc146103f75780636592b72414610427578063715018a614610457578063748028571461046157806376f2766c1461049257610248565b806337979b801161021057806337979b801461033f57806341e0f1b11461035b578063428ba89314610377578063571a26a0146103a757806362a01ac2146103db57610248565b806305b576e31461024d578063073106641461027d5780631b4ead45146102ad57806324d2cb17146102dd5780632693b12c1461030e575b600080fd5b61026760048036038101906102629190612ed9565b610898565b6040516102749190613a2c565b60405180910390f35b61029760048036038101906102929190612ed9565b6108b8565b6040516102a49190613751565b60405180910390f35b6102c760048036038101906102c29190612ed9565b6108f8565b6040516102d49190613751565b60405180910390f35b6102f760048036038101906102f29190612ed9565b610960565b604051610305929190613a70565b60405180910390f35b61032860048036038101906103239190612ed9565b61098e565b604051610336929190613a70565b60405180910390f35b61035960048036038101906103549190612fb6565b6109bc565b005b61037560048036038101906103709190612f7a565b610c79565b005b610391600480360381019061038c9190612ed9565b610d39565b60405161039e9190613751565b60405180910390f35b6103c160048036038101906103bc9190612ed9565b610d79565b6040516103d2959493929190613c01565b60405180910390f35b6103f560048036038101906103f09190612eb0565b610daf565b005b610411600480360381019061040c9190612ed9565b610fd1565b60405161041e9190613751565b60405180910390f35b610441600480360381019061043c9190612ed9565b611011565b60405161044e9190613751565b60405180910390f35b61045f611051565b005b61047b60048036038101906104769190612f3e565b6110d9565b604051610489929190613a70565b60405180910390f35b6104ac60048036038101906104a79190612ed9565b611193565b6040516104bc9493929190613ad0565b60405180910390f35b6104df60048036038101906104da9190612ed9565b611203565b6040516104ec9190613a2c565b60405180910390f35b61050f600480360381019061050a9190612f02565b611223565b005b61052b60048036038101906105269190612ed9565b6114ab565b6040516105389190613751565b60405180910390f35b6105496114cb565b6040516105569190613736565b60405180910390f35b61057960048036038101906105749190612ed9565b6114f4565b60405161058b96959493929190613b15565b60405180910390f35b6105ae60048036038101906105a99190612ed9565b611550565b6040516105bc929190613a70565b60405180910390f35b6105df60048036038101906105da9190612ed9565b61157e565b6040516105ed929190613a70565b60405180910390f35b610610600480360381019061060b9190612ed9565b611750565b60405161061e929190613a70565b60405180910390f35b61062f61179c565b60405161063c9190613a2c565b60405180910390f35b61065f600480360381019061065a9190612ed9565b6117ad565b60405161066c9190613a2c565b60405180910390f35b61068f600480360381019061068a9190612ed9565b6117cd565b60405161069c9190613a2c565b60405180910390f35b6106bf60048036038101906106ba9190612ed9565b6117ed565b6040516106cd929190613a70565b60405180910390f35b6106f060048036038101906106eb9190612f3e565b611907565b6040516106fe929190613a47565b60405180910390f35b61070f6119a5565b60405161071c9190613736565b60405180910390f35b61072d6119cf565b60405161073a9190613736565b60405180910390f35b61075d60048036038101906107589190613090565b6119f5565b005b61077960048036038101906107749190612f7a565b611c73565b005b61079560048036038101906107909190612f3e565b611e43565b005b6107b160048036038101906107ac9190612eb0565b611fcd565b6040516107be9190613751565b60405180910390f35b6107e160048036038101906107dc9190612eb0565b611fed565b005b6107fd60048036038101906107f89190612eb0565b6121f1565b005b61081960048036038101906108149190612eb0565b612414565b005b61083560048036038101906108309190612ed9565b61250c565b604051610843929190613a70565b60405180910390f35b61086660048036038101906108619190613005565b612530565b005b610882600480360381019061087d9190612ed9565b612aa0565b60405161088f9190613736565b60405180910390f35b600060056000838152602001908152602001600020600101549050919050565b60006108c3826114ab565b6108d057600090506108f3565b600060076000848152602001908152602001600020905060008160000154119150505b919050565b6000610903826114ab565b610910576000905061095b565b60006005600084815260200190815260200160002090506000600660008581526020019081526020016000209050600082600c0154118015610956575060008160030154115b925050505b919050565b6000806000600660008581526020019081526020016000209050806000015481600101549250925050915091565b6000806000600460008581526020019081526020016000209050806000015481600101549250925050915091565b6109c4612af6565b73ffffffffffffffffffffffffffffffffffffffff166109e26114cb565b73ffffffffffffffffffffffffffffffffffffffff1614610a38576040517f08c379a0000000000000000000000000000000000000000000000000000000008152600401610a2f906138ac565b60405180910390fd5b610a41836114ab565b610a80576040517f08c379a0000000000000000000000000000000000000000000000000000000008152600401610a77906137ec565b60405180910390fd5b600082118015610a8f57508142105b610ace576040517f08c379a0000000000000000000000000000000000000000000000000000000008152600401610ac59061376c565b60405180910390fd5b600081118015610ade5750808214155b8015610ae957508082105b610b28576040517f08c379a0000000000000000000000000000000000000000000000000000000008152600401610b1f9061394c565b60405180910390fd5b60006006600085815260200190815260200160002090506000816000015414610b86576040517f08c379a0000000000000000000000000000000000000000000000000000000008152600401610b7d906139ec565b60405180910390fd5b60006005600086815260200190815260200160002060010154905060008111610be4576040517f08c379a0000000000000000000000000000000000000000000000000000000008152600401610bdb9061388c565b60405180910390fd5b808411610c26576040517f08c379a0000000000000000000000000000000000000000000000000000000008152600401610c1d9061390c565b60405180910390fd5b838260000181905550828260010181905550847f9b3770df20128a91841fed18e7e8efbd28645b85d6e95c9feeff96f7c9bd83968585604051610c6a929190613a70565b60405180910390a25050505050565b600360003373ffffffffffffffffffffffffffffffffffffffff1673ffffffffffffffffffffffffffffffffffffffff16815260200190815260200160002060009054906101000a900460ff16610d05576040517f08c379a0000000000000000000000000000000000000000000000000000000008152600401610cfc9061396c565b60405180910390fd5b6000600660008481526020019081526020016000209050818160020154610d2c9190613c65565b8160020181905550505050565b6000610d44826114ab565b610d515760009050610d74565b600060046000848152602001908152602001600020905060008160000154119150505b919050565b60066020528060005260406000206000915090508060000154908060010154908060020154908060030154908060040154905085565b610db7612af6565b73ffffffffffffffffffffffffffffffffffffffff16610dd56114cb565b73ffffffffffffffffffffffffffffffffffffffff1614610e2b576040517f08c379a0000000000000000000000000000000000000000000000000000000008152600401610e22906138ac565b60405180910390fd5b600073ffffffffffffffffffffffffffffffffffffffff168173ffffffffffffffffffffffffffffffffffffffff161415610e9b576040517f08c379a0000000000000000000000000000000000000000000000000000000008152600401610e9290613a0c565b60405180910390fd5b600360008273ffffffffffffffffffffffffffffffffffffffff1673ffffffffffffffffffffffffffffffffffffffff16815260200190815260200160002060009054906101000a900460ff16610f27576040517f08c379a0000000000000000000000000000000000000000000000000000000008152600401610f1e906137cc565b60405180910390fd5b6000600360008373ffffffffffffffffffffffffffffffffffffffff1673ffffffffffffffffffffffffffffffffffffffff16815260200190815260200160002060006101000a81548160ff0219169083151502179055508073ffffffffffffffffffffffffffffffffffffffff167fa995c74341d87d6382e611e2f9439787e1d6c954ed0032d4402817eb78f225c86000604051610fc69190613751565b60405180910390a250565b6000610fdc826114ab565b610fe9576000905061100c565b600060066000848152602001908152602001600020905060008160000154119150505b919050565b600061101c826114ab565b611029576000905061104c565b600060056000848152602001908152602001600020905060008160000154119150505b919050565b611059612af6565b73ffffffffffffffffffffffffffffffffffffffff166110776114cb565b73ffffffffffffffffffffffffffffffffffffffff16146110cd576040517f08c379a00000000000000000000000000000000000000000000000000000000081526004016110c4906138ac565b60405180910390fd5b6110d76000612afe565b565b600080600060056000868152602001908152602001600020905060006001856111029190613d7a565b9050816005018160ff1660038110611143577f4e487b7100000000000000000000000000000000000000000000000000000000600052603260045260246000fd5b0154826008018260ff1660038110611184577f4e487b7100000000000000000000000000000000000000000000000000000000600052603260045260246000fd5b01549350935050509250929050565b60076020528060005260406000206000915090508060000154908060010154908060020160009054906101000a900473ffffffffffffffffffffffffffffffffffffffff16908060030160009054906101000a900473ffffffffffffffffffffffffffffffffffffffff16905084565b600060066000838152602001908152602001600020600101549050919050565b61122b612af6565b73ffffffffffffffffffffffffffffffffffffffff166112496114cb565b73ffffffffffffffffffffffffffffffffffffffff161461129f576040517f08c379a0000000000000000000000000000000000000000000000000000000008152600401611296906138ac565b60405180910390fd5b6112a8826108f8565b6112e7576040517f08c379a00000000000000000000000000000000000000000000000000000000081526004016112de906139cc565b60405180910390fd5b6112f0826108b8565b15611330576040517f08c379a00000000000000000000000000000000000000000000000000000000081526004016113279061384c565b60405180910390fd5b600073ffffffffffffffffffffffffffffffffffffffff168173ffffffffffffffffffffffffffffffffffffffff1614156113a0576040517f08c379a000000000000000000000000000000000000000000000000000000000815260040161139790613a0c565b60405180910390fd5b600060076000848152602001908152602001600020905060006005600085815260200190815260200160002090506000600660008681526020019081526020016000209050806003015482600c01546113f99190613c65565b8360000181905550806004015482600d01546114159190613c65565b8360010181905550838360020160006101000a81548173ffffffffffffffffffffffffffffffffffffffff021916908373ffffffffffffffffffffffffffffffffffffffff160217905550847f60afa5ab6adc0f801dd0d7ff74f06755027cf84a481d6485687ebd3e03f0f507846000015485600101548760405161149c93929190613a99565b60405180910390a25050505050565b600080821180156114c457506114c16001612bc2565b82105b9050919050565b60008060009054906101000a900473ffffffffffffffffffffffffffffffffffffffff16905090565b600560205280600052604060002060009150905080600001549080600101549080600b0160009054906101000a900473ffffffffffffffffffffffffffffffffffffffff169080600c01549080600d01549080600e0154905086565b6000806000600560008581526020019081526020016000209050806000015481600101549250925050915091565b60008060006005600085815260200190815260200160002090506000816008016002600381106115d7577f4e487b7100000000000000000000000000000000000000000000000000000000600052603260045260246000fd5b015482600801600160038110611616577f4e487b7100000000000000000000000000000000000000000000000000000000600052603260045260246000fd5b015483600801600060038110611655577f4e487b7100000000000000000000000000000000000000000000000000000000600052603260045260246000fd5b01546116619190613c65565b61166b9190613c65565b90506000826005016002600381106116ac577f4e487b7100000000000000000000000000000000000000000000000000000000600052603260045260246000fd5b0154836005016001600381106116eb577f4e487b7100000000000000000000000000000000000000000000000000000000600052603260045260246000fd5b01548460050160006003811061172a577f4e487b7100000000000000000000000000000000000000000000000000000000600052603260045260246000fd5b01546117369190613c65565b6117409190613c65565b9050818194509450505050915091565b60008060006006600085815260200190815260200160002090508060020154816003015461177e9190613cbb565b816002015482600401546117929190613cbb565b9250925050915091565b60006117a86001612bc2565b905090565b600060046000838152602001908152602001600020600101549050919050565b600060066000838152602001908152602001600020600201549050919050565b6000806000600560008581526020019081526020016000209050600081600501600260038110611846577f4e487b7100000000000000000000000000000000000000000000000000000000600052603260045260246000fd5b015482600501600160038110611885577f4e487b7100000000000000000000000000000000000000000000000000000000600052603260045260246000fd5b0154836005016000600381106118c4577f4e487b7100000000000000000000000000000000000000000000000000000000600052603260045260246000fd5b01546118d09190613c65565b6118da9190613c65565b90508082600c01546118ec9190613cbb565b8183600d01546118fc9190613cbb565b935093505050915091565b600080600060056000868152602001908152602001600020905060006001856119309190613d7a565b9050816002018160ff1660038110611971577f4e487b7100000000000000000000000000000000000000000000000000000000600052603260045260246000fd5b015482600b0160009054906101000a900473ffffffffffffffffffffffffffffffffffffffff169350935050509250929050565b6000600260009054906101000a900473ffffffffffffffffffffffffffffffffffffffff16905090565b600260009054906101000a900473ffffffffffffffffffffffffffffffffffffffff1681565b6119fd612af6565b73ffffffffffffffffffffffffffffffffffffffff16611a1b6114cb565b73ffffffffffffffffffffffffffffffffffffffff1614611a71576040517f08c379a0000000000000000000000000000000000000000000000000000000008152600401611a68906138ac565b60405180910390fd5b611a7a85610fd1565b611ab9576040517f08c379a0000000000000000000000000000000000000000000000000000000008152600401611ab0906137ac565b60405180910390fd5b611ac2856108f8565b15611b02576040517f08c379a0000000000000000000000000000000000000000000000000000000008152600401611af99061392c565b60405180910390fd5b600084118015611b125750600083115b8015611b1e5750600082115b8015611b2a5750600081115b611b69576040517f08c379a0000000000000000000000000000000000000000000000000000000008152600401611b60906139ac565b60405180910390fd5b60006005600087815260200190815260200160002090506000600660008881526020019081526020016000209050670de0b6b3a764000086611bab9190613cec565b82600c0181905550670de0b6b3a764000085611bc79190613cec565b82600d0181905550670de0b6b3a764000084611be39190613cec565b8160030181905550670de0b6b3a764000083611bff9190613cec565b8160040181905550611c1087612bd0565b81600d015482600c0154611c249190613cbb565b82600e0181905550867f8d67716b895b3219f5f07bc4c70dbf8696c6b38741ed7fb8cb34b80be675825987878787604051611c629493929190613bbc565b60405180910390a250505050505050565b611c7b612af6565b73ffffffffffffffffffffffffffffffffffffffff16611c996114cb565b73ffffffffffffffffffffffffffffffffffffffff1614611cef576040517f08c379a0000000000000000000000000000000000000000000000000000000008152600401611ce6906138ac565b60405180910390fd5b60008211611d32576040517f08c379a0000000000000000000000000000000000000000000000000000000008152600401611d2990613a0c565b60405180910390fd5b814210611d74576040517f08c379a0000000000000000000000000000000000000000000000000000000008152600401611d6b9061380c565b60405180910390fd5b818111611db6576040517f08c379a0000000000000000000000000000000000000000000000000000000008152600401611dad9061382c565b60405180910390fd5b6000611dc26001612bc2565b9050826004600083815260200190815260200160002060000181905550816004600083815260200190815260200160002060010181905550611e046001612ae0565b807fdf73b2c7803d688e4b8ab4ca91b7327d6a4ba9dccec9caaa12bab2a617fda1b58484604051611e36929190613a70565b60405180910390a2505050565b600360003373ffffffffffffffffffffffffffffffffffffffff1673ffffffffffffffffffffffffffffffffffffffff16815260200190815260200160002060009054906101000a900460ff16611ecf576040517f08c379a0000000000000000000000000000000000000000000000000000000008152600401611ec69061396c565b60405180910390fd5b60006005600084815260200190815260200160002090506000600183611ef59190613d7a565b9050816002018160ff1660038110611f36577f4e487b7100000000000000000000000000000000000000000000000000000000600052603260045260246000fd5b0154826005018260ff1660038110611f77577f4e487b7100000000000000000000000000000000000000000000000000000000600052603260045260246000fd5b0154611f839190613c65565b826005018260ff1660038110611fc2577f4e487b7100000000000000000000000000000000000000000000000000000000600052603260045260246000fd5b018190555050505050565b60036020528060005260406000206000915054906101000a900460ff1681565b611ff5612af6565b73ffffffffffffffffffffffffffffffffffffffff166120136114cb565b73ffffffffffffffffffffffffffffffffffffffff1614612069576040517f08c379a0000000000000000000000000000000000000000000000000000000008152600401612060906138ac565b60405180910390fd5b600073ffffffffffffffffffffffffffffffffffffffff168173ffffffffffffffffffffffffffffffffffffffff1614156120d9576040517f08c379a00000000000000000000000000000000000000000000000000000000081526004016120d090613a0c565b60405180910390fd5b8073ffffffffffffffffffffffffffffffffffffffff16600260009054906101000a900473ffffffffffffffffffffffffffffffffffffffff1673ffffffffffffffffffffffffffffffffffffffff16141561216a576040517f08c379a00000000000000000000000000000000000000000000000000000000081526004016121619061386c565b60405180910390fd5b80600260006101000a81548173ffffffffffffffffffffffffffffffffffffffff021916908373ffffffffffffffffffffffffffffffffffffffff1602179055508073ffffffffffffffffffffffffffffffffffffffff167f4cc9cc2c1c94b0f2a3403db2d1758433cbfa23312f4870c2a182918475ddcf0560405160405180910390a250565b6121f9612af6565b73ffffffffffffffffffffffffffffffffffffffff166122176114cb565b73ffffffffffffffffffffffffffffffffffffffff161461226d576040517f08c379a0000000000000000000000000000000000000000000000000000000008152600401612264906138ac565b60405180910390fd5b600073ffffffffffffffffffffffffffffffffffffffff168173ffffffffffffffffffffffffffffffffffffffff1614156122dd576040517f08c379a00000000000000000000000000000000000000000000000000000000081526004016122d490613a0c565b60405180910390fd5b600360008273ffffffffffffffffffffffffffffffffffffffff1673ffffffffffffffffffffffffffffffffffffffff16815260200190815260200160002060009054906101000a900460ff161561236a576040517f08c379a0000000000000000000000000000000000000000000000000000000008152600401612361906139ec565b60405180910390fd5b6001600360008373ffffffffffffffffffffffffffffffffffffffff1673ffffffffffffffffffffffffffffffffffffffff16815260200190815260200160002060006101000a81548160ff0219169083151502179055508073ffffffffffffffffffffffffffffffffffffffff167fa995c74341d87d6382e611e2f9439787e1d6c954ed0032d4402817eb78f225c860016040516124099190613751565b60405180910390a250565b61241c612af6565b73ffffffffffffffffffffffffffffffffffffffff1661243a6114cb565b73ffffffffffffffffffffffffffffffffffffffff1614612490576040517f08c379a0000000000000000000000000000000000000000000000000000000008152600401612487906138ac565b60405180910390fd5b600073ffffffffffffffffffffffffffffffffffffffff168173ffffffffffffffffffffffffffffffffffffffff161415612500576040517f08c379a00000000000000000000000000000000000000000000000000000000081526004016124f79061378c565b60405180910390fd5b61250981612afe565b50565b60046020528060005260406000206000915090508060000154908060010154905082565b612538612af6565b73ffffffffffffffffffffffffffffffffffffffff166125566114cb565b73ffffffffffffffffffffffffffffffffffffffff16146125ac576040517f08c379a00000000000000000000000000000000000000000000000000000000081526004016125a3906138ac565b60405180910390fd5b6125b5866114ab565b6125f4576040517f08c379a00000000000000000000000000000000000000000000000000000000081526004016125eb906137ec565b60405180910390fd5b60008511801561260357508442105b612642576040517f08c379a00000000000000000000000000000000000000000000000000000000081526004016126399061376c565b60405180910390fd5b6000841180156126525750838514155b801561265d57508385105b61269c576040517f08c379a00000000000000000000000000000000000000000000000000000000081526004016126939061394c565b60405180910390fd5b6000826000600381106126d8577f4e487b7100000000000000000000000000000000000000000000000000000000600052603260045260246000fd5b60200201351180156127285750600082600160038110612721577f4e487b7100000000000000000000000000000000000000000000000000000000600052603260045260246000fd5b6020020135115b8015612772575060008260026003811061276b577f4e487b7100000000000000000000000000000000000000000000000000000000600052603260045260246000fd5b6020020135115b6127b1576040517f08c379a00000000000000000000000000000000000000000000000000000000081526004016127a8906138cc565b60405180910390fd5b6000836000600381106127ed577f4e487b7100000000000000000000000000000000000000000000000000000000600052603260045260246000fd5b602002013511801561283d5750600083600160038110612836577f4e487b7100000000000000000000000000000000000000000000000000000000600052603260045260246000fd5b6020020135115b80156128875750600083600260038110612880577f4e487b7100000000000000000000000000000000000000000000000000000000600052603260045260246000fd5b6020020135115b6128c6576040517f08c379a00000000000000000000000000000000000000000000000000000000081526004016128bd906138ec565b60405180910390fd5b60006005600088815260200190815260200160002090506000816000015414612924576040517f08c379a000000000000000000000000000000000000000000000000000000000815260040161291b906139ec565b60405180910390fd5b60006004600089815260200190815260200160002060010154905060008111612982576040517f08c379a00000000000000000000000000000000000000000000000000000000081526004016129799061398c565b60405180910390fd5b8087116129c4576040517f08c379a00000000000000000000000000000000000000000000000000000000081526004016129bb9061390c565b60405180910390fd5b86826000018190555085826001018190555084826002019060036129e9929190612df6565b5083826008019060036129fd929190612df6565b508282600b0160006101000a81548173ffffffffffffffffffffffffffffffffffffffff021916908373ffffffffffffffffffffffffffffffffffffffff1602179055508273ffffffffffffffffffffffffffffffffffffffff16887f79bf20ae2c511f70496feccd088ed3e0f7d78cd75dccb90cf37f56d71b48bdee8989888a604051612a8e9493929190613b76565b60405180910390a35050505050505050565b60006007600083815260200190815260200160002060020160009054906101000a900473ffffffffffffffffffffffffffffffffffffffff169050919050565b6001816000016000828254019250508190555050565b600033905090565b60008060009054906101000a900473ffffffffffffffffffffffffffffffffffffffff169050816000806101000a81548173ffffffffffffffffffffffffffffffffffffffff021916908373ffffffffffffffffffffffffffffffffffffffff1602179055508173ffffffffffffffffffffffffffffffffffffffff168173ffffffffffffffffffffffffffffffffffffffff167f8be0079c531659141344cd1fd0a4f28419497f9722a3daafe3b4186f6b6457e060405160405180910390a35050565b600081600001549050919050565b600080612bdc8361157e565b809250819350505081811015612df15760006064670de0b6b3a764000084612c049190613cec565b612c0e9190613cbb565b670de0b6b3a76400008385612c239190613d46565b612c2d9190613cec565b612c379190613cbb565b90506000670de0b6b3a764000082606460056000898152602001908152602001600020600c0154612c689190613cbb565b612c729190613cec565b612c7c9190613cbb565b9050806006600087815260200190815260200160002060030154612ca09190613c65565b60066000878152602001908152602001600020600301819055508060056000878152602001908152602001600020600c0154612cdc9190613d46565b60056000878152602001908152602001600020600c01819055506000670de0b6b3a7640000836064600560008a8152602001908152602001600020600d0154612d259190613cbb565b612d2f9190613cec565b612d399190613cbb565b9050806006600088815260200190815260200160002060040154612d5d9190613c65565b60066000888152602001908152602001600020600401819055508060056000888152602001908152602001600020600d0154612d999190613d46565b60056000888152602001908152602001600020600d0181905550857f71ec9d9cd1e81b6a3bf984040de9a27a53102daf96a2a228dc77922f99799df08383604051612de5929190613a70565b60405180910390a25050505b505050565b8260038101928215612e25579160200282015b82811115612e24578235825591602001919060010190612e09565b5b509050612e329190612e36565b5090565b5b80821115612e4f576000816000905550600101612e37565b5090565b600081359050612e6281613e7d565b92915050565b600081905082602060030282011115612e8057600080fd5b92915050565b600081359050612e9581613e94565b92915050565b600081359050612eaa81613eab565b92915050565b600060208284031215612ec257600080fd5b6000612ed084828501612e53565b91505092915050565b600060208284031215612eeb57600080fd5b6000612ef984828501612e9b565b91505092915050565b60008060408385031215612f1557600080fd5b6000612f2385828601612e9b565b9250506020612f3485828601612e53565b9150509250929050565b60008060408385031215612f5157600080fd5b6000612f5f85828601612e9b565b9250506020612f7085828601612e86565b9150509250929050565b60008060408385031215612f8d57600080fd5b6000612f9b85828601612e9b565b9250506020612fac85828601612e9b565b9150509250929050565b600080600060608486031215612fcb57600080fd5b6000612fd986828701612e9b565b9350506020612fea86828701612e9b565b9250506040612ffb86828701612e9b565b9150509250925092565b600080600080600080610140878903121561301f57600080fd5b600061302d89828a01612e9b565b965050602061303e89828a01612e9b565b955050604061304f89828a01612e9b565b945050606061306089828a01612e68565b93505060c061307189828a01612e68565b92505061012061308389828a01612e53565b9150509295509295509295565b600080600080600060a086880312156130a857600080fd5b60006130b688828901612e9b565b95505060206130c788828901612e9b565b94505060406130d888828901612e9b565b93505060606130e988828901612e9b565b92505060806130fa88828901612e9b565b9150509295509295909350565b61311081613dae565b82525050565b61312260608383613e10565b5050565b61312f81613dc0565b82525050565b6000613142601e83613c54565b91507f4c69676874686f7573653a20494e56414c49445f53544152545f54494d4500006000830152602082019050919050565b6000613182602683613c54565b91507f4f776e61626c653a206e6577206f776e657220697320746865207a65726f206160008301527f64647265737300000000000000000000000000000000000000000000000000006020830152604082019050919050565b60006131e8601683613c54565b91507f4c69676874686f7573653a204e4f5f41554354494f4e000000000000000000006000830152602082019050919050565b6000613228601383613c54565b91507f4c69676874686f7573653a204e4f5f55534552000000000000000000000000006000830152602082019050919050565b6000613268601e83613c54565b91507f4c69676874686f7573653a20494e56414c49445f50524f4a4543545f494400006000830152602082019050919050565b60006132a8601783613c54565b91507f4c69676874686f7573653a2054494d455f5041535345440000000000000000006000830152602082019050919050565b60006132e8601e83613c54565b91507f4c69676874686f7573653a20494e434f52524543545f454e445f54494d4500006000830152602082019050919050565b6000613328601b83613c54565b91507f4c69676874686f7573653a20414c52454144595f5354415254454400000000006000830152602082019050919050565b6000613368601883613c54565b91507f4c69676874686f7573653a2053414d455f4144445245535300000000000000006000830152602082019050919050565b60006133a8601a83613c54565b91507f4c69676874686f7573653a204e4f5f50524546554e445f5945540000000000006000830152602082019050919050565b60006133e8602083613c54565b91507f4f776e61626c653a2063616c6c6572206973206e6f7420746865206f776e65726000830152602082019050919050565b6000613428601983613c54565b91507f4c69676874686f7573653a205a45524f5f504f4f4c5f434150000000000000006000830152602082019050919050565b6000613468601c83613c54565b91507f4c69676874686f7573653a205a45524f5f46495845445f5052494345000000006000830152602082019050919050565b60006134a8602383613c54565b91507f4c69676874686f7573653a204e4f5f524547495354524154494f4e5f454e445f60008301527f59455400000000000000000000000000000000000000000000000000000000006020830152604082019050919050565b600061350e601d83613c54565b91507f4c69676874686f7573653a20414c52454144595f494e495449415445440000006000830152602082019050919050565b600061354e601c83613c54565b91507f4c69676874686f7573653a20494e56414c49445f454e445f54494d45000000006000830152602082019050919050565b600061358e601583613c54565b91507f4c69676874686f7573653a20464f5242494444454e00000000000000000000006000830152602082019050919050565b60006135ce601f83613c54565b91507f4c69676874686f7573653a204e4f5f524547495354524154494f4e5f594554006000830152602082019050919050565b600061360e601a83613c54565b91507f4c69676874686f7573653a205a45524f5f504152414d455445520000000000006000830152602082019050919050565b600061364e602683613c54565b91507f4c69676874686f7573653a204e4f5f414c4c4f434154494f4e5f434f4d50454e60008301527f534154494f4e00000000000000000000000000000000000000000000000000006020830152604082019050919050565b60006136b4601983613c54565b91507f4c69676874686f7573653a20414c52454144595f4144444544000000000000006000830152602082019050919050565b60006136f4601883613c54565b91507f4c69676874686f7573653a205a45524f5f4144445245535300000000000000006000830152602082019050919050565b61373081613df9565b82525050565b600060208201905061374b6000830184613107565b92915050565b60006020820190506137666000830184613126565b92915050565b6000602082019050818103600083015261378581613135565b9050919050565b600060208201905081810360008301526137a581613175565b9050919050565b600060208201905081810360008301526137c5816131db565b9050919050565b600060208201905081810360008301526137e58161321b565b9050919050565b600060208201905081810360008301526138058161325b565b9050919050565b600060208201905081810360008301526138258161329b565b9050919050565b60006020820190508181036000830152613845816132db565b9050919050565b600060208201905081810360008301526138658161331b565b9050919050565b600060208201905081810360008301526138858161335b565b9050919050565b600060208201905081810360008301526138a58161339b565b9050919050565b600060208201905081810360008301526138c5816133db565b9050919050565b600060208201905081810360008301526138e58161341b565b9050919050565b600060208201905081810360008301526139058161345b565b9050919050565b600060208201905081810360008301526139258161349b565b9050919050565b6000602082019050818103600083015261394581613501565b9050919050565b6000602082019050818103600083015261396581613541565b9050919050565b6000602082019050818103600083015261398581613581565b9050919050565b600060208201905081810360008301526139a5816135c1565b9050919050565b600060208201905081810360008301526139c581613601565b9050919050565b600060208201905081810360008301526139e581613641565b9050919050565b60006020820190508181036000830152613a05816136a7565b9050919050565b60006020820190508181036000830152613a25816136e7565b9050919050565b6000602082019050613a416000830184613727565b92915050565b6000604082019050613a5c6000830185613727565b613a696020830184613107565b9392505050565b6000604082019050613a856000830185613727565b613a926020830184613727565b9392505050565b6000606082019050613aae6000830186613727565b613abb6020830185613727565b613ac86040830184613107565b949350505050565b6000608082019050613ae56000830187613727565b613af26020830186613727565b613aff6040830185613107565b613b0c6060830184613107565b95945050505050565b600060c082019050613b2a6000830189613727565b613b376020830188613727565b613b446040830187613107565b613b516060830186613727565b613b5e6080830185613727565b613b6b60a0830184613727565b979650505050505050565b600061010082019050613b8c6000830187613727565b613b996020830186613727565b613ba66040830185613116565b613bb360a0830184613116565b95945050505050565b6000608082019050613bd16000830187613727565b613bde6020830186613727565b613beb6040830185613727565b613bf86060830184613727565b95945050505050565b600060a082019050613c166000830188613727565b613c236020830187613727565b613c306040830186613727565b613c3d6060830185613727565b613c4a6080830184613727565b9695505050505050565b600082825260208201905092915050565b6000613c7082613df9565b9150613c7b83613df9565b9250827fffffffffffffffffffffffffffffffffffffffffffffffffffffffffffffffff03821115613cb057613caf613e1f565b5b828201905092915050565b6000613cc682613df9565b9150613cd183613df9565b925082613ce157613ce0613e4e565b5b828204905092915050565b6000613cf782613df9565b9150613d0283613df9565b9250817fffffffffffffffffffffffffffffffffffffffffffffffffffffffffffffffff0483118215151615613d3b57613d3a613e1f565b5b828202905092915050565b6000613d5182613df9565b9150613d5c83613df9565b925082821015613d6f57613d6e613e1f565b5b828203905092915050565b6000613d8582613e03565b9150613d9083613e03565b925082821015613da357613da2613e1f565b5b828203905092915050565b6000613db982613dd9565b9050919050565b60008115159050919050565b60008160000b9050919050565b600073ffffffffffffffffffffffffffffffffffffffff82169050919050565b6000819050919050565b600060ff82169050919050565b82818337600083830152505050565b7f4e487b7100000000000000000000000000000000000000000000000000000000600052601160045260246000fd5b7f4e487b7100000000000000000000000000000000000000000000000000000000600052601260045260246000fd5b613e8681613dae565b8114613e9157600080fd5b50565b613e9d81613dcc565b8114613ea857600080fd5b50565b613eb481613df9565b8114613ebf57600080fd5b5056fea2646970667358221220b875743c7e046fb94b5f2e320bb2417b82dd3aa8e1932d8989341e601a9289a564736f6c63430008000033",
  "linkReferences": {},
  "deployedLinkReferences": {}
}