{
  "_format": "hh-sol-artifact-1",
  "contractName": "LighthouseProject",
  "sourceName": "contracts/LighthouseProject.sol",
  "abi": [
    {
      "inputs": [
        {
          "internalType": "address",
          "name": "verifier",
          "type": "address"
        }
      ],
      "stateMutability": "nonpayable",
      "type": "constructor"
    },
    {
      "anonymous": false,
      "inputs": [
        {
          "indexed": true,
          "internalType": "uint256",
          "name": "id",
          "type": "uint256"
        },
        {
          "indexed": true,
          "internalType": "address",
          "name": "nftAddress",
          "type": "address"
        },
        {
          "indexed": false,
          "internalType": "uint256",
          "name": "prefundAllocation",
          "type": "uint256"
        },
        {
          "indexed": false,
          "internalType": "uint256",
          "name": "prefundCompensation",
          "type": "uint256"
        },
        {
          "indexed": false,
          "internalType": "uint256",
          "name": "auctionAllocation",
          "type": "uint256"
        },
        {
          "indexed": false,
          "internalType": "uint256",
          "name": "auctionCompensation",
          "type": "uint256"
        }
      ],
      "name": "InitAllocationCompensation",
      "type": "event"
    },
    {
      "anonymous": false,
      "inputs": [
        {
          "indexed": true,
          "internalType": "uint256",
          "name": "id",
          "type": "uint256"
        },
        {
          "indexed": false,
          "internalType": "uint256",
          "name": "startTime",
          "type": "uint256"
        },
        {
          "indexed": false,
          "internalType": "uint256",
          "name": "endTime",
          "type": "uint256"
        },
        {
          "indexed": false,
          "internalType": "uint16",
          "name": "giftAmount",
          "type": "uint16"
        }
      ],
      "name": "InitAuction",
      "type": "event"
    },
    {
      "anonymous": false,
      "inputs": [
        {
          "indexed": true,
          "internalType": "uint256",
          "name": "id",
          "type": "uint256"
        }
      ],
      "name": "InitMint",
      "type": "event"
    },
    {
      "anonymous": false,
      "inputs": [
        {
          "indexed": true,
          "internalType": "uint256",
          "name": "id",
          "type": "uint256"
        },
        {
          "indexed": true,
          "internalType": "address",
          "name": "token",
          "type": "address"
        },
        {
          "indexed": false,
          "internalType": "uint256",
          "name": "startTime",
          "type": "uint256"
        },
        {
          "indexed": false,
          "internalType": "uint256",
          "name": "endTime",
          "type": "uint256"
        },
        {
          "indexed": false,
          "internalType": "uint256[3]",
          "name": "pools",
          "type": "uint256[3]"
        },
        {
          "indexed": false,
          "internalType": "uint256[3]",
          "name": "investAmounts",
          "type": "uint256[3]"
        }
      ],
      "name": "InitPrefund",
      "type": "event"
    },
    {
      "anonymous": false,
      "inputs": [
        {
          "indexed": true,
          "internalType": "uint256",
          "name": "id",
          "type": "uint256"
        },
        {
          "indexed": false,
          "internalType": "uint256",
          "name": "startTime",
          "type": "uint256"
        },
        {
          "indexed": false,
          "internalType": "uint256",
          "name": "endTime",
          "type": "uint256"
        }
      ],
      "name": "InitRegistration",
      "type": "event"
    },
    {
      "anonymous": false,
      "inputs": [
        {
          "indexed": true,
          "internalType": "address",
          "name": "previousOwner",
          "type": "address"
        },
        {
          "indexed": true,
          "internalType": "address",
          "name": "newOwner",
          "type": "address"
        }
      ],
      "name": "OwnershipTransferred",
      "type": "event"
    },
    {
      "anonymous": false,
      "inputs": [
        {
          "indexed": true,
          "internalType": "address",
          "name": "user",
          "type": "address"
        },
        {
          "indexed": false,
          "internalType": "bool",
          "name": "allowed",
          "type": "bool"
        }
      ],
      "name": "ProjectEditor",
      "type": "event"
    },
    {
      "anonymous": false,
      "inputs": [
        {
          "indexed": true,
          "internalType": "address",
          "name": "verifier",
          "type": "address"
        }
      ],
      "name": "SetKYCVerifier",
      "type": "event"
    },
    {
      "anonymous": false,
      "inputs": [
        {
          "indexed": true,
          "internalType": "uint256",
          "name": "id",
          "type": "uint256"
        },
        {
          "indexed": true,
          "internalType": "address",
          "name": "pccAddress",
          "type": "address"
        }
      ],
      "name": "SetPCC",
      "type": "event"
    },
    {
      "anonymous": false,
      "inputs": [
        {
          "indexed": true,
          "internalType": "uint256",
          "name": "id",
          "type": "uint256"
        },
        {
          "indexed": false,
          "internalType": "uint256",
          "name": "scaledPrefundAmount",
          "type": "uint256"
        },
        {
          "indexed": false,
          "internalType": "uint256",
          "name": "scaledCompensationAmount",
          "type": "uint256"
        }
      ],
      "name": "TransferPrefund",
      "type": "event"
    },
    {
      "inputs": [
        {
          "internalType": "address",
          "name": "_user",
          "type": "address"
        }
      ],
      "name": "addEditor",
      "outputs": [],
      "stateMutability": "nonpayable",
      "type": "function"
    },
    {
      "inputs": [
        {
          "internalType": "uint256",
          "name": "id",
          "type": "uint256"
        }
      ],
      "name": "allocationCompensationInitialized",
      "outputs": [
        {
          "internalType": "bool",
          "name": "",
          "type": "bool"
        }
      ],
      "stateMutability": "view",
      "type": "function"
    },
    {
      "inputs": [
        {
          "internalType": "uint256",
          "name": "id",
          "type": "uint256"
        }
      ],
      "name": "auctionEndTime",
      "outputs": [
        {
          "internalType": "uint256",
          "name": "",
          "type": "uint256"
        }
      ],
      "stateMutability": "view",
      "type": "function"
    },
    {
      "inputs": [
        {
          "internalType": "uint256",
          "name": "id",
          "type": "uint256"
        }
      ],
      "name": "auctionGiftInfo",
      "outputs": [
        {
          "internalType": "uint16",
          "name": "",
          "type": "uint16"
        },
        {
          "internalType": "uint16",
          "name": "",
          "type": "uint16"
        }
      ],
      "stateMutability": "view",
      "type": "function"
    },
    {
      "inputs": [
        {
          "internalType": "uint256",
          "name": "id",
          "type": "uint256"
        }
      ],
      "name": "auctionInitialized",
      "outputs": [
        {
          "internalType": "bool",
          "name": "",
          "type": "bool"
        }
      ],
      "stateMutability": "view",
      "type": "function"
    },
    {
      "inputs": [
        {
          "internalType": "uint256",
          "name": "id",
          "type": "uint256"
        }
      ],
      "name": "auctionMinAmount",
      "outputs": [
        {
          "internalType": "uint256",
          "name": "",
          "type": "uint256"
        }
      ],
      "stateMutability": "view",
      "type": "function"
    },
    {
      "inputs": [
        {
          "internalType": "uint256",
          "name": "id",
          "type": "uint256"
        }
      ],
      "name": "auctionScaledUnit",
      "outputs": [
        {
          "internalType": "uint256",
          "name": "",
          "type": "uint256"
        },
        {
          "internalType": "uint256",
          "name": "",
          "type": "uint256"
        }
      ],
      "stateMutability": "view",
      "type": "function"
    },
    {
      "inputs": [
        {
          "internalType": "uint256",
          "name": "id",
          "type": "uint256"
        }
      ],
      "name": "auctionTimeInfo",
      "outputs": [
        {
          "internalType": "uint256",
          "name": "",
          "type": "uint256"
        },
        {
          "internalType": "uint256",
          "name": "",
          "type": "uint256"
        }
      ],
      "stateMutability": "view",
      "type": "function"
    },
    {
      "inputs": [
        {
          "internalType": "uint256",
          "name": "id",
          "type": "uint256"
        }
      ],
      "name": "auctionTotalPool",
      "outputs": [
        {
          "internalType": "uint256",
          "name": "",
          "type": "uint256"
        }
      ],
      "stateMutability": "view",
      "type": "function"
    },
    {
      "inputs": [
        {
          "internalType": "uint256",
          "name": "",
          "type": "uint256"
        }
      ],
      "name": "auctions",
      "outputs": [
        {
          "internalType": "uint256",
          "name": "startTime",
          "type": "uint256"
        },
        {
          "internalType": "uint256",
          "name": "endTime",
          "type": "uint256"
        },
        {
          "internalType": "uint256",
          "name": "spent",
          "type": "uint256"
        },
        {
          "internalType": "uint256",
          "name": "scaledAllocation",
          "type": "uint256"
        },
        {
          "internalType": "uint256",
          "name": "scaledCompensation",
          "type": "uint256"
        },
        {
          "internalType": "bool",
          "name": "transferredPrefund",
          "type": "bool"
        },
        {
          "internalType": "uint16",
          "name": "gifted",
          "type": "uint16"
        },
        {
          "internalType": "uint16",
          "name": "giftAmount",
          "type": "uint16"
        },
        {
          "internalType": "uint256",
          "name": "min",
          "type": "uint256"
        }
      ],
      "stateMutability": "view",
      "type": "function"
    },
    {
      "inputs": [
        {
          "internalType": "uint256",
          "name": "id",
          "type": "uint256"
        },
        {
          "internalType": "uint256",
          "name": "amount",
          "type": "uint256"
        }
      ],
      "name": "collectAuctionAmount",
      "outputs": [],
      "stateMutability": "nonpayable",
      "type": "function"
    },
    {
      "inputs": [
        {
          "internalType": "uint256",
          "name": "id",
          "type": "uint256"
        },
        {
          "internalType": "int8",
          "name": "tier",
          "type": "int8"
        }
      ],
      "name": "collectPrefundInvestment",
      "outputs": [],
      "stateMutability": "nonpayable",
      "type": "function"
    },
    {
      "inputs": [
        {
          "internalType": "address",
          "name": "_user",
          "type": "address"
        }
      ],
      "name": "deleteEditor",
      "outputs": [],
      "stateMutability": "nonpayable",
      "type": "function"
    },
    {
      "inputs": [
        {
          "internalType": "address",
          "name": "",
          "type": "address"
        }
      ],
      "name": "editors",
      "outputs": [
        {
          "internalType": "bool",
          "name": "",
          "type": "bool"
        }
      ],
      "stateMutability": "view",
      "type": "function"
    },
    {
      "inputs": [],
      "name": "getKYCVerifier",
      "outputs": [
        {
          "internalType": "address",
          "name": "",
          "type": "address"
        }
      ],
      "stateMutability": "view",
      "type": "function"
    },
    {
      "inputs": [
        {
          "internalType": "uint256",
          "name": "id",
          "type": "uint256"
        },
        {
          "internalType": "uint256",
          "name": "prefundAllocation",
          "type": "uint256"
        },
        {
          "internalType": "uint256",
          "name": "prefundCompensation",
          "type": "uint256"
        },
        {
          "internalType": "uint256",
          "name": "auctionAllocation",
          "type": "uint256"
        },
        {
          "internalType": "uint256",
          "name": "auctionCompensation",
          "type": "uint256"
        },
        {
          "internalType": "address",
          "name": "nftAddress",
          "type": "address"
        }
      ],
      "name": "initAllocationCompensation",
      "outputs": [],
      "stateMutability": "nonpayable",
      "type": "function"
    },
    {
      "inputs": [
        {
          "internalType": "uint256",
          "name": "id",
          "type": "uint256"
        },
        {
          "internalType": "uint256",
          "name": "startTime",
          "type": "uint256"
        },
        {
          "internalType": "uint256",
          "name": "endTime",
          "type": "uint256"
        },
        {
          "internalType": "uint256",
          "name": "min",
          "type": "uint256"
        },
        {
          "internalType": "uint16",
          "name": "giftAmount",
          "type": "uint16"
        }
      ],
      "name": "initAuction",
      "outputs": [],
      "stateMutability": "nonpayable",
      "type": "function"
    },
    {
      "inputs": [
        {
          "internalType": "uint256",
          "name": "id",
          "type": "uint256"
        }
      ],
      "name": "initMinting",
      "outputs": [],
      "stateMutability": "nonpayable",
      "type": "function"
    },
    {
      "inputs": [
        {
          "internalType": "uint256",
          "name": "id",
          "type": "uint256"
        },
        {
          "internalType": "uint256",
          "name": "startTime",
          "type": "uint256"
        },
        {
          "internalType": "uint256",
          "name": "endTime",
          "type": "uint256"
        },
        {
          "internalType": "uint256[3]",
          "name": "investAmounts",
          "type": "uint256[3]"
        },
        {
          "internalType": "uint256[3]",
          "name": "pools",
          "type": "uint256[3]"
        },
        {
          "internalType": "address",
          "name": "_token",
          "type": "address"
        }
      ],
      "name": "initPrefund",
      "outputs": [],
      "stateMutability": "nonpayable",
      "type": "function"
    },
    {
      "inputs": [
        {
          "internalType": "uint256",
          "name": "startTime",
          "type": "uint256"
        },
        {
          "internalType": "uint256",
          "name": "endTime",
          "type": "uint256"
        }
      ],
      "name": "initRegistration",
      "outputs": [],
      "stateMutability": "nonpayable",
      "type": "function"
    },
    {
      "inputs": [],
      "name": "kycVerifier",
      "outputs": [
        {
          "internalType": "address",
          "name": "",
          "type": "address"
        }
      ],
      "stateMutability": "view",
      "type": "function"
    },
    {
      "inputs": [
        {
          "internalType": "uint256",
          "name": "id",
          "type": "uint256"
        }
      ],
      "name": "mintInitialized",
      "outputs": [
        {
          "internalType": "bool",
          "name": "",
          "type": "bool"
        }
      ],
      "stateMutability": "view",
      "type": "function"
    },
    {
      "inputs": [
        {
          "internalType": "uint256",
          "name": "",
          "type": "uint256"
        }
      ],
      "name": "mintable",
      "outputs": [
        {
          "internalType": "bool",
          "name": "",
          "type": "bool"
        }
      ],
      "stateMutability": "view",
      "type": "function"
    },
    {
      "inputs": [
        {
          "internalType": "uint256",
          "name": "id",
          "type": "uint256"
        }
      ],
      "name": "nft",
      "outputs": [
        {
          "internalType": "address",
          "name": "",
          "type": "address"
        }
      ],
      "stateMutability": "view",
      "type": "function"
    },
    {
      "inputs": [
        {
          "internalType": "uint256",
          "name": "",
          "type": "uint256"
        }
      ],
      "name": "nfts",
      "outputs": [
        {
          "internalType": "address",
          "name": "",
          "type": "address"
        }
      ],
      "stateMutability": "view",
      "type": "function"
    },
    {
      "inputs": [],
      "name": "owner",
      "outputs": [
        {
          "internalType": "address",
          "name": "",
          "type": "address"
        }
      ],
      "stateMutability": "view",
      "type": "function"
    },
    {
      "inputs": [
        {
          "internalType": "uint256",
          "name": "id",
          "type": "uint256"
        }
      ],
      "name": "pcc",
      "outputs": [
        {
          "internalType": "address",
          "name": "",
          "type": "address"
        }
      ],
      "stateMutability": "view",
      "type": "function"
    },
    {
      "inputs": [
        {
          "internalType": "uint256",
          "name": "",
          "type": "uint256"
        }
      ],
      "name": "pccs",
      "outputs": [
        {
          "internalType": "address",
          "name": "",
          "type": "address"
        }
      ],
      "stateMutability": "view",
      "type": "function"
    },
    {
      "inputs": [
        {
          "internalType": "uint256",
          "name": "id",
          "type": "uint256"
        }
      ],
      "name": "prefundEndTime",
      "outputs": [
        {
          "internalType": "uint256",
          "name": "",
          "type": "uint256"
        }
      ],
      "stateMutability": "view",
      "type": "function"
    },
    {
      "inputs": [
        {
          "internalType": "uint256",
          "name": "id",
          "type": "uint256"
        }
      ],
      "name": "prefundInitialized",
      "outputs": [
        {
          "internalType": "bool",
          "name": "",
          "type": "bool"
        }
      ],
      "stateMutability": "view",
      "type": "function"
    },
    {
      "inputs": [
        {
          "internalType": "uint256",
          "name": "id",
          "type": "uint256"
        },
        {
          "internalType": "int8",
          "name": "tier",
          "type": "int8"
        }
      ],
      "name": "prefundInvestAmount",
      "outputs": [
        {
          "internalType": "uint256",
          "name": "",
          "type": "uint256"
        },
        {
          "internalType": "address",
          "name": "",
          "type": "address"
        }
      ],
      "stateMutability": "view",
      "type": "function"
    },
    {
      "inputs": [
        {
          "internalType": "uint256",
          "name": "id",
          "type": "uint256"
        },
        {
          "internalType": "int8",
          "name": "tier",
          "type": "int8"
        }
      ],
      "name": "prefundPoolInfo",
      "outputs": [
        {
          "internalType": "uint256",
          "name": "",
          "type": "uint256"
        },
        {
          "internalType": "uint256",
          "name": "",
          "type": "uint256"
        }
      ],
      "stateMutability": "view",
      "type": "function"
    },
    {
      "inputs": [
        {
          "internalType": "uint256",
          "name": "id",
          "type": "uint256"
        }
      ],
      "name": "prefundScaledUnit",
      "outputs": [
        {
          "internalType": "uint256",
          "name": "",
          "type": "uint256"
        },
        {
          "internalType": "uint256",
          "name": "",
          "type": "uint256"
        }
      ],
      "stateMutability": "view",
      "type": "function"
    },
    {
      "inputs": [
        {
          "internalType": "uint256",
          "name": "id",
          "type": "uint256"
        }
      ],
      "name": "prefundTimeInfo",
      "outputs": [
        {
          "internalType": "uint256",
          "name": "",
          "type": "uint256"
        },
        {
          "internalType": "uint256",
          "name": "",
          "type": "uint256"
        }
      ],
      "stateMutability": "view",
      "type": "function"
    },
    {
      "inputs": [
        {
          "internalType": "uint256",
          "name": "id",
          "type": "uint256"
        }
      ],
      "name": "prefundTotalPool",
      "outputs": [
        {
          "internalType": "uint256",
          "name": "",
          "type": "uint256"
        },
        {
          "internalType": "uint256",
          "name": "",
          "type": "uint256"
        }
      ],
      "stateMutability": "view",
      "type": "function"
    },
    {
      "inputs": [
        {
          "internalType": "uint256",
          "name": "",
          "type": "uint256"
        }
      ],
      "name": "prefunds",
      "outputs": [
        {
          "internalType": "uint256",
          "name": "startTime",
          "type": "uint256"
        },
        {
          "internalType": "uint256",
          "name": "endTime",
          "type": "uint256"
        },
        {
          "internalType": "address",
          "name": "token",
          "type": "address"
        },
        {
          "internalType": "uint256",
          "name": "scaledAllocation",
          "type": "uint256"
        },
        {
          "internalType": "uint256",
          "name": "scaledCompensation",
          "type": "uint256"
        }
      ],
      "stateMutability": "view",
      "type": "function"
    },
    {
      "inputs": [
        {
          "internalType": "uint256",
          "name": "id",
          "type": "uint256"
        }
      ],
      "name": "registrationEndTime",
      "outputs": [
        {
          "internalType": "uint256",
          "name": "",
          "type": "uint256"
        }
      ],
      "stateMutability": "view",
      "type": "function"
    },
    {
      "inputs": [
        {
          "internalType": "uint256",
          "name": "id",
          "type": "uint256"
        }
      ],
      "name": "registrationInfo",
      "outputs": [
        {
          "internalType": "uint256",
          "name": "",
          "type": "uint256"
        },
        {
          "internalType": "uint256",
          "name": "",
          "type": "uint256"
        }
      ],
      "stateMutability": "view",
      "type": "function"
    },
    {
      "inputs": [
        {
          "internalType": "uint256",
          "name": "id",
          "type": "uint256"
        }
      ],
      "name": "registrationInitialized",
      "outputs": [
        {
          "internalType": "bool",
          "name": "",
          "type": "bool"
        }
      ],
      "stateMutability": "view",
      "type": "function"
    },
    {
      "inputs": [
        {
          "internalType": "uint256",
          "name": "",
          "type": "uint256"
        }
      ],
      "name": "registrations",
      "outputs": [
        {
          "internalType": "uint256",
          "name": "startTime",
          "type": "uint256"
        },
        {
          "internalType": "uint256",
          "name": "endTime",
          "type": "uint256"
        }
      ],
      "stateMutability": "view",
      "type": "function"
    },
    {
      "inputs": [],
      "name": "renounceOwnership",
      "outputs": [],
      "stateMutability": "nonpayable",
      "type": "function"
    },
    {
      "inputs": [
        {
          "internalType": "address",
          "name": "verifier",
          "type": "address"
        }
      ],
      "name": "setKYCVerifier",
      "outputs": [],
      "stateMutability": "nonpayable",
      "type": "function"
    },
    {
      "inputs": [
        {
          "internalType": "uint256",
          "name": "id",
          "type": "uint256"
        },
        {
          "internalType": "address",
          "name": "pccAddress",
          "type": "address"
        }
      ],
      "name": "setPcc",
      "outputs": [],
      "stateMutability": "nonpayable",
      "type": "function"
    },
    {
      "inputs": [],
      "name": "totalProjects",
      "outputs": [
        {
          "internalType": "uint256",
          "name": "",
          "type": "uint256"
        }
      ],
      "stateMutability": "view",
      "type": "function"
    },
    {
      "inputs": [
        {
          "internalType": "address",
          "name": "newOwner",
          "type": "address"
        }
      ],
      "name": "transferOwnership",
      "outputs": [],
      "stateMutability": "nonpayable",
      "type": "function"
    },
    {
      "inputs": [
        {
          "internalType": "uint256",
          "name": "id",
          "type": "uint256"
        }
      ],
      "name": "transferPrefund",
      "outputs": [],
      "stateMutability": "nonpayable",
      "type": "function"
    },
    {
      "inputs": [
        {
          "internalType": "uint256",
          "name": "id",
          "type": "uint256"
        }
      ],
      "name": "transferredPrefund",
      "outputs": [
        {
          "internalType": "bool",
          "name": "",
          "type": "bool"
        }
      ],
      "stateMutability": "view",
      "type": "function"
    },
    {
      "inputs": [
        {
          "internalType": "address",
          "name": "",
          "type": "address"
        }
      ],
      "name": "usedNfts",
      "outputs": [
        {
          "internalType": "uint256",
          "name": "",
          "type": "uint256"
        }
      ],
      "stateMutability": "view",
      "type": "function"
    },
    {
      "inputs": [
        {
          "internalType": "address",
          "name": "",
          "type": "address"
        }
      ],
      "name": "usedPccs",
      "outputs": [
        {
          "internalType": "uint256",
          "name": "",
          "type": "uint256"
        }
      ],
      "stateMutability": "view",
      "type": "function"
    },
    {
      "inputs": [
        {
          "internalType": "uint256",
          "name": "id",
          "type": "uint256"
        }
      ],
      "name": "validProjectId",
      "outputs": [
        {
          "internalType": "bool",
          "name": "",
          "type": "bool"
        }
      ],
      "stateMutability": "view",
      "type": "function"
    }
  ],
  "bytecode": "0x60806040523480156200001157600080fd5b5060405162004e0038038062004e008339818101604052810190620000379190620003c5565b620000576200004b6200008660201b60201c565b6200008e60201b60201c565b62000068816200015260201b60201c565b6200007f60016200036f60201b6200352a1760201c565b506200057c565b600033905090565b60008060009054906101000a900473ffffffffffffffffffffffffffffffffffffffff169050816000806101000a81548173ffffffffffffffffffffffffffffffffffffffff021916908373ffffffffffffffffffffffffffffffffffffffff1602179055508173ffffffffffffffffffffffffffffffffffffffff168173ffffffffffffffffffffffffffffffffffffffff167f8be0079c531659141344cd1fd0a4f28419497f9722a3daafe3b4186f6b6457e060405160405180910390a35050565b620001626200008660201b60201c565b73ffffffffffffffffffffffffffffffffffffffff16620001886200038560201b60201c565b73ffffffffffffffffffffffffffffffffffffffff1614620001e1576040517f08c379a0000000000000000000000000000000000000000000000000000000008152600401620001d890620004d9565b60405180910390fd5b600073ffffffffffffffffffffffffffffffffffffffff168173ffffffffffffffffffffffffffffffffffffffff16141562000254576040517f08c379a00000000000000000000000000000000000000000000000000000000081526004016200024b90620004fb565b60405180910390fd5b8073ffffffffffffffffffffffffffffffffffffffff16600260009054906101000a900473ffffffffffffffffffffffffffffffffffffffff1673ffffffffffffffffffffffffffffffffffffffff161415620002e8576040517f08c379a0000000000000000000000000000000000000000000000000000000008152600401620002df90620004b7565b60405180910390fd5b80600260006101000a81548173ffffffffffffffffffffffffffffffffffffffff021916908373ffffffffffffffffffffffffffffffffffffffff1602179055508073ffffffffffffffffffffffffffffffffffffffff167f4cc9cc2c1c94b0f2a3403db2d1758433cbfa23312f4870c2a182918475ddcf0560405160405180910390a250565b6001816000016000828254019250508190555050565b60008060009054906101000a900473ffffffffffffffffffffffffffffffffffffffff16905090565b600081519050620003bf8162000562565b92915050565b600060208284031215620003d857600080fd5b6000620003e884828501620003ae565b91505092915050565b6000620004006018836200051d565b91507f4c69676874686f7573653a2053414d455f4144445245535300000000000000006000830152602082019050919050565b6000620004426020836200051d565b91507f4f776e61626c653a2063616c6c6572206973206e6f7420746865206f776e65726000830152602082019050919050565b6000620004846018836200051d565b91507f4c69676874686f7573653a205a45524f5f4144445245535300000000000000006000830152602082019050919050565b60006020820190508181036000830152620004d281620003f1565b9050919050565b60006020820190508181036000830152620004f48162000433565b9050919050565b60006020820190508181036000830152620005168162000475565b9050919050565b600082825260208201905092915050565b60006200053b8262000542565b9050919050565b600073ffffffffffffffffffffffffffffffffffffffff82169050919050565b6200056d816200052e565b81146200057957600080fd5b50565b614874806200058c6000396000f3fe608060405234801561001057600080fd5b50600436106102d65760003560e01c80639922a1d511610182578063b937e7cc116100e9578063e5975bdc116100a2578063f8285d381161007c578063f8285d3814610a5b578063fb20d98f14610a77578063fb50024714610a93578063fbbec19514610aaf576102d6565b8063e5975bdc146109f2578063f2fde38b14610a0e578063f4ddb5be14610a2a576102d6565b8063b937e7cc14610934578063be27db0014610952578063c82189e01461096e578063cd52844d1461098a578063d0b0f392146109ba578063d17f6417146109d6576102d6565b8063ad76dfca1161013b578063ad76dfca14610823578063ae9d403a14610854578063b22e912b14610884578063b47e9f3e146108b4578063b5f5cf70146108e5578063b60da08514610916576102d6565b80639922a1d5146107145780639c361e4e146107455780639d0214cb14610763578063a5045a1614610793578063a5803972146107c3578063a84b0692146107f3576102d6565b8063571a26a011610241578063777de704116101fa5780638da5cb5b116101d45780638da5cb5b146106605780638de6a11a1461067e5780638ee2a6d1146106b2578063943df315146106e3576102d6565b8063777de704146105d0578063835db322146106005780638d7365a914610630576102d6565b8063571a26a0146104e157806364507efc146105195780636592b724146105495780636c5dde9c14610579578063715018a614610595578063748028571461059f576102d6565b80632693b12c116102935780632693b12c146103fc5780633e2a6b591461042d5780634005c3df1461044957806341e0f1b114610479578063428ba89314610495578063451bf0d3146104c5576102d6565b8063016e3472146102db57806305b576e31461030b5780630f7849431461033b5780631b4ead451461036b57806324d2cb171461039b578063265aa621146103cc575b600080fd5b6102f560048036038101906102f091906136e9565b610adf565b6040516103029190614371565b60405180910390f35b61032560048036038101906103209190613712565b610af7565b6040516103329190614371565b60405180910390f35b61035560048036038101906103509190613712565b610b17565b604051610362919061402d565b60405180910390f35b61038560048036038101906103809190613712565b610b37565b604051610392919061402d565b60405180910390f35b6103b560048036038101906103b09190613712565b610b9f565b6040516103c39291906143b5565b60405180910390f35b6103e660048036038101906103e19190613712565b610bcd565b6040516103f39190614012565b60405180910390f35b61041660048036038101906104119190613712565b610c00565b6040516104249291906143b5565b60405180910390f35b61044760048036038101906104429190613712565b610c2e565b005b610463600480360381019061045e91906136e9565b610daf565b6040516104709190614371565b60405180910390f35b610493600480360381019061048e91906137b3565b610dc7565b005b6104af60048036038101906104aa9190613712565b610ef9565b6040516104bc919061402d565b60405180910390f35b6104df60048036038101906104da919061373b565b610f39565b005b6104fb60048036038101906104f69190613712565b6111cd565b604051610510999897969594939291906144f3565b60405180910390f35b610533600480360381019061052e9190613712565b611244565b604051610540919061402d565b60405180910390f35b610563600480360381019061055e9190613712565b611284565b604051610570919061402d565b60405180910390f35b610593600480360381019061058e919061387a565b6112c4565b005b61059d611589565b005b6105b960048036038101906105b49190613777565b611611565b6040516105c79291906143b5565b60405180910390f35b6105ea60048036038101906105e59190613712565b6116cb565b6040516105f79190614371565b60405180910390f35b61061a60048036038101906106159190613712565b6116eb565b604051610627919061402d565b60405180910390f35b61064a60048036038101906106459190613712565b611715565b604051610657919061402d565b60405180910390f35b610668611735565b6040516106759190614012565b60405180910390f35b61069860048036038101906106939190613712565b61175e565b6040516106a99594939291906143de565b60405180910390f35b6106cc60048036038101906106c79190613712565b6117b4565b6040516106da9291906143b5565b60405180910390f35b6106fd60048036038101906106f89190613712565b6117e2565b60405161070b9291906143b5565b60405180910390f35b61072e60048036038101906107299190613712565b6119b4565b60405161073c9291906143b5565b60405180910390f35b61074d611a00565b60405161075a9190614371565b60405180910390f35b61077d60048036038101906107789190613712565b611a1d565b60405161078a9190614012565b60405180910390f35b6107ad60048036038101906107a89190613712565b611a5a565b6040516107ba9190614012565b60405180910390f35b6107dd60048036038101906107d89190613712565b611a97565b6040516107ea9190614012565b60405180910390f35b61080d60048036038101906108089190613712565b611aca565b60405161081a9190614371565b60405180910390f35b61083d60048036038101906108389190613712565b611aea565b60405161084b929190614348565b60405180910390f35b61086e60048036038101906108699190613712565b611b34565b60405161087b9190614371565b60405180910390f35b61089e60048036038101906108999190613712565b611b54565b6040516108ab919061402d565b60405180910390f35b6108ce60048036038101906108c99190613712565b611b81565b6040516108dc9291906143b5565b60405180910390f35b6108ff60048036038101906108fa9190613777565b611c9b565b60405161090d92919061438c565b60405180910390f35b61091e611d39565b60405161092b9190614012565b60405180910390f35b61093c611d63565b6040516109499190614012565b60405180910390f35b61096c600480360381019061096791906137b3565b611d89565b005b61098860048036038101906109839190613777565b611f16565b005b6109a4600480360381019061099f91906136e9565b6120a0565b6040516109b1919061402d565b60405180910390f35b6109d460048036038101906109cf9190613712565b6120c0565b005b6109f060048036038101906109eb91906136e9565b612460565b005b610a0c6004803603810190610a0791906136e9565b612664565b005b610a286004803603810190610a2391906136e9565b612887565b005b610a446004803603810190610a3f9190613712565b61297f565b604051610a529291906143b5565b60405180910390f35b610a756004803603810190610a7091906137ef565b6129a3565b005b610a916004803603810190610a8c91906136e9565b612eef565b005b610aad6004803603810190610aa891906138f1565b613111565b005b610ac96004803603810190610ac49190613712565b61350a565b604051610ad69190614371565b60405180910390f35b600b6020528060005260406000206000915090505481565b600060056000838152602001908152602001600020600101549050919050565b60076020528060005260406000206000915054906101000a900460ff1681565b6000610b4282611715565b610b4f5760009050610b9a565b60006005600084815260200190815260200160002090506000600660008581526020019081526020016000209050600082600c0154118015610b95575060008160030154115b925050505b919050565b6000806000600660008581526020019081526020016000209050806000015481600101549250925050915091565b60086020528060005260406000206000915054906101000a900473ffffffffffffffffffffffffffffffffffffffff1681565b6000806000600460008581526020019081526020016000209050806000015481600101549250925050915091565b610c36613540565b73ffffffffffffffffffffffffffffffffffffffff16610c54611735565b73ffffffffffffffffffffffffffffffffffffffff1614610caa576040517f08c379a0000000000000000000000000000000000000000000000000000000008152600401610ca1906141c8565b60405180910390fd5b610cb381611715565b610cf2576040517f08c379a0000000000000000000000000000000000000000000000000000000008152600401610ce990614108565b60405180910390fd5b6007600082815260200190815260200160002060009054906101000a900460ff1615610d53576040517f08c379a0000000000000000000000000000000000000000000000000000000008152600401610d4a90614168565b60405180910390fd5b60016007600083815260200190815260200160002060006101000a81548160ff021916908315150217905550807f51ff5cb12e078f374fcf678227d813efbc85de5e628114361e3f170884d9186260405160405180910390a250565b60096020528060005260406000206000915090505481565b600360003373ffffffffffffffffffffffffffffffffffffffff1673ffffffffffffffffffffffffffffffffffffffff16815260200190815260200160002060009054906101000a900460ff16610e53576040517f08c379a0000000000000000000000000000000000000000000000000000000008152600401610e4a906142a8565b60405180910390fd5b6000600660008481526020019081526020016000209050818160020154610e7a9190614591565b81600201819055508060050160039054906101000a900461ffff1661ffff168160050160019054906101000a900461ffff1661ffff161015610ef45780600501600181819054906101000a900461ffff1680929190610ed890614759565b91906101000a81548161ffff021916908361ffff160217905550505b505050565b6000610f0482611715565b610f115760009050610f34565b600060046000848152602001908152602001600020905060008160000154119150505b919050565b610f41613540565b73ffffffffffffffffffffffffffffffffffffffff16610f5f611735565b73ffffffffffffffffffffffffffffffffffffffff1614610fb5576040517f08c379a0000000000000000000000000000000000000000000000000000000008152600401610fac906141c8565b60405180910390fd5b610fbe82611715565b610ffd576040517f08c379a0000000000000000000000000000000000000000000000000000000008152600401610ff490614108565b60405180910390fd5b600073ffffffffffffffffffffffffffffffffffffffff168173ffffffffffffffffffffffffffffffffffffffff16141561106d576040517f08c379a000000000000000000000000000000000000000000000000000000000815260040161106490614328565b60405180910390fd5b6000600b60008373ffffffffffffffffffffffffffffffffffffffff1673ffffffffffffffffffffffffffffffffffffffff16815260200190815260200160002054146110ef576040517f08c379a00000000000000000000000000000000000000000000000000000000081526004016110e690614208565b60405180910390fd5b80600a600084815260200190815260200160002060006101000a81548173ffffffffffffffffffffffffffffffffffffffff021916908373ffffffffffffffffffffffffffffffffffffffff16021790555081600b60008373ffffffffffffffffffffffffffffffffffffffff1673ffffffffffffffffffffffffffffffffffffffff168152602001908152602001600020819055508073ffffffffffffffffffffffffffffffffffffffff16827f246302e498f32cefcdb2816520646b24be648dc6bd68adea9f865c4029d82a0960405160405180910390a35050565b60066020528060005260406000206000915090508060000154908060010154908060020154908060030154908060040154908060050160009054906101000a900460ff16908060050160019054906101000a900461ffff16908060050160039054906101000a900461ffff16908060060154905089565b600061124f82611715565b61125c576000905061127f565b600060066000848152602001908152602001600020905060008160000154119150505b919050565b600061128f82611715565b61129c57600090506112bf565b600060056000848152602001908152602001600020905060008160000154119150505b919050565b6112cc613540565b73ffffffffffffffffffffffffffffffffffffffff166112ea611735565b73ffffffffffffffffffffffffffffffffffffffff1614611340576040517f08c379a0000000000000000000000000000000000000000000000000000000008152600401611337906141c8565b60405180910390fd5b61134985611715565b611388576040517f08c379a000000000000000000000000000000000000000000000000000000000815260040161137f90614108565b60405180910390fd5b8342106113ca576040517f08c379a00000000000000000000000000000000000000000000000000000000081526004016113c190614048565b60405180910390fd5b82841061140c576040517f08c379a000000000000000000000000000000000000000000000000000000000815260040161140390614288565b60405180910390fd5b6000600660008781526020019081526020016000209050600081600001541461146a576040517f08c379a000000000000000000000000000000000000000000000000000000000815260040161146190614308565b60405180910390fd5b600060056000888152602001908152602001600020600101549050600081116114c8576040517f08c379a00000000000000000000000000000000000000000000000000000000081526004016114bf906141a8565b60405180910390fd5b80861161150a576040517f08c379a000000000000000000000000000000000000000000000000000000000815260040161150190614248565b60405180910390fd5b858260000181905550848260010181905550828260050160036101000a81548161ffff021916908361ffff160217905550838260060181905550867fa1d31d40b0f5bb204825ac573e9e02945d6d92c499b507f61901bdbcbcfea85d87878660405161157893929190614477565b60405180910390a250505050505050565b611591613540565b73ffffffffffffffffffffffffffffffffffffffff166115af611735565b73ffffffffffffffffffffffffffffffffffffffff1614611605576040517f08c379a00000000000000000000000000000000000000000000000000000000081526004016115fc906141c8565b60405180910390fd5b61160f6000613548565b565b6000806000600560008681526020019081526020016000209050600060018561163a91906146a6565b9050816005018160ff166003811061167b577f4e487b7100000000000000000000000000000000000000000000000000000000600052603260045260246000fd5b0154826008018260ff16600381106116bc577f4e487b7100000000000000000000000000000000000000000000000000000000600052603260045260246000fd5b01549350935050509250929050565b600060066000838152602001908152602001600020600101549050919050565b60006007600083815260200190815260200160002060009054906101000a900460ff169050919050565b6000808211801561172e575061172b600161360c565b82105b9050919050565b60008060009054906101000a900473ffffffffffffffffffffffffffffffffffffffff16905090565b600560205280600052604060002060009150905080600001549080600101549080600b0160009054906101000a900473ffffffffffffffffffffffffffffffffffffffff169080600c01549080600d0154905085565b6000806000600560008581526020019081526020016000209050806000015481600101549250925050915091565b600080600060056000858152602001908152602001600020905060008160080160026003811061183b577f4e487b7100000000000000000000000000000000000000000000000000000000600052603260045260246000fd5b01548260080160016003811061187a577f4e487b7100000000000000000000000000000000000000000000000000000000600052603260045260246000fd5b0154836008016000600381106118b9577f4e487b7100000000000000000000000000000000000000000000000000000000600052603260045260246000fd5b01546118c59190614591565b6118cf9190614591565b9050600082600501600260038110611910577f4e487b7100000000000000000000000000000000000000000000000000000000600052603260045260246000fd5b01548360050160016003811061194f577f4e487b7100000000000000000000000000000000000000000000000000000000600052603260045260246000fd5b01548460050160006003811061198e577f4e487b7100000000000000000000000000000000000000000000000000000000600052603260045260246000fd5b015461199a9190614591565b6119a49190614591565b9050818194509450505050915091565b6000806000600660008581526020019081526020016000209050806002015481600301546119e291906145e7565b816002015482600401546119f691906145e7565b9250925050915091565b60006001611a0e600161360c565b611a189190614672565b905090565b60006008600083815260200190815260200160002060009054906101000a900473ffffffffffffffffffffffffffffffffffffffff169050919050565b6000600a600083815260200190815260200160002060009054906101000a900473ffffffffffffffffffffffffffffffffffffffff169050919050565b600a6020528060005260406000206000915054906101000a900473ffffffffffffffffffffffffffffffffffffffff1681565b600060046000838152602001908152602001600020600101549050919050565b60008060006006600085815260200190815260200160002090508060050160019054906101000a900461ffff168160050160039054906101000a900461ffff169250925050915091565b600060066000838152602001908152602001600020600201549050919050565b60006006600083815260200190815260200160002060050160009054906101000a900460ff169050919050565b6000806000600560008581526020019081526020016000209050600081600501600260038110611bda577f4e487b7100000000000000000000000000000000000000000000000000000000600052603260045260246000fd5b015482600501600160038110611c19577f4e487b7100000000000000000000000000000000000000000000000000000000600052603260045260246000fd5b015483600501600060038110611c58577f4e487b7100000000000000000000000000000000000000000000000000000000600052603260045260246000fd5b0154611c649190614591565b611c6e9190614591565b90508082600c0154611c8091906145e7565b8183600d0154611c9091906145e7565b935093505050915091565b60008060006005600086815260200190815260200160002090506000600185611cc491906146a6565b9050816002018160ff1660038110611d05577f4e487b7100000000000000000000000000000000000000000000000000000000600052603260045260246000fd5b015482600b0160009054906101000a900473ffffffffffffffffffffffffffffffffffffffff169350935050509250929050565b6000600260009054906101000a900473ffffffffffffffffffffffffffffffffffffffff16905090565b600260009054906101000a900473ffffffffffffffffffffffffffffffffffffffff1681565b611d91613540565b73ffffffffffffffffffffffffffffffffffffffff16611daf611735565b73ffffffffffffffffffffffffffffffffffffffff1614611e05576040517f08c379a0000000000000000000000000000000000000000000000000000000008152600401611dfc906141c8565b60405180910390fd5b814210611e47576040517f08c379a0000000000000000000000000000000000000000000000000000000008152600401611e3e90614128565b60405180910390fd5b818111611e89576040517f08c379a0000000000000000000000000000000000000000000000000000000008152600401611e8090614148565b60405180910390fd5b6000611e95600161360c565b9050826004600083815260200190815260200160002060000181905550816004600083815260200190815260200160002060010181905550611ed7600161352a565b807fdf73b2c7803d688e4b8ab4ca91b7327d6a4ba9dccec9caaa12bab2a617fda1b58484604051611f099291906143b5565b60405180910390a2505050565b600360003373ffffffffffffffffffffffffffffffffffffffff1673ffffffffffffffffffffffffffffffffffffffff16815260200190815260200160002060009054906101000a900460ff16611fa2576040517f08c379a0000000000000000000000000000000000000000000000000000000008152600401611f99906142a8565b60405180910390fd5b60006005600084815260200190815260200160002090506000600183611fc891906146a6565b9050816002018160ff1660038110612009577f4e487b7100000000000000000000000000000000000000000000000000000000600052603260045260246000fd5b0154826005018260ff166003811061204a577f4e487b7100000000000000000000000000000000000000000000000000000000600052603260045260246000fd5b01546120569190614591565b826005018260ff1660038110612095577f4e487b7100000000000000000000000000000000000000000000000000000000600052603260045260246000fd5b018190555050505050565b60036020528060005260406000206000915054906101000a900460ff1681565b6120c8613540565b73ffffffffffffffffffffffffffffffffffffffff166120e6611735565b73ffffffffffffffffffffffffffffffffffffffff161461213c576040517f08c379a0000000000000000000000000000000000000000000000000000000008152600401612133906141c8565b60405180910390fd5b6006600082815260200190815260200160002060050160009054906101000a900460ff161561216a5761245d565b61217381611715565b6121b2576040517f08c379a00000000000000000000000000000000000000000000000000000000081526004016121a990614108565b60405180910390fd5b4260056000838152602001908152602001600020600101541061220a576040517f08c379a000000000000000000000000000000000000000000000000000000000815260040161220190614068565b60405180910390fd5b600080612216836117e2565b80925081935050508181101561242b5760006064670de0b6b3a76400008461223e9190614618565b61224891906145e7565b670de0b6b3a7640000838561225d9190614672565b6122679190614618565b61227191906145e7565b90506000670de0b6b3a764000060648360056000898152602001908152602001600020600c01546122a29190614618565b6122ac91906145e7565b6122b691906145e7565b90508060066000878152602001908152602001600020600301546122da9190614591565b60066000878152602001908152602001600020600301819055508060056000878152602001908152602001600020600c01546123169190614672565b60056000878152602001908152602001600020600c01819055506000670de0b6b3a7640000606484600560008a8152602001908152602001600020600d015461235f9190614618565b61236991906145e7565b61237391906145e7565b90508060066000888152602001908152602001600020600401546123979190614591565b60066000888152602001908152602001600020600401819055508060056000888152602001908152602001600020600d01546123d39190614672565b60056000888152602001908152602001600020600d0181905550857f32e0dcff7306eb2251b431cfb692c9f423ddafa28f545c26ed6fef49c93906d7838360405161241f9291906143b5565b60405180910390a25050505b60016006600085815260200190815260200160002060050160006101000a81548160ff02191690831515021790555050505b50565b612468613540565b73ffffffffffffffffffffffffffffffffffffffff16612486611735565b73ffffffffffffffffffffffffffffffffffffffff16146124dc576040517f08c379a00000000000000000000000000000000000000000000000000000000081526004016124d3906141c8565b60405180910390fd5b600073ffffffffffffffffffffffffffffffffffffffff168173ffffffffffffffffffffffffffffffffffffffff16141561254c576040517f08c379a000000000000000000000000000000000000000000000000000000000815260040161254390614328565b60405180910390fd5b8073ffffffffffffffffffffffffffffffffffffffff16600260009054906101000a900473ffffffffffffffffffffffffffffffffffffffff1673ffffffffffffffffffffffffffffffffffffffff1614156125dd576040517f08c379a00000000000000000000000000000000000000000000000000000000081526004016125d490614188565b60405180910390fd5b80600260006101000a81548173ffffffffffffffffffffffffffffffffffffffff021916908373ffffffffffffffffffffffffffffffffffffffff1602179055508073ffffffffffffffffffffffffffffffffffffffff167f4cc9cc2c1c94b0f2a3403db2d1758433cbfa23312f4870c2a182918475ddcf0560405160405180910390a250565b61266c613540565b73ffffffffffffffffffffffffffffffffffffffff1661268a611735565b73ffffffffffffffffffffffffffffffffffffffff16146126e0576040517f08c379a00000000000000000000000000000000000000000000000000000000081526004016126d7906141c8565b60405180910390fd5b600073ffffffffffffffffffffffffffffffffffffffff168173ffffffffffffffffffffffffffffffffffffffff161415612750576040517f08c379a000000000000000000000000000000000000000000000000000000000815260040161274790614328565b60405180910390fd5b600360008273ffffffffffffffffffffffffffffffffffffffff1673ffffffffffffffffffffffffffffffffffffffff16815260200190815260200160002060009054906101000a900460ff16156127dd576040517f08c379a00000000000000000000000000000000000000000000000000000000081526004016127d490614308565b60405180910390fd5b6001600360008373ffffffffffffffffffffffffffffffffffffffff1673ffffffffffffffffffffffffffffffffffffffff16815260200190815260200160002060006101000a81548160ff0219169083151502179055508073ffffffffffffffffffffffffffffffffffffffff167fa995c74341d87d6382e611e2f9439787e1d6c954ed0032d4402817eb78f225c8600160405161287c919061402d565b60405180910390a250565b61288f613540565b73ffffffffffffffffffffffffffffffffffffffff166128ad611735565b73ffffffffffffffffffffffffffffffffffffffff1614612903576040517f08c379a00000000000000000000000000000000000000000000000000000000081526004016128fa906141c8565b60405180910390fd5b600073ffffffffffffffffffffffffffffffffffffffff168173ffffffffffffffffffffffffffffffffffffffff161415612973576040517f08c379a000000000000000000000000000000000000000000000000000000000815260040161296a90614088565b60405180910390fd5b61297c81613548565b50565b60046020528060005260406000206000915090508060000154908060010154905082565b6129ab613540565b73ffffffffffffffffffffffffffffffffffffffff166129c9611735565b73ffffffffffffffffffffffffffffffffffffffff1614612a1f576040517f08c379a0000000000000000000000000000000000000000000000000000000008152600401612a16906141c8565b60405180910390fd5b612a2886611715565b612a67576040517f08c379a0000000000000000000000000000000000000000000000000000000008152600401612a5e90614108565b60405180910390fd5b844210612aa9576040517f08c379a0000000000000000000000000000000000000000000000000000000008152600401612aa090614048565b60405180910390fd5b838510612aeb576040517f08c379a0000000000000000000000000000000000000000000000000000000008152600401612ae290614288565b60405180910390fd5b600082600060038110612b27577f4e487b7100000000000000000000000000000000000000000000000000000000600052603260045260246000fd5b6020020135118015612b775750600082600160038110612b70577f4e487b7100000000000000000000000000000000000000000000000000000000600052603260045260246000fd5b6020020135115b8015612bc15750600082600260038110612bba577f4e487b7100000000000000000000000000000000000000000000000000000000600052603260045260246000fd5b6020020135115b612c00576040517f08c379a0000000000000000000000000000000000000000000000000000000008152600401612bf7906141e8565b60405180910390fd5b600083600060038110612c3c577f4e487b7100000000000000000000000000000000000000000000000000000000600052603260045260246000fd5b6020020135118015612c8c5750600083600160038110612c85577f4e487b7100000000000000000000000000000000000000000000000000000000600052603260045260246000fd5b6020020135115b8015612cd65750600083600260038110612ccf577f4e487b7100000000000000000000000000000000000000000000000000000000600052603260045260246000fd5b6020020135115b612d15576040517f08c379a0000000000000000000000000000000000000000000000000000000008152600401612d0c90614228565b60405180910390fd5b60006005600088815260200190815260200160002090506000816000015414612d73576040517f08c379a0000000000000000000000000000000000000000000000000000000008152600401612d6a90614308565b60405180910390fd5b60006004600089815260200190815260200160002060010154905060008111612dd1576040517f08c379a0000000000000000000000000000000000000000000000000000000008152600401612dc8906142c8565b60405180910390fd5b808711612e13576040517f08c379a0000000000000000000000000000000000000000000000000000000008152600401612e0a90614248565b60405180910390fd5b8682600001819055508582600101819055508482600201906003612e3892919061361a565b508382600801906003612e4c92919061361a565b508282600b0160006101000a81548173ffffffffffffffffffffffffffffffffffffffff021916908373ffffffffffffffffffffffffffffffffffffffff1602179055508273ffffffffffffffffffffffffffffffffffffffff16887f79bf20ae2c511f70496feccd088ed3e0f7d78cd75dccb90cf37f56d71b48bdee8989888a604051612edd9493929190614431565b60405180910390a35050505050505050565b612ef7613540565b73ffffffffffffffffffffffffffffffffffffffff16612f15611735565b73ffffffffffffffffffffffffffffffffffffffff1614612f6b576040517f08c379a0000000000000000000000000000000000000000000000000000000008152600401612f62906141c8565b60405180910390fd5b600073ffffffffffffffffffffffffffffffffffffffff168173ffffffffffffffffffffffffffffffffffffffff161415612fdb576040517f08c379a0000000000000000000000000000000000000000000000000000000008152600401612fd290614328565b60405180910390fd5b600360008273ffffffffffffffffffffffffffffffffffffffff1673ffffffffffffffffffffffffffffffffffffffff16815260200190815260200160002060009054906101000a900460ff16613067576040517f08c379a000000000000000000000000000000000000000000000000000000000815260040161305e906140e8565b60405180910390fd5b6000600360008373ffffffffffffffffffffffffffffffffffffffff1673ffffffffffffffffffffffffffffffffffffffff16815260200190815260200160002060006101000a81548160ff0219169083151502179055508073ffffffffffffffffffffffffffffffffffffffff167fa995c74341d87d6382e611e2f9439787e1d6c954ed0032d4402817eb78f225c86000604051613106919061402d565b60405180910390a250565b613119613540565b73ffffffffffffffffffffffffffffffffffffffff16613137611735565b73ffffffffffffffffffffffffffffffffffffffff161461318d576040517f08c379a0000000000000000000000000000000000000000000000000000000008152600401613184906141c8565b60405180910390fd5b61319686611244565b6131d5576040517f08c379a00000000000000000000000000000000000000000000000000000000081526004016131cc906140a8565b60405180910390fd5b6131de86610b37565b1561321e576040517f08c379a000000000000000000000000000000000000000000000000000000000815260040161321590614268565b60405180910390fd5b60008511801561322e5750600084115b801561323a5750600083115b80156132465750600082115b613285576040517f08c379a000000000000000000000000000000000000000000000000000000000815260040161327c906142e8565b60405180910390fd5b600073ffffffffffffffffffffffffffffffffffffffff168173ffffffffffffffffffffffffffffffffffffffff1614156132f5576040517f08c379a00000000000000000000000000000000000000000000000000000000081526004016132ec90614328565b60405180910390fd5b6000600960008373ffffffffffffffffffffffffffffffffffffffff1673ffffffffffffffffffffffffffffffffffffffff1681526020019081526020016000205414613377576040517f08c379a000000000000000000000000000000000000000000000000000000000815260040161336e906140c8565b60405180910390fd5b60006005600088815260200190815260200160002090506000600660008981526020019081526020016000209050670de0b6b3a7640000876133b99190614618565b82600c0181905550670de0b6b3a7640000866133d59190614618565b82600d0181905550670de0b6b3a7640000856133f19190614618565b8160030181905550670de0b6b3a76400008461340d9190614618565b816004018190555082600860008a815260200190815260200160002060006101000a81548173ffffffffffffffffffffffffffffffffffffffff021916908373ffffffffffffffffffffffffffffffffffffffff16021790555087600960008573ffffffffffffffffffffffffffffffffffffffff1673ffffffffffffffffffffffffffffffffffffffff168152602001908152602001600020819055508273ffffffffffffffffffffffffffffffffffffffff16887f7a9301e1d7e4267aac1f04cc3785bf5fce447f08569268d3d23d997ab05c6d28898989896040516134f894939291906144ae565b60405180910390a35050505050505050565b600060066000838152602001908152602001600020600601549050919050565b6001816000016000828254019250508190555050565b600033905090565b60008060009054906101000a900473ffffffffffffffffffffffffffffffffffffffff169050816000806101000a81548173ffffffffffffffffffffffffffffffffffffffff021916908373ffffffffffffffffffffffffffffffffffffffff1602179055508173ffffffffffffffffffffffffffffffffffffffff168173ffffffffffffffffffffffffffffffffffffffff167f8be0079c531659141344cd1fd0a4f28419497f9722a3daafe3b4186f6b6457e060405160405180910390a35050565b600081600001549050919050565b8260038101928215613649579160200282015b8281111561364857823582559160200191906001019061362d565b5b509050613656919061365a565b5090565b5b8082111561367357600081600090555060010161365b565b5090565b600081359050613686816147e2565b92915050565b6000819050826020600302820111156136a457600080fd5b92915050565b6000813590506136b9816147f9565b92915050565b6000813590506136ce81614810565b92915050565b6000813590506136e381614827565b92915050565b6000602082840312156136fb57600080fd5b600061370984828501613677565b91505092915050565b60006020828403121561372457600080fd5b6000613732848285016136d4565b91505092915050565b6000806040838503121561374e57600080fd5b600061375c858286016136d4565b925050602061376d85828601613677565b9150509250929050565b6000806040838503121561378a57600080fd5b6000613798858286016136d4565b92505060206137a9858286016136aa565b9150509250929050565b600080604083850312156137c657600080fd5b60006137d4858286016136d4565b92505060206137e5858286016136d4565b9150509250929050565b600080600080600080610140878903121561380957600080fd5b600061381789828a016136d4565b965050602061382889828a016136d4565b955050604061383989828a016136d4565b945050606061384a89828a0161368c565b93505060c061385b89828a0161368c565b92505061012061386d89828a01613677565b9150509295509295509295565b600080600080600060a0868803121561389257600080fd5b60006138a0888289016136d4565b95505060206138b1888289016136d4565b94505060406138c2888289016136d4565b93505060606138d3888289016136d4565b92505060806138e4888289016136bf565b9150509295509295909350565b60008060008060008060c0878903121561390a57600080fd5b600061391889828a016136d4565b965050602061392989828a016136d4565b955050604061393a89828a016136d4565b945050606061394b89828a016136d4565b935050608061395c89828a016136d4565b92505060a061396d89828a01613677565b9150509295509295509295565b613983816146da565b82525050565b6139956060838361474a565b5050565b6139a2816146ec565b82525050565b60006139b5601e83614580565b91507f4c69676874686f7573653a20494e56414c49445f53544152545f54494d4500006000830152602082019050919050565b60006139f5601983614580565b91507f4c69676874686f7573653a2050524546554e445f5048415345000000000000006000830152602082019050919050565b6000613a35602683614580565b91507f4f776e61626c653a206e6577206f776e657220697320746865207a65726f206160008301527f64647265737300000000000000000000000000000000000000000000000000006020830152604082019050919050565b6000613a9b601683614580565b91507f4c69676874686f7573653a204e4f5f41554354494f4e000000000000000000006000830152602082019050919050565b6000613adb601483614580565b91507f4c69676874686f7573653a204e46545f555345440000000000000000000000006000830152602082019050919050565b6000613b1b601383614580565b91507f4c69676874686f7573653a204e4f5f55534552000000000000000000000000006000830152602082019050919050565b6000613b5b601e83614580565b91507f4c69676874686f7573653a20494e56414c49445f50524f4a4543545f494400006000830152602082019050919050565b6000613b9b601783614580565b91507f4c69676874686f7573653a2054494d455f5041535345440000000000000000006000830152602082019050919050565b6000613bdb601e83614580565b91507f4c69676874686f7573653a20494e434f52524543545f454e445f54494d4500006000830152602082019050919050565b6000613c1b601a83614580565b91507f4c69676874686f7573653a20414c52454144595f4d494e5445440000000000006000830152602082019050919050565b6000613c5b601883614580565b91507f4c69676874686f7573653a2053414d455f4144445245535300000000000000006000830152602082019050919050565b6000613c9b601a83614580565b91507f4c69676874686f7573653a204e4f5f50524546554e445f5945540000000000006000830152602082019050919050565b6000613cdb602083614580565b91507f4f776e61626c653a2063616c6c6572206973206e6f7420746865206f776e65726000830152602082019050919050565b6000613d1b601983614580565b91507f4c69676874686f7573653a205a45524f5f504f4f4c5f434150000000000000006000830152602082019050919050565b6000613d5b601483614580565b91507f4c69676874686f7573653a205043435f555345440000000000000000000000006000830152602082019050919050565b6000613d9b601c83614580565b91507f4c69676874686f7573653a205a45524f5f46495845445f5052494345000000006000830152602082019050919050565b6000613ddb602383614580565b91507f4c69676874686f7573653a204e4f5f524547495354524154494f4e5f454e445f60008301527f59455400000000000000000000000000000000000000000000000000000000006020830152604082019050919050565b6000613e41601d83614580565b91507f4c69676874686f7573653a20414c52454144595f494e495449415445440000006000830152602082019050919050565b6000613e81601c83614580565b91507f4c69676874686f7573653a20494e56414c49445f454e445f54494d45000000006000830152602082019050919050565b6000613ec1601583614580565b91507f4c69676874686f7573653a20464f5242494444454e00000000000000000000006000830152602082019050919050565b6000613f01601f83614580565b91507f4c69676874686f7573653a204e4f5f524547495354524154494f4e5f594554006000830152602082019050919050565b6000613f41601a83614580565b91507f4c69676874686f7573653a205a45524f5f504152414d455445520000000000006000830152602082019050919050565b6000613f81601983614580565b91507f4c69676874686f7573653a20414c52454144595f4144444544000000000000006000830152602082019050919050565b6000613fc1601883614580565b91507f4c69676874686f7573653a205a45524f5f4144445245535300000000000000006000830152602082019050919050565b613ffd81614705565b82525050565b61400c81614733565b82525050565b6000602082019050614027600083018461397a565b92915050565b60006020820190506140426000830184613999565b92915050565b60006020820190508181036000830152614061816139a8565b9050919050565b60006020820190508181036000830152614081816139e8565b9050919050565b600060208201905081810360008301526140a181613a28565b9050919050565b600060208201905081810360008301526140c181613a8e565b9050919050565b600060208201905081810360008301526140e181613ace565b9050919050565b6000602082019050818103600083015261410181613b0e565b9050919050565b6000602082019050818103600083015261412181613b4e565b9050919050565b6000602082019050818103600083015261414181613b8e565b9050919050565b6000602082019050818103600083015261416181613bce565b9050919050565b6000602082019050818103600083015261418181613c0e565b9050919050565b600060208201905081810360008301526141a181613c4e565b9050919050565b600060208201905081810360008301526141c181613c8e565b9050919050565b600060208201905081810360008301526141e181613cce565b9050919050565b6000602082019050818103600083015261420181613d0e565b9050919050565b6000602082019050818103600083015261422181613d4e565b9050919050565b6000602082019050818103600083015261424181613d8e565b9050919050565b6000602082019050818103600083015261426181613dce565b9050919050565b6000602082019050818103600083015261428181613e34565b9050919050565b600060208201905081810360008301526142a181613e74565b9050919050565b600060208201905081810360008301526142c181613eb4565b9050919050565b600060208201905081810360008301526142e181613ef4565b9050919050565b6000602082019050818103600083015261430181613f34565b9050919050565b6000602082019050818103600083015261432181613f74565b9050919050565b6000602082019050818103600083015261434181613fb4565b9050919050565b600060408201905061435d6000830185613ff4565b61436a6020830184613ff4565b9392505050565b60006020820190506143866000830184614003565b92915050565b60006040820190506143a16000830185614003565b6143ae602083018461397a565b9392505050565b60006040820190506143ca6000830185614003565b6143d76020830184614003565b9392505050565b600060a0820190506143f36000830188614003565b6144006020830187614003565b61440d604083018661397a565b61441a6060830185614003565b6144276080830184614003565b9695505050505050565b6000610100820190506144476000830187614003565b6144546020830186614003565b6144616040830185613989565b61446e60a0830184613989565b95945050505050565b600060608201905061448c6000830186614003565b6144996020830185614003565b6144a66040830184613ff4565b949350505050565b60006080820190506144c36000830187614003565b6144d06020830186614003565b6144dd6040830185614003565b6144ea6060830184614003565b95945050505050565b600061012082019050614509600083018c614003565b614516602083018b614003565b614523604083018a614003565b6145306060830189614003565b61453d6080830188614003565b61454a60a0830187613999565b61455760c0830186613ff4565b61456460e0830185613ff4565b614572610100830184614003565b9a9950505050505050505050565b600082825260208201905092915050565b600061459c82614733565b91506145a783614733565b9250827fffffffffffffffffffffffffffffffffffffffffffffffffffffffffffffffff038211156145dc576145db614784565b5b828201905092915050565b60006145f282614733565b91506145fd83614733565b92508261460d5761460c6147b3565b5b828204905092915050565b600061462382614733565b915061462e83614733565b9250817fffffffffffffffffffffffffffffffffffffffffffffffffffffffffffffffff048311821515161561466757614666614784565b5b828202905092915050565b600061467d82614733565b915061468883614733565b92508282101561469b5761469a614784565b5b828203905092915050565b60006146b18261473d565b91506146bc8361473d565b9250828210156146cf576146ce614784565b5b828203905092915050565b60006146e582614713565b9050919050565b60008115159050919050565b60008160000b9050919050565b600061ffff82169050919050565b600073ffffffffffffffffffffffffffffffffffffffff82169050919050565b6000819050919050565b600060ff82169050919050565b82818337600083830152505050565b600061476482614705565b915061ffff82141561477957614778614784565b5b600182019050919050565b7f4e487b7100000000000000000000000000000000000000000000000000000000600052601160045260246000fd5b7f4e487b7100000000000000000000000000000000000000000000000000000000600052601260045260246000fd5b6147eb816146da565b81146147f657600080fd5b50565b614802816146f8565b811461480d57600080fd5b50565b61481981614705565b811461482457600080fd5b50565b61483081614733565b811461483b57600080fd5b5056fea264697066735822122076332d61e5d5a83048f122016b2538947363c08b2874ac852f25a8e21e270a6964736f6c63430008000033",
  "linkReferences": {},
  "deployedLinkReferences": {}
}