{
  "_format": "hh-sol-artifact-1",
  "contractName": "LighthouseProject",
  "sourceName": "contracts/LighthouseProject.sol",
  "abi": [
    {
      "inputs": [],
      "stateMutability": "nonpayable",
      "type": "constructor"
    },
    {
      "anonymous": false,
      "inputs": [
        {
          "indexed": true,
          "internalType": "uint256",
          "name": "id",
          "type": "uint256"
        },
        {
          "indexed": false,
          "internalType": "uint256",
          "name": "prefundAllocation",
          "type": "uint256"
        },
        {
          "indexed": false,
          "internalType": "uint256",
          "name": "prefundCompensation",
          "type": "uint256"
        },
        {
          "indexed": false,
          "internalType": "uint256",
          "name": "auctionAllocation",
          "type": "uint256"
        },
        {
          "indexed": false,
          "internalType": "uint256",
          "name": "auctionCompensation",
          "type": "uint256"
        }
      ],
      "name": "InitAllocationCompensation",
      "type": "event"
    },
    {
      "anonymous": false,
      "inputs": [
        {
          "indexed": true,
          "internalType": "uint256",
          "name": "id",
          "type": "uint256"
        },
        {
          "indexed": false,
          "internalType": "uint256",
          "name": "startTime",
          "type": "uint256"
        },
        {
          "indexed": false,
          "internalType": "uint256",
          "name": "endTime",
          "type": "uint256"
        }
      ],
      "name": "InitAuction",
      "type": "event"
    },
    {
      "anonymous": false,
      "inputs": [
        {
          "indexed": true,
          "internalType": "uint256",
          "name": "id",
          "type": "uint256"
        },
        {
          "indexed": false,
          "internalType": "uint256",
          "name": "scaledAllocation",
          "type": "uint256"
        },
        {
          "indexed": false,
          "internalType": "uint256",
          "name": "scaledCompensation",
          "type": "uint256"
        },
        {
          "indexed": false,
          "internalType": "address",
          "name": "nft",
          "type": "address"
        }
      ],
      "name": "InitMinting",
      "type": "event"
    },
    {
      "anonymous": false,
      "inputs": [
        {
          "indexed": true,
          "internalType": "uint256",
          "name": "id",
          "type": "uint256"
        },
        {
          "indexed": true,
          "internalType": "address",
          "name": "token",
          "type": "address"
        },
        {
          "indexed": false,
          "internalType": "uint256",
          "name": "startTime",
          "type": "uint256"
        },
        {
          "indexed": false,
          "internalType": "uint256",
          "name": "endTime",
          "type": "uint256"
        },
        {
          "indexed": false,
          "internalType": "uint256[3]",
          "name": "pools",
          "type": "uint256[3]"
        },
        {
          "indexed": false,
          "internalType": "uint256[3]",
          "name": "investAmounts",
          "type": "uint256[3]"
        }
      ],
      "name": "InitPrefund",
      "type": "event"
    },
    {
      "anonymous": false,
      "inputs": [
        {
          "indexed": true,
          "internalType": "uint256",
          "name": "id",
          "type": "uint256"
        },
        {
          "indexed": false,
          "internalType": "uint256",
          "name": "startTime",
          "type": "uint256"
        },
        {
          "indexed": false,
          "internalType": "uint256",
          "name": "endTime",
          "type": "uint256"
        }
      ],
      "name": "InitRegistration",
      "type": "event"
    },
    {
      "anonymous": false,
      "inputs": [
        {
          "indexed": true,
          "internalType": "address",
          "name": "previousOwner",
          "type": "address"
        },
        {
          "indexed": true,
          "internalType": "address",
          "name": "newOwner",
          "type": "address"
        }
      ],
      "name": "OwnershipTransferred",
      "type": "event"
    },
    {
      "anonymous": false,
      "inputs": [
        {
          "indexed": true,
          "internalType": "address",
          "name": "user",
          "type": "address"
        },
        {
          "indexed": false,
          "internalType": "bool",
          "name": "allowed",
          "type": "bool"
        }
      ],
      "name": "ProjectEditor",
      "type": "event"
    },
    {
      "anonymous": false,
      "inputs": [
        {
          "indexed": true,
          "internalType": "uint256",
          "name": "id",
          "type": "uint256"
        },
        {
          "indexed": false,
          "internalType": "uint256",
          "name": "scaledPrefundAmount",
          "type": "uint256"
        },
        {
          "indexed": false,
          "internalType": "uint256",
          "name": "scaledCompensationAmount",
          "type": "uint256"
        }
      ],
      "name": "TransferUnfunded",
      "type": "event"
    },
    {
      "inputs": [
        {
          "internalType": "address",
          "name": "_user",
          "type": "address"
        }
      ],
      "name": "addEditor",
      "outputs": [],
      "stateMutability": "nonpayable",
      "type": "function"
    },
    {
      "inputs": [
        {
          "internalType": "uint256",
          "name": "id",
          "type": "uint256"
        }
      ],
      "name": "allocationCompensationInitialized",
      "outputs": [
        {
          "internalType": "bool",
          "name": "",
          "type": "bool"
        }
      ],
      "stateMutability": "view",
      "type": "function"
    },
    {
      "inputs": [
        {
          "internalType": "uint256",
          "name": "id",
          "type": "uint256"
        }
      ],
      "name": "auctionEndTime",
      "outputs": [
        {
          "internalType": "uint256",
          "name": "",
          "type": "uint256"
        }
      ],
      "stateMutability": "view",
      "type": "function"
    },
    {
      "inputs": [
        {
          "internalType": "uint256",
          "name": "id",
          "type": "uint256"
        }
      ],
      "name": "auctionInitialized",
      "outputs": [
        {
          "internalType": "bool",
          "name": "",
          "type": "bool"
        }
      ],
      "stateMutability": "view",
      "type": "function"
    },
    {
      "inputs": [
        {
          "internalType": "uint256",
          "name": "id",
          "type": "uint256"
        }
      ],
      "name": "auctionScaledUnit",
      "outputs": [
        {
          "internalType": "uint256",
          "name": "",
          "type": "uint256"
        },
        {
          "internalType": "uint256",
          "name": "",
          "type": "uint256"
        }
      ],
      "stateMutability": "view",
      "type": "function"
    },
    {
      "inputs": [
        {
          "internalType": "uint256",
          "name": "id",
          "type": "uint256"
        }
      ],
      "name": "auctionTimeInfo",
      "outputs": [
        {
          "internalType": "uint256",
          "name": "",
          "type": "uint256"
        },
        {
          "internalType": "uint256",
          "name": "",
          "type": "uint256"
        }
      ],
      "stateMutability": "view",
      "type": "function"
    },
    {
      "inputs": [
        {
          "internalType": "uint256",
          "name": "id",
          "type": "uint256"
        }
      ],
      "name": "auctionTotalPool",
      "outputs": [
        {
          "internalType": "uint256",
          "name": "",
          "type": "uint256"
        }
      ],
      "stateMutability": "view",
      "type": "function"
    },
    {
      "inputs": [
        {
          "internalType": "uint256",
          "name": "",
          "type": "uint256"
        }
      ],
      "name": "auctions",
      "outputs": [
        {
          "internalType": "uint256",
          "name": "startTime",
          "type": "uint256"
        },
        {
          "internalType": "uint256",
          "name": "endTime",
          "type": "uint256"
        },
        {
          "internalType": "uint256",
          "name": "spent",
          "type": "uint256"
        },
        {
          "internalType": "uint256",
          "name": "scaledAllocation",
          "type": "uint256"
        },
        {
          "internalType": "uint256",
          "name": "scaledCompensation",
          "type": "uint256"
        }
      ],
      "stateMutability": "view",
      "type": "function"
    },
    {
      "inputs": [
        {
          "internalType": "uint256",
          "name": "id",
          "type": "uint256"
        },
        {
          "internalType": "uint256",
          "name": "amount",
          "type": "uint256"
        }
      ],
      "name": "collectAuctionAmount",
      "outputs": [],
      "stateMutability": "nonpayable",
      "type": "function"
    },
    {
      "inputs": [
        {
          "internalType": "uint256",
          "name": "id",
          "type": "uint256"
        },
        {
          "internalType": "int8",
          "name": "tier",
          "type": "int8"
        }
      ],
      "name": "collectPrefundInvestment",
      "outputs": [],
      "stateMutability": "nonpayable",
      "type": "function"
    },
    {
      "inputs": [
        {
          "internalType": "address",
          "name": "_user",
          "type": "address"
        }
      ],
      "name": "deleteEditorEditor",
      "outputs": [],
      "stateMutability": "nonpayable",
      "type": "function"
    },
    {
      "inputs": [
        {
          "internalType": "address",
          "name": "",
          "type": "address"
        }
      ],
      "name": "editors",
      "outputs": [
        {
          "internalType": "bool",
          "name": "",
          "type": "bool"
        }
      ],
      "stateMutability": "view",
      "type": "function"
    },
    {
      "inputs": [
        {
          "internalType": "uint256",
          "name": "id",
          "type": "uint256"
        },
        {
          "internalType": "uint256",
          "name": "prefundAllocation",
          "type": "uint256"
        },
        {
          "internalType": "uint256",
          "name": "prefundCompensation",
          "type": "uint256"
        },
        {
          "internalType": "uint256",
          "name": "auctionAllocation",
          "type": "uint256"
        },
        {
          "internalType": "uint256",
          "name": "auctionCompensation",
          "type": "uint256"
        }
      ],
      "name": "initAllocationCompensation",
      "outputs": [],
      "stateMutability": "nonpayable",
      "type": "function"
    },
    {
      "inputs": [
        {
          "internalType": "uint256",
          "name": "id",
          "type": "uint256"
        },
        {
          "internalType": "uint256",
          "name": "startTime",
          "type": "uint256"
        },
        {
          "internalType": "uint256",
          "name": "endTime",
          "type": "uint256"
        }
      ],
      "name": "initAuction",
      "outputs": [],
      "stateMutability": "nonpayable",
      "type": "function"
    },
    {
      "inputs": [
        {
          "internalType": "uint256",
          "name": "id",
          "type": "uint256"
        },
        {
          "internalType": "address",
          "name": "nft",
          "type": "address"
        }
      ],
      "name": "initMinting",
      "outputs": [],
      "stateMutability": "nonpayable",
      "type": "function"
    },
    {
      "inputs": [
        {
          "internalType": "uint256",
          "name": "id",
          "type": "uint256"
        },
        {
          "internalType": "uint256",
          "name": "startTime",
          "type": "uint256"
        },
        {
          "internalType": "uint256",
          "name": "endTime",
          "type": "uint256"
        },
        {
          "internalType": "uint256[3]",
          "name": "investAmounts",
          "type": "uint256[3]"
        },
        {
          "internalType": "uint256[3]",
          "name": "pools",
          "type": "uint256[3]"
        },
        {
          "internalType": "address",
          "name": "_token",
          "type": "address"
        }
      ],
      "name": "initPrefund",
      "outputs": [],
      "stateMutability": "nonpayable",
      "type": "function"
    },
    {
      "inputs": [
        {
          "internalType": "uint256",
          "name": "startTime",
          "type": "uint256"
        },
        {
          "internalType": "uint256",
          "name": "endTime",
          "type": "uint256"
        }
      ],
      "name": "initRegistration",
      "outputs": [],
      "stateMutability": "nonpayable",
      "type": "function"
    },
    {
      "inputs": [
        {
          "internalType": "uint256",
          "name": "id",
          "type": "uint256"
        }
      ],
      "name": "mintingInitialized",
      "outputs": [
        {
          "internalType": "bool",
          "name": "",
          "type": "bool"
        }
      ],
      "stateMutability": "view",
      "type": "function"
    },
    {
      "inputs": [
        {
          "internalType": "uint256",
          "name": "",
          "type": "uint256"
        }
      ],
      "name": "mintings",
      "outputs": [
        {
          "internalType": "uint256",
          "name": "scaledAllocation",
          "type": "uint256"
        },
        {
          "internalType": "uint256",
          "name": "scaledCompensation",
          "type": "uint256"
        },
        {
          "internalType": "address",
          "name": "nft",
          "type": "address"
        },
        {
          "internalType": "address",
          "name": "pcc",
          "type": "address"
        }
      ],
      "stateMutability": "view",
      "type": "function"
    },
    {
      "inputs": [
        {
          "internalType": "uint256",
          "name": "id",
          "type": "uint256"
        }
      ],
      "name": "nftAddress",
      "outputs": [
        {
          "internalType": "address",
          "name": "",
          "type": "address"
        }
      ],
      "stateMutability": "view",
      "type": "function"
    },
    {
      "inputs": [],
      "name": "owner",
      "outputs": [
        {
          "internalType": "address",
          "name": "",
          "type": "address"
        }
      ],
      "stateMutability": "view",
      "type": "function"
    },
    {
      "inputs": [
        {
          "internalType": "uint256",
          "name": "id",
          "type": "uint256"
        }
      ],
      "name": "prefundEndTime",
      "outputs": [
        {
          "internalType": "uint256",
          "name": "",
          "type": "uint256"
        }
      ],
      "stateMutability": "view",
      "type": "function"
    },
    {
      "inputs": [
        {
          "internalType": "uint256",
          "name": "id",
          "type": "uint256"
        }
      ],
      "name": "prefundInitialized",
      "outputs": [
        {
          "internalType": "bool",
          "name": "",
          "type": "bool"
        }
      ],
      "stateMutability": "view",
      "type": "function"
    },
    {
      "inputs": [
        {
          "internalType": "uint256",
          "name": "id",
          "type": "uint256"
        },
        {
          "internalType": "int8",
          "name": "tier",
          "type": "int8"
        }
      ],
      "name": "prefundInvestAmount",
      "outputs": [
        {
          "internalType": "uint256",
          "name": "",
          "type": "uint256"
        },
        {
          "internalType": "address",
          "name": "",
          "type": "address"
        }
      ],
      "stateMutability": "view",
      "type": "function"
    },
    {
      "inputs": [
        {
          "internalType": "uint256",
          "name": "id",
          "type": "uint256"
        },
        {
          "internalType": "int8",
          "name": "tier",
          "type": "int8"
        }
      ],
      "name": "prefundPoolInfo",
      "outputs": [
        {
          "internalType": "uint256",
          "name": "",
          "type": "uint256"
        },
        {
          "internalType": "uint256",
          "name": "",
          "type": "uint256"
        }
      ],
      "stateMutability": "view",
      "type": "function"
    },
    {
      "inputs": [
        {
          "internalType": "uint256",
          "name": "id",
          "type": "uint256"
        }
      ],
      "name": "prefundScaledUnit",
      "outputs": [
        {
          "internalType": "uint256",
          "name": "",
          "type": "uint256"
        },
        {
          "internalType": "uint256",
          "name": "",
          "type": "uint256"
        }
      ],
      "stateMutability": "view",
      "type": "function"
    },
    {
      "inputs": [
        {
          "internalType": "uint256",
          "name": "id",
          "type": "uint256"
        }
      ],
      "name": "prefundTimeInfo",
      "outputs": [
        {
          "internalType": "uint256",
          "name": "",
          "type": "uint256"
        },
        {
          "internalType": "uint256",
          "name": "",
          "type": "uint256"
        }
      ],
      "stateMutability": "view",
      "type": "function"
    },
    {
      "inputs": [
        {
          "internalType": "uint256",
          "name": "id",
          "type": "uint256"
        }
      ],
      "name": "prefundTotalPool",
      "outputs": [
        {
          "internalType": "uint256",
          "name": "",
          "type": "uint256"
        },
        {
          "internalType": "uint256",
          "name": "",
          "type": "uint256"
        }
      ],
      "stateMutability": "view",
      "type": "function"
    },
    {
      "inputs": [
        {
          "internalType": "uint256",
          "name": "",
          "type": "uint256"
        }
      ],
      "name": "prefunds",
      "outputs": [
        {
          "internalType": "uint256",
          "name": "startTime",
          "type": "uint256"
        },
        {
          "internalType": "uint256",
          "name": "endTime",
          "type": "uint256"
        },
        {
          "internalType": "address",
          "name": "token",
          "type": "address"
        },
        {
          "internalType": "uint256",
          "name": "scaledAllocation",
          "type": "uint256"
        },
        {
          "internalType": "uint256",
          "name": "scaledCompensation",
          "type": "uint256"
        },
        {
          "internalType": "uint256",
          "name": "scaledRatio",
          "type": "uint256"
        }
      ],
      "stateMutability": "view",
      "type": "function"
    },
    {
      "inputs": [
        {
          "internalType": "uint256",
          "name": "id",
          "type": "uint256"
        }
      ],
      "name": "registrationEndTime",
      "outputs": [
        {
          "internalType": "uint256",
          "name": "",
          "type": "uint256"
        }
      ],
      "stateMutability": "view",
      "type": "function"
    },
    {
      "inputs": [
        {
          "internalType": "uint256",
          "name": "id",
          "type": "uint256"
        }
      ],
      "name": "registrationInfo",
      "outputs": [
        {
          "internalType": "uint256",
          "name": "",
          "type": "uint256"
        },
        {
          "internalType": "uint256",
          "name": "",
          "type": "uint256"
        }
      ],
      "stateMutability": "view",
      "type": "function"
    },
    {
      "inputs": [
        {
          "internalType": "uint256",
          "name": "id",
          "type": "uint256"
        }
      ],
      "name": "registrationInitialized",
      "outputs": [
        {
          "internalType": "bool",
          "name": "",
          "type": "bool"
        }
      ],
      "stateMutability": "view",
      "type": "function"
    },
    {
      "inputs": [
        {
          "internalType": "uint256",
          "name": "",
          "type": "uint256"
        }
      ],
      "name": "registrations",
      "outputs": [
        {
          "internalType": "uint256",
          "name": "startTime",
          "type": "uint256"
        },
        {
          "internalType": "uint256",
          "name": "endTime",
          "type": "uint256"
        }
      ],
      "stateMutability": "view",
      "type": "function"
    },
    {
      "inputs": [],
      "name": "renounceOwnership",
      "outputs": [],
      "stateMutability": "nonpayable",
      "type": "function"
    },
    {
      "inputs": [],
      "name": "totalProjects",
      "outputs": [
        {
          "internalType": "uint256",
          "name": "",
          "type": "uint256"
        }
      ],
      "stateMutability": "view",
      "type": "function"
    },
    {
      "inputs": [
        {
          "internalType": "address",
          "name": "newOwner",
          "type": "address"
        }
      ],
      "name": "transferOwnership",
      "outputs": [],
      "stateMutability": "nonpayable",
      "type": "function"
    },
    {
      "inputs": [
        {
          "internalType": "uint256",
          "name": "id",
          "type": "uint256"
        }
      ],
      "name": "validProjectId",
      "outputs": [
        {
          "internalType": "bool",
          "name": "",
          "type": "bool"
        }
      ],
      "stateMutability": "view",
      "type": "function"
    }
  ],
  "bytecode": "0x60806040523480156200001157600080fd5b5062000032620000266200004f60201b60201c565b6200005760201b60201c565b6200004960016200011b60201b620028131760201c565b62000131565b600033905090565b60008060009054906101000a900473ffffffffffffffffffffffffffffffffffffffff169050816000806101000a81548173ffffffffffffffffffffffffffffffffffffffff021916908373ffffffffffffffffffffffffffffffffffffffff1602179055508173ffffffffffffffffffffffffffffffffffffffff168173ffffffffffffffffffffffffffffffffffffffff167f8be0079c531659141344cd1fd0a4f28419497f9722a3daafe3b4186f6b6457e060405160405180910390a35050565b6001816000016000828254019250508190555050565b613bcb80620001416000396000f3fe608060405234801561001057600080fd5b50600436106102275760003560e01c80638da5cb5b11610130578063b5f5cf70116100b8578063e5975bdc1161007c578063e5975bdc1461076a578063f2fde38b14610786578063f4ddb5be146107a2578063f8285d38146107d3578063f88fba8c146107ef57610227565b8063b5f5cf70146106b5578063bbc5f906146106e6578063be27db0014610702578063c82189e01461071e578063cd52844d1461073a57610227565b80639922a1d5116100ff5780639922a1d5146105d55780639c361e4e14610606578063a84b069214610624578063ae9d403a14610654578063b47e9f3e1461068457610227565b80638da5cb5b146105205780638de6a11a1461053e5780638ee2a6d114610573578063943df315146105a457610227565b806362a01ac2116101b35780637480285711610182578063748028571461044057806376f2766c14610471578063777de704146104a45780637cb7eed7146104d45780638d7365a9146104f057610227565b806362a01ac2146103ba57806364507efc146103d65780636592b72414610406578063715018a61461043657610227565b80632693b12c116101fa5780632693b12c146102ed57806337979b801461031e57806341e0f1b11461033a578063428ba89314610356578063571a26a01461038657610227565b806305b576e31461022c578063073106641461025c5780631b4ead451461028c57806324d2cb17146102bc575b600080fd5b61024660048036038101906102419190612c0c565b61081f565b60405161025391906136ff565b60405180910390f35b61027660048036038101906102719190612c0c565b61083f565b6040516102839190613444565b60405180910390f35b6102a660048036038101906102a19190612c0c565b61087f565b6040516102b39190613444565b60405180910390f35b6102d660048036038101906102d19190612c0c565b6108e7565b6040516102e4929190613743565b60405180910390f35b61030760048036038101906103029190612c0c565b610915565b604051610315929190613743565b60405180910390f35b61033860048036038101906103339190612ce9565b610943565b005b610354600480360381019061034f9190612cad565b610c00565b005b610370600480360381019061036b9190612c0c565b610cc0565b60405161037d9190613444565b60405180910390f35b6103a0600480360381019061039b9190612c0c565b610d00565b6040516103b19594939291906138d4565b60405180910390f35b6103d460048036038101906103cf9190612be3565b610d36565b005b6103f060048036038101906103eb9190612c0c565b610f58565b6040516103fd9190613444565b60405180910390f35b610420600480360381019061041b9190612c0c565b610f98565b60405161042d9190613444565b60405180910390f35b61043e610fd8565b005b61045a60048036038101906104559190612c71565b611060565b604051610468929190613743565b60405180910390f35b61048b60048036038101906104869190612c0c565b61111a565b60405161049b94939291906137a3565b60405180910390f35b6104be60048036038101906104b99190612c0c565b61118a565b6040516104cb91906136ff565b60405180910390f35b6104ee60048036038101906104e99190612c35565b6111aa565b005b61050a60048036038101906105059190612c0c565b611432565b6040516105179190613444565b60405180910390f35b610528611452565b6040516105359190613429565b60405180910390f35b61055860048036038101906105539190612c0c565b61147b565b60405161056a969594939291906137e8565b60405180910390f35b61058d60048036038101906105889190612c0c565b6114d7565b60405161059b929190613743565b60405180910390f35b6105be60048036038101906105b99190612c0c565b611505565b6040516105cc929190613743565b60405180910390f35b6105ef60048036038101906105ea9190612c0c565b6116d7565b6040516105fd929190613743565b60405180910390f35b61060e611723565b60405161061b91906136ff565b60405180910390f35b61063e60048036038101906106399190612c0c565b611734565b60405161064b91906136ff565b60405180910390f35b61066e60048036038101906106699190612c0c565b611754565b60405161067b91906136ff565b60405180910390f35b61069e60048036038101906106999190612c0c565b611774565b6040516106ac929190613743565b60405180910390f35b6106cf60048036038101906106ca9190612c71565b61188e565b6040516106dd92919061371a565b60405180910390f35b61070060048036038101906106fb9190612dc3565b61192c565b005b61071c60048036038101906107179190612cad565b611baa565b005b61073860048036038101906107339190612c71565b611d7a565b005b610754600480360381019061074f9190612be3565b611f04565b6040516107619190613444565b60405180910390f35b610784600480360381019061077f9190612be3565b611f24565b005b6107a0600480360381019061079b9190612be3565b612147565b005b6107bc60048036038101906107b79190612c0c565b61223f565b6040516107ca929190613743565b60405180910390f35b6107ed60048036038101906107e89190612d38565b612263565b005b61080960048036038101906108049190612c0c565b6127d3565b6040516108169190613429565b60405180910390f35b600060046000838152602001908152602001600020600101549050919050565b600061084a82611432565b610857576000905061087a565b600060066000848152602001908152602001600020905060008160000154119150505b919050565b600061088a82611432565b61089757600090506108e2565b60006004600084815260200190815260200160002090506000600560008581526020019081526020016000209050600082600c01541180156108dd575060008160030154115b925050505b919050565b6000806000600560008581526020019081526020016000209050806000015481600101549250925050915091565b6000806000600360008581526020019081526020016000209050806000015481600101549250925050915091565b61094b612829565b73ffffffffffffffffffffffffffffffffffffffff16610969611452565b73ffffffffffffffffffffffffffffffffffffffff16146109bf576040517f08c379a00000000000000000000000000000000000000000000000000000000081526004016109b69061357f565b60405180910390fd5b6109c883611432565b610a07576040517f08c379a00000000000000000000000000000000000000000000000000000000081526004016109fe906134df565b60405180910390fd5b600082118015610a1657508142105b610a55576040517f08c379a0000000000000000000000000000000000000000000000000000000008152600401610a4c9061345f565b60405180910390fd5b600081118015610a655750808214155b8015610a7057508082105b610aaf576040517f08c379a0000000000000000000000000000000000000000000000000000000008152600401610aa69061361f565b60405180910390fd5b60006005600085815260200190815260200160002090506000816000015414610b0d576040517f08c379a0000000000000000000000000000000000000000000000000000000008152600401610b04906136bf565b60405180910390fd5b60006004600086815260200190815260200160002060010154905060008111610b6b576040517f08c379a0000000000000000000000000000000000000000000000000000000008152600401610b629061355f565b60405180910390fd5b808411610bad576040517f08c379a0000000000000000000000000000000000000000000000000000000008152600401610ba4906135df565b60405180910390fd5b838260000181905550828260010181905550847f9b3770df20128a91841fed18e7e8efbd28645b85d6e95c9feeff96f7c9bd83968585604051610bf1929190613743565b60405180910390a25050505050565b600260003373ffffffffffffffffffffffffffffffffffffffff1673ffffffffffffffffffffffffffffffffffffffff16815260200190815260200160002060009054906101000a900460ff16610c8c576040517f08c379a0000000000000000000000000000000000000000000000000000000008152600401610c839061363f565b60405180910390fd5b6000600560008481526020019081526020016000209050818160020154610cb39190613938565b8160020181905550505050565b6000610ccb82611432565b610cd85760009050610cfb565b600060036000848152602001908152602001600020905060008160000154119150505b919050565b60056020528060005260406000206000915090508060000154908060010154908060020154908060030154908060040154905085565b610d3e612829565b73ffffffffffffffffffffffffffffffffffffffff16610d5c611452565b73ffffffffffffffffffffffffffffffffffffffff1614610db2576040517f08c379a0000000000000000000000000000000000000000000000000000000008152600401610da99061357f565b60405180910390fd5b600073ffffffffffffffffffffffffffffffffffffffff168173ffffffffffffffffffffffffffffffffffffffff161415610e22576040517f08c379a0000000000000000000000000000000000000000000000000000000008152600401610e19906136df565b60405180910390fd5b600260008273ffffffffffffffffffffffffffffffffffffffff1673ffffffffffffffffffffffffffffffffffffffff16815260200190815260200160002060009054906101000a900460ff16610eae576040517f08c379a0000000000000000000000000000000000000000000000000000000008152600401610ea5906134bf565b60405180910390fd5b6000600260008373ffffffffffffffffffffffffffffffffffffffff1673ffffffffffffffffffffffffffffffffffffffff16815260200190815260200160002060006101000a81548160ff0219169083151502179055508073ffffffffffffffffffffffffffffffffffffffff167fa995c74341d87d6382e611e2f9439787e1d6c954ed0032d4402817eb78f225c86000604051610f4d9190613444565b60405180910390a250565b6000610f6382611432565b610f705760009050610f93565b600060056000848152602001908152602001600020905060008160000154119150505b919050565b6000610fa382611432565b610fb05760009050610fd3565b600060046000848152602001908152602001600020905060008160000154119150505b919050565b610fe0612829565b73ffffffffffffffffffffffffffffffffffffffff16610ffe611452565b73ffffffffffffffffffffffffffffffffffffffff1614611054576040517f08c379a000000000000000000000000000000000000000000000000000000000815260040161104b9061357f565b60405180910390fd5b61105e6000612831565b565b600080600060046000868152602001908152602001600020905060006001856110899190613a4d565b9050816005018160ff16600381106110ca577f4e487b7100000000000000000000000000000000000000000000000000000000600052603260045260246000fd5b0154826008018260ff166003811061110b577f4e487b7100000000000000000000000000000000000000000000000000000000600052603260045260246000fd5b01549350935050509250929050565b60066020528060005260406000206000915090508060000154908060010154908060020160009054906101000a900473ffffffffffffffffffffffffffffffffffffffff16908060030160009054906101000a900473ffffffffffffffffffffffffffffffffffffffff16905084565b600060056000838152602001908152602001600020600101549050919050565b6111b2612829565b73ffffffffffffffffffffffffffffffffffffffff166111d0611452565b73ffffffffffffffffffffffffffffffffffffffff1614611226576040517f08c379a000000000000000000000000000000000000000000000000000000000815260040161121d9061357f565b60405180910390fd5b61122f8261087f565b61126e576040517f08c379a00000000000000000000000000000000000000000000000000000000081526004016112659061369f565b60405180910390fd5b6112778261083f565b156112b7576040517f08c379a00000000000000000000000000000000000000000000000000000000081526004016112ae9061353f565b60405180910390fd5b600073ffffffffffffffffffffffffffffffffffffffff168173ffffffffffffffffffffffffffffffffffffffff161415611327576040517f08c379a000000000000000000000000000000000000000000000000000000000815260040161131e906136df565b60405180910390fd5b600060066000848152602001908152602001600020905060006004600085815260200190815260200160002090506000600560008681526020019081526020016000209050806003015482600c01546113809190613938565b8360000181905550806004015482600d015461139c9190613938565b8360010181905550838360020160006101000a81548173ffffffffffffffffffffffffffffffffffffffff021916908373ffffffffffffffffffffffffffffffffffffffff160217905550847f60afa5ab6adc0f801dd0d7ff74f06755027cf84a481d6485687ebd3e03f0f50784600001548560010154876040516114239392919061376c565b60405180910390a25050505050565b6000808211801561144b575061144860016128f5565b82105b9050919050565b60008060009054906101000a900473ffffffffffffffffffffffffffffffffffffffff16905090565b600460205280600052604060002060009150905080600001549080600101549080600b0160009054906101000a900473ffffffffffffffffffffffffffffffffffffffff169080600c01549080600d01549080600e0154905086565b6000806000600460008581526020019081526020016000209050806000015481600101549250925050915091565b600080600060046000858152602001908152602001600020905060008160080160026003811061155e577f4e487b7100000000000000000000000000000000000000000000000000000000600052603260045260246000fd5b01548260080160016003811061159d577f4e487b7100000000000000000000000000000000000000000000000000000000600052603260045260246000fd5b0154836008016000600381106115dc577f4e487b7100000000000000000000000000000000000000000000000000000000600052603260045260246000fd5b01546115e89190613938565b6115f29190613938565b9050600082600501600260038110611633577f4e487b7100000000000000000000000000000000000000000000000000000000600052603260045260246000fd5b015483600501600160038110611672577f4e487b7100000000000000000000000000000000000000000000000000000000600052603260045260246000fd5b0154846005016000600381106116b1577f4e487b7100000000000000000000000000000000000000000000000000000000600052603260045260246000fd5b01546116bd9190613938565b6116c79190613938565b9050818194509450505050915091565b600080600060056000858152602001908152602001600020905080600201548160030154611705919061398e565b81600201548260040154611719919061398e565b9250925050915091565b600061172f60016128f5565b905090565b600060036000838152602001908152602001600020600101549050919050565b600060056000838152602001908152602001600020600201549050919050565b60008060006004600085815260200190815260200160002090506000816005016002600381106117cd577f4e487b7100000000000000000000000000000000000000000000000000000000600052603260045260246000fd5b01548260050160016003811061180c577f4e487b7100000000000000000000000000000000000000000000000000000000600052603260045260246000fd5b01548360050160006003811061184b577f4e487b7100000000000000000000000000000000000000000000000000000000600052603260045260246000fd5b01546118579190613938565b6118619190613938565b90508082600c0154611873919061398e565b8183600d0154611883919061398e565b935093505050915091565b600080600060046000868152602001908152602001600020905060006001856118b79190613a4d565b9050816002018160ff16600381106118f8577f4e487b7100000000000000000000000000000000000000000000000000000000600052603260045260246000fd5b015482600b0160009054906101000a900473ffffffffffffffffffffffffffffffffffffffff169350935050509250929050565b611934612829565b73ffffffffffffffffffffffffffffffffffffffff16611952611452565b73ffffffffffffffffffffffffffffffffffffffff16146119a8576040517f08c379a000000000000000000000000000000000000000000000000000000000815260040161199f9061357f565b60405180910390fd5b6119b185610f58565b6119f0576040517f08c379a00000000000000000000000000000000000000000000000000000000081526004016119e79061349f565b60405180910390fd5b6119f98561087f565b15611a39576040517f08c379a0000000000000000000000000000000000000000000000000000000008152600401611a30906135ff565b60405180910390fd5b600084118015611a495750600083115b8015611a555750600082115b8015611a615750600081115b611aa0576040517f08c379a0000000000000000000000000000000000000000000000000000000008152600401611a979061367f565b60405180910390fd5b60006004600087815260200190815260200160002090506000600560008881526020019081526020016000209050670de0b6b3a764000086611ae291906139bf565b82600c0181905550670de0b6b3a764000085611afe91906139bf565b82600d0181905550670de0b6b3a764000084611b1a91906139bf565b8160030181905550670de0b6b3a764000083611b3691906139bf565b8160040181905550611b4787612903565b81600d015482600c0154611b5b919061398e565b82600e0181905550867f8d67716b895b3219f5f07bc4c70dbf8696c6b38741ed7fb8cb34b80be675825987878787604051611b99949392919061388f565b60405180910390a250505050505050565b611bb2612829565b73ffffffffffffffffffffffffffffffffffffffff16611bd0611452565b73ffffffffffffffffffffffffffffffffffffffff1614611c26576040517f08c379a0000000000000000000000000000000000000000000000000000000008152600401611c1d9061357f565b60405180910390fd5b60008211611c69576040517f08c379a0000000000000000000000000000000000000000000000000000000008152600401611c60906136df565b60405180910390fd5b814210611cab576040517f08c379a0000000000000000000000000000000000000000000000000000000008152600401611ca2906134ff565b60405180910390fd5b818111611ced576040517f08c379a0000000000000000000000000000000000000000000000000000000008152600401611ce49061351f565b60405180910390fd5b6000611cf960016128f5565b9050826003600083815260200190815260200160002060000181905550816003600083815260200190815260200160002060010181905550611d3b6001612813565b807fdf73b2c7803d688e4b8ab4ca91b7327d6a4ba9dccec9caaa12bab2a617fda1b58484604051611d6d929190613743565b60405180910390a2505050565b600260003373ffffffffffffffffffffffffffffffffffffffff1673ffffffffffffffffffffffffffffffffffffffff16815260200190815260200160002060009054906101000a900460ff16611e06576040517f08c379a0000000000000000000000000000000000000000000000000000000008152600401611dfd9061363f565b60405180910390fd5b60006004600084815260200190815260200160002090506000600183611e2c9190613a4d565b9050816002018160ff1660038110611e6d577f4e487b7100000000000000000000000000000000000000000000000000000000600052603260045260246000fd5b0154826005018260ff1660038110611eae577f4e487b7100000000000000000000000000000000000000000000000000000000600052603260045260246000fd5b0154611eba9190613938565b826005018260ff1660038110611ef9577f4e487b7100000000000000000000000000000000000000000000000000000000600052603260045260246000fd5b018190555050505050565b60026020528060005260406000206000915054906101000a900460ff1681565b611f2c612829565b73ffffffffffffffffffffffffffffffffffffffff16611f4a611452565b73ffffffffffffffffffffffffffffffffffffffff1614611fa0576040517f08c379a0000000000000000000000000000000000000000000000000000000008152600401611f979061357f565b60405180910390fd5b600073ffffffffffffffffffffffffffffffffffffffff168173ffffffffffffffffffffffffffffffffffffffff161415612010576040517f08c379a0000000000000000000000000000000000000000000000000000000008152600401612007906136df565b60405180910390fd5b600260008273ffffffffffffffffffffffffffffffffffffffff1673ffffffffffffffffffffffffffffffffffffffff16815260200190815260200160002060009054906101000a900460ff161561209d576040517f08c379a0000000000000000000000000000000000000000000000000000000008152600401612094906136bf565b60405180910390fd5b6001600260008373ffffffffffffffffffffffffffffffffffffffff1673ffffffffffffffffffffffffffffffffffffffff16815260200190815260200160002060006101000a81548160ff0219169083151502179055508073ffffffffffffffffffffffffffffffffffffffff167fa995c74341d87d6382e611e2f9439787e1d6c954ed0032d4402817eb78f225c8600160405161213c9190613444565b60405180910390a250565b61214f612829565b73ffffffffffffffffffffffffffffffffffffffff1661216d611452565b73ffffffffffffffffffffffffffffffffffffffff16146121c3576040517f08c379a00000000000000000000000000000000000000000000000000000000081526004016121ba9061357f565b60405180910390fd5b600073ffffffffffffffffffffffffffffffffffffffff168173ffffffffffffffffffffffffffffffffffffffff161415612233576040517f08c379a000000000000000000000000000000000000000000000000000000000815260040161222a9061347f565b60405180910390fd5b61223c81612831565b50565b60036020528060005260406000206000915090508060000154908060010154905082565b61226b612829565b73ffffffffffffffffffffffffffffffffffffffff16612289611452565b73ffffffffffffffffffffffffffffffffffffffff16146122df576040517f08c379a00000000000000000000000000000000000000000000000000000000081526004016122d69061357f565b60405180910390fd5b6122e886611432565b612327576040517f08c379a000000000000000000000000000000000000000000000000000000000815260040161231e906134df565b60405180910390fd5b60008511801561233657508442105b612375576040517f08c379a000000000000000000000000000000000000000000000000000000000815260040161236c9061345f565b60405180910390fd5b6000841180156123855750838514155b801561239057508385105b6123cf576040517f08c379a00000000000000000000000000000000000000000000000000000000081526004016123c69061361f565b60405180910390fd5b60008260006003811061240b577f4e487b7100000000000000000000000000000000000000000000000000000000600052603260045260246000fd5b602002013511801561245b5750600082600160038110612454577f4e487b7100000000000000000000000000000000000000000000000000000000600052603260045260246000fd5b6020020135115b80156124a5575060008260026003811061249e577f4e487b7100000000000000000000000000000000000000000000000000000000600052603260045260246000fd5b6020020135115b6124e4576040517f08c379a00000000000000000000000000000000000000000000000000000000081526004016124db9061359f565b60405180910390fd5b600083600060038110612520577f4e487b7100000000000000000000000000000000000000000000000000000000600052603260045260246000fd5b60200201351180156125705750600083600160038110612569577f4e487b7100000000000000000000000000000000000000000000000000000000600052603260045260246000fd5b6020020135115b80156125ba57506000836002600381106125b3577f4e487b7100000000000000000000000000000000000000000000000000000000600052603260045260246000fd5b6020020135115b6125f9576040517f08c379a00000000000000000000000000000000000000000000000000000000081526004016125f0906135bf565b60405180910390fd5b60006004600088815260200190815260200160002090506000816000015414612657576040517f08c379a000000000000000000000000000000000000000000000000000000000815260040161264e906136bf565b60405180910390fd5b600060036000898152602001908152602001600020600101549050600081116126b5576040517f08c379a00000000000000000000000000000000000000000000000000000000081526004016126ac9061365f565b60405180910390fd5b8087116126f7576040517f08c379a00000000000000000000000000000000000000000000000000000000081526004016126ee906135df565b60405180910390fd5b868260000181905550858260010181905550848260020190600361271c929190612b29565b508382600801906003612730929190612b29565b508282600b0160006101000a81548173ffffffffffffffffffffffffffffffffffffffff021916908373ffffffffffffffffffffffffffffffffffffffff1602179055508273ffffffffffffffffffffffffffffffffffffffff16887f79bf20ae2c511f70496feccd088ed3e0f7d78cd75dccb90cf37f56d71b48bdee8989888a6040516127c19493929190613849565b60405180910390a35050505050505050565b60006006600083815260200190815260200160002060020160009054906101000a900473ffffffffffffffffffffffffffffffffffffffff169050919050565b6001816000016000828254019250508190555050565b600033905090565b60008060009054906101000a900473ffffffffffffffffffffffffffffffffffffffff169050816000806101000a81548173ffffffffffffffffffffffffffffffffffffffff021916908373ffffffffffffffffffffffffffffffffffffffff1602179055508173ffffffffffffffffffffffffffffffffffffffff168173ffffffffffffffffffffffffffffffffffffffff167f8be0079c531659141344cd1fd0a4f28419497f9722a3daafe3b4186f6b6457e060405160405180910390a35050565b600081600001549050919050565b60008061290f83611505565b809250819350505081811015612b245760006064670de0b6b3a76400008461293791906139bf565b612941919061398e565b670de0b6b3a764000083856129569190613a19565b61296091906139bf565b61296a919061398e565b90506000670de0b6b3a764000082606460046000898152602001908152602001600020600c015461299b919061398e565b6129a591906139bf565b6129af919061398e565b90508060056000878152602001908152602001600020600301546129d39190613938565b60056000878152602001908152602001600020600301819055508060046000878152602001908152602001600020600c0154612a0f9190613a19565b60046000878152602001908152602001600020600c01819055506000670de0b6b3a7640000836064600460008a8152602001908152602001600020600d0154612a58919061398e565b612a6291906139bf565b612a6c919061398e565b9050806005600088815260200190815260200160002060040154612a909190613938565b60056000888152602001908152602001600020600401819055508060046000888152602001908152602001600020600d0154612acc9190613a19565b60046000888152602001908152602001600020600d0181905550857f71ec9d9cd1e81b6a3bf984040de9a27a53102daf96a2a228dc77922f99799df08383604051612b18929190613743565b60405180910390a25050505b505050565b8260038101928215612b58579160200282015b82811115612b57578235825591602001919060010190612b3c565b5b509050612b659190612b69565b5090565b5b80821115612b82576000816000905550600101612b6a565b5090565b600081359050612b9581613b50565b92915050565b600081905082602060030282011115612bb357600080fd5b92915050565b600081359050612bc881613b67565b92915050565b600081359050612bdd81613b7e565b92915050565b600060208284031215612bf557600080fd5b6000612c0384828501612b86565b91505092915050565b600060208284031215612c1e57600080fd5b6000612c2c84828501612bce565b91505092915050565b60008060408385031215612c4857600080fd5b6000612c5685828601612bce565b9250506020612c6785828601612b86565b9150509250929050565b60008060408385031215612c8457600080fd5b6000612c9285828601612bce565b9250506020612ca385828601612bb9565b9150509250929050565b60008060408385031215612cc057600080fd5b6000612cce85828601612bce565b9250506020612cdf85828601612bce565b9150509250929050565b600080600060608486031215612cfe57600080fd5b6000612d0c86828701612bce565b9350506020612d1d86828701612bce565b9250506040612d2e86828701612bce565b9150509250925092565b6000806000806000806101408789031215612d5257600080fd5b6000612d6089828a01612bce565b9650506020612d7189828a01612bce565b9550506040612d8289828a01612bce565b9450506060612d9389828a01612b9b565b93505060c0612da489828a01612b9b565b925050610120612db689828a01612b86565b9150509295509295509295565b600080600080600060a08688031215612ddb57600080fd5b6000612de988828901612bce565b9550506020612dfa88828901612bce565b9450506040612e0b88828901612bce565b9350506060612e1c88828901612bce565b9250506080612e2d88828901612bce565b9150509295509295909350565b612e4381613a81565b82525050565b612e5560608383613ae3565b5050565b612e6281613a93565b82525050565b6000612e75601e83613927565b91507f4c69676874686f7573653a20494e56414c49445f53544152545f54494d4500006000830152602082019050919050565b6000612eb5602683613927565b91507f4f776e61626c653a206e6577206f776e657220697320746865207a65726f206160008301527f64647265737300000000000000000000000000000000000000000000000000006020830152604082019050919050565b6000612f1b601683613927565b91507f4c69676874686f7573653a204e4f5f41554354494f4e000000000000000000006000830152602082019050919050565b6000612f5b601383613927565b91507f4c69676874686f7573653a204e4f5f55534552000000000000000000000000006000830152602082019050919050565b6000612f9b601e83613927565b91507f4c69676874686f7573653a20494e56414c49445f50524f4a4543545f494400006000830152602082019050919050565b6000612fdb601783613927565b91507f4c69676874686f7573653a2054494d455f5041535345440000000000000000006000830152602082019050919050565b600061301b601e83613927565b91507f4c69676874686f7573653a20494e434f52524543545f454e445f54494d4500006000830152602082019050919050565b600061305b601b83613927565b91507f4c69676874686f7573653a20414c52454144595f5354415254454400000000006000830152602082019050919050565b600061309b601a83613927565b91507f4c69676874686f7573653a204e4f5f50524546554e445f5945540000000000006000830152602082019050919050565b60006130db602083613927565b91507f4f776e61626c653a2063616c6c6572206973206e6f7420746865206f776e65726000830152602082019050919050565b600061311b601983613927565b91507f4c69676874686f7573653a205a45524f5f504f4f4c5f434150000000000000006000830152602082019050919050565b600061315b601c83613927565b91507f4c69676874686f7573653a205a45524f5f46495845445f5052494345000000006000830152602082019050919050565b600061319b602383613927565b91507f4c69676874686f7573653a204e4f5f524547495354524154494f4e5f454e445f60008301527f59455400000000000000000000000000000000000000000000000000000000006020830152604082019050919050565b6000613201601d83613927565b91507f4c69676874686f7573653a20414c52454144595f494e495449415445440000006000830152602082019050919050565b6000613241601c83613927565b91507f4c69676874686f7573653a20494e56414c49445f454e445f54494d45000000006000830152602082019050919050565b6000613281601583613927565b91507f4c69676874686f7573653a20464f5242494444454e00000000000000000000006000830152602082019050919050565b60006132c1601f83613927565b91507f4c69676874686f7573653a204e4f5f524547495354524154494f4e5f594554006000830152602082019050919050565b6000613301601a83613927565b91507f4c69676874686f7573653a205a45524f5f504152414d455445520000000000006000830152602082019050919050565b6000613341602683613927565b91507f4c69676874686f7573653a204e4f5f414c4c4f434154494f4e5f434f4d50454e60008301527f534154494f4e00000000000000000000000000000000000000000000000000006020830152604082019050919050565b60006133a7601983613927565b91507f4c69676874686f7573653a20414c52454144595f4144444544000000000000006000830152602082019050919050565b60006133e7601883613927565b91507f4c69676874686f7573653a205a45524f5f4144445245535300000000000000006000830152602082019050919050565b61342381613acc565b82525050565b600060208201905061343e6000830184612e3a565b92915050565b60006020820190506134596000830184612e59565b92915050565b6000602082019050818103600083015261347881612e68565b9050919050565b6000602082019050818103600083015261349881612ea8565b9050919050565b600060208201905081810360008301526134b881612f0e565b9050919050565b600060208201905081810360008301526134d881612f4e565b9050919050565b600060208201905081810360008301526134f881612f8e565b9050919050565b6000602082019050818103600083015261351881612fce565b9050919050565b600060208201905081810360008301526135388161300e565b9050919050565b600060208201905081810360008301526135588161304e565b9050919050565b600060208201905081810360008301526135788161308e565b9050919050565b60006020820190508181036000830152613598816130ce565b9050919050565b600060208201905081810360008301526135b88161310e565b9050919050565b600060208201905081810360008301526135d88161314e565b9050919050565b600060208201905081810360008301526135f88161318e565b9050919050565b60006020820190508181036000830152613618816131f4565b9050919050565b6000602082019050818103600083015261363881613234565b9050919050565b6000602082019050818103600083015261365881613274565b9050919050565b60006020820190508181036000830152613678816132b4565b9050919050565b60006020820190508181036000830152613698816132f4565b9050919050565b600060208201905081810360008301526136b881613334565b9050919050565b600060208201905081810360008301526136d88161339a565b9050919050565b600060208201905081810360008301526136f8816133da565b9050919050565b6000602082019050613714600083018461341a565b92915050565b600060408201905061372f600083018561341a565b61373c6020830184612e3a565b9392505050565b6000604082019050613758600083018561341a565b613765602083018461341a565b9392505050565b6000606082019050613781600083018661341a565b61378e602083018561341a565b61379b6040830184612e3a565b949350505050565b60006080820190506137b8600083018761341a565b6137c5602083018661341a565b6137d26040830185612e3a565b6137df6060830184612e3a565b95945050505050565b600060c0820190506137fd600083018961341a565b61380a602083018861341a565b6138176040830187612e3a565b613824606083018661341a565b613831608083018561341a565b61383e60a083018461341a565b979650505050505050565b60006101008201905061385f600083018761341a565b61386c602083018661341a565b6138796040830185612e49565b61388660a0830184612e49565b95945050505050565b60006080820190506138a4600083018761341a565b6138b1602083018661341a565b6138be604083018561341a565b6138cb606083018461341a565b95945050505050565b600060a0820190506138e9600083018861341a565b6138f6602083018761341a565b613903604083018661341a565b613910606083018561341a565b61391d608083018461341a565b9695505050505050565b600082825260208201905092915050565b600061394382613acc565b915061394e83613acc565b9250827fffffffffffffffffffffffffffffffffffffffffffffffffffffffffffffffff0382111561398357613982613af2565b5b828201905092915050565b600061399982613acc565b91506139a483613acc565b9250826139b4576139b3613b21565b5b828204905092915050565b60006139ca82613acc565b91506139d583613acc565b9250817fffffffffffffffffffffffffffffffffffffffffffffffffffffffffffffffff0483118215151615613a0e57613a0d613af2565b5b828202905092915050565b6000613a2482613acc565b9150613a2f83613acc565b925082821015613a4257613a41613af2565b5b828203905092915050565b6000613a5882613ad6565b9150613a6383613ad6565b925082821015613a7657613a75613af2565b5b828203905092915050565b6000613a8c82613aac565b9050919050565b60008115159050919050565b60008160000b9050919050565b600073ffffffffffffffffffffffffffffffffffffffff82169050919050565b6000819050919050565b600060ff82169050919050565b82818337600083830152505050565b7f4e487b7100000000000000000000000000000000000000000000000000000000600052601160045260246000fd5b7f4e487b7100000000000000000000000000000000000000000000000000000000600052601260045260246000fd5b613b5981613a81565b8114613b6457600080fd5b50565b613b7081613a9f565b8114613b7b57600080fd5b50565b613b8781613acc565b8114613b9257600080fd5b5056fea26469706673582212207f71c2992dbae25e215f73a48b6c20a9661d12c300f921feea27224af7387a4c64736f6c63430008000033",
  "linkReferences": {},
  "deployedLinkReferences": {}
}