{
  "_format": "hh-sol-artifact-1",
  "contractName": "LighthouseProject",
  "sourceName": "contracts/LighthouseProject.sol",
  "abi": [
    {
      "inputs": [
        {
          "internalType": "address",
          "name": "verifier",
          "type": "address"
        }
      ],
      "stateMutability": "nonpayable",
      "type": "constructor"
    },
    {
      "anonymous": false,
      "inputs": [
        {
          "indexed": true,
          "internalType": "uint256",
          "name": "id",
          "type": "uint256"
        },
        {
          "indexed": true,
          "internalType": "address",
          "name": "nft",
          "type": "address"
        },
        {
          "indexed": false,
          "internalType": "uint256",
          "name": "prefundAllocation",
          "type": "uint256"
        },
        {
          "indexed": false,
          "internalType": "uint256",
          "name": "prefundCompensation",
          "type": "uint256"
        },
        {
          "indexed": false,
          "internalType": "uint256",
          "name": "auctionAllocation",
          "type": "uint256"
        },
        {
          "indexed": false,
          "internalType": "uint256",
          "name": "auctionCompensation",
          "type": "uint256"
        }
      ],
      "name": "InitAllocationCompensation",
      "type": "event"
    },
    {
      "anonymous": false,
      "inputs": [
        {
          "indexed": true,
          "internalType": "uint256",
          "name": "id",
          "type": "uint256"
        },
        {
          "indexed": false,
          "internalType": "uint256",
          "name": "startTime",
          "type": "uint256"
        },
        {
          "indexed": false,
          "internalType": "uint256",
          "name": "endTime",
          "type": "uint256"
        }
      ],
      "name": "InitAuction",
      "type": "event"
    },
    {
      "anonymous": false,
      "inputs": [
        {
          "indexed": true,
          "internalType": "uint256",
          "name": "id",
          "type": "uint256"
        },
        {
          "indexed": true,
          "internalType": "address",
          "name": "token",
          "type": "address"
        },
        {
          "indexed": false,
          "internalType": "uint256",
          "name": "startTime",
          "type": "uint256"
        },
        {
          "indexed": false,
          "internalType": "uint256",
          "name": "endTime",
          "type": "uint256"
        },
        {
          "indexed": false,
          "internalType": "uint256[3]",
          "name": "pools",
          "type": "uint256[3]"
        },
        {
          "indexed": false,
          "internalType": "uint256[3]",
          "name": "investAmounts",
          "type": "uint256[3]"
        }
      ],
      "name": "InitPrefund",
      "type": "event"
    },
    {
      "anonymous": false,
      "inputs": [
        {
          "indexed": true,
          "internalType": "uint256",
          "name": "id",
          "type": "uint256"
        },
        {
          "indexed": false,
          "internalType": "uint256",
          "name": "startTime",
          "type": "uint256"
        },
        {
          "indexed": false,
          "internalType": "uint256",
          "name": "endTime",
          "type": "uint256"
        }
      ],
      "name": "InitRegistration",
      "type": "event"
    },
    {
      "anonymous": false,
      "inputs": [
        {
          "indexed": true,
          "internalType": "address",
          "name": "previousOwner",
          "type": "address"
        },
        {
          "indexed": true,
          "internalType": "address",
          "name": "newOwner",
          "type": "address"
        }
      ],
      "name": "OwnershipTransferred",
      "type": "event"
    },
    {
      "anonymous": false,
      "inputs": [
        {
          "indexed": true,
          "internalType": "address",
          "name": "user",
          "type": "address"
        },
        {
          "indexed": false,
          "internalType": "bool",
          "name": "allowed",
          "type": "bool"
        }
      ],
      "name": "ProjectEditor",
      "type": "event"
    },
    {
      "anonymous": false,
      "inputs": [
        {
          "indexed": true,
          "internalType": "address",
          "name": "verifier",
          "type": "address"
        }
      ],
      "name": "SetKYCVerifier",
      "type": "event"
    },
    {
      "anonymous": false,
      "inputs": [
        {
          "indexed": true,
          "internalType": "uint256",
          "name": "id",
          "type": "uint256"
        },
        {
          "indexed": false,
          "internalType": "uint256",
          "name": "scaledPrefundAmount",
          "type": "uint256"
        },
        {
          "indexed": false,
          "internalType": "uint256",
          "name": "scaledCompensationAmount",
          "type": "uint256"
        }
      ],
      "name": "TransferPrefund",
      "type": "event"
    },
    {
      "inputs": [
        {
          "internalType": "address",
          "name": "_user",
          "type": "address"
        }
      ],
      "name": "addEditor",
      "outputs": [],
      "stateMutability": "nonpayable",
      "type": "function"
    },
    {
      "inputs": [
        {
          "internalType": "uint256",
          "name": "id",
          "type": "uint256"
        }
      ],
      "name": "allocationCompensationInitialized",
      "outputs": [
        {
          "internalType": "bool",
          "name": "",
          "type": "bool"
        }
      ],
      "stateMutability": "view",
      "type": "function"
    },
    {
      "inputs": [
        {
          "internalType": "uint256",
          "name": "id",
          "type": "uint256"
        }
      ],
      "name": "auctionEndTime",
      "outputs": [
        {
          "internalType": "uint256",
          "name": "",
          "type": "uint256"
        }
      ],
      "stateMutability": "view",
      "type": "function"
    },
    {
      "inputs": [
        {
          "internalType": "uint256",
          "name": "id",
          "type": "uint256"
        }
      ],
      "name": "auctionInitialized",
      "outputs": [
        {
          "internalType": "bool",
          "name": "",
          "type": "bool"
        }
      ],
      "stateMutability": "view",
      "type": "function"
    },
    {
      "inputs": [
        {
          "internalType": "uint256",
          "name": "id",
          "type": "uint256"
        }
      ],
      "name": "auctionScaledUnit",
      "outputs": [
        {
          "internalType": "uint256",
          "name": "",
          "type": "uint256"
        },
        {
          "internalType": "uint256",
          "name": "",
          "type": "uint256"
        }
      ],
      "stateMutability": "view",
      "type": "function"
    },
    {
      "inputs": [
        {
          "internalType": "uint256",
          "name": "id",
          "type": "uint256"
        }
      ],
      "name": "auctionTimeInfo",
      "outputs": [
        {
          "internalType": "uint256",
          "name": "",
          "type": "uint256"
        },
        {
          "internalType": "uint256",
          "name": "",
          "type": "uint256"
        }
      ],
      "stateMutability": "view",
      "type": "function"
    },
    {
      "inputs": [
        {
          "internalType": "uint256",
          "name": "id",
          "type": "uint256"
        }
      ],
      "name": "auctionTotalPool",
      "outputs": [
        {
          "internalType": "uint256",
          "name": "",
          "type": "uint256"
        }
      ],
      "stateMutability": "view",
      "type": "function"
    },
    {
      "inputs": [
        {
          "internalType": "uint256",
          "name": "",
          "type": "uint256"
        }
      ],
      "name": "auctions",
      "outputs": [
        {
          "internalType": "uint256",
          "name": "startTime",
          "type": "uint256"
        },
        {
          "internalType": "uint256",
          "name": "endTime",
          "type": "uint256"
        },
        {
          "internalType": "uint256",
          "name": "spent",
          "type": "uint256"
        },
        {
          "internalType": "uint256",
          "name": "scaledAllocation",
          "type": "uint256"
        },
        {
          "internalType": "uint256",
          "name": "scaledCompensation",
          "type": "uint256"
        },
        {
          "internalType": "bool",
          "name": "transferredPrefund",
          "type": "bool"
        }
      ],
      "stateMutability": "view",
      "type": "function"
    },
    {
      "inputs": [
        {
          "internalType": "uint256",
          "name": "id",
          "type": "uint256"
        },
        {
          "internalType": "uint256",
          "name": "amount",
          "type": "uint256"
        }
      ],
      "name": "collectAuctionAmount",
      "outputs": [],
      "stateMutability": "nonpayable",
      "type": "function"
    },
    {
      "inputs": [
        {
          "internalType": "uint256",
          "name": "id",
          "type": "uint256"
        },
        {
          "internalType": "int8",
          "name": "tier",
          "type": "int8"
        }
      ],
      "name": "collectPrefundInvestment",
      "outputs": [],
      "stateMutability": "nonpayable",
      "type": "function"
    },
    {
      "inputs": [
        {
          "internalType": "address",
          "name": "_user",
          "type": "address"
        }
      ],
      "name": "deleteEditorEditor",
      "outputs": [],
      "stateMutability": "nonpayable",
      "type": "function"
    },
    {
      "inputs": [
        {
          "internalType": "address",
          "name": "",
          "type": "address"
        }
      ],
      "name": "editors",
      "outputs": [
        {
          "internalType": "bool",
          "name": "",
          "type": "bool"
        }
      ],
      "stateMutability": "view",
      "type": "function"
    },
    {
      "inputs": [],
      "name": "getKYCVerifier",
      "outputs": [
        {
          "internalType": "address",
          "name": "",
          "type": "address"
        }
      ],
      "stateMutability": "view",
      "type": "function"
    },
    {
      "inputs": [
        {
          "internalType": "uint256",
          "name": "id",
          "type": "uint256"
        },
        {
          "internalType": "uint256",
          "name": "prefundAllocation",
          "type": "uint256"
        },
        {
          "internalType": "uint256",
          "name": "prefundCompensation",
          "type": "uint256"
        },
        {
          "internalType": "uint256",
          "name": "auctionAllocation",
          "type": "uint256"
        },
        {
          "internalType": "uint256",
          "name": "auctionCompensation",
          "type": "uint256"
        },
        {
          "internalType": "address",
          "name": "nft",
          "type": "address"
        }
      ],
      "name": "initAllocationCompensation",
      "outputs": [],
      "stateMutability": "nonpayable",
      "type": "function"
    },
    {
      "inputs": [
        {
          "internalType": "uint256",
          "name": "id",
          "type": "uint256"
        },
        {
          "internalType": "uint256",
          "name": "startTime",
          "type": "uint256"
        },
        {
          "internalType": "uint256",
          "name": "endTime",
          "type": "uint256"
        }
      ],
      "name": "initAuction",
      "outputs": [],
      "stateMutability": "nonpayable",
      "type": "function"
    },
    {
      "inputs": [
        {
          "internalType": "uint256",
          "name": "id",
          "type": "uint256"
        },
        {
          "internalType": "uint256",
          "name": "startTime",
          "type": "uint256"
        },
        {
          "internalType": "uint256",
          "name": "endTime",
          "type": "uint256"
        },
        {
          "internalType": "uint256[3]",
          "name": "investAmounts",
          "type": "uint256[3]"
        },
        {
          "internalType": "uint256[3]",
          "name": "pools",
          "type": "uint256[3]"
        },
        {
          "internalType": "address",
          "name": "_token",
          "type": "address"
        }
      ],
      "name": "initPrefund",
      "outputs": [],
      "stateMutability": "nonpayable",
      "type": "function"
    },
    {
      "inputs": [
        {
          "internalType": "uint256",
          "name": "startTime",
          "type": "uint256"
        },
        {
          "internalType": "uint256",
          "name": "endTime",
          "type": "uint256"
        }
      ],
      "name": "initRegistration",
      "outputs": [],
      "stateMutability": "nonpayable",
      "type": "function"
    },
    {
      "inputs": [],
      "name": "kycVerifier",
      "outputs": [
        {
          "internalType": "address",
          "name": "",
          "type": "address"
        }
      ],
      "stateMutability": "view",
      "type": "function"
    },
    {
      "inputs": [
        {
          "internalType": "uint256",
          "name": "id",
          "type": "uint256"
        }
      ],
      "name": "nftAddress",
      "outputs": [
        {
          "internalType": "address",
          "name": "",
          "type": "address"
        }
      ],
      "stateMutability": "view",
      "type": "function"
    },
    {
      "inputs": [
        {
          "internalType": "uint256",
          "name": "",
          "type": "uint256"
        }
      ],
      "name": "nfts",
      "outputs": [
        {
          "internalType": "address",
          "name": "",
          "type": "address"
        }
      ],
      "stateMutability": "view",
      "type": "function"
    },
    {
      "inputs": [],
      "name": "owner",
      "outputs": [
        {
          "internalType": "address",
          "name": "",
          "type": "address"
        }
      ],
      "stateMutability": "view",
      "type": "function"
    },
    {
      "inputs": [
        {
          "internalType": "uint256",
          "name": "id",
          "type": "uint256"
        }
      ],
      "name": "prefundEndTime",
      "outputs": [
        {
          "internalType": "uint256",
          "name": "",
          "type": "uint256"
        }
      ],
      "stateMutability": "view",
      "type": "function"
    },
    {
      "inputs": [
        {
          "internalType": "uint256",
          "name": "id",
          "type": "uint256"
        }
      ],
      "name": "prefundInitialized",
      "outputs": [
        {
          "internalType": "bool",
          "name": "",
          "type": "bool"
        }
      ],
      "stateMutability": "view",
      "type": "function"
    },
    {
      "inputs": [
        {
          "internalType": "uint256",
          "name": "id",
          "type": "uint256"
        },
        {
          "internalType": "int8",
          "name": "tier",
          "type": "int8"
        }
      ],
      "name": "prefundInvestAmount",
      "outputs": [
        {
          "internalType": "uint256",
          "name": "",
          "type": "uint256"
        },
        {
          "internalType": "address",
          "name": "",
          "type": "address"
        }
      ],
      "stateMutability": "view",
      "type": "function"
    },
    {
      "inputs": [
        {
          "internalType": "uint256",
          "name": "id",
          "type": "uint256"
        },
        {
          "internalType": "int8",
          "name": "tier",
          "type": "int8"
        }
      ],
      "name": "prefundPoolInfo",
      "outputs": [
        {
          "internalType": "uint256",
          "name": "",
          "type": "uint256"
        },
        {
          "internalType": "uint256",
          "name": "",
          "type": "uint256"
        }
      ],
      "stateMutability": "view",
      "type": "function"
    },
    {
      "inputs": [
        {
          "internalType": "uint256",
          "name": "id",
          "type": "uint256"
        }
      ],
      "name": "prefundScaledUnit",
      "outputs": [
        {
          "internalType": "uint256",
          "name": "",
          "type": "uint256"
        },
        {
          "internalType": "uint256",
          "name": "",
          "type": "uint256"
        }
      ],
      "stateMutability": "view",
      "type": "function"
    },
    {
      "inputs": [
        {
          "internalType": "uint256",
          "name": "id",
          "type": "uint256"
        }
      ],
      "name": "prefundTimeInfo",
      "outputs": [
        {
          "internalType": "uint256",
          "name": "",
          "type": "uint256"
        },
        {
          "internalType": "uint256",
          "name": "",
          "type": "uint256"
        }
      ],
      "stateMutability": "view",
      "type": "function"
    },
    {
      "inputs": [
        {
          "internalType": "uint256",
          "name": "id",
          "type": "uint256"
        }
      ],
      "name": "prefundTotalPool",
      "outputs": [
        {
          "internalType": "uint256",
          "name": "",
          "type": "uint256"
        },
        {
          "internalType": "uint256",
          "name": "",
          "type": "uint256"
        }
      ],
      "stateMutability": "view",
      "type": "function"
    },
    {
      "inputs": [
        {
          "internalType": "uint256",
          "name": "",
          "type": "uint256"
        }
      ],
      "name": "prefunds",
      "outputs": [
        {
          "internalType": "uint256",
          "name": "startTime",
          "type": "uint256"
        },
        {
          "internalType": "uint256",
          "name": "endTime",
          "type": "uint256"
        },
        {
          "internalType": "address",
          "name": "token",
          "type": "address"
        },
        {
          "internalType": "uint256",
          "name": "scaledAllocation",
          "type": "uint256"
        },
        {
          "internalType": "uint256",
          "name": "scaledCompensation",
          "type": "uint256"
        },
        {
          "internalType": "uint256",
          "name": "scaledRatio",
          "type": "uint256"
        }
      ],
      "stateMutability": "view",
      "type": "function"
    },
    {
      "inputs": [
        {
          "internalType": "uint256",
          "name": "id",
          "type": "uint256"
        }
      ],
      "name": "registrationEndTime",
      "outputs": [
        {
          "internalType": "uint256",
          "name": "",
          "type": "uint256"
        }
      ],
      "stateMutability": "view",
      "type": "function"
    },
    {
      "inputs": [
        {
          "internalType": "uint256",
          "name": "id",
          "type": "uint256"
        }
      ],
      "name": "registrationInfo",
      "outputs": [
        {
          "internalType": "uint256",
          "name": "",
          "type": "uint256"
        },
        {
          "internalType": "uint256",
          "name": "",
          "type": "uint256"
        }
      ],
      "stateMutability": "view",
      "type": "function"
    },
    {
      "inputs": [
        {
          "internalType": "uint256",
          "name": "id",
          "type": "uint256"
        }
      ],
      "name": "registrationInitialized",
      "outputs": [
        {
          "internalType": "bool",
          "name": "",
          "type": "bool"
        }
      ],
      "stateMutability": "view",
      "type": "function"
    },
    {
      "inputs": [
        {
          "internalType": "uint256",
          "name": "",
          "type": "uint256"
        }
      ],
      "name": "registrations",
      "outputs": [
        {
          "internalType": "uint256",
          "name": "startTime",
          "type": "uint256"
        },
        {
          "internalType": "uint256",
          "name": "endTime",
          "type": "uint256"
        }
      ],
      "stateMutability": "view",
      "type": "function"
    },
    {
      "inputs": [],
      "name": "renounceOwnership",
      "outputs": [],
      "stateMutability": "nonpayable",
      "type": "function"
    },
    {
      "inputs": [
        {
          "internalType": "address",
          "name": "verifier",
          "type": "address"
        }
      ],
      "name": "setKYCVerifier",
      "outputs": [],
      "stateMutability": "nonpayable",
      "type": "function"
    },
    {
      "inputs": [],
      "name": "totalProjects",
      "outputs": [
        {
          "internalType": "uint256",
          "name": "",
          "type": "uint256"
        }
      ],
      "stateMutability": "view",
      "type": "function"
    },
    {
      "inputs": [
        {
          "internalType": "address",
          "name": "newOwner",
          "type": "address"
        }
      ],
      "name": "transferOwnership",
      "outputs": [],
      "stateMutability": "nonpayable",
      "type": "function"
    },
    {
      "inputs": [
        {
          "internalType": "uint256",
          "name": "id",
          "type": "uint256"
        }
      ],
      "name": "transferPrefund",
      "outputs": [],
      "stateMutability": "nonpayable",
      "type": "function"
    },
    {
      "inputs": [
        {
          "internalType": "uint256",
          "name": "id",
          "type": "uint256"
        }
      ],
      "name": "transferredPrefund",
      "outputs": [
        {
          "internalType": "bool",
          "name": "",
          "type": "bool"
        }
      ],
      "stateMutability": "view",
      "type": "function"
    },
    {
      "inputs": [
        {
          "internalType": "address",
          "name": "",
          "type": "address"
        }
      ],
      "name": "usedNfts",
      "outputs": [
        {
          "internalType": "uint256",
          "name": "",
          "type": "uint256"
        }
      ],
      "stateMutability": "view",
      "type": "function"
    },
    {
      "inputs": [
        {
          "internalType": "uint256",
          "name": "id",
          "type": "uint256"
        }
      ],
      "name": "validProjectId",
      "outputs": [
        {
          "internalType": "bool",
          "name": "",
          "type": "bool"
        }
      ],
      "stateMutability": "view",
      "type": "function"
    }
  ],
  "bytecode": "0x60806040523480156200001157600080fd5b50604051620042e4380380620042e48339818101604052810190620000379190620003c5565b620000576200004b6200008660201b60201c565b6200008e60201b60201c565b62000068816200015260201b60201c565b6200007f60016200036f60201b62002c841760201c565b506200057c565b600033905090565b60008060009054906101000a900473ffffffffffffffffffffffffffffffffffffffff169050816000806101000a81548173ffffffffffffffffffffffffffffffffffffffff021916908373ffffffffffffffffffffffffffffffffffffffff1602179055508173ffffffffffffffffffffffffffffffffffffffff168173ffffffffffffffffffffffffffffffffffffffff167f8be0079c531659141344cd1fd0a4f28419497f9722a3daafe3b4186f6b6457e060405160405180910390a35050565b620001626200008660201b60201c565b73ffffffffffffffffffffffffffffffffffffffff16620001886200038560201b60201c565b73ffffffffffffffffffffffffffffffffffffffff1614620001e1576040517f08c379a0000000000000000000000000000000000000000000000000000000008152600401620001d890620004d9565b60405180910390fd5b600073ffffffffffffffffffffffffffffffffffffffff168173ffffffffffffffffffffffffffffffffffffffff16141562000254576040517f08c379a00000000000000000000000000000000000000000000000000000000081526004016200024b90620004fb565b60405180910390fd5b8073ffffffffffffffffffffffffffffffffffffffff16600260009054906101000a900473ffffffffffffffffffffffffffffffffffffffff1673ffffffffffffffffffffffffffffffffffffffff161415620002e8576040517f08c379a0000000000000000000000000000000000000000000000000000000008152600401620002df90620004b7565b60405180910390fd5b80600260006101000a81548173ffffffffffffffffffffffffffffffffffffffff021916908373ffffffffffffffffffffffffffffffffffffffff1602179055508073ffffffffffffffffffffffffffffffffffffffff167f4cc9cc2c1c94b0f2a3403db2d1758433cbfa23312f4870c2a182918475ddcf0560405160405180910390a250565b6001816000016000828254019250508190555050565b60008060009054906101000a900473ffffffffffffffffffffffffffffffffffffffff16905090565b600081519050620003bf8162000562565b92915050565b600060208284031215620003d857600080fd5b6000620003e884828501620003ae565b91505092915050565b6000620004006018836200051d565b91507f4c69676874686f7573653a2053414d455f4144445245535300000000000000006000830152602082019050919050565b6000620004426020836200051d565b91507f4f776e61626c653a2063616c6c6572206973206e6f7420746865206f776e65726000830152602082019050919050565b6000620004846018836200051d565b91507f4c69676874686f7573653a205a45524f5f4144445245535300000000000000006000830152602082019050919050565b60006020820190508181036000830152620004d281620003f1565b9050919050565b60006020820190508181036000830152620004f48162000433565b9050919050565b60006020820190508181036000830152620005168162000475565b9050919050565b600082825260208201905092915050565b60006200053b8262000542565b9050919050565b600073ffffffffffffffffffffffffffffffffffffffff82169050919050565b6200056d816200052e565b81146200057957600080fd5b50565b613d58806200058c6000396000f3fe608060405234801561001057600080fd5b50600436106102535760003560e01c8063943df31511610146578063be27db00116100c3578063e5975bdc11610087578063e5975bdc14610800578063f2fde38b1461081c578063f4ddb5be14610838578063f8285d3814610869578063f88fba8c14610885578063fb500247146108b557610253565b8063be27db0014610760578063c82189e01461077c578063cd52844d14610798578063d0b0f392146107c8578063d17f6417146107e457610253565b8063b22e912b1161010a578063b22e912b14610692578063b47e9f3e146106c2578063b5f5cf70146106f3578063b60da08514610724578063b937e7cc1461074257610253565b8063943df315146105b25780639922a1d5146105e35780639c361e4e14610614578063a84b069214610632578063ae9d403a1461066257610253565b806362a01ac2116101d4578063777de70411610198578063777de704146104ce5780638d7365a9146104fe5780638da5cb5b1461052e5780638de6a11a1461054c5780638ee2a6d11461058157610253565b806362a01ac21461041757806364507efc146104335780636592b72414610463578063715018a614610493578063748028571461049d57610253565b806337979b801161021b57806337979b801461034a5780634005c3df1461036657806341e0f1b114610396578063428ba893146103b2578063571a26a0146103e257610253565b806305b576e3146102585780631b4ead451461028857806324d2cb17146102b8578063265aa621146102e95780632693b12c14610319575b600080fd5b610272600480360381019061026d9190612e57565b6108d1565b60405161027f91906138fa565b60405180910390f35b6102a2600480360381019061029d9190612e57565b6108f1565b6040516102af919061363f565b60405180910390f35b6102d260048036038101906102cd9190612e57565b610959565b6040516102e092919061393e565b60405180910390f35b61030360048036038101906102fe9190612e57565b610987565b6040516103109190613624565b60405180910390f35b610333600480360381019061032e9190612e57565b6109ba565b60405161034192919061393e565b60405180910390f35b610364600480360381019061035f9190612ef8565b6109e8565b005b610380600480360381019061037b9190612e2e565b610ca5565b60405161038d91906138fa565b60405180910390f35b6103b060048036038101906103ab9190612ebc565b610cbd565b005b6103cc60048036038101906103c79190612e57565b610d7d565b6040516103d9919061363f565b60405180910390f35b6103fc60048036038101906103f79190612e57565b610dbd565b60405161040e96959493929190613a53565b60405180910390f35b610431600480360381019061042c9190612e2e565b610e06565b005b61044d60048036038101906104489190612e57565b611028565b60405161045a919061363f565b60405180910390f35b61047d60048036038101906104789190612e57565b611068565b60405161048a919061363f565b60405180910390f35b61049b6110a8565b005b6104b760048036038101906104b29190612e80565b611130565b6040516104c592919061393e565b60405180910390f35b6104e860048036038101906104e39190612e57565b6111ea565b6040516104f591906138fa565b60405180910390f35b61051860048036038101906105139190612e57565b61120a565b604051610525919061363f565b60405180910390f35b61053661122a565b6040516105439190613624565b60405180910390f35b61056660048036038101906105619190612e57565b611253565b60405161057896959493929190613967565b60405180910390f35b61059b60048036038101906105969190612e57565b6112af565b6040516105a992919061393e565b60405180910390f35b6105cc60048036038101906105c79190612e57565b6112dd565b6040516105da92919061393e565b60405180910390f35b6105fd60048036038101906105f89190612e57565b6114af565b60405161060b92919061393e565b60405180910390f35b61061c6114fb565b60405161062991906138fa565b60405180910390f35b61064c60048036038101906106479190612e57565b61150c565b60405161065991906138fa565b60405180910390f35b61067c60048036038101906106779190612e57565b61152c565b60405161068991906138fa565b60405180910390f35b6106ac60048036038101906106a79190612e57565b61154c565b6040516106b9919061363f565b60405180910390f35b6106dc60048036038101906106d79190612e57565b611579565b6040516106ea92919061393e565b60405180910390f35b61070d60048036038101906107089190612e80565b611693565b60405161071b929190613915565b60405180910390f35b61072c611731565b6040516107399190613624565b60405180910390f35b61074a61175b565b6040516107579190613624565b60405180910390f35b61077a60048036038101906107759190612ebc565b611781565b005b61079660048036038101906107919190612e80565b611951565b005b6107b260048036038101906107ad9190612e2e565b611adb565b6040516107bf919061363f565b60405180910390f35b6107e260048036038101906107dd9190612e57565b611afb565b005b6107fe60048036038101906107f99190612e2e565b611d7f565b005b61081a60048036038101906108159190612e2e565b611f83565b005b61083660048036038101906108319190612e2e565b6121a6565b005b610852600480360381019061084d9190612e57565b61229e565b60405161086092919061393e565b60405180910390f35b610883600480360381019061087e9190612f47565b6122c2565b005b61089f600480360381019061089a9190612e57565b612832565b6040516108ac9190613624565b60405180910390f35b6108cf60048036038101906108ca9190612fd2565b61286f565b005b600060056000838152602001908152602001600020600101549050919050565b60006108fc8261120a565b6109095760009050610954565b60006005600084815260200190815260200160002090506000600660008581526020019081526020016000209050600082600c015411801561094f575060008160030154115b925050505b919050565b6000806000600660008581526020019081526020016000209050806000015481600101549250925050915091565b60076020528060005260406000206000915054906101000a900473ffffffffffffffffffffffffffffffffffffffff1681565b6000806000600460008581526020019081526020016000209050806000015481600101549250925050915091565b6109f0612c9a565b73ffffffffffffffffffffffffffffffffffffffff16610a0e61122a565b73ffffffffffffffffffffffffffffffffffffffff1614610a64576040517f08c379a0000000000000000000000000000000000000000000000000000000008152600401610a5b9061379a565b60405180910390fd5b610a6d8361120a565b610aac576040517f08c379a0000000000000000000000000000000000000000000000000000000008152600401610aa3906136fa565b60405180910390fd5b600082118015610abb57508142105b610afa576040517f08c379a0000000000000000000000000000000000000000000000000000000008152600401610af19061365a565b60405180910390fd5b600081118015610b0a5750808214155b8015610b1557508082105b610b54576040517f08c379a0000000000000000000000000000000000000000000000000000000008152600401610b4b9061383a565b60405180910390fd5b60006006600085815260200190815260200160002090506000816000015414610bb2576040517f08c379a0000000000000000000000000000000000000000000000000000000008152600401610ba9906138ba565b60405180910390fd5b60006005600086815260200190815260200160002060010154905060008111610c10576040517f08c379a0000000000000000000000000000000000000000000000000000000008152600401610c079061377a565b60405180910390fd5b808411610c52576040517f08c379a0000000000000000000000000000000000000000000000000000000008152600401610c49906137fa565b60405180910390fd5b838260000181905550828260010181905550847f9b3770df20128a91841fed18e7e8efbd28645b85d6e95c9feeff96f7c9bd83968585604051610c9692919061393e565b60405180910390a25050505050565b60086020528060005260406000206000915090505481565b600360003373ffffffffffffffffffffffffffffffffffffffff1673ffffffffffffffffffffffffffffffffffffffff16815260200190815260200160002060009054906101000a900460ff16610d49576040517f08c379a0000000000000000000000000000000000000000000000000000000008152600401610d409061385a565b60405180910390fd5b6000600660008481526020019081526020016000209050818160020154610d709190613ac5565b8160020181905550505050565b6000610d888261120a565b610d955760009050610db8565b600060046000848152602001908152602001600020905060008160000154119150505b919050565b60066020528060005260406000206000915090508060000154908060010154908060020154908060030154908060040154908060050160009054906101000a900460ff16905086565b610e0e612c9a565b73ffffffffffffffffffffffffffffffffffffffff16610e2c61122a565b73ffffffffffffffffffffffffffffffffffffffff1614610e82576040517f08c379a0000000000000000000000000000000000000000000000000000000008152600401610e799061379a565b60405180910390fd5b600073ffffffffffffffffffffffffffffffffffffffff168173ffffffffffffffffffffffffffffffffffffffff161415610ef2576040517f08c379a0000000000000000000000000000000000000000000000000000000008152600401610ee9906138da565b60405180910390fd5b600360008273ffffffffffffffffffffffffffffffffffffffff1673ffffffffffffffffffffffffffffffffffffffff16815260200190815260200160002060009054906101000a900460ff16610f7e576040517f08c379a0000000000000000000000000000000000000000000000000000000008152600401610f75906136da565b60405180910390fd5b6000600360008373ffffffffffffffffffffffffffffffffffffffff1673ffffffffffffffffffffffffffffffffffffffff16815260200190815260200160002060006101000a81548160ff0219169083151502179055508073ffffffffffffffffffffffffffffffffffffffff167fa995c74341d87d6382e611e2f9439787e1d6c954ed0032d4402817eb78f225c8600060405161101d919061363f565b60405180910390a250565b60006110338261120a565b6110405760009050611063565b600060066000848152602001908152602001600020905060008160000154119150505b919050565b60006110738261120a565b61108057600090506110a3565b600060056000848152602001908152602001600020905060008160000154119150505b919050565b6110b0612c9a565b73ffffffffffffffffffffffffffffffffffffffff166110ce61122a565b73ffffffffffffffffffffffffffffffffffffffff1614611124576040517f08c379a000000000000000000000000000000000000000000000000000000000815260040161111b9061379a565b60405180910390fd5b61112e6000612ca2565b565b600080600060056000868152602001908152602001600020905060006001856111599190613bda565b9050816005018160ff166003811061119a577f4e487b7100000000000000000000000000000000000000000000000000000000600052603260045260246000fd5b0154826008018260ff16600381106111db577f4e487b7100000000000000000000000000000000000000000000000000000000600052603260045260246000fd5b01549350935050509250929050565b600060066000838152602001908152602001600020600101549050919050565b6000808211801561122357506112206001612d66565b82105b9050919050565b60008060009054906101000a900473ffffffffffffffffffffffffffffffffffffffff16905090565b600560205280600052604060002060009150905080600001549080600101549080600b0160009054906101000a900473ffffffffffffffffffffffffffffffffffffffff169080600c01549080600d01549080600e0154905086565b6000806000600560008581526020019081526020016000209050806000015481600101549250925050915091565b6000806000600560008581526020019081526020016000209050600081600801600260038110611336577f4e487b7100000000000000000000000000000000000000000000000000000000600052603260045260246000fd5b015482600801600160038110611375577f4e487b7100000000000000000000000000000000000000000000000000000000600052603260045260246000fd5b0154836008016000600381106113b4577f4e487b7100000000000000000000000000000000000000000000000000000000600052603260045260246000fd5b01546113c09190613ac5565b6113ca9190613ac5565b905060008260050160026003811061140b577f4e487b7100000000000000000000000000000000000000000000000000000000600052603260045260246000fd5b01548360050160016003811061144a577f4e487b7100000000000000000000000000000000000000000000000000000000600052603260045260246000fd5b015484600501600060038110611489577f4e487b7100000000000000000000000000000000000000000000000000000000600052603260045260246000fd5b01546114959190613ac5565b61149f9190613ac5565b9050818194509450505050915091565b6000806000600660008581526020019081526020016000209050806002015481600301546114dd9190613b1b565b816002015482600401546114f19190613b1b565b9250925050915091565b60006115076001612d66565b905090565b600060046000838152602001908152602001600020600101549050919050565b600060066000838152602001908152602001600020600201549050919050565b60006006600083815260200190815260200160002060050160009054906101000a900460ff169050919050565b60008060006005600085815260200190815260200160002090506000816005016002600381106115d2577f4e487b7100000000000000000000000000000000000000000000000000000000600052603260045260246000fd5b015482600501600160038110611611577f4e487b7100000000000000000000000000000000000000000000000000000000600052603260045260246000fd5b015483600501600060038110611650577f4e487b7100000000000000000000000000000000000000000000000000000000600052603260045260246000fd5b015461165c9190613ac5565b6116669190613ac5565b90508082600c01546116789190613b1b565b8183600d01546116889190613b1b565b935093505050915091565b600080600060056000868152602001908152602001600020905060006001856116bc9190613bda565b9050816002018160ff16600381106116fd577f4e487b7100000000000000000000000000000000000000000000000000000000600052603260045260246000fd5b015482600b0160009054906101000a900473ffffffffffffffffffffffffffffffffffffffff169350935050509250929050565b6000600260009054906101000a900473ffffffffffffffffffffffffffffffffffffffff16905090565b600260009054906101000a900473ffffffffffffffffffffffffffffffffffffffff1681565b611789612c9a565b73ffffffffffffffffffffffffffffffffffffffff166117a761122a565b73ffffffffffffffffffffffffffffffffffffffff16146117fd576040517f08c379a00000000000000000000000000000000000000000000000000000000081526004016117f49061379a565b60405180910390fd5b60008211611840576040517f08c379a0000000000000000000000000000000000000000000000000000000008152600401611837906138da565b60405180910390fd5b814210611882576040517f08c379a00000000000000000000000000000000000000000000000000000000081526004016118799061371a565b60405180910390fd5b8181116118c4576040517f08c379a00000000000000000000000000000000000000000000000000000000081526004016118bb9061373a565b60405180910390fd5b60006118d06001612d66565b90508260046000838152602001908152602001600020600001819055508160046000838152602001908152602001600020600101819055506119126001612c84565b807fdf73b2c7803d688e4b8ab4ca91b7327d6a4ba9dccec9caaa12bab2a617fda1b5848460405161194492919061393e565b60405180910390a2505050565b600360003373ffffffffffffffffffffffffffffffffffffffff1673ffffffffffffffffffffffffffffffffffffffff16815260200190815260200160002060009054906101000a900460ff166119dd576040517f08c379a00000000000000000000000000000000000000000000000000000000081526004016119d49061385a565b60405180910390fd5b60006005600084815260200190815260200160002090506000600183611a039190613bda565b9050816002018160ff1660038110611a44577f4e487b7100000000000000000000000000000000000000000000000000000000600052603260045260246000fd5b0154826005018260ff1660038110611a85577f4e487b7100000000000000000000000000000000000000000000000000000000600052603260045260246000fd5b0154611a919190613ac5565b826005018260ff1660038110611ad0577f4e487b7100000000000000000000000000000000000000000000000000000000600052603260045260246000fd5b018190555050505050565b60036020528060005260406000206000915054906101000a900460ff1681565b6006600082815260200190815260200160002060050160009054906101000a900460ff1615611b2957611d7c565b600080611b35836112dd565b809250819350505081811015611d4a5760006064670de0b6b3a764000084611b5d9190613b4c565b611b679190613b1b565b670de0b6b3a76400008385611b7c9190613ba6565b611b869190613b4c565b611b909190613b1b565b90506000670de0b6b3a764000082606460056000898152602001908152602001600020600c0154611bc19190613b1b565b611bcb9190613b4c565b611bd59190613b1b565b9050806006600087815260200190815260200160002060030154611bf99190613ac5565b60066000878152602001908152602001600020600301819055508060056000878152602001908152602001600020600c0154611c359190613ba6565b60056000878152602001908152602001600020600c01819055506000670de0b6b3a7640000836064600560008a8152602001908152602001600020600d0154611c7e9190613b1b565b611c889190613b4c565b611c929190613b1b565b9050806006600088815260200190815260200160002060040154611cb69190613ac5565b60066000888152602001908152602001600020600401819055508060056000888152602001908152602001600020600d0154611cf29190613ba6565b60056000888152602001908152602001600020600d0181905550857f32e0dcff7306eb2251b431cfb692c9f423ddafa28f545c26ed6fef49c93906d78383604051611d3e92919061393e565b60405180910390a25050505b60016006600085815260200190815260200160002060050160006101000a81548160ff02191690831515021790555050505b50565b611d87612c9a565b73ffffffffffffffffffffffffffffffffffffffff16611da561122a565b73ffffffffffffffffffffffffffffffffffffffff1614611dfb576040517f08c379a0000000000000000000000000000000000000000000000000000000008152600401611df29061379a565b60405180910390fd5b600073ffffffffffffffffffffffffffffffffffffffff168173ffffffffffffffffffffffffffffffffffffffff161415611e6b576040517f08c379a0000000000000000000000000000000000000000000000000000000008152600401611e62906138da565b60405180910390fd5b8073ffffffffffffffffffffffffffffffffffffffff16600260009054906101000a900473ffffffffffffffffffffffffffffffffffffffff1673ffffffffffffffffffffffffffffffffffffffff161415611efc576040517f08c379a0000000000000000000000000000000000000000000000000000000008152600401611ef39061375a565b60405180910390fd5b80600260006101000a81548173ffffffffffffffffffffffffffffffffffffffff021916908373ffffffffffffffffffffffffffffffffffffffff1602179055508073ffffffffffffffffffffffffffffffffffffffff167f4cc9cc2c1c94b0f2a3403db2d1758433cbfa23312f4870c2a182918475ddcf0560405160405180910390a250565b611f8b612c9a565b73ffffffffffffffffffffffffffffffffffffffff16611fa961122a565b73ffffffffffffffffffffffffffffffffffffffff1614611fff576040517f08c379a0000000000000000000000000000000000000000000000000000000008152600401611ff69061379a565b60405180910390fd5b600073ffffffffffffffffffffffffffffffffffffffff168173ffffffffffffffffffffffffffffffffffffffff16141561206f576040517f08c379a0000000000000000000000000000000000000000000000000000000008152600401612066906138da565b60405180910390fd5b600360008273ffffffffffffffffffffffffffffffffffffffff1673ffffffffffffffffffffffffffffffffffffffff16815260200190815260200160002060009054906101000a900460ff16156120fc576040517f08c379a00000000000000000000000000000000000000000000000000000000081526004016120f3906138ba565b60405180910390fd5b6001600360008373ffffffffffffffffffffffffffffffffffffffff1673ffffffffffffffffffffffffffffffffffffffff16815260200190815260200160002060006101000a81548160ff0219169083151502179055508073ffffffffffffffffffffffffffffffffffffffff167fa995c74341d87d6382e611e2f9439787e1d6c954ed0032d4402817eb78f225c8600160405161219b919061363f565b60405180910390a250565b6121ae612c9a565b73ffffffffffffffffffffffffffffffffffffffff166121cc61122a565b73ffffffffffffffffffffffffffffffffffffffff1614612222576040517f08c379a00000000000000000000000000000000000000000000000000000000081526004016122199061379a565b60405180910390fd5b600073ffffffffffffffffffffffffffffffffffffffff168173ffffffffffffffffffffffffffffffffffffffff161415612292576040517f08c379a00000000000000000000000000000000000000000000000000000000081526004016122899061367a565b60405180910390fd5b61229b81612ca2565b50565b60046020528060005260406000206000915090508060000154908060010154905082565b6122ca612c9a565b73ffffffffffffffffffffffffffffffffffffffff166122e861122a565b73ffffffffffffffffffffffffffffffffffffffff161461233e576040517f08c379a00000000000000000000000000000000000000000000000000000000081526004016123359061379a565b60405180910390fd5b6123478661120a565b612386576040517f08c379a000000000000000000000000000000000000000000000000000000000815260040161237d906136fa565b60405180910390fd5b60008511801561239557508442105b6123d4576040517f08c379a00000000000000000000000000000000000000000000000000000000081526004016123cb9061365a565b60405180910390fd5b6000841180156123e45750838514155b80156123ef57508385105b61242e576040517f08c379a00000000000000000000000000000000000000000000000000000000081526004016124259061383a565b60405180910390fd5b60008260006003811061246a577f4e487b7100000000000000000000000000000000000000000000000000000000600052603260045260246000fd5b60200201351180156124ba57506000826001600381106124b3577f4e487b7100000000000000000000000000000000000000000000000000000000600052603260045260246000fd5b6020020135115b801561250457506000826002600381106124fd577f4e487b7100000000000000000000000000000000000000000000000000000000600052603260045260246000fd5b6020020135115b612543576040517f08c379a000000000000000000000000000000000000000000000000000000000815260040161253a906137ba565b60405180910390fd5b60008360006003811061257f577f4e487b7100000000000000000000000000000000000000000000000000000000600052603260045260246000fd5b60200201351180156125cf57506000836001600381106125c8577f4e487b7100000000000000000000000000000000000000000000000000000000600052603260045260246000fd5b6020020135115b80156126195750600083600260038110612612577f4e487b7100000000000000000000000000000000000000000000000000000000600052603260045260246000fd5b6020020135115b612658576040517f08c379a000000000000000000000000000000000000000000000000000000000815260040161264f906137da565b60405180910390fd5b600060056000888152602001908152602001600020905060008160000154146126b6576040517f08c379a00000000000000000000000000000000000000000000000000000000081526004016126ad906138ba565b60405180910390fd5b60006004600089815260200190815260200160002060010154905060008111612714576040517f08c379a000000000000000000000000000000000000000000000000000000000815260040161270b9061387a565b60405180910390fd5b808711612756576040517f08c379a000000000000000000000000000000000000000000000000000000000815260040161274d906137fa565b60405180910390fd5b868260000181905550858260010181905550848260020190600361277b929190612d74565b50838260080190600361278f929190612d74565b508282600b0160006101000a81548173ffffffffffffffffffffffffffffffffffffffff021916908373ffffffffffffffffffffffffffffffffffffffff1602179055508273ffffffffffffffffffffffffffffffffffffffff16887f79bf20ae2c511f70496feccd088ed3e0f7d78cd75dccb90cf37f56d71b48bdee8989888a60405161282094939291906139c8565b60405180910390a35050505050505050565b60006007600083815260200190815260200160002060009054906101000a900473ffffffffffffffffffffffffffffffffffffffff169050919050565b612877612c9a565b73ffffffffffffffffffffffffffffffffffffffff1661289561122a565b73ffffffffffffffffffffffffffffffffffffffff16146128eb576040517f08c379a00000000000000000000000000000000000000000000000000000000081526004016128e29061379a565b60405180910390fd5b6128f486611028565b612933576040517f08c379a000000000000000000000000000000000000000000000000000000000815260040161292a9061369a565b60405180910390fd5b61293c866108f1565b1561297c576040517f08c379a00000000000000000000000000000000000000000000000000000000081526004016129739061381a565b60405180910390fd5b60008511801561298c5750600084115b80156129985750600083115b80156129a45750600082115b6129e3576040517f08c379a00000000000000000000000000000000000000000000000000000000081526004016129da9061389a565b60405180910390fd5b600073ffffffffffffffffffffffffffffffffffffffff168173ffffffffffffffffffffffffffffffffffffffff161415612a53576040517f08c379a0000000000000000000000000000000000000000000000000000000008152600401612a4a906138da565b60405180910390fd5b6000600860008373ffffffffffffffffffffffffffffffffffffffff1673ffffffffffffffffffffffffffffffffffffffff1681526020019081526020016000205414612ad5576040517f08c379a0000000000000000000000000000000000000000000000000000000008152600401612acc906136ba565b60405180910390fd5b60006005600088815260200190815260200160002090506000600660008981526020019081526020016000209050670de0b6b3a764000087612b179190613b4c565b82600c0181905550670de0b6b3a764000086612b339190613b4c565b82600d0181905550670de0b6b3a764000085612b4f9190613b4c565b8160030181905550670de0b6b3a764000084612b6b9190613b4c565b816004018190555081600d015482600c0154612b879190613b1b565b82600e018190555082600760008a815260200190815260200160002060006101000a81548173ffffffffffffffffffffffffffffffffffffffff021916908373ffffffffffffffffffffffffffffffffffffffff16021790555087600860008573ffffffffffffffffffffffffffffffffffffffff1673ffffffffffffffffffffffffffffffffffffffff168152602001908152602001600020819055508273ffffffffffffffffffffffffffffffffffffffff16887f7a9301e1d7e4267aac1f04cc3785bf5fce447f08569268d3d23d997ab05c6d2889898989604051612c729493929190613a0e565b60405180910390a35050505050505050565b6001816000016000828254019250508190555050565b600033905090565b60008060009054906101000a900473ffffffffffffffffffffffffffffffffffffffff169050816000806101000a81548173ffffffffffffffffffffffffffffffffffffffff021916908373ffffffffffffffffffffffffffffffffffffffff1602179055508173ffffffffffffffffffffffffffffffffffffffff168173ffffffffffffffffffffffffffffffffffffffff167f8be0079c531659141344cd1fd0a4f28419497f9722a3daafe3b4186f6b6457e060405160405180910390a35050565b600081600001549050919050565b8260038101928215612da3579160200282015b82811115612da2578235825591602001919060010190612d87565b5b509050612db09190612db4565b5090565b5b80821115612dcd576000816000905550600101612db5565b5090565b600081359050612de081613cdd565b92915050565b600081905082602060030282011115612dfe57600080fd5b92915050565b600081359050612e1381613cf4565b92915050565b600081359050612e2881613d0b565b92915050565b600060208284031215612e4057600080fd5b6000612e4e84828501612dd1565b91505092915050565b600060208284031215612e6957600080fd5b6000612e7784828501612e19565b91505092915050565b60008060408385031215612e9357600080fd5b6000612ea185828601612e19565b9250506020612eb285828601612e04565b9150509250929050565b60008060408385031215612ecf57600080fd5b6000612edd85828601612e19565b9250506020612eee85828601612e19565b9150509250929050565b600080600060608486031215612f0d57600080fd5b6000612f1b86828701612e19565b9350506020612f2c86828701612e19565b9250506040612f3d86828701612e19565b9150509250925092565b6000806000806000806101408789031215612f6157600080fd5b6000612f6f89828a01612e19565b9650506020612f8089828a01612e19565b9550506040612f9189828a01612e19565b9450506060612fa289828a01612de6565b93505060c0612fb389828a01612de6565b925050610120612fc589828a01612dd1565b9150509295509295509295565b60008060008060008060c08789031215612feb57600080fd5b6000612ff989828a01612e19565b965050602061300a89828a01612e19565b955050604061301b89828a01612e19565b945050606061302c89828a01612e19565b935050608061303d89828a01612e19565b92505060a061304e89828a01612dd1565b9150509295509295509295565b61306481613c0e565b82525050565b61307660608383613c70565b5050565b61308381613c20565b82525050565b6000613096601e83613ab4565b91507f4c69676874686f7573653a20494e56414c49445f53544152545f54494d4500006000830152602082019050919050565b60006130d6602683613ab4565b91507f4f776e61626c653a206e6577206f776e657220697320746865207a65726f206160008301527f64647265737300000000000000000000000000000000000000000000000000006020830152604082019050919050565b600061313c601683613ab4565b91507f4c69676874686f7573653a204e4f5f41554354494f4e000000000000000000006000830152602082019050919050565b600061317c601483613ab4565b91507f4c69676874686f7573653a204e46545f555345440000000000000000000000006000830152602082019050919050565b60006131bc601383613ab4565b91507f4c69676874686f7573653a204e4f5f55534552000000000000000000000000006000830152602082019050919050565b60006131fc601e83613ab4565b91507f4c69676874686f7573653a20494e56414c49445f50524f4a4543545f494400006000830152602082019050919050565b600061323c601783613ab4565b91507f4c69676874686f7573653a2054494d455f5041535345440000000000000000006000830152602082019050919050565b600061327c601e83613ab4565b91507f4c69676874686f7573653a20494e434f52524543545f454e445f54494d4500006000830152602082019050919050565b60006132bc601883613ab4565b91507f4c69676874686f7573653a2053414d455f4144445245535300000000000000006000830152602082019050919050565b60006132fc601a83613ab4565b91507f4c69676874686f7573653a204e4f5f50524546554e445f5945540000000000006000830152602082019050919050565b600061333c602083613ab4565b91507f4f776e61626c653a2063616c6c6572206973206e6f7420746865206f776e65726000830152602082019050919050565b600061337c601983613ab4565b91507f4c69676874686f7573653a205a45524f5f504f4f4c5f434150000000000000006000830152602082019050919050565b60006133bc601c83613ab4565b91507f4c69676874686f7573653a205a45524f5f46495845445f5052494345000000006000830152602082019050919050565b60006133fc602383613ab4565b91507f4c69676874686f7573653a204e4f5f524547495354524154494f4e5f454e445f60008301527f59455400000000000000000000000000000000000000000000000000000000006020830152604082019050919050565b6000613462601d83613ab4565b91507f4c69676874686f7573653a20414c52454144595f494e495449415445440000006000830152602082019050919050565b60006134a2601c83613ab4565b91507f4c69676874686f7573653a20494e56414c49445f454e445f54494d45000000006000830152602082019050919050565b60006134e2601583613ab4565b91507f4c69676874686f7573653a20464f5242494444454e00000000000000000000006000830152602082019050919050565b6000613522601f83613ab4565b91507f4c69676874686f7573653a204e4f5f524547495354524154494f4e5f594554006000830152602082019050919050565b6000613562601a83613ab4565b91507f4c69676874686f7573653a205a45524f5f504152414d455445520000000000006000830152602082019050919050565b60006135a2601983613ab4565b91507f4c69676874686f7573653a20414c52454144595f4144444544000000000000006000830152602082019050919050565b60006135e2601883613ab4565b91507f4c69676874686f7573653a205a45524f5f4144445245535300000000000000006000830152602082019050919050565b61361e81613c59565b82525050565b6000602082019050613639600083018461305b565b92915050565b6000602082019050613654600083018461307a565b92915050565b6000602082019050818103600083015261367381613089565b9050919050565b60006020820190508181036000830152613693816130c9565b9050919050565b600060208201905081810360008301526136b38161312f565b9050919050565b600060208201905081810360008301526136d38161316f565b9050919050565b600060208201905081810360008301526136f3816131af565b9050919050565b60006020820190508181036000830152613713816131ef565b9050919050565b600060208201905081810360008301526137338161322f565b9050919050565b600060208201905081810360008301526137538161326f565b9050919050565b60006020820190508181036000830152613773816132af565b9050919050565b60006020820190508181036000830152613793816132ef565b9050919050565b600060208201905081810360008301526137b38161332f565b9050919050565b600060208201905081810360008301526137d38161336f565b9050919050565b600060208201905081810360008301526137f3816133af565b9050919050565b60006020820190508181036000830152613813816133ef565b9050919050565b6000602082019050818103600083015261383381613455565b9050919050565b6000602082019050818103600083015261385381613495565b9050919050565b60006020820190508181036000830152613873816134d5565b9050919050565b6000602082019050818103600083015261389381613515565b9050919050565b600060208201905081810360008301526138b381613555565b9050919050565b600060208201905081810360008301526138d381613595565b9050919050565b600060208201905081810360008301526138f3816135d5565b9050919050565b600060208201905061390f6000830184613615565b92915050565b600060408201905061392a6000830185613615565b613937602083018461305b565b9392505050565b60006040820190506139536000830185613615565b6139606020830184613615565b9392505050565b600060c08201905061397c6000830189613615565b6139896020830188613615565b613996604083018761305b565b6139a36060830186613615565b6139b06080830185613615565b6139bd60a0830184613615565b979650505050505050565b6000610100820190506139de6000830187613615565b6139eb6020830186613615565b6139f8604083018561306a565b613a0560a083018461306a565b95945050505050565b6000608082019050613a236000830187613615565b613a306020830186613615565b613a3d6040830185613615565b613a4a6060830184613615565b95945050505050565b600060c082019050613a686000830189613615565b613a756020830188613615565b613a826040830187613615565b613a8f6060830186613615565b613a9c6080830185613615565b613aa960a083018461307a565b979650505050505050565b600082825260208201905092915050565b6000613ad082613c59565b9150613adb83613c59565b9250827fffffffffffffffffffffffffffffffffffffffffffffffffffffffffffffffff03821115613b1057613b0f613c7f565b5b828201905092915050565b6000613b2682613c59565b9150613b3183613c59565b925082613b4157613b40613cae565b5b828204905092915050565b6000613b5782613c59565b9150613b6283613c59565b9250817fffffffffffffffffffffffffffffffffffffffffffffffffffffffffffffffff0483118215151615613b9b57613b9a613c7f565b5b828202905092915050565b6000613bb182613c59565b9150613bbc83613c59565b925082821015613bcf57613bce613c7f565b5b828203905092915050565b6000613be582613c63565b9150613bf083613c63565b925082821015613c0357613c02613c7f565b5b828203905092915050565b6000613c1982613c39565b9050919050565b60008115159050919050565b60008160000b9050919050565b600073ffffffffffffffffffffffffffffffffffffffff82169050919050565b6000819050919050565b600060ff82169050919050565b82818337600083830152505050565b7f4e487b7100000000000000000000000000000000000000000000000000000000600052601160045260246000fd5b7f4e487b7100000000000000000000000000000000000000000000000000000000600052601260045260246000fd5b613ce681613c0e565b8114613cf157600080fd5b50565b613cfd81613c2c565b8114613d0857600080fd5b50565b613d1481613c59565b8114613d1f57600080fd5b5056fea2646970667358221220c8d74d45a8a9480cb169e50ec97fe38f4e8adfc773a953c0a590d428999fae2964736f6c63430008000033",
  "linkReferences": {},
  "deployedLinkReferences": {}
}