{
  "_format": "hh-sol-artifact-1",
  "contractName": "LighthouseProject",
  "sourceName": "contracts/LighthouseProject.sol",
  "abi": [
    {
      "inputs": [
        {
          "internalType": "address",
          "name": "verifier",
          "type": "address"
        }
      ],
      "stateMutability": "nonpayable",
      "type": "constructor"
    },
    {
      "anonymous": false,
      "inputs": [
        {
          "indexed": true,
          "internalType": "uint256",
          "name": "id",
          "type": "uint256"
        },
        {
          "indexed": true,
          "internalType": "address",
          "name": "nftAddress",
          "type": "address"
        },
        {
          "indexed": false,
          "internalType": "uint256",
          "name": "prefundAllocation",
          "type": "uint256"
        },
        {
          "indexed": false,
          "internalType": "uint256",
          "name": "prefundCompensation",
          "type": "uint256"
        },
        {
          "indexed": false,
          "internalType": "uint256",
          "name": "auctionAllocation",
          "type": "uint256"
        },
        {
          "indexed": false,
          "internalType": "uint256",
          "name": "auctionCompensation",
          "type": "uint256"
        }
      ],
      "name": "InitAllocationCompensation",
      "type": "event"
    },
    {
      "anonymous": false,
      "inputs": [
        {
          "indexed": true,
          "internalType": "uint256",
          "name": "id",
          "type": "uint256"
        },
        {
          "indexed": false,
          "internalType": "uint256",
          "name": "startTime",
          "type": "uint256"
        },
        {
          "indexed": false,
          "internalType": "uint256",
          "name": "endTime",
          "type": "uint256"
        }
      ],
      "name": "InitAuction",
      "type": "event"
    },
    {
      "anonymous": false,
      "inputs": [
        {
          "indexed": true,
          "internalType": "uint256",
          "name": "id",
          "type": "uint256"
        },
        {
          "indexed": true,
          "internalType": "address",
          "name": "token",
          "type": "address"
        },
        {
          "indexed": false,
          "internalType": "uint256",
          "name": "startTime",
          "type": "uint256"
        },
        {
          "indexed": false,
          "internalType": "uint256",
          "name": "endTime",
          "type": "uint256"
        },
        {
          "indexed": false,
          "internalType": "uint256[3]",
          "name": "pools",
          "type": "uint256[3]"
        },
        {
          "indexed": false,
          "internalType": "uint256[3]",
          "name": "investAmounts",
          "type": "uint256[3]"
        }
      ],
      "name": "InitPrefund",
      "type": "event"
    },
    {
      "anonymous": false,
      "inputs": [
        {
          "indexed": true,
          "internalType": "uint256",
          "name": "id",
          "type": "uint256"
        },
        {
          "indexed": false,
          "internalType": "uint256",
          "name": "startTime",
          "type": "uint256"
        },
        {
          "indexed": false,
          "internalType": "uint256",
          "name": "endTime",
          "type": "uint256"
        }
      ],
      "name": "InitRegistration",
      "type": "event"
    },
    {
      "anonymous": false,
      "inputs": [
        {
          "indexed": true,
          "internalType": "address",
          "name": "previousOwner",
          "type": "address"
        },
        {
          "indexed": true,
          "internalType": "address",
          "name": "newOwner",
          "type": "address"
        }
      ],
      "name": "OwnershipTransferred",
      "type": "event"
    },
    {
      "anonymous": false,
      "inputs": [
        {
          "indexed": true,
          "internalType": "address",
          "name": "user",
          "type": "address"
        },
        {
          "indexed": false,
          "internalType": "bool",
          "name": "allowed",
          "type": "bool"
        }
      ],
      "name": "ProjectEditor",
      "type": "event"
    },
    {
      "anonymous": false,
      "inputs": [
        {
          "indexed": true,
          "internalType": "address",
          "name": "verifier",
          "type": "address"
        }
      ],
      "name": "SetKYCVerifier",
      "type": "event"
    },
    {
      "anonymous": false,
      "inputs": [
        {
          "indexed": true,
          "internalType": "uint256",
          "name": "id",
          "type": "uint256"
        },
        {
          "indexed": true,
          "internalType": "address",
          "name": "pccAddress",
          "type": "address"
        }
      ],
      "name": "SetPCC",
      "type": "event"
    },
    {
      "anonymous": false,
      "inputs": [
        {
          "indexed": true,
          "internalType": "uint256",
          "name": "id",
          "type": "uint256"
        },
        {
          "indexed": false,
          "internalType": "uint256",
          "name": "scaledPrefundAmount",
          "type": "uint256"
        },
        {
          "indexed": false,
          "internalType": "uint256",
          "name": "scaledCompensationAmount",
          "type": "uint256"
        }
      ],
      "name": "TransferPrefund",
      "type": "event"
    },
    {
      "inputs": [
        {
          "internalType": "address",
          "name": "_user",
          "type": "address"
        }
      ],
      "name": "addEditor",
      "outputs": [],
      "stateMutability": "nonpayable",
      "type": "function"
    },
    {
      "inputs": [
        {
          "internalType": "uint256",
          "name": "id",
          "type": "uint256"
        }
      ],
      "name": "allocationCompensationInitialized",
      "outputs": [
        {
          "internalType": "bool",
          "name": "",
          "type": "bool"
        }
      ],
      "stateMutability": "view",
      "type": "function"
    },
    {
      "inputs": [
        {
          "internalType": "uint256",
          "name": "id",
          "type": "uint256"
        }
      ],
      "name": "auctionEndTime",
      "outputs": [
        {
          "internalType": "uint256",
          "name": "",
          "type": "uint256"
        }
      ],
      "stateMutability": "view",
      "type": "function"
    },
    {
      "inputs": [
        {
          "internalType": "uint256",
          "name": "id",
          "type": "uint256"
        }
      ],
      "name": "auctionInitialized",
      "outputs": [
        {
          "internalType": "bool",
          "name": "",
          "type": "bool"
        }
      ],
      "stateMutability": "view",
      "type": "function"
    },
    {
      "inputs": [
        {
          "internalType": "uint256",
          "name": "id",
          "type": "uint256"
        }
      ],
      "name": "auctionScaledUnit",
      "outputs": [
        {
          "internalType": "uint256",
          "name": "",
          "type": "uint256"
        },
        {
          "internalType": "uint256",
          "name": "",
          "type": "uint256"
        }
      ],
      "stateMutability": "view",
      "type": "function"
    },
    {
      "inputs": [
        {
          "internalType": "uint256",
          "name": "id",
          "type": "uint256"
        }
      ],
      "name": "auctionTimeInfo",
      "outputs": [
        {
          "internalType": "uint256",
          "name": "",
          "type": "uint256"
        },
        {
          "internalType": "uint256",
          "name": "",
          "type": "uint256"
        }
      ],
      "stateMutability": "view",
      "type": "function"
    },
    {
      "inputs": [
        {
          "internalType": "uint256",
          "name": "id",
          "type": "uint256"
        }
      ],
      "name": "auctionTotalPool",
      "outputs": [
        {
          "internalType": "uint256",
          "name": "",
          "type": "uint256"
        }
      ],
      "stateMutability": "view",
      "type": "function"
    },
    {
      "inputs": [
        {
          "internalType": "uint256",
          "name": "",
          "type": "uint256"
        }
      ],
      "name": "auctions",
      "outputs": [
        {
          "internalType": "uint256",
          "name": "startTime",
          "type": "uint256"
        },
        {
          "internalType": "uint256",
          "name": "endTime",
          "type": "uint256"
        },
        {
          "internalType": "uint256",
          "name": "spent",
          "type": "uint256"
        },
        {
          "internalType": "uint256",
          "name": "scaledAllocation",
          "type": "uint256"
        },
        {
          "internalType": "uint256",
          "name": "scaledCompensation",
          "type": "uint256"
        },
        {
          "internalType": "bool",
          "name": "transferredPrefund",
          "type": "bool"
        }
      ],
      "stateMutability": "view",
      "type": "function"
    },
    {
      "inputs": [
        {
          "internalType": "uint256",
          "name": "id",
          "type": "uint256"
        },
        {
          "internalType": "uint256",
          "name": "amount",
          "type": "uint256"
        }
      ],
      "name": "collectAuctionAmount",
      "outputs": [],
      "stateMutability": "nonpayable",
      "type": "function"
    },
    {
      "inputs": [
        {
          "internalType": "uint256",
          "name": "id",
          "type": "uint256"
        },
        {
          "internalType": "int8",
          "name": "tier",
          "type": "int8"
        }
      ],
      "name": "collectPrefundInvestment",
      "outputs": [],
      "stateMutability": "nonpayable",
      "type": "function"
    },
    {
      "inputs": [
        {
          "internalType": "address",
          "name": "_user",
          "type": "address"
        }
      ],
      "name": "deleteEditorEditor",
      "outputs": [],
      "stateMutability": "nonpayable",
      "type": "function"
    },
    {
      "inputs": [
        {
          "internalType": "address",
          "name": "",
          "type": "address"
        }
      ],
      "name": "editors",
      "outputs": [
        {
          "internalType": "bool",
          "name": "",
          "type": "bool"
        }
      ],
      "stateMutability": "view",
      "type": "function"
    },
    {
      "inputs": [],
      "name": "getKYCVerifier",
      "outputs": [
        {
          "internalType": "address",
          "name": "",
          "type": "address"
        }
      ],
      "stateMutability": "view",
      "type": "function"
    },
    {
      "inputs": [
        {
          "internalType": "uint256",
          "name": "id",
          "type": "uint256"
        },
        {
          "internalType": "uint256",
          "name": "prefundAllocation",
          "type": "uint256"
        },
        {
          "internalType": "uint256",
          "name": "prefundCompensation",
          "type": "uint256"
        },
        {
          "internalType": "uint256",
          "name": "auctionAllocation",
          "type": "uint256"
        },
        {
          "internalType": "uint256",
          "name": "auctionCompensation",
          "type": "uint256"
        },
        {
          "internalType": "address",
          "name": "nftAddress",
          "type": "address"
        }
      ],
      "name": "initAllocationCompensation",
      "outputs": [],
      "stateMutability": "nonpayable",
      "type": "function"
    },
    {
      "inputs": [
        {
          "internalType": "uint256",
          "name": "id",
          "type": "uint256"
        },
        {
          "internalType": "uint256",
          "name": "startTime",
          "type": "uint256"
        },
        {
          "internalType": "uint256",
          "name": "endTime",
          "type": "uint256"
        }
      ],
      "name": "initAuction",
      "outputs": [],
      "stateMutability": "nonpayable",
      "type": "function"
    },
    {
      "inputs": [
        {
          "internalType": "uint256",
          "name": "id",
          "type": "uint256"
        },
        {
          "internalType": "uint256",
          "name": "startTime",
          "type": "uint256"
        },
        {
          "internalType": "uint256",
          "name": "endTime",
          "type": "uint256"
        },
        {
          "internalType": "uint256[3]",
          "name": "investAmounts",
          "type": "uint256[3]"
        },
        {
          "internalType": "uint256[3]",
          "name": "pools",
          "type": "uint256[3]"
        },
        {
          "internalType": "address",
          "name": "_token",
          "type": "address"
        }
      ],
      "name": "initPrefund",
      "outputs": [],
      "stateMutability": "nonpayable",
      "type": "function"
    },
    {
      "inputs": [
        {
          "internalType": "uint256",
          "name": "startTime",
          "type": "uint256"
        },
        {
          "internalType": "uint256",
          "name": "endTime",
          "type": "uint256"
        }
      ],
      "name": "initRegistration",
      "outputs": [],
      "stateMutability": "nonpayable",
      "type": "function"
    },
    {
      "inputs": [],
      "name": "kycVerifier",
      "outputs": [
        {
          "internalType": "address",
          "name": "",
          "type": "address"
        }
      ],
      "stateMutability": "view",
      "type": "function"
    },
    {
      "inputs": [
        {
          "internalType": "uint256",
          "name": "id",
          "type": "uint256"
        }
      ],
      "name": "nft",
      "outputs": [
        {
          "internalType": "address",
          "name": "",
          "type": "address"
        }
      ],
      "stateMutability": "view",
      "type": "function"
    },
    {
      "inputs": [
        {
          "internalType": "uint256",
          "name": "",
          "type": "uint256"
        }
      ],
      "name": "nfts",
      "outputs": [
        {
          "internalType": "address",
          "name": "",
          "type": "address"
        }
      ],
      "stateMutability": "view",
      "type": "function"
    },
    {
      "inputs": [],
      "name": "owner",
      "outputs": [
        {
          "internalType": "address",
          "name": "",
          "type": "address"
        }
      ],
      "stateMutability": "view",
      "type": "function"
    },
    {
      "inputs": [
        {
          "internalType": "uint256",
          "name": "id",
          "type": "uint256"
        }
      ],
      "name": "pcc",
      "outputs": [
        {
          "internalType": "address",
          "name": "",
          "type": "address"
        }
      ],
      "stateMutability": "view",
      "type": "function"
    },
    {
      "inputs": [
        {
          "internalType": "uint256",
          "name": "",
          "type": "uint256"
        }
      ],
      "name": "pccs",
      "outputs": [
        {
          "internalType": "address",
          "name": "",
          "type": "address"
        }
      ],
      "stateMutability": "view",
      "type": "function"
    },
    {
      "inputs": [
        {
          "internalType": "uint256",
          "name": "id",
          "type": "uint256"
        }
      ],
      "name": "prefundEndTime",
      "outputs": [
        {
          "internalType": "uint256",
          "name": "",
          "type": "uint256"
        }
      ],
      "stateMutability": "view",
      "type": "function"
    },
    {
      "inputs": [
        {
          "internalType": "uint256",
          "name": "id",
          "type": "uint256"
        }
      ],
      "name": "prefundInitialized",
      "outputs": [
        {
          "internalType": "bool",
          "name": "",
          "type": "bool"
        }
      ],
      "stateMutability": "view",
      "type": "function"
    },
    {
      "inputs": [
        {
          "internalType": "uint256",
          "name": "id",
          "type": "uint256"
        },
        {
          "internalType": "int8",
          "name": "tier",
          "type": "int8"
        }
      ],
      "name": "prefundInvestAmount",
      "outputs": [
        {
          "internalType": "uint256",
          "name": "",
          "type": "uint256"
        },
        {
          "internalType": "address",
          "name": "",
          "type": "address"
        }
      ],
      "stateMutability": "view",
      "type": "function"
    },
    {
      "inputs": [
        {
          "internalType": "uint256",
          "name": "id",
          "type": "uint256"
        },
        {
          "internalType": "int8",
          "name": "tier",
          "type": "int8"
        }
      ],
      "name": "prefundPoolInfo",
      "outputs": [
        {
          "internalType": "uint256",
          "name": "",
          "type": "uint256"
        },
        {
          "internalType": "uint256",
          "name": "",
          "type": "uint256"
        }
      ],
      "stateMutability": "view",
      "type": "function"
    },
    {
      "inputs": [
        {
          "internalType": "uint256",
          "name": "id",
          "type": "uint256"
        }
      ],
      "name": "prefundScaledUnit",
      "outputs": [
        {
          "internalType": "uint256",
          "name": "",
          "type": "uint256"
        },
        {
          "internalType": "uint256",
          "name": "",
          "type": "uint256"
        }
      ],
      "stateMutability": "view",
      "type": "function"
    },
    {
      "inputs": [
        {
          "internalType": "uint256",
          "name": "id",
          "type": "uint256"
        }
      ],
      "name": "prefundTimeInfo",
      "outputs": [
        {
          "internalType": "uint256",
          "name": "",
          "type": "uint256"
        },
        {
          "internalType": "uint256",
          "name": "",
          "type": "uint256"
        }
      ],
      "stateMutability": "view",
      "type": "function"
    },
    {
      "inputs": [
        {
          "internalType": "uint256",
          "name": "id",
          "type": "uint256"
        }
      ],
      "name": "prefundTotalPool",
      "outputs": [
        {
          "internalType": "uint256",
          "name": "",
          "type": "uint256"
        },
        {
          "internalType": "uint256",
          "name": "",
          "type": "uint256"
        }
      ],
      "stateMutability": "view",
      "type": "function"
    },
    {
      "inputs": [
        {
          "internalType": "uint256",
          "name": "",
          "type": "uint256"
        }
      ],
      "name": "prefunds",
      "outputs": [
        {
          "internalType": "uint256",
          "name": "startTime",
          "type": "uint256"
        },
        {
          "internalType": "uint256",
          "name": "endTime",
          "type": "uint256"
        },
        {
          "internalType": "address",
          "name": "token",
          "type": "address"
        },
        {
          "internalType": "uint256",
          "name": "scaledAllocation",
          "type": "uint256"
        },
        {
          "internalType": "uint256",
          "name": "scaledCompensation",
          "type": "uint256"
        },
        {
          "internalType": "uint256",
          "name": "scaledRatio",
          "type": "uint256"
        }
      ],
      "stateMutability": "view",
      "type": "function"
    },
    {
      "inputs": [
        {
          "internalType": "uint256",
          "name": "id",
          "type": "uint256"
        }
      ],
      "name": "registrationEndTime",
      "outputs": [
        {
          "internalType": "uint256",
          "name": "",
          "type": "uint256"
        }
      ],
      "stateMutability": "view",
      "type": "function"
    },
    {
      "inputs": [
        {
          "internalType": "uint256",
          "name": "id",
          "type": "uint256"
        }
      ],
      "name": "registrationInfo",
      "outputs": [
        {
          "internalType": "uint256",
          "name": "",
          "type": "uint256"
        },
        {
          "internalType": "uint256",
          "name": "",
          "type": "uint256"
        }
      ],
      "stateMutability": "view",
      "type": "function"
    },
    {
      "inputs": [
        {
          "internalType": "uint256",
          "name": "id",
          "type": "uint256"
        }
      ],
      "name": "registrationInitialized",
      "outputs": [
        {
          "internalType": "bool",
          "name": "",
          "type": "bool"
        }
      ],
      "stateMutability": "view",
      "type": "function"
    },
    {
      "inputs": [
        {
          "internalType": "uint256",
          "name": "",
          "type": "uint256"
        }
      ],
      "name": "registrations",
      "outputs": [
        {
          "internalType": "uint256",
          "name": "startTime",
          "type": "uint256"
        },
        {
          "internalType": "uint256",
          "name": "endTime",
          "type": "uint256"
        }
      ],
      "stateMutability": "view",
      "type": "function"
    },
    {
      "inputs": [],
      "name": "renounceOwnership",
      "outputs": [],
      "stateMutability": "nonpayable",
      "type": "function"
    },
    {
      "inputs": [
        {
          "internalType": "address",
          "name": "verifier",
          "type": "address"
        }
      ],
      "name": "setKYCVerifier",
      "outputs": [],
      "stateMutability": "nonpayable",
      "type": "function"
    },
    {
      "inputs": [
        {
          "internalType": "uint256",
          "name": "id",
          "type": "uint256"
        },
        {
          "internalType": "address",
          "name": "pccAddress",
          "type": "address"
        }
      ],
      "name": "setPcc",
      "outputs": [],
      "stateMutability": "nonpayable",
      "type": "function"
    },
    {
      "inputs": [],
      "name": "totalProjects",
      "outputs": [
        {
          "internalType": "uint256",
          "name": "",
          "type": "uint256"
        }
      ],
      "stateMutability": "view",
      "type": "function"
    },
    {
      "inputs": [
        {
          "internalType": "address",
          "name": "newOwner",
          "type": "address"
        }
      ],
      "name": "transferOwnership",
      "outputs": [],
      "stateMutability": "nonpayable",
      "type": "function"
    },
    {
      "inputs": [
        {
          "internalType": "uint256",
          "name": "id",
          "type": "uint256"
        }
      ],
      "name": "transferPrefund",
      "outputs": [],
      "stateMutability": "nonpayable",
      "type": "function"
    },
    {
      "inputs": [
        {
          "internalType": "uint256",
          "name": "id",
          "type": "uint256"
        }
      ],
      "name": "transferredPrefund",
      "outputs": [
        {
          "internalType": "bool",
          "name": "",
          "type": "bool"
        }
      ],
      "stateMutability": "view",
      "type": "function"
    },
    {
      "inputs": [
        {
          "internalType": "address",
          "name": "",
          "type": "address"
        }
      ],
      "name": "usedNfts",
      "outputs": [
        {
          "internalType": "uint256",
          "name": "",
          "type": "uint256"
        }
      ],
      "stateMutability": "view",
      "type": "function"
    },
    {
      "inputs": [
        {
          "internalType": "address",
          "name": "",
          "type": "address"
        }
      ],
      "name": "usedPccs",
      "outputs": [
        {
          "internalType": "uint256",
          "name": "",
          "type": "uint256"
        }
      ],
      "stateMutability": "view",
      "type": "function"
    },
    {
      "inputs": [
        {
          "internalType": "uint256",
          "name": "id",
          "type": "uint256"
        }
      ],
      "name": "validProjectId",
      "outputs": [
        {
          "internalType": "bool",
          "name": "",
          "type": "bool"
        }
      ],
      "stateMutability": "view",
      "type": "function"
    }
  ],
  "bytecode": "0x60806040523480156200001157600080fd5b5060405162004789380380620047898339818101604052810190620000379190620003c5565b620000576200004b6200008660201b60201c565b6200008e60201b60201c565b62000068816200015260201b60201c565b6200007f60016200036f60201b6200308d1760201c565b506200057c565b600033905090565b60008060009054906101000a900473ffffffffffffffffffffffffffffffffffffffff169050816000806101000a81548173ffffffffffffffffffffffffffffffffffffffff021916908373ffffffffffffffffffffffffffffffffffffffff1602179055508173ffffffffffffffffffffffffffffffffffffffff168173ffffffffffffffffffffffffffffffffffffffff167f8be0079c531659141344cd1fd0a4f28419497f9722a3daafe3b4186f6b6457e060405160405180910390a35050565b620001626200008660201b60201c565b73ffffffffffffffffffffffffffffffffffffffff16620001886200038560201b60201c565b73ffffffffffffffffffffffffffffffffffffffff1614620001e1576040517f08c379a0000000000000000000000000000000000000000000000000000000008152600401620001d890620004d9565b60405180910390fd5b600073ffffffffffffffffffffffffffffffffffffffff168173ffffffffffffffffffffffffffffffffffffffff16141562000254576040517f08c379a00000000000000000000000000000000000000000000000000000000081526004016200024b90620004fb565b60405180910390fd5b8073ffffffffffffffffffffffffffffffffffffffff16600260009054906101000a900473ffffffffffffffffffffffffffffffffffffffff1673ffffffffffffffffffffffffffffffffffffffff161415620002e8576040517f08c379a0000000000000000000000000000000000000000000000000000000008152600401620002df90620004b7565b60405180910390fd5b80600260006101000a81548173ffffffffffffffffffffffffffffffffffffffff021916908373ffffffffffffffffffffffffffffffffffffffff1602179055508073ffffffffffffffffffffffffffffffffffffffff167f4cc9cc2c1c94b0f2a3403db2d1758433cbfa23312f4870c2a182918475ddcf0560405160405180910390a250565b6001816000016000828254019250508190555050565b60008060009054906101000a900473ffffffffffffffffffffffffffffffffffffffff16905090565b600081519050620003bf8162000562565b92915050565b600060208284031215620003d857600080fd5b6000620003e884828501620003ae565b91505092915050565b6000620004006018836200051d565b91507f4c69676874686f7573653a2053414d455f4144445245535300000000000000006000830152602082019050919050565b6000620004426020836200051d565b91507f4f776e61626c653a2063616c6c6572206973206e6f7420746865206f776e65726000830152602082019050919050565b6000620004846018836200051d565b91507f4c69676874686f7573653a205a45524f5f4144445245535300000000000000006000830152602082019050919050565b60006020820190508181036000830152620004d281620003f1565b9050919050565b60006020820190508181036000830152620004f48162000433565b9050919050565b60006020820190508181036000830152620005168162000475565b9050919050565b600082825260208201905092915050565b60006200053b8262000542565b9050919050565b600073ffffffffffffffffffffffffffffffffffffffff82169050919050565b6200056d816200052e565b81146200057957600080fd5b50565b6141fd806200058c6000396000f3fe608060405234801561001057600080fd5b506004361061027f5760003560e01c8063943df3151161015c578063b60da085116100ce578063d17f641711610087578063d17f6417146108ec578063e5975bdc14610908578063f2fde38b14610924578063f4ddb5be14610940578063f8285d3814610971578063fb5002471461098d5761027f565b8063b60da0851461082c578063b937e7cc1461084a578063be27db0014610868578063c82189e014610884578063cd52844d146108a0578063d0b0f392146108d05761027f565b8063a580397211610120578063a58039721461070a578063a84b06921461073a578063ae9d403a1461076a578063b22e912b1461079a578063b47e9f3e146107ca578063b5f5cf70146107fb5761027f565b8063943df3151461062a5780639922a1d51461065b5780639c361e4e1461068c5780639d0214cb146106aa578063a5045a16146106da5761027f565b8063571a26a0116101f557806374802857116101b95780637480285714610515578063777de704146105465780638d7365a9146105765780638da5cb5b146105a65780638de6a11a146105c45780638ee2a6d1146105f95761027f565b8063571a26a01461045a57806362a01ac21461048f57806364507efc146104ab5780636592b724146104db578063715018a61461050b5761027f565b80632693b12c116102475780632693b12c1461037557806337979b80146103a65780634005c3df146103c257806341e0f1b1146103f2578063428ba8931461040e578063451bf0d31461043e5761027f565b8063016e34721461028457806305b576e3146102b45780631b4ead45146102e457806324d2cb1714610314578063265aa62114610345575b600080fd5b61029e60048036038101906102999190613237565b6109a9565b6040516102ab9190613d9f565b60405180910390f35b6102ce60048036038101906102c99190613260565b6109c1565b6040516102db9190613d9f565b60405180910390f35b6102fe60048036038101906102f99190613260565b6109e1565b60405161030b9190613ac4565b60405180910390f35b61032e60048036038101906103299190613260565b610a49565b60405161033c929190613de3565b60405180910390f35b61035f600480360381019061035a9190613260565b610a77565b60405161036c9190613aa9565b60405180910390f35b61038f600480360381019061038a9190613260565b610aaa565b60405161039d929190613de3565b60405180910390f35b6103c060048036038101906103bb919061333d565b610ad8565b005b6103dc60048036038101906103d79190613237565b610d7d565b6040516103e99190613d9f565b60405180910390f35b61040c60048036038101906104079190613301565b610d95565b005b61042860048036038101906104239190613260565b610e55565b6040516104359190613ac4565b60405180910390f35b61045860048036038101906104539190613289565b610e95565b005b610474600480360381019061046f9190613260565b611129565b60405161048696959493929190613ef8565b60405180910390f35b6104a960048036038101906104a49190613237565b611172565b005b6104c560048036038101906104c09190613260565b611394565b6040516104d29190613ac4565b60405180910390f35b6104f560048036038101906104f09190613260565b6113d4565b6040516105029190613ac4565b60405180910390f35b610513611414565b005b61052f600480360381019061052a91906132c5565b61149c565b60405161053d929190613de3565b60405180910390f35b610560600480360381019061055b9190613260565b611556565b60405161056d9190613d9f565b60405180910390f35b610590600480360381019061058b9190613260565b611576565b60405161059d9190613ac4565b60405180910390f35b6105ae611596565b6040516105bb9190613aa9565b60405180910390f35b6105de60048036038101906105d99190613260565b6115bf565b6040516105f096959493929190613e0c565b60405180910390f35b610613600480360381019061060e9190613260565b61161b565b604051610621929190613de3565b60405180910390f35b610644600480360381019061063f9190613260565b611649565b604051610652929190613de3565b60405180910390f35b61067560048036038101906106709190613260565b61181b565b604051610683929190613de3565b60405180910390f35b610694611867565b6040516106a19190613d9f565b60405180910390f35b6106c460048036038101906106bf9190613260565b611884565b6040516106d19190613aa9565b60405180910390f35b6106f460048036038101906106ef9190613260565b6118c1565b6040516107019190613aa9565b60405180910390f35b610724600480360381019061071f9190613260565b6118fe565b6040516107319190613aa9565b60405180910390f35b610754600480360381019061074f9190613260565b611931565b6040516107619190613d9f565b60405180910390f35b610784600480360381019061077f9190613260565b611951565b6040516107919190613d9f565b60405180910390f35b6107b460048036038101906107af9190613260565b611971565b6040516107c19190613ac4565b60405180910390f35b6107e460048036038101906107df9190613260565b61199e565b6040516107f2929190613de3565b60405180910390f35b610815600480360381019061081091906132c5565b611ab8565b604051610823929190613dba565b60405180910390f35b610834611b56565b6040516108419190613aa9565b60405180910390f35b610852611b80565b60405161085f9190613aa9565b60405180910390f35b610882600480360381019061087d9190613301565b611ba6565b005b61089e600480360381019061089991906132c5565b611d33565b005b6108ba60048036038101906108b59190613237565b611ebd565b6040516108c79190613ac4565b60405180910390f35b6108ea60048036038101906108e59190613260565b611edd565b005b61090660048036038101906109019190613237565b6121dd565b005b610922600480360381019061091d9190613237565b6123e1565b005b61093e60048036038101906109399190613237565b612604565b005b61095a60048036038101906109559190613260565b6126fc565b604051610968929190613de3565b60405180910390f35b61098b6004803603810190610986919061338c565b612720565b005b6109a760048036038101906109a29190613417565b612c78565b005b600a6020528060005260406000206000915090505481565b600060056000838152602001908152602001600020600101549050919050565b60006109ec82611576565b6109f95760009050610a44565b60006005600084815260200190815260200160002090506000600660008581526020019081526020016000209050600082600c0154118015610a3f575060008160030154115b925050505b919050565b6000806000600660008581526020019081526020016000209050806000015481600101549250925050915091565b60076020528060005260406000206000915054906101000a900473ffffffffffffffffffffffffffffffffffffffff1681565b6000806000600460008581526020019081526020016000209050806000015481600101549250925050915091565b610ae06130a3565b73ffffffffffffffffffffffffffffffffffffffff16610afe611596565b73ffffffffffffffffffffffffffffffffffffffff1614610b54576040517f08c379a0000000000000000000000000000000000000000000000000000000008152600401610b4b90613c1f565b60405180910390fd5b610b5d83611576565b610b9c576040517f08c379a0000000000000000000000000000000000000000000000000000000008152600401610b9390613b7f565b60405180910390fd5b814210610bde576040517f08c379a0000000000000000000000000000000000000000000000000000000008152600401610bd590613adf565b60405180910390fd5b808214158015610bed57508082105b610c2c576040517f08c379a0000000000000000000000000000000000000000000000000000000008152600401610c2390613cdf565b60405180910390fd5b60006006600085815260200190815260200160002090506000816000015414610c8a576040517f08c379a0000000000000000000000000000000000000000000000000000000008152600401610c8190613d5f565b60405180910390fd5b60006005600086815260200190815260200160002060010154905060008111610ce8576040517f08c379a0000000000000000000000000000000000000000000000000000000008152600401610cdf90613bff565b60405180910390fd5b808411610d2a576040517f08c379a0000000000000000000000000000000000000000000000000000000008152600401610d2190613c9f565b60405180910390fd5b838260000181905550828260010181905550847f9b3770df20128a91841fed18e7e8efbd28645b85d6e95c9feeff96f7c9bd83968585604051610d6e929190613de3565b60405180910390a25050505050565b60086020528060005260406000206000915090505481565b600360003373ffffffffffffffffffffffffffffffffffffffff1673ffffffffffffffffffffffffffffffffffffffff16815260200190815260200160002060009054906101000a900460ff16610e21576040517f08c379a0000000000000000000000000000000000000000000000000000000008152600401610e1890613cff565b60405180910390fd5b6000600660008481526020019081526020016000209050818160020154610e489190613f6a565b8160020181905550505050565b6000610e6082611576565b610e6d5760009050610e90565b600060046000848152602001908152602001600020905060008160000154119150505b919050565b610e9d6130a3565b73ffffffffffffffffffffffffffffffffffffffff16610ebb611596565b73ffffffffffffffffffffffffffffffffffffffff1614610f11576040517f08c379a0000000000000000000000000000000000000000000000000000000008152600401610f0890613c1f565b60405180910390fd5b610f1a82611576565b610f59576040517f08c379a0000000000000000000000000000000000000000000000000000000008152600401610f5090613b7f565b60405180910390fd5b600073ffffffffffffffffffffffffffffffffffffffff168173ffffffffffffffffffffffffffffffffffffffff161415610fc9576040517f08c379a0000000000000000000000000000000000000000000000000000000008152600401610fc090613d7f565b60405180910390fd5b6000600a60008373ffffffffffffffffffffffffffffffffffffffff1673ffffffffffffffffffffffffffffffffffffffff168152602001908152602001600020541461104b576040517f08c379a000000000000000000000000000000000000000000000000000000000815260040161104290613c5f565b60405180910390fd5b806009600084815260200190815260200160002060006101000a81548173ffffffffffffffffffffffffffffffffffffffff021916908373ffffffffffffffffffffffffffffffffffffffff16021790555081600a60008373ffffffffffffffffffffffffffffffffffffffff1673ffffffffffffffffffffffffffffffffffffffff168152602001908152602001600020819055508073ffffffffffffffffffffffffffffffffffffffff16827f246302e498f32cefcdb2816520646b24be648dc6bd68adea9f865c4029d82a0960405160405180910390a35050565b60066020528060005260406000206000915090508060000154908060010154908060020154908060030154908060040154908060050160009054906101000a900460ff16905086565b61117a6130a3565b73ffffffffffffffffffffffffffffffffffffffff16611198611596565b73ffffffffffffffffffffffffffffffffffffffff16146111ee576040517f08c379a00000000000000000000000000000000000000000000000000000000081526004016111e590613c1f565b60405180910390fd5b600073ffffffffffffffffffffffffffffffffffffffff168173ffffffffffffffffffffffffffffffffffffffff16141561125e576040517f08c379a000000000000000000000000000000000000000000000000000000000815260040161125590613d7f565b60405180910390fd5b600360008273ffffffffffffffffffffffffffffffffffffffff1673ffffffffffffffffffffffffffffffffffffffff16815260200190815260200160002060009054906101000a900460ff166112ea576040517f08c379a00000000000000000000000000000000000000000000000000000000081526004016112e190613b5f565b60405180910390fd5b6000600360008373ffffffffffffffffffffffffffffffffffffffff1673ffffffffffffffffffffffffffffffffffffffff16815260200190815260200160002060006101000a81548160ff0219169083151502179055508073ffffffffffffffffffffffffffffffffffffffff167fa995c74341d87d6382e611e2f9439787e1d6c954ed0032d4402817eb78f225c860006040516113899190613ac4565b60405180910390a250565b600061139f82611576565b6113ac57600090506113cf565b600060066000848152602001908152602001600020905060008160000154119150505b919050565b60006113df82611576565b6113ec576000905061140f565b600060056000848152602001908152602001600020905060008160000154119150505b919050565b61141c6130a3565b73ffffffffffffffffffffffffffffffffffffffff1661143a611596565b73ffffffffffffffffffffffffffffffffffffffff1614611490576040517f08c379a000000000000000000000000000000000000000000000000000000000815260040161148790613c1f565b60405180910390fd5b61149a60006130ab565b565b600080600060056000868152602001908152602001600020905060006001856114c5919061407f565b9050816005018160ff1660038110611506577f4e487b7100000000000000000000000000000000000000000000000000000000600052603260045260246000fd5b0154826008018260ff1660038110611547577f4e487b7100000000000000000000000000000000000000000000000000000000600052603260045260246000fd5b01549350935050509250929050565b600060066000838152602001908152602001600020600101549050919050565b6000808211801561158f575061158c600161316f565b82105b9050919050565b60008060009054906101000a900473ffffffffffffffffffffffffffffffffffffffff16905090565b600560205280600052604060002060009150905080600001549080600101549080600b0160009054906101000a900473ffffffffffffffffffffffffffffffffffffffff169080600c01549080600d01549080600e0154905086565b6000806000600560008581526020019081526020016000209050806000015481600101549250925050915091565b60008060006005600085815260200190815260200160002090506000816008016002600381106116a2577f4e487b7100000000000000000000000000000000000000000000000000000000600052603260045260246000fd5b0154826008016001600381106116e1577f4e487b7100000000000000000000000000000000000000000000000000000000600052603260045260246000fd5b015483600801600060038110611720577f4e487b7100000000000000000000000000000000000000000000000000000000600052603260045260246000fd5b015461172c9190613f6a565b6117369190613f6a565b9050600082600501600260038110611777577f4e487b7100000000000000000000000000000000000000000000000000000000600052603260045260246000fd5b0154836005016001600381106117b6577f4e487b7100000000000000000000000000000000000000000000000000000000600052603260045260246000fd5b0154846005016000600381106117f5577f4e487b7100000000000000000000000000000000000000000000000000000000600052603260045260246000fd5b01546118019190613f6a565b61180b9190613f6a565b9050818194509450505050915091565b6000806000600660008581526020019081526020016000209050806002015481600301546118499190613fc0565b8160020154826004015461185d9190613fc0565b9250925050915091565b60006001611875600161316f565b61187f919061404b565b905090565b60006007600083815260200190815260200160002060009054906101000a900473ffffffffffffffffffffffffffffffffffffffff169050919050565b60006009600083815260200190815260200160002060009054906101000a900473ffffffffffffffffffffffffffffffffffffffff169050919050565b60096020528060005260406000206000915054906101000a900473ffffffffffffffffffffffffffffffffffffffff1681565b600060046000838152602001908152602001600020600101549050919050565b600060066000838152602001908152602001600020600201549050919050565b60006006600083815260200190815260200160002060050160009054906101000a900460ff169050919050565b60008060006005600085815260200190815260200160002090506000816005016002600381106119f7577f4e487b7100000000000000000000000000000000000000000000000000000000600052603260045260246000fd5b015482600501600160038110611a36577f4e487b7100000000000000000000000000000000000000000000000000000000600052603260045260246000fd5b015483600501600060038110611a75577f4e487b7100000000000000000000000000000000000000000000000000000000600052603260045260246000fd5b0154611a819190613f6a565b611a8b9190613f6a565b90508082600c0154611a9d9190613fc0565b8183600d0154611aad9190613fc0565b935093505050915091565b60008060006005600086815260200190815260200160002090506000600185611ae1919061407f565b9050816002018160ff1660038110611b22577f4e487b7100000000000000000000000000000000000000000000000000000000600052603260045260246000fd5b015482600b0160009054906101000a900473ffffffffffffffffffffffffffffffffffffffff169350935050509250929050565b6000600260009054906101000a900473ffffffffffffffffffffffffffffffffffffffff16905090565b600260009054906101000a900473ffffffffffffffffffffffffffffffffffffffff1681565b611bae6130a3565b73ffffffffffffffffffffffffffffffffffffffff16611bcc611596565b73ffffffffffffffffffffffffffffffffffffffff1614611c22576040517f08c379a0000000000000000000000000000000000000000000000000000000008152600401611c1990613c1f565b60405180910390fd5b814210611c64576040517f08c379a0000000000000000000000000000000000000000000000000000000008152600401611c5b90613b9f565b60405180910390fd5b818111611ca6576040517f08c379a0000000000000000000000000000000000000000000000000000000008152600401611c9d90613bbf565b60405180910390fd5b6000611cb2600161316f565b9050826004600083815260200190815260200160002060000181905550816004600083815260200190815260200160002060010181905550611cf4600161308d565b807fdf73b2c7803d688e4b8ab4ca91b7327d6a4ba9dccec9caaa12bab2a617fda1b58484604051611d26929190613de3565b60405180910390a2505050565b600360003373ffffffffffffffffffffffffffffffffffffffff1673ffffffffffffffffffffffffffffffffffffffff16815260200190815260200160002060009054906101000a900460ff16611dbf576040517f08c379a0000000000000000000000000000000000000000000000000000000008152600401611db690613cff565b60405180910390fd5b60006005600084815260200190815260200160002090506000600183611de5919061407f565b9050816002018160ff1660038110611e26577f4e487b7100000000000000000000000000000000000000000000000000000000600052603260045260246000fd5b0154826005018260ff1660038110611e67577f4e487b7100000000000000000000000000000000000000000000000000000000600052603260045260246000fd5b0154611e739190613f6a565b826005018260ff1660038110611eb2577f4e487b7100000000000000000000000000000000000000000000000000000000600052603260045260246000fd5b018190555050505050565b60036020528060005260406000206000915054906101000a900460ff1681565b611ee56130a3565b73ffffffffffffffffffffffffffffffffffffffff16611f03611596565b73ffffffffffffffffffffffffffffffffffffffff1614611f59576040517f08c379a0000000000000000000000000000000000000000000000000000000008152600401611f5090613c1f565b60405180910390fd5b6006600082815260200190815260200160002060050160009054906101000a900460ff1615611f87576121da565b600080611f9383611649565b8092508193505050818110156121a85760006064670de0b6b3a764000084611fbb9190613ff1565b611fc59190613fc0565b670de0b6b3a76400008385611fda919061404b565b611fe49190613ff1565b611fee9190613fc0565b90506000670de0b6b3a764000060648360056000898152602001908152602001600020600c015461201f9190613ff1565b6120299190613fc0565b6120339190613fc0565b90508060066000878152602001908152602001600020600301546120579190613f6a565b60066000878152602001908152602001600020600301819055508060056000878152602001908152602001600020600c0154612093919061404b565b60056000878152602001908152602001600020600c01819055506000670de0b6b3a7640000606484600560008a8152602001908152602001600020600d01546120dc9190613ff1565b6120e69190613fc0565b6120f09190613fc0565b90508060066000888152602001908152602001600020600401546121149190613f6a565b60066000888152602001908152602001600020600401819055508060056000888152602001908152602001600020600d0154612150919061404b565b60056000888152602001908152602001600020600d0181905550857f32e0dcff7306eb2251b431cfb692c9f423ddafa28f545c26ed6fef49c93906d7838360405161219c929190613de3565b60405180910390a25050505b60016006600085815260200190815260200160002060050160006101000a81548160ff02191690831515021790555050505b50565b6121e56130a3565b73ffffffffffffffffffffffffffffffffffffffff16612203611596565b73ffffffffffffffffffffffffffffffffffffffff1614612259576040517f08c379a000000000000000000000000000000000000000000000000000000000815260040161225090613c1f565b60405180910390fd5b600073ffffffffffffffffffffffffffffffffffffffff168173ffffffffffffffffffffffffffffffffffffffff1614156122c9576040517f08c379a00000000000000000000000000000000000000000000000000000000081526004016122c090613d7f565b60405180910390fd5b8073ffffffffffffffffffffffffffffffffffffffff16600260009054906101000a900473ffffffffffffffffffffffffffffffffffffffff1673ffffffffffffffffffffffffffffffffffffffff16141561235a576040517f08c379a000000000000000000000000000000000000000000000000000000000815260040161235190613bdf565b60405180910390fd5b80600260006101000a81548173ffffffffffffffffffffffffffffffffffffffff021916908373ffffffffffffffffffffffffffffffffffffffff1602179055508073ffffffffffffffffffffffffffffffffffffffff167f4cc9cc2c1c94b0f2a3403db2d1758433cbfa23312f4870c2a182918475ddcf0560405160405180910390a250565b6123e96130a3565b73ffffffffffffffffffffffffffffffffffffffff16612407611596565b73ffffffffffffffffffffffffffffffffffffffff161461245d576040517f08c379a000000000000000000000000000000000000000000000000000000000815260040161245490613c1f565b60405180910390fd5b600073ffffffffffffffffffffffffffffffffffffffff168173ffffffffffffffffffffffffffffffffffffffff1614156124cd576040517f08c379a00000000000000000000000000000000000000000000000000000000081526004016124c490613d7f565b60405180910390fd5b600360008273ffffffffffffffffffffffffffffffffffffffff1673ffffffffffffffffffffffffffffffffffffffff16815260200190815260200160002060009054906101000a900460ff161561255a576040517f08c379a000000000000000000000000000000000000000000000000000000000815260040161255190613d5f565b60405180910390fd5b6001600360008373ffffffffffffffffffffffffffffffffffffffff1673ffffffffffffffffffffffffffffffffffffffff16815260200190815260200160002060006101000a81548160ff0219169083151502179055508073ffffffffffffffffffffffffffffffffffffffff167fa995c74341d87d6382e611e2f9439787e1d6c954ed0032d4402817eb78f225c860016040516125f99190613ac4565b60405180910390a250565b61260c6130a3565b73ffffffffffffffffffffffffffffffffffffffff1661262a611596565b73ffffffffffffffffffffffffffffffffffffffff1614612680576040517f08c379a000000000000000000000000000000000000000000000000000000000815260040161267790613c1f565b60405180910390fd5b600073ffffffffffffffffffffffffffffffffffffffff168173ffffffffffffffffffffffffffffffffffffffff1614156126f0576040517f08c379a00000000000000000000000000000000000000000000000000000000081526004016126e790613aff565b60405180910390fd5b6126f9816130ab565b50565b60046020528060005260406000206000915090508060000154908060010154905082565b6127286130a3565b73ffffffffffffffffffffffffffffffffffffffff16612746611596565b73ffffffffffffffffffffffffffffffffffffffff161461279c576040517f08c379a000000000000000000000000000000000000000000000000000000000815260040161279390613c1f565b60405180910390fd5b6127a586611576565b6127e4576040517f08c379a00000000000000000000000000000000000000000000000000000000081526004016127db90613b7f565b60405180910390fd5b844210612826576040517f08c379a000000000000000000000000000000000000000000000000000000000815260040161281d90613adf565b60405180910390fd5b83851415801561283557508385105b612874576040517f08c379a000000000000000000000000000000000000000000000000000000000815260040161286b90613cdf565b60405180910390fd5b6000826000600381106128b0577f4e487b7100000000000000000000000000000000000000000000000000000000600052603260045260246000fd5b602002013511801561290057506000826001600381106128f9577f4e487b7100000000000000000000000000000000000000000000000000000000600052603260045260246000fd5b6020020135115b801561294a5750600082600260038110612943577f4e487b7100000000000000000000000000000000000000000000000000000000600052603260045260246000fd5b6020020135115b612989576040517f08c379a000000000000000000000000000000000000000000000000000000000815260040161298090613c3f565b60405180910390fd5b6000836000600381106129c5577f4e487b7100000000000000000000000000000000000000000000000000000000600052603260045260246000fd5b6020020135118015612a155750600083600160038110612a0e577f4e487b7100000000000000000000000000000000000000000000000000000000600052603260045260246000fd5b6020020135115b8015612a5f5750600083600260038110612a58577f4e487b7100000000000000000000000000000000000000000000000000000000600052603260045260246000fd5b6020020135115b612a9e576040517f08c379a0000000000000000000000000000000000000000000000000000000008152600401612a9590613c7f565b60405180910390fd5b60006005600088815260200190815260200160002090506000816000015414612afc576040517f08c379a0000000000000000000000000000000000000000000000000000000008152600401612af390613d5f565b60405180910390fd5b60006004600089815260200190815260200160002060010154905060008111612b5a576040517f08c379a0000000000000000000000000000000000000000000000000000000008152600401612b5190613d1f565b60405180910390fd5b808711612b9c576040517f08c379a0000000000000000000000000000000000000000000000000000000008152600401612b9390613c9f565b60405180910390fd5b8682600001819055508582600101819055508482600201906003612bc192919061317d565b508382600801906003612bd592919061317d565b508282600b0160006101000a81548173ffffffffffffffffffffffffffffffffffffffff021916908373ffffffffffffffffffffffffffffffffffffffff1602179055508273ffffffffffffffffffffffffffffffffffffffff16887f79bf20ae2c511f70496feccd088ed3e0f7d78cd75dccb90cf37f56d71b48bdee8989888a604051612c669493929190613e6d565b60405180910390a35050505050505050565b612c806130a3565b73ffffffffffffffffffffffffffffffffffffffff16612c9e611596565b73ffffffffffffffffffffffffffffffffffffffff1614612cf4576040517f08c379a0000000000000000000000000000000000000000000000000000000008152600401612ceb90613c1f565b60405180910390fd5b612cfd86611394565b612d3c576040517f08c379a0000000000000000000000000000000000000000000000000000000008152600401612d3390613b1f565b60405180910390fd5b612d45866109e1565b15612d85576040517f08c379a0000000000000000000000000000000000000000000000000000000008152600401612d7c90613cbf565b60405180910390fd5b600085118015612d955750600084115b8015612da15750600083115b8015612dad5750600082115b612dec576040517f08c379a0000000000000000000000000000000000000000000000000000000008152600401612de390613d3f565b60405180910390fd5b600073ffffffffffffffffffffffffffffffffffffffff168173ffffffffffffffffffffffffffffffffffffffff161415612e5c576040517f08c379a0000000000000000000000000000000000000000000000000000000008152600401612e5390613d7f565b60405180910390fd5b6000600860008373ffffffffffffffffffffffffffffffffffffffff1673ffffffffffffffffffffffffffffffffffffffff1681526020019081526020016000205414612ede576040517f08c379a0000000000000000000000000000000000000000000000000000000008152600401612ed590613b3f565b60405180910390fd5b60006005600088815260200190815260200160002090506000600660008981526020019081526020016000209050670de0b6b3a764000087612f209190613ff1565b82600c0181905550670de0b6b3a764000086612f3c9190613ff1565b82600d0181905550670de0b6b3a764000085612f589190613ff1565b8160030181905550670de0b6b3a764000084612f749190613ff1565b816004018190555081600d015482600c0154612f909190613fc0565b82600e018190555082600760008a815260200190815260200160002060006101000a81548173ffffffffffffffffffffffffffffffffffffffff021916908373ffffffffffffffffffffffffffffffffffffffff16021790555087600860008573ffffffffffffffffffffffffffffffffffffffff1673ffffffffffffffffffffffffffffffffffffffff168152602001908152602001600020819055508273ffffffffffffffffffffffffffffffffffffffff16887f7a9301e1d7e4267aac1f04cc3785bf5fce447f08569268d3d23d997ab05c6d288989898960405161307b9493929190613eb3565b60405180910390a35050505050505050565b6001816000016000828254019250508190555050565b600033905090565b60008060009054906101000a900473ffffffffffffffffffffffffffffffffffffffff169050816000806101000a81548173ffffffffffffffffffffffffffffffffffffffff021916908373ffffffffffffffffffffffffffffffffffffffff1602179055508173ffffffffffffffffffffffffffffffffffffffff168173ffffffffffffffffffffffffffffffffffffffff167f8be0079c531659141344cd1fd0a4f28419497f9722a3daafe3b4186f6b6457e060405160405180910390a35050565b600081600001549050919050565b82600381019282156131ac579160200282015b828111156131ab578235825591602001919060010190613190565b5b5090506131b991906131bd565b5090565b5b808211156131d65760008160009055506001016131be565b5090565b6000813590506131e981614182565b92915050565b60008190508260206003028201111561320757600080fd5b92915050565b60008135905061321c81614199565b92915050565b600081359050613231816141b0565b92915050565b60006020828403121561324957600080fd5b6000613257848285016131da565b91505092915050565b60006020828403121561327257600080fd5b600061328084828501613222565b91505092915050565b6000806040838503121561329c57600080fd5b60006132aa85828601613222565b92505060206132bb858286016131da565b9150509250929050565b600080604083850312156132d857600080fd5b60006132e685828601613222565b92505060206132f78582860161320d565b9150509250929050565b6000806040838503121561331457600080fd5b600061332285828601613222565b925050602061333385828601613222565b9150509250929050565b60008060006060848603121561335257600080fd5b600061336086828701613222565b935050602061337186828701613222565b925050604061338286828701613222565b9150509250925092565b60008060008060008061014087890312156133a657600080fd5b60006133b489828a01613222565b96505060206133c589828a01613222565b95505060406133d689828a01613222565b94505060606133e789828a016131ef565b93505060c06133f889828a016131ef565b92505061012061340a89828a016131da565b9150509295509295509295565b60008060008060008060c0878903121561343057600080fd5b600061343e89828a01613222565b965050602061344f89828a01613222565b955050604061346089828a01613222565b945050606061347189828a01613222565b935050608061348289828a01613222565b92505060a061349389828a016131da565b9150509295509295509295565b6134a9816140b3565b82525050565b6134bb60608383614115565b5050565b6134c8816140c5565b82525050565b60006134db601e83613f59565b91507f4c69676874686f7573653a20494e56414c49445f53544152545f54494d4500006000830152602082019050919050565b600061351b602683613f59565b91507f4f776e61626c653a206e6577206f776e657220697320746865207a65726f206160008301527f64647265737300000000000000000000000000000000000000000000000000006020830152604082019050919050565b6000613581601683613f59565b91507f4c69676874686f7573653a204e4f5f41554354494f4e000000000000000000006000830152602082019050919050565b60006135c1601483613f59565b91507f4c69676874686f7573653a204e46545f555345440000000000000000000000006000830152602082019050919050565b6000613601601383613f59565b91507f4c69676874686f7573653a204e4f5f55534552000000000000000000000000006000830152602082019050919050565b6000613641601e83613f59565b91507f4c69676874686f7573653a20494e56414c49445f50524f4a4543545f494400006000830152602082019050919050565b6000613681601783613f59565b91507f4c69676874686f7573653a2054494d455f5041535345440000000000000000006000830152602082019050919050565b60006136c1601e83613f59565b91507f4c69676874686f7573653a20494e434f52524543545f454e445f54494d4500006000830152602082019050919050565b6000613701601883613f59565b91507f4c69676874686f7573653a2053414d455f4144445245535300000000000000006000830152602082019050919050565b6000613741601a83613f59565b91507f4c69676874686f7573653a204e4f5f50524546554e445f5945540000000000006000830152602082019050919050565b6000613781602083613f59565b91507f4f776e61626c653a2063616c6c6572206973206e6f7420746865206f776e65726000830152602082019050919050565b60006137c1601983613f59565b91507f4c69676874686f7573653a205a45524f5f504f4f4c5f434150000000000000006000830152602082019050919050565b6000613801601483613f59565b91507f4c69676874686f7573653a205043435f555345440000000000000000000000006000830152602082019050919050565b6000613841601c83613f59565b91507f4c69676874686f7573653a205a45524f5f46495845445f5052494345000000006000830152602082019050919050565b6000613881602383613f59565b91507f4c69676874686f7573653a204e4f5f524547495354524154494f4e5f454e445f60008301527f59455400000000000000000000000000000000000000000000000000000000006020830152604082019050919050565b60006138e7601d83613f59565b91507f4c69676874686f7573653a20414c52454144595f494e495449415445440000006000830152602082019050919050565b6000613927601c83613f59565b91507f4c69676874686f7573653a20494e56414c49445f454e445f54494d45000000006000830152602082019050919050565b6000613967601583613f59565b91507f4c69676874686f7573653a20464f5242494444454e00000000000000000000006000830152602082019050919050565b60006139a7601f83613f59565b91507f4c69676874686f7573653a204e4f5f524547495354524154494f4e5f594554006000830152602082019050919050565b60006139e7601a83613f59565b91507f4c69676874686f7573653a205a45524f5f504152414d455445520000000000006000830152602082019050919050565b6000613a27601983613f59565b91507f4c69676874686f7573653a20414c52454144595f4144444544000000000000006000830152602082019050919050565b6000613a67601883613f59565b91507f4c69676874686f7573653a205a45524f5f4144445245535300000000000000006000830152602082019050919050565b613aa3816140fe565b82525050565b6000602082019050613abe60008301846134a0565b92915050565b6000602082019050613ad960008301846134bf565b92915050565b60006020820190508181036000830152613af8816134ce565b9050919050565b60006020820190508181036000830152613b188161350e565b9050919050565b60006020820190508181036000830152613b3881613574565b9050919050565b60006020820190508181036000830152613b58816135b4565b9050919050565b60006020820190508181036000830152613b78816135f4565b9050919050565b60006020820190508181036000830152613b9881613634565b9050919050565b60006020820190508181036000830152613bb881613674565b9050919050565b60006020820190508181036000830152613bd8816136b4565b9050919050565b60006020820190508181036000830152613bf8816136f4565b9050919050565b60006020820190508181036000830152613c1881613734565b9050919050565b60006020820190508181036000830152613c3881613774565b9050919050565b60006020820190508181036000830152613c58816137b4565b9050919050565b60006020820190508181036000830152613c78816137f4565b9050919050565b60006020820190508181036000830152613c9881613834565b9050919050565b60006020820190508181036000830152613cb881613874565b9050919050565b60006020820190508181036000830152613cd8816138da565b9050919050565b60006020820190508181036000830152613cf88161391a565b9050919050565b60006020820190508181036000830152613d188161395a565b9050919050565b60006020820190508181036000830152613d388161399a565b9050919050565b60006020820190508181036000830152613d58816139da565b9050919050565b60006020820190508181036000830152613d7881613a1a565b9050919050565b60006020820190508181036000830152613d9881613a5a565b9050919050565b6000602082019050613db46000830184613a9a565b92915050565b6000604082019050613dcf6000830185613a9a565b613ddc60208301846134a0565b9392505050565b6000604082019050613df86000830185613a9a565b613e056020830184613a9a565b9392505050565b600060c082019050613e216000830189613a9a565b613e2e6020830188613a9a565b613e3b60408301876134a0565b613e486060830186613a9a565b613e556080830185613a9a565b613e6260a0830184613a9a565b979650505050505050565b600061010082019050613e836000830187613a9a565b613e906020830186613a9a565b613e9d60408301856134af565b613eaa60a08301846134af565b95945050505050565b6000608082019050613ec86000830187613a9a565b613ed56020830186613a9a565b613ee26040830185613a9a565b613eef6060830184613a9a565b95945050505050565b600060c082019050613f0d6000830189613a9a565b613f1a6020830188613a9a565b613f276040830187613a9a565b613f346060830186613a9a565b613f416080830185613a9a565b613f4e60a08301846134bf565b979650505050505050565b600082825260208201905092915050565b6000613f75826140fe565b9150613f80836140fe565b9250827fffffffffffffffffffffffffffffffffffffffffffffffffffffffffffffffff03821115613fb557613fb4614124565b5b828201905092915050565b6000613fcb826140fe565b9150613fd6836140fe565b925082613fe657613fe5614153565b5b828204905092915050565b6000613ffc826140fe565b9150614007836140fe565b9250817fffffffffffffffffffffffffffffffffffffffffffffffffffffffffffffffff04831182151516156140405761403f614124565b5b828202905092915050565b6000614056826140fe565b9150614061836140fe565b92508282101561407457614073614124565b5b828203905092915050565b600061408a82614108565b915061409583614108565b9250828210156140a8576140a7614124565b5b828203905092915050565b60006140be826140de565b9050919050565b60008115159050919050565b60008160000b9050919050565b600073ffffffffffffffffffffffffffffffffffffffff82169050919050565b6000819050919050565b600060ff82169050919050565b82818337600083830152505050565b7f4e487b7100000000000000000000000000000000000000000000000000000000600052601160045260246000fd5b7f4e487b7100000000000000000000000000000000000000000000000000000000600052601260045260246000fd5b61418b816140b3565b811461419657600080fd5b50565b6141a2816140d1565b81146141ad57600080fd5b50565b6141b9816140fe565b81146141c457600080fd5b5056fea264697066735822122078b0f4863d3bc343a9f583405cec4dbafa3c9f4499a12e1b0121f6ce6aa893cd64736f6c63430008000033",
  "linkReferences": {},
  "deployedLinkReferences": {}
}