{
  "_format": "hh-sol-artifact-1",
  "contractName": "LighthouseProject",
  "sourceName": "contracts/LighthouseProject.sol",
  "abi": [
    {
      "inputs": [
        {
          "internalType": "address",
          "name": "verifier",
          "type": "address"
        }
      ],
      "stateMutability": "nonpayable",
      "type": "constructor"
    },
    {
      "anonymous": false,
      "inputs": [
        {
          "indexed": true,
          "internalType": "uint256",
          "name": "id",
          "type": "uint256"
        },
        {
          "indexed": true,
          "internalType": "address",
          "name": "nftAddress",
          "type": "address"
        },
        {
          "indexed": false,
          "internalType": "uint256",
          "name": "prefundAllocation",
          "type": "uint256"
        },
        {
          "indexed": false,
          "internalType": "uint256",
          "name": "prefundCompensation",
          "type": "uint256"
        },
        {
          "indexed": false,
          "internalType": "uint256",
          "name": "auctionAllocation",
          "type": "uint256"
        },
        {
          "indexed": false,
          "internalType": "uint256",
          "name": "auctionCompensation",
          "type": "uint256"
        }
      ],
      "name": "InitAllocationCompensation",
      "type": "event"
    },
    {
      "anonymous": false,
      "inputs": [
        {
          "indexed": true,
          "internalType": "uint256",
          "name": "id",
          "type": "uint256"
        },
        {
          "indexed": false,
          "internalType": "uint256",
          "name": "startTime",
          "type": "uint256"
        },
        {
          "indexed": false,
          "internalType": "uint256",
          "name": "endTime",
          "type": "uint256"
        }
      ],
      "name": "InitAuction",
      "type": "event"
    },
    {
      "anonymous": false,
      "inputs": [
        {
          "indexed": true,
          "internalType": "uint256",
          "name": "id",
          "type": "uint256"
        },
        {
          "indexed": true,
          "internalType": "address",
          "name": "token",
          "type": "address"
        },
        {
          "indexed": false,
          "internalType": "uint256",
          "name": "startTime",
          "type": "uint256"
        },
        {
          "indexed": false,
          "internalType": "uint256",
          "name": "endTime",
          "type": "uint256"
        },
        {
          "indexed": false,
          "internalType": "uint256[3]",
          "name": "pools",
          "type": "uint256[3]"
        },
        {
          "indexed": false,
          "internalType": "uint256[3]",
          "name": "investAmounts",
          "type": "uint256[3]"
        }
      ],
      "name": "InitPrefund",
      "type": "event"
    },
    {
      "anonymous": false,
      "inputs": [
        {
          "indexed": true,
          "internalType": "uint256",
          "name": "id",
          "type": "uint256"
        },
        {
          "indexed": false,
          "internalType": "uint256",
          "name": "startTime",
          "type": "uint256"
        },
        {
          "indexed": false,
          "internalType": "uint256",
          "name": "endTime",
          "type": "uint256"
        }
      ],
      "name": "InitRegistration",
      "type": "event"
    },
    {
      "anonymous": false,
      "inputs": [
        {
          "indexed": true,
          "internalType": "address",
          "name": "previousOwner",
          "type": "address"
        },
        {
          "indexed": true,
          "internalType": "address",
          "name": "newOwner",
          "type": "address"
        }
      ],
      "name": "OwnershipTransferred",
      "type": "event"
    },
    {
      "anonymous": false,
      "inputs": [
        {
          "indexed": true,
          "internalType": "address",
          "name": "user",
          "type": "address"
        },
        {
          "indexed": false,
          "internalType": "bool",
          "name": "allowed",
          "type": "bool"
        }
      ],
      "name": "ProjectEditor",
      "type": "event"
    },
    {
      "anonymous": false,
      "inputs": [
        {
          "indexed": true,
          "internalType": "address",
          "name": "verifier",
          "type": "address"
        }
      ],
      "name": "SetKYCVerifier",
      "type": "event"
    },
    {
      "anonymous": false,
      "inputs": [
        {
          "indexed": true,
          "internalType": "uint256",
          "name": "id",
          "type": "uint256"
        },
        {
          "indexed": true,
          "internalType": "address",
          "name": "pccAddress",
          "type": "address"
        }
      ],
      "name": "SetPCC",
      "type": "event"
    },
    {
      "anonymous": false,
      "inputs": [
        {
          "indexed": true,
          "internalType": "uint256",
          "name": "id",
          "type": "uint256"
        },
        {
          "indexed": false,
          "internalType": "uint256",
          "name": "scaledPrefundAmount",
          "type": "uint256"
        },
        {
          "indexed": false,
          "internalType": "uint256",
          "name": "scaledCompensationAmount",
          "type": "uint256"
        }
      ],
      "name": "TransferPrefund",
      "type": "event"
    },
    {
      "inputs": [
        {
          "internalType": "address",
          "name": "_user",
          "type": "address"
        }
      ],
      "name": "addEditor",
      "outputs": [],
      "stateMutability": "nonpayable",
      "type": "function"
    },
    {
      "inputs": [
        {
          "internalType": "uint256",
          "name": "id",
          "type": "uint256"
        }
      ],
      "name": "allocationCompensationInitialized",
      "outputs": [
        {
          "internalType": "bool",
          "name": "",
          "type": "bool"
        }
      ],
      "stateMutability": "view",
      "type": "function"
    },
    {
      "inputs": [
        {
          "internalType": "uint256",
          "name": "id",
          "type": "uint256"
        }
      ],
      "name": "auctionEndTime",
      "outputs": [
        {
          "internalType": "uint256",
          "name": "",
          "type": "uint256"
        }
      ],
      "stateMutability": "view",
      "type": "function"
    },
    {
      "inputs": [
        {
          "internalType": "uint256",
          "name": "id",
          "type": "uint256"
        }
      ],
      "name": "auctionInitialized",
      "outputs": [
        {
          "internalType": "bool",
          "name": "",
          "type": "bool"
        }
      ],
      "stateMutability": "view",
      "type": "function"
    },
    {
      "inputs": [
        {
          "internalType": "uint256",
          "name": "id",
          "type": "uint256"
        }
      ],
      "name": "auctionScaledUnit",
      "outputs": [
        {
          "internalType": "uint256",
          "name": "",
          "type": "uint256"
        },
        {
          "internalType": "uint256",
          "name": "",
          "type": "uint256"
        }
      ],
      "stateMutability": "view",
      "type": "function"
    },
    {
      "inputs": [
        {
          "internalType": "uint256",
          "name": "id",
          "type": "uint256"
        }
      ],
      "name": "auctionTimeInfo",
      "outputs": [
        {
          "internalType": "uint256",
          "name": "",
          "type": "uint256"
        },
        {
          "internalType": "uint256",
          "name": "",
          "type": "uint256"
        }
      ],
      "stateMutability": "view",
      "type": "function"
    },
    {
      "inputs": [
        {
          "internalType": "uint256",
          "name": "id",
          "type": "uint256"
        }
      ],
      "name": "auctionTotalPool",
      "outputs": [
        {
          "internalType": "uint256",
          "name": "",
          "type": "uint256"
        }
      ],
      "stateMutability": "view",
      "type": "function"
    },
    {
      "inputs": [
        {
          "internalType": "uint256",
          "name": "",
          "type": "uint256"
        }
      ],
      "name": "auctions",
      "outputs": [
        {
          "internalType": "uint256",
          "name": "startTime",
          "type": "uint256"
        },
        {
          "internalType": "uint256",
          "name": "endTime",
          "type": "uint256"
        },
        {
          "internalType": "uint256",
          "name": "spent",
          "type": "uint256"
        },
        {
          "internalType": "uint256",
          "name": "scaledAllocation",
          "type": "uint256"
        },
        {
          "internalType": "uint256",
          "name": "scaledCompensation",
          "type": "uint256"
        },
        {
          "internalType": "bool",
          "name": "transferredPrefund",
          "type": "bool"
        }
      ],
      "stateMutability": "view",
      "type": "function"
    },
    {
      "inputs": [
        {
          "internalType": "uint256",
          "name": "id",
          "type": "uint256"
        },
        {
          "internalType": "uint256",
          "name": "amount",
          "type": "uint256"
        }
      ],
      "name": "collectAuctionAmount",
      "outputs": [],
      "stateMutability": "nonpayable",
      "type": "function"
    },
    {
      "inputs": [
        {
          "internalType": "uint256",
          "name": "id",
          "type": "uint256"
        },
        {
          "internalType": "int8",
          "name": "tier",
          "type": "int8"
        }
      ],
      "name": "collectPrefundInvestment",
      "outputs": [],
      "stateMutability": "nonpayable",
      "type": "function"
    },
    {
      "inputs": [
        {
          "internalType": "address",
          "name": "_user",
          "type": "address"
        }
      ],
      "name": "deleteEditorEditor",
      "outputs": [],
      "stateMutability": "nonpayable",
      "type": "function"
    },
    {
      "inputs": [
        {
          "internalType": "address",
          "name": "",
          "type": "address"
        }
      ],
      "name": "editors",
      "outputs": [
        {
          "internalType": "bool",
          "name": "",
          "type": "bool"
        }
      ],
      "stateMutability": "view",
      "type": "function"
    },
    {
      "inputs": [],
      "name": "getKYCVerifier",
      "outputs": [
        {
          "internalType": "address",
          "name": "",
          "type": "address"
        }
      ],
      "stateMutability": "view",
      "type": "function"
    },
    {
      "inputs": [
        {
          "internalType": "uint256",
          "name": "id",
          "type": "uint256"
        },
        {
          "internalType": "uint256",
          "name": "prefundAllocation",
          "type": "uint256"
        },
        {
          "internalType": "uint256",
          "name": "prefundCompensation",
          "type": "uint256"
        },
        {
          "internalType": "uint256",
          "name": "auctionAllocation",
          "type": "uint256"
        },
        {
          "internalType": "uint256",
          "name": "auctionCompensation",
          "type": "uint256"
        },
        {
          "internalType": "address",
          "name": "nftAddress",
          "type": "address"
        }
      ],
      "name": "initAllocationCompensation",
      "outputs": [],
      "stateMutability": "nonpayable",
      "type": "function"
    },
    {
      "inputs": [
        {
          "internalType": "uint256",
          "name": "id",
          "type": "uint256"
        },
        {
          "internalType": "uint256",
          "name": "startTime",
          "type": "uint256"
        },
        {
          "internalType": "uint256",
          "name": "endTime",
          "type": "uint256"
        }
      ],
      "name": "initAuction",
      "outputs": [],
      "stateMutability": "nonpayable",
      "type": "function"
    },
    {
      "inputs": [
        {
          "internalType": "uint256",
          "name": "id",
          "type": "uint256"
        },
        {
          "internalType": "uint256",
          "name": "startTime",
          "type": "uint256"
        },
        {
          "internalType": "uint256",
          "name": "endTime",
          "type": "uint256"
        },
        {
          "internalType": "uint256[3]",
          "name": "investAmounts",
          "type": "uint256[3]"
        },
        {
          "internalType": "uint256[3]",
          "name": "pools",
          "type": "uint256[3]"
        },
        {
          "internalType": "address",
          "name": "_token",
          "type": "address"
        }
      ],
      "name": "initPrefund",
      "outputs": [],
      "stateMutability": "nonpayable",
      "type": "function"
    },
    {
      "inputs": [
        {
          "internalType": "uint256",
          "name": "startTime",
          "type": "uint256"
        },
        {
          "internalType": "uint256",
          "name": "endTime",
          "type": "uint256"
        }
      ],
      "name": "initRegistration",
      "outputs": [],
      "stateMutability": "nonpayable",
      "type": "function"
    },
    {
      "inputs": [],
      "name": "kycVerifier",
      "outputs": [
        {
          "internalType": "address",
          "name": "",
          "type": "address"
        }
      ],
      "stateMutability": "view",
      "type": "function"
    },
    {
      "inputs": [
        {
          "internalType": "uint256",
          "name": "id",
          "type": "uint256"
        }
      ],
      "name": "nft",
      "outputs": [
        {
          "internalType": "address",
          "name": "",
          "type": "address"
        }
      ],
      "stateMutability": "view",
      "type": "function"
    },
    {
      "inputs": [
        {
          "internalType": "uint256",
          "name": "",
          "type": "uint256"
        }
      ],
      "name": "nfts",
      "outputs": [
        {
          "internalType": "address",
          "name": "",
          "type": "address"
        }
      ],
      "stateMutability": "view",
      "type": "function"
    },
    {
      "inputs": [],
      "name": "owner",
      "outputs": [
        {
          "internalType": "address",
          "name": "",
          "type": "address"
        }
      ],
      "stateMutability": "view",
      "type": "function"
    },
    {
      "inputs": [
        {
          "internalType": "uint256",
          "name": "id",
          "type": "uint256"
        }
      ],
      "name": "pcc",
      "outputs": [
        {
          "internalType": "address",
          "name": "",
          "type": "address"
        }
      ],
      "stateMutability": "view",
      "type": "function"
    },
    {
      "inputs": [
        {
          "internalType": "uint256",
          "name": "",
          "type": "uint256"
        }
      ],
      "name": "pccs",
      "outputs": [
        {
          "internalType": "address",
          "name": "",
          "type": "address"
        }
      ],
      "stateMutability": "view",
      "type": "function"
    },
    {
      "inputs": [
        {
          "internalType": "uint256",
          "name": "id",
          "type": "uint256"
        }
      ],
      "name": "prefundEndTime",
      "outputs": [
        {
          "internalType": "uint256",
          "name": "",
          "type": "uint256"
        }
      ],
      "stateMutability": "view",
      "type": "function"
    },
    {
      "inputs": [
        {
          "internalType": "uint256",
          "name": "id",
          "type": "uint256"
        }
      ],
      "name": "prefundInitialized",
      "outputs": [
        {
          "internalType": "bool",
          "name": "",
          "type": "bool"
        }
      ],
      "stateMutability": "view",
      "type": "function"
    },
    {
      "inputs": [
        {
          "internalType": "uint256",
          "name": "id",
          "type": "uint256"
        },
        {
          "internalType": "int8",
          "name": "tier",
          "type": "int8"
        }
      ],
      "name": "prefundInvestAmount",
      "outputs": [
        {
          "internalType": "uint256",
          "name": "",
          "type": "uint256"
        },
        {
          "internalType": "address",
          "name": "",
          "type": "address"
        }
      ],
      "stateMutability": "view",
      "type": "function"
    },
    {
      "inputs": [
        {
          "internalType": "uint256",
          "name": "id",
          "type": "uint256"
        },
        {
          "internalType": "int8",
          "name": "tier",
          "type": "int8"
        }
      ],
      "name": "prefundPoolInfo",
      "outputs": [
        {
          "internalType": "uint256",
          "name": "",
          "type": "uint256"
        },
        {
          "internalType": "uint256",
          "name": "",
          "type": "uint256"
        }
      ],
      "stateMutability": "view",
      "type": "function"
    },
    {
      "inputs": [
        {
          "internalType": "uint256",
          "name": "id",
          "type": "uint256"
        }
      ],
      "name": "prefundScaledUnit",
      "outputs": [
        {
          "internalType": "uint256",
          "name": "",
          "type": "uint256"
        },
        {
          "internalType": "uint256",
          "name": "",
          "type": "uint256"
        }
      ],
      "stateMutability": "view",
      "type": "function"
    },
    {
      "inputs": [
        {
          "internalType": "uint256",
          "name": "id",
          "type": "uint256"
        }
      ],
      "name": "prefundTimeInfo",
      "outputs": [
        {
          "internalType": "uint256",
          "name": "",
          "type": "uint256"
        },
        {
          "internalType": "uint256",
          "name": "",
          "type": "uint256"
        }
      ],
      "stateMutability": "view",
      "type": "function"
    },
    {
      "inputs": [
        {
          "internalType": "uint256",
          "name": "id",
          "type": "uint256"
        }
      ],
      "name": "prefundTotalPool",
      "outputs": [
        {
          "internalType": "uint256",
          "name": "",
          "type": "uint256"
        },
        {
          "internalType": "uint256",
          "name": "",
          "type": "uint256"
        }
      ],
      "stateMutability": "view",
      "type": "function"
    },
    {
      "inputs": [
        {
          "internalType": "uint256",
          "name": "",
          "type": "uint256"
        }
      ],
      "name": "prefunds",
      "outputs": [
        {
          "internalType": "uint256",
          "name": "startTime",
          "type": "uint256"
        },
        {
          "internalType": "uint256",
          "name": "endTime",
          "type": "uint256"
        },
        {
          "internalType": "address",
          "name": "token",
          "type": "address"
        },
        {
          "internalType": "uint256",
          "name": "scaledAllocation",
          "type": "uint256"
        },
        {
          "internalType": "uint256",
          "name": "scaledCompensation",
          "type": "uint256"
        },
        {
          "internalType": "uint256",
          "name": "scaledRatio",
          "type": "uint256"
        }
      ],
      "stateMutability": "view",
      "type": "function"
    },
    {
      "inputs": [
        {
          "internalType": "uint256",
          "name": "id",
          "type": "uint256"
        }
      ],
      "name": "registrationEndTime",
      "outputs": [
        {
          "internalType": "uint256",
          "name": "",
          "type": "uint256"
        }
      ],
      "stateMutability": "view",
      "type": "function"
    },
    {
      "inputs": [
        {
          "internalType": "uint256",
          "name": "id",
          "type": "uint256"
        }
      ],
      "name": "registrationInfo",
      "outputs": [
        {
          "internalType": "uint256",
          "name": "",
          "type": "uint256"
        },
        {
          "internalType": "uint256",
          "name": "",
          "type": "uint256"
        }
      ],
      "stateMutability": "view",
      "type": "function"
    },
    {
      "inputs": [
        {
          "internalType": "uint256",
          "name": "id",
          "type": "uint256"
        }
      ],
      "name": "registrationInitialized",
      "outputs": [
        {
          "internalType": "bool",
          "name": "",
          "type": "bool"
        }
      ],
      "stateMutability": "view",
      "type": "function"
    },
    {
      "inputs": [
        {
          "internalType": "uint256",
          "name": "",
          "type": "uint256"
        }
      ],
      "name": "registrations",
      "outputs": [
        {
          "internalType": "uint256",
          "name": "startTime",
          "type": "uint256"
        },
        {
          "internalType": "uint256",
          "name": "endTime",
          "type": "uint256"
        }
      ],
      "stateMutability": "view",
      "type": "function"
    },
    {
      "inputs": [],
      "name": "renounceOwnership",
      "outputs": [],
      "stateMutability": "nonpayable",
      "type": "function"
    },
    {
      "inputs": [
        {
          "internalType": "address",
          "name": "verifier",
          "type": "address"
        }
      ],
      "name": "setKYCVerifier",
      "outputs": [],
      "stateMutability": "nonpayable",
      "type": "function"
    },
    {
      "inputs": [
        {
          "internalType": "uint256",
          "name": "id",
          "type": "uint256"
        },
        {
          "internalType": "address",
          "name": "pccAddress",
          "type": "address"
        }
      ],
      "name": "setPcc",
      "outputs": [],
      "stateMutability": "nonpayable",
      "type": "function"
    },
    {
      "inputs": [],
      "name": "totalProjects",
      "outputs": [
        {
          "internalType": "uint256",
          "name": "",
          "type": "uint256"
        }
      ],
      "stateMutability": "view",
      "type": "function"
    },
    {
      "inputs": [
        {
          "internalType": "address",
          "name": "newOwner",
          "type": "address"
        }
      ],
      "name": "transferOwnership",
      "outputs": [],
      "stateMutability": "nonpayable",
      "type": "function"
    },
    {
      "inputs": [
        {
          "internalType": "uint256",
          "name": "id",
          "type": "uint256"
        }
      ],
      "name": "transferPrefund",
      "outputs": [],
      "stateMutability": "nonpayable",
      "type": "function"
    },
    {
      "inputs": [
        {
          "internalType": "uint256",
          "name": "id",
          "type": "uint256"
        }
      ],
      "name": "transferredPrefund",
      "outputs": [
        {
          "internalType": "bool",
          "name": "",
          "type": "bool"
        }
      ],
      "stateMutability": "view",
      "type": "function"
    },
    {
      "inputs": [
        {
          "internalType": "address",
          "name": "",
          "type": "address"
        }
      ],
      "name": "usedNfts",
      "outputs": [
        {
          "internalType": "uint256",
          "name": "",
          "type": "uint256"
        }
      ],
      "stateMutability": "view",
      "type": "function"
    },
    {
      "inputs": [
        {
          "internalType": "address",
          "name": "",
          "type": "address"
        }
      ],
      "name": "usedPccs",
      "outputs": [
        {
          "internalType": "uint256",
          "name": "",
          "type": "uint256"
        }
      ],
      "stateMutability": "view",
      "type": "function"
    },
    {
      "inputs": [
        {
          "internalType": "uint256",
          "name": "id",
          "type": "uint256"
        }
      ],
      "name": "validProjectId",
      "outputs": [
        {
          "internalType": "bool",
          "name": "",
          "type": "bool"
        }
      ],
      "stateMutability": "view",
      "type": "function"
    }
  ],
  "bytecode": "0x60806040523480156200001157600080fd5b506040516200477d3803806200477d8339818101604052810190620000379190620003c5565b620000576200004b6200008660201b60201c565b6200008e60201b60201c565b62000068816200015260201b60201c565b6200007f60016200036f60201b620030811760201c565b506200057c565b600033905090565b60008060009054906101000a900473ffffffffffffffffffffffffffffffffffffffff169050816000806101000a81548173ffffffffffffffffffffffffffffffffffffffff021916908373ffffffffffffffffffffffffffffffffffffffff1602179055508173ffffffffffffffffffffffffffffffffffffffff168173ffffffffffffffffffffffffffffffffffffffff167f8be0079c531659141344cd1fd0a4f28419497f9722a3daafe3b4186f6b6457e060405160405180910390a35050565b620001626200008660201b60201c565b73ffffffffffffffffffffffffffffffffffffffff16620001886200038560201b60201c565b73ffffffffffffffffffffffffffffffffffffffff1614620001e1576040517f08c379a0000000000000000000000000000000000000000000000000000000008152600401620001d890620004d9565b60405180910390fd5b600073ffffffffffffffffffffffffffffffffffffffff168173ffffffffffffffffffffffffffffffffffffffff16141562000254576040517f08c379a00000000000000000000000000000000000000000000000000000000081526004016200024b90620004fb565b60405180910390fd5b8073ffffffffffffffffffffffffffffffffffffffff16600260009054906101000a900473ffffffffffffffffffffffffffffffffffffffff1673ffffffffffffffffffffffffffffffffffffffff161415620002e8576040517f08c379a0000000000000000000000000000000000000000000000000000000008152600401620002df90620004b7565b60405180910390fd5b80600260006101000a81548173ffffffffffffffffffffffffffffffffffffffff021916908373ffffffffffffffffffffffffffffffffffffffff1602179055508073ffffffffffffffffffffffffffffffffffffffff167f4cc9cc2c1c94b0f2a3403db2d1758433cbfa23312f4870c2a182918475ddcf0560405160405180910390a250565b6001816000016000828254019250508190555050565b60008060009054906101000a900473ffffffffffffffffffffffffffffffffffffffff16905090565b600081519050620003bf8162000562565b92915050565b600060208284031215620003d857600080fd5b6000620003e884828501620003ae565b91505092915050565b6000620004006018836200051d565b91507f4c69676874686f7573653a2053414d455f4144445245535300000000000000006000830152602082019050919050565b6000620004426020836200051d565b91507f4f776e61626c653a2063616c6c6572206973206e6f7420746865206f776e65726000830152602082019050919050565b6000620004846018836200051d565b91507f4c69676874686f7573653a205a45524f5f4144445245535300000000000000006000830152602082019050919050565b60006020820190508181036000830152620004d281620003f1565b9050919050565b60006020820190508181036000830152620004f48162000433565b9050919050565b60006020820190508181036000830152620005168162000475565b9050919050565b600082825260208201905092915050565b60006200053b8262000542565b9050919050565b600073ffffffffffffffffffffffffffffffffffffffff82169050919050565b6200056d816200052e565b81146200057957600080fd5b50565b6141f1806200058c6000396000f3fe608060405234801561001057600080fd5b506004361061027f5760003560e01c8063943df3151161015c578063b60da085116100ce578063d17f641711610087578063d17f6417146108ec578063e5975bdc14610908578063f2fde38b14610924578063f4ddb5be14610940578063f8285d3814610971578063fb5002471461098d5761027f565b8063b60da0851461082c578063b937e7cc1461084a578063be27db0014610868578063c82189e014610884578063cd52844d146108a0578063d0b0f392146108d05761027f565b8063a580397211610120578063a58039721461070a578063a84b06921461073a578063ae9d403a1461076a578063b22e912b1461079a578063b47e9f3e146107ca578063b5f5cf70146107fb5761027f565b8063943df3151461062a5780639922a1d51461065b5780639c361e4e1461068c5780639d0214cb146106aa578063a5045a16146106da5761027f565b8063571a26a0116101f557806374802857116101b95780637480285714610515578063777de704146105465780638d7365a9146105765780638da5cb5b146105a65780638de6a11a146105c45780638ee2a6d1146105f95761027f565b8063571a26a01461045a57806362a01ac21461048f57806364507efc146104ab5780636592b724146104db578063715018a61461050b5761027f565b80632693b12c116102475780632693b12c1461037557806337979b80146103a65780634005c3df146103c257806341e0f1b1146103f2578063428ba8931461040e578063451bf0d31461043e5761027f565b8063016e34721461028457806305b576e3146102b45780631b4ead45146102e457806324d2cb1714610314578063265aa62114610345575b600080fd5b61029e6004803603810190610299919061322b565b6109a9565b6040516102ab9190613d93565b60405180910390f35b6102ce60048036038101906102c99190613254565b6109c1565b6040516102db9190613d93565b60405180910390f35b6102fe60048036038101906102f99190613254565b6109e1565b60405161030b9190613ab8565b60405180910390f35b61032e60048036038101906103299190613254565b610a49565b60405161033c929190613dd7565b60405180910390f35b61035f600480360381019061035a9190613254565b610a77565b60405161036c9190613a9d565b60405180910390f35b61038f600480360381019061038a9190613254565b610aaa565b60405161039d929190613dd7565b60405180910390f35b6103c060048036038101906103bb9190613331565b610ad8565b005b6103dc60048036038101906103d7919061322b565b610d7d565b6040516103e99190613d93565b60405180910390f35b61040c600480360381019061040791906132f5565b610d95565b005b61042860048036038101906104239190613254565b610e55565b6040516104359190613ab8565b60405180910390f35b6104586004803603810190610453919061327d565b610e95565b005b610474600480360381019061046f9190613254565b611129565b60405161048696959493929190613eec565b60405180910390f35b6104a960048036038101906104a4919061322b565b611172565b005b6104c560048036038101906104c09190613254565b611394565b6040516104d29190613ab8565b60405180910390f35b6104f560048036038101906104f09190613254565b6113d4565b6040516105029190613ab8565b60405180910390f35b610513611414565b005b61052f600480360381019061052a91906132b9565b61149c565b60405161053d929190613dd7565b60405180910390f35b610560600480360381019061055b9190613254565b611556565b60405161056d9190613d93565b60405180910390f35b610590600480360381019061058b9190613254565b611576565b60405161059d9190613ab8565b60405180910390f35b6105ae611596565b6040516105bb9190613a9d565b60405180910390f35b6105de60048036038101906105d99190613254565b6115bf565b6040516105f096959493929190613e00565b60405180910390f35b610613600480360381019061060e9190613254565b61161b565b604051610621929190613dd7565b60405180910390f35b610644600480360381019061063f9190613254565b611649565b604051610652929190613dd7565b60405180910390f35b61067560048036038101906106709190613254565b61181b565b604051610683929190613dd7565b60405180910390f35b610694611867565b6040516106a19190613d93565b60405180910390f35b6106c460048036038101906106bf9190613254565b611878565b6040516106d19190613a9d565b60405180910390f35b6106f460048036038101906106ef9190613254565b6118b5565b6040516107019190613a9d565b60405180910390f35b610724600480360381019061071f9190613254565b6118f2565b6040516107319190613a9d565b60405180910390f35b610754600480360381019061074f9190613254565b611925565b6040516107619190613d93565b60405180910390f35b610784600480360381019061077f9190613254565b611945565b6040516107919190613d93565b60405180910390f35b6107b460048036038101906107af9190613254565b611965565b6040516107c19190613ab8565b60405180910390f35b6107e460048036038101906107df9190613254565b611992565b6040516107f2929190613dd7565b60405180910390f35b610815600480360381019061081091906132b9565b611aac565b604051610823929190613dae565b60405180910390f35b610834611b4a565b6040516108419190613a9d565b60405180910390f35b610852611b74565b60405161085f9190613a9d565b60405180910390f35b610882600480360381019061087d91906132f5565b611b9a565b005b61089e600480360381019061089991906132b9565b611d27565b005b6108ba60048036038101906108b5919061322b565b611eb1565b6040516108c79190613ab8565b60405180910390f35b6108ea60048036038101906108e59190613254565b611ed1565b005b6109066004803603810190610901919061322b565b6121d1565b005b610922600480360381019061091d919061322b565b6123d5565b005b61093e6004803603810190610939919061322b565b6125f8565b005b61095a60048036038101906109559190613254565b6126f0565b604051610968929190613dd7565b60405180910390f35b61098b60048036038101906109869190613380565b612714565b005b6109a760048036038101906109a2919061340b565b612c6c565b005b600a6020528060005260406000206000915090505481565b600060056000838152602001908152602001600020600101549050919050565b60006109ec82611576565b6109f95760009050610a44565b60006005600084815260200190815260200160002090506000600660008581526020019081526020016000209050600082600c0154118015610a3f575060008160030154115b925050505b919050565b6000806000600660008581526020019081526020016000209050806000015481600101549250925050915091565b60076020528060005260406000206000915054906101000a900473ffffffffffffffffffffffffffffffffffffffff1681565b6000806000600460008581526020019081526020016000209050806000015481600101549250925050915091565b610ae0613097565b73ffffffffffffffffffffffffffffffffffffffff16610afe611596565b73ffffffffffffffffffffffffffffffffffffffff1614610b54576040517f08c379a0000000000000000000000000000000000000000000000000000000008152600401610b4b90613c13565b60405180910390fd5b610b5d83611576565b610b9c576040517f08c379a0000000000000000000000000000000000000000000000000000000008152600401610b9390613b73565b60405180910390fd5b814210610bde576040517f08c379a0000000000000000000000000000000000000000000000000000000008152600401610bd590613ad3565b60405180910390fd5b808214158015610bed57508082105b610c2c576040517f08c379a0000000000000000000000000000000000000000000000000000000008152600401610c2390613cd3565b60405180910390fd5b60006006600085815260200190815260200160002090506000816000015414610c8a576040517f08c379a0000000000000000000000000000000000000000000000000000000008152600401610c8190613d53565b60405180910390fd5b60006005600086815260200190815260200160002060010154905060008111610ce8576040517f08c379a0000000000000000000000000000000000000000000000000000000008152600401610cdf90613bf3565b60405180910390fd5b808411610d2a576040517f08c379a0000000000000000000000000000000000000000000000000000000008152600401610d2190613c93565b60405180910390fd5b838260000181905550828260010181905550847f9b3770df20128a91841fed18e7e8efbd28645b85d6e95c9feeff96f7c9bd83968585604051610d6e929190613dd7565b60405180910390a25050505050565b60086020528060005260406000206000915090505481565b600360003373ffffffffffffffffffffffffffffffffffffffff1673ffffffffffffffffffffffffffffffffffffffff16815260200190815260200160002060009054906101000a900460ff16610e21576040517f08c379a0000000000000000000000000000000000000000000000000000000008152600401610e1890613cf3565b60405180910390fd5b6000600660008481526020019081526020016000209050818160020154610e489190613f5e565b8160020181905550505050565b6000610e6082611576565b610e6d5760009050610e90565b600060046000848152602001908152602001600020905060008160000154119150505b919050565b610e9d613097565b73ffffffffffffffffffffffffffffffffffffffff16610ebb611596565b73ffffffffffffffffffffffffffffffffffffffff1614610f11576040517f08c379a0000000000000000000000000000000000000000000000000000000008152600401610f0890613c13565b60405180910390fd5b610f1a82611576565b610f59576040517f08c379a0000000000000000000000000000000000000000000000000000000008152600401610f5090613b73565b60405180910390fd5b600073ffffffffffffffffffffffffffffffffffffffff168173ffffffffffffffffffffffffffffffffffffffff161415610fc9576040517f08c379a0000000000000000000000000000000000000000000000000000000008152600401610fc090613d73565b60405180910390fd5b6000600a60008373ffffffffffffffffffffffffffffffffffffffff1673ffffffffffffffffffffffffffffffffffffffff168152602001908152602001600020541461104b576040517f08c379a000000000000000000000000000000000000000000000000000000000815260040161104290613c53565b60405180910390fd5b806009600084815260200190815260200160002060006101000a81548173ffffffffffffffffffffffffffffffffffffffff021916908373ffffffffffffffffffffffffffffffffffffffff16021790555081600a60008373ffffffffffffffffffffffffffffffffffffffff1673ffffffffffffffffffffffffffffffffffffffff168152602001908152602001600020819055508073ffffffffffffffffffffffffffffffffffffffff16827f246302e498f32cefcdb2816520646b24be648dc6bd68adea9f865c4029d82a0960405160405180910390a35050565b60066020528060005260406000206000915090508060000154908060010154908060020154908060030154908060040154908060050160009054906101000a900460ff16905086565b61117a613097565b73ffffffffffffffffffffffffffffffffffffffff16611198611596565b73ffffffffffffffffffffffffffffffffffffffff16146111ee576040517f08c379a00000000000000000000000000000000000000000000000000000000081526004016111e590613c13565b60405180910390fd5b600073ffffffffffffffffffffffffffffffffffffffff168173ffffffffffffffffffffffffffffffffffffffff16141561125e576040517f08c379a000000000000000000000000000000000000000000000000000000000815260040161125590613d73565b60405180910390fd5b600360008273ffffffffffffffffffffffffffffffffffffffff1673ffffffffffffffffffffffffffffffffffffffff16815260200190815260200160002060009054906101000a900460ff166112ea576040517f08c379a00000000000000000000000000000000000000000000000000000000081526004016112e190613b53565b60405180910390fd5b6000600360008373ffffffffffffffffffffffffffffffffffffffff1673ffffffffffffffffffffffffffffffffffffffff16815260200190815260200160002060006101000a81548160ff0219169083151502179055508073ffffffffffffffffffffffffffffffffffffffff167fa995c74341d87d6382e611e2f9439787e1d6c954ed0032d4402817eb78f225c860006040516113899190613ab8565b60405180910390a250565b600061139f82611576565b6113ac57600090506113cf565b600060066000848152602001908152602001600020905060008160000154119150505b919050565b60006113df82611576565b6113ec576000905061140f565b600060056000848152602001908152602001600020905060008160000154119150505b919050565b61141c613097565b73ffffffffffffffffffffffffffffffffffffffff1661143a611596565b73ffffffffffffffffffffffffffffffffffffffff1614611490576040517f08c379a000000000000000000000000000000000000000000000000000000000815260040161148790613c13565b60405180910390fd5b61149a600061309f565b565b600080600060056000868152602001908152602001600020905060006001856114c59190614073565b9050816005018160ff1660038110611506577f4e487b7100000000000000000000000000000000000000000000000000000000600052603260045260246000fd5b0154826008018260ff1660038110611547577f4e487b7100000000000000000000000000000000000000000000000000000000600052603260045260246000fd5b01549350935050509250929050565b600060066000838152602001908152602001600020600101549050919050565b6000808211801561158f575061158c6001613163565b82105b9050919050565b60008060009054906101000a900473ffffffffffffffffffffffffffffffffffffffff16905090565b600560205280600052604060002060009150905080600001549080600101549080600b0160009054906101000a900473ffffffffffffffffffffffffffffffffffffffff169080600c01549080600d01549080600e0154905086565b6000806000600560008581526020019081526020016000209050806000015481600101549250925050915091565b60008060006005600085815260200190815260200160002090506000816008016002600381106116a2577f4e487b7100000000000000000000000000000000000000000000000000000000600052603260045260246000fd5b0154826008016001600381106116e1577f4e487b7100000000000000000000000000000000000000000000000000000000600052603260045260246000fd5b015483600801600060038110611720577f4e487b7100000000000000000000000000000000000000000000000000000000600052603260045260246000fd5b015461172c9190613f5e565b6117369190613f5e565b9050600082600501600260038110611777577f4e487b7100000000000000000000000000000000000000000000000000000000600052603260045260246000fd5b0154836005016001600381106117b6577f4e487b7100000000000000000000000000000000000000000000000000000000600052603260045260246000fd5b0154846005016000600381106117f5577f4e487b7100000000000000000000000000000000000000000000000000000000600052603260045260246000fd5b01546118019190613f5e565b61180b9190613f5e565b9050818194509450505050915091565b6000806000600660008581526020019081526020016000209050806002015481600301546118499190613fb4565b8160020154826004015461185d9190613fb4565b9250925050915091565b60006118736001613163565b905090565b60006007600083815260200190815260200160002060009054906101000a900473ffffffffffffffffffffffffffffffffffffffff169050919050565b60006009600083815260200190815260200160002060009054906101000a900473ffffffffffffffffffffffffffffffffffffffff169050919050565b60096020528060005260406000206000915054906101000a900473ffffffffffffffffffffffffffffffffffffffff1681565b600060046000838152602001908152602001600020600101549050919050565b600060066000838152602001908152602001600020600201549050919050565b60006006600083815260200190815260200160002060050160009054906101000a900460ff169050919050565b60008060006005600085815260200190815260200160002090506000816005016002600381106119eb577f4e487b7100000000000000000000000000000000000000000000000000000000600052603260045260246000fd5b015482600501600160038110611a2a577f4e487b7100000000000000000000000000000000000000000000000000000000600052603260045260246000fd5b015483600501600060038110611a69577f4e487b7100000000000000000000000000000000000000000000000000000000600052603260045260246000fd5b0154611a759190613f5e565b611a7f9190613f5e565b90508082600c0154611a919190613fb4565b8183600d0154611aa19190613fb4565b935093505050915091565b60008060006005600086815260200190815260200160002090506000600185611ad59190614073565b9050816002018160ff1660038110611b16577f4e487b7100000000000000000000000000000000000000000000000000000000600052603260045260246000fd5b015482600b0160009054906101000a900473ffffffffffffffffffffffffffffffffffffffff169350935050509250929050565b6000600260009054906101000a900473ffffffffffffffffffffffffffffffffffffffff16905090565b600260009054906101000a900473ffffffffffffffffffffffffffffffffffffffff1681565b611ba2613097565b73ffffffffffffffffffffffffffffffffffffffff16611bc0611596565b73ffffffffffffffffffffffffffffffffffffffff1614611c16576040517f08c379a0000000000000000000000000000000000000000000000000000000008152600401611c0d90613c13565b60405180910390fd5b814210611c58576040517f08c379a0000000000000000000000000000000000000000000000000000000008152600401611c4f90613b93565b60405180910390fd5b818111611c9a576040517f08c379a0000000000000000000000000000000000000000000000000000000008152600401611c9190613bb3565b60405180910390fd5b6000611ca66001613163565b9050826004600083815260200190815260200160002060000181905550816004600083815260200190815260200160002060010181905550611ce86001613081565b807fdf73b2c7803d688e4b8ab4ca91b7327d6a4ba9dccec9caaa12bab2a617fda1b58484604051611d1a929190613dd7565b60405180910390a2505050565b600360003373ffffffffffffffffffffffffffffffffffffffff1673ffffffffffffffffffffffffffffffffffffffff16815260200190815260200160002060009054906101000a900460ff16611db3576040517f08c379a0000000000000000000000000000000000000000000000000000000008152600401611daa90613cf3565b60405180910390fd5b60006005600084815260200190815260200160002090506000600183611dd99190614073565b9050816002018160ff1660038110611e1a577f4e487b7100000000000000000000000000000000000000000000000000000000600052603260045260246000fd5b0154826005018260ff1660038110611e5b577f4e487b7100000000000000000000000000000000000000000000000000000000600052603260045260246000fd5b0154611e679190613f5e565b826005018260ff1660038110611ea6577f4e487b7100000000000000000000000000000000000000000000000000000000600052603260045260246000fd5b018190555050505050565b60036020528060005260406000206000915054906101000a900460ff1681565b611ed9613097565b73ffffffffffffffffffffffffffffffffffffffff16611ef7611596565b73ffffffffffffffffffffffffffffffffffffffff1614611f4d576040517f08c379a0000000000000000000000000000000000000000000000000000000008152600401611f4490613c13565b60405180910390fd5b6006600082815260200190815260200160002060050160009054906101000a900460ff1615611f7b576121ce565b600080611f8783611649565b80925081935050508181101561219c5760006064670de0b6b3a764000084611faf9190613fe5565b611fb99190613fb4565b670de0b6b3a76400008385611fce919061403f565b611fd89190613fe5565b611fe29190613fb4565b90506000670de0b6b3a764000060648360056000898152602001908152602001600020600c01546120139190613fe5565b61201d9190613fb4565b6120279190613fb4565b905080600660008781526020019081526020016000206003015461204b9190613f5e565b60066000878152602001908152602001600020600301819055508060056000878152602001908152602001600020600c0154612087919061403f565b60056000878152602001908152602001600020600c01819055506000670de0b6b3a7640000606484600560008a8152602001908152602001600020600d01546120d09190613fe5565b6120da9190613fb4565b6120e49190613fb4565b90508060066000888152602001908152602001600020600401546121089190613f5e565b60066000888152602001908152602001600020600401819055508060056000888152602001908152602001600020600d0154612144919061403f565b60056000888152602001908152602001600020600d0181905550857f32e0dcff7306eb2251b431cfb692c9f423ddafa28f545c26ed6fef49c93906d78383604051612190929190613dd7565b60405180910390a25050505b60016006600085815260200190815260200160002060050160006101000a81548160ff02191690831515021790555050505b50565b6121d9613097565b73ffffffffffffffffffffffffffffffffffffffff166121f7611596565b73ffffffffffffffffffffffffffffffffffffffff161461224d576040517f08c379a000000000000000000000000000000000000000000000000000000000815260040161224490613c13565b60405180910390fd5b600073ffffffffffffffffffffffffffffffffffffffff168173ffffffffffffffffffffffffffffffffffffffff1614156122bd576040517f08c379a00000000000000000000000000000000000000000000000000000000081526004016122b490613d73565b60405180910390fd5b8073ffffffffffffffffffffffffffffffffffffffff16600260009054906101000a900473ffffffffffffffffffffffffffffffffffffffff1673ffffffffffffffffffffffffffffffffffffffff16141561234e576040517f08c379a000000000000000000000000000000000000000000000000000000000815260040161234590613bd3565b60405180910390fd5b80600260006101000a81548173ffffffffffffffffffffffffffffffffffffffff021916908373ffffffffffffffffffffffffffffffffffffffff1602179055508073ffffffffffffffffffffffffffffffffffffffff167f4cc9cc2c1c94b0f2a3403db2d1758433cbfa23312f4870c2a182918475ddcf0560405160405180910390a250565b6123dd613097565b73ffffffffffffffffffffffffffffffffffffffff166123fb611596565b73ffffffffffffffffffffffffffffffffffffffff1614612451576040517f08c379a000000000000000000000000000000000000000000000000000000000815260040161244890613c13565b60405180910390fd5b600073ffffffffffffffffffffffffffffffffffffffff168173ffffffffffffffffffffffffffffffffffffffff1614156124c1576040517f08c379a00000000000000000000000000000000000000000000000000000000081526004016124b890613d73565b60405180910390fd5b600360008273ffffffffffffffffffffffffffffffffffffffff1673ffffffffffffffffffffffffffffffffffffffff16815260200190815260200160002060009054906101000a900460ff161561254e576040517f08c379a000000000000000000000000000000000000000000000000000000000815260040161254590613d53565b60405180910390fd5b6001600360008373ffffffffffffffffffffffffffffffffffffffff1673ffffffffffffffffffffffffffffffffffffffff16815260200190815260200160002060006101000a81548160ff0219169083151502179055508073ffffffffffffffffffffffffffffffffffffffff167fa995c74341d87d6382e611e2f9439787e1d6c954ed0032d4402817eb78f225c860016040516125ed9190613ab8565b60405180910390a250565b612600613097565b73ffffffffffffffffffffffffffffffffffffffff1661261e611596565b73ffffffffffffffffffffffffffffffffffffffff1614612674576040517f08c379a000000000000000000000000000000000000000000000000000000000815260040161266b90613c13565b60405180910390fd5b600073ffffffffffffffffffffffffffffffffffffffff168173ffffffffffffffffffffffffffffffffffffffff1614156126e4576040517f08c379a00000000000000000000000000000000000000000000000000000000081526004016126db90613af3565b60405180910390fd5b6126ed8161309f565b50565b60046020528060005260406000206000915090508060000154908060010154905082565b61271c613097565b73ffffffffffffffffffffffffffffffffffffffff1661273a611596565b73ffffffffffffffffffffffffffffffffffffffff1614612790576040517f08c379a000000000000000000000000000000000000000000000000000000000815260040161278790613c13565b60405180910390fd5b61279986611576565b6127d8576040517f08c379a00000000000000000000000000000000000000000000000000000000081526004016127cf90613b73565b60405180910390fd5b84421061281a576040517f08c379a000000000000000000000000000000000000000000000000000000000815260040161281190613ad3565b60405180910390fd5b83851415801561282957508385105b612868576040517f08c379a000000000000000000000000000000000000000000000000000000000815260040161285f90613cd3565b60405180910390fd5b6000826000600381106128a4577f4e487b7100000000000000000000000000000000000000000000000000000000600052603260045260246000fd5b60200201351180156128f457506000826001600381106128ed577f4e487b7100000000000000000000000000000000000000000000000000000000600052603260045260246000fd5b6020020135115b801561293e5750600082600260038110612937577f4e487b7100000000000000000000000000000000000000000000000000000000600052603260045260246000fd5b6020020135115b61297d576040517f08c379a000000000000000000000000000000000000000000000000000000000815260040161297490613c33565b60405180910390fd5b6000836000600381106129b9577f4e487b7100000000000000000000000000000000000000000000000000000000600052603260045260246000fd5b6020020135118015612a095750600083600160038110612a02577f4e487b7100000000000000000000000000000000000000000000000000000000600052603260045260246000fd5b6020020135115b8015612a535750600083600260038110612a4c577f4e487b7100000000000000000000000000000000000000000000000000000000600052603260045260246000fd5b6020020135115b612a92576040517f08c379a0000000000000000000000000000000000000000000000000000000008152600401612a8990613c73565b60405180910390fd5b60006005600088815260200190815260200160002090506000816000015414612af0576040517f08c379a0000000000000000000000000000000000000000000000000000000008152600401612ae790613d53565b60405180910390fd5b60006004600089815260200190815260200160002060010154905060008111612b4e576040517f08c379a0000000000000000000000000000000000000000000000000000000008152600401612b4590613d13565b60405180910390fd5b808711612b90576040517f08c379a0000000000000000000000000000000000000000000000000000000008152600401612b8790613c93565b60405180910390fd5b8682600001819055508582600101819055508482600201906003612bb5929190613171565b508382600801906003612bc9929190613171565b508282600b0160006101000a81548173ffffffffffffffffffffffffffffffffffffffff021916908373ffffffffffffffffffffffffffffffffffffffff1602179055508273ffffffffffffffffffffffffffffffffffffffff16887f79bf20ae2c511f70496feccd088ed3e0f7d78cd75dccb90cf37f56d71b48bdee8989888a604051612c5a9493929190613e61565b60405180910390a35050505050505050565b612c74613097565b73ffffffffffffffffffffffffffffffffffffffff16612c92611596565b73ffffffffffffffffffffffffffffffffffffffff1614612ce8576040517f08c379a0000000000000000000000000000000000000000000000000000000008152600401612cdf90613c13565b60405180910390fd5b612cf186611394565b612d30576040517f08c379a0000000000000000000000000000000000000000000000000000000008152600401612d2790613b13565b60405180910390fd5b612d39866109e1565b15612d79576040517f08c379a0000000000000000000000000000000000000000000000000000000008152600401612d7090613cb3565b60405180910390fd5b600085118015612d895750600084115b8015612d955750600083115b8015612da15750600082115b612de0576040517f08c379a0000000000000000000000000000000000000000000000000000000008152600401612dd790613d33565b60405180910390fd5b600073ffffffffffffffffffffffffffffffffffffffff168173ffffffffffffffffffffffffffffffffffffffff161415612e50576040517f08c379a0000000000000000000000000000000000000000000000000000000008152600401612e4790613d73565b60405180910390fd5b6000600860008373ffffffffffffffffffffffffffffffffffffffff1673ffffffffffffffffffffffffffffffffffffffff1681526020019081526020016000205414612ed2576040517f08c379a0000000000000000000000000000000000000000000000000000000008152600401612ec990613b33565b60405180910390fd5b60006005600088815260200190815260200160002090506000600660008981526020019081526020016000209050670de0b6b3a764000087612f149190613fe5565b82600c0181905550670de0b6b3a764000086612f309190613fe5565b82600d0181905550670de0b6b3a764000085612f4c9190613fe5565b8160030181905550670de0b6b3a764000084612f689190613fe5565b816004018190555081600d015482600c0154612f849190613fb4565b82600e018190555082600760008a815260200190815260200160002060006101000a81548173ffffffffffffffffffffffffffffffffffffffff021916908373ffffffffffffffffffffffffffffffffffffffff16021790555087600860008573ffffffffffffffffffffffffffffffffffffffff1673ffffffffffffffffffffffffffffffffffffffff168152602001908152602001600020819055508273ffffffffffffffffffffffffffffffffffffffff16887f7a9301e1d7e4267aac1f04cc3785bf5fce447f08569268d3d23d997ab05c6d288989898960405161306f9493929190613ea7565b60405180910390a35050505050505050565b6001816000016000828254019250508190555050565b600033905090565b60008060009054906101000a900473ffffffffffffffffffffffffffffffffffffffff169050816000806101000a81548173ffffffffffffffffffffffffffffffffffffffff021916908373ffffffffffffffffffffffffffffffffffffffff1602179055508173ffffffffffffffffffffffffffffffffffffffff168173ffffffffffffffffffffffffffffffffffffffff167f8be0079c531659141344cd1fd0a4f28419497f9722a3daafe3b4186f6b6457e060405160405180910390a35050565b600081600001549050919050565b82600381019282156131a0579160200282015b8281111561319f578235825591602001919060010190613184565b5b5090506131ad91906131b1565b5090565b5b808211156131ca5760008160009055506001016131b2565b5090565b6000813590506131dd81614176565b92915050565b6000819050826020600302820111156131fb57600080fd5b92915050565b6000813590506132108161418d565b92915050565b600081359050613225816141a4565b92915050565b60006020828403121561323d57600080fd5b600061324b848285016131ce565b91505092915050565b60006020828403121561326657600080fd5b600061327484828501613216565b91505092915050565b6000806040838503121561329057600080fd5b600061329e85828601613216565b92505060206132af858286016131ce565b9150509250929050565b600080604083850312156132cc57600080fd5b60006132da85828601613216565b92505060206132eb85828601613201565b9150509250929050565b6000806040838503121561330857600080fd5b600061331685828601613216565b925050602061332785828601613216565b9150509250929050565b60008060006060848603121561334657600080fd5b600061335486828701613216565b935050602061336586828701613216565b925050604061337686828701613216565b9150509250925092565b600080600080600080610140878903121561339a57600080fd5b60006133a889828a01613216565b96505060206133b989828a01613216565b95505060406133ca89828a01613216565b94505060606133db89828a016131e3565b93505060c06133ec89828a016131e3565b9250506101206133fe89828a016131ce565b9150509295509295509295565b60008060008060008060c0878903121561342457600080fd5b600061343289828a01613216565b965050602061344389828a01613216565b955050604061345489828a01613216565b945050606061346589828a01613216565b935050608061347689828a01613216565b92505060a061348789828a016131ce565b9150509295509295509295565b61349d816140a7565b82525050565b6134af60608383614109565b5050565b6134bc816140b9565b82525050565b60006134cf601e83613f4d565b91507f4c69676874686f7573653a20494e56414c49445f53544152545f54494d4500006000830152602082019050919050565b600061350f602683613f4d565b91507f4f776e61626c653a206e6577206f776e657220697320746865207a65726f206160008301527f64647265737300000000000000000000000000000000000000000000000000006020830152604082019050919050565b6000613575601683613f4d565b91507f4c69676874686f7573653a204e4f5f41554354494f4e000000000000000000006000830152602082019050919050565b60006135b5601483613f4d565b91507f4c69676874686f7573653a204e46545f555345440000000000000000000000006000830152602082019050919050565b60006135f5601383613f4d565b91507f4c69676874686f7573653a204e4f5f55534552000000000000000000000000006000830152602082019050919050565b6000613635601e83613f4d565b91507f4c69676874686f7573653a20494e56414c49445f50524f4a4543545f494400006000830152602082019050919050565b6000613675601783613f4d565b91507f4c69676874686f7573653a2054494d455f5041535345440000000000000000006000830152602082019050919050565b60006136b5601e83613f4d565b91507f4c69676874686f7573653a20494e434f52524543545f454e445f54494d4500006000830152602082019050919050565b60006136f5601883613f4d565b91507f4c69676874686f7573653a2053414d455f4144445245535300000000000000006000830152602082019050919050565b6000613735601a83613f4d565b91507f4c69676874686f7573653a204e4f5f50524546554e445f5945540000000000006000830152602082019050919050565b6000613775602083613f4d565b91507f4f776e61626c653a2063616c6c6572206973206e6f7420746865206f776e65726000830152602082019050919050565b60006137b5601983613f4d565b91507f4c69676874686f7573653a205a45524f5f504f4f4c5f434150000000000000006000830152602082019050919050565b60006137f5601483613f4d565b91507f4c69676874686f7573653a205043435f555345440000000000000000000000006000830152602082019050919050565b6000613835601c83613f4d565b91507f4c69676874686f7573653a205a45524f5f46495845445f5052494345000000006000830152602082019050919050565b6000613875602383613f4d565b91507f4c69676874686f7573653a204e4f5f524547495354524154494f4e5f454e445f60008301527f59455400000000000000000000000000000000000000000000000000000000006020830152604082019050919050565b60006138db601d83613f4d565b91507f4c69676874686f7573653a20414c52454144595f494e495449415445440000006000830152602082019050919050565b600061391b601c83613f4d565b91507f4c69676874686f7573653a20494e56414c49445f454e445f54494d45000000006000830152602082019050919050565b600061395b601583613f4d565b91507f4c69676874686f7573653a20464f5242494444454e00000000000000000000006000830152602082019050919050565b600061399b601f83613f4d565b91507f4c69676874686f7573653a204e4f5f524547495354524154494f4e5f594554006000830152602082019050919050565b60006139db601a83613f4d565b91507f4c69676874686f7573653a205a45524f5f504152414d455445520000000000006000830152602082019050919050565b6000613a1b601983613f4d565b91507f4c69676874686f7573653a20414c52454144595f4144444544000000000000006000830152602082019050919050565b6000613a5b601883613f4d565b91507f4c69676874686f7573653a205a45524f5f4144445245535300000000000000006000830152602082019050919050565b613a97816140f2565b82525050565b6000602082019050613ab26000830184613494565b92915050565b6000602082019050613acd60008301846134b3565b92915050565b60006020820190508181036000830152613aec816134c2565b9050919050565b60006020820190508181036000830152613b0c81613502565b9050919050565b60006020820190508181036000830152613b2c81613568565b9050919050565b60006020820190508181036000830152613b4c816135a8565b9050919050565b60006020820190508181036000830152613b6c816135e8565b9050919050565b60006020820190508181036000830152613b8c81613628565b9050919050565b60006020820190508181036000830152613bac81613668565b9050919050565b60006020820190508181036000830152613bcc816136a8565b9050919050565b60006020820190508181036000830152613bec816136e8565b9050919050565b60006020820190508181036000830152613c0c81613728565b9050919050565b60006020820190508181036000830152613c2c81613768565b9050919050565b60006020820190508181036000830152613c4c816137a8565b9050919050565b60006020820190508181036000830152613c6c816137e8565b9050919050565b60006020820190508181036000830152613c8c81613828565b9050919050565b60006020820190508181036000830152613cac81613868565b9050919050565b60006020820190508181036000830152613ccc816138ce565b9050919050565b60006020820190508181036000830152613cec8161390e565b9050919050565b60006020820190508181036000830152613d0c8161394e565b9050919050565b60006020820190508181036000830152613d2c8161398e565b9050919050565b60006020820190508181036000830152613d4c816139ce565b9050919050565b60006020820190508181036000830152613d6c81613a0e565b9050919050565b60006020820190508181036000830152613d8c81613a4e565b9050919050565b6000602082019050613da86000830184613a8e565b92915050565b6000604082019050613dc36000830185613a8e565b613dd06020830184613494565b9392505050565b6000604082019050613dec6000830185613a8e565b613df96020830184613a8e565b9392505050565b600060c082019050613e156000830189613a8e565b613e226020830188613a8e565b613e2f6040830187613494565b613e3c6060830186613a8e565b613e496080830185613a8e565b613e5660a0830184613a8e565b979650505050505050565b600061010082019050613e776000830187613a8e565b613e846020830186613a8e565b613e9160408301856134a3565b613e9e60a08301846134a3565b95945050505050565b6000608082019050613ebc6000830187613a8e565b613ec96020830186613a8e565b613ed66040830185613a8e565b613ee36060830184613a8e565b95945050505050565b600060c082019050613f016000830189613a8e565b613f0e6020830188613a8e565b613f1b6040830187613a8e565b613f286060830186613a8e565b613f356080830185613a8e565b613f4260a08301846134b3565b979650505050505050565b600082825260208201905092915050565b6000613f69826140f2565b9150613f74836140f2565b9250827fffffffffffffffffffffffffffffffffffffffffffffffffffffffffffffffff03821115613fa957613fa8614118565b5b828201905092915050565b6000613fbf826140f2565b9150613fca836140f2565b925082613fda57613fd9614147565b5b828204905092915050565b6000613ff0826140f2565b9150613ffb836140f2565b9250817fffffffffffffffffffffffffffffffffffffffffffffffffffffffffffffffff048311821515161561403457614033614118565b5b828202905092915050565b600061404a826140f2565b9150614055836140f2565b92508282101561406857614067614118565b5b828203905092915050565b600061407e826140fc565b9150614089836140fc565b92508282101561409c5761409b614118565b5b828203905092915050565b60006140b2826140d2565b9050919050565b60008115159050919050565b60008160000b9050919050565b600073ffffffffffffffffffffffffffffffffffffffff82169050919050565b6000819050919050565b600060ff82169050919050565b82818337600083830152505050565b7f4e487b7100000000000000000000000000000000000000000000000000000000600052601160045260246000fd5b7f4e487b7100000000000000000000000000000000000000000000000000000000600052601260045260246000fd5b61417f816140a7565b811461418a57600080fd5b50565b614196816140c5565b81146141a157600080fd5b50565b6141ad816140f2565b81146141b857600080fd5b5056fea2646970667358221220124a49b5885cc20bc0fc23b2d4af64972d90f3bfb3a66c98baa8866aafeb466964736f6c63430008000033",
  "linkReferences": {},
  "deployedLinkReferences": {}
}