{
  "_format": "hh-sol-artifact-1",
  "contractName": "LighthouseProject",
  "sourceName": "contracts/LighthouseProject.sol",
  "abi": [
    {
      "inputs": [],
      "stateMutability": "nonpayable",
      "type": "constructor"
    },
    {
      "anonymous": false,
      "inputs": [
        {
          "indexed": true,
          "internalType": "uint256",
          "name": "id",
          "type": "uint256"
        },
        {
          "indexed": false,
          "internalType": "uint256",
          "name": "startTime",
          "type": "uint256"
        },
        {
          "indexed": false,
          "internalType": "uint256",
          "name": "endTime",
          "type": "uint256"
        }
      ],
      "name": "InitAuction",
      "type": "event"
    },
    {
      "anonymous": false,
      "inputs": [
        {
          "indexed": true,
          "internalType": "uint256",
          "name": "id",
          "type": "uint256"
        },
        {
          "indexed": true,
          "internalType": "address",
          "name": "token",
          "type": "address"
        },
        {
          "indexed": false,
          "internalType": "uint256",
          "name": "startTime",
          "type": "uint256"
        },
        {
          "indexed": false,
          "internalType": "uint256",
          "name": "endTime",
          "type": "uint256"
        },
        {
          "indexed": false,
          "internalType": "uint256[3]",
          "name": "pools",
          "type": "uint256[3]"
        },
        {
          "indexed": false,
          "internalType": "uint256[3]",
          "name": "fixedPrices",
          "type": "uint256[3]"
        }
      ],
      "name": "InitPrefund",
      "type": "event"
    },
    {
      "anonymous": false,
      "inputs": [
        {
          "indexed": true,
          "internalType": "uint256",
          "name": "id",
          "type": "uint256"
        },
        {
          "indexed": false,
          "internalType": "uint256",
          "name": "startTime",
          "type": "uint256"
        },
        {
          "indexed": false,
          "internalType": "uint256",
          "name": "endTime",
          "type": "uint256"
        }
      ],
      "name": "InitRegistration",
      "type": "event"
    },
    {
      "anonymous": false,
      "inputs": [
        {
          "indexed": true,
          "internalType": "address",
          "name": "previousOwner",
          "type": "address"
        },
        {
          "indexed": true,
          "internalType": "address",
          "name": "newOwner",
          "type": "address"
        }
      ],
      "name": "OwnershipTransferred",
      "type": "event"
    },
    {
      "anonymous": false,
      "inputs": [
        {
          "indexed": true,
          "internalType": "address",
          "name": "user",
          "type": "address"
        },
        {
          "indexed": false,
          "internalType": "bool",
          "name": "allowed",
          "type": "bool"
        }
      ],
      "name": "ProjectEditor",
      "type": "event"
    },
    {
      "inputs": [
        {
          "internalType": "address",
          "name": "_user",
          "type": "address"
        }
      ],
      "name": "addEditor",
      "outputs": [],
      "stateMutability": "nonpayable",
      "type": "function"
    },
    {
      "inputs": [
        {
          "internalType": "uint256",
          "name": "id",
          "type": "uint256"
        }
      ],
      "name": "auctionEndTime",
      "outputs": [
        {
          "internalType": "uint256",
          "name": "",
          "type": "uint256"
        }
      ],
      "stateMutability": "view",
      "type": "function"
    },
    {
      "inputs": [
        {
          "internalType": "uint256",
          "name": "id",
          "type": "uint256"
        }
      ],
      "name": "auctionInitialized",
      "outputs": [
        {
          "internalType": "bool",
          "name": "",
          "type": "bool"
        }
      ],
      "stateMutability": "view",
      "type": "function"
    },
    {
      "inputs": [
        {
          "internalType": "uint256",
          "name": "id",
          "type": "uint256"
        }
      ],
      "name": "auctionTimeInfo",
      "outputs": [
        {
          "internalType": "uint256",
          "name": "",
          "type": "uint256"
        },
        {
          "internalType": "uint256",
          "name": "",
          "type": "uint256"
        }
      ],
      "stateMutability": "view",
      "type": "function"
    },
    {
      "inputs": [
        {
          "internalType": "uint256",
          "name": "id",
          "type": "uint256"
        }
      ],
      "name": "auctionTotalPool",
      "outputs": [
        {
          "internalType": "uint256",
          "name": "",
          "type": "uint256"
        }
      ],
      "stateMutability": "view",
      "type": "function"
    },
    {
      "inputs": [
        {
          "internalType": "uint256",
          "name": "",
          "type": "uint256"
        }
      ],
      "name": "auctions",
      "outputs": [
        {
          "internalType": "uint256",
          "name": "startTime",
          "type": "uint256"
        },
        {
          "internalType": "uint256",
          "name": "endTime",
          "type": "uint256"
        },
        {
          "internalType": "uint256",
          "name": "spent",
          "type": "uint256"
        }
      ],
      "stateMutability": "view",
      "type": "function"
    },
    {
      "inputs": [
        {
          "internalType": "uint256",
          "name": "id",
          "type": "uint256"
        },
        {
          "internalType": "uint256",
          "name": "amount",
          "type": "uint256"
        }
      ],
      "name": "collectAuctionAmount",
      "outputs": [],
      "stateMutability": "nonpayable",
      "type": "function"
    },
    {
      "inputs": [
        {
          "internalType": "uint256",
          "name": "id",
          "type": "uint256"
        },
        {
          "internalType": "int8",
          "name": "tier",
          "type": "int8"
        }
      ],
      "name": "collectPrefundInvestment",
      "outputs": [],
      "stateMutability": "nonpayable",
      "type": "function"
    },
    {
      "inputs": [
        {
          "internalType": "address",
          "name": "_user",
          "type": "address"
        }
      ],
      "name": "deleteEditorEditor",
      "outputs": [],
      "stateMutability": "nonpayable",
      "type": "function"
    },
    {
      "inputs": [
        {
          "internalType": "address",
          "name": "",
          "type": "address"
        }
      ],
      "name": "editors",
      "outputs": [
        {
          "internalType": "bool",
          "name": "",
          "type": "bool"
        }
      ],
      "stateMutability": "view",
      "type": "function"
    },
    {
      "inputs": [
        {
          "internalType": "uint256",
          "name": "id",
          "type": "uint256"
        },
        {
          "internalType": "uint256",
          "name": "startTime",
          "type": "uint256"
        },
        {
          "internalType": "uint256",
          "name": "endTime",
          "type": "uint256"
        }
      ],
      "name": "initAuction",
      "outputs": [],
      "stateMutability": "nonpayable",
      "type": "function"
    },
    {
      "inputs": [
        {
          "internalType": "uint256",
          "name": "id",
          "type": "uint256"
        },
        {
          "internalType": "uint256",
          "name": "startTime",
          "type": "uint256"
        },
        {
          "internalType": "uint256",
          "name": "endTime",
          "type": "uint256"
        },
        {
          "internalType": "uint256[3]",
          "name": "fixedPrices",
          "type": "uint256[3]"
        },
        {
          "internalType": "uint256[3]",
          "name": "pools",
          "type": "uint256[3]"
        },
        {
          "internalType": "address",
          "name": "_token",
          "type": "address"
        }
      ],
      "name": "initPrefund",
      "outputs": [],
      "stateMutability": "nonpayable",
      "type": "function"
    },
    {
      "inputs": [
        {
          "internalType": "uint256",
          "name": "startTime",
          "type": "uint256"
        },
        {
          "internalType": "uint256",
          "name": "endTime",
          "type": "uint256"
        }
      ],
      "name": "initRegistration",
      "outputs": [],
      "stateMutability": "nonpayable",
      "type": "function"
    },
    {
      "inputs": [],
      "name": "owner",
      "outputs": [
        {
          "internalType": "address",
          "name": "",
          "type": "address"
        }
      ],
      "stateMutability": "view",
      "type": "function"
    },
    {
      "inputs": [
        {
          "internalType": "uint256",
          "name": "id",
          "type": "uint256"
        }
      ],
      "name": "prefundEndTime",
      "outputs": [
        {
          "internalType": "uint256",
          "name": "",
          "type": "uint256"
        }
      ],
      "stateMutability": "view",
      "type": "function"
    },
    {
      "inputs": [
        {
          "internalType": "uint256",
          "name": "id",
          "type": "uint256"
        }
      ],
      "name": "prefundInitialized",
      "outputs": [
        {
          "internalType": "bool",
          "name": "",
          "type": "bool"
        }
      ],
      "stateMutability": "view",
      "type": "function"
    },
    {
      "inputs": [
        {
          "internalType": "uint256",
          "name": "id",
          "type": "uint256"
        },
        {
          "internalType": "int8",
          "name": "tier",
          "type": "int8"
        }
      ],
      "name": "prefundInvestAmount",
      "outputs": [
        {
          "internalType": "uint256",
          "name": "",
          "type": "uint256"
        },
        {
          "internalType": "address",
          "name": "",
          "type": "address"
        }
      ],
      "stateMutability": "view",
      "type": "function"
    },
    {
      "inputs": [
        {
          "internalType": "uint256",
          "name": "id",
          "type": "uint256"
        },
        {
          "internalType": "int8",
          "name": "tier",
          "type": "int8"
        }
      ],
      "name": "prefundPoolInfo",
      "outputs": [
        {
          "internalType": "uint256",
          "name": "",
          "type": "uint256"
        },
        {
          "internalType": "uint256",
          "name": "",
          "type": "uint256"
        }
      ],
      "stateMutability": "view",
      "type": "function"
    },
    {
      "inputs": [
        {
          "internalType": "uint256",
          "name": "id",
          "type": "uint256"
        }
      ],
      "name": "prefundTimeInfo",
      "outputs": [
        {
          "internalType": "uint256",
          "name": "",
          "type": "uint256"
        },
        {
          "internalType": "uint256",
          "name": "",
          "type": "uint256"
        }
      ],
      "stateMutability": "view",
      "type": "function"
    },
    {
      "inputs": [
        {
          "internalType": "uint256",
          "name": "id",
          "type": "uint256"
        }
      ],
      "name": "prefundTotalPool",
      "outputs": [
        {
          "internalType": "uint256",
          "name": "",
          "type": "uint256"
        },
        {
          "internalType": "uint256",
          "name": "",
          "type": "uint256"
        }
      ],
      "stateMutability": "view",
      "type": "function"
    },
    {
      "inputs": [
        {
          "internalType": "uint256",
          "name": "",
          "type": "uint256"
        }
      ],
      "name": "prefunds",
      "outputs": [
        {
          "internalType": "uint256",
          "name": "startTime",
          "type": "uint256"
        },
        {
          "internalType": "uint256",
          "name": "endTime",
          "type": "uint256"
        },
        {
          "internalType": "address",
          "name": "token",
          "type": "address"
        }
      ],
      "stateMutability": "view",
      "type": "function"
    },
    {
      "inputs": [
        {
          "internalType": "uint256",
          "name": "id",
          "type": "uint256"
        }
      ],
      "name": "registrationEndTime",
      "outputs": [
        {
          "internalType": "uint256",
          "name": "",
          "type": "uint256"
        }
      ],
      "stateMutability": "view",
      "type": "function"
    },
    {
      "inputs": [
        {
          "internalType": "uint256",
          "name": "id",
          "type": "uint256"
        }
      ],
      "name": "registrationInfo",
      "outputs": [
        {
          "internalType": "uint256",
          "name": "",
          "type": "uint256"
        },
        {
          "internalType": "uint256",
          "name": "",
          "type": "uint256"
        }
      ],
      "stateMutability": "view",
      "type": "function"
    },
    {
      "inputs": [
        {
          "internalType": "uint256",
          "name": "id",
          "type": "uint256"
        }
      ],
      "name": "registrationInitialized",
      "outputs": [
        {
          "internalType": "bool",
          "name": "",
          "type": "bool"
        }
      ],
      "stateMutability": "view",
      "type": "function"
    },
    {
      "inputs": [
        {
          "internalType": "uint256",
          "name": "",
          "type": "uint256"
        }
      ],
      "name": "registrations",
      "outputs": [
        {
          "internalType": "uint256",
          "name": "startTime",
          "type": "uint256"
        },
        {
          "internalType": "uint256",
          "name": "endTime",
          "type": "uint256"
        }
      ],
      "stateMutability": "view",
      "type": "function"
    },
    {
      "inputs": [],
      "name": "renounceOwnership",
      "outputs": [],
      "stateMutability": "nonpayable",
      "type": "function"
    },
    {
      "inputs": [],
      "name": "totalProjects",
      "outputs": [
        {
          "internalType": "uint256",
          "name": "",
          "type": "uint256"
        }
      ],
      "stateMutability": "view",
      "type": "function"
    },
    {
      "inputs": [
        {
          "internalType": "address",
          "name": "newOwner",
          "type": "address"
        }
      ],
      "name": "transferOwnership",
      "outputs": [],
      "stateMutability": "nonpayable",
      "type": "function"
    },
    {
      "inputs": [
        {
          "internalType": "uint256",
          "name": "id",
          "type": "uint256"
        }
      ],
      "name": "validProjectId",
      "outputs": [
        {
          "internalType": "bool",
          "name": "",
          "type": "bool"
        }
      ],
      "stateMutability": "view",
      "type": "function"
    }
  ],
  "bytecode": "0x60806040523480156200001157600080fd5b5062000032620000266200004f60201b60201c565b6200005760201b60201c565b6200004960016200011b60201b62001e771760201c565b62000131565b600033905090565b60008060009054906101000a900473ffffffffffffffffffffffffffffffffffffffff169050816000806101000a81548173ffffffffffffffffffffffffffffffffffffffff021916908373ffffffffffffffffffffffffffffffffffffffff1602179055508173ffffffffffffffffffffffffffffffffffffffff168173ffffffffffffffffffffffffffffffffffffffff167f8be0079c531659141344cd1fd0a4f28419497f9722a3daafe3b4186f6b6457e060405160405180910390a35050565b6001816000016000828254019250508190555050565b612b5b80620001416000396000f3fe608060405234801561001057600080fd5b50600436106101cf5760003560e01c80638da5cb5b11610104578063b5f5cf70116100a2578063e5975bdc11610071578063e5975bdc146105e0578063f2fde38b146105fc578063f4ddb5be14610618578063f8285d3814610649576101cf565b8063b5f5cf7014610547578063be27db0014610578578063c82189e014610594578063cd52844d146105b0576101cf565b8063943df315116100de578063943df315146104985780639c361e4e146104c9578063a84b0692146104e7578063ae9d403a14610517576101cf565b80638da5cb5b146104175780638de6a11a146104355780638ee2a6d114610467576101cf565b806362a01ac211610171578063715018a61161014b578063715018a61461037c5780637480285714610386578063777de704146103b75780638d7365a9146103e7576101cf565b806362a01ac21461030057806364507efc1461031c5780636592b7241461034c576101cf565b806337979b80116101ad57806337979b801461026657806341e0f1b114610282578063428ba8931461029e578063571a26a0146102ce576101cf565b806305b576e3146101d457806324d2cb17146102045780632693b12c14610235575b600080fd5b6101ee60048036038101906101e9919061204a565b610665565b6040516101fb9190612884565b60405180910390f35b61021e6004803603810190610219919061204a565b610685565b60405161022c9291906128c8565b60405180910390f35b61024f600480360381019061024a919061204a565b6106b3565b60405161025d9291906128c8565b60405180910390f35b610280600480360381019061027b91906120eb565b6106e1565b005b61029c600480360381019061029791906120af565b61099e565b005b6102b860048036038101906102b3919061204a565b610a5e565b6040516102c59190612669565b60405180910390f35b6102e860048036038101906102e3919061204a565b610a9e565b6040516102f79392919061296e565b60405180910390f35b61031a60048036038101906103159190612021565b610ac8565b005b6103366004803603810190610331919061204a565b610cea565b6040516103439190612669565b60405180910390f35b6103666004803603810190610361919061204a565b610d2a565b6040516103739190612669565b60405180910390f35b610384610d6a565b005b6103a0600480360381019061039b9190612073565b610df2565b6040516103ae9291906128c8565b60405180910390f35b6103d160048036038101906103cc919061204a565b610eac565b6040516103de9190612884565b60405180910390f35b61040160048036038101906103fc919061204a565b610ecc565b60405161040e9190612669565b60405180910390f35b61041f610eec565b60405161042c919061264e565b60405180910390f35b61044f600480360381019061044a919061204a565b610f15565b60405161045e939291906128f1565b60405180910390f35b610481600480360381019061047c919061204a565b610f5f565b60405161048f9291906128c8565b60405180910390f35b6104b260048036038101906104ad919061204a565b610f8d565b6040516104c09291906128c8565b60405180910390f35b6104d161115f565b6040516104de9190612884565b60405180910390f35b61050160048036038101906104fc919061204a565b611170565b60405161050e9190612884565b60405180910390f35b610531600480360381019061052c919061204a565b611190565b60405161053e9190612884565b60405180910390f35b610561600480360381019061055c9190612073565b6111b0565b60405161056f92919061289f565b60405180910390f35b610592600480360381019061058d91906120af565b61124e565b005b6105ae60048036038101906105a99190612073565b61141e565b005b6105ca60048036038101906105c59190612021565b6115a8565b6040516105d79190612669565b60405180910390f35b6105fa60048036038101906105f59190612021565b6115c8565b005b61061660048036038101906106119190612021565b6117eb565b005b610632600480360381019061062d919061204a565b6118e3565b6040516106409291906128c8565b60405180910390f35b610663600480360381019061065e919061213a565b611907565b005b600060046000838152602001908152602001600020600101549050919050565b6000806000600560008581526020019081526020016000209050806000015481600101549250925050915091565b6000806000600360008581526020019081526020016000209050806000015481600101549250925050915091565b6106e9611e8d565b73ffffffffffffffffffffffffffffffffffffffff16610707610eec565b73ffffffffffffffffffffffffffffffffffffffff161461075d576040517f08c379a000000000000000000000000000000000000000000000000000000000815260040161075490612764565b60405180910390fd5b61076683610ecc565b6107a5576040517f08c379a000000000000000000000000000000000000000000000000000000000815260040161079c906126e4565b60405180910390fd5b6000821180156107b457508142105b6107f3576040517f08c379a00000000000000000000000000000000000000000000000000000000081526004016107ea90612684565b60405180910390fd5b6000811180156108035750808214155b801561080e57508082105b61084d576040517f08c379a0000000000000000000000000000000000000000000000000000000008152600401610844906127e4565b60405180910390fd5b600060056000858152602001908152602001600020905060008160000154146108ab576040517f08c379a00000000000000000000000000000000000000000000000000000000081526004016108a290612844565b60405180910390fd5b60006004600086815260200190815260200160002060010154905060008111610909576040517f08c379a000000000000000000000000000000000000000000000000000000000815260040161090090612744565b60405180910390fd5b80841161094b576040517f08c379a0000000000000000000000000000000000000000000000000000000008152600401610942906127c4565b60405180910390fd5b838260000181905550828260010181905550847f9b3770df20128a91841fed18e7e8efbd28645b85d6e95c9feeff96f7c9bd8396858560405161098f9291906128c8565b60405180910390a25050505050565b600260003373ffffffffffffffffffffffffffffffffffffffff1673ffffffffffffffffffffffffffffffffffffffff16815260200190815260200160002060009054906101000a900460ff16610a2a576040517f08c379a0000000000000000000000000000000000000000000000000000000008152600401610a2190612804565b60405180910390fd5b6000600560008481526020019081526020016000209050818160020154610a5191906129b6565b8160020181905550505050565b6000610a6982610ecc565b610a765760009050610a99565b600060036000848152602001908152602001600020905060008160000154119150505b919050565b60056020528060005260406000206000915090508060000154908060010154908060020154905083565b610ad0611e8d565b73ffffffffffffffffffffffffffffffffffffffff16610aee610eec565b73ffffffffffffffffffffffffffffffffffffffff1614610b44576040517f08c379a0000000000000000000000000000000000000000000000000000000008152600401610b3b90612764565b60405180910390fd5b600073ffffffffffffffffffffffffffffffffffffffff168173ffffffffffffffffffffffffffffffffffffffff161415610bb4576040517f08c379a0000000000000000000000000000000000000000000000000000000008152600401610bab90612864565b60405180910390fd5b600260008273ffffffffffffffffffffffffffffffffffffffff1673ffffffffffffffffffffffffffffffffffffffff16815260200190815260200160002060009054906101000a900460ff16610c40576040517f08c379a0000000000000000000000000000000000000000000000000000000008152600401610c37906126c4565b60405180910390fd5b6000600260008373ffffffffffffffffffffffffffffffffffffffff1673ffffffffffffffffffffffffffffffffffffffff16815260200190815260200160002060006101000a81548160ff0219169083151502179055508073ffffffffffffffffffffffffffffffffffffffff167fa995c74341d87d6382e611e2f9439787e1d6c954ed0032d4402817eb78f225c86000604051610cdf9190612669565b60405180910390a250565b6000610cf582610ecc565b610d025760009050610d25565b600060056000848152602001908152602001600020905060008160000154119150505b919050565b6000610d3582610ecc565b610d425760009050610d65565b600060046000848152602001908152602001600020905060008160000154119150505b919050565b610d72611e8d565b73ffffffffffffffffffffffffffffffffffffffff16610d90610eec565b73ffffffffffffffffffffffffffffffffffffffff1614610de6576040517f08c379a0000000000000000000000000000000000000000000000000000000008152600401610ddd90612764565b60405180910390fd5b610df06000611e95565b565b60008060006004600086815260200190815260200160002090506000600185610e1b9190612a0c565b9050816005018160ff1660038110610e5c577f4e487b7100000000000000000000000000000000000000000000000000000000600052603260045260246000fd5b0154826008018260ff1660038110610e9d577f4e487b7100000000000000000000000000000000000000000000000000000000600052603260045260246000fd5b01549350935050509250929050565b600060056000838152602001908152602001600020600101549050919050565b60008082118015610ee55750610ee26001611f59565b82105b9050919050565b60008060009054906101000a900473ffffffffffffffffffffffffffffffffffffffff16905090565b600460205280600052604060002060009150905080600001549080600101549080600b0160009054906101000a900473ffffffffffffffffffffffffffffffffffffffff16905083565b6000806000600460008581526020019081526020016000209050806000015481600101549250925050915091565b6000806000600460008581526020019081526020016000209050600081600801600260038110610fe6577f4e487b7100000000000000000000000000000000000000000000000000000000600052603260045260246000fd5b015482600801600160038110611025577f4e487b7100000000000000000000000000000000000000000000000000000000600052603260045260246000fd5b015483600801600060038110611064577f4e487b7100000000000000000000000000000000000000000000000000000000600052603260045260246000fd5b015461107091906129b6565b61107a91906129b6565b90506000826005016002600381106110bb577f4e487b7100000000000000000000000000000000000000000000000000000000600052603260045260246000fd5b0154836005016001600381106110fa577f4e487b7100000000000000000000000000000000000000000000000000000000600052603260045260246000fd5b015484600501600060038110611139577f4e487b7100000000000000000000000000000000000000000000000000000000600052603260045260246000fd5b015461114591906129b6565b61114f91906129b6565b9050818194509450505050915091565b600061116b6001611f59565b905090565b600060036000838152602001908152602001600020600101549050919050565b600060056000838152602001908152602001600020600201549050919050565b600080600060046000868152602001908152602001600020905060006001856111d99190612a0c565b9050816002018160ff166003811061121a577f4e487b7100000000000000000000000000000000000000000000000000000000600052603260045260246000fd5b015482600b0160009054906101000a900473ffffffffffffffffffffffffffffffffffffffff169350935050509250929050565b611256611e8d565b73ffffffffffffffffffffffffffffffffffffffff16611274610eec565b73ffffffffffffffffffffffffffffffffffffffff16146112ca576040517f08c379a00000000000000000000000000000000000000000000000000000000081526004016112c190612764565b60405180910390fd5b6000821161130d576040517f08c379a000000000000000000000000000000000000000000000000000000000815260040161130490612864565b60405180910390fd5b81421061134f576040517f08c379a000000000000000000000000000000000000000000000000000000000815260040161134690612704565b60405180910390fd5b818111611391576040517f08c379a000000000000000000000000000000000000000000000000000000000815260040161138890612724565b60405180910390fd5b600061139d6001611f59565b90508260036000838152602001908152602001600020600001819055508160036000838152602001908152602001600020600101819055506113df6001611e77565b807fdf73b2c7803d688e4b8ab4ca91b7327d6a4ba9dccec9caaa12bab2a617fda1b584846040516114119291906128c8565b60405180910390a2505050565b600260003373ffffffffffffffffffffffffffffffffffffffff1673ffffffffffffffffffffffffffffffffffffffff16815260200190815260200160002060009054906101000a900460ff166114aa576040517f08c379a00000000000000000000000000000000000000000000000000000000081526004016114a190612804565b60405180910390fd5b600060046000848152602001908152602001600020905060006001836114d09190612a0c565b9050816002018160ff1660038110611511577f4e487b7100000000000000000000000000000000000000000000000000000000600052603260045260246000fd5b0154826005018260ff1660038110611552577f4e487b7100000000000000000000000000000000000000000000000000000000600052603260045260246000fd5b015461155e91906129b6565b826005018260ff166003811061159d577f4e487b7100000000000000000000000000000000000000000000000000000000600052603260045260246000fd5b018190555050505050565b60026020528060005260406000206000915054906101000a900460ff1681565b6115d0611e8d565b73ffffffffffffffffffffffffffffffffffffffff166115ee610eec565b73ffffffffffffffffffffffffffffffffffffffff1614611644576040517f08c379a000000000000000000000000000000000000000000000000000000000815260040161163b90612764565b60405180910390fd5b600073ffffffffffffffffffffffffffffffffffffffff168173ffffffffffffffffffffffffffffffffffffffff1614156116b4576040517f08c379a00000000000000000000000000000000000000000000000000000000081526004016116ab90612864565b60405180910390fd5b600260008273ffffffffffffffffffffffffffffffffffffffff1673ffffffffffffffffffffffffffffffffffffffff16815260200190815260200160002060009054906101000a900460ff1615611741576040517f08c379a000000000000000000000000000000000000000000000000000000000815260040161173890612844565b60405180910390fd5b6001600260008373ffffffffffffffffffffffffffffffffffffffff1673ffffffffffffffffffffffffffffffffffffffff16815260200190815260200160002060006101000a81548160ff0219169083151502179055508073ffffffffffffffffffffffffffffffffffffffff167fa995c74341d87d6382e611e2f9439787e1d6c954ed0032d4402817eb78f225c860016040516117e09190612669565b60405180910390a250565b6117f3611e8d565b73ffffffffffffffffffffffffffffffffffffffff16611811610eec565b73ffffffffffffffffffffffffffffffffffffffff1614611867576040517f08c379a000000000000000000000000000000000000000000000000000000000815260040161185e90612764565b60405180910390fd5b600073ffffffffffffffffffffffffffffffffffffffff168173ffffffffffffffffffffffffffffffffffffffff1614156118d7576040517f08c379a00000000000000000000000000000000000000000000000000000000081526004016118ce906126a4565b60405180910390fd5b6118e081611e95565b50565b60036020528060005260406000206000915090508060000154908060010154905082565b61190f611e8d565b73ffffffffffffffffffffffffffffffffffffffff1661192d610eec565b73ffffffffffffffffffffffffffffffffffffffff1614611983576040517f08c379a000000000000000000000000000000000000000000000000000000000815260040161197a90612764565b60405180910390fd5b61198c86610ecc565b6119cb576040517f08c379a00000000000000000000000000000000000000000000000000000000081526004016119c2906126e4565b60405180910390fd5b6000851180156119da57508442105b611a19576040517f08c379a0000000000000000000000000000000000000000000000000000000008152600401611a1090612684565b60405180910390fd5b600084118015611a295750838514155b8015611a3457508385105b611a73576040517f08c379a0000000000000000000000000000000000000000000000000000000008152600401611a6a906127e4565b60405180910390fd5b600082600060038110611aaf577f4e487b7100000000000000000000000000000000000000000000000000000000600052603260045260246000fd5b6020020135118015611aff5750600082600160038110611af8577f4e487b7100000000000000000000000000000000000000000000000000000000600052603260045260246000fd5b6020020135115b8015611b495750600082600260038110611b42577f4e487b7100000000000000000000000000000000000000000000000000000000600052603260045260246000fd5b6020020135115b611b88576040517f08c379a0000000000000000000000000000000000000000000000000000000008152600401611b7f90612784565b60405180910390fd5b600083600060038110611bc4577f4e487b7100000000000000000000000000000000000000000000000000000000600052603260045260246000fd5b6020020135118015611c145750600083600160038110611c0d577f4e487b7100000000000000000000000000000000000000000000000000000000600052603260045260246000fd5b6020020135115b8015611c5e5750600083600260038110611c57577f4e487b7100000000000000000000000000000000000000000000000000000000600052603260045260246000fd5b6020020135115b611c9d576040517f08c379a0000000000000000000000000000000000000000000000000000000008152600401611c94906127a4565b60405180910390fd5b60006004600088815260200190815260200160002090506000816000015414611cfb576040517f08c379a0000000000000000000000000000000000000000000000000000000008152600401611cf290612844565b60405180910390fd5b60006003600089815260200190815260200160002060010154905060008111611d59576040517f08c379a0000000000000000000000000000000000000000000000000000000008152600401611d5090612824565b60405180910390fd5b808711611d9b576040517f08c379a0000000000000000000000000000000000000000000000000000000008152600401611d92906127c4565b60405180910390fd5b8682600001819055508582600101819055508482600201906003611dc0929190611f67565b508382600801906003611dd4929190611f67565b508282600b0160006101000a81548173ffffffffffffffffffffffffffffffffffffffff021916908373ffffffffffffffffffffffffffffffffffffffff1602179055508273ffffffffffffffffffffffffffffffffffffffff16887f79bf20ae2c511f70496feccd088ed3e0f7d78cd75dccb90cf37f56d71b48bdee8989888a604051611e659493929190612928565b60405180910390a35050505050505050565b6001816000016000828254019250508190555050565b600033905090565b60008060009054906101000a900473ffffffffffffffffffffffffffffffffffffffff169050816000806101000a81548173ffffffffffffffffffffffffffffffffffffffff021916908373ffffffffffffffffffffffffffffffffffffffff1602179055508173ffffffffffffffffffffffffffffffffffffffff168173ffffffffffffffffffffffffffffffffffffffff167f8be0079c531659141344cd1fd0a4f28419497f9722a3daafe3b4186f6b6457e060405160405180910390a35050565b600081600001549050919050565b8260038101928215611f96579160200282015b82811115611f95578235825591602001919060010190611f7a565b5b509050611fa39190611fa7565b5090565b5b80821115611fc0576000816000905550600101611fa8565b5090565b600081359050611fd381612ae0565b92915050565b600081905082602060030282011115611ff157600080fd5b92915050565b60008135905061200681612af7565b92915050565b60008135905061201b81612b0e565b92915050565b60006020828403121561203357600080fd5b600061204184828501611fc4565b91505092915050565b60006020828403121561205c57600080fd5b600061206a8482850161200c565b91505092915050565b6000806040838503121561208657600080fd5b60006120948582860161200c565b92505060206120a585828601611ff7565b9150509250929050565b600080604083850312156120c257600080fd5b60006120d08582860161200c565b92505060206120e18582860161200c565b9150509250929050565b60008060006060848603121561210057600080fd5b600061210e8682870161200c565b935050602061211f8682870161200c565b92505060406121308682870161200c565b9150509250925092565b600080600080600080610140878903121561215457600080fd5b600061216289828a0161200c565b965050602061217389828a0161200c565b955050604061218489828a0161200c565b945050606061219589828a01611fd9565b93505060c06121a689828a01611fd9565b9250506101206121b889828a01611fc4565b9150509295509295509295565b6121ce81612a40565b82525050565b6121e060608383612aa2565b5050565b6121ed81612a52565b82525050565b6000612200601e836129a5565b91507f4c69676874686f7573653a20494e56414c49445f53544152545f54494d4500006000830152602082019050919050565b60006122406026836129a5565b91507f4f776e61626c653a206e6577206f776e657220697320746865207a65726f206160008301527f64647265737300000000000000000000000000000000000000000000000000006020830152604082019050919050565b60006122a66013836129a5565b91507f4c69676874686f7573653a204e4f5f55534552000000000000000000000000006000830152602082019050919050565b60006122e6601e836129a5565b91507f4c69676874686f7573653a20494e56414c49445f50524f4a4543545f494400006000830152602082019050919050565b60006123266017836129a5565b91507f4c69676874686f7573653a2054494d455f5041535345440000000000000000006000830152602082019050919050565b6000612366601e836129a5565b91507f4c69676874686f7573653a20494e434f52524543545f454e445f54494d4500006000830152602082019050919050565b60006123a6601a836129a5565b91507f4c69676874686f7573653a204e4f5f50524546554e445f5945540000000000006000830152602082019050919050565b60006123e66020836129a5565b91507f4f776e61626c653a2063616c6c6572206973206e6f7420746865206f776e65726000830152602082019050919050565b60006124266019836129a5565b91507f4c69676874686f7573653a205a45524f5f504f4f4c5f434150000000000000006000830152602082019050919050565b6000612466601c836129a5565b91507f4c69676874686f7573653a205a45524f5f46495845445f5052494345000000006000830152602082019050919050565b60006124a66023836129a5565b91507f4c69676874686f7573653a204e4f5f524547495354524154494f4e5f454e445f60008301527f59455400000000000000000000000000000000000000000000000000000000006020830152604082019050919050565b600061250c601c836129a5565b91507f4c69676874686f7573653a20494e56414c49445f454e445f54494d45000000006000830152602082019050919050565b600061254c6015836129a5565b91507f4c69676874686f7573653a20464f5242494444454e00000000000000000000006000830152602082019050919050565b600061258c601f836129a5565b91507f4c69676874686f7573653a204e4f5f524547495354524154494f4e5f594554006000830152602082019050919050565b60006125cc6019836129a5565b91507f4c69676874686f7573653a20414c52454144595f4144444544000000000000006000830152602082019050919050565b600061260c6018836129a5565b91507f4c69676874686f7573653a205a45524f5f4144445245535300000000000000006000830152602082019050919050565b61264881612a8b565b82525050565b600060208201905061266360008301846121c5565b92915050565b600060208201905061267e60008301846121e4565b92915050565b6000602082019050818103600083015261269d816121f3565b9050919050565b600060208201905081810360008301526126bd81612233565b9050919050565b600060208201905081810360008301526126dd81612299565b9050919050565b600060208201905081810360008301526126fd816122d9565b9050919050565b6000602082019050818103600083015261271d81612319565b9050919050565b6000602082019050818103600083015261273d81612359565b9050919050565b6000602082019050818103600083015261275d81612399565b9050919050565b6000602082019050818103600083015261277d816123d9565b9050919050565b6000602082019050818103600083015261279d81612419565b9050919050565b600060208201905081810360008301526127bd81612459565b9050919050565b600060208201905081810360008301526127dd81612499565b9050919050565b600060208201905081810360008301526127fd816124ff565b9050919050565b6000602082019050818103600083015261281d8161253f565b9050919050565b6000602082019050818103600083015261283d8161257f565b9050919050565b6000602082019050818103600083015261285d816125bf565b9050919050565b6000602082019050818103600083015261287d816125ff565b9050919050565b6000602082019050612899600083018461263f565b92915050565b60006040820190506128b4600083018561263f565b6128c160208301846121c5565b9392505050565b60006040820190506128dd600083018561263f565b6128ea602083018461263f565b9392505050565b6000606082019050612906600083018661263f565b612913602083018561263f565b61292060408301846121c5565b949350505050565b60006101008201905061293e600083018761263f565b61294b602083018661263f565b61295860408301856121d4565b61296560a08301846121d4565b95945050505050565b6000606082019050612983600083018661263f565b612990602083018561263f565b61299d604083018461263f565b949350505050565b600082825260208201905092915050565b60006129c182612a8b565b91506129cc83612a8b565b9250827fffffffffffffffffffffffffffffffffffffffffffffffffffffffffffffffff03821115612a0157612a00612ab1565b5b828201905092915050565b6000612a1782612a95565b9150612a2283612a95565b925082821015612a3557612a34612ab1565b5b828203905092915050565b6000612a4b82612a6b565b9050919050565b60008115159050919050565b60008160000b9050919050565b600073ffffffffffffffffffffffffffffffffffffffff82169050919050565b6000819050919050565b600060ff82169050919050565b82818337600083830152505050565b7f4e487b7100000000000000000000000000000000000000000000000000000000600052601160045260246000fd5b612ae981612a40565b8114612af457600080fd5b50565b612b0081612a5e565b8114612b0b57600080fd5b50565b612b1781612a8b565b8114612b2257600080fd5b5056fea2646970667358221220915b1f257e27c803d1b4d4b00c7d6a5262e2033fa8a19cf47cf95120502d20dd64736f6c63430008000033",
  "linkReferences": {},
  "deployedLinkReferences": {}
}