{
  "_format": "hh-sol-artifact-1",
  "contractName": "LighthouseMint",
  "sourceName": "contracts/LighthouseStake.sol",
  "abi": [
    {
      "anonymous": false,
      "inputs": [
        {
          "indexed": true,
          "internalType": "address",
          "name": "previousOwner",
          "type": "address"
        },
        {
          "indexed": true,
          "internalType": "address",
          "name": "newOwner",
          "type": "address"
        }
      ],
      "name": "OwnershipTransferred",
      "type": "event"
    },
    {
      "inputs": [],
      "name": "owner",
      "outputs": [
        {
          "internalType": "address",
          "name": "",
          "type": "address"
        }
      ],
      "stateMutability": "view",
      "type": "function"
    },
    {
      "inputs": [],
      "name": "renounceOwnership",
      "outputs": [],
      "stateMutability": "nonpayable",
      "type": "function"
    },
    {
      "inputs": [
        {
          "internalType": "uint256",
          "name": "projectId",
          "type": "uint256"
        },
        {
          "internalType": "uint256",
          "name": "nftId",
          "type": "uint256"
        }
      ],
      "name": "stake",
      "outputs": [],
      "stateMutability": "nonpayable",
      "type": "function"
    },
    {
      "inputs": [
        {
          "internalType": "address",
          "name": "newOwner",
          "type": "address"
        }
      ],
      "name": "transferOwnership",
      "outputs": [],
      "stateMutability": "nonpayable",
      "type": "function"
    }
  ],
  "bytecode": "0x608060405234801561001057600080fd5b5061002d61002261003260201b60201c565b61003a60201b60201c565b6100fe565b600033905090565b60008060009054906101000a900473ffffffffffffffffffffffffffffffffffffffff169050816000806101000a81548173ffffffffffffffffffffffffffffffffffffffff021916908373ffffffffffffffffffffffffffffffffffffffff1602179055508173ffffffffffffffffffffffffffffffffffffffff168173ffffffffffffffffffffffffffffffffffffffff167f8be0079c531659141344cd1fd0a4f28419497f9722a3daafe3b4186f6b6457e060405160405180910390a35050565b61057a8061010d6000396000f3fe608060405234801561001057600080fd5b506004361061004c5760003560e01c8063715018a6146100515780637b0472f01461005b5780638da5cb5b14610077578063f2fde38b14610095575b600080fd5b6100596100b1565b005b6100756004803603810190610070919061037d565b610139565b005b61007f61013d565b60405161008c919061046e565b60405180910390f35b6100af60048036038101906100aa9190610354565b610166565b005b6100b961025e565b73ffffffffffffffffffffffffffffffffffffffff166100d761013d565b73ffffffffffffffffffffffffffffffffffffffff161461012d576040517f08c379a0000000000000000000000000000000000000000000000000000000008152600401610124906104a9565b60405180910390fd5b6101376000610266565b565b5050565b60008060009054906101000a900473ffffffffffffffffffffffffffffffffffffffff16905090565b61016e61025e565b73ffffffffffffffffffffffffffffffffffffffff1661018c61013d565b73ffffffffffffffffffffffffffffffffffffffff16146101e2576040517f08c379a00000000000000000000000000000000000000000000000000000000081526004016101d9906104a9565b60405180910390fd5b600073ffffffffffffffffffffffffffffffffffffffff168173ffffffffffffffffffffffffffffffffffffffff161415610252576040517f08c379a000000000000000000000000000000000000000000000000000000000815260040161024990610489565b60405180910390fd5b61025b81610266565b50565b600033905090565b60008060009054906101000a900473ffffffffffffffffffffffffffffffffffffffff169050816000806101000a81548173ffffffffffffffffffffffffffffffffffffffff021916908373ffffffffffffffffffffffffffffffffffffffff1602179055508173ffffffffffffffffffffffffffffffffffffffff168173ffffffffffffffffffffffffffffffffffffffff167f8be0079c531659141344cd1fd0a4f28419497f9722a3daafe3b4186f6b6457e060405160405180910390a35050565b60008135905061033981610516565b92915050565b60008135905061034e8161052d565b92915050565b60006020828403121561036657600080fd5b60006103748482850161032a565b91505092915050565b6000806040838503121561039057600080fd5b600061039e8582860161033f565b92505060206103af8582860161033f565b9150509250929050565b6103c2816104da565b82525050565b60006103d56026836104c9565b91507f4f776e61626c653a206e6577206f776e657220697320746865207a65726f206160008301527f64647265737300000000000000000000000000000000000000000000000000006020830152604082019050919050565b600061043b6020836104c9565b91507f4f776e61626c653a2063616c6c6572206973206e6f7420746865206f776e65726000830152602082019050919050565b600060208201905061048360008301846103b9565b92915050565b600060208201905081810360008301526104a2816103c8565b9050919050565b600060208201905081810360008301526104c28161042e565b9050919050565b600082825260208201905092915050565b60006104e5826104ec565b9050919050565b600073ffffffffffffffffffffffffffffffffffffffff82169050919050565b6000819050919050565b61051f816104da565b811461052a57600080fd5b50565b6105368161050c565b811461054157600080fd5b5056fea2646970667358221220302ff298a02e5ad301dbd82e6c6e6dabd61275820c17c5b520df5dfb9971b15a64736f6c63430008000033",
  "linkReferences": {},
  "deployedLinkReferences": {}
}